:020000040000FA
:0600000002011D021F1B9E
:03002B00021AAD09
:03003B00021AF8AE
:03004300021A841A
:03005300021F8EFB
:03006B00021AC9AD
:10008300021DCFE5C754F84401F5C77901220000EA
:100093000080FB120086B90003020107E47921788E
:1000A30008B800028004F709D8FCE479297802B87B
:1000B30000028004F709D8FCE49002817851790B9F
:1000C3008002F0A3D8FCD9FA781A90014D7A01BACC
:1000D30000028007E493A3F608DAF9900CD1AA8210
:1000E300AB8390014E788179038015E493A3AC82AE
:1000F300AD838A828B83F0A3AA82AB838C828D83A8
:10010300D8E9D9E775828F7583B9740312012F7506
:100113008291758300740012012F75D00075813FA1
:10012300751881751902759F00020096C09FF59F8F
:10013300E473D09F22D083D082C09FE493C0E07445
:100143000193C0E0740293F59F2201FFFF1101990F
:10015300010F12640401028A8401000054840260C6
:1001630084010000D80C027C84010000D90C0266D3
:1001730084030000A702027884010000DA0C01E87E
:1001830003053F101A446F2053796E63000000008B
:1001930000000000000008415050205365742043C4
:1001A3006C6F636B000000001201004461746120F6
:1001B30048656164657200000000000012446174C8
:1001C3006120426F64790000000000000000028A91
:1001D300840100005A840260840100000A0D027A3F
:1001E3008403000044050266840300004C05026298
:1001F300840100000B0D0260840100001C0D0288C5
:100203008402000052050262840100001D0D026099
:10021300840100002E0D0284840300002F0D02666A
:10022300840300005605026284010000310D026060
:1002330084010000420D0282840300005C05026613
:10024300840300006405026284010000430D000082
:10025300000000000000FF000130750302010600EA
:10026300000000000000000000000000000000008B
:100273000000000000000000000000FFFF060080F7
:100283000CE80305000A002C0101000100110941DB
:100293006464696E672041312D3030303030300571
:1002A300125000A000020A00020106050200230FFB
:1002B30018416464696E672041312D30303030302D
:1002C3003000000000001E0800002A08FF0000B4F0
:1002D300000028002800283075A000A000A000A07E
:1002E3000000080008E001F00010001000100010EA
:1002F300001000100050005000500010001000D0FB
:10030300070000000000000F000100050030750722
:10031300001000010081FF0000FF520A700A580A12
:10032300FF02020208025000A0000000E803028A54
:10033300840100005D84026084010000A70E02684E
:10034300840100002808026084010000A80E026AEC
:10035300840100003E08026084010000A90E026EC1
:10036300840100004008026084010000AA0E0270AC
:10037300840800004108026084010000AB0E02748F
:1003830084010000AC0EFF0100FF20028A840100FB
:10039300005784026084010000100F02768400007D
:1003A3000000000266840300008E0828102810282D
:1003B300102810281028102810281028102810287A
:1003C3001028102810B612CE12B0121201381DC612
:1003D3000212013827C60212013868C60212013818
:1003E300B1C602120138EBC60212013841C702122C
:1003F300013862C70212013811CA021201381ACA3F
:10040300021201386ECA0212013897CA0212013869
:10041300A1CA021201380FCB021201389FCB02127C
:100423000138FACB0212013828CC02120138B0CCC1
:1004330002120138EFCC0212013824CD0212013826
:1004430036CD0212013855CD021201385ECD0212AB
:10045300013825CE02120138008003120138F780DB
:10046300031201381181031201382281031201386A
:1004730034830312013853830312013864A903122E
:1004830001389AA903120138CEA9031201381BAB14
:100493000312013894B703120138AAB703120138C3
:1004A300B4B703120138FEB70312013830B903128F
:1004B3000138D1F702120138E4F702120138A5F826
:1004C30002120138E4F80212013801F9021201386C
:1004D3003AF90212013887F902120138B9F9021206
:1004E3000138F0F902120138F9FB0212013865FCF8
:1004F3000212013859B0031201387CB003120138DB
:10050300ABB00312013843B10312013885B10312B2
:10051300013872FC02120138A2FC02120138B5FC48
:1005230002120138E4FC0212013800FD0212013804
:10053300ACFD0212013845FE02120138CEFE021252
:10054300013886BA03120138E7B9031201388E84E1
:10055300011201386C86011201380B88011201382F
:10056300B68801120138368901120138BB8901129C
:100573000138E48901120138BF8D01120138368E2A
:10058300011201384D8F01120138878F0112013892
:10059300C88F011201380F910112013865910112C0
:1005A3000138AE91011201381D920112013889926E
:1005B30001120138BA9201120138D29201120138A4
:1005C300EB9301120138FB9301120138B19501122B
:1005D3000138C89501120138FA95011201389C9728
:1005E30001120138309801120138D8B603120138CC
:1005F300E9B60312013889B7031201383DBA031271
:1006030001387CBA03120138DF7F001201380FB6BC
:10061300031201381FB60312013837B6031201382B
:10062300CBB60312013836B403120138BBB403123C
:1006330001381FB503120138CEB10312013802B2DB
:100643000312013825B20312013899B2031201389B
:10065300F57F001201385791031201388491031278
:100663000138F691031201380B92031201382C93CF
:1006730003120138AF93031201382894031201388F
:100683004794031201386A9403120138A7940312A2
:100693000138BF94031201381595031201383B8DBD
:1006A30003120138528D03120138CC8D0312013825
:1006B300B08E03120138879003120138EC900312B5
:1006C3000138439103120138F87F0012013830A733
:1006D30003120138BAA8031201381BA90312013807
:1006E30061A90312013801A0031201389CA003126F
:1006F300013894A10312013846A2031201386EA2F5
:100703000312013886A20312013890A203120138A2
:100713002AF30212013864F30212013881F3021240
:10072300013824F40212013886F40212013882F5EA
:1007330002120138B4F602120138D9F60212013856
:1007430022F7021201388CF702120138C1AE0312EC
:10075300013813AF0312013886AF03120138F3AF28
:1007630003120138E9A40312013813A50312013857
:10077300E2A503120138BEA60312013853CE0212BA
:1007830001381FCF0212013860CF021201389ACF0D
:1007930002120138F8CF021201384CD0021201388C
:1007A300AAD00212013840D10212013848D20212F3
:1007B3000138D2D30212013870D402120138D7D4CF
:1007C30002120138EAD402120138DED502120138CE
:1007D30027D6021201388F8D02120138C1900212FE
:1007E3000138529202120138A99202120138C692BC
:1007F30002120138469302120138C29402120138E0
:10080300919502120138FE9802120138E8990212FA
:1008130001389A6C00120138DD6F001201389970AB
:1008230000120138B47100120138FA710012013854
:10083300227300120138A47300120138D574001218
:1008430001385A7700120138277800120138CB7A21
:10085300001201380EAD0312013825AD0312013821
:1008630054AD031201388DAD03120138B5AD031237
:100873000138E3AD03120138FAAD0312013811AEAA
:100883000312013827AE031201384EAE03120138AA
:1008930061AE0312013877AE031201388AAE031238
:1008A3000138AFAE0312013871B30212013870B4CC
:1008B30002120138A5B402120138C6B4021201387B
:1008C300D6B402120138F7B40212013803B6021289
:1008D3000138D0B60212013843B702120138C9B742
:1008E300021201380CB80212013843B8021201385F
:1008F300C9B8021201389BB902120138F9B90212C0
:10090300013811BA021201388BBA021201388EBAB9
:100913000212013891BA0212013838BB02120138AF
:1009230050BB0212013880BB02120138A0BB021275
:1009330001388EBC0212013844BD0212013882EE26
:1009430002120138AAEE02120138D8EE021201385F
:100953000FEF0212013877EF02120138C0EF0212D3
:1009630001380BF00212013849F00212013886F007
:1009730002120138B4F0021201385BF1021201389D
:1009830065F10212013872F102120138A5F1021267
:10099300013867F20212013873F2021201388BF246
:1009A3000212013895F20212013838B503120138E8
:1009B30046B5031201385EB50312013876B503124A
:1009C30001387CBB011201381ABC0112013892BCF8
:1009D30001120138A7BD01120138E1BD011201382E
:1009E3008ABE011201385FBF01120138C3C0011270
:1009F30001381AC101120138A1C10112013888C29C
:100A030001120138D5C20112013863C30112013842
:100A130087C3011201385CC5011201389DC501125B
:100A23000138BFC50112013840C6011201382AC777
:100A330001120138F0C701120138A6DD0212013894
:100A430078DE0212013821DF0212013864DF02125C
:100A53000138F1DF021201387DE0021201385EE154
:100A6300021201388DE10212013889E202120138C3
:100A7300D1E202120138D3E30212013817E4021261
:100A830001383DE4021201382AB8031201383699BD
:100A9300031201384C990312013872990312013879
:100AA3009A9A03120138A49A03120138FD9B031288
:100AB3000138FD9C03120138B2E402120138E7E564
:100AC300021201381AE60212013864E602120138F2
:100AD30022E8021201381FAC0112013882AC011264
:100AE3000138C7AD01120138D7AD01120138FAAD93
:100AF3000112013845AE01120138EAAE0112013884
:100B0300E0AF01120138AAB00112013822B201127A
:100B1300013864B20112013802B3011201384FB334
:100B23000112013875B30112013863B5011201389E
:100B330068B50112013849B7011201389DB7011296
:100B43000138FFB70112013827B801120138CBB8B9
:100B5300011201388DB901120138BEB901120138F1
:100B6300C1B90112013809BA011201384BBA011295
:100B73000138B2BA0112013893A203120138A6A2B6
:100B830003120138BFA2031201380AA3031201386A
:100B9300E5A30312013874A403120138BFA403129E
:100BA30001382026001201382C2600120138652650
:100BB30000120138AA2600120138612700120138F9
:100BC300E727001201381328001201384C280012BD
:100BD3000138602A001201383C2C00120138272EFC
:100BE300001201385E2F00120138BE3100120138A5
:100BF300AA3200120138F03300120138FD3400121A
:100C030001381A35001201385235001201386C359B
:100C130000120138D435001201386E3A001201383F
:100C23000F3B00120138603B00120138873B001272
:100C33000138D53B00120138F33B00120138473C21
:100C4300001201384F3D00120138D73D0012013820
:100C5300D8E902120138E2E902120138ADEA0212C0
:100C63000138C8EA02120138EEEA0212013832EB07
:100C7300021201386AEB0212013893EB02120138B7
:100C83000CEC0212013821EC0212013836EC02128C
:100C930001386DEC0212013881EC02120138B2EC1A
:100CA30002120138ECEC0212013818ED021201387D
:100CB3006EED02120138C2ED021201380BEE021280
:100CC300013835EE021201385AEE021201384A9504
:100CD30003120138149603120138F79603120138F0
:100CE3006D9703120138AF9703120138DC98031292
:100CF30001387E9A02120138A79A02120138C09A6B
:100D030002120138059C02120138E39C02120138D9
:100D1300029D021201388F9D02120138D29D0212E8
:100D230001381F9F02120138BE9F021201383DA2F3
:100D330002120138D4A202120138A8A30212013808
:100D43008AA402120138F6A50212013889A60212FA
:100D5300013821B3031201388AB303120138DEB319
:100D63000312013805B4031201389A8403120138BF
:100D7300078503120138528503120138478603128F
:100D830001384387031201382D8803120138AFBDA0
:100D930002120138F1BD02120138CBBE0212013832
:100DA300A4BF021201389FC0021201387EC1021291
:100DB3000138EAC102120138B1C2021201381CC360
:100DC3000212013883C302120138AEC30212013882
:100DD3001FC402120138B2C4021201381BC5021229
:100DE300013830C50212013878C50212013891C5A5
:100DF30002120138F6C502120138F9C50212013890
:100E0300079D031201382F9D031201386D9D0312B4
:100E130001382B9E03120138969E03120138B29EAD
:100E230003120138DA9E031201380A9F03120138B4
:100E3300199F03120138939F03120138B99F0312BC
:100E43000138A3D80112013880DA011201387BDCA2
:100E5300011201384EDD0112013899DD011201380A
:100E6300E4DD01120138F6DD0112013836DE01122C
:100E730001386BDE01120138B7DE01120138E6DEFC
:100E83000112013809DF0112013856DF011201385E
:100E9300DFDF01120138ECE101120138D7E301125F
:100EA30001381AE4011201387FE501120138C0E567
:100EB3000112013833E6011201387FE601120138CD
:100EC300AAE60112013800A7021201382BA7021269
:100ED300013812AE0212013836B002120138F1B1F4
:100EE300021201384EB3021201383E3E001201389D
:100EF300D53E00120138023F00120138483F00126C
:100F030001388740001201381E420012013898420E
:100F130000120138B342001201382843001201388D
:100F2300574400120138B24500120138B44600128A
:100F330001381148001201382A4800120138874845
:100F4300001201386949001201389C490012013826
:100F53000C4A00120138864A00120138D54A0012A1
:100F63000138A14B00120138A64C00120138854DFF
:100F730000120138104E001201387E4E0012013863
:100F8300F24E001201381B4F00120138DA4F0012E3
:100F93000138545100120138715100120138905137
:100FA3000012013821520012013846520012013852
:100FB3006E5200120138E9520012013843530012F5
:100FC300013897540012013854550012013827563E
:100FD30000120138D4E60112013824E70112013866
:100FE30030E7011201380DE8011201383DE8011222
:100FF300013875E801120138F4E8011201382CE9CF
:10100300011201387EE901120138BBE901120138EE
:10101300E0EB011201380CEE0112013807F0011266
:101023000138E2F101120138F27F001201386E98A3
:1010330001120138B89801120138979E0112013844
:1010430018A00112013877A60112013872A7011204
:101053000138AFA701120138D2A70112013814A831
:10106300011201381DA80112013827A80112013805
:1010730013A90112013807AA0112013855560012AB
:101083000138CD6000120138D36000120138DF67E8
:1010930000120138427C00120138D87C001201385A
:1010A300EE7C00120138687D00120138BE7D00120B
:1010B3000138FC7D00120138597E00120138D67EBA
:1010C30000120138DF7E00120138EB7E0012013876
:1010D300FE7E001201383A7F00120138507F001261
:1010E3000138AF7F00120138EF8803120138FC8802
:1010F3000312013816890312013855890312013886
:10110300938903120138F889031201380D8A0312F7
:101113000138188A03120138258A031201383C8AE0
:10112300031201384A8A03120138558A031201381F
:10113300618A03120138708A031201387B8A031211
:1011430001389E8A03120138478B03120138578BEB
:1011530003120138718B031201388E8B031201388D
:10116300AA8B03120138CF8B03120138D98B0312D8
:101173000138ED8B031201380C8C031201386D8C8E
:1011830003120138738C03120138798C031201386E
:101193007F8C031201388B8C03120138BE8C03122F
:1011A300013805800212013887800212013830812C
:1011B3000212013878820212013886840212013841
:1011C3006C8502120138A18502120138C38502120F
:1011D30001386C86021201383C8802120138658896
:1011E30002120138DD88021201380F890212013818
:1011F3001C89021201386789021201388B89021295
:101203000138DC8B02120138E68C02120138428D60
:101213000212013825CA0112013836CB01120138F6
:101223001ACC0112013824CC0112013846CC011228
:10123300013852CC01120138F6CD0112013823CE08
:101243000112013839CF011201388ECF0112013852
:10125300DDD001120138B2D1011201380ED20112D0
:10126300013879D201120138AED201120138F1D21C
:1012730001120138BBD501120138D3D5011201384F
:1012830064D60112013872D601120138BFD6011299
:101293000138CDD60112013839D701120138B4D73C
:1012A300011201380BD801120138A3F401120138DD
:1012B300C5F401120138D6F60112013895F901126D
:1012C3000138BFFA011201387DFB0112013869FCB4
:1012D3000112013855AB031201387AAB03120138FE
:1012E300F0AB0312013889D60212013892D60212EA
:1012F30001389BD60212013873D70212013824D960
:101303000212013854D9021201387FD9021201386E
:10131300AFD902120138DAD9021201380EDA0212F9
:1013230001383ADA021201387DDA02120138A8DAFA
:1013330002120138EFDA0212013844DB02120138DB
:1013430086DB02120138E0DB021201380BDC0212E9
:1013530001385ADC021201388ADC02120138B5DC8A
:1013630002120138E3DC0212013806DD02120138F1
:10137300B3B803120138DFB8031201380CB90312F2
:10138300013816B90312013826B903120138BFFF19
:1013930002120138C1FF01120138B0BA0312013839
:1013A300D8BA03E066701008A3E066700A08A3E0E9
:1013B30066700408A3E06622C3E7960809E7960867
:1013C30009E7960809E79622C3E09608A3E0960882
:1013D300A3E09608A3E09622C008C3E096F50808A8
:1013E300A3E096420808A3E096420808A3E09645C6
:1013F300087001D3D00822080808EAC0E0EBC0E077
:1014030086F0E7A4FA180986F0E7A42AFA180986F1
:10141300F0E7A42AFA180986F0E7A42AFA1986F055
:10142300E7A4FBE5F02AFA190886F0E7A42BFBE50D
:10143300F03AFA190886F0E7A42BFBE5F03AFA181C
:10144300180986F0E7A4C5F02BFBE43AFA1908E77C
:10145300C5F0C6A426F6E5F03BFBE43AFA1886F09D
:10146300E7A4F6E5F00826F6E43B08F6E43A08F6C6
:10147300D0E0FBD0E0FA22E4CFC0E0E4CEC0E0E469
:10148300CDC0E0E4CCC0E075F020C3E633F608E657
:1014930033F608E633F608E633F6181818EC33FC8F
:1014A300ED33FDEE33FEEF33FFC3EC9709ED970900
:1014B300EE9709EF97191919400FFFEC97FC09ED07
:1014C30097FD09EE97FE191906D5F0BEECF709ED65
:1014D300F709EEF709EFF7191919D0E0FCD0E0FD91
:1014E300D0E0FED0E0FF226016080808C6C313C68A
:1014F30018C613C618C613C618C613C6D5E0EA2203
:101503007009080808226016181818C6C333C608DD
:10151300C633C608C633C608C633C6D5E0EA22E6D4
:1015230027F60809E637F60809E637F60809E63725
:10153300F622E026F608A3E036F608A3E036F6081E
:10154300A3E036F622E026F008A3E036F008A3E095
:1015530036F008A3E036F022C3E697F60809E697CB
:10156300F60809E697F60809E697F622C3E096F02F
:1015730008A3E096F008A3E096F008A3E096F02213
:10158300E056F608A3E056F608A3E056F608A3E0F3
:1015930056F622E056F008A3E056F008A3E056F012
:1015A30008A3E056F022E0F608A3E0F608A3E0F66D
:1015B30008A3E0F622E6F008A3E6F008A3E6F008A5
:1015C300A3E6F022E0FAA3E0FBA3E0FCA3E0FD2204
:1015D300EAF0A3EBF0A3ECF0A3EDF022CAC0E0E63F
:1015E300F0A308DAFAD0E0FA22CAC0E0E0A3C58289
:1015F300CCC582C583CDC583F0A3C582CCC582C5C6
:1016030083CDC583DAE6D0E0CA22C3E498F8E4992F
:10161300F912164E8026C3E49AFAE49BFBE920E70D
:10162300E912164EE498F8E499F922C3E498F8E431
:1016330099F912164EE498F8E499F9C3E49AFAE496
:101643009BFB22EB20E7CFE920E7E0B90010BB00CA
:1016530008E88AF084F8AAF022E4FBC8FA22EB70C7
:10166300227B10C833C8C933C9335007C39AC3DBBD
:10167300F280069A50012ADBEAC833F4C8C933F46E
:10168300C9FA2275F008E4C833C8C933C933C99A03
:10169300C99B5004C92AC93BD5F0ECFBC833F4C835
:1016A300E4C9FA22600D08C6A2E713C618C613C61A
:1016B300D5E0F322600C08C6C313C618C613C6D5FB
:1016C300E0F422700422600D18C6C333C608C63383
:1016D300C6D5E0F41822251810AF08F518400215F6
:1016E300198008F51840021519D2AF22C0D0251869
:1016F30010AF08F518500205198008F518500205B7
:1017030019D2AFD0D0222518F58210AF08F51840B2
:101713000215198008F51840021519D2AF851983EF
:10172300222518F582E43519F58322E4732518C5BB
:1017330082C0E0E51934FFC583C0E0E518C3958294
:1017430024F810AF088583198582188008858319CA
:10175300858218D2AFCEF0A3E520F0A37808E6087F
:10176300F0A3DEFAEFF0A3E58124FAF8E608F0A38C
:10177300E608F0A3E608F0A30808E608F0A3E608E5
:10178300F0A315811581D0E0FED0E0F81581158115
:101793001581E8C0E0EEC0E0222518C582C0E0E56F
:1017A3001934FFC583C0E0E518C3958224F910AF4F
:1017B300088583198582188008858319858218D244
:1017C300AFCEF0A3E520F0A37808E608F0A3DEFA95
:1017D300EFF0A3E58124FBF8E608F0A3E608F0A305
:1017E3000808E608F0A3E608F0A315811581D0E008
:1017F300FED0E0F815811581E8C0E0EEC0E0228557
:101803001983851882E0A3FEE0A3F5207808E0A3FE
:10181300F608DFFAE0A3FFE0A3C0E0E0A3C0E0E046
:10182300A3C0E0E0A3C0E0E0A3C0E010AF0885825E
:10183300188583198008858218858319D2AFD083D0
:10184300D082020135851983851882E0A3FEE0A3C7
:10185300F5207808E0A3F608DFFAE0A3FFE0A3C0D1
:10186300E0E0A3C0E0E0A3C0E0E0A3C0E010AF0865
:101873008582188583198008858218858319D2AFDC
:10188300D083D08222C0D02518C582C0E0E51934A8
:10189300FFC583C0E0E518C3958224F310AF088524
:1018A30083198582188008858319858218D2AFC869
:1018B300F0A3E9F0A3EAF0A3EBF0A37908E709F0BA
:1018C300A3D8FAECF0A3EDF0A3EEF0A3EFF0A3D0CE
:1018D300E0F0A3D0E0F0A3D0E0F0A3E520F0A3E58F
:1018E300F0F0A322851983851882E0C0E0A3E0F914
:1018F300A3E0FAA3E0FBA37808E0F608A3DFFAE08D
:10190300FCA3E0FDA3E0FEA3E0FFA3E0C0E0A3E0AF
:10191300C0E0A3E0F5D0A3E0F520A3E0A3F5F01029
:10192300AF088583198582188008858319858218F5
:10193300D2AFD082D083D0E0F8D0E03274048006F6
:10194300740280027401C0E0F404121709D0E0129B
:1019530015DF227404800474028000CCC0E0EDC063
:10196300E0E518C39CCCAD1950011D10AF068C18CF
:101973008D1980068C188D19D2AF1215ECD0E0FDAD
:10198300D0E0FC22D083D082E9C0E0E493A3C386F5
:10199300F0C5F095F0F908E493A386F0C5F095F04F
:1019A300700BE493A3C3994005E9048002A3E47593
:1019B300F002A42582F582E5F03583F583D0E0F9C2
:1019C300E493A3C0E0E493C0E022D083D082ECC0D0
:1019D300E0EDC0E0E493A3FCE493A3FDED4C600DC4
:1019E300121A19EC24FFFCED34FFFD80EFE493A3FE
:1019F300FCE493A3FDED4C600D121A58EC24FFFC9C
:101A0300ED34FFFD80EFD0E0FDD0E0FCE493A3C014
:101A1300E0E493C0E022C0E0C3E49396087401932A
:101A23009618400FE4936670080874019366187063
:101A3300007019A3A3C3E49396087401939618A3A3
:101A4300A3400DD0E0D0E0D0E0021A09A3A3A3A3E2
:101A5300A3A3D0E022C0E0C0F088F0E4936670084E
:101A63000874019366187000A8F0A3A3700BD0F05C
:101A7300D0E0D0E0D0E0021A09A3A3D0F0D0E02256
:101A8400C0E074F2121888A2AFE433FED2AFC2C031
:101A9400E5D1A2E4500653D1EF12070A751A00EEFD
:101AA400A2E092AF7F010218E7C0E0C0D0E8C0E036
:101AB400E5A8D2AFC2C7751A00A2E792AFD0E0F88A
:101AC400D0D0D0E032C0E0C0D0E8C0E0C082C08353
:101AD400E5A8F8D2AF758900C2C59003B87401F0C7
:101AE400751A00E8A2E792AFD083D082D0E0F8D094
:101AF400D0D0E032C0E0C0D0E8C0E0E9C0E0C00827
:101B0400C009C082C083A2AFE433F9D2AF90053CD0
:101B1400E0F8A3E0687008539AFBA374018026C21E
:101B2400E990053CE0F50874012508F074BC25082B
:101B3400F58274043400F583E0F5C190053CE0C3FC
:101B440094804002E4F0E9A2E092AFD083D082D046
:101B540009D008D0E0F9809474F512179CEAFEEBE2
:101B6400FFEE2434F8EF3400F988088909EE2435AF
:101B7400F582EF3400F583E0F8EE2437F582EF3494
:101B840000F583E0F50AEC850AF0A4FCAAF0850AC6
:101B9400F0EDA42AFDE82CF8E43DF97A257B001247
:101BA400164EEA850882850983F05407F87401B853
:101BB40000028004C333D8FCC0E0E0131313541FA5
:101BC400F8EE28F8EF3400F9E8245DF582E93400F2
:101BD400F583D0E0F8E0586008EE2434F582EF8015
:101BE4001EEE2436F582EF3400F583E0F5F0EA8446
:101BF400A8F0EE28F8EF3400F9E82438F582E93447
:101C040000F583E0F97F0402184874F512179CEA82
:101C1400FEEBFFEE2434F582EF3400F583E0C0E000
:101C2400EE2435F582EF3400F583D0E0F08E828F18
:101C340083A3A3A3A3A3A3A3C082C0838E828F8301
:101C4400A3A3A3A3A3E0F8A3E0F9D083D082E0C3C5
:101C540098F508A3E099F509EE2480F582EF3400A5
:101C6400F583E064017069EE2481F582EF3400F5B8
:101C740083E0F8A3E0F98E828F83A3A3A3A3A3A395
:101C8400A3E0FCA3E0FD8E828F83A3A3A3A3A3E020
:101C9400FAA3E0FBC3EA9CEB9D5027C3EC98ED99B3
:101CA400402EC3EA98EB9950277C737D0AEEFAEF35
:101CB400FB120F86EE2480F582EF3400F583E4F006
:101CC400800EC3EA98EB9940E0C3EC98ED9950D9A3
:101CD400EE2434F8EF3400F9E8FCE9FDEE2435F5A0
:101CE40082EF3400F583E0F8EE2437F582EF340018
:101CF400F583E0F50AE508850AF0A4F508AAF0855D
:101D04000AF0E509A42AF509E82508F8E43509F9F3
:101D14007A257B0012164EEA8C828D83F05407F8E4
:101D24007401B800028004C333D8FCC0E0E013138C
:101D340013541FF8EE28F8EF3400F9E8245DF58217
:101D4400E93400F583D0E0F8E0586008EE2434F577
:101D540082EF801EEE2436F582EF3400F583E0F541
:101D6400F0EA84A8F0EE28F8EF3400F9E82438F516
:101D740082E93400F583E0F9122609021C09C082C5
:101D8400C083851882851983E0F8A3E0F9C3EA9C2F
:101D9400EB9D5012C3EC98ED994019C3EA98EB9966
:101DA400501279018010C3EA98EB9940F5C3EC987E
:101DB400ED9950EE7900D083D08222EAC39CFAEBED
:101DC4009DFB22008521878522C622C0E0C0D0E881
:101DD400C0E0E9C0E0EAC0E0EBC0E0ECC0E0EDC088
:101DE400E0C008C009C00AC00BC082C083C0F0753F
:101DF4009B00906182E0A2E64003021EADE591A241
:101E0400E64003021EAD7591BF900938E064057089
:101E1400081210BE1210CA80031210C475210012D9
:101E24001124E9900939F07900121118120EFC7A84
:101E3400017B00900937E0F912042E907803E064E6
:101E4400426003021EF6900AD5E014F06003021EFD
:101E5400F6C2AF121E5A00782AD0E0F618D0E0F687
:101E6400E59F5407F9700590840080039083FC7803
:101E7400081215A9E9C4C0E07829E65508F5080850
:101E8400E65509F509740B78081216B7D0E0250851
:101E9400F8906270E0A2E740F8E8C333906272F011
:101EA400906270E0D2E0F08049E0A2E55024E59130
:101EB400A2E5501E7591DF900938E0640D7013900F
:101EC400095AE004F064287002E4F07A00E0F912A0
:101ED4001196906181E0A2E35009E5E9A2E3500381
:101EE40075E9F7A3E0A2E75009E591A2E75003756D
:101EF400917FD0F0D083D082D00BD00AD009D00803
:101F0400D0E0FDD0E0FCD0E0FBD0E0FAD0E0F9D0A6
:101F1400E0F8D0D0D0E032C0E0C0D0C082C083901E
:101F24006183E0A2E05009E5BFA2E0500375BFFE63
:101F3400E0A2E15009E5BFA2E1500375BFFDE0A2B4
:101F4400E25009E5BFA2E2500375BFFBE0A2E350F3
:101F540009E5BFA2E3500375BFF7E0A2E45009E529
:101F6400BFA2E4500375BFEFE0A2E55009E5BFA2AC
:101F7400E5500375BFDFE0A2E65009E5BFA2E650D5
:101F84000375BFBFD083D0828088C0E0C0D0E8C0D2
:101F9400E0E9C0E0EAC0E0EBC0E0ECC0E0EDC0E0A6
:101FA400C0F0E5A7A2E6500FE5A1A2E6500953A7A9
:101FB400BF75A1BF121FF3E5A7A2E5500CE5A1A2CE
:101FC400E5500653A7DF75A1DFE5A7A2E15009E5B7
:101FD400A1A2E1500375A1FDE5A7A2E2500CE5A181
:101FE400A2E2500653A7FB75A1FBD0F0021F0474B4
:101FF400F812179C752101900938E06406701512D7
:1020040010528A828B83A3A3A3A3A3A3E0FAA3E021
:10201400FB1210ACA2AFE433FED2AF90093EE064F1
:102024000170187A207B00900937E0F91204D67AFF
:10203400207B00900937E0F9120434906182E0D2E9
:10204400E6F0900AD4E0602185C622801690093D0E
:10205400E064017008E5C654F84405F5C653BEFCB7
:10206400121DC87401652160E4EEA2E092AF7F0105
:10207400021848008E238F2485822885832785189B
:1020840082851983E0CEA3E0CF852882852783EB60
:10209400C9EAC8EDCBECCA75F010C3E833C8E9331C
:1020A400C9EA33CAEB33CBC3EA9EF526EB9FF52589
:1020B400B35004AB25AA26EC33CCED33CDD5F0DAFE
:1020C400AE23AF242274EB12179C74FA1216D98A29
:1020D400088B098C148D15900938E024F7C39405F6
:1020E400500690843802222B1210528A0A8B0BAEAF
:1020F4000AAF0BEE4F7003022228AC08AD09851815
:1021040082851983AA82AB831210DC8E828F83A30B
:10211400A378081215A990844078081215838518AD
:1021240082851983780C1215A9908440780C1215B5
:10213400837808790C1213BB501F7808790C121598
:102144005B9083CC78081213DB404785081085091F
:1021540011850A12850B138041850C10850D11859C
:102164000E12850F137810790812155B9083CC78C2
:10217400101213DB501C75100075110075120075D8
:1021840013017810790C12155B7810790812152256
:10219400800890843878101215A9740978101215E3
:1021A400039083C878081215A97810790812147A54
:1021B4008E828F83A3A3A3A3A3A3E0F8A3E0F97A59
:1021C400D07B0312164E88088909E4F50AF50B78CA
:1021D4001079081215227404121724E0F8A3E0F908
:1021E4007AD07B0312164EE8FA8A08E4F5097810CF
:1021F40079081213BB50077810790812155B9009FF
:1022040038E06408600AE064066005E06405701C58
:102214009083C478101213DB50129083C07810128C
:10222400153580089083DC78101215A985148285F1
:10223400158378101215B874061216EF7F0E021863
:102244004874F712179C1210EE900AD2E0640170E1
:1022540010906245E4F0A3F053F4F343FE0C539062
:10226400F312109AE5C654804449F5C6E59E547F9E
:10227400644970F8906185740FF0900AD0E0F470AE
:1022840002A3E0604E900AD1E0600814601B146061
:102294002E8040750801750900900AD0E078081274
:1022A40016C6E508F45280802A7508017509009065
:1022B4000AD0E078081216C6E508F4529080147526
:1022C4000801750900900AD0E078081216C6E508DE
:1022D400F452A079007F0202184874F712179CE99F
:1022E400FEEAFF74016E700C7A807B00900937E07F
:1022F400F912042E902618E493F46008E493F9127A
:102304000EF0800953C680E59E547F70FA1210A027
:10231400900AD2E064017003120F08900AD0E0F42E
:102324007002A3E0604B900AD1E0600814601A14B4
:10233400602C803D750801750900900AD0E078088A
:102344001216C6E5084280802875080175090090B8
:102354000AD0E078081216C6E50842908013750882
:1023640001750900900AD0E078081216C6E5084203
:10237400A01210EE1210528A088B09A808A909E8C5
:10238400496015E5E170FCE82414F582E93400F5B0
:1023940083E0F46003E0F5E174016F700A7A019060
:1023A4000937E0F91204A00222D974F112179C8AA9
:1023B400088B098C0A8D0B740F121724780C1215D4
:1023C400A99084407808121583908440780C1215E3
:1023D400837808790C1213BB50157808790C121500
:1023E4005B9083CC78081213DB4015790180137855
:1023F4000C790812155B9083CC780C1213DB40EB3C
:1024040079007F0802184874ED12179C8A088B091A
:102414008C0A8D0B7413121724780C1215A990844E
:10242400407808121583908440780C121583780C38
:1024340079081213BB40117808790C12155BAA08AD
:10244400AB09AC0AAD0B8022751000751100751232
:10245400007513017810790C12155B781079081245
:102464001522AA10AB11AC12AD137F0C02184890C0
:10247400844078081215A98A828B837808121596ED
:102484007F0402184874F512179C8C828D83780897
:102494001215A98A828B83780812156FEA2404F82E
:1024A400EB3400F98C828D83A3A3A3A3E0FCA3E007
:1024B400FD88828983C3E09CF0A3E09DF088828933
:1024C40083C3E09420A3E0944E40229083BC780818
:1024D4001215A98A828B8378081215488A828B8305
:1024E400A3A3A3A3E02420F0A3E0344EF0808074DF
:1024F400F512179CE9FE900A8AE0FAA3E0FBEEC30A
:1025040033F8E433F9748F28F582748239F583E063
:102514002AF508A3E03BF50978081219439083B41F
:102524001215C712207874021216EF8A088B098CD0
:102534000A8D0B741078081214EAAA08AB097F04F8
:1025440002184874F112179C8A0C8B0D8C0E8D0F97
:10255400740F121724E0FAA3E0FB7411121724E09D
:10256400F508A3E0F5097413121724E0FEA3E0FFB5
:102574007808121943EA2401F508EB3400F509E45C
:10258400F50AF50B780C79081213FA9083B87808D9
:102594001215A9780C79081213FAAA0CAB0DAC0E1B
:1025A400AD0F12207874021216EF8B09EA45096008
:1025B400047A0180027A00EC2AFCED3400FDECF888
:1025C400EDF97A717B0212164E88088909E4F50A3E
:1025D400F50B8E828F8378081215B8ECF8EDF97A32
:1025E400717B0212164E8A088B097405780812163C
:1025F400C68E828F83A3A3A3A3E508F0A3E509F005
:102604007F08021848C082C083E9906000F0D0833C
:03261400D082224F
:10261800FFFFFFFFFFFFFFFFC082C083E9900F0F9E
:10262800F002283F74F7121730E9900856F07C8EB4
:102638007D087AFF7BFF120C2C90085774FFF0A3DB
:10264800F0A3E4F0A3F07905120BBA900856E0F96C
:10265800120AE27A447B0C120E0602354D74F4120B
:1026680017308A088B09EB54806030900856E0F9DF
:102678001204168A0A8B0BAE0AAF0BEE4F60138E4C
:10268800828F83E064B07003120BCCEEFAEFFB127A
:102698000404AA08E5096480FB80047A007B000230
:1026A800280E74F212173074FC1216D9EAFEEBFFEA
:1026B8007412121724123A34EE4F700302274D7425
:1026C80002121724EEF0A3EF122A49ECF0A3ED1240
:1026D8002A49AA82AB83120ADCE9F50A706AE5087E
:1026E800450960648E828F83123A1AEE4F60567ADB
:1026F800067B001204888A0C8B0DA80CA90DE849EA
:102708007005750A13804188828983E412275AEE7E
:10271800F0A3EF123A45E508F0A3E509F090085C4C
:102728001227E190085C70051234F7801B1234E51B
:102738008003EAFCEBFD8C828D831227E170F38C19
:10274800828D8380E3750A02A90A74041216EF02C7
:102758003C34F0A31239EBA32274F2121730890A21
:10276800E975F017A4FEAFF090085BE4F090085903
:102778001227E1600A12048E900859E4F0A3F0EEE3
:10278800FAEFFB1204888A088B09EA4509602FEEE4
:10279800FCEFFD79001203EC900859E508F0A3E579
:1027A80009F07B0080081227CBE4F0A3F00BEBC301
:1027B800950A40F2E50A90085BF0790080027913E7
:1027C800023C34EB75F017A4F8A9F0900859E028FA
:1027D800FAA3E0398A82F58322123189EA4B2274FE
:1027E800F41217307900EAA2E0501B7508697509E0
:1027F8008378081219437C047D007A117B0F120B31
:10280800B474021216EF7F04021802C082C08390CB
:10281800085C122846601C88828983A3A3E06A703A
:1028280003A3E06B8882898370E8A3A3A3A3123172
:102838008580047A007B00D083D082020135123D66
:102848001AE8492274EE12173074FC1216D9EAFEFF
:10285800EBFF851882851983E4F0A3F0EE240212B9
:1028680034D7EE24051239F2EE2404F50EEF122DBA
:10287800FEE024FE603924FC604624FE605224FEFB
:10288800605E24FE700302295F24FE70030229C3E0
:1028980024FE70030229D224FE70030229E124FCDD
:1028A80070030229F024FE70030229FF022A3C90DB
:1028B80008757417F0A3E4122A5112085A022A3C28
:1028C800851882851983AC82AD83120BD2022A0C3B
:1028D800851882851983AC82AD83120BD8022A0C25
:1028E800850C08850D097402121724AC82AD838506
:1028F8000882850983123185120B008A0C8B0DAC76
:102908000CAD0DEC4D603BE4F50CF50D780C12198F
:1029180043750C75750D08780C121943750C76758E
:102928000D08780C121943740812172412195A1238
:102938003D3E1216EFE9F50C700B12317B1208724E
:10294800800F750C01850882850983122A3F12348D
:10295800F7850C08022A0F7402121724AC82AD8383
:10296800850C82850D83122F50603C850C82850D65
:1029780083A3A312195A75107575110878101219C6
:1029880043751076751108781012194374081217D8
:102998002412195A123D3E1216EFE9F509700B126E
:1029A800317B120878800F750901850C82850D83AB
:1029B800122A3F1234F7850908804C851882851938
:1029C80083AC82AD83120BDE803A85188285198329
:1029D800AC82AD83120BE4802B851882851983ACF9
:1029E80082AD83120BEA801C851882851983AC821C
:1029F800AD83120BF0800D851882851983AC82ADEA
:102A080083120BF6E9F508E50860298E828F83A307
:102A1800E06414601F850E82850F83E090087512AC
:102A28002A49123D169008761234F7E508A3122AAF
:102A3800511208540233E6123D1A8518828519830B
:102A480022F085188285198322F07C757D08850A15
:102A580082850B831231892274EE12173074FC12AE
:102A680016D98A0A8B0B8C0E8D0FEA2405F508EB14
:102A78003400F5097C157D0079007A757B0812030E
:102A8800ECE5082402F50CE5091239F5851882856C
:102A9800198385821085831178101219438508825D
:102AA800850983A3A3A3A3122F47121943E508247A
:102AB80005F510E5093400F5117810121943850C55
:102AC80082850D8312329C120AFA74061216EF8A56
:102AD800108B11AE10AF11E50A2402F50AE50B12AE
:102AE80034DAEE4F7003022C1E801774021217247A
:102AF80012318588828983EAF0A3EBF0900875E0AB
:102B080004F0900875E0C394054003022C1EE4F518
:102B180010F511781012194375105E7511087810A8
:102B280012194375105F751108781012194374064D
:102B380012172412195A7910EEFCEFFD123D4012BB
:102B480016EFE9705E850882850983A3A3A3A3A372
:102B5800A3A3E0F890085EE0687048122F471219A6
:102B6800437C5F7D08E5082408FAE5093400FB1278
:102B780003E674021216EFE960298E828F83A3A3FD
:102B8800A3A3123185900875E0F51074027810122D
:102B980016C674762510F58274083511F583EAF0A7
:102BA800A3EBF07402121724858210858311781024
:102BB800121943740212172412195A850C82850DB2
:102BC800831231AB1216EF8A108B11AE10AF119031
:102BD8000875E0F510751100740278101216C674A5
:102BE800752510F874083511F988828983A312278E
:102BF800E17003022AEAE82403080808E93400F926
:102C0800EE4F6003022AF38882898374FFF0A3F0F1
:102C1800900875E004F0900875E0600A12317B12A4
:102C280008667900800B8508828509831234EE795D
:102C38000A0233E674EA12173074FE1216D98C129F
:102C48008D13EA2405F50CEB123D28123A1E75087F
:102C580000750900EA2402F510EB3400F511851817
:102C68008285198385820A85830B780A1219438520
:102C78000C82850D83A3A3A3A3122E14121943E576
:102C88000C2405F50AE50D1234DA780A1219438581
:102C98000C82850D83122E18120AFA74061216EF8A
:102CA8008A0A8B0BEA450B7003022DB9EA2404F556
:102CB8000EEB122DFE123A1E8A828B83A3A3A3E089
:102CC800F985108285118312318F6003022DB9E4D2
:102CD800F514F515781412194375145E75150878EE
:102CE8001412194375145F75150878141219437472
:102CF8000612172412195A7913AC0AAD0B851082E3
:102D0800851183123D461216EFE9F5096003022D7D
:102D1800B990085EE0F8E5087009E02402900876AA
:102D2800F08014900876E0FCE82402FAE43400FB12
:102D3800EA6C7001EB707E850882AA82122F3E949D
:102D480014122F36506B850E82850F83E0C0E07415
:102D5800772A122DF5D0E0F00508850E82850F83BD
:102D6800A3E0C0E085080A7477250A122DF5D0E0A3
:102D7800F0050890085E122E141219437C5F7D0836
:102D880085080A7477250A122E081216EF90085E35
:102D9800E02508F50874FF6E700374FF6F6012EE8B
:102DA80024010EEF3400FFE508C394145003022CED
:102DB80066E50860131231998510828511831231F6
:102DC8008512086C79008014E509700375090A8575
:102DD8001282851383EEF0A3EFF0A909740212168C
:102DE800EF7F0E02180285080C7477250CF58274A3
:102DF800083400F583223400F50F850E82F583220E
:102E0800FA74083400FB1203D4740222123A5422D2
:102E1800A3A3122E1E221234E5FDEEFAEFFB227454
:102E2800EE12173074FE1216D98C0E8D0FEA240597
:102E3800F50CEB1239F5750B00900875E4F0F50AFE
:102E4800EA2402F508EB3400F5098044900875E09F
:102E5800FA90085EE0F8122F3E9417122F36400DB4
:102E6800900875E0F87416C39890085EF0122F4722
:102E78001219437C5F7D0874762AFA7408122E0BA7
:102E88001216EF90085EE0F8900875E028F0050A41
:102E9800E50C2416F582E50D122DF9E0F8E50AC3D4
:102EA800985074900875E0C39416506BE50AC333C4
:102EB800F8E433F9E50C28FEE50D39FF851882851D
:102EC8001983AC82AD838E828F83122F5070087560
:102ED8000B011234EA8050E4F510F511781012193C
:102EE8004375105E751108781012194375105F75D7
:102EF80011087810121943740612172412195A79F6
:102F080016850882850983123D461216EFE9F50BEE
:102F18007003022E5480BB7C757D08850882850964
:102F28008312318512087EA90B74020233E8E994F2
:102F380000C365D03322EA28F8E43400F9E822E037
:102F4800F5107511007810221233DD8A108B11AC40
:102F580010AD11EC4D2274EA12173074FC1216D918
:102F68008A0C8B0D8C128D13EA2405F50AEB1234AA
:102F7800DA750800750900E50A2402F510E50B3436
:102F880000F511740212172485820E85830F780EBE
:102F9800121943850A82850B83A3A3A3A31239FAC6
:102FA800121943E50A2405F50EE50B3400F50F78F0
:102FB8000E1219438510828511831234E012317F75
:102FC800120AFA74061216EF8A0E8B0FAE0EAF0FA6
:102FD800E50C2402F50EE50D3400F50F80388882E3
:102FE800898374FFF00508122DEE74FFF005089030
:102FF800085EE0F50C750D00780C1219437C5F7DB6
:103008000885080C7477250C122E081216EF900804
:103018005EE02508F508EE4F60278E828F83A3A314
:10302800A3E0F9850E82850F8312318FEE240412F6
:1030380039F2E96027850C82850D831231711234CB
:10304800F7E5087003023157123199850E82850F12
:1030580083123185120884790002316CE4F514F585
:1030680015781412194375145E7515087814121919
:103078004375145F751508781412194374081217EC
:103088002412195A7911EEFCEFFD850E82850F8303
:10309800123D461216EFE9F509709A850882AA8250
:1030A800EA90085E7009E02404900876F08025E034
:1030B800F8900876E0F514E82404FCE43400FDEC0C
:1030C80065147001ED7081122F3E9412122F364054
:1030D80003023050850C82850D83E0C0E074772AA6
:1030E800122DF5D0E0F00508850C82850D83A3E04C
:1030F800C0E0122DEED0E01231B485820C85830D2C
:10310800780C121943740412172412195A85108264
:103118008511831231AB1216EF8A0C8B0DAE0CAFF2
:103128000D85080C7477250CF874083400F9EE4FF7
:103138007003022FE6851882851983E088828983C7
:103148001231B4A3E0C0E0122DEED0E0022FF4E576
:1031580009700375090A850A82850B831231711279
:1031680034F7A9097404022DE6123D1A85128285E6
:103178001383227C757D08850A82850B8312318929
:1031880022E0FAA3E0FB22123189120AE8E9F509E4
:1031980022900876E0F5F0E50884900875F07C75D3
:1031A8007D0822122E1E120B06740422F0050885D3
:1031B80018828519832274EC12173074FE1216D9FE
:1031C8008A088B098C0E8D0FEA2405FEEB3400FF6C
:1031D8001233C7EE24181239F2EA450B7003023293
:1031E8006A1233B0502912328F8A108B11EA4511B6
:1031F800606B7912AC0AAD0B8508828509831231A0
:103208008585108285118312172EE9F50A7058E416
:10321800F50AF50B780A1219438E828F83A3A3E06F
:10322800F50A780A121943EE24031234D7780A12E1
:1032380019438E828F8312329C120C1A740612164E
:10324800EFE9F50A7021850C82850D83E0701F85F2
:10325800088285098312318512088A8011750A0E41
:103268008009750A018004E50A60031234EA850CB6
:1032780082850D83E0600479008002A90A74021235
:1032880016EF7F0C0218028518828519831231897E
:10329800120C08221234E5FD850882850983123153
:1032A800892274EE12173074FE1216D98A088B0917
:1032B8008C0C8D0DEA2405FEEB3400FF750E001210
:1032C80033C7EA450B700302338E1233B0502C1209
:1032D800328F8A0E8B0FEA450F604A7912AC0AAD1D
:1032E8000B850882850983123185850E82850F83B7
:1032F80012172EE9F50E60030233918508828509BD
:10330800831235CCAA0AFB1233A270147AFF7BFF12
:103318001233A2606C88828983E50AF0A3E50BF07A
:10332800750A008007750E0E805F050A90085BE03D
:10333800FAE50AC39A504AE50A75F017A4FAABF001
:1033480088828983A3A3E02AFAA3E03BFB8A828BC5
:10335800831234E0EC4D70D2750A17750B00780AA9
:10336800121943EEFCEFFD1203D474021216EFEEAD
:10337800FCEFFD850882850983123185120890804B
:1033880014750E098003750E01123D12850C828595
:103398000D831234F7A90E022F31120BFC8A108B01
:1033A80011A810A911E84922E5082402F508E50941
:1033B8003400F5098A828B83A3A3A3E0A2E52285C2
:1033C8001882851983AC82AD838E828F831233DD98
:1033D8008A0A8B0B22E0FAA3E0FB120B002274048A
:1033E8001216EF7F0A02180274EC1217308C108D37
:1033F80011EA2405F50CEB1239F5750F00EA2402E1
:10340800F50AEB1234DA850A82F583123185123D0A
:10341800CC70030234CC750E008071850C82850D4A
:1034280083E06401704F8E828F83A3A312195A8E92
:10343800828F83A3A3A3A3E0F51275130078121259
:103448001943EE2405F512EF3400F513781212191A
:103458004312317F120C1A74061216EFE9F50F6049
:1034680014850C82850D83E4F0123D128510828547
:1034780011831234F77C177D007900EEFAEFFB1206
:1034880003EC8E828F83E4F0A3F0050E90085BE0D6
:10349800F8E50EC398501EE50E75F017A4F8A9F0CC
:1034A800850882850983A3A3123D321234E0EC4DCE
:1034B800600302342385088285098374FFF0A3F032
:1034C800E50F700612317F120896A90F02328AF5AD
:1034D8000AEF3400F50B22A31234E5FD22E0FCA329
:1034E800E0228E828F83123D1A850E82850F83E833
:1034F800F0A3E9F022C082C083900857E06A700305
:10350800A3E06B70067A577B0880047A007B000280
:10351800283F74F71217307F00EF75F003A4F8A95D
:10352800F0EC28F8ED39F988828983E06A7003A302
:10353800E06B7006E8FAE9FB800B0FEFC3940240DA
:10354800D87A007B007F0102180274F61217301235
:103558003B0370067A007B008007A3A3A3A3123164
:1035680085023BC474F2121730E9FE740E12172458
:103578001235CC7410121724123A348C828D83E0E1
:103588006402703BA3123D1688828983E0F50CA380
:10359800E0F9A80C74026870037429697021750C2D
:1035A80002750D00780C1219437808121943780A2D
:1035B800121943EEF9120C3E74061216EF800279C6
:1035C80001023C34E0F50AA3E0F50B2274E8121777
:1035D8003074FB1216D9E9851882851983F08A168A
:1035E8008B178C0E8D0F741F121724123A34742106
:1035F8001217241235CC7423121724123A1E751090
:10360800008C828D83A3A3A3E0A2E4502A741D1228
:1036180017241232958A828B83E5824583700302D0
:1036280036E0790AAC0EAD0FAA16AB1712172EE9C1
:10363800F51060030236E3850E82850F83E064028D
:103648006003023999A3123D16850882850983A370
:10365800858212858313E50E2406F50CE50F1239D1
:10366800F588828983E0FAA3E0F9EA2400F514E4F6
:1036780039F51578141219CD010000280128A8364B
:10368800070002287F370328EF360029A9380129C7
:10369800D138022978380329A93804293A399939BF
:1036A800EE4F703E850C82850D83123A0FFAE9FBC6
:1036B8008A828B83E0850A82850B83123A4B121922
:1036C800438A828B83A31234E5FDAA08AB0912034F
:1036D800D474021216EF800375100EA91074050237
:1036E8003D2075100B80F4EE4F70F7850A82850B2C
:1036F800837401F0123A24850882850983F07C00DE
:103708007D00850E82850F83A3A3A3A3E02401FA7D
:10371800A3E03400FB120B00EA4B60418A828B83E2
:10372800E02402F8850A82850B83E028F0EA240465
:10373800F8EB3400F988828983E085128285138347
:10374800123A5D123A4B1219438A828B831234DF84
:10375800E5082403FAE5093400FB0236D6850A8217
:10376800850B83E02404F07C047D007900AA12AB69
:10377800131203EC0236E3EE4F60030236EA123A04
:1037880024FEA3E0FF850A82850B837404F0EE858E
:103798000882850983F0EF851282851383F074030C
:1037A800121724AC82AD83EEFAEFFB123AF17003E4
:1037B8000238558A828B83A3A3123A1A740112170E
:1037C8002485820E85830F780E121943740512170B
:1037D8002412195A7CFF7DFF120B0674041216EF8F
:1037E8008B0FEA450F7033850C82850D831239FAE9
:1037F800121943850C82850D83A312195A7C027D08
:10380800007A6C7B8412093274041216EFE9700A8C
:10381800740112172474FFF0A3F08E828F83E06482
:10382800027034750C02750D00780C1219438E82E3
:103838008F831234DFE5082404FAE509122E0B12EF
:1038480016EF850A82850B83E02402800974011231
:103858001724EEF0A3EFF07401121724123A0BF0BC
:103868007401121724A3123A03A3A3A3F00236E3A8
:10387800EE4F60030236EA850C82850D831234E030
:10388800AA16AB17120C32850A82850B837402F0D4
:10389800EA850882850983F0851282851383EB8087
:1038A800CBEE4F60030236EA123A24F8A3E0F9851A
:1038B8000A82850B837402F0E8850882850983F003
:1038C800E985128285138380A3850C82850D831276
:1038D80031851203CEEAFC8C82A882C39EE49F4005
:1038E8004BE86E7001EF70047C00801F851882859C
:1038F8001983E0FAEE2AFAEF3400FBC3EA98EB9456
:10390800005003E08004EECCC39CFCEC850A828561
:103918000B83F08C0A750B00780A121943850C8208
:10392800850D83E02EFCA3E03F0236D17510070217
:1039380036E3EE4F60030236EA850C82850D83126A
:103948003D16850A82850B837407F0888289831265
:103958003A031239EBE0851282851383F0E82402DA
:10396800FAE93400FB8A828B83123A03123A3C123A
:103978003A0BA3123A45123A14F0E82405F8E93450
:1039880000F988828983123A14A3123A5DA3023897
:1039980071741D121724123AFC70030236E0123DAE
:1039A80016880C890DE8450D70030236E08E108FDD
:1039B800117810121943780A12194378081219431A
:1039C8007406121724E0F9AC0EAD0FAA16AB1785D2
:1039D8000C82850D8312172E74061216EFE9F51066
:1039E8000236E3F088828983A322F50CEF3400F5D0
:1039F8000D22E0F50E750F00780E22E0850882850D
:103A0800098322123A6422123D1AE822123A64A368
:103A1800A322A3A3A3A3E0FEA3E0FF22850C828533
:103A28000D83E0F8A3E0F5838882E022E0F508A39F
:103A3800E0F50922A3A3F08A828B83A32212275CD4
:103A4800A3A322F08A828B83123A5422E0F50A75E6
:103A58000B00780A221239EB123A6422E0850882B8
:103A6800850983A3A32274EE12173074FE1216D9A7
:103A78008A0A8B0BECFAEDFB7414121724E0F5108C
:103A8800A3E0F5117416121724E0FE741812172417
:103A9800E0F50EA3E0F50F851882851983AC82AD99
:103AA80083123AF1603E851882851983123AFC60C8
:103AB8002FA3A3123A34E50845096024780E121999
:103AC800437810121943EEF9AC0CAD0DAA0AAB0BF2
:103AD80085088285098312172E74041216EF800652
:103AE800790E80027901022F31120B008A0C8B0D9E
:103AF800EA450D22123189123B0322120BC68A8233
:103B08008B83E58245832274F612173074FE1216F1
:103B1800D9740C121724123A0F851882851983F06C
:103B28007401121724E9F0E4F508F5097808121968
:103B38004375080278081219437404121724858201
:103B4800088583097808121943120C1A740612168C
:103B5800EF74021216EF806474F7121730EAFEEB66
:103B6800FF89087C8E7D08120C32EA5402600BA98A
:103B780008EEFAEFFB120AF48002790102354D745F
:103B8800F612173074FF6A700374FF6B701C7B00A9
:103B9800EB75F003A4F8A9F0EC28F8ED39F9123B1D
:103BA800C90BEBC39402501480E6120C028A088BEE
:103BB80009A808A909E8496003123BC97F0202184D
:103BC800028882898374FF12275AE4F02274F6125D
:103BD8001730120C028A828B83E58245836006A324
:103BE800A3E0FA80027A007B0080D174F2121730C9
:103BF8008A088B09ECFEEDFF740E121724E0F50A13
:103C0800123C39701CEEFCEFFD7AFF7BFF123C3949
:103C180070047911801688828983E508F0A3E50984
:103C2800F088828983A3A3E50AF079007F06021849
:103C380002120C028A0C8B0DA80CA90DE8492274FB
:103C4800EE121730EAFEEBFF8C088D09890C74120E
:103C5800121724123D1674141217241234E0741625
:103C6800121724123185750D00EC4D6003023D0AD0
:103C78007402650C6003023D05888289831234E56D
:103C8800F9EC2400F50EE439F50FEAF4F8EBF4F951
:103C9800EC58F8E50F59F9E849705DE5082406F88D
:103CA800E5093400F9880A890B8882F583122E1AEF
:103CB800120C328A108B11E50E65107004E50F6541
:103CC800116042780E121943850A82850B83122EE1
:103CD8001A120C3874021216EFE9F50D7027780ED7
:103CE800121943850882850983A3A3122E18120C82
:103CF8004A74021216EF800D750D808008750D0D3F
:103D08008003750D0BA90D0233EB8E828F83123D54
:103D18001A22E0F8A3E0F9221216EF7F1002180227
:103D28003400F50D850C82F58322E028FEA3E039E6
:103D3800FF8E828F83227916850A82850B83123142
:103D480089120C1474082274F2121730EAFEEBFF81
:103D5800890B7401650B600E7402650B7063790141
:103D6800120E24E9705BEEFAEFFB123DCC6047754A
:103D78000A00800B7C177D0079001203EC050A907D
:103D8800085BE0F8E50AC3985021E50A75F017A426
:103D9800F8A9F0850882850983A3A3E028FAA3E09F
:103DA80039FB8A828B8312284670C9850882850967
:103DB8008374FFF0A3F07C8E7D08EEFAEFFB120C03
:103DC8002C023C34120BFC8A088B09EA4509227440
:103DD800F21217308A088B09ECFEEDFF740E1217E9
:103DE800241235CC900F0FE0F4603D7A097B001265
:103DF80003FEEA4B60328A828B8374B1F0A3E4122B
:103E08003A3EA3123A3CA3E508F0A3E509123E3373
:103E1800EEF0A3EF123E33A3A3E50AF0A3E50BF0FF
:103E2800900F0FE0F912040A023C34F08A828B8367
:103E3800A3A3A3A3A322C082C0839061907404F0BB
:103E4800A37448F0A37402F09061807440F090610C
:103E5800BC7403F09061877419F0906265741BF06C
:103E680090619C740DF090619A7433F0A37455F0CE
:103E78009061A0743AF0900AD2E064017009C2918E
:103E880090093C7467800590093C7461F090261E87
:103E9800E493906186F0902618E493F46027E49305
:103EA800540FF8906185E0686012E5C65480444973
:103EB800F5C6E59E547F644970F8E8F053C680E57E
:103EC8009E547F70FA7905121178024080C082C032
:103ED80083E9540FF9906185E0696012E5C6548062
:103EE8004449F5C6E59E547F644970F8E9F053C625
:103EF80080E59E547F70FA024080C082C083E5A8A6
:103F0800F853A87E906181E4F0A3F0A3F0C2BA53FD
:103F18009AFEC289759B00C2C275E9007591007549
:103F2800BF0075A91175B905906181F0A374C0F03F
:103F3800A3E4F0D2BA439A0174805842A8024080A0
:103F4800C082C08374F81216D990093AE0F8A3E049
:103F5800F9E849700302407690093AE0544060233A
:103F68007908851882851983AA82AB83120FE085A8
:103F78001882851983AA82AB83120CB690093AE09D
:103F880054BFF0E054806010790C7AF67B0A120F67
:103F9800E090093AE0547FF0E0A2E0503190619A55
:103FA8007433F0A37455F09061A0743AF0900AD27B
:103FB800E064017009C29190093C7467800590091A
:103FC8003C7461F0120CBC90093AE054FEF0E054E5
:103FD80002603190619A743FF0A3745AF09061A026
:103FE800747FF0900AD2E064017009D29190093C84
:103FF8007471800590093C746AF0120CBC90093AFF
:10400800E054FDF0E05404601390261CE4939061A2
:1040180086F0120CC290093AE054FBF0E0540860B4
:104028001390261DE493906186F0120CC290093A11
:10403800E054F7F0E05410601390261EE49390616A
:1040480086F0120CC290093AE054EFF0E054206078
:104058000A120CC290093AE054DFF0A3E054016060
:104068000D120F08120CC890093BE054FEF07408BA
:104078001216EF8003F0A3F0D083D08202013574CA
:10408800EC12173074F41216D9851882851983AC8E
:1040980082AD8375838475821874041215EC90269A
:1040A8001C93F46003024214907808E0C394025011
:1040B800030241F47404121724AC82AD8375838320
:1040C80075823E74081215EC8518828519838582DD
:1040D800128583137404121724AC82AD83750EFF06
:1040E800750FFF7FFF7E00750C48750D788015747D
:1040F800086E700302418774096E70030241877469
:104108000A6E607B850C82850D8378081215A98C50
:10411800828D83A909E50AC9F888107418780812ED
:1041280014EAE5104508F8C3E098A3E099850C82E5
:10413800850D8378081215A940188C828D83741810
:1041480078081214EAE5104508F8E0C398F8A3E0E7
:10415800801C741878081214EAE5104508FAE9FB7F
:104168008C828D83E0F8A3E0F9EAC398F8EB99F91B
:10417800C3E8950EE9950F5006880E890FEEFF0EDD
:10418800E50C2404F50CE50D3400F50DEEC394138D
:1041980050030240F774FF650E700474FF650F60EA
:1041A800238F08740278081216C674482508F58209
:1041B80074783509F58378081215A9851282851354
:1041C80083E508F0EC24020C0CED3400FD85128226
:1041D800851383A3858212858313740C121724E533
:1041E800826C7003E5836D60030240E57508017514
:1041F800090078081219437402121724AC82AD839F
:104208007A877B0912062C74021216EF740C1216A8
:10421800EF7F0C021802C082C0839061AE7468F010
:10422800A3746AF090624574FBF0A304F053F4FDA4
:1042380043FE02900AD27401F09061A0E0643A90C3
:10424800619A70237433F0A37455F09061A0743AA6
:10425800F0740164017009C29190093C7467802868
:1042680090093C74618021743FF0A3745AF0906106
:10427800A0747FF0740164017009D29190093C74B4
:1042880071800590093C746A02407F7F040218021D
:10429800C082C083900A84E06401700A900A89E0B1
:1042A8006004790C80027900024080C082C0837566
:1042B800E1F1900A87E060551460081460591460B1
:1042C800518059120F1A900A7DE0F97A7E7B0A1202
:1042D80010FA9084101215C712113090844C1215E0
:1042E800C7121106900A88E0F91211127901121109
:1042F8006C900A7BE02416F8A3E03400F9888289E0
:10430800837432F0A3740FF07900024080120F20FA
:1043180080B4120F2680AF120F2C80AA791280EA7F
:1043280074F412173075D90D900A6CE0A2E0E433EA
:104338001313F8900A7DE0C4333354C0484401F5A0
:10434800D9787B790A88828983A3A3A3E0F5D988E1
:10435800828983A3A882A983E864817003E9640A37
:1043680070E3786C790A88828983A3E0F5D988821A
:104378008983A3A882A983E864727003E9640A7038
:10438800E575E195900A6CE0F97A6D7B0A121100E7
:10439800900F3174C6F0A3740EF0A37428F0A374C0
:1043A80010F0A37428F0A37410F0A37428F0A37479
:1043B80010F0A374CCF0A3740EF0A37428F0A374C7
:1043C80010F0A374E4F0A3740EF0900F3F7428F07B
:1043D800A37410F0A37428F0A37410F0A37428F049
:1043E800A37410F0A37428F0A37410F0A37428F039
:1043F800A37410F0A37428F0A37410F0900A7BE063
:10440800F8A3E0F5838882A3A378081215A99084FD
:104418000C78081215359084407808121583900A94
:104428007BE0240EF8A3E03400F9888289837808B9
:104438001215B8900A7BE02414F8A3E03400F98838
:104448008289837413F09009387402F0024293C091
:1044580082C083900A8DE02407F5D9900A7DE0C4D4
:10446800333354C0F5D9787B790A88828983A3A32A
:10447800A3E0F5D988828983A3A882A983E8648107
:104488007003E9640A70E3900A8DE0601F787B7915
:104498000AFAE82413F582E93400F583E0F5D988AF
:1044A800828983A3A882A9831AEA70E6900AADE0FC
:1044B8002407F5D9900A7DE0C4333354C04404F589
:1044C800D9787B790A88828983A3A3A3E0F5D98860
:1044D800828983A3A882A983E864817003E9640AB6
:1044E80070E3900AADE0601F787B790AFAE824331C
:1044F800F582E93400F583E0F5D988828983A3A899
:1045080082A9831AEA70E675E195900F3174D2F0AA
:10451800A3740EF0A37428F0A37410F0A37428F009
:10452800A37410F0A37428F0A37410F0A374CCF053
:10453800A3740EF0A37428F0A37410F0A374E4F02D
:10454800A3740EF0900F3F7428F0A37410F0A374B6
:1045580028F0A37410F0A37428F0A37410F0A374C7
:1045680028F0A37410F0A37428F0A37410F0A374B7
:1045780028F0A37410F09083BC1215C7900A7BE052
:10458800240EF8A3E03400F9888289831215D390A9
:104598000A7BE02414F8A3E03400F9888289837444
:1045A80012F0900938740102407FC082C083900ADB
:1045B8008DE02407F5D9900A7DE0C4333354C04414
:1045C80002F5D9787B790A88828983A3A3A3E0F5C9
:1045D800D988828983A3A882A983E864817003E9C2
:1045E800640A70E3900A8DE0601F787B790AFAE824
:1045F8002413F582E93400F583E0F5D988828983AC
:10460800A3A882A9831AEA70E675E195900F317420
:10461800DEF0A3740EF0A374DEF0A3740EF0A3749E
:10462800DEF0A3740EF0A374DEF0A3740EF0A3748E
:10463800DEF0A3740EF0A374DEF0A3740EF0A3747E
:10464800E4F0A3740EF0900F3F7428F0A37410F0F8
:10465800A37428F0A37410F0A37428F0A37410F0C6
:10466800A37428F0A37410F0A37428F0A37410F0B6
:10467800A37428F0A37410F09083BC1215C7900A95
:104688007BE0240EF8A3E03400F9888289831215B0
:10469800D3900A7BE02414F8A3E03400F9888289D7
:1046A800837414F0900938740402407FC082C08378
:1046B800900A8DE02407F5D9900A7DE0C43333547D
:1046C800C04406F5D9787B790A88828983A3A3A395
:1046D800E0F5D988828983A3A882A983E8648170D8
:1046E80003E9640A70E3900A8DE0601F787B790A19
:1046F800FAE82413F582E93400F583E0F5D98882D5
:104708008983A3A882A9831AEA70E6900AADE024F7
:1047180007F5D9900A7DE0C4333354C04404F5D971
:10472800787B790A88828983A3A3A3E0F5D9888254
:104738008983A3A882A983E864817003E9640A7065
:10474800E3900AADE0601F787B790AFAE82433F534
:1047580082E93400F583E0F5D988828983A3A882A9
:10476800A9831AEA70E675E195900F3174D8F0A321
:10477800740EF0A37428F0A37410F0A37428F0A3A7
:104788007410F0A37428F0A37410F0A37428F0A395
:104798007410F0A37428F0A37410F0A374E4F0A3C9
:1047A800740EF0900F3F7428F0A37410F0A37428CF
:1047B800F0A37410F0A37428F0A37410F0A3742865
:1047C800F0A37410F0A37428F0A37410F0A3742855
:1047D800F0A37410F09083BC1215C7900A7BE024F4
:1047E8000EF8A3E03400F9888289831215D3900A61
:1047F8007BE02414F8A3E03400F9888289837415D7
:10480800F0900938740302407FC082C083900A7B0D
:10481800E0F8A3E0F5838882A3A3A3A3A3A3E402FB
:10482800407D74F7121730900966E0F875F004A41B
:10483800C8AAF02AF9746828F8740939F9E824052F
:10484800FAE93400FB8A828B83E0FCA3E0FD8882CE
:104858008983A3A3A3A3A3A3A3A3A3ECF0A3EDF02D
:1048680088828983A3A3A3A3A3A3A3E024FFF8A317
:10487800E034FFF98A828B83E8F0A3E9024ACF7417
:10488800F7121730EAFEEBFF9061D0E060030249AF
:104898006475D90E75D90375D904EE248CF582EFA9
:1048A8003400F583E5822408F8E5833400F9E0F55F
:1048B800D9A3E865827003E9658370F2EE2484F574
:1048C80082EF3400F583E5822404F8E5833400F9A7
:1048D800E0F5D9A3E865827003E9658370F275E1B4
:1048E800957908EE248CFAEF3400FB120FD4790482
:1048F800EE2484FAEF3400FB120FD47C00EEF8EFBC
:10490800F9ECFAC3E49AFA95E0FBEE2AFAEF3BFBDE
:10491800EA248BF582EB3400F583E0C0E0E824ABB1
:10492800F582E93400F583D0E0F00C88828983A30E
:10493800A882A983ECC3940840C7EE2470F582EFDF
:104948003400F583E0F8A3E0F9EE2472F582EF3441
:1049580000F583E8F0A3E9F0790180027900024AC2
:10496800D0C082C08375D90275D90375D90575E1A0
:1049780095EA2470F582EB3400F583E0F8A3E0F9BA
:10498800EA2472F582EB3400F583E8F0A3E9F079C4
:104998000102408074F6121730EAFEEBFF900AD647
:1049A8007406F07508D675090A78081219437C014F
:1049B800790312101C74021216EF75D90675D90303
:1049C8007582D675830AE0F5D9A3E58264DB7004A5
:1049D800E583640A70F075E195900938E064087021
:1049E8001EEE2470F582EF3400F583E0F8A3E0F9B9
:1049F800EE2472F582EF3400F583E8F0A3E9F0794C
:104A080001024B9C74F6121730EAFEEBFF9061D05E
:104A1800E070667801900AD6740BF0900938E0646B
:104A28000770197508D675090A78081219437C01A8
:104A3800790312101C74021216EF7805740128F518
:104A4800D975D9037582D675830AE8FAE0F5D9A332
:104A58001AEA70F875E195EE2470F582EF3400F5E6
:104A680083E0F8A3E0F9EE2472F582EF3400F583D1
:104A7800E8F0A3E9F0790180027900024B9C74F711
:104A8800121730EAFEEBFF75D90375D90375D90DF6
:104A9800EE24DEF582EF3400F583E0F5D975E19573
:104AA8007904121136EE2470F582EF3400F583E0B4
:104AB800F8A3E0F9EE2472F582EF3400F583E8F00C
:104AC800A3E9F079018001F07F0102180274F6125F
:104AD8001730EAFEEBFF9061D0E0F87480C398FAD3
:104AE800EE2483F582EF3400F583E06004780480D7
:104AF800027800E8240BF8EAC3985003024B9A7D29
:104B080009900AD6EDF0EE24E3F8EF3400F97AD7ED
:104B18007B0A7C0888828983E08A828B83F088827A
:104B28008983A3A882A9838A828B83A3AA82AB8361
:104B38001CEC70E0EE2483F582EF3400F583E0602E
:104B48001D7508D675090A78081219437C09790376
:104B5800EEFAEFFB12101C74021216EF7D0D7401B1
:104B68002DF5D975D9037582D675830A8D08E0F5B8
:104B7800D9A31508E50870F675E195790412113680
:104B8800EE241DF582EF3400F583E4F0A3F07901FB
:104B9800800279007F0202180274F6121730EAFECA
:104BA800EBFF9061D0E0F87480C398FAEE2483F5A7
:104BB80082EF3400F583E06004780480027800E82E
:104BC8002408F8EAC3985003024CA17D06900AD63F
:104BD800740CF0900955E0900AD7F07A567B097862
:104BE800D8790A7C028A828B83E088828983F08A5A
:104BF800828B83A3AA82AB8388828983A3A882A994
:104C0800831CEC70E07A587B097C028A828B83E0F3
:104C180088828983F08A828B83A3AA82AB83888265
:104C28008983A3A882A9831CEC70E0EE2483F58213
:104C3800EF3400F583E0601D7508D675090A780819
:104C48001219437C067903EEFAEFFB12101C74026A
:104C58001216EF7D0A74012DF5D975D9037582D620
:104C680075830A8D08E0F5D9A31508E50870F6756F
:104C7800E1957904121136EE2470F582EF3400F5CF
:104C880083E0F8A3E0F9EE2472F582EF3400F583AF
:104C9800E8F0A3E9F0790180027900024B9C74F6F0
:104CA800121730EAFEEBFF9061D0E0F87480C398E9
:104CB800FAEE2483F582EF3400F583E0600478048B
:104CC80080027800E82404F8EAC3985003024D8073
:104CD8007802900AD6E8F0EE24F5F582EF3400F574
:104CE80083E0900AD7F0EE2483F582EF3400F58351
:104CF800E0601B7508D675090A78081219437C020A
:104D08007903EEFA12101C74021216EF7806740179
:104D180028F5D975D9037582D675830A8808E0F510
:104D2800D9A31508E50870F675E195EE2474F582A7
:104D3800EF3400F583E4F0EE2480F582EF3400F5DB
:104D480083E4F0EE241DF582EF3400F583E4F0A34C
:104D5800F07904121136EE240DF582EF3400F58354
:104D6800E0F8A3E0F9EE2472F582EF3400F583E869
:104D7800F0A3E9F0790180027900024B9C74F612E5
:104D880017309061D0E0F87480C398FCEA2483F56A
:104D980082EB3400F583E06004780480027800E850
:104DA8002404F8ECC398405B7902900AD67407F0A3
:104DB800EA24F6F582EB3400F583E0900AD7F0EAAE
:104DC8002483F582EB3400F583E060187508D67506
:104DD800090A78081219437C020912101C7402127D
:104DE80016EF7906740129F5D975D9037582D67538
:104DF800830AE9F8E0F5D9A318E870F875E1957920
:104E08000180027900024B9C74F5121730E9FCA26C
:104E1800AFE433F50AC2AF7D0080010DEA246FF5D7
:104E280082EB3400F583E0F8EDC398501A8D08EA58
:104E38002508F8EB3400F9E8246BF582E93400F52D
:104E480083E06C70D68024EA246FF8EB3400F9E034
:104E5800FEEA2EFAEB3400FBEA246BF582EB340011
:104E6800F583ECF088828983E004F0E50AA2E092F9
:104E7800AF7F0302180274F6121730A2AFE433FDB5
:104E8800C2AFEA246FF582EB3400F583E014F07CBE
:104E98000060368C08EA2508F8EB3400F9E8246C41
:104EA800F582E93400F583E0C0E0E8246BF582E997
:104EB8003400F583D0E0F00CEA246FF582EB34007F
:104EC800F583E0F8ECC39840CAEA246EF582EB3427
:104ED80000F58374FFF0EA246AF582EB3400F58369
:104EE800E4F0EDA2E092AF024B9CC082C083E5A83B
:104EF800F8C2AFEA246BF582EB3400F583E9F0EAF7
:104F0800246AF582EB3400F583E4F0E8A2E792AF77
:104F180002408074F3121730EAFEEBFFECFAEDFB67
:104F28008A828B83A3A3A3A3E0541FF0EE2436F553
:104F380082EF3400F583E4F0F50AEEFCEFFD8A8297
:104F48008B83E0C0E0EC245DF582ED3400F583D07E
:104F5800E0F0750B00E50A33333354F8F50C8A8218
:104F68008B83E0F508750900E50B78081216A7E5AC
:104F780008A2E0502FEE2436F8EF3400F988828931
:104F880083E0F508EE2508F508EF3400F509E50893
:104F98002438F582E5093400F583E50CF088828928
:104FA80083E004F0050B050CE50BC3940840AF053E
:104FB8000A8A828B83A3AA82AB838C828D83A3AC5B
:104FC80082AD83E50AC394055003024F467F05026C
:104FD800180274F7121730900964E0640170077AB8
:104FE800007B000251517E0090096AE070F1740163
:104FF800F0A3E4F0A3F09009CA04F09009CDE4F01E
:10500800A3F09009D004F090096DE4F0A3F0A3F0A8
:10501800A3F090097704F090099DE4F09083DC12E6
:1050280015C79009801215D3900984E4F0A3F0A362
:10503800F09009E8F09009DCF09009D17480F0A3B1
:10504800E4F09009D7F09009CFF0900A53F0A3F05C
:10505800A3F0A3F0A3F0A3F0A3F0A3F0900A5CF0F0
:105068009009EBF0900A3BF0A3F09083DC1215C78F
:10507800900A3D1215D39083DC1215C7900A41128D
:1050880015D3900A47E4F0900A49F0900A45F09049
:105098000A5FF0A3F0A3F0A3F0A3F0A3F0A3F0A39A
:1050A800F078647909E8246FF582E93400F58374AF
:1050B800FFF00E88828983A3A882A983EEC3940493
:1050C80040E37A647B097873790A88828983E0C02F
:1050D800E0EA2461F582EB3400F583D0E0F08882C1
:1050E8008983A3A882A9838A828B83A3AA82AB839C
:1050F800E864787003E9640A70D07A647B09784BB5
:10510800790988828983A3E0C0E0EA24E7F582EB85
:105118003400F583D0E0F088828983A3A882A9832C
:105128008A828B83A3AA82AB83E864537003E96401
:105138000970CF900964E004F06401700890096C6C
:10514800E0900966F07A687B09024AD0C082C08381
:1051580090096BE4F090096AF0900964F0A3F0A359
:1051680074FFF075E1F1024080C082C08378007955
:105178000090096BE060047868790988828983A3C4
:10518800A3A3A3E0F902408074F6121730EAFEEBFD
:10519800FF8E828F83A3A3A3E0600F8E828F83A3E9
:1051A800A3A3E4F0900965E014F0900964E014F01A
:1051B800700690096674FFF08E828F83A3A3E4F0D3
:1051C800900A78E0700D900965E064017005790037
:1051D800121118EE2465F582EF3400F583E0F8A388
:1051E800E0F9E8496029EE2465F8EF3400F9880809
:1051F80089098882F583E0FCA3E0FD900966E0FA5E
:105208007B00120CEC850882850983E4F0A3F0EE9C
:10521800FAEFFB12104C024B9C74F7121730EAFE9F
:10522800EBFF8E828F83A3A3A3A3E0FA7B00120D6A
:105238002EEEFAEFFB120F9E121034024AD0C082F3
:10524800C083784B790988828983A3E4F0888289AE
:1052580083A3A882A983E864537003E9640970E60C
:1052680090094C0245AD74F6121730EAFEEBFFECDC
:105278002403F8ED3400F988088909EC2407F8EDCF
:105288003400F9E8FCE9FD8C828D83E0F8A3E0F9AD
:10529800850882850983E0FAA3E0FB12164EEE2406
:1052A8000DF582EF3400F583E8F0A3E9F08C828DE8
:1052B80083E0F8A3E0F9850882850983E0FAA3E092
:1052C800FB12164E8B09EA45096013EE240DF58290
:1052D800EF3400F583E02401F0A3E03400F0024B42
:1052E8009C74F6121730EAFEEBFFEE242EF582EFDF
:1052F8003400F583E0FCA3E0FD780079FAECFAEDE0
:10530800FB12164EEE2470F582EF3400F583E8F0B8
:10531800A3E9F0780079FAECFAEDFB12164E8B0946
:10532800EA45096013EE2470F582EF3400F583E056
:105338002401F0A3E03400F0024B9C74F012173003
:10534800EAFEEBFF741012172478081215A9121040
:10535800D68A0C8B0D8C0E8D0F908404780C121548
:1053680035908440780C121583780C12193F8E8280
:105378008F83E0F8A3E0F5838882A3A31215C712F0
:1053880023AE74041216EFE960030254908E828FE4
:1053980083E02402F8A3E03400F9E8FAE9FB8A8202
:1053A8008B83780812154890844078081215A98ACA
:1053B800828B837808121596EE240BF582EF340061
:1053C800F583C082C0838E828F83A3A3A3A3A3E0A7
:1053D8002401F8A3E03400F9D083D082E068700398
:1053E800A3E069700579010254928E828F83A3A38A
:1053F800A3A3A3A3A3E02401F0A3E03400F0EE24C8
:1054080074F582EF3400F583E064017036EE24759C
:10541800F582EF3400F583E0F8A3E0F98E828F83FC
:10542800A3A3A3A3A3A3A3E0687003A3E0697013D5
:10543800EE2475F582EF3400F583E02401F0A3E053
:105448003400F0EE2480F582EF3400F583E0640147
:105458007036EE2481F582EF3400F583E0F8A3E09E
:10546800F98E828F83A3A3A3A3A3A3A3E0687003E9
:10547800A3E0697013EE2481F582EF3400F583E030
:105488002401F0A3E03400F079007F0802180274C8
:10549800F7121730900966E0F875F004A4C8AAF06E
:1054A8002AF9746828FE740939FF8028EE2465F803
:1054B800EF3400F988828983E0FCA3E0FD888289C3
:1054C80083E4F0A3F08E828F83A3A3A3A3E0FA7BE7
:1054D80000120CECEE2465F582EF3400F583E0F859
:1054E800A3E0F9E849604FEE2464F582EF3400F553
:1054F80083E0F5087808121947EE2463F582EF3443
:1055080000F583E0F9EE2465F582EF3400F583E0D9
:10551800FCA3E0FDEEFAEFFB120FC874011216EFC0
:10552800E96089EE2465F582EF3400F583E0F8A39D
:10553800E0F9E84970137C007D008E828F83A3A375
:10554800A3A3E0FA7B00120CEC024AD074F2121703
:1055580030EAFEEBFF890A740E121724E0FAEE24F3
:1055680062F582EF3400F583E0640160030256209F
:105578009061D0E0F87480C398F50CEE2483F5822E
:10558800EF3400F583E0600478048002780089082D
:10559800E928F8E43400F9E824020808E93400F9B5
:1055A800E50C98E499A2D265D0334068EA70057595
:1055B8000B028003750B01E0603975090078081249
:1055C80019437AD67B0A120FFE74021216EF750879
:1055D800D675090A7808121943AC0AA90BEEFAEF36
:1055E800FB12101C74021216EF7404250AF50A7CCB
:1055F800D67D0A7401250AF5D9850BD9E50A600D0F
:105608008C828D83F8E0F5D9A318E870F875E195D8
:10561800790080067907800279FF7F06021802C0A8
:1056280082C083E960208C828D83E08A828B83F03C
:105638008C828D83A3AC82AD838A828B83A3AA825A
:10564800AB8319E970E0ECFAEDFB02408074EA12D2
:105658001730907803E06442705E900AD5E014F049
:105668007056C2AF12566F00782AD0E0F618D0E014
:10567800F6E59F5407F9700590840080039083FC39
:1056880078081215A9E9C4C0E07829E65508F50894
:1056980008E65509F509740B78081216B7D0E02505
:1056A80008F8906270E0A2E740F8E8C333906272AD
:1056B800F0906270E0D2E0F0900966E0F4700302C6
:1056C8005A78E0F875F004A4C8AAF02AF974682892
:1056D800FE740939FFEE2402F582EF3401F583E008
:1056E800F8A3E0F9E849601EEE2402F582EF3401E0
:1056F800F583E0FAA3E0FBEE2401F582EF3401F52F
:1057080083E0F912042E8E828F83A3A3A3A3A3A3FD
:10571800A3E0F8A3E0F98E828F83A3A3A3A3A3E851
:10572800F0A3E9F0906054E090093FF0906055E0F4
:10573800900940F0906056E0900941F0906057E081
:10574800900942F0906058E0900943F0906059E069
:10575800900944F090605AE0900945F090605BE051
:10576800900946F090605CE0FC900947F090605D1D
:10577800E0FB900948F090605EE0FD900949F090E8
:10578800605FE0FA90094AF0900945E08C08250826
:10579800F8E43400F98D08E82508F8E93400F98BB5
:1057A80008E82508F8E93400F98A08E82508FAE93C
:1057B8003400FBEE24F7F582EF3400F583E02AF09D
:1057C800A3E03BF08C08EE24F9F582EF3400F58372
:1057D800E02508F0A3E03400F0EE24FBF582EF3476
:1057E80000F583E02401F0A3E03400F0EE24FFF597
:1057F80082EF3400F583E0F8A3E0F9E849604290CD
:105808006000E0C333FCE433FDE82CF582E93DF5A4
:1058180083E02AF0A3E03BF0906000E0FA900947AB
:10582800E0FCEAC333FAE433FBE82AF8E93BF9E899
:10583800244AF582E93400F583E02CF0A3E0340033
:10584800F0900945E07011900948E0700BA3E070F2
:1058580007A3E070030259588E828F83A3A3A3A3E2
:10586800A3E0F8A3E0F9EE240DF582EF3400F58308
:10587800E028F8A3E039F9EE240BF582EF3400F5BF
:1058880083E8F0A3E9F0EE240FF582EF3400F58306
:10589800E4F0EE241CF582EF3400F583E064017037
:1058A8001EEE2420F582EF3400F583E0F8A3E0F93A
:1058B800EE241DF582EF3400F583E8F0A3E9F090BB
:1058C8000940E06052EE241CF582EF3400F5837441
:1058D80001F0EE246AF582EF3400F583E07038EECB
:1058E8002474F582EF3400F583E0702BEE2480F504
:1058F80082EF3400F583E0701EEE2420F582EF3449
:1059080000F583E0F8A3E0F9EE241DF582EF3400FA
:10591800F583E8F0A3E9F0906062E07003025A0BA7
:105928008E828F83E0F8A3E0F9E82406FCE93400CE
:10593800FDE82402FAE93400FB1210D08E828F832E
:10594800E02412F8A3E03400F988828983025A150A
:10595800900947E0603AEE240FF582EF3400F583B2
:10596800E4F0EE241CF582EF3400F583E064017066
:1059780040EE2420F582EF3400F583E0F8A3E0F947
:10598800EE241DF582EF3400F583E8F0A3E98020CA
:10599800EE24FDF582EF3400F583E02401F0A3E066
:1059A8003400F0EE241DF582EF3400F583E4F0A313
:1059B800F0EE240BF582EF3400F583E0F8A3E0F96C
:1059C8008E828F83A3A3A3A3A3E0687003A3E069D7
:1059D80060030258C7EE240FF582EF3400F583E028
:1059E80060128E828F83A3A3A3A3A3E06405700231
:1059F800A3E0600B7908EEFAEFFB120FA48071792F
:105A08003E80F3EE241DF582EF3400F583E4F0A325
:105A1800F0906060E0C0E0EE2469F582EF3400F5B4
:105A280083D0E0F0900945E0F8EE2467F582EF3482
:105A380000F583E028025B78900AD3E064017035B2
:105A4800121184EE2467F582EF3400F583E07006C6
:105A58009060607480F0EEFAEFFB12108EE964013A
:105A6800600E120FC2121088E9640160031210342C
:105A78007F0E021802EE2483F582EF3400F583E0EE
:105A88006004780480027800E50CC398F9120CE0F1
:105A98008A0A8B0BEA450B60A7EE2483F582EF3464
:105AA80000F583E070048A088B09E50C601285080C
:105AB80082850983F512E5D9F0A31512E51270F66F
:105AC800EE2483F582EF3400F583E0603774FC251B
:105AD8000CF50C7808121943AC0CA90DEEFAEFFB83
:105AE80012102274021216EFE970197403650D7012
:105AF80003025BB8E50A24FBFAE50B34FFFB12044A
:105B08008E025BB87403650D7003025BBD850C0ED5
:105B1800750F00780E121943AC08AD09AA0AAB0B31
:105B2800120FFE74021216EFEE2469F582EF3400AC
