:020000040000FA
:10080000C0C8FFFF0000007C41414141FFFFFFFFE6
:10081000FFFFFFFFFFFFFFFFFFFFFFFFFFFFFFFFE8
:10082000000102030405060708090A0BFFFFFFFF8A
:10083000020C88021B67FFFFFFFFFFFFFFFFFFFFA8
:10084000FFFFFFFFFFFFFFFFFFFFFFFFFFFFFFFFB8
:10085000FFFFFFFFFFFFFFFFFFFFFF021429FFFF66
:10086000FFFFFFFFFFFFFFFFFFFFFFFFFFFFFFFF98
:10087000FFFFFFFFFFFFFFFFFFFFFFFFFFFFFFFF88
:10088000FFFFFF021BDAFFFFFFFFFFFFFFFFFFFF7E
:10089000FFFFFFFFFFFFFFFFFFFFFF0213E2FFFF6E
:1008A000FFFFFFFFFFFFFFFFFFFFFF02140BFFFF34
:1008B000FFFFFF0219D301FFFF2C019901129904D8
:1008C0000102F681010000CD8102F08101000023C8
:1008D0000E02FE81010000240E02EA81030000A93D
:1008E0000202DC81010000250E01E803053F100A29
:1008F000024669726D7761726500000000000000B9
:1009000000001A446F2053796E630000000000005D
:1009100000000000084150502053657420436C6F64
:10092000636B000000000841505020536574205450
:10093000696D657A6F6E650008415050205365748B
:100940002053797341637400000012010044617404
:100950006120486561646572000000000000124477
:1009600061746120426F64790000000000000000A3
:1009700002F681010000C48102F081010000560EE0
:1009800002D881010000A60302EC81010000570E8D
:1009900002F081010000680E02D681030000A80366
:1009A00002EA81030000B00302EC81010000690E3D
:1009B00002F0810100007A0E02D481020000B60329
:1009C00002EC810100007B0E02F0810100008C0E20
:1009D00002E281020000BA0302EC810100008D0EE8
:1009E00002F081010000B00E02F481030000B10E9C
:1009F00002EA81030000BC0302EC81010000B30E97
:100A000002F081010000C40E020282030000C20352
:100A100002EA81030000CA0302EC81010000C50E56
:100A200002F0810100009E0E02EE81020000BB0375
:100A300002EC810100009F0E1C02F68101000009FA
:100A40008102F0810100009E0F105080020000D052
:100A50000302EA81030000D20302EC81010000F2EC
:100A60008002F0810100009E0F106080020000D122
:100A70000302EA81030000D80302EC81010000FFB9
:100A800080FFFFFF00013075030201060000000037
:100A90000000000000000000000000000000000056
:100AA0000000000000000000FFFF0600800CE803CB
:100AB0002C010E1F4A7FAABA99CACA78990A094C12
:100AC000312D30303030303005122003B004020AAE
:100AD00000020106070200230F18C0FF4C312D3021
:100AE00030303030300DC4090000F1260000FD2602
:100AF000FF0000B4000028002800283075A000A0E6
:100B000000A000A00000080008E001F000100010A4
:100B10000010001000100010005000500050001095
:100B2000001000D0070000000000000F00010005C9
:100B300000307507001000010081FF00000000FF79
:100B400061297F296729FF02020208025000A000E4
:100B50000000E80302F681010000CA8102F0810171
:100B60000000AD1002E881010000900902F081014F
:100B70000000AE1002E681010000A60902F081012A
:100B80000000AF1002E481010000A80902F0810119
:100B90000000B01002FC81080000A90902F08101E8
:100BA0000000B11002E081010000B210FF0100FF5F
:100BB0002002F681010000C78102F08101000016C9
:100BC0001102DE81000000000002EA81030000F64D
:100BD00009312F312F312F312F312F312F312F313B
:100BE0002F312F312F312F312F312FC531DD31BF33
:100BF00031E5C754F84405F5C779012200000080AB
:100C0000FB120BF1B90003020C72E479217808B8E9
:100C100000028004F709D8FCE479297802B80002C0
:100C20008004F709D8FCE4900280789E790C800259
:100C3000F0A3D8FCD9FA781C9008B67A01BA000261
:100C40008007E493A3F608DAF9900E1DAA82AB831D
:100C50009008B7783B79048015E493A3AC82AD8308
:100C60008A828B83F0A3AA82AB838C828D83D8E99E
:100C7000D9E77582A37583FF7404120C9A7582FC00
:100C800075830B7400120C9A75D00075813F751A2C
:100C900080751B02759F00020C01C09FF59FE473D5
:100CA000D09F22D083D082C09FE493C0E074019390
:100CB000C0E0740293F59F22E066701008A3E0661E
:100CC000700A08A3E066700408A3E06622C3E796F2
:100CD0000809E7960809E7960809E79622C3E0960F
:100CE00008A3E09608A3E09608A3E09622C00AC3F2
:100CF000E096F50A08A3E096420A08A3E096420AA5
:100D000008A3E096450A7001D3D00A22080808EA31
:100D1000C0E0EBC0E086F0E7A4FA180986F0E7A48B
:100D20002AFA180986F0E7A42AFA180986F0E7A437
:100D30002AFA1986F0E7A4FBE5F02AFA190886F0EA
:100D4000E7A42BFBE5F03AFA190886F0E7A42BFBA1
:100D5000E5F03AFA18180986F0E7A4C5F02BFBE491
:100D60003AFA1908E7C5F0C6A426F6E5F03BFBE41D
:100D70003AFA1886F0E7A4F6E5F00826F6E43B0810
:100D8000F6E43A08F6D0E0FBD0E0FA22E4CFC0E087
:100D9000E4CEC0E0E4CDC0E0E4CCC0E075F020C318
:100DA000E633F608E633F608E633F608E633F618D7
:100DB0001818EC33FCED33FDEE33FEEF33FFC3ECDC
:100DC0009709ED9709EE9709EF97191919400FFF49
:100DD000EC97FC09ED97FD09EE97FE191906D5F081
:100DE000BEECF709EDF709EEF709EFF7191919D07D
:100DF000E0FCD0E0FDD0E0FED0E0FF226017080864
:100E000008C6A2E713C618C613C618C613C618C666
:100E100013C6D5E0E9226016080808C6C313C61831
:100E2000C613C618C613C618C613C6D5E0EA227084
:100E300009080808226016181818C6C333C608C661
:100E400033C608C633C608C633C6D5E0EA22E6274D
:100E5000F60809E637F60809E637F60809E637F630
:100E600022E026F608A3E036F608A3E036F608A34B
:100E7000E036F622E026F008A3E036F008A3E036DC
:100E8000F008A3E036F022C3E697F60809E697F6E5
:100E90000809E697F60809E697F622C3E0C696F633
:100EA00008A3E0C696F608A3E0C696F608A3E0C637
:100EB00096F622C3E096F008A3E096F008A3E09629
:100EC000F008A3E096F022E657F60809E657F60880
:100ED00009E657F60809E657F622E056F608A3E0B9
:100EE00056F608A3E056F608A3E056F622E056F0C0
:100EF00008A3E056F008A3E056F008A3E056F0225D
:100F0000E0F608A3E0F608A3E0F608A3E0F622E680
:100F1000F008A3E6F008A3E6F008A3E6F022E0FA62
:100F2000A3E0FBA3E0FCA3E0FD22EAF0A3EBF0A327
:100F3000ECF0A3EDF022CAC0E0E6F0A308DAFAD0A4
:100F4000E0FA22CAC0E0E0A3C582CCC582C583CD49
:100F5000C583F0A3C582CCC582C583CDC583DAE63F
:100F6000D0E0CA22C3E498F8E499F9120FA58026CC
:100F7000C3E49AFAE49BFBE920E7E9120FA5E498A1
:100F8000F8E499F922C3E498F8E499F9120FA5E47A
:100F900098F8E499F9C3E49AFAE49BFB22EB20E782
:100FA000CFE920E7E0B90010BB0008E88AF084F838
:100FB000AAF022E4FBC8FA22EB70227B10C833C8E7
:100FC000C933C9335007C39AC3DBF280069A500174
:100FD0002ADBEAC833F4C8C933F4C9FA2275F00829
:100FE000E4C833C8C933C933C99AC99B5004C92A54
:100FF000C93BD5F0ECFBC833F4C8E4C9FA22600D54
:1010000008C6A2E713C618C613C6D5E0F322600CC3
:1010100008C6C313C618C613C6D5E0F4227004224E
:10102000600D18C6C333C608C633C6D5E0F418220F
:10103000251A10AF08F51A4002151B8008F51A4052
:1010400002151BD2AF22C0D0251A10AF08F51A50D6
:1010500002051B8008F51A5002051BD2AFD0D02222
:10106000251AF58210AF08F51A4002151B8008F505
:101070001A4002151BD2AF851B8322251AF582E484
:10108000351BF58322E473251AC582C0E0E51B34C5
:10109000FFC583C0E0E51AC3958224F810AF088528
:1010A000831B85821A800885831B85821AD2AFCE66
:1010B000F0A3E520F0A3780AE608F0A3DEFAEFF04B
:1010C000A3E58124FAF8E608F0A3E608F0A3E60811
:1010D000F0A30808E608F0A3E608F0A3158115813F
:1010E000D0E0FED0E0F8158115811581E8C0E0EE72
:1010F000C0E022251AC582C0E0E51B34FFC583C0CD
:10110000E0E51AC3958224F910AF0885831B858218
:101110001A800885831B85821AD2AFCEF0A3E52002
:10112000F0A3780AE608F0A3DEFAEFF0A3E5812445
:10113000FBF8E608F0A3E608F0A30808E608F0A329
:10114000E608F0A315811581D0E0FED0E0F8158106
:101150001581E8C0E0EEC0E022851B83851A82E09D
:10116000A3FEE0A3F520780AE0A3F608DFFAE0A3E7
:10117000FFE0A3C0E0E0A3C0E0E0A3C0E0E0A3C0C4
:10118000E0E0A3C0E010AF0885821A85831B8008C9
:1011900085821A85831BD2AFD083D082020CA085B2
:1011A0001B83851A82E0A3FEE0A3F520780AE0A362
:1011B000F608DFFAE0A3FFE0A3C0E0E0A3C0E0E0B0
:1011C000A3C0E0E0A3C0E010AF0885821A85831BAE
:1011D000800885821A85831BD2AFD083D08222C03B
:1011E000D0251AC582C0E0E51B34FFC583C0E0E509
:1011F0001AC3958224F310AF0885831B85821A8059
:101200000885831B85821AD2AFC8F0A3E9F0A3EA50
:10121000F0A3EBF0A3790AE709F0A3D8FAECF0A366
:10122000EDF0A3EEF0A3EFF0A3D0E0F0A3D0E0F058
:10123000A3D0E0F0A3E520F0A3E5F0F0A322851B06
:1012400083851A82E0C0E0A3E0F9A3E0FAA3E0FB03
:10125000A3780AE0F608A3DFFAE0FCA3E0FDA3E030
:10126000FEA3E0FFA3E0C0E0A3E0C0E0A3E0F5D070
:10127000A3E0F520A3E0A3F5F010AF0885831B855C
:10128000821A800885831B85821AD2AFD082D083D0
:10129000D0E0F8D0E0327404800674028002740159
:1012A000C0E0F404121060D0E0120F362274048003
:1012B0000474028000CCC0E0EDC0E0E51AC39CCC11
:1012C000AD1B50011D10AF068C1A8D1B80068C1AA9
:1012D0008D1BD2AF120F43D0E0FDD0E0FC22D083B3
:1012E000D082E9C0E0E493A3C386F0C5F095F0F99D
:1012F00008E493A386F0C5F095F0700BE493A3C3C4
:10130000994005E9048002A3E475F002A42582F562
:1013100082E5F03583F583D0E0F9E493A3C0E0E4FF
:1013200093C0E022D083D082ECC0E0EDC0E0E49333
:10133000A3FCE493A3FDED4C600D121370EC24FFAD
:10134000FCED34FFFD80EFE493A3FCE493A3FDEDFB
:101350004C600D1213AFEC24FFFCED34FFFD80EF69
:10136000D0E0FDD0E0FCE493A3C0E0E493C0E02231
:10137000C0E0C3E49396087401939618400FE49379
:1013800066700808740193661870007019A3A3C3EF
:10139000E49396087401939618A3A3400DD0E0D06F
:1013A000E0D0E0021360A3A3A3A3A3A3D0E022C0D4
:1013B000E0C0F088F0E49366700808740193661842
:1013C0007000A8F0A3A3700BD0F0D0E0D0E0D0E084
:1013D000021360A3A3D0F0D0E022FFFFC2AF02004F
:1013E0000022C0E074F21211DFA2AFE433FED2AFEC
:1013F000E589A2E3500312255F758900C2C5751CFB
:1014000000EEA2E092AF7F0102123EC0E074F21241
:1014100011DFA2AFE433FED2AFE58AA2E25003129D
:10142000255F758A00C2EB80D5C0E0C0D0E8C0E07F
:10143000E9C0E0E5A8D2AFC2C7751C00A2E7A2E7E9
:1014400092AFD0E0F9D0E0F8D0D0D0E03274F5120D
:1014500010F3EAFEEBFFEE2434F8EF3400F9880ACB
:10146000890BEE2435F582EF3400F583E0F8EE24A5
:1014700037F582EF3400F583E0F50CEC850CF0A431
:10148000FCAAF0850CF0EDA42AFDE82CF8E43DF967
:101490007A257B00120FA5EA850A82850B83F0F876
:1014A000740758F97401B900028004C333D9FCFAF7
:1014B000E8131313541FF8EE28F8EF3400F9E8246A
:1014C0005DF582E93400F583E05A6008EE2434F5D6
:1014D00082EF802CEE2434F582EF3400F583E0C0F7
:1014E000E0EE2436F582EF3400F583E0F5F0D0E04D
:1014F00084A8F0EE28F8EF3400F9E82438F582E902
:101500003400F583E0F97F0402119F74F51210F3A3
:10151000EAFEEBFFEE2434F582EF3400F583E0C001
:10152000E0EE2435F582EF3400F583D0E0F08E82D2
:101530008F83A3A3A3A3A3A3A3C082C0838E828F00
:1015400083A3A3A3A3A3E0F8A3E0F9D083D082E010
:10155000C398F50AA3E099F50BEE247FF582EF34EA
:1015600000F583E064017069EE2480F582EF3400B9
:10157000F583E0F8A3E0F98E828F83A3A3A3A3A34E
:10158000A3A3E0FCA3E0FD8E828F83A3A3A3A3A368
:10159000E0FAA3E0FBC3EA9CEB9D5010C3EC98ED8E
:1015A00099402EC3EA98EB995027800EC3EA98EB36
:1015B000994007C3EC98ED9940177CB97D0BEEFA82
:1015C000EFFB122E8FEE247FF582EF3400F583E4DB
:1015D000F0EE2434F8EF3400F9E8FCE9FDEE2435B0
:1015E000F582EF3400F583E0F8EE2437F582EF342E
:1015F00000F583E0F50CE50A850CF0A4F50AAAF0E5
:10160000850CF0E50BA42AF50BE8250AF8E4350B68
:10161000F97A257B00120FA5EA8C828D83F0F8748D
:101620000758F97401B900028004C333D9FCFAE801
:10163000131313541FF8EE28F8EF3400F9E8245D73
:10164000F582E93400F583E05A6008EE2434F5822F
:10165000EF802CEE2434F582EF3400F583E0C0E017
:10166000EE2436F582EF3400F583E0F5F0D0E08427
:10167000A8F0EE28F8EF3400F9E82438F582E934D0
:1016800000F583E0F9122287021506C082C0838527
:101690001A82851B83E0F8A3E0F9C3EA9CEB9D5016
:1016A00010C3EC98ED99401BC3EA98EB9950148055
:1016B0000EC3EA98EB994007C3EC98ED9940047982
:1016C0000180027900D083D08222EAC39CFAEB9D8C
:1016D000FB2274EF1210F3900A7FE064086005E0CB
:1016E0006407702A9061C8E06024900AADE0F4605D
:1016F0001DE0F875F003A4C8AAF02AF974AF28FE1B
:10170000740A39FF8E828F83A3A3A3E070030218AB
:1017100002906060E0C0E0EE2468F582EF3400F5EE
:1017200083D0E0F0750E22750F0C750A00750B0062
:10173000E5D914F50CE5D95403F510601774036569
:1017400010605CE50C6010EE2467F582EF3400F564
:1017500083E070030217E7900C1DE06401602AEE3D
:101760002482F582EF3400F583E06004780480027F
:101770007800850C0AE50AC398FA95E0FB122D570C
:101780008A0A8B0BEA450B70051230938074EE24A5
:1017900082F582EF3400F583E070048A0E8B0FE54A
:1017A0000C6012850E82850F83F50DE5D9F0A31527
:1017B0000DE50D70F6EE2482F582EF3400F583E03E
:1017C000604474FC250CF50C780E12129AAC0CA92E
:1017D00010EEFAEFFB122F2B7402121046E970265E
:1017E000AA0AAB0B12261F793D8E828F83A3A3A377
:1017F000A3E0FA7B00122C2BEEFAEFFB122EA712BD
:101800002F3D79008074740365106056850C127545
:101810001300781212129AAC0EAD0FAA0AAB0B127B
:101820002F077402121046EE2468F582EF3400F59B
:1018300083E064807004747F8001E0F50E780E12FE
:10184000129EE510F50E780E12129EA90CAC0AAD90
:101850000B900AADE0FA7B00122BEF7402121046D7
:101860008013900A7FE06408600BAC0EAD0FEEFAB7
:10187000EFFB122F9712309F79017F0A02119F749C
:10188000F51210F374FC121030EAFEEBFF890AA285
:10189000AFE433F50BC2AF806AEE2463F8EF340097
:1018A000F97A007B00A2AFE433F50CC2AF888289DD
:1018B00083E0FCA3E0FDEC4D603A88828983E0FA86
:1018C000A3E0FB8A828B83E0FCA3E0FD888289830E
:1018D000ECF0A3EDF08A828B83E4F0A3F088828998
:1018E00083E0FCA3E0FDEC4D700A88828983A3A30A
:1018F000E4F0A3F0E50CA2E092AF12261F900BC01B
:10190000E004F0EE2463F582EF3400F583E0F8A301
:10191000E0F9E849603DEE2463F582EF3400F58399
:10192000E02402FAA3E03400FBEA2402F50CEB34D5
:1019300000F50D780C12129A8A828B83E0FCA3E0EA
:10194000F9EEFAEFFB122ECB7402121046E9700387
:10195000021899900BC0E06063900BC1E0F8900B07
:10196000C0E0C398500C7402650A7050900BC2E03E
:10197000604A8E828F83A3A3A3A3E0851A82851B6E
:1019800083F0A3E4F0900BC0E0F8740212107BE83F
:10199000F0A3E4F0900BC0E0F8900BBFE028F074E7
:1019A0000212107BAC82AD83851A82851B83AA82CA
:1019B000AB837901122BFB900BC0E4F0E50BA2E0A6
:1019C00092AF7404121046021506FFFF8521878529
:1019D00022C622C0E0C0D0E8C0E0E9C0E0EAC0E032
:1019E000EBC0E0ECC0E0EDC0E0EEC0E0C00AC00B30
:1019F000C00CC00DC082C083C0F0A2AFE433FEC2F1
:101A0000AF759B00906182E0A2E05012E591A2E0E8
:101A1000500C7591FE7401652170031216D2E0A27C
:101A2000E55051E591A2E5504B7591DF900A7FE0BA
:101A300064076005E06408702374016521703579DE
:101A400001900AADE0FA75F003A4CAA8F028FB746F
:101A5000AF2AFA740A3BFB12187F8018E0640D70FD
:101A600013900AA1E004F064287002E4F07A00E028
:101A7000F91230A5906182E0A2E64003021B1AE54C
:101A800091A2E64003021B1A7591BF900A7FE064A1
:101A9000057008122FCD122FD98003122FD3752174
:101AA00000123033E9900A80F07900123027122EAC
:101AB000057A017B00900A7EE0F91222EF9078030C
:101AC000E064427055900C21E014F0704DC2AF12EA
:101AD0001AD200782AD0E0F618D0E0F6E59F540735
:101AE0007005750BFF8003750B7FC4C0E07829E695
:101AF000F50A08E6550BF50B740B780A12100ED098
:101B0000E0250AF8906270E0A2E740F8E8C333905D
:101B10006272F0906270E0D2E0F0906181E0A2E346
:101B20005009E5E9A2E3500375E9F7A3E0A2E75005
:101B300009E591A2E7500375917FEEA2E092AFD044
:101B4000F0D083D082D00DD00CD00BD00AD0E0FEE4
:101B5000D0E0FDD0E0FCD0E0FBD0E0FAD0E0F9D05E
:101B6000E0F8D0D0D0E032C0E0C0D0C082C08390D6
:101B70006183E0A2E05009E5BFA2E0500375BFFE1B
:101B8000E0A2E15009E5BFA2E1500375BFFDE0A26C
:101B9000E25009E5BFA2E2500375BFFBE0A2E350AB
:101BA00009E5BFA2E3500375BFF7E0A2E45009E5E1
:101BB000BFA2E4500375BFEFE0A2E55009E5BFA264
:101BC000E5500375BFDFE0A2E65009E5BFA2E6508D
:101BD0000375BFBFD083D0828088C0E0C0D0E8C08A
:101BE000E0E9C0E0EAC0E0EBC0E0ECC0E0EDC0E05E
:101BF000C0F0E5A7A2E6500FE5A1A2E6500953A761
:101C0000BF75A1BF121C3FE5A7A2E5500CE5A1A23C
:101C1000E5500653A7DF75A1DFE5A7A2E15009E56E
:101C2000A1A2E1500375A1FDE5A7A2E2500CE5A138
:101C3000A2E2500653A7FB75A1FBD0F0021B507423
:101C4000F81210F3752101900A7FE06406701512F6
:101C50002F5B8A828B83A3A3A3A3A3A3E0FAA3E0B1
:101C6000FB122FBBA2AFE433FED2AF900A85E06433
:101C70000170187A207B00900A7EE0F91223977A8F
:101C8000207B00900A7EE0F91222F5906182E0D27A
:101C9000E6F0900C1EE0602185C6228016900A8432
:101CA000E064017008E5C654F84405F5C653BEFC6F
:101CB0001219CC7401652160E4EEA2E092AF7F01BD
:101CC00002119FFF8E238F24858228858327851A02
:101CD00082851B83E0CEA3E0CF852882852783EB16
:101CE000C9EAC8EDCBECCA75F010C3E833C8E933D4
:101CF000C9EA33CAEB33CBC3EA9EF526EB9FF52541
:101D0000B35004AB25AA26EC33CCED33CDD5F0DAB5
:101D1000AE23AF242274E91210F374F81210308548
:101D20001A82851B83ECF0A3EDF08A0A8B0B900AD4
:101D30007FE024F7C394055006750A01021EAC1219
:101D40002F5B8A0C8B0DAE0CAF0DEE4F7003021E95
:101D5000A9AC0AAD0B740212107BAA82AB83122FBE
:101D6000EB8E828F83A3A3750EFF750FFF7510FF97
:101D7000751100780E120EDA740212107B7512FFC4
:101D80007513FF7514FF7515007812120EDA780EB0
:101D90007912120CCD502A780E7912120E87750A1C
:101DA00001750BC8750C00750D00780A790E120CC0
:101DB000CD5052850E0A850F0B85100C85110D80B4
:101DC000507516017517C875180075190085120A27
:101DD00085130B85140C85150D780A790E120E8764
:101DE0007816790A120CCD401C750A00750B007527
:101DF0000C00750D01780A7912120E87780A790E97
:101E0000120E4E800C750A01750B00750C00750DD5
:101E1000007409780A120E2F750E19F50FF510F5DA
:101E200011780A790E120D8C8E828F83A3A3A3A33F
:101E3000A3A3E0F8A3E0F97AD07B03120FA5880EE4
:101E4000890FE4F510F511780A790E120E4E74061A
:101E500012107BE0F8A3E0F97AD07B03120FA5E81B
:101E6000FA8A0EE4F50F780A790E120CCD50077835
:101E70000A790E120E87900A7FE06408600AE06417
:101E8000066005E06405702D750E0D780E790A1256
:101E90000CCD4021750EF4750FFF7510FF7511FF05
:101EA000780A790E120E4E800C750A00750B0075BB
:101EB0000C00750D00851A82851B83E0F8A3E0F500
:101EC000838882780A120F0F74081210467F10025E
:101ED000119F74F71210F3122FFD900C1CE0640197
:101EE0007010906245E4F0A3F053F4F343FE0C53FA
:101EF00090F3122FA9E5C654804449F5C6E59E54D7
:101F00007F644970F8906185740FF0900C1AE0F4CA
:101F10007002A3E0604E900C1BE0600814601B147C
:101F2000602E8040750A01750B00900C1AE0780A4B
:101F300012101DE50AF45280802A750A01750B0003
:101F4000900C1AE0780A12101DE50AF452908014E1
:101F5000750A01750B00900C1AE0780A12101DE545
:101F60000AF452A079007F0202119F74F71210F355
:101F7000E9FEEAFF74016E700C7A807B00900A7EA5
:101F8000E0F91222EF9032B0E493F46008E493F9A0
:101F9000122DF9800953C680E59E547F70FA122FE6
:101FA000AF900C1CE064017003122E11900C1AE02B
:101FB000F47002A3E0604B900C1BE0600814601A00
:101FC00014602C803D750A01750B00900C1AE078A6
:101FD0000A12101DE50A42808028750A01750B005F
:101FE000900C1AE0780A12101DE50A4290801375D1
:101FF0000A01750B00900C1AE0780A12101DE50A10
:1020000042A0122FFD122F5B8A0A8B0BA80AA90B84
:10201000E8496015E5E170FCE82414F582E9340034
:10202000F583E0F46003E0F5E174016F700A7A0172
:10203000900A7EE0F9122361021F6674ED1210F31C
:102040008A0A8B0B8C0C8D0D741312107B780E1278
:102050000F00780A790E120CCD7512017513C87530
:1020600014007515005012780A790E120E87781236
:10207000790A120CCD50168010780E790A120E874C
:102080007812790E120CCD40047901800279007F1C
:102090000C02119F74ED1210F38A0A8B0B8C0C8DBD
:1020A0000D741312107B780E120F00780E790A123D
:1020B0000CCD4011780A790E120E87AA0AAB0BAC30
:1020C0000CAD0D8022751200751300751400751586
:1020D000017812790E120E877812790A120E4EAA22
:1020E00012AB13AC14AD1580A68A828B83750AFFE0
:1020F000750BFF750CFF750D00780A120EED7F044D
:1021000002119F74F51210F38C828D83780A120FDE
:10211000008A828B83780A120EB3EA2404F8EB3427
:1021200000F98C828D83A3A3A3A3E0FCA3E0FD8828
:10213000828983C3E09CF0A3E09DF088828983C3F9
:10214000E09420A3E0944E40268A828B83750AFF98
:10215000750BFF750CFF750DFF780A120E748A82DD
:102160008B83A3A3A3A3E02420F0A3E0344EF002CA
:1021700020E974F51210F3E9FE900BD4E0FAA3E025
:10218000FBEEC333F8E433F974B228F58274803976
:10219000F583E02AF50AA3E03BF50B780A12129AC0
:1021A0007A407B427C0F7D00121CC47402121046E0
:1021B0008A0A8B0B8C0C8D0D7410780A120E16AADD
:1021C0000AAB0B7F0402119F74F11210F38A0E8B7D
:1021D0000F8C108D11740F12107BE0FAA3E0FB74CA
:1021E0001112107BE0F50AA3E0F50B780A12129A9F
:1021F000EA2401F50AEB3400F50BE4F50CF50D7853
:102200000E790A120D0C750A71750B02780E790A97
:10221000120D0CAA0EAB0FAC10AD11121CC474023F
:102220001210468B0BEA450B60047A0180027A009B
:10223000EC2AFCED3400FD741312107BE0F8A3E0EF
:10224000F9E8FEE9FFECF8EDF97A717B02120FA5CF
:10225000880A890B8E828F83780A120F0FECF8EDB3
:10226000F97A717B02120FA58A0A8B0B7405780A22
:1022700012101D8E828F83A3A3A3A3E50AF0A3E50A
:102280000BF07F0802119FC082C083E9906000F0CC
:10229000D083D08222120CA345F806120CA34FF86B
:1022A00006120CA38DF806120CA3D6F806120CA386
:1022B00010F906120CA36AF906120CA38BF9061288
:1022C0000CA394F906120CA3E1F906120CA30AFA66
:1022D00006120CA314FA06120CA380FA06120CA321
:1022E00012FB06120CA35CFB06120CA392FB061257
:1022F0000CA31EFC06120CA35FFC06120CA396FC9A
:1023000006120CA3A8FC06120CA3C7FC06120CA311
:10231000D0FC06120CA39DFD06120CA3E793071236
:102320000CA3DE9407120CA3F89407120CA30995D2
:1023300007120CA3289707120CA3479707120CA3A8
:10234000CBFD06120CA301FE06120CA337FE0612EB
:102350000CA382FF06120CA380C807120CA396C818
:1023600007120CA3A0C807120CA3EAC807120CA3FB
:1023700081FF05120CA38E9807120CA3A3980712D5
:102380000CA3539907120CA3939907120CA3AC99B1
:1023900007120CA3E79907120CA3349A07120CA397
:1023A000669A07120CA3A89A07120CA3A99C0712FD
:1023B0000CA349C507120CA372C507120CA3A1C533
:1023C00007120CA3B9C507120CA3FBC507120CA377
:1023D0003CAD07120CA36CAD07120CA37FAD071226
:1023E0000CA3AEAD07120CA3CBAD07120CA360AECD
:1023F00007120CA3F9AE07120CA37FAF07120CA3B0
:10240000BCFF06120CA39CC907120CA30D9A05125F
:102410000CA3729C05120CA3139E05120CA3C79E5D
:1024200005120CA35A9F05120CA3DF9F05120CA3E3
:1024300004A005120CA35AA305120CA3E0A30512D5
:102440000CA313A505120CA34DA505120CA382A580
:1024500005120CA342A705120CA39FA705120CA3FB
:10246000E8A705120CA353A805120CA3C4A80512D3
:102470000CA3F6A805120CA30EA905120CA357AACB
:1024800005120CA367AA05120CA382AB05120CA3BC
:10249000A4AB05120CA3DAAB05120CA38EAD05128A
:1024A0000CA31BAE05120CA35AAE05120CA37EAFF3
:1024B00005120CA355C407120CA365C407120CA384
:1024C000F7C407120CA31EC507120CA33EC50712C2
:1024D0000CA3F2C907120CA331CA07120CA3E6FF22
:1024E00006120CA3F1FF06120CA351CA07120CA38B
:1024F00024C607120CA334C607120CA346C6071243
:102500000CA3F8C607120CA351C307120CA3D6C321
:1025100007120CA33CC407120CA360B807120CA34B
:1025200088B807120CA3B8B807120CA317B9071282
:102530000CA365B907120CA39FB907120CA3D3B95A
:1025400007120CA32FBA07120CA3FFC007120CA38B
:1025500029C107120CA38CC107120CA39EC107123C
:102560000CA3EEC107120CA32CC207120CA32FC29E
:1025700007120CA33BCA07120CA34BCA07120CA3E9
:102580004ECA07120CA3F83F00120CA35EFD041202
:102590000CA3F9FE04120CA35AFF04120CA3A0FF13
:1025A00004120CA3008007120CA33A8007120CA39C
:1025B000578007120CA3538107120CA3F081071256
:1025C0000CA3DD8207120CA3238407120CA34884FA
:1025D00007120CA3B18407120CA30C8507120CA3DD
:1025E00088F106120CA3C5F106120CA3E0F1061245
:1025F0000CA3B1F206120CA39FF306120CA307F56D
:1026000006120CA379F506120CA361F606120CA3B0
:10261000E8F606120CA301F806120CA302BE07127C
:102620000CA354BE07120CA3DEBE07120CA345BFB9
:1026300007120CA31BB607120CA345B607120CA376
:1026400013B707120CA3EEB707120CA3A9DA0612F0
:102650000CA370DB06120CA3A7DB06120CA3D1DBC4
:1026600006120CA331DC06120CA387DC06120CA3A5
:10267000ECDC06120CA384DD06120CA393DE06121A
:102680000CA32AE006120CA3B7E006120CA31EE16D
:1026900006120CA335E106120CA34FE206120CA39E
:1026A0008DE206120CA39B9C06120CA31CA0061222
:1026B0000CA3A4A106120CA3FBA106120CA31AA240
:1026C00006120CA398A206120CA32EA406120CA3A9
:1026D00013A506120CA321A906120CA3F7A9061232
:1026E0000CA300B004120CA35FB404120CA37DBBB6
:1026F00004120CA310BD04120CA340BE04120CA3C0
:1027000080BE04120CA348BF04120CA388BF04129D
:102710000CA364C004120CA3AFC004120CA3FFC02E
:1027200004120CA33DC204120CA390CD04120CA3FE
:10273000F1CF04120CA373D104120CA3EFD1041235
:102740000CA307D204120CA331D204120CA362D240
:1027500004120CA39DD204120CA3D7D204120CA312
:10276000EFD304120CA3A3BA07120CA3BABA071230
:102770000CA3EBBA07120CA326BB07120CA350BB89
:1027800007120CA37ABB07120CA391BB07120CA370
:10279000A8BB07120CA3BFBB07120CA3E8BB071210
:1027A0000CA3FBBB07120CA311BC07120CA324BC87
:1027B00007120CA34BBC07120CA36FD006120CA37C
:1027C00073D106120CA3ABD106120CA3CED1061204
:1027D0000CA3D9D106120CA3FCD106120CA30BD367
:1027E00006120CA3E0D306120CA35BD406120CA3B2
:1027F000E3D406120CA31ED506120CA355D506125F
:102800000CA3E3D506120CA3BCD606120CA31CD74E
:1028100006120CA327D706120CA3A6D706120CA3E8
:10282000A9D706120CA3ACD706120CA33BD80612EC
:102830000CA33ED806120CA36ED806120CA398D88F
:1028400006120CA386D906120CA338DA06120CA3C2
:10285000818A07120CA3A98A07120CA3D78A071230
:102860000CA30E8B07120CA36C8B07120CA3B78B57
:1028700007120CA3028C07120CA3428C07120CA3A4
:10288000888C07120CA3B68C07120CA3738D071249
:102890000CA37D8D07120CA38A8D07120CA3BD8D8E
:1028A00007120CA3898E07120CA3958E07120CA396
:1028B000AD8E07120CA3B78E07120CA3FEC607122B
:1028C0000CA30CC707120CA324C707120CA33CC708
:1028D00007120CA327E805120CA3D3E805120CA3DA
:1028E0004EE905120CA36FEA05120CA3ABEA051220
:1028F0000CA354EB05120CA33BEC05120CA39FEDAB
:1029000005120CA3F6ED05120CA377EE05120CA32D
:1029100067EF05120CA3B4EF05120CA33AF00512F1
:102920000CA36CF005120CA380F205120CA3C2F2EA
:1029300005120CA3E0F205120CA363F305120CA31D
:1029400037F405120CA3FFF405120CA365EA061276
:102950000CA338EB06120CA3E1EB06120CA334EC2B
:1029600006120CA3E4EC06120CA370ED06120CA3E5
:102970005CEE06120CA38BEE06120CA39EEF061261
:102980000CA3E6EF06120CA3BBF006120CA3F7F0A3
:1029900006120CA313F106120CA318C907120CA3FC
:1029A000A3A907120CA3B9A907120CA3DFA9071248
:1029B0000CA3FBAA07120CA305AB07120CA33AAC9D
:1029C00007120CA332AD07120CA35A8507120CA3F1
:1029D0008A8607120CA3BD8607120CA3078707126D
:1029E0000CA3CE8807120CA36FED04120CA3D9ED33
:1029F00004120CA338EF04120CA348EF04120CA32A
:102A000075EF04120CA3CCEF04120CA375F00412A2
:102A10000CA37CF104120CA346F204120CA3A6F33F
:102A200004120CA3E9F304120CA38EF404120CA3F9
:102A3000DBF404120CA301F504120CA30FF704122B
:102A40000CA314F704120CA319F904120CA366F9D1
:102A500004120CA3D9F904120CA30CFA04120CA34F
:102A6000AEFA04120CA357FB04120CA38FFB041242
:102A70000CA392FB04120CA3DAFB04120CA31AFCA5
:102A800004120CA371FC04120CA348B307120CA38C
:102A900060B307120CA3A8B307120CA3BEB30712AE
:102AA0000CA305B407120CA319B507120CA3A6B505
:102AB00007120CA3F1B507120CA36ED404120CA3D9
:102AC0007AD404120CA3B5D404120CA3FAD40412C1
:102AD0000CA3BAD504120CA340D604120CA3A5D69D
:102AE00004120CA3D1D604120CA30AD704120CA30F
:102AF00048D904120CA32CDB04120CA312DD04121F
:102B00000CA355DE04120CA3A3E004120CA3B5E140
:102B100004120CA300E304120CA310E404120CA38F
:102B20002DE404120CA368E404120CA38AE404123A
:102B30000CA3EDE404120CA3AEE904120CA343EAC7
:102B400004120CA394EA04120CA3BBEA04120CA313
:102B50000DEB04120CA32BEB04120CA385EB041257
:102B60000CA384EC04120CA308ED04120CA33E8FFA
:102B700007120CA3488F07120CA38B8F07120CA30C
:102B8000A68F07120CA3369007120CA35E900712B3
:102B90000CA39B9007120CA3D29007120CA3FB90DE
:102BA00007120CA3709107120CA3859107120CA3B6
:102BB0009A9107120CA3CB9107120CA3DF91071275
:102BC0000CA3049207120CA33E9207120CA36A9264
:102BD00007120CA3A29207120CA3219307120CA3B5
:102BE0006A9307120CA3949307120CA3BF930712C6
:102BF0000CA338C207120CA36EB806120CA39CB823
:102C000006120CA3EAB906120CA3CABA06120CA348
:102C1000E9BA06120CA366BB06120CA3A9BB0612E6
:102C20000CA3FFBC06120CA3C0BD06120CA347C028
:102C300006120CA3E8C006120CA3DEC106120CA3F8
:102C4000DBC206120CA335C406120CA3C0C40612C4
:102C50000CA3A4BF07120CA30DC007120CA361C0E4
:102C600007120CA388C007120CA3B9C007120CA34B
:102C70001B9D07120CA3889D07120CA3CF9D071262
:102C80000CA3E79E07120CA3E39F07120CA3C6A098
:102C900007120CA318F705120CA35AF705120CA380
:102CA0002CF805120CA305F905120CA3FFF9051267
:102CB0000CA3E1FA05120CA34AFB05120CA300FCBD
:102CC00005120CA374FC05120CA3E0FC05120CA366
:102CD00009FD05120CA383FD05120CA31CFE0512B1
:102CE0000CA381FE05120CA396FE05120CA3DCFEBC
:102CF00005120CA3F5FE05120CA35AFF05120CA336
:102D00005DFF05120CA34FB007120CA377B007129A
:102D10000CA3B5B007120CA373B107120CA3DAB160
:102D200007120CA3F6B107120CA31EB207120CA3D4
:102D30004EB207120CA35DB207120CA3DAB207124F
:102D40000CA300B307120CA3C5D805120CA3A3DA79
:102D500005120CA3D5DC05120CA311DD05120CA382
:102D60003EDD05120CA328DE05120CA373DE05124E
:102D70000CA3BEDE05120CA3D0DE05120CA310DFDF
:102D800005120CA345DF05120CA393DF05120CA35B
:102D9000C2DF05120CA3E5DF05120CA332E0051219
:102DA0000CA3B7E005120CA3D1E205120CA310E5A9
:102DB00005120CA351E505120CA3F3E605120CA3B2
:102DC00034E705120CA3A7E705120CA3FDE70512D3
:102DD0000CA3B43200120CA3B23300120CA34B3A72
:102DE00000120CA36C3C00120CA3373E00120CA383
:102DF0009F3F00120CA3058205120CA3B48205129A
:102E00000CA3E18205120CA3278305120CA367848F
:102E100005120CA3FD8505120CA3778605120CA3E1
:102E2000928605120CA30D8705120CA36788051264
:102E30000CA3C78905120CA3CD8A05120CA32E8CF6
:102E400005120CA3478C05120CA3A58C05120CA32C
:102E5000938D05120CA3C68D05120CA3368E051298
:102E60000CA3B08E05120CA3FA8E05120CA3C48F0E
:102E700005120CA3999005120CA3789105120CA3CE
:102E8000039205120CA3719205120CA3E592051290
:102E90000CA3109305120CA3CF9305120CA3349529
:102EA00005120CA3519505120CA3709505120CA3E5
:102EB000619605120CA3869605120CA3B096051216
:102EC0000CA32B9705120CA3859705120CA3EE9863
:102ED00005120CA39C9905120CA3DD9905120CA3F5
:102EE0009AAA06120CA3E8AA06120CA3F4AA0612C8
:102EF0000CA3D2AB06120CA303AC06120CA334AC89
:102F000006120CA3B4AC06120CA3ECAC06120CA374
:102F10003EAD06120CA37BAD06120CA398AF0612B1
:102F20000CA3BEB106120CA3A9B306120CA393B551
:102F300006120CA3F53F00120CA3B2C405120CA399
:102F4000E2C405120CA3BBCB05120CA340CD0512A5
:102F50000CA33DD305120CA325D405120CA362D4F7
:102F600005120CA385D405120CA3B6D405120CA32C
:102F7000BFD405120CA3C9D405120CA3B7D50512F2
:102F80000CA3ADD605120CA3A3AF05120CA3A2B3DC
:102F900005120CA3A8B305120CA3E3BA05120CA3E7
:102FA000FCBF05120CA3D5A507120CA36BA6071234
:102FB0000CA381A607120CA3F7A607120CA36BA7FC
:102FC00007120CA3A9A707120CA31DA807120CA394
:102FD00096A807120CA39FA807120CA3ABA8071270
:102FE0000CA3C0A807120CA3FEA807120CA314A9D7
:102FF00007120CA373A907120CA388A107120CA334
:1030000095A107120CA3AFA107120CA3EEA1071202
:103010000CA32CA207120CA391A207120CA3A6A228
:1030200007120CA3B1A207120CA3BEA207120CA395
:10303000D5A207120CA3E3A207120CA3EEA207125B
:103040000CA3FAA207120CA309A307120CA314A342
:1030500007120CA337A307120CA3DEA307120CA3BD
:10306000EEA307120CA308A407120CA325A40712B1
:103070000CA341A407120CA366A407120CA371A40D
:1030800007120CA386A407120CA39AA407120CA380
:10309000FBA407120CA301A507120CA307A5071296
:1030A0000CA30DA507120CA325A507120CA358A568
:1030B00007120CA3718E06120CA3F58E06120CA338
:1030C000A48F06120CA3039106120CA324930612DC
:1030D0000CA3109406120CA3459406120CA367943B
:1030E00006120CA3169506120CA30E9706120CA33B
:1030F000379706120CA3C99706120CA3FB9706126A
:103100000CA3089806120CA35F9806120CA38598CE
:1031100006120CA3F29A06120CA3F59B06120CA33E
:103120004D9C06120CA3008006120CA30A81061205
:103130000CA3F18106120CA3FB8106120CA31D82C5
:1031400006120CA3298206120CA3C28306120CA33A
:10315000F18306120CA30D8506120CA366850612D8
:103160000CA3CC8606120CA3AB8706120CA307880F
:1031700006120CA3748806120CA3AF8806120CA3C7
:10318000EE8806120CA3A78B06120CA3C18B0612A5
:103190000CA34D8C06120CA35B8C06120CA3B48CF2
:1031A00006120CA3C28C06120CA3358D06120CA3BA
:1031B000998D06120CA3E38D06120CA341C50612CD
:1031C0000CA363C506120CA389C706120CA39ECAE2
:1031D00006120CA3B6CB06120CA369CC06120CA3E4
:1031E0004BCD06120CA35DBC07120CA382BC0712C8
:1031F0000CA3F4BC07120CA3EBE206120CA3F4E23E
:1032000006120CA3FDE206120CA3D4E306120CA3D3
:1032100085E506120CA3BBE506120CA3F5E5061224
:103220000CA32BE606120CA365E606120CA399E686
:1032300006120CA3C5E606120CA30EE706120CA399
:1032400048E706120CA391E706120CA3E9E7061261
:103250000CA31EE806120CA379E806120CA3B3E82F
:1032600006120CA304E906120CA33AE906120CA3F9
:1032700074E906120CA3A2E906120CA3C5E9061212
:103280000CA3D5C707120CA301C807120CA35CC876
:1032900007120CA366C807120CA376C807120CA36A
:1032A000C93F00120CA3E0FF05FFFFFFFFFFFFFF78
:1032B000FFFFFFFF74F01210877901122F61E9649C
:1032C0000160030233AF900BD1E064017020122F34
:1032D000D37AC57B0B122F55900BCEE4F075E1F13C
:1032E0007A02FB900A7EE0F91222EF0233AF122E2F
:1032F000E3E9FC900BC5E02402F8A3E03400F9E810
:10330000FAE9FB8A828B83EC75F0118485F00A85DB
:103310000A0EE4F50FF510F511780E120E61900B00
:10332000CFE0F50AA3E0F50BE4F50CF50D780E7986
:103330000A120E4E750AFF750BFF750CFF780E7999
:103340000A120EC78A828B83780E120F0F750A0439
:10335000750B00750C00780E790A120E4E750AFF77
:10336000750BFF750CFF780E790A120EC7900BC50E
:10337000E0F8A3E0C8240EF582E83400F583780E67
:10338000120F0F900BC5E0F8A3E0C82414F582E8F3
:103390003400F5837413F0900BC5E0F8A3E0C82463
:1033A00016F582E83400F583743BF0A3742EF00226
:1033B0003E2F74EC1210877901122F61E9640160CD
:1033C00003023A43900BCEE4F07AC57B0B122F55E3
:1033D000122E958A0A8B0BAE0AAF0B8E828F83A3B7
:1033E000A3A37401F0900AACE004F07940122F4FCF
:1033F0008A0A8B0BA80AA90B8E828F83E8F0A3E9B7
:10340000F0E82406FCE93400FDE82402FAE934007F
:10341000FB122FDFE5D9E5D9A2E6E433900BB2F039
:1034200078B2790BE5D988828983A3F08882898371
:10343000A3A882A983E864B87003E9640B70E578F7
:1034400006E5D918E870FAEE2422F8EF3400F9E81E
:1034500049700A7804E5D918E8603080F8EEF8EF92
:10346000F9E82404FAE93400FBE5D9C0E0E82422B5
:10347000F582E93400F583D0E0F088828983A3A83F
:1034800082A983EA687002EB6970DEEE2422F5827D
:10349000EF3400F583120F1E12303FEE2426F8EFB2
:1034A0003400F9E849700A7803E5D918E8603080FB
:1034B000F8EEF8EFF9E82403FAE93400FBE5D9C0A7
:1034C000E0E82426F582E93400F583D0E0F0888234
:1034D0008983A3A882A983EA687002EB6970DEEE93
:1034E0002426F582EF3400F583750AFF750BFF750E
:1034F0000CFF750D00780A120EDAAA0AAB0BAC0CA1
:103500007D00123015E5D9C0E0EE242BF582EF34B2
:1035100000F583D0E0F0EE242CF8EF3400F9E84910
:103520007006E5D9E5D98022E5D9C0E0EE242CF576
:1035300082EF3400F583D0E0F0E5D9C0E0EE242D31
:10354000F582EF3400F583D0E0F0EE242EF8EF346E
:1035500000F9E8497006E5D9E5D98022E5D9C0E04F
:10356000EE242EF582EF3400F583D0E0F0E5D9C0EB
:10357000E0EE242FF582EF3400F583D0E0F0EE2466
:103580002BF582EF3400F583E0C333F0EE242CF802
:10359000EF3400F988828983E0FAA3E0FBEAC333C1
:1035A000FAEB33FB88828983EAF0A3EBF0EE242E5A
:1035B000F8EF3400F988828983E0FAA3E0FBEAC3DC
:1035C00033FAEB33FB88828983EAF0A3EBF0EE2435
:1035D00020F8EF3400F9E8497006E5D9E5D98022F2
:1035E000E5D9C0E0EE2420F582EF3400F583D0E089
:1035F000F0E5D9C0E0EE2421F582EF3400F583D068
:10360000E0F0EE2432F8EF3400F9E8497006E5D92D
:10361000E5D98022E5D9C0E0EE2432F582EF34000E
:10362000F583D0E0F0E5D9C0E0EE2433F582EF3445
:1036300000F583D0E0F0E8FAE9FB8A828B83E0F5BD
:103640000CA3E0F50D7404780C12101D850C0A858E
:103650000D0B8A828B83E50AF0A3E50BF0E4F50CF1
:10366000F50DEE2420F582EF3400F583E02401F51A
:103670000EA3E03400F50FE4F510F511EE242EF55D
:1036800082EF3400F583E0F8A3E0F9E8C333F8E90A
:1036900033F988128913E4F514F515780E791212AE
:1036A0000D0C780A790E120CCD5013EE242EF582F3
:1036B000EF3400F583E0F8A3E0F9E84970167A40AA
:1036C0007B00900A7EE0F91222EFEEFAEFFB122E59
:1036D000A7023A43EE242BFCEF3400FDEEFAEFFB99
:1036E000122EB9EE240BF582EF3400F5837405F049
:1036F000A3E4F0EEFAEFFB122EBFEE245DF8EF34F8
:1037000000F9E849700A7805E5D918E8603080F8D2
:10371000EEF8EFF9E82405FAE93400FBE5D9C0E05A
:10372000E8245DF582E93400F583D0E0F0888289F1
:1037300083A3A882A983EA687002EB6970DEE5D9E9
:10374000F50EC4135407F9EE242AF582EF3400F580
:1037500083E9F0122172EE2410F582EF3400F58334
:10376000EAF0A3EBF0E50E541FC0E0EE2437F5823B
:10377000EF3400F583D0E0F0EE245DFCEF3400FD83
:10378000EEFAEFFB122E8F12309F123039790412AD
:103790003045790112307B9060607480F075E1F102
:1037A0009011377485F0A3742FF0A37485F0A3747F
:1037B0002FF0A37485F0A3742FF0A37485F0A37485
:1037C0002FF0A37431F0A3742FF0A37485F0A374C9
:1037D0002FF0A3748BF0A3742FF09011457431F087
:1037E000A3742FF0A37431F0A3742FF0A37431F0FD
:1037F000A3742FF0A37431F0A3742FF0A37431F0ED
:10380000A3742FF0A37431F0A3742FF07A047B001B
:10381000900A7EE0F91222EFEE242CF8EF3400F942
:1038200088828983E0FAA3E0FB8A0E8B0FE4F5100F
:10383000F511750A02F50B780E790A120E4EEA4B55
:103840006013EE242CF582EF3400F583E0640270FF
:1038500002A3E0704EEE242EF582EF3400F583E0F3
:10386000F50AA3E0F50B780E790A120E4E7C027D64
:1038700000EEFAEFFB12144D1222878E828F83A383
:10388000A3A3A3A3E02401F0A3E03400F08E828F71
:1038900083A3A3A3A3A3A3A3E02401F0A3E0340084
:1038A000F0800E7C017D00EEFAEFFB12144D122227
:1038B000878E828F83E02402F8A3E03400F9E8FACF
:1038C000E9FB8A828B83780E120E748A828B837551
:1038D0000AFF750BFF750CFF780A120EEDEE24122D
:1038E000F50AEF3400F50B780A12129AEE2410F55F
:1038F00082EF3400F5831212B1EE241DF582EF340D
:1039000000F5831212B1AA0EAB0FAC10AD1112214B
:10391000C87406121046EE2418F582EF3400F583C1
:10392000780E120F0FAC0AAD0B8E828F83E024024B
:10393000FAA3E03400FB1221037C0C7D818E828F80
:1039400083E02402FAA3E03400FB1221038E828F6D
:1039500083E0F8A3E0F988828983A3A3E82408FC24
:10396000E93400FD7406120F438E828F83E0F50C5C
:10397000A3E0F50DE50C240EF582E50D3400F5838A
:1039800074FFF0A3F0A3F0A3F0E50C2412F8E50D0A
:103990003400F9E8FAE9FBEE242BF582EF3400F568
:1039A00083E0FC850A82850B83780E120F00740178
:1039B000780E12101DEC250EF8E4350FF9E875F0BD
:1039C00071A4C8ACF075F002A42CFC75F071E9A4E8
:1039D0002CF98A828B83E8F0A3E9F0EE2416F582B5
:1039E000EF3400F583E0F50AA3E0F50B7404780AE0
:1039F00012100EE50A2401F8E50B3400F98A828BD7
:103A000083E028F0A3E039F08A828B83E02410F071
:103A1000A3E03401F0E50C2414F582E50D3400F543
:103A2000837410F08E828F83E0F8A3E0C82416F52B
:103A300082E83400F5837441F0A3742EF0900A7F7D
:103A40007407F0122F3D7F0C02115974F012108789
:103A500012301BE97008900BD2E0F912302175E1A9
:103A600081907803E064427055900C21E014F0706E
:103A70004DC2AF123A7600782AD0E0F618D0E0F6C0
:103A8000E59F54077005750BFF8003750B7FC4C05D
:103A9000E07829E6F50A08E6550BF50B740B780A71
:103AA00012100ED0E0250AF8906270E0A2E740F80C
:103AB000E8C333906272F0906270E0D2E0F0790176
:103AC000122F61E964016003023C69900C18E0F870
:103AD000A3E0F9E8496010900C18E0FAA3E0FB902D
:103AE0000C17E0F91222EF900BD6E064016003029C
:103AF0003BAF75E191A3E02407F5D9900BC7E0C473
:103B0000333354C0F5D978C5790B88828983A3A350
:103B1000A3E0F5D988828983A3A882A983E864CB2E
:103B20007003E9640B70E3900BD7E0601F78C579F0
:103B30000BFAE82413F582E93400F583E0F5D9881F
:103B4000828983A3A882A9831AEA70E6900BF7E022
:103B50002407F5D9900BC7E0C4333354C04404F5AF
:103B6000D978C5790B88828983A3A3A3E0F5D98886
:103B7000828983A3A882A983E864CB7003E9640BDC
:103B800070E3900BF7E0601F78C5790BFAE82433F7
:103B9000F582E93400F583E0F5D988828983A3A80A
:103BA00082A9831AEA70E675E195900BD6E4F012CB
:103BB0002EE3E9FC900BC5E02402F8A3E03400F901
:103BC000E8FAE9FB8A828B83EC75F0118485F00AB0
:103BD000850A0EE4F50FF510F511780E120E6190BE
:103BE0000BCFE0F50AA3E0F50BE4F50CF50D780E2C
:103BF000790A120E4E750AFF750BFF750CFF780ED1
:103C0000790A120EC78A828B83780E120F0F900BDF
:103C1000C5E0F8A3E0C82406F582E83400F583E4A3
:103C2000F0A3F0900BC5E0F8A3E0C8240EF582E8FD
:103C30003400F58374FFF0A3F0A3F0A3F0900BC55C
:103C4000E0F8A3E0C82414F582E83400F583741288
:103C5000F0900BC5E0F8A3E0C82416F582E8340024
:103C6000F583743BF0A3742EF0023E2F74F0121013
:103C70008775E18112301BE97008900BD2E0F912D0
:103C800030217901122F61E964016003023E2F9017
:103C90000C18E0F8A3E0F9E8496010900C18E0FA7D
:103CA000A3E0FB900C17E0F91222EF900BD6E06432
:103CB000016003023D7575E191A3E02407F5D990F9
:103CC0000BC7E0C4333354C04406F5D978C5790B2B
:103CD00088828983A3A3A3E0F5D988828983A3A8D6
:103CE00082A983E864CB7003E9640B70E3900BD77F
:103CF000E0601F78C5790BFAE82413F582E93400F7
:103D0000F583E0F5D988828983A3A882A9831AEA7A
:103D100070E6900BF7E02407F5D9900BC7E0C433A9
:103D20003354C04404F5D978C5790B88828983A3BC
:103D3000A3A3E0F5D988828983A3A882A983E86434
:103D4000CB7003E9640B70E3900BF7E0601F78C55C
:103D5000790BFAE82433F582E93400F583E0F5D9EC
:103D600088828983A3A882A9831AEA70E675E195FF
:103D7000900BD6E4F0122EE3E9FC900BC5E0240290
:103D8000F8A3E03400F9E8FAE9FB8A828B83EC754A
:103D9000F0118485F00A850A0EE4F50FF510F5118F
:103DA000780E120E61900BCFE0F50AA3E0F50BE45C
:103DB000F50CF50D780E790A120E4E750AFF750B8B
:103DC000FF750CFF780E790A120EC78A828B8378F2
:103DD0000E120F0F900BC5E0F8A3E0C82406F58281
:103DE000E83400F583E4F0A3F0900BC5E0F8A3E01D
:103DF000C8240EF582E83400F58374FFF0A3F0A325
:103E0000F0A3F0900BC5E0F8A3E0C82414F582E815
:103E10003400F5837415F0900BC5E0F8A3E0C824D6
:103E200016F582E83400F583743BF0A3742EF0128B
:103E30002F3D7F0802115974F012108775E181122D
:103E4000301BE97008900BD2E0F912302179011291
:103E50002F61E964016003023F9C900C18E0F8A315
:103E6000E0F9E8496010900C18E0FAA3E0FB900C30
:103E700017E0F91222EF900BD6E06401706475E14F
:103E800091A3E02407F5D9900BC7E0C4333354C0A5
:103E90004402F5D978C5790B88828983A3A3A3E06E
:103EA000F5D988828983A3A882A983E864CB7003AB
:103EB000E9640B70E3900BD7E0601F78C5790BFACB
:103EC000E82413F582E93400F583E0F5D988828986
:103ED00083A3A882A9831AEA70E675E195900BD6B0
:103EE000E4F0122EE3E9FC900BC5E02402F8A3E015
:103EF0003400F9E8FAE9FB8A828B83EC75F01184CF
:103F000085F00A850A0EE4F50FF510F511780E120A
:103F10000E61900BCFE0F50AA3E0F50BE4F50CF58C
:103F20000D780E790A120E4E750AFF750BFF750C8F
:103F3000FF780E790A120EC78A828B83780E120FD1
:103F40000F900BC5E0F8A3E0C82406F582E8340022
:103F5000F583E4F0A3F0900BC5E0F8A3E0C8240ECD
:103F6000F582E83400F58374FFF0A3F0A3F0A3F02A
:103F7000900BC5E0F8A3E0C82414F582E83400F5FE
:103F8000837414F0900BC5E0F8A3E0C82416F58202
:103F9000E83400F583743BF0A3742EF0023E2FC08A
:103FA00082C08353BFEF7901122F61E96401700C65
:103FB0007AC57B0B122F55900BCEE4F075E1F11210
:103FC0002F3DD083D082020CA0C082C083851A828C
:103FD000851B83E0F8A3E0F9E84960128A828B83AD
:103FE000ECF0A3E824FF18E934FFF94870F2D0831D
:103FF000D082020CA0020CA0851C87C2AF020CA0CC
:020000040002F8
:1030000074F612108774C4121030E990091CF01283
:10301000271B75C90053C9FCE5C954F34408F5C919
:103020009080A1C082742B12107BAC82AD8375831B
:1030300080D0827411120F43742112107BAA82ABCC
:1030400083122D63742312107B12B44112107B1271
:10305000B435C0E0740D12107BD0E012B44F1210E2
:103060007B12B435C0E0740E12107BD0E0F07422F5
:1030700012107B12B44112107B12B435C0E0740FF1
:1030800012107BD0E012B44F12107B12B435C0E0A6
:10309000741012107BD0E0F0742112107BE012B497
:1030A0004812107B12B435C0E0741112107BD0E0CE
:1030B000F0742112107BE012B44912107B12B43567
:1030C000C0E0741212107BD0E0F0750A06750B0098
:1030D000780A12129A740F12107BAC82AD837A2890
:1030E0007B1012229B7402121046780A12129A74F4
:1030F0000F12107BAC82AD837A457B1012229B7439
:10310000021210467C067D007A1F7B0012284D7447
:103110000C12107B7401F0741F12107BE4F0A3F00A
:10312000740B12107B7401F0741D12107B7420F06C
:10313000A37403F0741B12107B74B0F0A37404F03A
:10314000741912107B7404F0A3E4F0741712107B4E
:103150007488F0A37413F0740C12107BAC82AD83EE
:1031600079017A057B031226A3741F12107BAC82AF
:10317000AD8379027A067B031226A37C237D107926
:10318000147A087B031226A37C377D10790B7A070B
:103190007B031226A3740B12107BAC82AD837901E2
:1031A0007A107B031226A3741D12107BAC82AD83B0
:1031B00079027A117B031226A3741B12107BAC8256
:1031C000AD8379027A127B031226A3741912107B45
:1031D000AC82AD8379027A137B031226A374171293
:1031E000107BAC82AD8379027A147B031226A37C18
:1031F000427D107A0979001229C77C407D1F7A062A
:103200007B0012284D7C407D1F7A077B0012284DE1
:103210007C407D1F7A087B0012284D7C407D1F7A00
:10322000097B0012284D742712107B12B456740AC1
:1032300012107B7401F0740912107B7401F0740891
:1032400012107BE4F0740712107B7401F0742712E3
:10325000107BAC82AD8379047A087B041224097454
:103260000A12107BAC82AD8379017A007B041224B0
:1032700009740912107BAC82AD8379017A027B0458
:10328000122409740812107BAC82AD8379017A0391
:103290007B04122409740712107BAC82AD83790180
:1032A0007A067B041224099081B0120F1E1229CDD8
:1032B0009081B0120F1E122ADB9081B0120F1E12E5
:1032C00025A11223CD1225DD741512107B7403F095
:1032D000A3E4F0741312107B747CF0A3E4F0741573
:1032E00012107BAC82AD837A0279041225AD74137F
:1032F00012107BAC82AD837A0279001225AD740680
:1033000012107B740AF0AC82AD837A01790112232A
:10331000D990091CE0F91223BB75FDF675F3017510
:10332000FEFB75F40075FFFF75F5001227031227E9
:10333000571227517A547B101225A77AF77B261251
:1033400023D312275D7901122BD17A107B009009CB
:103350001CE0F91222EF7A81795012251D9081D05C
:10336000C082851A82851B83AC82AD83758381D030
:10337000827402120F43851A82851B83AA82AB8353
:103380007902122529740212107BAA82AB83790478
:10339000122523740212107BE0F4700974031210DA
:1033A0007BE0F46026740312107BE0F974021210C3
:1033B0007BE090092012BF43740512107BE0F97482
:1033C0000412107BE090092212BF43122715851AC0
:1033D00082851B8312CD7F851A82851B83AC82ADCB
:1033E000837A0279041225AD7A017B0090091CE0F2
:1033F000F91222EF7A027B0090091CE0F91222EF09
:103400007A007B4090091CE0F91222EF7A407B00A1
:1034100090091CE0F91222EF7A007B1090091CE061
:10342000F91222EF7A007B0890091CE0F91222EFD2
:10343000743C02C0F7E58228F582E58312D142E0B0
:1034400022E0F50A12B44822C4540FF8742B22F07B
:10345000E50A12B44922E4F0A3F0A3F0A3F0227429
:10346000F412108774F4121030EAFEEBFF548060FF
:103470002390091CE0F91222D78A0A8B0BEA450B2C
:10348000600A1226EBAA0AAB0B1222C5EEFAEF6411
:103490008002BB5FEEA2E0400302B650900959E003
:1034A00070657A507B101226AF7A5A7B0912242756
:1034B000851A82851B8312BB701226A390818C1201
:1034C00012AD7A027B0090091CE0F912238B740480
:1034D0001210469081881212AD7A007B4090091C30
:1034E000E0F912238B74041210469081841212ADFD
:1034F0007A007B1090091CE0F912238B74041210DF
:103500004690818002B61A6401701FC290D291D297
:1035100096D297D2A0D2A1C281D282D284D285D2B1
:1035200086D28790048F74218046E06402701FD297
:1035300090C291D296D297D2A0D2A1D281C282D289
:1035400084D285D286D28790048F74428022E06430
:10355000037023D290D291C296D297D2A0D2A1D298
:1035600081D282C284D285D286D28790048F74841D
:10357000F0A3E402B614E064047023D290D291D296
:1035800096C297D2A0D2A1D281D282D284C285D251
:1035900086D28790048F7408F0A374018076E0646B
:1035A000057023D290D291D296D297C2A0D2A1D246
:1035B00081D282D284D285C286D28790048F741041
:1035C000F0A37402804EE064067023D290D291D2B0
:1035D00096D297D2A0C2A1D281D282D284D285D2F1
:1035E00086C28790048F7420F0A374048026E06460
:1035F00007703DC290D291D296D297D2A0D2A1C2EA
:1036000081D282D284D285D286D28790048F7440B0
:10361000F0A37408F0D29390818C1212AD7A017BE2
:103620000090091CE0F912238B74041210468014D8
:10363000E0640870151227037A017B0090091CE0F2
:10364000F9122397900959E004F0EE640102B9558C
:103650005410700302B6DA7A81791D12251D7404A4
:1036600012107BE412C22D12253B851A82851B8322
:10367000AA82AB837901122541851A82851B83E0DA
:10368000543FF06004F9122721900958E070179018
:10369000104C1212AD7A107B0090091CE0F9122335
:1036A0008B740412104690091DE064029010217082
:1036B0000EE0C39478400474788008E0048004E04D
:1036C000600414F0800E7478F0740112107B12BB49
:1036D000701226A3EE641002B955EE5408602890CB
:1036E000091DE06405701A1223DF9081881212AD63
:1036F0007A087B0090091CE0F912238B74041210E5
:1037000046EE640802B955EE5402700302B7ED901C
:103710000914E0701A7A0179001224C37A01790041
:103720001224BD9009147401F090818C02B7D390DB
:10373000091DE06402600302B7BD900917E004F0C0
:10374000C3940B50391223F7E990091BF0F8900944
:1037500018E02812CFDF90091AE0F890091BE0C3A7
:10376000984005E090091AF090091BE0F8901022AB
:10377000E0C398404890091BE0901022803E9009D9
:1037800018C08290091AE0F8758309D082E0C398C6
:10379000F8A3E09400F9901022E0FAE8C39AF50A41
:1037A000E99400F50B7403780A12100EE50A9010E4
:1037B0001EF0900917E4F0900918F0A3F07A007950
:1037C000001224C37A0079001224BD900914E4F099
:1037D0009081881212AD7A027B0090091CE0F912E8
:1037E000238B7404121046EE640202B955EE548025
:1037F000700302B8AE90094EE06403600302B8A300
:10380000D290D291D296D297D2A0D2A1D281D28296
:10381000D284D285D286D2877A407B0090091CE080
:10382000F912239790094F7401F01223258A0A8B0D
:103830000B8C0C8D0D780A121296740912107BAA4B
:1038400082AB8312232B7404121046740712107B70
:10385000E0F9C3940C400474F429F975F00574067A
:1038600012107BE08490104BF069700CE0640B70D8
:1038700004740A8002E004F07A0012270912270F6C
:103880009081801212AD7A007B0290091CE0F9123F
:10389000238B74041210467A007B0490091CE0F913
:1038A00012239790094EE4F0EE648002B955EF546C
:1038B00001600B12270FEEFAEF640102BB5FEF54B9
:1038C0000260277A007B0190091CE0F9122397120D
:1038D0002703900950E4F090104B740DF090094FBD
:1038E000E4F0EEFAEF640202BB5FEE5420606B90EE
:1038F0000952E0C3940750167A00E0F91227097ABA
:1039000000900952E0F8740CC398F91227097A0163
:10391000900952E014F91227097A01900952E0F84F
:10392000740DC398F9122709900952E004F0C3946A
:103930000850199081BC1212AD7A207B0090091CAE
:10394000E0F912238B74041210468006E4F090090B
:103950004FF0EE6420FAEF02BB5FEF540860159061
:103960000916E070077A017901122727EEFAEF6451
:103970000802BB5FEE5440601FC290C291C296C263
:1039800097C2A0C2A1C281C282C284C285C286C2BD
:1039900087EE6440FA02BB66EF5404700302BA2B50
:1039A000D290D291D296D297D2A0D2A1D281D282F5
:1039B000D284D285D286D2877A407B0090091CE0DF
:1039C000F9122397900951E06059900492E0640144
:1039D000703190094F7401F09081581212AD7A0045
:1039E0007B0890091CE0F912238B74041210469096
:1039F00009167401F07A207B0090091CE0F912226C
:103A0000EF8020E0701D9009597401F090815412EC
:103A100012AD7A017B0090091CE0F912238B74042B
:103A2000121046EEFAEF640402BB5FEF5420602BE5
:103A300012272D900953E0C3940350179081601210
:103A400012AD7A007B2090091CE0F912238B7404DC
:103A5000121046EEFAEF642002BB5FEF5440700391
:103A600002BB2E7A81794A12251D851A82851B8315
:103A7000740312C22D12253B740112107BAA82AB73
:103A8000837901122541740112107BE0C433335451
:103A9000C0F50A851A82851B83740212C22D122575
:103AA0003B740112107BAA82AB8379011225417409
:103AB0000112107BE01313543F54F8450A90102074
:103AC000F090101FE0F8901020E068900915703613
:103AD000E004F0C3940A4030E4F012274B74021261
:103AE000107B741AF0901020E0C0E0740312107B79
:103AF000D0E0F0740212107BAA82AB837902122507
:103B0000291227518002E4F0901020E090101FF05D
:103B10009081881212AD7A007B4090091CE0F91266
:103B2000238B7404121046EEFAEF64408031EF5498
:103B300010602FE5C9540F44A0F5C9E5C9540F44DE
:103B400050F5C99081841212AD7A007B1090091C47
:103B5000E0F912238B7404121046EEFAEF6410FBA6
:103B600080047A007B00740C1210467F0402115905
:103B70007401F0AC82AD83F97A057B032274F712ED
:103B8000108774FC1210308A828B83E064C060035B
:103B900002BCE5A3A3A3E0FE7A81794A12251D7435
:103BA0000312107BE412C22D12253B740212107B0B
:103BB000AA82AB837901122541740212107BE0A224
:103BC000E0E433900951F0EEA2E0400302BC5BE078
:103BD000A2E04005900916E4F090094FE06003026E
:103BE000BCE5900951E0A2E0501990815C1212AD41
:103BF0007A007B0490091CE0F912238B74041210E4
:103C000046800C7A007B0490091CE0F912239790FF
:103C10000951E06029900492E06401702190094EFE
:103C2000E070057402F0801C6402600302BCE8745A
:103C300003F07A807B0090091CE0F9122397900929
:103C40004EE060179081541212AD7A807B0090098B
:103C50001CE0F912238B7404121046EEA2E140031B
:103C600002BCE57A81791D12251D851A82851B8388
:103C7000742AF0740112107BE412C23712252985D0
:103C80001A82851B83741612C22D12253B740112F1
:103C9000107BAA82AB837901122541851A82851B8C
:103CA00083742DF0740112107BE412C2371225299F
:103CB000851A82851B83742AF0740112107B12C24C
:103CC0003512252990095412B456900958F09010D5
:103CD0004C1212AD7A107B0090091CE0F912238B74
:103CE000740412104602BE36E06403600302BC4452
:103CF0007A807B0090091CE0F91223977A007B04FC
:103D000090091CE0F912239790094EE4F002BC5B85
:103D100074F712108774F0121030E9FE146010145A
:103D2000700302BDBF24FD700302BDF902BE2D74F5
:103D30000A12107BAC82AD837A047B031226A9742D
:103D40000A12107BE0C0E0740212107BD0E0F07425
:103D50000B12107BE0C0E0740312107BD0E0F07413
:103D60000C12107BE0C0E0740412107BD0E0F07401
:103D70000612107BE4F0740512107BE4F0740F124D
:103D8000107BE0C0E0740912107BD0E0F0740E12DA
:103D9000107BE0C0E0740812107BD0E0F0740D12CC
:103DA000107BE0C0E0740712107BD0E0F0740212C8
:103DB000107BAC82AD837A0879001223FD806E7A85
:103DC00081794A12251D90091FE06401705F9004FB
:103DD00092E06401705712274B851A82851B837409
:103DE00043F0740112107B742612C23712252990F9
:103DF0000492E4F012275180347A81794A12251D09
:103E0000900492E0702712274B851A82851B8374D9
:103E100043F0740112107B742312C23712252990CB
:103E200004927401F012275190091FE4F0EE9009FA
:103E30001DF07410800274041210467F01021159A3
:103E400074F7121087E9FE74016E702190091DE06D
:103E50006405702A9081881212AD7A087B0090095F
:103E60001CE0F912238B7404121046801174026E48
:103E7000700C7A087B0090091CE0F912239780BB34
:103E800074F412108774F1121030E9146010146089
:103E90006714605C24FD700302BF3402BF3D851AC5
:103EA00082851B83AA82AB8379011225B3851A828E
:103EB000851B8312CD2290101612BF421227157453
:103EC0000212107B12CD7F740212107BAC82AD8384
:103ED0007A0279041225AD900953E4F090816012C2
:103EE00012AD7A007B2090091CE0F912238B803DF3
:103EF0007A1E7B0979038042740412107BAA82AB7C
:103F00008379021225B3740412107B120F1E122340
:103F10001F1223258A0A8B0B8C0C8D0D780A121226
:103F200096740C12107BAA82AB8312232B7404129A
:103F3000104680097A1F7B0979061225B3740F0297
:103F4000BB68E8F0A3E9F022C082C083D290D2918E
:103F5000D296D297D2A0D2A1D281D282D284D28557
:103F6000D286D28790048FE4F0A3F0C293C280C2BD
:103F700094C29590818C1212AD7A407B0090091CFE
:103F8000E0F912238B02C0A374F2121087E9FEEA53
:103F9000FF750A01750B00EE780A12101DAA0AAB14
:103FA0000B046F7011EAF4F8EBF4F990048FE05809
:103FB000F0A3E059800990048FE04AF0A3E04BF0B1
:103FC00090048F12CD22E849701BC29390818C120D
:103FD00012AD7A407B0090091CE0F912238B740427
:103FE0001210468002D293EE607014602014602498
:103FF00014602814602C1460301460341460381479
:10400000603C1460401460441460488052EFA2E0A9
:104010009291804BEFA2E092968044EFA2E09297BB
:10402000803DEFA2E092A08036EFA2E092A1802F27
:10403000EFA2E092818028EFA2E092828021EFA29D
:10404000E09284801AEFA2E092858013EFA2E092C2
:1040500086800CEFA2E092878005EFA2E092907F2D
:1040600006021159C082C083900950E070047401A7
:104070008001E4F0E0FA90104BE0F91227099081FA
:10408000541212AD7A007B0102BF7DC0E0740312AE
:10409000107BD0E0F0740212107BAA82AB8379020D
:1040A0001225297404121046D083D082020CA07409
:1040B000F612108790092012CD227583097582228D
:1040C000E0C398F50AA3E099F50B75830975822280
:1040D000C3E098A3E099500CE50A24A0F50AE50B8B
:1040E000340FF50B7403780A12100EE50A2403FA54
:1040F000E50B3400FB80031210467F02021159C009
:1041000082C08374FE1210307A81791D12251D85BC
:104110001A82851B83742BF0740112107B74401279
:10412000C237122529851A82851B83742B12C22D52
:1041300012253B740112107BAA82AB8379011225F0
:1041400041740112107BE0A2E640DA851A82851BD9
:1041500083740EF0740112107B740212D1DFF91215
:104160002529851A82851B837409F0740112107B3E
:10417000744012C237122529851A82851B83741553
:10418000F0740112107B74FF12C237122529851AB0
:1041900082851B837417F0740112107B741112C294
:1041A00037122529851A82851B837418F074011231
:1041B000107B740312C237122529851A82851B834E
:1041C000742CF0740112107B740812C23712252966
:1041D000851A82851B83742DF0740112107B740480
:1041E00012C237122529851A82851B83742EF0741A
:1041F0000112107B740412C237122529851A828598
:104200001B83742BF0740112107B741F12C23712BF
:104210002529851A82851B83742AF0740112107B6C
:1042200012C235122529740202C0A57444F0AA8274
:10423000AB83790122746912D1E379022274E81206
:10424000108774D2121030740C12107BE9F0741ABB
:1042500012107BAC82AD8375838175822274081243
:104260000F43741212107BAC82AD8375838175820B
:104270001A7408120F43740D12107B7401F07A81C6
:10428000791D12251D908190780A120F0090095413
:10429000780A120E747AC07B001223497408121037
:1042A0007B12CD7F7CC07D007900740812107BE00A
:1042B000FA1222B3740812107B12CD22E849604929
:1042C0007CC07D007900740812107B12CD3412225C
:1042D000B3740D12107BAA82AB83790112253B7453
:1042E0000812107B12CD3475F006740C12107BE0AE
:1042F000A4F9122541740C12107BE0900491F0C3D4
:104300009405500E790002CCED900491E4F0F9028E
:10431000CCED7E00EE75F006A4F8A9F0749328FAAF
:10432000740439FB740812107BE028F8A3E039F913
:1043300088828983E0FDA3E08A828B8312CD851277
:10434000CD0CE08A828B83A3A312CD85A3A312CDCB
:104350000CA3A3E0F8EDF98A828B83A3A3A3A31295
:10436000BF420E900491E0F8EEC39840A77E008013
:10437000010EEEC39840FA7E008E0A750B0074039E
:10438000780A12101DAA0AAB0B74532AF874063B64
:10439000F974A32AFA74073BFB8A0A8B0B8A82F50D
:1043A00083120F1E88828983120F2A850A82850B49
:1043B00083A3A3A3A3120F1E88828983A3A3A3A30D
:1043C000120F2A0EEEC3940A40AF7E0A8E82AA8292
:1043D0008A0A750B007403780A12101D7453250A9B
:1043E000F87406350BF9E8FCE9FDEA75F006A4FA65
:1043F000ABF074932AFA74043BFBEA24C612CD5343
:10440000780A120F0FEA24C812CD53A3A3A3A378EE
:104410000A120F0F0E900491E0240BF8E43400F917
:10442000EE98E499C365D03340A27A207B00122332
:1044300049740A12107B12CD7F7C207D00790074B4
:104440000A12107BE0FA1222B37E0002C79D8E0A88
:10445000750B007403780A12101DAA0AAB0B745373
:104460002AF874053BF9740612107B12BF429010B3
:104470001DE0F50AE4F50BF50CF50D742A12107B1E
:10448000780A120F0F90101CE0F50A742612107BA8
:10449000780A120F0F90101BE0F50A742212107B9D
:1044A000780A120F0F90101AE0F50A740E12107BA2
:1044B000780A120F0F901019E0F50A74532AF87455
:1044C000063BF9851A82851B8312BF42901018E0C3
:1044D000F50EE4F50FF510F51112CD3A7816120F1E
:1044E0000012CD73245012D13F7816120E61781647
:1044F000790E120D0C12CD73240812CD06120F0086
:1045000012CD73244812CD06120E617812790A1268
:104510000D0C78167912120E4EC016C017C018C0B6
:104520001912CD73241012CD06120F0012CD732470
:104530004012CD06120E61740E12107B7816120F07
:104540000078127916120D0CD019D018D017D01689
:1045500078167912120E4EC016C017C018C0191264
:10456000CD73241812CD06120F0012CD7324381209
:10457000CD06120E61742212107B7816120F00788D
:10458000127916120D0CD019D018D017D016781633
:104590007912120E4EC016C017C018C01912CD7372
:1045A000242012CD06120F0012CD73243012CD0636
:1045B000120E61742612107B7816120F0078127991
:1045C00016120D0CD019D018D017D01678167912F3
:1045D000120E4EC016C017C018C01912CD73242871
:1045E00012CD06120F00742A12107B7816120F00DB
:1045F00078127916120D0CD019D018D017D0167861
:10460000167912120E4E740A7816120DFC740612E8
:10461000107B12CD407816120F0F740612107B1209
:10462000CD2812107B12BF4212CD3AA3A3A3A378C8
:1046300012120F0012CD73245412CD06120E61789F
:1046400012790E120D0C85120E85130F851410852C
:10465000151112CD73240C12CD06120F0012CD735A
:10466000244C12CD06120E617812790A120D0C78C4
:104670000E7912120E4E12CD73241412CD00120FA9
:104680000012CD73244412CD00120E61740E12106C
:104690007B7812120F00780A7912120D0C780E79BD
:1046A0000A120E4E12CD73241C12CD00120F0012EE
:1046B000CD73243C12CD00120E61742212107B784F
:1046C00012120F00780A7912120D0C780E790A1264
:1046D0000E4E12CD73242412CD00120F0012CD7392
:1046E000243412CD00120E61742612107B7812123F
:1046F0000F00780A7912120D0C780E790A120E4EFC
:1047000012CD73242C12CD00120F00742A12107BCC
:104710007812120F00780A7912120D0C780E790AAD
:10472000120E4E740A780E120DFC740212107B12D7
:10473000CD4D120F0F740212107B12CD4078121261
:104740000F00740612107B12CD6D120F00850A0E39
:10475000850B0F850C10850D11780E790A120D0C42
:1047600085120A85130B85140C85150D780A7912AC
:10477000120D0C780E790A120E4E8E0A750B00740B
:1047800002780A12101D740A12107BE0250AF8A3A1
:10479000E0350B8882F583780E120F0F0E9004918E
:1047A000E0F8EEC398500302C44E7E008027780ED6
:1047B0007912120CCD500A741E12107B780E120F53
:1047C0000F780A790E120CCD500A741612107B78ED
:1047D0000E120F0F0E741612107B780A120F00744F
:1047E0001E12107B7812120F00900491E0C313FF89
:1047F000E0F8EEC398504D8E0E750F007402780EDF
:1048000012101D740A12107BE0250EF8A3E0350F7C
:104810008882F583780E120F00EEC39F5090741AB1
:1048200012107B780E120CDD500A741A12107B786D
:104830000E120F0F741212107B780E120CED4094B2
:1048400074128088741A12107B780E120F00741282
:1048500012107B780E120E617401780E120E1690F3
:1048600008F3780E120F0F741A12107B780E120FC5
:1048700000741212107B780E120E9B9008FF780EB7
:10488000120F0F85120E85130F85141085151178E0
:104890000E790A120E4E7401780E120E169008F759
:1048A000780E120F0F7812790A120E87740E1210FA
:1048B0007B7812120F0F740E12107B120F1E9009CC
:1048C00003120F2A7E0002C95A85120A85130B852E
:1048D000140C85150D780A7916120E87780A120CB9
:1048E000ED500302C9F7740612107B12CD40120F6F
:1048F0001E740212107B12CD40120F2A7406121081
:104900007B12CD6D120F00851A82851B83E0247700
:10491000F8A3E03408F988828983780A120F0F908F
:10492000090DE024FDFAEEC39F400302CA6B900814
:10493000F3780A120CDD400302CA079008F3780AE4
:10494000120F00740212107B12CD6D120CDD500399
:1049500002CA2490090DE004F00E8E8285820A7549
:104960000B00900491E024FFF8E434FFF9C3E50A5A
:1049700098E499A2D265D033400302CB1C7402782C
:104980000A12101D851A82851B83E50AF0A3E50B28
:1049900012D294F8A3E0F9740A12107BE028FAA36B
:1049A000E012D1477812120F00851A82851B83E02E
:1049B00024F3F8A3E03407F9740612107B12BF4207
:1049C000740612107B12CD2812107B12BF428A820D
:1049D0008B837816120F0078127916120CCD908105
:1049E00094500302C8C978167912120E87781612ED
:1049F0000CED400302C8E6740212107B12CD407821
:104A000012120F0F02C8FC500302C9537402121095
:104A10007B12CD6D120F009008F3780A120CDD4066
:104A20000302C953EAC39416400302CB1590819840
:104A3000780A120F009008FF780A120CDD4003027A
:104A4000CB039008FB780A120F009008F3780A1243
:104A50000CDD500A9008FB780A120F008072900853
:104A6000F3780A120F009008FB8068780A790E121A
:104A70000CCD5010740212107B12CD4D120CDD4083
:104A80001F02C953780E790A120CCD400302C95394
:104A9000740212107B12CD4D120CED500302C9535B
:104AA000EAC39416506F908198780A120F00740E22
:104AB00012107B780A120CDD50499008F3780E1220
:104AC0000CDD5023850E0A850F0B85100C85110D0A
:104AD0009008F3780A120E9B7583817582A0780A7C
:104AE000120CED4030801C9008F3780A120F007809
:104AF0000A790E120E877583817582A0780A120CCE
:104B0000ED4012900907E0F8740828F58274091244
:104B1000D142E004F090090DE402C9589008FB78F6
:104B20000E120F0F740A12107B12CD3412234F9005
:104B30000907E02402F0C39403500302CBC8E0F855
:104B4000740828F874093400F9E824FF12CCF790AF
:104B5000090EF0E824FE12CCF790090FF0E824FDCE
:104B600012CCF7900910F0E824FC12CCF790091150
:104B7000F090090EE0F890090FE0FAE82AF8E43422
:104B800000F990091012CD1690091112CD16C3E844
:104B90009404E99400A2D265D0334016900910E045
:104BA000F990090FE0F890090EE028292A90090CE5
:104BB000800490090CE4F0FA790212272790090783
:104BC000E4F090090812B457740812107B12CD3427
:104BD00012234F7E008E8285820A750B009004910D
:104BE000E0250AF8E43400F9E875F006A4F8AAF024
:104BF00075F006E9A42AF9749328FC740439FD744D
:104C000003780A12101D74A3250AF87407350BF9EE
:104C1000880E890FEC24C6F582ED34FF12CD2033C7
:104C200095E0FAFB850E82850F83880A890B8A0C32
:104C30008B0D780A120F0FEC24C8F582ED34FFF5C6
:104C40008312CD343395E0FC850E82850F83A3A3B8
:104C5000A3A312CD7FA3ECF0A3F00EEEC3940A50F1
:104C60000302CBD5900912E004F0C39419500C90C4
:104C7000090CE0F8900913E028806FE4F090091324
:104C8000E070669009587401F07A81791D12251D33
:104C9000740412107B742AF0740512107BE4F07413
:104CA0000412107BAA82AB837902122529740412A4
:104CB000107B742DF0740512107B7404F012107BBD
:104CC000AA82AB837902122529740412107B742AFC
:104CD000F0740512107B7469F0740412107BAA82C0
:104CE000AB8379021225298002E4F07901742E1237
:104CF00010467F10021159F582E934FFF583E02256
:104D000012D13F780A2212D13F781222E0FD888228
:104D10008983A3A3A322E0FAE82AF8E93400F92260
:104D2000F583E0F8A3E0F922E02404F8A3E03400DE
:104D3000F9740222E0FAA3E0FB22851A82851B8324
:104D400012CD4422E0F8A3E0F58388822212CD44FC
:104D5000780E22F582EB34FFF583E0F50AA3E0F547
:104D60000B3395E0F50CF50D8C828D832212CD442A
:104D7000780A22851A82851B83E0F8A3E0C822EA1C
:104D8000F0A3EBF022F0A3EDF088828983A3A322A5
:104D900074E812108774ED12103089188A1974FFA4
:104DA0002518FE1223258A0A8B0B8C0C8D0D780A90
:104DB000121296740412107BAA82AB8312232B74F6
:104DC00004121046740265187007740112107BE417
:104DD000F0851A82851B83E4F0EE75F00EA4F8A925
:104DE000F0742428FE740939FFEE240BF516EF3415
:104DF00000F517EE2407F50CEF3400F50D85198248
:104E000085820A850C82F583780E120F00E50E4527
:104E10000F451045117032851A82851B83EEFCEF19
:104E2000FD7407120F43EEFAEFFB122337850C8255
:104E3000850D83120F2A851682851783E50AF0A354
:104E4000E412CFE6E51802CFD68E828F83A3A3A308
:104E5000A3A312CD22740512107BE0687003A3E0B7
:104E60006970498E828F83A3A3A3A3E0F874041210
:104E7000107BE06870368E828F83A3A3A3E0F87462
:104E80000312107BE06870248E828F83A3E0F87495
:104E90000112107BE06870148E828F83A3A3E0F868
:104EA000740212107BE068700302CFC87A817950D7
:104EB00012251D900923E0C0E0740712107BD0E09A
:104EC000F0900922E0C0E0740812107BD0E0F08579
:104ED0000C82850D83780E120F00740912107BE589
:104EE0000EF0740A12107BE50FF0850E12F5138593
:104EF000101485111574107812120E16740B1210FE
:104F00007BE512F07418780E120E16740C12107BDA
:104F1000E50EF085168285178312CD22740D1210CE
:104F20007BE8F0740E12107BE912CFE6E0C0E0746B
:104F30000F12107BD0E0F090091EE0C0E074101258
:104F4000107BD0E0F0740712107BAA82AB83790A41
:104F500012252912253590092212D16C400790099B
:104F600022E4F0A3F090092212CD22900920E068FB
:104F70007003A3E069700690092012CFDC12271598
:104F8000741112107B12CD7F741112107BAC82ADA4
:104F9000837A0279041225AD851A82851B83EEFC83
:104FA000EFFD7407120F43EEFAEFFB122337850C67
:104FB00082850D83120F2A851682851783E50AF0F4
:104FC000A3E4F0122733800F851682851783E0252E
:104FD0000AF0A3E03400F0741302CCEFE02408F0F0
:104FE000A3E03400F022F0EE240DF582EF12D1425E
:104FF0002274F012108774F612103090091DE064CC
:1050000005600B9009537463F0790002D1357A8101
:10501000795012251D12D15E7003A3E06960539090
:105020000921E0851A82851B83F0900920E0C0E009
:10503000740112107BD0E012C237122529740212BB
:10504000107BAA82AB83790812252390092012D104
:105050006C4007900920E4F0A3F0740212107BACBE
:1050600082AD837A0879051225AD12273390095352
:10507000E4F012D15E7003A3E069600302D1331241
:10508000D152742428FA740912D147A3A3A3780E2D
:10509000120F00740212107BE50EF0850F0BE50B6A
:1050A000F50A740312107BE50AF0850E0A85100CD0
:1050B00085110D7410780A120E16740412107BE517
:1050C0000AF07418780E120E16740512107BE50E95
:1050D000F0EA240BF582EB340012CD207406121096
:1050E0007BE8F0740712107BE9F0EA240DF582EBFF
:1050F00012D142E0C0E0740812107BD0E0F09009B9
:105100001EE0C0E0740912107BD0E0F074021210AF
:105110007BAC82AD837A0879051225AD12D1527429
:105120002F28F582740939F583E4F0A3F090095330
:10513000E004F07901740A1210467F08021159F553
:1051400082E83400F5832239FB8A828B83A3A3A3F0
:10515000A322900953E075F00EA4F8A9F02290095B
:1051600020E0F8A3E0F9900922E0682212CFDCC326
:10517000947D22C082C08374FA1210307A817950F3
:1051800012251D851A82851B83AC82AD83758381B0
:105190007582487406120F43900920E0C0E0740243
:1051A00012107BD0E0F0900921E0C0E074031210EF
:1051B0007BD0E0F0900922E0C0E0740412107BD0B4
:1051C000E0F0900923E0C0E0740512107BD0E012FB
:1051D000D1DF7906122529122535740602C0A512E1
:1051E000D1E322F0851A82851B83AA82AB832278C1
:1051F0000079008008E8240108E93400F9C3E89A3E
:10520000E99B40F1020CA074F61210878A0A8B0BFE
:105210007E007F00800F7AE87B03122739EE24019D
:105220000EEF3400FFC3EE950AEF950B40E802C085
:10523000FA74F61210878A0A8B0B7E007F008016A4
:105240007A687B011227397A017B0012273FEE240E
:10525000010EEF3400FFC3EE950AEF950B40E1021B
:10526000C0FAC082C08374FC121030740112107B2B
:1052700012C22B12253B851A82851B83AA82AB831F
:105280007901122541740212107B12D2925440020D
:10529000C08B7444F0851A82851B83E022C082C0D3
:1052A0008374FC121030740112107B12C22B122571
:1052B0003B851A82851B83AA82AB83790112254123
:1052C000851A82851B83E054F0F0740212107B1261
