:020000040000FA
:10080000F878FFFF0000007C41414141FFFFFFFFFE
:10081000FFFFFFFFFFFFFFFFFFFFFFFFFFFFFFFFE8
:10082000000102030405060708090A0BFFFFFFFF8A
:10083000020C87021B67FFFFFFFFFFFFFFFFFFFFA9
:10084000FFFFFFFFFFFFFFFFFFFFFFFFFFFFFFFFB8
:10085000FFFFFFFFFFFFFFFFFFFFFF021429FFFF66
:10086000FFFFFFFFFFFFFFFFFFFFFFFFFFFFFFFF98
:10087000FFFFFFFFFFFFFFFFFFFFFFFFFFFFFFFF88
:10088000FFFFFF021BDAFFFFFFFFFFFFFFFFFFFF7E
:10089000FFFFFFFFFFFFFFFFFFFFFF0213E2FFFF6E
:1008A000FFFFFFFFFFFFFFFFFFFFFF02140BFFFF34
:1008B000FFFFFF0219D301FFFF2C019901129904D8
:1008C0000102F281010000C98102EC810100001DDA
:1008D0000E02FA810100001E0E02E681030000A94B
:1008E0000202D8810100001F0E01E803053F100A33
:1008F000024669726D7761726500000000000000B9
:1009000000001A446F2053796E630000000000005D
:1009100000000000084150502053657420436C6F64
:10092000636B000000000841505020536574205450
:10093000696D657A6F6E650008415050205365748B
:100940002053797341637400000012010044617404
:100950006120486561646572000000000000124477
:1009600061746120426F64790000000000000000A3
:1009700002F281010000C08102EC81010000500EF2
:1009800002D481010000A60302E881010000510E9B
:1009900002EC81010000620E02D281030000A80374
:1009A00002E681030000B00302E881010000630E4B
:1009B00002EC81010000740E02CC81020000B6033B
:1009C00002E881010000750E02EC81010000860E34
:1009D00002DE81020000BA0302E881010000870EF6
:1009E00002EC81010000AA0E02F081030000AB0EB0
:1009F00002E681030000BC0302E881010000AD0EA5
:100A000002EC81010000BE0E02FE81030000C20361
:100A100002E681030000CA0302E881010000BF0E64
:100A200002EC81010000980E02EA81020000BB0383
:100A300002E881010000990E1C02F2810100000908
:100A40008102EC81010000980F105080020000D05C
:100A50000302E681030000D20302E881010000F2F4
:100A60008002EC81010000980F106080020000D12C
:100A70000302E681030000D80302E881010000FFC1
:100A800080FFFFFF00013075030201060000000037
:100A90000000000000000000000000000000000056
:100AA0000000000000000000FFFF0600800CE803CB
:100AB0002C010E1F4A7FAABA99CACA780A094C317A
:100AC0002D30303030303005122003B004020A00DF
:100AD000020106070200230F18C0FF4C312D3030F1
:100AE000303030300DC4090000F1260000FD26FF33
:100AF0000000B4000028002800283075A000A000E5
:100B0000A000A00000080008E001F00010001000A4
:100B10001000100010001000500050005000100095
:100B20001000D0070000000000000F0001000500C9
:100B3000307507001000010081FF00000000FF6118
:100B4000297F296729FF02020208025000A0000045
:100B500000E80302F281010000C68102EC8101007D
:100B600000A61002E4810100008A0902EC81010064
:100B700000A71002E281010000A00902EC8101003F
:100B800000A81002E081010000A20902EC8101002E
:100B900000A91002F881080000A30902EC810100FD
:100BA00000AA1002DC81010000AB10FF0100FF2051
:100BB00002F281010000C38102EC810100000F11EB
:100BC00002DA81000000000002E681030000F00963
:100BD000312F312F312F312F312F312F312F312F15
:100BE000312F312F312F312F312FC531DD31BF3131
:100BF000E5C754F84405F5C779012200000080FBE1
:100C0000120BF0B90003020C71E479217808B800E6
:100C1000028004F709D8FCE479297802B800028040
:100C200004F709D8FCE49002807898790C8002F0EF
:100C3000A3D8FCD9FA781C9008B67A01BA000280D1
:100C400007E493A3F608DAF9900E17AA82AB839013
:100C500008B7783A79048015E493A3AC82AD838A0F
:100C6000828B83F0A3AA82AB838C828D83D8E9D94F
:100C7000E77582E87583C87407120C997582FB7555
:100C8000830B7400120C9975D00075813F751A8022
:100C9000751B02759F00020C00C09FF59FE473D086
:100CA0009F22D083D082C09FE493C0E0740193C0A0
:100CB000E0740293F59F22E066701008A3E066706E
:100CC0000A08A3E066700408A3E06622C3E796085A
:100CD00009E7960809E7960809E79622C3E096080F
:100CE000A3E09608A3E09608A3E09622C00AC3E01A
:100CF00096F50A08A3E096420A08A3E096420A087D
:100D0000A3E096450A7001D3D00A22080808EAC079
:100D1000E0EBC0E086F0E7A4FA180986F0E7A42A21
:100D2000FA180986F0E7A42AFA180986F0E7A42A37
:100D3000FA1986F0E7A4FBE5F02AFA190886F0E72D
:100D4000A42BFBE5F03AFA190886F0E7A42BFBE5A3
:100D5000F03AFA18180986F0E7A4C5F02BFBE43A3C
:100D6000FA1908E7C5F0C6A426F6E5F03BFBE43A1D
:100D7000FA1886F0E7A4F6E5F00826F6E43B08F654
:100D8000E43A08F6D0E0FBD0E0FA22E4CFC0E0E499
:100D9000CEC0E0E4CDC0E0E4CCC0E075F020C3E616
:100DA00033F608E633F608E633F608E633F61818A5
:100DB00018EC33FCED33FDEE33FEEF33FFC3EC975D
:100DC00009ED9709EE9709EF97191919400FFFECF4
:100DD00097FC09ED97FD09EE97FE191906D5F0BEAF
:100DE000ECF709EDF709EEF709EFF7191919D0E05B
:100DF000FCD0E0FDD0E0FED0E0FF2260170808083C
:100E0000C6A2E713C618C613C618C613C618C6135B
:100E1000C6D5E0E9226016080808C6C313C618C67E
:100E200013C618C613C618C613C6D5E0EA22700941
:100E3000080808226016181818C6C333C608C63337
:100E4000C608C633C608C633C6D5E0EA22E627F68A
:100E50000809E637F60809E637F60809E637F62204
:100E6000E026F608A3E036F608A3E036F608A3E08D
:100E700036F622E026F008A3E036F008A3E036F0CC
:100E800008A3E036F022C3E697F60809E697F608CD
:100E900009E697F60809E697F622C3E0C696F60833
:100EA000A3E0C696F608A3E0C696F608A3E0C696A9
:100EB000F622C3E096F008A3E096F008A3E096F0CF
:100EC00008A3E096F022E657F60809E657F6080967
:100ED000E657F60809E657F622E056F608A3E0566C
:100EE000F608A3E056F608A3E056F622E056F0080E
:100EF000A3E056F008A3E056F008A3E056F022E085
:100F0000F608A3E0F608A3E0F608A3E0F622E6F070
:100F100008A3E6F008A3E6F008A3E6F022E0FAA3AF
:100F2000E0FBA3E0FCA3E0FD22EAF0A3EBF0A3ECDE
:100F3000F0A3EDF022CAC0E0E6F0A308DAFAD0E0B0
:100F4000FA22CAC0E0E0A3C582CCC582C583CDC564
:100F500083F0A3C582CCC582C583CDC583DAE6D034
:100F6000E0CA22C3E498F8E499F9120FA48026C3DA
:100F7000E49AFAE49BFBE920E7E9120FA4E498F86D
:100F8000E499F922C3E498F8E499F9120FA4E498DB
:100F9000F8E499F9C3E49AFAE49BFB22EB20E7CF4B
:100FA000E920E7E0B90010BB0008E88AF084F8AA5D
:100FB000F022E4FBC8FA22EB70227B10C833C8C9C8
:100FC00033C9335007C39AC3DBF280069A50012A13
:100FD000DBEAC833F4C8C933F4C9FA2275F008E46F
:100FE000C833C8C933C933C99AC99B5004C92AC96F
:100FF0003BD5F0ECFBC833F4C8E4C9FA22600D0815
:10100000C6A2E713C618C613C6D5E0F322600C08C3
:10101000C6C313C618C613C6D5E0F42270042260F6
:101020000D18C6C333C608C633C6D5E0F41822254A
:101030001A10AF08F51A4002151B8008F51A400275
:10104000151BD2AF22C0D0251A10AF08F51A5002D6
:10105000051B8008F51A5002051BD2AFD0D02225FF
:101060001AF58210AF08F51A4002151B8008F51A10
:101070004002151BD2AF851B8322251AF582E43569
:101080001BF58322E473251AC582C0E0E51B34FFFB
:10109000C583C0E0E51AC3958224F810AF088583A4
:1010A0001B85821A800885831B85821AD2AFCEF0F9
:1010B000A3E520F0A3780AE608F0A3DEFAEFF0A398
:1010C000E58124FAF8E608F0A3E608F0A3E608F0C4
:1010D000A30808E608F0A3E608F0A315811581D05F
:1010E000E0FED0E0F8158115811581E8C0E0EEC082
:1010F000E022251AC582C0E0E51B34FFC583C0E0AD
:10110000E51AC3958224F910AF0885831B85821ADE
:10111000800885831B85821AD2AFCEF0A3E520F02C
:10112000A3780AE608F0A3DEFAEFF0A3E58124FB3A
:10113000F8E608F0A3E608F0A30808E608F0A3E63E
:1011400008F0A315811581D0E0FED0E0F8158115D7
:1011500081E8C0E0EEC0E022851B83851A82E0A30F
:10116000FEE0A3F520780AE0A3F608DFFAE0A3FF8B
:10117000E0A3C0E0E0A3C0E0E0A3C0E0E0A3C0E0E3
:10118000E0A3C0E010AF0885821A85831B80088524
:10119000821A85831BD2AFD083D082020C9F851B1D
:1011A00083851A82E0A3FEE0A3F520780AE0A3F687
:1011B00008DFFAE0A3FFE0A3C0E0E0A3C0E0E0A303
:1011C000C0E0E0A3C0E010AF0885821A85831B80D1
:1011D0000885821A85831BD2AFD083D08222C0D0EB
:1011E000251AC582C0E0E51B34FFC583C0E0E51ABF
:1011F000C3958224F310AF0885831B85821A80086B
:1012000085831B85821AD2AFC8F0A3E9F0A3EAF068
:10121000A3EBF0A3790AE709F0A3D8FAECF0A3ED69
:10122000F0A3EEF0A3EFF0A3D0E0F0A3D0E0F0A3A2
:10123000D0E0F0A3E520F0A3E5F0F0A322851B8326
:10124000851A82E0C0E0A3E0F9A3E0FAA3E0FBA3E3
:10125000780AE0F608A3DFFAE0FCA3E0FDA3E0FED5
:10126000A3E0FFA3E0C0E0A3E0C0E0A3E0F5D0A3CB
:10127000E0F520A3E0A3F5F010AF0885831B85827D
:101280001A800885831B85821AD2AFD082D083D082
:10129000E0F8D0E03274048006740280027401C069
:1012A000E0F40412105FD0E0120F352274048004C1
:1012B00074028000CCC0E0EDC0E0E51AC39CCCAD68
:1012C0001B50011D10AF068C1A8D1B80068C1A8DC9
:1012D0001BD2AF120F42D0E0FDD0E0FC22D083D071
:1012E00082E9C0E0E493A3C386F0C5F095F0F90865
:1012F000E493A386F0C5F095F0700BE493A3C39933
:101300004005E9048002A3E475F002A42582F58279
:10131000E5F03583F583D0E0F9E493A3C0E0E493EE
:10132000C0E022D083D082ECC0E0EDC0E0E493A323
:10133000FCE493A3FDED4C600D12136FEC24FFFC55
:10134000ED34FFFD80EFE493A3FCE493A3FDED4CAB
:10135000600D1213AEEC24FFFCED34FFFD80EFD0E6
:10136000E0FDD0E0FCE493A3C0E0E493C0E022C041
:10137000E0C3E49396087401939618400FE49366D3
:10138000700808740193661870007019A3A3C3E471
:101390009396087401939618A3A3400DD0E0D0E073
:1013A000D0E002135FA3A3A3A3A3A3D0E022C0E0D5
:1013B000C0F088F0E49366700808740193661870B2
:1013C00000A8F0A3A3700BD0F0D0E0D0E0D0E002F2
:1013D000135FA3A3D0F0D0E022FFFFFFC2AF020053
:1013E0000022C0E074F21211DEA2AFE433FED2AFED
:1013F000E589A2E3500312255F758900C2C5751CFB
:1014000000EEA2E092AF7F0102123DC0E074F21242
:1014100011DEA2AFE433FED2AFE58AA2E25003129E
:10142000255F758A00C2EB80D5C0E0C0D0E8C0E07F
:10143000E9C0E0E5A8D2AFC2C7751C00A2E7A2E7E9
:1014400092AFD0E0F9D0E0F8D0D0D0E03274F5120D
:1014500010F2EAFEEBFFEE2434F8EF3400F9880ACC
:10146000890BEE2435F582EF3400F583E0F8EE24A5
:1014700037F582EF3400F583E0F50CEC850CF0A431
:10148000FCAAF0850CF0EDA42AFDE82CF8E43DF967
:101490007A257B00120FA4EA850A82850B83F0F877
:1014A000740758F97401B900028004C333D9FCFAF7
:1014B000E8131313541FF8EE28F8EF3400F9E8246A
:1014C0005DF582E93400F583E05A6008EE2434F5D6
:1014D00082EF802CEE2434F582EF3400F583E0C0F7
:1014E000E0EE2436F582EF3400F583E0F5F0D0E04D
:1014F00084A8F0EE28F8EF3400F9E82438F582E902
:101500003400F583E0F97F0402119E74F51210F2A5
:10151000EAFEEBFFEE2434F582EF3400F583E0C001
:10152000E0EE2435F582EF3400F583D0E0F08E82D2
:101530008F83A3A3A3A3A3A3A3C082C0838E828F00
:1015400083A3A3A3A3A3E0F8A3E0F9D083D082E010
:10155000C398F50AA3E099F50BEE247FF582EF34EA
:1015600000F583E064017069EE2480F582EF3400B9
:10157000F583E0F8A3E0F98E828F83A3A3A3A3A34E
:10158000A3A3E0FCA3E0FD8E828F83A3A3A3A3A368
:10159000E0FAA3E0FBC3EA9CEB9D5010C3EC98ED8E
:1015A00099402EC3EA98EB995027800EC3EA98EB36
:1015B000994007C3EC98ED9940177CB37D0BEEFA88
:1015C000EFFB122E8FEE247FF582EF3400F583E4DB
:1015D000F0EE2434F8EF3400F9E8FCE9FDEE2435B0
:1015E000F582EF3400F583E0F8EE2437F582EF342E
:1015F00000F583E0F50CE50A850CF0A4F50AAAF0E5
:10160000850CF0E50BA42AF50BE8250AF8E4350B68
:10161000F97A257B00120FA4EA8C828D83F0F8748E
:101620000758F97401B900028004C333D9FCFAE801
:10163000131313541FF8EE28F8EF3400F9E8245D73
:10164000F582E93400F583E05A6008EE2434F5822F
:10165000EF802CEE2434F582EF3400F583E0C0E017
:10166000EE2436F582EF3400F583E0F5F0D0E08427
:10167000A8F0EE28F8EF3400F9E82438F582E934D0
:1016800000F583E0F9122287021506C082C0838527
:101690001A82851B83E0F8A3E0F9C3EA9CEB9D5016
:1016A00010C3EC98ED99401BC3EA98EB9950148055
:1016B0000EC3EA98EB994007C3EC98ED9940047982
:1016C0000180027900D083D08222EAC39CFAEB9D8C
:1016D000FB2274EF1210F2900A79E064086005E0D2
:1016E0006407702A9061C8E06024900AA7E0F46063
:1016F0001DE0F875F003A4C8AAF02AF974A928FE21
:10170000740A39FF8E828F83A3A3A3E070030218AB
:1017100002906060E0C0E0EE2468F582EF3400F5EE
:1017200083D0E0F0750E1C750F0C750A00750B0068
:10173000E5D914F50CE5D95403F510601774036569
:1017400010605CE50C6010EE2467F582EF3400F564
:1017500083E070030217E7900C17E06401602AEE43
:101760002482F582EF3400F583E06004780480027F
:101770007800850C0AE50AC398FA95E0FB122D570C
:101780008A0A8B0BEA450B70051230938074EE24A5
:1017900082F582EF3400F583E070048A0E8B0FE54A
:1017A0000C6012850E82850F83F50DE5D9F0A31527
:1017B0000DE50D70F6EE2482F582EF3400F583E03E
:1017C000604474FC250CF50C780E121299AC0CA92F
:1017D00010EEFAEFFB122F2B7402121045E970265F
:1017E000AA0AAB0B12261F793D8E828F83A3A3A377
:1017F000A3E0FA7B00122C2BEEFAEFFB122EA712BD
:101800002F3D79008074740365106056850C127545
:1018100013007812121299AC0EAD0FAA0AAB0B127C
:101820002F077402121045EE2468F582EF3400F59C
:1018300083E064807004747F8001E0F50E780E12FE
:10184000129DE510F50E780E12129DA90CAC0AAD92
:101850000B900AA7E0FA7B00122BEF7402121045DE
:101860008013900A79E06408600BAC0EAD0FEEFABD
:10187000EFFB122F9712309F79017F0A02119E749D
:10188000F51210F274FC12102FEAFEEBFF890AA287
:10189000AFE433F50BC2AF806AEE2463F8EF340097
:1018A000F97A007B00A2AFE433F50CC2AF888289DD
:1018B00083E0FCA3E0FDEC4D603A88828983E0FA86
:1018C000A3E0FB8A828B83E0FCA3E0FD888289830E
:1018D000ECF0A3EDF08A828B83E4F0A3F088828998
:1018E00083E0FCA3E0FDEC4D700A88828983A3A30A
:1018F000E4F0A3F0E50CA2E092AF12261F900BBA21
:10190000E004F0EE2463F582EF3400F583E0F8A301
:10191000E0F9E849603DEE2463F582EF3400F58399
:10192000E02402FAA3E03400FBEA2402F50CEB34D5
:1019300000F50D780C1212998A828B83E0FCA3E0EB
:10194000F9EEFAEFFB122ECB7402121045E9700388
:10195000021899900BBAE06063900BBBE0F8900B13
:10196000BAE0C398500C7402650A7050900BBCE04A
:10197000604A8E828F83A3A3A3A3E0851A82851B6E
:1019800083F0A3E4F0900BBAE0F8740212107AE846
:10199000F0A3E4F0900BBAE0F8900BB9E028F074F3
:1019A0000212107AAC82AD83851A82851B83AA82CB
:1019B000AB837901122BFB900BBAE4F0E50BA2E0AC
:1019C00092AF7404121045021506FFFF852187852A
:1019D00022C622C0E0C0D0E8C0E0E9C0E0EAC0E032
:1019E000EBC0E0ECC0E0EDC0E0EEC0E0C00AC00B30
:1019F000C00CC00DC082C083C0F0A2AFE433FEC2F1
:101A0000AF759B00906182E0A2E05012E591A2E0E8
:101A1000500C7591FE7401652170031216D2E0A27C
:101A2000E55051E591A2E5504B7591DF900A79E0C0
:101A300064076005E06408702374016521703579DE
:101A400001900AA7E0FA75F003A4CAA8F028FB7475
:101A5000A92AFA740A3BFB12187F8018E0640D7003
:101A600013900A9BE004F064287002E4F07A00E02E
:101A7000F91230A5906182E0A2E64003021B1AE54C
:101A800091A2E64003021B1A7591BF900A79E064A7
:101A9000057008122FCD122FD98003122FD3752174
:101AA00000123033E9900A7AF07900123027122EB2
:101AB000057A017B00900A78E0F91222EF90780312
:101AC000E064427055900C1BE014F0704DC2AF12F0
:101AD0001AD200782AD0E0F618D0E0F6E59F540735
:101AE0007005750BFF8003750B7FC4C0E07829E695
:101AF000F50A08E6550BF50B740B780A12100DD099
:101B0000E0250AF8906270E0A2E740F8E8C333905D
:101B10006272F0906270E0D2E0F0906181E0A2E346
:101B20005009E5E9A2E3500375E9F7A3E0A2E75005
:101B300009E591A2E7500375917FEEA2E092AFD044
:101B4000F0D083D082D00DD00CD00BD00AD0E0FEE4
:101B5000D0E0FDD0E0FCD0E0FBD0E0FAD0E0F9D05E
:101B6000E0F8D0D0D0E032C0E0C0D0C082C08390D6
:101B70006183E0A2E05009E5BFA2E0500375BFFE1B
:101B8000E0A2E15009E5BFA2E1500375BFFDE0A26C
:101B9000E25009E5BFA2E2500375BFFBE0A2E350AB
:101BA00009E5BFA2E3500375BFF7E0A2E45009E5E1
:101BB000BFA2E4500375BFEFE0A2E55009E5BFA264
:101BC000E5500375BFDFE0A2E65009E5BFA2E6508D
:101BD0000375BFBFD083D0828088C0E0C0D0E8C08A
:101BE000E0E9C0E0EAC0E0EBC0E0ECC0E0EDC0E05E
:101BF000C0F0E5A7A2E6500FE5A1A2E6500953A761
:101C0000BF75A1BF121C3FE5A7A2E5500CE5A1A23C
:101C1000E5500653A7DF75A1DFE5A7A2E15009E56E
:101C2000A1A2E1500375A1FDE5A7A2E2500CE5A138
:101C3000A2E2500653A7FB75A1FBD0F0021B507423
:101C4000F81210F2752101900A79E06406701512FD
:101C50002F5B8A828B83A3A3A3A3A3A3E0FAA3E0B1
:101C6000FB122FBBA2AFE433FED2AF900A7FE06439
:101C70000170187A207B00900A78E0F91223977A95
:101C8000207B00900A78E0F91222F5906182E0D280
:101C9000E6F0900C18E0602185C6228016900A7E3E
:101CA000E064017008E5C654F84405F5C653BEFC6F
:101CB0001219CC7401652160E4EEA2E092AF7F01BD
:101CC00002119EFF8E238F24858228858327851A03
:101CD00082851B83E0CEA3E0CF852882852783EB16
:101CE000C9EAC8EDCBECCA75F010C3E833C8E933D4
:101CF000C9EA33CAEB33CBC3EA9EF526EB9FF52541
:101D0000B35004AB25AA26EC33CCED33CDD5F0DAB5
:101D1000AE23AF242274E91210F274F812102F854A
:101D20001A82851B83ECF0A3EDF08A0A8B0B900AD4
:101D300079E024F7C394055006750A01021EAC121F
:101D40002F5B8A0C8B0DAE0CAF0DEE4F7003021E95
:101D5000A9AC0AAD0B740212107AAA82AB83122FBF
:101D6000EB8E828F83A3A3750EFF750FFF7510FF97
:101D7000751100780E120ED9740212107A7512FFC6
:101D80007513FF7514FF7515007812120ED9780EB1
:101D90007912120CCC502A780E7912120E86750A1E
:101DA00001750BC8750C00750D00780A790E120CC0
:101DB000CC5052850E0A850F0B85100C85110D80B5
:101DC000507516017517C875180075190085120A27
:101DD00085130B85140C85150D780A790E120E8665
:101DE0007816790A120CCC401C750A00750B007528
:101DF0000C00750D01780A7912120E86780A790E98
:101E0000120E4D800C750A01750B00750C00750DD6
:101E1000007409780A120E2E750E19F50FF510F5DB
:101E200011780A790E120D8B8E828F83A3A3A3A340
:101E3000A3A3E0F8A3E0F97AD07B03120FA4880EE5
:101E4000890FE4F510F511780A790E120E4D74061B
:101E500012107AE0F8A3E0F97AD07B03120FA4E81D
:101E6000FA8A0EE4F50F780A790E120CCC50077836
:101E70000A790E120E86900A79E06408600AE0641E
:101E8000066005E06405702D750E0D780E790A1256
:101E90000CCC4021750EF4750FFF7510FF7511FF06
:101EA000780A790E120E4D800C750A00750B0075BC
:101EB0000C00750D00851A82851B83E0F8A3E0F500
:101EC000838882780A120F0E74081210457F100260
:101ED000119E74F71210F2122FFD900C16E064019F
:101EE0007010906245E4F0A3F053F4F343FE0C53FA
:101EF00090F3122FA9E5C654804449F5C6E59E54D7
:101F00007F644970F8906185740FF0900C14E0F4D0
:101F10007002A3E0604E900C15E0600814601B1482
:101F2000602E8040750A01750B00900C14E0780A51
:101F300012101CE50AF45280802A750A01750B0004
:101F4000900C14E0780A12101CE50AF452908014E8
:101F5000750A01750B00900C14E0780A12101CE54C
:101F60000AF452A079007F0202119E74F71210F257
:101F7000E9FEEAFF74016E700C7A807B00900A78AB
:101F8000E0F91222EF9032B0E493F46008E493F9A0
:101F9000122DF9800953C680E59E547F70FA122FE6
:101FA000AF900C16E064017003122E11900C14E037
:101FB000F47002A3E0604B900C15E0600814601A06
:101FC00014602C803D750A01750B00900C14E078AC
:101FD0000A12101CE50A42808028750A01750B0060
:101FE000900C14E0780A12101CE50A4290801375D8
:101FF0000A01750B00900C14E0780A12101CE50A17
:1020000042A0122FFD122F5B8A0A8B0BA80AA90B84
:10201000E8496015E5E170FCE82414F582E9340034
:10202000F583E0F46003E0F5E174016F700A7A0172
:10203000900A78E0F9122361021F6674ED1210F223
:102040008A0A8B0B8C0C8D0D741312107A780E1279
:102050000EFF780A790E120CCC7512017513C87533
:1020600014007515005012780A790E120E86781237
:10207000790A120CCC50168010780E790A120E864E
:102080007812790E120CCC40047901800279007F1D
:102090000C02119E74ED1210F28A0A8B0B8C0C8DBF
:1020A0000D741312107A780E120EFF780E790A1240
:1020B0000CCC4011780A790E120E86AA0AAB0BAC32
:1020C0000CAD0D8022751200751300751400751586
:1020D000017812790E120E867812790A120E4DAA24
:1020E00012AB13AC14AD1580A68A828B83750AFFE0
:1020F000750BFF750CFF750D00780A120EEC7F044E
:1021000002119E74F51210F28C828D83780A120EE1
:10211000FF8A828B83780A120EB2EA2404F8EB3429
:1021200000F98C828D83A3A3A3A3E0FCA3E0FD8828
:10213000828983C3E09CF0A3E09DF088828983C3F9
:10214000E09420A3E0944E40268A828B83750AFF98
:10215000750BFF750CFF750DFF780A120E738A82DE
:102160008B83A3A3A3A3E02420F0A3E0344EF002CA
:1021700020E974F51210F2E9FE900BCEE0FAA3E02C
:10218000FBEEC333F8E433F974B228F58274803976
:10219000F583E02AF50AA3E03BF50B780A121299C1
:1021A0007A407B427C0F7D00121CC47402121045E1
:1021B0008A0A8B0B8C0C8D0D7410780A120E15AADE
:1021C0000AAB0B7F0402119E74F11210F28A0E8B7F
:1021D0000F8C108D11740F12107AE0FAA3E0FB74CB
:1021E0001112107AE0F50AA3E0F50B780A121299A1
:1021F000EA2401F50AEB3400F50BE4F50CF50D7853
:102200000E790A120D0B750A71750B02780E790A98
:10221000120D0BAA0EAB0FAC10AD11121CC4740240
:102220001210458B0BEA450B60047A0180027A009C
:10223000EC2AFCED3400FD741312107AE0F8A3E0F0
:10224000F9E8FEE9FFECF8EDF97A717B02120FA4D0
:10225000880A890B8E828F83780A120F0EECF8EDB4
:10226000F97A717B02120FA48A0A8B0B7405780A23
:1022700012101C8E828F83A3A3A3A3E50AF0A3E50B
:102280000BF07F0802119EC082C083E9906000F0CD
:10229000D083D08222120CA245F806120CA24FF86D
:1022A00006120CA28DF806120CA2D6F806120CA289
:1022B00010F906120CA26AF906120CA28BF906128A
:1022C0000CA294F906120CA2E1F906120CA20AFA69
:1022D00006120CA214FA06120CA280FA06120CA224
:1022E00012FB06120CA25CFB06120CA292FB061259
:1022F0000CA21EFC06120CA25FFC06120CA296FC9D
:1023000006120CA2A8FC06120CA2C7FC06120CA214
:10231000D0FC06120CA29DFD06120CA2E793071238
:102320000CA2DE9407120CA2F89407120CA20995D5
:1023300007120CA2289707120CA2479707120CA2AB
:10234000CBFD06120CA201FE06120CA237FE0612ED
:102350000CA282FF06120CA2CCC707120CA2E2C785
:1023600007120CA2ECC707120CA236C807120CA267
:102370007DFF05120CA28E9807120CA2A3980712DB
:102380000CA2539907120CA2939907120CA2AC99B4
:1023900007120CA2E79907120CA2349A07120CA29A
:1023A000669A07120CA2A89A07120CA2A99C0712FF
:1023B0000CA295C407120CA2BEC407120CA2EDC455
:1023C00007120CA205C507120CA247C507120CA2E2
:1023D0003CAD07120CA26CAD07120CA27FAD071228
:1023E0000CA2AEAD07120CA2CBAD07120CA260AED0
:1023F00007120CA2F9AE07120CA27FAF07120CA2B3
:10240000BCFF06120CA240C907120CA2099A0512C1
:102410000CA26E9C05120CA20F9E05120CA2C39E6C
:1024200005120CA2569F05120CA2DB9F05120CA2EE
:1024300000A005120CA256A305120CA2DCA30512E3
:102440000CA20FA505120CA249A505120CA27EA58F
:1024500005120CA23EA705120CA29BA705120CA206
:10246000E4A705120CA24FA805120CA2C0A80512E1
:102470000CA2F2A805120CA20AA905120CA253AADA
:1024800005120CA263AA05120CA27EAB05120CA2C7
:10249000A0AB05120CA2D6AB05120CA28AAD051298
:1024A0000CA217AE05120CA256AE05120CA27AAF02
:1024B00005120CA2A1C307120CA2B1C307120CA2F1
:1024C00043C407120CA26AC407120CA28AC40712E2
:1024D0000CA296C907120CA2D5C907120CA2E6FFDE
:1024E00006120CA2F1FF06120CA2F5C907120CA2EB
:1024F00070C507120CA280C507120CA292C5071264
:102500000CA244C607120CA29DC207120CA222C341
:1025100007120CA288C307120CA2ACB707120CA2B8
:10252000D4B707120CA204B807120CA263B80712A2
:102530000CA2B1B807120CA2EBB807120CA21FB97B
:1025400007120CA27BB907120CA24BC007120CA2F7
:1025500075C007120CA2D8C007120CA2EAC007125D
:102560000CA23AC107120CA278C107120CA27BC1BF
:1025700007120CA2DFC907120CA2EFC907120CA2A6
:10258000F2C907120CA2F83F00120CA222B30712E4
:102590000CA2BDB407120CA21EB507120CA264B5A2
:1025A00007120CA2008007120CA23A8007120CA29C
:1025B000578007120CA2538107120CA2F081071258
:1025C0000CA2DD8207120CA2238407120CA24884FD
:1025D00007120CA2B18407120CA20C8507120CA2E0
:1025E00088F106120CA2C5F106120CA2E0F1061247
:1025F0000CA2B1F206120CA29FF306120CA207F570
:1026000006120CA279F506120CA261F606120CA2B3
:10261000E8F606120CA201F806120CA24EBD071233
:102620000CA2A0BD07120CA22ABE07120CA291BEDA
:1026300007120CA267B507120CA291B507120CA2E3
:102640005FB607120CA23AB707120CA2A9DA06125B
:102650000CA270DB06120CA2A7DB06120CA2D1DBC7
:1026600006120CA231DC06120CA287DC06120CA2A8
:10267000ECDC06120CA284DD06120CA293DE06121C
:102680000CA22AE006120CA2B7E006120CA21EE170
:1026900006120CA235E106120CA24FE206120CA2A1
:1026A0008DE206120CA29B9C06120CA21CA0061224
:1026B0000CA2A4A106120CA2FBA106120CA21AA243
:1026C00006120CA298A206120CA22EA406120CA2AC
:1026D00013A506120CA221A906120CA2F7A9061234
:1026E0000CA200B004120CA253B404120CA224BB1E
:1026F00004120CA2ADBC04120CA2DDBD04120CA28B
:102700001DBE04120CA2E5BE04120CA225BF0412C9
:102710000CA201C004120CA24CC004120CA29CC05A
:1027200004120CA2DAC104120CA22DCD04120CA2C8
:1027300084CF04120CA210D104120CA28CD104126A
:102740000CA2A4D104120CA2CED104120CA2FFD16F
:1027500004120CA23AD204120CA274D204120CA2DB
:102760008CD304120CA2EFB907120CA206BA0712FE
:102770000CA237BA07120CA272BA07120CA29CBAAA
:1027800007120CA2C6BA07120CA2DDBA07120CA2DD
:10279000F4BA07120CA20BBB07120CA234BB07122F
:1027A0000CA247BB07120CA25DBB07120CA270BBA8
:1027B00007120CA297BB07120CA26FD006120CA234
:1027C00073D106120CA2ABD106120CA2CED1061206
:1027D0000CA2D9D106120CA2FCD106120CA20BD36A
:1027E00006120CA2E0D306120CA25BD406120CA2B5
:1027F000E3D406120CA21ED506120CA255D5061261
:102800000CA2E3D506120CA2BCD606120CA21CD751
:1028100006120CA227D706120CA2A6D706120CA2EB
:10282000A9D706120CA2ACD706120CA23BD80612EE
:102830000CA23ED806120CA26ED806120CA298D892
:1028400006120CA286D906120CA238DA06120CA2C5
:10285000818A07120CA2A98A07120CA2D78A071232
:102860000CA20E8B07120CA26C8B07120CA2B78B5A
:1028700007120CA2028C07120CA2428C07120CA2A7
:10288000888C07120CA2B68C07120CA2738D07124B
:102890000CA27D8D07120CA28A8D07120CA2BD8D91
:1028A00007120CA2898E07120CA2958E07120CA299
:1028B000AD8E07120CA2B78E07120CA24AC60712E1
:1028C0000CA258C607120CA270C607120CA288C62A
:1028D00007120CA223E805120CA2CFE805120CA2E5
:1028E0004AE905120CA26BEA05120CA2A7EA05122E
:1028F0000CA250EB05120CA237EC05120CA29BEDBA
:1029000005120CA2F2ED05120CA273EE05120CA238
:1029100063EF05120CA2B0EF05120CA236F00512FF
:102920000CA268F005120CA27CF205120CA2BEF2F9
:1029300005120CA2DCF205120CA25FF305120CA228
:1029400033F405120CA2FBF405120CA265EA061280
:102950000CA238EB06120CA2E1EB06120CA234EC2E
:1029600006120CA2E4EC06120CA270ED06120CA2E8
:102970005CEE06120CA28BEE06120CA29EEF061263
:102980000CA2E6EF06120CA2BBF006120CA2F7F0A6
:1029900006120CA213F106120CA264C807120CA2B4
:1029A000A3A907120CA2B9A907120CA2DFA907124A
:1029B0000CA2FBAA07120CA205AB07120CA23AACA0
:1029C00007120CA232AD07120CA25A8507120CA2F4
:1029D0008A8607120CA2BD8607120CA2078707126F
:1029E0000CA2CE8807120CA20CED04120CA276EDFC
:1029F00004120CA2D5EE04120CA2E5EE04120CA2F5
:102A000012EF04120CA269EF04120CA212F00412CD
:102A10000CA219F104120CA2E3F104120CA243F36C
:102A200004120CA286F304120CA22BF404120CA2C2
:102A300078F404120CA29EF404120CA2ACF6041258
:102A40000CA2B1F604120CA2B6F804120CA203F9FF
:102A500004120CA276F904120CA2A9F904120CA219
:102A60004BFA04120CA2F4FA04120CA22CFB04126E
:102A70000CA22FFB04120CA277FB04120CA2B7FBD2
:102A800004120CA20EFC04120CA24FB007120CA2EE
:102A900067B007120CA2AFB007120CA2C5B00712A4
:102AA0000CA20CB107120CA220B207120CA2ADB2FC
:102AB00007120CA2F8B207120CA20BD404120CA23B
:102AC00017D404120CA252D404120CA297D40412EC
:102AD0000CA257D504120CA2DDD504120CA242D6CA
:102AE00004120CA26ED604120CA2A7D604120CA2D9
:102AF000E5D804120CA2C9DA04120CA2AFDC04124D
:102B00000CA2F2DD04120CA240E004120CA252E16D
:102B100004120CA29DE204120CA2ADE304120CA25A
:102B2000CAE304120CA205E404120CA227E4041266
:102B30000CA28AE404120CA24BE904120CA2E0E9F4
:102B400004120CA231EA04120CA258EA04120CA2DC
:102B5000AAEA04120CA2C8EA04120CA222EB041284
:102B60000CA221EC04120CA2A5EC04120CA23E8FC4
:102B700007120CA2488F07120CA28B8F07120CA20F
:102B8000A68F07120CA2369007120CA25E900712B5
:102B90000CA29B9007120CA2D29007120CA2FB90E1
:102BA00007120CA2709107120CA2859107120CA2B9
:102BB0009A9107120CA2CB9107120CA2DF91071277
:102BC0000CA2049207120CA23E9207120CA26A9267
:102BD00007120CA2A29207120CA2219307120CA2B8
:102BE0006A9307120CA2949307120CA2BF930712C8
:102BF0000CA284C107120CA26EB806120CA29CB8DB
:102C000006120CA2EAB906120CA2CABA06120CA24B
:102C1000E9BA06120CA266BB06120CA2A9BB0612E8
:102C20000CA2FFBC06120CA2C0BD06120CA247C02B
:102C300006120CA2E8C006120CA2DEC106120CA2FB
:102C4000DBC206120CA235C406120CA2C0C40612C6
:102C50000CA2F0BE07120CA259BF07120CA2ADBF06
:102C600007120CA2D4BF07120CA205C007120CA2B7
:102C70001B9D07120CA2889D07120CA2CF9D071264
:102C80000CA2E79E07120CA2E39F07120CA2C6A09B
:102C900007120CA214F705120CA256F705120CA28B
:102CA00028F805120CA201F905120CA2FBF9051275
:102CB0000CA2DDFA05120CA246FB05120CA2FCFBCD
:102CC00005120CA270FC05120CA2DCFC05120CA271
:102CD00005FD05120CA27FFD05120CA218FE0512BF
:102CE0000CA27DFE05120CA292FE05120CA2D8FECB
:102CF00005120CA2F1FE05120CA256FF05120CA241
:102D000059FF05120CA2FBFC04120CA223FD0412B5
:102D10000CA261FD04120CA21FFE04120CA286FE7E
:102D200004120CA2A2FE04120CA2CAFE04120CA2EF
:102D3000FAFE04120CA209FF04120CA286FF041270
:102D40000CA2ACFF04120CA2C1D805120CA29FDA8F
:102D500005120CA2D1DC05120CA20DDD05120CA28D
:102D60003ADD05120CA224DE05120CA26FDE05125C
:102D70000CA2BADE05120CA2CCDE05120CA20CDFEE
:102D800005120CA241DF05120CA28FDF05120CA266
:102D9000BEDF05120CA2E1DF05120CA22EE0051227
:102DA0000CA2B3E005120CA2CDE205120CA20CE5B8
:102DB00005120CA24DE505120CA2EFE605120CA2BD
:102DC00030E705120CA2A3E705120CA2F9E70512E1
:102DD0000CA2B43200120CA2B23300120CA24B3A75
:102DE00000120CA26C3C00120CA2373E00120CA286
:102DF0009F3F00120CA2018205120CA2B0820512A4
:102E00000CA2DD8205120CA2238305120CA263849E
:102E100005120CA2F98505120CA2738605120CA2EC
:102E20008E8605120CA2098705120CA26388051272
:102E30000CA2C38905120CA2C98A05120CA22A8C05
:102E400005120CA2438C05120CA2A18C05120CA237
:102E50008F8D05120CA2C28D05120CA2328E0512A6
:102E60000CA2AC8E05120CA2F68E05120CA2C08F1D
:102E700005120CA2959005120CA2749105120CA2D9
:102E8000FF9105120CA26D9205120CA2E19205129F
:102E90000CA20C9305120CA2CB9305120CA2309538
:102EA00005120CA24D9505120CA26C9505120CA2F0
:102EB0005D9605120CA2829605120CA2AC96051224
:102EC0000CA2279705120CA2819705120CA2EA9872
:102ED00005120CA2989905120CA2D99905120CA200
:102EE0009AAA06120CA2E8AA06120CA2F4AA0612CA
:102EF0000CA2D2AB06120CA203AC06120CA234AC8C
:102F000006120CA2B4AC06120CA2ECAC06120CA277
:102F10003EAD06120CA27BAD06120CA298AF0612B3
:102F20000CA2BEB106120CA2A9B306120CA293B554
:102F300006120CA2F53F00120CA2AEC405120CA2A0
:102F4000DEC405120CA2B7CB05120CA23CCD0512B3
:102F50000CA239D305120CA221D405120CA25ED406
:102F600005120CA281D405120CA2B2D405120CA237
:102F7000BBD405120CA2C5D405120CA2B3D5051200
:102F80000CA2A9D605120CA29FAF05120CA29EB3EB
:102F900005120CA2A4B305120CA2DFBA05120CA2F2
:102FA000F8BF05120CA2D5A507120CA26BA607123A
:102FB0000CA281A607120CA2F7A607120CA26BA7FF
:102FC00007120CA2A9A707120CA21DA807120CA297
:102FD00096A807120CA29FA807120CA2ABA8071272
:102FE0000CA2C0A807120CA2FEA807120CA214A9DA
:102FF00007120CA273A907120CA288A107120CA237
:1030000095A107120CA2AFA107120CA2EEA1071204
:103010000CA22CA207120CA291A207120CA2A6A22B
:1030200007120CA2B1A207120CA2BEA207120CA298
:10303000D5A207120CA2E3A207120CA2EEA207125D
:103040000CA2FAA207120CA209A307120CA214A345
:1030500007120CA237A307120CA2DEA307120CA2C0
:10306000EEA307120CA208A407120CA225A40712B3
:103070000CA241A407120CA266A407120CA271A410
:1030800007120CA286A407120CA29AA407120CA283
:10309000FBA407120CA201A507120CA207A5071298
:1030A0000CA20DA507120CA225A507120CA258A56B
:1030B00007120CA2718E06120CA2F58E06120CA23B
:1030C000A48F06120CA2039106120CA224930612DE
:1030D0000CA2109406120CA2459406120CA267943E
:1030E00006120CA2169506120CA20E9706120CA23E
:1030F000379706120CA2C99706120CA2FB9706126C
:103100000CA2089806120CA25F9806120CA28598D1
:1031100006120CA2F29A06120CA2F59B06120CA241
:103120004D9C06120CA2008006120CA20A81061207
:103130000CA2F18106120CA2FB8106120CA21D82C8
:1031400006120CA2298206120CA2C28306120CA23D
:10315000F18306120CA20D8506120CA266850612DA
:103160000CA2CC8606120CA2AB8706120CA2078812
:1031700006120CA2748806120CA2AF8806120CA2CA
:10318000EE8806120CA2A78B06120CA2C18B0612A7
:103190000CA24D8C06120CA25B8C06120CA2B48CF5
:1031A00006120CA2C28C06120CA2358D06120CA2BD
:1031B000998D06120CA2E38D06120CA241C50612CF
:1031C0000CA263C506120CA289C706120CA29ECAE5
:1031D00006120CA2B6CB06120CA269CC06120CA2E7
:1031E0004BCD06120CA2A9BB07120CA2CEBB071234
:1031F0000CA240BC07120CA2EBE206120CA2F4E2F5
:1032000006120CA2FDE206120CA2D4E306120CA2D6
:1032100085E506120CA2BBE506120CA2F5E5061226
:103220000CA22BE606120CA265E606120CA299E689
:1032300006120CA2C5E606120CA20EE706120CA29C
:1032400048E706120CA291E706120CA2E9E7061263
:103250000CA21EE806120CA279E806120CA2B3E832
:1032600006120CA204E906120CA23AE906120CA2FC
:1032700074E906120CA2A2E906120CA2C5E9061214
:103280000CA221C707120CA24DC707120CA2A8C797
:1032900007120CA2B2C707120CA2C2C707120CA2D7
:1032A000C93F00120CA2DCFF05FFFFFFFFFFFFFF7D
:1032B000FFFFFFFF74F01210867901122F61E9649D
:1032C0000160030233AF900BCBE064017020122F3A
:1032D000D37ABF7B0B122F55900BC8E4F075E1F148
:1032E0007A02FB900A78E0F91222EF0233AF122E35
:1032F000E3E9FC900BBFE02402F8A3E03400F9E816
:10330000FAE9FB8A828B83EC75F0118485F00A85DB
:103310000A0EE4F50FF510F511780E120E60900B01
:10332000C9E0F50AA3E0F50BE4F50CF50D780E798C
:103330000A120E4D750AFF750BFF750CFF780E799A
:103340000A120EC68A828B83780E120F0E750A043B
:10335000750B00750C00780E790A120E4D750AFF78
:10336000750BFF750CFF780E790A120EC6900BBF15
:10337000E0F8A3E0C8240EF582E83400F583780E67
:10338000120F0E900BBFE0F8A3E0C82414F582E8FA
:103390003400F5837413F0900BBFE0F8A3E0C82469
:1033A00016F582E83400F583743BF0A3742EF00226
:1033B0003E2F74EC1210867901122F61E9640160CE
:1033C00003023A43900BC8E4F07ABF7B0B122F55EF
:1033D000122E958A0A8B0BAE0AAF0B8E828F83A3B7
:1033E000A3A37401F0900AA6E004F07940122F4FD5
:1033F0008A0A8B0BA80AA90B8E828F83E8F0A3E9B7
:10340000F0E82406FCE93400FDE82402FAE934007F
:10341000FB122FDFE5D9E5D9A2E6E433900BACF03F
:1034200078AC790BE5D988828983A3F08882898377
:10343000A3A882A983E864B27003E9640B70E578FD
:1034400006E5D918E870FAEE2422F8EF3400F9E81E
:1034500049700A7804E5D918E8603080F8EEF8EF92
:10346000F9E82404FAE93400FBE5D9C0E0E82422B5
:10347000F582E93400F583D0E0F088828983A3A83F
:1034800082A983EA687002EB6970DEEE2422F5827D
:10349000EF3400F583120F1D12303FEE2426F8EFB3
:1034A0003400F9E849700A7803E5D918E8603080FB
:1034B000F8EEF8EFF9E82403FAE93400FBE5D9C0A7
:1034C000E0E82426F582E93400F583D0E0F0888234
:1034D0008983A3A882A983EA687002EB6970DEEE93
:1034E0002426F582EF3400F583750AFF750BFF750E
:1034F0000CFF750D00780A120ED9AA0AAB0BAC0CA2
:103500007D00123015E5D9C0E0EE242BF582EF34B2
:1035100000F583D0E0F0EE242CF8EF3400F9E84910
:103520007006E5D9E5D98022E5D9C0E0EE242CF576
:1035300082EF3400F583D0E0F0E5D9C0E0EE242D31
:10354000F582EF3400F583D0E0F0EE242EF8EF346E
:1035500000F9E8497006E5D9E5D98022E5D9C0E04F
:10356000EE242EF582EF3400F583D0E0F0E5D9C0EB
:10357000E0EE242FF582EF3400F583D0E0F0EE2466
:103580002BF582EF3400F583E0C333F0EE242CF802
:10359000EF3400F988828983E0FAA3E0FBEAC333C1
:1035A000FAEB33FB88828983EAF0A3EBF0EE242E5A
:1035B000F8EF3400F988828983E0FAA3E0FBEAC3DC
:1035C00033FAEB33FB88828983EAF0A3EBF0EE2435
:1035D00020F8EF3400F9E8497006E5D9E5D98022F2
:1035E000E5D9C0E0EE2420F582EF3400F583D0E089
:1035F000F0E5D9C0E0EE2421F582EF3400F583D068
:10360000E0F0EE2432F8EF3400F9E8497006E5D92D
:10361000E5D98022E5D9C0E0EE2432F582EF34000E
:10362000F583D0E0F0E5D9C0E0EE2433F582EF3445
:1036300000F583D0E0F0E8FAE9FB8A828B83E0F5BD
:103640000CA3E0F50D7404780C12101C850C0A858F
:103650000D0B8A828B83E50AF0A3E50BF0E4F50CF1
:10366000F50DEE2420F582EF3400F583E02401F51A
:103670000EA3E03400F50FE4F510F511EE242EF55D
:1036800082EF3400F583E0F8A3E0F9E8C333F8E90A
:1036900033F988128913E4F514F515780E791212AE
:1036A0000D0B780A790E120CCC5013EE242EF582F5
:1036B000EF3400F583E0F8A3E0F9E84970167A40AA
:1036C0007B00900A78E0F91222EFEEFAEFFB122E5F
:1036D000A7023A43EE242BFCEF3400FDEEFAEFFB99
:1036E000122EB9EE240BF582EF3400F5837405F049
:1036F000A3E4F0EEFAEFFB122EBFEE245DF8EF34F8
:1037000000F9E849700A7805E5D918E8603080F8D2
:10371000EEF8EFF9E82405FAE93400FBE5D9C0E05A
:10372000E8245DF582E93400F583D0E0F0888289F1
:1037300083A3A882A983EA687002EB6970DEE5D9E9
:10374000F50EC4135407F9EE242AF582EF3400F580
:1037500083E9F0122172EE2410F582EF3400F58334
:10376000EAF0A3EBF0E50E541FC0E0EE2437F5823B
:10377000EF3400F583D0E0F0EE245DFCEF3400FD83
:10378000EEFAEFFB122E8F12309F123039790412AD
:103790003045790112307B9060607480F075E1F102
:1037A0009011307485F0A3742FF0A37485F0A37486
:1037B0002FF0A37485F0A3742FF0A37485F0A37485
:1037C0002FF0A37431F0A3742FF0A37485F0A374C9
:1037D0002FF0A3748BF0A3742FF090113E7431F08E
:1037E000A3742FF0A37431F0A3742FF0A37431F0FD
:1037F000A3742FF0A37431F0A3742FF0A37431F0ED
:10380000A3742FF0A37431F0A3742FF07A047B001B
:10381000900A78E0F91222EFEE242CF8EF3400F948
:1038200088828983E0FAA3E0FB8A0E8B0FE4F5100F
:10383000F511750A02F50B780E790A120E4DEA4B56
:103840006013EE242CF582EF3400F583E0640270FF
:1038500002A3E0704EEE242EF582EF3400F583E0F3
:10386000F50AA3E0F50B780E790A120E4D7C027D65
:1038700000EEFAEFFB12144D1222878E828F83A383
:10388000A3A3A3A3E02401F0A3E03400F08E828F71
:1038900083A3A3A3A3A3A3A3E02401F0A3E0340084
:1038A000F0800E7C017D00EEFAEFFB12144D122227
:1038B000878E828F83E02402F8A3E03400F9E8FACF
:1038C000E9FB8A828B83780E120E738A828B837552
:1038D0000AFF750BFF750CFF780A120EECEE24122E
:1038E000F50AEF3400F50B780A121299EE2410F560
:1038F00082EF3400F5831212B0EE241DF582EF340E
:1039000000F5831212B0AA0EAB0FAC10AD1112214C
:10391000C87406121045EE2418F582EF3400F583C2
:10392000780E120F0EAC0AAD0B8E828F83E024024C
:10393000FAA3E03400FB1221037C0C7D818E828F80
:1039400083E02402FAA3E03400FB1221038E828F6D
:1039500083E0F8A3E0F988828983A3A3E82408FC24
:10396000E93400FD7406120F428E828F83E0F50C5D
:10397000A3E0F50DE50C240EF582E50D3400F5838A
:1039800074FFF0A3F0A3F0A3F0E50C2412F8E50D0A
:103990003400F9E8FAE9FBEE242BF582EF3400F568
:1039A00083E0FC850A82850B83780E120EFF74017A
:1039B000780E12101CEC250EF8E4350FF9E875F0BE
:1039C00071A4C8ACF075F002A42CFC75F071E9A4E8
:1039D0002CF98A828B83E8F0A3E9F0EE2416F582B5
:1039E000EF3400F583E0F50AA3E0F50B7404780AE0
:1039F00012100DE50A2401F8E50B3400F98A828BD8
:103A000083E028F0A3E039F08A828B83E02410F071
:103A1000A3E03401F0E50C2414F582E50D3400F543
:103A2000837410F08E828F83E0F8A3E0C82416F52B
:103A300082E83400F5837441F0A3742EF0900A7983
:103A40007407F0122F3D7F0C02115874F01210868B
:103A500012301BE97008900BCCE0F912302175E1AF
:103A600081907803E064427055900C1BE014F07074
:103A70004DC2AF123A7600782AD0E0F618D0E0F6C0
:103A8000E59F54077005750BFF8003750B7FC4C05D
:103A9000E07829E6F50A08E6550BF50B740B780A71
:103AA00012100DD0E0250AF8906270E0A2E740F80D
:103AB000E8C333906272F0906270E0D2E0F0790176
:103AC000122F61E964016003023C69900C12E0F876
:103AD000A3E0F9E8496010900C12E0FAA3E0FB9033
:103AE0000C11E0F91222EF900BD0E06401600302A8
:103AF0003BAF75E191A3E02407F5D9900BC1E0C479
:103B0000333354C0F5D978BF790B88828983A3A356
:103B1000A3E0F5D988828983A3A882A983E864C534
:103B20007003E9640B70E3900BD1E0601F78BF79FC
:103B30000BFAE82413F582E93400F583E0F5D9881F
:103B4000828983A3A882A9831AEA70E6900BF1E028
:103B50002407F5D9900BC1E0C4333354C04404F5B5
:103B6000D978BF790B88828983A3A3A3E0F5D9888C
:103B7000828983A3A882A983E864C57003E9640BE2
:103B800070E3900BF1E0601F78BF790BFAE8243303
:103B9000F582E93400F583E0F5D988828983A3A80A
:103BA00082A9831AEA70E675E195900BD0E4F012D1
:103BB0002EE3E9FC900BBFE02402F8A3E03400F907
:103BC000E8FAE9FB8A828B83EC75F0118485F00AB0
:103BD000850A0EE4F50FF510F511780E120E6090BF
:103BE0000BC9E0F50AA3E0F50BE4F50CF50D780E32
:103BF000790A120E4D750AFF750BFF750CFF780ED2
:103C0000790A120EC68A828B83780E120F0E900BE1
:103C1000BFE0F8A3E0C82406F582E83400F583E4A9
:103C2000F0A3F0900BBFE0F8A3E0C8240EF582E803
:103C30003400F58374FFF0A3F0A3F0A3F0900BBF62
:103C4000E0F8A3E0C82414F582E83400F583741288
:103C5000F0900BBFE0F8A3E0C82416F582E834002A
:103C6000F583743BF0A3742EF0023E2F74F0121013
:103C70008675E18112301BE97008900BCCE0F912D7
:103C800030217901122F61E964016003023E2F9017
:103C90000C12E0F8A3E0F9E8496010900C12E0FA89
:103CA000A3E0FB900C11E0F91222EF900BD0E0643E
:103CB000016003023D7575E191A3E02407F5D990F9
:103CC0000BC1E0C4333354C04406F5D978BF790B37
:103CD00088828983A3A3A3E0F5D988828983A3A8D6
:103CE00082A983E864C57003E9640B70E3900BD18B
:103CF000E0601F78BF790BFAE82413F582E93400FD
:103D0000F583E0F5D988828983A3A882A9831AEA7A
:103D100070E6900BF1E02407F5D9900BC1E0C433B5
:103D20003354C04404F5D978BF790B88828983A3C2
:103D3000A3A3E0F5D988828983A3A882A983E86434
:103D4000C57003E9640B70E3900BF1E0601F78BF6E
:103D5000790BFAE82433F582E93400F583E0F5D9EC
:103D600088828983A3A882A9831AEA70E675E195FF
:103D7000900BD0E4F0122EE3E9FC900BBFE024029C
:103D8000F8A3E03400F9E8FAE9FB8A828B83EC754A
:103D9000F0118485F00A850A0EE4F50FF510F5118F
:103DA000780E120E60900BC9E0F50AA3E0F50BE463
:103DB000F50CF50D780E790A120E4D750AFF750B8C
:103DC000FF750CFF780E790A120EC68A828B8378F3
:103DD0000E120F0E900BBFE0F8A3E0C82406F58288
:103DE000E83400F583E4F0A3F0900BBFE0F8A3E023
:103DF000C8240EF582E83400F58374FFF0A3F0A325
:103E0000F0A3F0900BBFE0F8A3E0C82414F582E81B
:103E10003400F5837415F0900BBFE0F8A3E0C824DC
:103E200016F582E83400F583743BF0A3742EF0128B
:103E30002F3D7F0802115874F012108675E181122F
:103E4000301BE97008900BCCE0F912302179011297
:103E50002F61E964016003023F9C900C12E0F8A31B
:103E6000E0F9E8496010900C12E0FAA3E0FB900C36
:103E700011E0F91222EF900BD0E06401706475E15B
:103E800091A3E02407F5D9900BC1E0C4333354C0AB
:103E90004402F5D978BF790B88828983A3A3A3E074
:103EA000F5D988828983A3A882A983E864C57003B1
:103EB000E9640B70E3900BD1E0601F78BF790BFAD7
:103EC000E82413F582E93400F583E0F5D988828986
:103ED00083A3A882A9831AEA70E675E195900BD0B6
:103EE000E4F0122EE3E9FC900BBFE02402F8A3E01B
:103EF0003400F9E8FAE9FB8A828B83EC75F01184CF
:103F000085F00A850A0EE4F50FF510F511780E120A
:103F10000E60900BC9E0F50AA3E0F50BE4F50CF593
:103F20000D780E790A120E4D750AFF750BFF750C90
:103F3000FF780E790A120EC68A828B83780E120FD2
:103F40000E900BBFE0F8A3E0C82406F582E8340029
:103F5000F583E4F0A3F0900BBFE0F8A3E0C8240ED3
:103F6000F582E83400F58374FFF0A3F0A3F0A3F02A
:103F7000900BBFE0F8A3E0C82414F582E83400F504
:103F8000837414F0900BBFE0F8A3E0C82416F58208
:103F9000E83400F583743BF0A3742EF0023E2FC08A
:103FA00082C08353BFEF7901122F61E96401700C65
:103FB0007ABF7B0B122F55900BC8E4F075E1F1121C
:103FC0002F3DD083D082020C9FC082C083851A828D
:103FD000851B83E0F8A3E0F9E84960128A828B83AD
:103FE000ECF0A3E824FF18E934FFF94870F2D0831D
:103FF000D082020C9F020C9F851C87C2AF020C9FCF
:020000040002F8
:1030000074F612108674C412102FE9900916F0128B
:10301000271B75C90053C9FCE5C954F34408F5C919
:103020009080A1C082742B12107AAC82AD8375831C
:1030300080D0827411120F42742112107AAA82ABCE
:1030400083122D63742312107A12B43512107A127F
:10305000B429C0E0740D12107AD0E012B4431210FB
:103060007A12B429C0E0740E12107AD0E0F0742203
:1030700012107A12B43512107A12B429C0E0740F0B
:1030800012107AD0E012B44312107A12B429C0E0C0
:10309000741012107AD0E0F0742112107AE012B499
:1030A0003C12107A12B429C0E0741112107AD0E0E8
:1030B000F0742112107AE012B43D12107A12B42981
:1030C000C0E0741212107AD0E0F0750A06750B0099
:1030D000780A121299740F12107AAC82AD837A2199
:1030E0007B1012229B7402121045780A12129974F6
:1030F0000F12107AAC82AD837A3E7B1012229B7441
:10310000021210457C067D007A1F7B0012284D7448
:103110000C12107A7401F0741F12107AE4F0A3F00C
:10312000740B12107A7401F0741D12107A7420F06E
:10313000A37403F0741B12107A74B0F0A37404F03B
:10314000741912107A7404F0A3E4F0741712107A50
:103150007488F0A37413F0740C12107AAC82AD83EF
:1031600079017A057B031226A3741F12107AAC82B0
:10317000AD8379027A067B031226A37C1C7D10792D
:10318000147A087B031226A37C307D10790B7A0712
:103190007B031226A3740B12107AAC82AD837901E3
:1031A0007A107B031226A3741D12107AAC82AD83B1
:1031B00079027A117B031226A3741B12107AAC8257
:1031C000AD8379027A127B031226A3741912107A46
:1031D000AC82AD8379027A137B031226A374171293
:1031E000107AAC82AD8379027A147B031226A37C19
:1031F0003B7D107A0979001229C77C407D1F7A0631
:103200007B0012284D7C407D1F7A077B0012284DE1
:103210007C407D1F7A087B0012284D7C407D1F7A00
:10322000097B0012284D742712107A12B44A740ACE
:1032300012107A7401F0740912107A7401F0740893
:1032400012107AE4F0740712107A7401F0742712E5
:10325000107AAC82AD8379047A087B041224097455
:103260000A12107AAC82AD8379017A007B041224B1
:1032700009740912107AAC82AD8379017A027B0459
:10328000122409740812107AAC82AD8379017A0392
:103290007B04122409740712107AAC82AD83790181
:1032A0007A067B041224099081A0120F1D1229CDE9
:1032B0009081A0120F1D122ADB9081A0120F1D1207
:1032C00025A11223CD1225DD741512107A7403F096
:1032D000A3E4F0741312107A747AF0A3E4F0741576
:1032E00012107AAC82AD837A0279041225AD741380
:1032F00012107AAC82AD837A0279001225AD740681
:1033000012107A740AF0AC82AD837A01790112232B
:10331000D9900916E0F91223BB75FDF675F3017516
:10332000FEFB75F40075FFFF75F5001227031227E9
:10333000571227517A4D7B101225A77AF77B261258
:1033400023D312275D7901122BD17A107B009009CB
:1033500016E0F91222EF7A81795012251D9081CE64
:10336000C082851A82851B83AC82AD83758381D030
:10337000827402120F42851A82851B83AA82AB8354
:103380007902122529740212107AAA82AB83790479
:10339000122523740212107AE0F4700974031210DB
:1033A0007AE0F46026740312107AE0F974021210C5
:1033B0007AE090091A12BEE0740512107AE0F974EE
:1033C0000412107AE090091C12BEE0122715851A2B
:1033D00082851B8312CD1C851A82851B83AC82AD2E
:1033E000837A0279041225AD7A017B00900916E0F8
:1033F000F91222EF7A027B00900916E0F91222EF0F
:103400007A007B40900916E0F91222EF7A407B00A7
:10341000900916E0F91222EF7A007B10900916E06D
:10342000F91222EF743C02C094E58228F582E5830C
:1034300012D0D5E022E0F50A12B43C22C4540FF8B1
:10344000742B22F0E50A12B43D22E4F0A3F0A3F0BD
:10345000A3F02274F412108674F412102FEAFEEB1B
:10346000FF54806023900916E0F91222D78A0A8B54
:103470000BEA450B600A1226EBAA0AAB0B1222C517
:10348000EEFAEF648002BB06EEA2E0400302B6440F
:10349000900953E070657A497B101226AF7A547B0D
:1034A00009122427851A82851B8312BB171226A3B3
:1034B0009081881212AC7A027B00900916E0F91212
:1034C000238B74041210459081841212AC7A007B15
:1034D00040900916E0F912238B7404121045908174
:1034E000801212AC7A007B10900916E0F912238B3F
:1034F00074041210459081BC02B60E6401701FC2A4
:1035000090D291D296D297D2A0D2A1C281D282D2A9
:1035100084D285D286D28790048F74218046E0645D
:1035200002701FD290C291D296D297D2A0D2A1D2CD
:1035300081C282D284D285D286D28790048F74428F
:103540008022E064037023D290D291C296D297D2A7
:10355000A0D2A1D281D282C284D285D286D28790D3
:10356000048F7484F0A3E402B608E064047023D2EC
:1035700090D291D296C297D2A0D2A1D281D282D239
:1035800084C285D286D28790048F7408F0A3740118
:103590008076E064057023D290D291D296D297C201
:1035A000A0D2A1D281D282D284D285C286D2879083
:1035B000048F7410F0A37402804EE064067023D26E
:1035C00090D291D296D297D2A0C2A1D281D282D2E9
:1035D00084D285D286C28790048F7420F0A37404AD
:1035E0008026E06407703DC290D291D296D297D2E5
:1035F000A0D2A1C281D282D284D285D286D2879033
:10360000048F7440F0A37408F0D293908188121252
:10361000AC7A017B00900916E0F912238B74041236
:1036200010458014E0640870151227037A017B00AE
:10363000900916E0F9122397900953E004F0EE6424
:103640000102B8C75410700302B6CE7A81791D12F8
:10365000251D740412107AE412C1CA12253B851A82
:1036600082851B83AA82AB837901122541851A8248
:10367000851B83E0543FF06004F912272190095222
:10368000E070179010451212AC7A107B009009166A
:10369000E0F912238B7404121045900917E06402BC
:1036A00090101B700EE0C39478400474788008E09A
:1036B000048004E0600414F0800E7478F074011249
:1036C000107A12BB171226A3EE641002B8C7EE548C
:1036D000086028900917E06405701A1223DF9081B2
:1036E000841212AC7A087B00900916E0F912238B41
:1036F0007404121045EE640802B8C7EE5402605F0D
:10370000900914E070197A0179001224C37A0179C2
:10371000001224BD9009147401F0908188802690D5
:103720000917E0640270081223F7E9901018F07A84
:103730000079001224C37A0079001224BD90091484
:10374000E4F09081581212AC7A027B00900916E0E6
:10375000F912238B7404121045EE640202B8C7EE0E
:103760005480700302B820900948E06403600302AB
:10377000B815D290D291D296D297D2A0D2A1D281AE
:10378000D282D284D285D286D2877A407B009009B9
:1037900016E0F91223979009497401F01223258A43
:1037A0000A8B0B8C0C8D0D780A121295740912106D
:1037B0007AAA82AB8312232B740412104574071269
:1037C000107AE0F9C3940C400474F429F975F005FB
:1037D000740612107AE084901044F069700CE06472
:1037E0000B7004740A8002E004F07A0012270912B8
:1037F000270F9081BC1212AC7A007B02900916E070
:10380000F912238B74041210457A007B0490091678
:10381000E0F9122397900948E4F0EE648002B8C7FB
:10382000EF5401600B12270FEEFAEF640102BB06A2
:10383000EF540260277A007B01900916E0F9122309
:103840009712270390094AE4F0901044740DF09009
:103850000949E4F0EEFAEF640202BB06EE54206080
:103860006B90094CE0C3940750167A00E0F91227D8
:10387000097A0090094CE0F8740CC398F9122709F2
:103880007A0190094CE014F91227097A0190094C49
:10389000E0F8740DC398F912270990094CE004F080
:1038A000C3940850199081541212AC7A207B009076
:1038B0000916E0F912238B74041210458006E4F017
:1038C000900949F0EE6420FAEF02BB06EF5408605D
:1038D0006590094CE0C3940C50117A00E0F912276E
:1038E000097A0190094CE014F98016E0640C700D1F
:1038F0007A0079001227097A01790B80047A01791C
:103900000012270990094CE004F0C3940E5019905E
:1039100081B81212AC7A007B08900916E0F91223E4
:103920008B74041210458006E4F0900949F0EEFA19
:10393000EF640802BB06EE5440601FC290C291C201
:1039400096C297C2A0C2A1C281C282C284C285C2ED
:1039500086C287EE6440FA02BB0DEF54046073D256
:1039600090D291D296D297D2A0D2A1D281D282D235
:1039700084D285D286D2877A407B00900916E0F9FE
:1039800012239790094BE06041900492E06401702B
:10399000199009497401F0FAF91227277A207B005F
:1039A000900916E0F91222EF8020E0701D90095373
:1039B0007401F090815C1212AC7A017B00900916C0
:1039C000E0F912238B7404121045EEFAEF6404023E
:1039D000BB06EF5420602B12272D90094DE0C394B5
:1039E0000350179081601212AC7A007B2090091668
:1039F000E0F912238B7404121045EEFAEF642002F2
:103A0000BB06EF5440700302BAD57A81794A122579
:103A10001D851A82851B83740312C1CA12253B744B
:103A20000112107AAA82AB83790112254174011226
:103A3000107AE0C4333354C0F50A851A82851B839B
:103A4000740212C1CA12253B740112107AAA82AB09
:103A5000837901122541740112107AE01313543F47
:103A600054F8450A90101AF0901019E0F890101AC6
:103A7000E0689009157036E004F0C3940A4030E421
:103A8000F012274B740212107A741AF090101AE098
:103A9000C0E0740312107AD0E0F0740212107AAA17
:103AA00082AB8379021225291227518002E4F0901B
:103AB000101AE0901019F09081841212AC7A007BF9
:103AC00040900916E0F912238B7404121045EEFAA7
:103AD000EF64408031EF5410602FE5C9540F44A0CB
:103AE000F5C9E5C9540F4450F5C99081801212AC54
:103AF0007A007B10900916E0F912238B74041210DF
:103B000045EEFAEF6410FB80047A007B00740C121F
:103B100010457F040211587401F0AC82AD83F97A2C
:103B2000057B032274F712108674FC12102F8A8210
:103B30008B83E064C0600302BC82A3A3A3E0FE7A8F
:103B400081794A12251D740312107AE412C1CA1237
:103B5000253B740212107AAA82AB837901122541A7
:103B6000740212107AE0A2E0E43390094BF0EEA266
:103B7000E0400302BBF8900949E0600302BC829078
:103B8000094BE0A2E050199081881212AC7A007BB8
:103B900004900916E0F912238B7404121045800C6E
:103BA0007A007B04900916E0F912239790094BE004
:103BB0006029900492E064017021900948E070054A
:103BC0007402F0801C6402600302BC857403F07A06
:103BD000807B00900916E0F9122397900948E06075
:103BE0001790815C1212AC7A807B00900916E0F984
:103BF00012238B7404121045EEA2E1400302BC8232
:103C00007A81791D12251D851A82851B83742AF0FD
:103C1000740112107AE412C1D4122529851A828502
:103C20001B83741612C1CA12253B740112107AAAA2
:103C300082AB837901122541851A82851B83742DFD
:103C4000F0740112107AE412C1D4122529851A8267
:103C5000851B83742AF0740112107A12C1D21225C6
:103C60002990094E12B44A900952F0901045121250
:103C7000AC7A107B00900916E0F912238B740412C1
:103C8000104502BDD3E06403600302BBE17A807B90
:103C900000900916E0F91223977A007B0490091628
:103CA000E0F9122397900948E4F002BBF874F71288
:103CB000108674F012102FE9FE14601014700302C5
:103CC000BD5C24FD700302BD9602BDCA740A1210C9
:103CD0007AAC82AD837A047B031226A9740A12108F
:103CE0007AE0C0E0740212107AD0E0F0740B121087
:103CF0007AE0C0E0740312107AD0E0F0740C121075
:103D00007AE0C0E0740412107AD0E0F07406121069
:103D10007AE4F0740512107AE4F0740F12107AE06D
:103D2000C0E0740912107AD0E0F0740E12107AE03C
:103D3000C0E0740812107AD0E0F0740D12107AE02E
:103D4000C0E0740712107AD0E0F0740212107AAC5E
:103D500082AD837A0879001223FD806E7A81794AD8
:103D600012251D900919E06401705F900492E064CF
:103D700001705712274B851A82851B837443F07498
:103D80000112107A742612C1D4122529900492E4EB
:103D9000F012275180347A81794A12251D900492BD
:103DA000E0702712274B851A82851B837443F074B9
:103DB0000112107A742312C1D4122529900492742E
:103DC00001F0122751900919E4F0EE900917F074F0
:103DD00010800274041210457F0102115874F7120A
:103DE0001086E9FE74016E7021900917E064057079
:103DF0002A9081841212AC7A087B00900916E0F9AF
:103E000012238B7404121045801174026E700C7AA8
:103E1000087B00900916E0F912239780BB74F41216
:103E2000108674F112102FE914601014606714608A
:103E30005C24FD700302BED102BEDA851A82851BA6
:103E400083AA82AB8379011225B3851A82851B83ED
:103E500012CCBF90101012BEDF1227157402121080
:103E60007A12CD1C740212107AAC82AD837A027978
:103E7000041225AD90094DE4F09081601212AC7AE5
:103E8000007B20900916E0F912238B803D7A187B85
:103E90000979038042740412107AAA82AB837902F2
:103EA0001225B3740412107A120F1D12231F12234D
:103EB000258A0A8B0B8C0C8D0D780A121295740CC6
:103EC00012107AAA82AB8312232B7404121045803D
:103ED000097A197B0979061225B3740F02BB0FE822
:103EE000F0A3E9F022C082C083D290D291D296D2C0
:103EF00097D2A0D2A1D281D282D284D285D286D2C8
:103F00008790048FE4F0A3F0C293C280C294C2955C
:103F10009081881212AC7A407B00900916E0F91269
:103F2000238B02C04074F2121086E9FEEAFF750A84
:103F300001750B00EE780A12101CAA0AAB0B046F75
:103F40007011EAF4F8EBF4F990048FE058F0A3E074
:103F500059800990048FE04AF0A3E04BF090048F61
:103F600012CCBFE849701BC2939081881212AC7AC0
:103F7000407B00900916E0F912238B74041210455F
:103F80008002D293EE6070146020146024146028C4
:103F900014602C14603014603414603814603C14C5
:103FA00060401460441460488052EFA2E092918017
:103FB0004BEFA2E092968044EFA2E09297803DEF13
:103FC000A2E092A08036EFA2E092A1802FEFA2E0C3
:103FD00092818028EFA2E092828021EFA2E0928479
:103FE000801AEFA2E092858013EFA2E09286800C07
:103FF000EFA2E092878005EFA2E092907F06021187
:1040000058C082C08390094AE0700474018001E4C2
:10401000F0E0FA901044E0F912270990815C121246
:10402000AC7A007B0102BF1AC0E0740312107AD090
:10403000E0F0740212107AAA82AB83790212252969
:104040007404121045D083D082020C9F74F61210B3
:104050008690091A12CCBF75830975821CE0C3983B
:10406000F50AA3E099F50B75830975821CC3E098E6
:10407000A3E099500CE50A24A0F50AE50B340FF5EE
:104080000B7403780A12100DE50A2403FAE50B34C9
:1040900000FB80031210457F02021158C082C083CA
:1040A00074FE12102F7A81791D12251D851A8285C2
:1040B0001B83742BF0740112107A744012C1D41255
:1040C0002529851A82851B83742B12C1CA12253BB0
:1040D000740112107AAA82AB83790112254174010E
:1040E00012107AE0A2E640DA851A82851B83740EEC
:1040F000F0740112107A740212D17CF9122529850C
:104100001A82851B837409F0740112107A744012AC
:10411000C1D4122529851A82851B837415F0740178
:1041200012107A74FF12C1D4122529851A82851BB8
:10413000837417F0740112107A741112C1D412250D
:1041400029851A82851B837418F0740112107A7401
:104150000312C1D4122529851A82851B83742CF081
:10416000740112107A740812C1D4122529851A829A
:10417000851B83742DF0740112107A740412C1D45B
:10418000122529851A82851B83742EF07401121062
:104190007A740412C1D4122529851A82851B83746E
:1041A0002BF0740112107A741F12C1D412252985C4
:1041B0001A82851B83742AF0740112107A12C1D2FC
:1041C000122529740202C0427444F0AA82AB83799A
:1041D0000122746912D18079022274E81210867467
:1041E000D212102F740C12107AE9F0741A12107A8D
:1041F000AC82AD837583817582227408120F42747C
:104200001212107AAC82AD8375838175821A74089C
:10421000120F42740D12107A7401F07A81791D1216
:10422000251D90818C780A120EFF90094E780A1293
:104230000E737AC07B00122349740812107A12CDD3
:104240001C7CC07D007900740812107AE0FA1222FA
:10425000B3740812107A12CCBFE84960497CC07D63
:10426000007900740812107A12CCD11222B3740DA6
:1042700012107AAA82AB83790112253B74081210BE
:104280007A12CCD175F006740C12107AE0A4F912EF
:104290002541740C12107AE0900491F0C3940550FB
:1042A0000E790002CC8A900491E4F0F902CC8A7E67
:1042B00000EE75F006A4F8A9F0749328FA74043996
:1042C000FB740812107AE028F8A3E039F988828993
:1042D00083E0FDA3E08A828B8312CD2212CCA9E079
:1042E0008A828B83A3A312CD22A3A312CCA9A3A35A
:1042F000E0F8EDF98A828B83A3A3A3A312BEDF0E9D
:10430000900491E0F8EEC39840A77E0080010EEE85
:10431000C39840FA7E008E0A750B007403780A1267
:10432000101CAA0AAB0B74532AF874063BF974A349
:104330002AFA74073BFB8A0A8B0B8A82F583120FD9
:104340001D88828983120F29850A82850B83A3A386
:10435000A3A3120F1D88828983A3A3A3A3120F29ED
:104360000EEEC3940A40AF7E0A8E82AA828A0A7534
:104370000B007403780A12101C7453250AF8740693
:10438000350BF9E8FCE9FDEA75F006A4FAABF07428
:10439000932AFA74043BFBEA24C612CCF0780A1282
:1043A0000F0EEA24C812CCF0A3A3A3A3780A120F1D
:1043B0000E0E900491E0240BF8E43400F9EE98E43A
:1043C00099C365D03340A27A207B00122349740A36
:1043D00012107A12CD1C7C207D007900740A121014
:1043E0007AE0FA1222B37E0002C73A8E0A750B00F9
:1043F0007403780A12101CAA0AAB0B74532AF874BF
:10440000053BF9740612107A12BEDF901017E0F522
:104410000AE4F50BF50CF50D742A12107A780A12DD
:104420000F0E901016E0F50A742612107A780A1210
:104430000F0E901015E0F50A742212107A780A1205
:104440000F0E901014E0F50A740E12107A780A120A
:104450000F0E901013E0F50A74532AF874063BF916
:10446000851A82851B8312BEDF901012E0F50EE4E0
:10447000F50FF510F51112CCD77816120EFF12CDEC
:1044800010245012D0D27816120E607816790E12BF
:104490000D0B12CD10240812CCA3120EFF12CD105A
:1044A000244812CCA3120E607812790A120D0B78F0
:1044B000167912120E4DC016C017C018C01912CDB1
:1044C00010241012CCA3120EFF12CD10244012CCD7
:1044D000A3120E60740E12107A7816120EFF781264
:1044E0007916120D0BD019D018D017D0167816796E
:1044F00012120E4DC016C017C018C01912CD1024CC
:104500001812CCA3120EFF12CD10243812CCA31215
:104510000E60742212107A7816120EFF7812791635
:10452000120D0BD019D018D017D016781679121298
:104530000E4DC016C017C018C01912CD102420127D
:10454000CCA3120EFF12CD10243012CCA3120E6099
:10455000742612107A7816120EFF78127916120D40
:104560000BD019D018D017D01678167912120E4D1C
:10457000C016C017C018C01912CD10242812CCA321
:10458000120EFF742A12107A7816120EFF78127922
:1045900016120D0BD019D018D017D0167816791224
:1045A000120E4D740A7816120DFB740612107A1250
:1045B000CCDD7816120F0E740612107A12CCC512CA
:1045C000107A12BEDF12CCD7A3A3A3A37812120EC7
:1045D000FF12CD10245412CCA3120E607812790E63
:1045E000120D0B85120E85130F85141085151112EF
:1045F000CD10240C12CCA3120EFF12CD10244C129D
:10460000CCA3120E607812790A120D0B780E791273
:10461000120E4D12CD10241412CC9D120EFF12CD8D
:1046200010244412CC9D120E60740E12107A78126F
:10463000120EFF780A7912120D0B780E790A120EFB
:104640004D12CD10241C12CC9D120EFF12CD102441
:104650003C12CC9D120E60742212107A7812120E47
:10466000FF780A7912120D0B780E790A120E4D128C
:10467000CD10242412CC9D120EFF12CD1024341222
:10468000CC9D120E60742612107A7812120EFF78EA
:104690000A7912120D0B780E790A120E4D12CD10F6
:1046A000242C12CC9D120EFF742A12107A7812124A
:1046B0000EFF780A7912120D0B780E790A120E4D40
:1046C000740A780E120DFB740212107A12CCEA12E0
:1046D0000F0E740212107A12CCDD7812120EFF74D3
:1046E0000612107A12CD0A120EFF850A0E850B0FE4
:1046F000850C10850D11780E790A120D0B85120AA2
:1047000085130B85140C85150D780A7912120D0B83
:10471000780E790A120E4D8E0A750B007402780A13
:1047200012101C740A12107AE0250AF8A3E0350B67
:104730008882F583780E120F0E0E900491E0F8EE49
:10474000C398500302C3EB7E008027780E791212C3
:104750000CCC500A741E12107A780E120F0E780AC2
:10476000790E120CCC500A741612107A780E120FB1
:104770000E0E741612107A780A120EFF741E1210A2
:104780007A7812120EFF900491E0C313FFE0F8EE66
:10479000C398504D8E0E750F007402780E12101CC7
:1047A000740A12107AE0250EF8A3E0350F8882F51E
:1047B00083780E120EFFEEC39F5090741A12107A77
:1047C000780E120CDC500A741A12107A780E120F3E
:1047D0000E741212107A780E120CEC40947412803F
:1047E00088741A12107A780E120EFF741212107A50
:1047F000780E120E607401780E120E159008F37880
:104800000E120F0E741A12107A780E120EFF741216
:1048100012107A780E120E9A9008FF780E120F0E70
:1048200085120E85130F851410851511780E790ADF
:10483000120E4D7401780E120E159008F7780E12B4
:104840000F0E7812790A120E86740E12107A7812F0
:10485000120F0E740E12107A120F1D900903120F10
:10486000297E0002C8F785120A85130B85140C8572
:10487000150D780A7916120E86780A120CEC500380
:1048800002C994740612107A12CCDD120F1D740244
:1048900012107A12CCDD120F29740612107A12CD82
:1048A0000A120EFF851A82851B83E02477F8A3E0A5
:1048B0003408F988828983780A120F0E90090DE076
:1048C00024FDFAEEC39F400302CA089008F3780A59
:1048D000120CDC400302C9A49008F3780A120EFF00
:1048E000740212107A12CD0A120CDC500302C9C1F4
:1048F00090090DE004F00E8E8285820A750B0090FF
:104900000491E024FFF8E434FFF9C3E50A98E49940
:10491000A2D265D033400302CAB97402780A1210D9
:104920001C851A82851B83E50AF0A3E50B12D231A0
:10493000F8A3E0F9740A12107AE028FAA3E012D082
:10494000DA7812120EFF851A82851B83E024F3F8B1
:10495000A3E03407F9740612107A12BEDF7406124F
:10496000107A12CCC512107A12BEDF8A828B83783D
:1049700016120EFF78127916120CCC90819050030B
:1049800002C86678167912120E867816120CEC4060
:104990000302C883740212107A12CCDD7812120F4F
:1049A0000E02C899500302C8F0740212107A12CD98
:1049B0000A120EFF9008F3780A120CDC400302C8BA
:1049C000F0EAC39416400302CAB2908194780A12A6
:1049D0000EFF9008FF780A120CDC400302CAA09078
:1049E00008FB780A120EFF9008F3780A120CDC50CC
:1049F0000A9008FB780A120EFF80729008F3780A7A
:104A0000120EFF9008FB8068780A790E120CCC50C9
:104A100010740212107A12CCEA120CDC401F02C889
:104A2000F0780E790A120CCC400302C8F07402121E
:104A3000107A12CCEA120CEC500302C8F0EAC394CC
:104A400016506F908194780A120EFF740E12107A2D
:104A5000780A120CDC50499008F3780E120CDC50E6
:104A600023850E0A850F0B85100C85110D9008F318
:104A7000780A120E9A758381758298780A120CEC66
:104A80004030801C9008F3780A120EFF780A790EE5
:104A9000120E86758381758298780A120CEC40128A
:104AA000900907E0F8740828F582740912D0D5E05F
:104AB00004F090090DE402C8F59008FB780E120F7F
:104AC0000E740A12107A12CCD112234F900907E00B
:104AD0002402F0C39403500302CB65E0F874082865
:104AE000F874093400F9E824FF12CC9490090EF010
:104AF000E824FE12CC9490090FF0E824FD12CC9427
:104B0000900910F0E824FC12CC94900911F090095F
:104B10000EE0F890090FE0FAE82AF8E43400F99082
:104B2000091012CCB390091112CCB3C3E89404E974
:104B30009400A2D265D0334016900910E0F9900994
:104B40000FE0F890090EE028292A90090C800490C3
:104B5000090CE4F0FA7902122727900907E4F09093
:104B6000090812B44B740812107A12CCD112234FD8
:104B70007E008E8285820A750B00900491E0250AE2
:104B8000F8E43400F9E875F006A4F8AAF075F00628
:104B9000E9A42AF9749328FC740439FD7403780A93
:104BA00012101C74A3250AF87407350BF9880E89B6
:104BB0000FEC24C6F582ED34FF12CCBD3395E0FA3C
:104BC000FB850E82850F83880A890B8A0C8B0D78F2
:104BD0000A120F0EEC24C8F582ED34FFF58312CCD7
:104BE000D13395E0FC850E82850F83A3A3A3A31286
:104BF000CD1CA3ECF0A3F00EEEC3940A500302CB3D
:104C000072900912E004F0C39419500C90090CE062
:104C1000F8900913E028806FE4F0900913E07066C3
:104C20009009527401F07A81791D12251D740412C5
:104C3000107A742AF0740512107AE4F074041210D9
:104C40007AAA82AB837902122529740412107A742D
:104C50002DF0740512107A7404F012107AAA82AB47
:104C6000837902122529740412107A742AF07405CB
:104C700012107A7469F0740412107AAA82AB8379E4
:104C8000021225298002E4F07901742E1210457F6A
:104C900010021158F582E934FFF583E02212D0D2D8
:104CA000780A2212D0D2781222E0FD88828983A36A
:104CB000A3A322E0FAE82AF8E93400F922F583E018
:104CC000F8A3E0F922E02404F8A3E03400F9740228
:104CD00022E0FAA3E0FB22851A82851B8312CCE135
:104CE00022E0F8A3E0F58388822212CCE1780E223C
:104CF000F582EB34FFF583E0F50AA3E0F50B33957D
:104D0000E0F50CF50D8C828D832212CCE1780A221D
:104D1000851A82851B83E0F8A3E0C822EAF0A3EBA2
:104D2000F022F0A3EDF088828983A3A32274E81215
:104D3000108674ED12102F89188A1974FF2518FE39
:104D40001223258A0A8B0B8C0C8D0D780A12129572
:104D5000740412107AAA82AB8312232B74041210EB
:104D600045740265187007740112107AE4F0851A10
:104D700082851B83E4F0EE75F00EA4F8A9F0741E92
:104D800028FE740939FFEE240BF516EF3400F517F1
:104D9000EE2407F50CEF3400F50D85198285820AA3
:104DA000850C82F583780E120EFFE50E450F451037
:104DB00045117032851A82851B83EEFCEFFD740766
:104DC000120F42EEFAEFFB122337850C82850D831A
:104DD000120F29851682851783E50AF0A3E412CF06
:104DE00079E51802CF738E828F83A3A3A3A3A312A6
:104DF000CCBF740512107AE0687003A3E0697049B3
:104E00008E828F83A3A3A3A3E0F8740412107AE028
:104E10006870368E828F83A3A3A3E0F87403121008
:104E20007AE06870248E828F83A3E0F874011210F8
:104E30007AE06870148E828F83A3A3E0F874021264
:104E4000107AE068700302CF657A81795012251DCF
:104E500090091DE0C0E0740712107AD0E0F09009CC
:104E60001CE0C0E0740812107AD0E0F0850C828556
:104E70000D83780E120EFF740912107AE50EF0748D
:104E80000A12107AE50FF0850E12F51385101485BD
:104E9000111574107812120E15740B12107AE51297
:104EA000F07418780E120E15740C12107AE50EF0CC
:104EB00085168285178312CCBF740D12107AE8F024
:104EC000740E12107AE912CF79E0C0E0740F12105C
:104ED0007AD0E0F0900918E0C0E0741012107AD097
:104EE000E0F0740712107AAA82AB83790A1225299E
:104EF00012253590091C12D0FF400790091CE4F0E0
:104F0000A3F090091C12CCBF90091AE0687003A3AB
:104F1000E069700690091A12D10612271574111251
:104F2000107A12CD1C741112107AAC82AD837A0201
:104F300079041225AD851A82851B83EEFCEFFD7482
:104F400007120F42EEFAEFFB122337850C82850D14
:104F500083120F29851682851783E50AF0A3E4F0F2
:104F6000122733800F851682851783E0250AF0A368
:104F7000E03400F0741302CC8CF0EE240DF582EFD7
:104F800012D0D52274F012108674F612102F9009E8
:104F900017E06405600B90094D7463F0790002D04E
:104FA000C87A81795012251D12D0F17003A3E069EF
:104FB000605390091BE0851A82851B83F090091AC3
:104FC000E0C0E0740112107AD0E012C1D412252999
:104FD000740212107AAA82AB8379081225239009F1
:104FE0001A12D0FF400790091AE4F0A3F0740212DD
:104FF000107AAC82AD837A0879051225AD12273379
:1050000090094DE4F012D0F17003A3E0696003024F
:10501000D0C612D0E5741E28FA740912D0DAA3A300
:10502000A3780E120EFF740212107AE50EF0850FAF
:105030000BE50BF50A740312107AE50AF0850E0AE7
:1050400085100C85110D7410780A120E1574041257
:10505000107AE50AF07418780E120E157405121005
:105060007AE50EF0EA240BF582EB340012CCBD7425
:105070000612107AE8F0740712107AE9F0EA240DAB
:10508000F582EB12D0D5E0C0E0740812107AD0E0BF
:10509000F0900918E0C0E0740912107AD0E0F074C2
:1050A0000212107AAC82AD837A0879051225AD120E
:1050B000D0E5742928F582740939F583E4F0A3F06A
:1050C00090094DE004F07901740A1210457F08023E
:1050D0001158F582E83400F5832239FB8A828B83EC
:1050E000A3A3A3A32290094DE075F00EA4F8A9F0A4
:1050F0002290091AE0F8A3E0F990091CE068221256
:10510000D106C3947D22E02408F0A3E03400F0220D
:10511000C082C08374FA12102F7A81795012251D33
:10512000851A82851B83AC82AD8375838175824825
:105130007406120F4290091AE0C0E0740212107A4D
:10514000D0E0F090091BE0C0E0740312107AD0E0C8
:10515000F090091CE0C0E0740412107AD0E0F090E6
:10516000091DE0C0E0740512107AD0E012D17C79FC
:1051700006122529122535740602C04212D180225A
:10518000F0851A82851B83AA82AB8322780079007E
:105190008008E8240108E93400F9C3E89AE99B4053
:1051A000F1020C9F74F61210868A0A8B0B7E007F28
:1051B00000800F7AE87B03122739EE24010EEF34CA
:1051C00000FFC3EE950AEF950B40E802C09774F616
:1051D0001210868A0A8B0B7E007F0080167A687B0D
:1051E000011227397A017B0012273FEE24010EEFCE
:1051F0003400FFC3EE950AEF950B40E102C097C063
:1052000082C08374FC12102F740112107A12C1C86C
:1052100012253B851A82851B83AA82AB83790112F2
:105220002541740212107A12D22F544002C0287401
:1052300044F0851A82851B83E022C082C08374FCFF
:1052400012102F740112107A12C1C812253B851A50
:1052500082851B83AA82AB837901122541851A823C
:10526000851B83E054F0F0740212107A12D22F449E
:105270004102C02874F612108674FE12102F7A8133
:10528000794A12251D7A027B001223498A828B8378
:105290007430F0A37401F012274B851A82851B83AA
:1052A0007441F0740112107A743012C1D41225299D
:1052B000851A82851B837443F0740112107A74235B
:1052C00012C1D41225291227517A0A7B00122745D0
