:020000040000FA
:100800000919FFFF0000007C41414141FFFFFFFF4C
:10081000FFFFFFFFFFFFFFFFFFFFFFFFFFFFFFFFE8
:10082000000102030405060708090A0BFFFFFFFF8A
:10083000020C66021B8BFFFFFFFFFFFFFFFFFFFFA6
:10084000FFFFFFFFFFFFFFFFFFFFFFFFFFFFFFFFB8
:10085000FFFFFFFFFFFFFFFFFFFFFF02144DFFFF42
:10086000FFFFFFFFFFFFFFFFFFFFFFFFFFFFFFFF98
:10087000FFFFFFFFFFFFFFFFFFFFFFFFFFFFFFFF88
:10088000FFFFFF021BFEFFFFFFFFFFFFFFFFFFFF5A
:10089000FFFFFFFFFFFFFFFFFFFFFF021406FFFF49
:1008A000FFFFFFFFFFFFFFFFFFFFFF02142FFFFF10
:1008B000FFFFFF0219F701FFFF1101990112640404
:1008C0000102E681010000BF8102E081010000EC2D
:1008D0000E02EE81010000ED0E02DA81030000A994
:1008E0000202CC81010000EE0E01E803053F100A70
:1008F000024669726D7761726500000000000000B9
:1009000000001A446F2053796E630000000000005D
:1009100000000000084150502053657420436C6F64
:10092000636B000000000841505020536574205450
:10093000696D657A6F6E6500120100446174612013
:100940004865616465720000000000001244617433
:100950006120426F6479000000000000000002E6A0
:1009600081010000B68102E0810100001F0F02C872
:1009700081010000A60302DC81010000200F02E0DB
:1009800081010000310F02C681030000A80302DAD2
:1009900081030000B00302DC81010000320F02E09D
:1009A00081010000430F02D281020000B60302DC85
:1009B00081010000440F02E081010000550F02DEBA
:1009C00081020000BA0302DC81010000560F02E040
:1009D00081010000670F02E481030000680F02DA62
:1009E00081030000BB0302DC810100006A0F02E00A
:1009F000810100007B0F02F281030000C10302DAD3
:100A000081030000C90302DC810100007C0F1C028D
:100A1000E681010000118102E0810100003D10101B
:100A20005080020000CF0302DA81030000D10302EC
:100A3000DC81010000F28002E0810100003D101025
:100A40006080020000D00302DA81030000D70302B5
:100A5000DC81010000FF80FFFFFF00013075030211
:100A6000010600000000000000000000000000007F
:100A70000000000000000000000000000000FFFF78
:100A80000600800CE8032C011109416464696E675B
:100A90005F41312D30303030303005122003B0044A
:100AA000020A00020106070200230F18C0FF41647A
:100AB00064696E675F41312D303030303030000076
:100AC0000000000DC40900001B2700002D27FF00B7
:100AD00000B4000028002800283075A000A000A065
:100AE00000A00000080008E001F000100010001055
:100AF00000100010001000500050005000100010B6
:100B000000D0070000000000000F000100050030C9
:100B10007507001000010081FF00000000FF972909
:100B2000B5299D29FF02020208025000A000000022
:100B3000E80302E681010000BC8102E081010000BF
:100B4000541102D881010000590A02E0810100001D
:100B5000551102D6810100006F0A02E081010000F8
:100B6000561102D481010000710A02E081010000E7
:100B7000571102EC81080000720A02E081010000B6
:100B8000581102D0810100005911FF0100FF20021D
:100B9000E681010000B98102E081010000BD11027F
:100BA000CE81000000000002DA81030000BF0A6766
:100BB0002F672F672F672F672F672F672F672F6785
:100BC0002F672F672F672F672FFB311332F531E522
:100BD000C754F84405F5C779012200000080FB12D4
:100BE0000BCFB90003020C50E479217808B8000259
:100BF0008004F709D8FCE479297802B8000280045F
:100C0000F709D8FCE49002807867790D8002F0A3A0
:100C1000D8FCD9FA781C9008B67A01BA000280078D
:100C2000E493A3F608DAF9900EE6AA82AB83900863
:100C3000B7781979048015E493A3AC82AD838A82D6
:100C40008B83F0A3AA82AB838C828D83D8E9D9E70A
:100C50007582727583C67407120C787582DA758393
:100C60000B7400120C7875D00075813F751A807571
:100C70001B02759F00020BDFC09FF59FE473D09F9E
:100C800022D083D082C09FE493C0E0740193C0E07F
:100C9000740293F59F22E066701008A3E066700A64
:100CA00008A3E066700408A3E06622C3E79608097B
:100CB000E7960809E7960809E79622C3E09608A395
:100CC000E09608A3E09608A3E09622C00AC3E09647
:100CD000F50A08A3E096420A08A3E096420A08A390
:100CE000E096450A7001D3D00A22080808EAC0E05D
:100CF000EBC0E086F0E7A4FA180986F0E7A42AFA28
:100D0000180986F0E7A42AFA180986F0E7A42AFA57
:100D10001986F0E7A4FBE5F02AFA190886F0E7A4A3
:100D20002BFBE5F03AFA190886F0E7A42BFBE5F077
:100D30003AFA18180986F0E7A4C5F02BFBE43AFA52
:100D40001908E7C5F0C6A426F6E5F03BFBE43AFA3D
:100D50001886F0E7A4F6E5F00826F6E43B08F6E48A
:100D60003A08F6D0E0FBD0E0FA22E4CFC0E0E4CECF
:100D7000C0E0E4CDC0E0E4CCC0E075F020C3E633D1
:100D8000F608E633F608E633F608E633F6181818E0
:100D9000EC33FCED33FDEE33FEEF33FFC3EC97098C
:100DA000ED9709EE9709EF97191919400FFFEC9786
:100DB000FC09ED97FD09EE97FE191906D5F0BEEC7A
:100DC000F709EDF709EEF709EFF7191919D0E0FC6B
:100DD000D0E0FDD0E0FED0E0FF22120E421818183D
:100DE000120D6A120E3119191922120E3119191920
:100DF000080808E618181820E7E0120D6A120E42DB
:100E000018181822090909E719191920E7DC080838
:100E100008E618181820E703020D6A120E42181887
:100E200018120D6A120E42181818120E31191919DB
:100E300022E4C397F709E497F709E497F709E497E1
:100E4000F722E4C396F608E496F608E496F608E47A
:100E500096F6226016080808C6C313C618C613C63D
:100E600018C613C618C613C6D5E0EA2270090808CA
:100E700008226016181818C6C333C608C633C60839
:100E8000C633C608C633C6D5E0EA22E627F6080907
:100E9000E637F60809E637F60809E637F622E026CF
:100EA000F608A3E036F608A3E036F608A3E036F627
:100EB00022E026F008A3E036F008A3E036F008A30D
:100EC000E036F022C3E697F60809E697F60809E649
:100ED00097F60809E697F622C3E096F008A3E09695
:100EE000F008A3E096F008A3E096F022E657F60893
:100EF00009E657F60809E657F60809E657F622E02C
:100F000056F608A3E056F608A3E056F608A3E05606
:100F1000F622E056F008A3E056F008A3E056F008E9
:100F2000A3E056F022E0F608A3E0F608A3E0F608F6
:100F3000A3E0F622E6F008A3E6F008A3E6F008A393
:100F4000E6F022E0FAA3E0FBA3E0FCA3E0FD22EA46
:100F5000F0A3EBF0A3ECF0A3EDF022CAC0E0E6F0C2
:100F6000A308DAFAD0E0FA22CAC0E0E0A3C582CC36
:100F7000C582C583CDC583F0A3C582CCC582C58398
:100F8000CDC583DAE6D0E0CA22C3E498F8E499F943
:100F9000120FCA8026C3E49AFAE49BFBE920E7E932
:100FA000120FCAE498F8E499F922C3E498F8E49996
:100FB000F9120FCAE498F8E499F9C3E49AFAE49BA9
:100FC000FB22EB20E7CFE920E7E0B90010BB0008E7
:100FD000E88AF084F8AAF022E4FBC8FA22EB702237
:100FE0007B10C833C8C933C9335007C39AC3DBF277
:100FF00080069A50012ADBEAC833F4C8C933F4C921
:10100000FA2275F008E4C833C8C933C933C99AC98C
:101010009B5004C92AC93BD5F0ECFBC833F4C8E4A3
:10102000C9FA22600D08C6A2E713C618C613C6D5B2
:10103000E0F322600C08C6C313C618C613C6D5E079
:10104000F422700422600D18C6C333C608C633C626
:10105000D5E0F41822251A10AF08F51A4002151B26
:101060008008F51A4002151BD2AF22C0D0251A10F5
:10107000AF08F51A5002051B8008F51A5002051B2F
:10108000D2AFD0D022251AF58210AF08F51A40024F
:10109000151B8008F51A4002151BD2AF851B832251
:1010A000251AF582E4351BF58322E473251AC582DF
:1010B000C0E0E51B34FFC583C0E0E51AC395822478
:1010C000F810AF0885831B85821A800885831B85ED
:1010D000821AD2AFCEF0A3E520F0A3780AE608F09A
:1010E000A3DEFAEFF0A3E58124FAF8E608F0A3E620
:1010F00008F0A3E608F0A30808E608F0A3E608F065
:10110000A315811581D0E0FED0E0F8158115811579
:1011100081E8C0E0EEC0E022251AC582C0E0E51BF0
:1011200034FFC583C0E0E51AC3958224F910AF08E7
:1011300085831B85821A800885831B85821AD2AF1E
:10114000CEF0A3E520F0A3780AE608F0A3DEFAEFDC
:10115000F0A3E58124FBF8E608F0A3E608F0A30875
:1011600008E608F0A3E608F0A315811581D0E0FE9B
:10117000D0E0F815811581E8C0E0EEC0E022851BC3
:1011800083851A82E0A3FEE0A3F520780AE0A3F6A7
:1011900008DFFAE0A3FFE0A3C0E0E0A3C0E0E0A323
:1011A000C0E0E0A3C0E0E0A3C0E010AF0885821A71
:1011B00085831B800885821A85831BD2AFD083D09C
:1011C00082020C7E851B83851A82E0A3FEE0A3F5D4
:1011D00020780AE0A3F608DFFAE0A3FFE0A3C0E06E
:1011E000E0A3C0E0E0A3C0E0E0A3C0E010AF08854A
:1011F000821A85831B800885821A85831BD2AFD013
:1012000083D08222C0D0251AC582C0E0E51B34FFFE
:10121000C583C0E0E51AC3958224F310AF08858327
:101220001B85821A800885831B85821AD2AFC8F07D
:10123000A3E9F0A3EAF0A3EBF0A3790AE709F0A38E
:10124000D8FAECF0A3EDF0A3EEF0A3EFF0A3D0E01A
:10125000F0A3D0E0F0A3D0E0F0A3E520F0A3E5F008
:10126000F0A322851B83851A82E0C0E0A3E0F9A3E6
:10127000E0FAA3E0FBA3780AE0F608A3DFFAE0FCBB
:10128000A3E0FDA3E0FEA3E0FFA3E0C0E0A3E0C075
:10129000E0A3E0F5D0A3E0F520A3E0A3F5F010AFC4
:1012A0000885831B85821A800885831B85821AD254
:1012B000AFD082D083D0E0F8D0E0327404800674DE
:1012C0000280027401C0E0F404121085D0E0120F15
:1012D0005B227404800474028000CCC0E0EDC0E0A6
:1012E000E51AC39CCCAD1B50011D10AF068C1A8DA6
:1012F0001B80068C1A8D1BD2AF120F68D0E0FDD078
:10130000E0FC22D083D082E9C0E0E493A3C386F05E
:10131000C5F095F0F908E493A386F0C5F095F07058
:101320000BE493A3C3994005E9048002A3E475F09C
:1013300002A42582F582E5F03583F583D0E0F9E457
:1013400093A3C0E0E493C0E022D083D082ECC0E05D
:10135000EDC0E0E493A3FCE493A3FDED4C600D121B
:101360001395EC24FFFCED34FFFD80EFE493A3FC28
:10137000E493A3FDED4C600D1213D4EC24FFFCEDBF
:1013800034FFFD80EFD0E0FDD0E0FCE493A3C0E0AB
:10139000E493C0E022C0E0C3E493960874019396FE
:1013A00018400FE493667008087401936618700083
:1013B0007019A3A3C3E49396087401939618A3A38A
:1013C000400DD0E0D0E0D0E0021385A3A3A3A3A3F7
:1013D000A3D0E022C0E0C0F088F0E4936670080873
:1013E00074019366187000A8F0A3A3700BD0F0D01E
:1013F000E0D0E0D0E0021385A3A3D0F0D0E022FF3C
:10140000C2AF02000022C0E074F2121204A2AFE4E4
:1014100033FED2AFE589A2E3500312258975890016
:10142000C2C5751C00EEA2E092AF7F01021263C03C
:10143000E074F2121204A2AFE433FED2AFE58AA246
:10144000E25003122589758A00C2EB80D5C0E0C046
:10145000D0E8C0E0E9C0E0E5A8D2AFC2C7751C0083
:10146000A2E7A2E792AFD0E0F9D0E0F8D0D0D0E088
:101470003274F5121118EAFEEBFFEE2434F8EF3463
:1014800000F9880A890BEE2435F582EF3400F583E4
:10149000E0F8EE2437F582EF3400F583E0F50CEC4C
:1014A000850CF0A4FCAAF0850CF0EDA42AFDE82C34
:1014B000F8E43DF97A257B00120FCAEA850A828595
:1014C0000B83F0F8740758F97401B900028004C363
:1014D00033D9FCFAE8131313541FF8EE28F8EF344D
:1014E00000F9E8245DF582E93400F583E05A6008EC
:1014F000EE2434F582EF802CEE2434F582EF3400B4
:10150000F583E0C0E0EE2436F582EF3400F583E0A9
:10151000F5F0D0E084A8F0EE28F8EF3400F9E824E4
:1015200038F582E93400F583E0F97F040211C474D0
:10153000F5121118EAFEEBFFEE2434F582EF3400C9
:10154000F583E0C0E0EE2435F582EF3400F583D07A
:10155000E0F08E828F83A3A3A3A3A3A3A3C082C022
:10156000838E828F83A3A3A3A3A3E0F8A3E0F9D083
:1015700083D082E0C398F50AA3E099F50BEE247FAF
:10158000F582EF3400F583E064017069EE2480F5A4
:1015900082EF3400F583E0F8A3E0F98E828F83A315
:1015A000A3A3A3A3A3A3E0FCA3E0FD8E828F83A348
:1015B000A3A3A3A3E0FAA3E0FBC3EA9CEB9D501016
:1015C000C3EC98ED99402EC3EA98EB995027800E12
:1015D000C3EA98EB994007C3EC98ED9940177C82D9
:1015E0007D0CEEFAEFFB122EC5EE247FF582EF3470
:1015F00000F583E4F0EE2434F8EF3400F9E8FCE978
:10160000FDEE2435F582EF3400F583E0F8EE243763
:10161000F582EF3400F583E0F50CE50A850CF0A4C3
:10162000F50AAAF0850CF0E50BA42AF50BE8250ACB
:10163000F8E4350BF97A257B00120FCAEA8C828D0B
:1016400083F0F8740758F97401B900028004C333B9
:10165000D9FCFAE8131313541FF8EE28F8EF3400FE
:10166000F9E8245DF582E93400F583E05A6008EE7C
:101670002434F582EF802CEE2434F582EF3400F52B
:1016800083E0C0E0EE2436F582EF3400F583E0F528
:10169000F0D0E084A8F0EE28F8EF3400F9E8243820
:1016A000F582E93400F583E0F91222AB02152AC075
:1016B00082C083851A82851B83E0F8A3E0F9C3EA20
:1016C0009CEB9D5010C3EC98ED99401BC3EA98EB3E
:1016D000995014800EC3EA98EB994007C3EC98ED3B
:1016E000994004790180027900D083D08222EAC334
:1016F0009CFAEB9DFB2274EF121118900B48E064EA
:10170000086005E06407702A9061C8E06024900BCF
:1017100076E0F4601DE0F875F003A4C8AAF02AF999
:10172000747828FE740B39FF8E828F83A3A3A3E005
:101730007003021826906060E0C0E0EE2468F58235
:10174000EF3400F583D0E0F0750EEB750F0C750AE1
:1017500000750B00E5D914F50CE5D95403F51060BC
:101760001774036510605CE50C6010EE2467F58269
:10177000EF3400F583E0700302180B900CE6E06490
:1017800001602AEE2482F582EF3400F583E06004E4
:10179000780480027800850C0AE50AC398FA95E07F
:1017A000FB122D8D8A0A8B0BEA450B70051230C98E
:1017B0008074EE2482F582EF3400F583E070048AB1
:1017C0000E8B0FE50C6012850E82850F83F50DE5FB
:1017D000D9F0A3150DE50D70F6EE2482F582EF34F5
:1017E00000F583E0604474FC250CF50C780E1212B1
:1017F000BFAC0CA910EEFAEFFB122F6174021210AD
:101800006BE97026AA0AAB0B122649793D8E828FAE
:1018100083A3A3A3A3E0FA7B00122C61EEFAEFFBF3
:10182000122EDD122F7379008074740365106056D8
:10183000850C1275130078121212BFAC0EAD0FAAF0
:101840000AAB0B122F3D740212106BEE2468F58266
:10185000EF3400F583E064807004747F8001E0F56C
:101860000E780E1212C3E510F50E780E1212C3A9EF
:101870000CAC0AAD0B900B76E0FA7B00122C2574B1
:101880000212106B8013900B48E06408600BAC0EE2
:10189000AD0FEEFAEFFB122FCD1230D579017F0A92
:1018A0000211C474F512111874FC121055EAFEEB03
:1018B000FF890AA2AFE433F50BC2AF806AEE24635E
:1018C000F8EF3400F97A007B00A2AFE433F50CC2E4
:1018D000AF88828983E0FCA3E0FDEC4D603A88820A
:1018E0008983E0FAA3E0FB8A828B83E0FCA3E0FD1E
:1018F00088828983ECF0A3EDF08A828B83E4F0A3E5
:10190000F088828983E0FCA3E0FDEC4D700A8882B8
:101910008983A3A3E4F0A3F0E50CA2E092AF122622
:1019200049900C89E004F0EE2463F582EF3400F571
:1019300083E0F8A3E0F9E849603DEE2463F582EF27
:101940003400F583E02402FAA3E03400FBEA240229
:10195000F50CEB3400F50D780C1212BF8A828B83E4
:10196000E0FCA3E0F9EEFAEFFB122F017402121073
:101970006BE970030218BD900C89E06063900C8ADB
:10198000E0F8900C89E0C398500C7402650A70501E
:10199000900C8BE0604A8E828F83A3A3A3A3E08583
:1019A0001A82851B83F0A3E4F0900C89E0F874029E
:1019B0001210A0E8F0A3E4F0900C89E0F8900C88F5
:1019C000E028F074021210A0AC82AD83851A8285E3
:1019D0001B83AA82AB837901122C31900C89E4F02D
:1019E000E50BA2E092AF740412106B02152AFFFF00
:1019F0008521878522C622C0E0C0D0E8C0E0E9C0CA
:101A0000E0EAC0E0EBC0E0ECC0E0EDC0E0EEC0E03A
:101A1000C00AC00BC00CC00DC082C083C0F0A2AF12
:101A2000E433FEC2AF759B00906182E0A2E05012E9
:101A3000E591A2E0500C7591FE74016521700312CE
:101A400016F6E0A2E55051E591A2E5504B7591DF05
:101A5000900B48E064076005E0640870237401653A
:101A60002170357901900B76E0FA75F003A4CAA8CD
:101A7000F028FB74782AFA740B3BFB1218A3801829
:101A8000E0640D7013900B6AE004F064287002E4C7
:101A9000F07A00E0F91230DB906182E0A2E64003C8
:101AA000021B3EE591A2E64003021B3E7591BF90EA
:101AB0000B48E06405700812300312300F800312E7
:101AC0003009752100123069E9900B49F079001254
:101AD000305D122E3B7A017B00900B47E0F9122318
:101AE00013907803E064427055900CEAE014F070B3
:101AF0004DC2AF121AF600782AD0E0F618D0E0F600
:101B0000E59F54077005750BFF8003750B7FC4C0FC
:101B1000E07829E6F50A08E6550BF50B740B780A10
:101B2000121033D0E0250AF8906270E0A2E740F886
:101B3000E8C333906272F0906270E0D2E0F090619E
:101B400081E0A2E35009E5E9A2E3500375E9F7A3B8
:101B5000E0A2E75009E591A2E7500375917FEEA25C
:101B6000E092AFD0F0D083D082D00DD00CD00BD08B
:101B70000AD0E0FED0E0FDD0E0FCD0E0FBD0E0FAFF
:101B8000D0E0F9D0E0F8D0D0D0E032C0E0C0D0C092
:101B900082C083906183E0A2E05009E5BFA2E050DB
:101BA0000375BFFEE0A2E15009E5BFA2E150037555
:101BB000BFFDE0A2E25009E5BFA2E2500375BFFB02
:101BC000E0A2E35009E5BFA2E3500375BFF7E0A22E
:101BD000E45009E5BFA2E4500375BFEFE0A2E55071
:101BE00009E5BFA2E5500375BFDFE0A2E65009E5B5
:101BF000BFA2E6500375BFBFD083D0828088C0E00B
:101C0000C0D0E8C0E0E9C0E0EAC0E0EBC0E0ECC072
:101C1000E0EDC0E0C0F0E5A7A2E6500FE5A1A2E626
:101C2000500953A7BF75A1BF121C63E5A7A2E550D9
:101C30000CE5A1A2E5500653A7DF75A1DFE5A7A239
:101C4000E15009E5A1A2E1500375A1FDE5A7A2E2DB
:101C5000500CE5A1A2E2500653A7FB75A1FBD0F002
:101C6000021B7474F8121118752101900B48E0647E
:101C7000067015122F918A828B83A3A3A3A3A3A31B
:101C8000E0FAA3E0FB122FF1A2AFE433FED2AF9053
:101C90000B4EE0640170187A207B00900B47E0F94E
:101CA0001223BB7A207B00900B47E0F91223199096
:101CB0006182E0D2E6F0900CE7E0602185C62280E8
:101CC00016900B4DE064017008E5C654F84405F524
:101CD000C653BEFC1219F07401652160E4EEA2E067
:101CE00092AF7F010211C4FF8E238F248582288545
:101CF0008327851A82851B83E0CEA3E0CF852882C7
:101D0000852783EBC9EAC8EDCBECCA75F010C3E8B0
:101D100033C8E933C9EA33CAEB33CBC3EA9EF526AD
:101D2000EB9FF525B35004AB25AA26EC33CCED335D
:101D3000CDD5F0DAAE23AF242274E912111874F86D
:101D4000121055851A82851B83ECF0A3EDF08A0AE8
:101D50008B0B900B48E024F7C394055006750A01DD
:101D6000021ED0122F918A0C8B0DAE0CAF0DEE4FD0
:101D70007003021ECDAC0AAD0B74021210A0AA8231
:101D8000AB831230218E828F83A3A3750EFF750F54
:101D9000FF7510FF751100780E120EFF74021210FD
:101DA000A07512FF7513FF7514FF751500781212D8
:101DB0000EFF780E7912120CAB502A780E7912129F
:101DC0000EC4750A01750BC8750C00750D00780AF4
:101DD000790E120CAB5052850E0A850F0B85100C34
:101DE00085110D80507516017517C8751800751985
:101DF0000085120A85130B85140C85150D780A7958
:101E00000E120EC47816790A120CAB401C750A002B
:101E1000750B00750C00750D01780A7912120EC44D
:101E2000780A790E120E8B800C750A01750B0075FD
:101E30000C00750D007409780A120E6C750E19F5F8
:101E40000FF510F511780A790E120D6A8E828F83C4
:101E5000A3A3A3A3A3A3E0F8A3E0F97AD07B031282
:101E60000FCA880E890FE4F510F511780A790E1261
:101E70000E8B74061210A0E0F8A3E0F97AD07B0371
:101E8000120FCAE8FA8A0EE4F50F780A790E120CDE
:101E9000AB5007780A790E120EC4900B48E0640824
:101EA000600AE064066005E06405702D750E0D782B
:101EB0000E790A120CAB4021750EF4750FFF7510E8
:101EC000FF7511FF780A790E120E8B800C750A00CF
:101ED000750B00750C00750D00851A82851B83E05B
:101EE000F8A3E0F5838882780A120F347408121080
:101EF0006B7F100211C474F7121118123033900C5A
:101F0000E5E064017010906245E4F0A3F053F4F34F
:101F100043FE0C5390F3122FDFE5C654804449F57D
:101F2000C6E59E547F644970F8906185740FF09007
:101F30000CE3E0F47002A3E0604E900CE4E0600873
:101F400014601B14602E8040750A01750B00900C04
:101F5000E3E0780A121042E50AF45280802A750AFA
:101F600001750B00900CE3E0780A121042E50AF4C8
:101F700052908014750A01750B00900CE3E0780A0A
:101F8000121042E50AF452A079007F020211C474D3
:101F9000F7121118E9FEEAFF74016E700C7A807B6B
:101FA00000900B47E0F91223139032E4E493F460BD
:101FB00008E493F9122E2F800953C680E59E547FC2
:101FC00070FA122FE5900CE5E064017003122E47C1
:101FD000900CE3E0F47002A3E0604B900CE4E0604E
:101FE0000814601A14602C803D750A01750B00906E
:101FF0000CE3E0780A121042E50A42808028750A54
:1020000001750B00900CE3E0780A121042E50A42D9
:10201000908013750A01750B00900CE3E0780A12AA
:102020001042E50A42A0123033122F918A0A8B0B1C
:10203000A80AA90BE8496015E5E170FCE82414F54D
:1020400082E93400F583E0F46003E0F5E174016FA8
:10205000700A7A01900B47E0F9122385021F8A74F7
:10206000ED1211188A0A8B0B8C0C8D0D7413121043
:10207000A0780E120F25780A790E120CAB7512019A
:102080007513C87514007515005012780A790E1270
:102090000EC47812790A120CAB50168010780E79A3
:1020A0000A120EC47812790E120CAB40047901802A
:1020B0000279007F0C0211C474ED1211188A0A8B88
:1020C0000B8C0C8D0D74131210A0780E120F257846
:1020D0000E790A120CAB4011780A790E120EC4AABE
:1020E0000AAB0BAC0CAD0D80227512007513007598
:1020F00014007515017812790E120EC47812790A3F
:10210000120E8BAA12AB13AC14AD1580A68A828B6B
:1021100083750AFF750BFF750CFF750D00780A12A9
:102120000F127F040211C474F51211188C828D8372
:10213000780A120F258A828B83780A120ED8EA2435
:1021400004F8EB3400F98C828D83A3A3A3A3E0FCF5
:10215000A3E0FD88828983C3E09CF0A3E09DF08822
:10216000828983C3E09420A3E0944E40268A828B28
:1021700083750AFF750BFF750CFF750DFF780A124A
:102180000EB18A828B83A3A3A3A3E02420F0A3E053
:10219000344EF002210D74F5121118E9FE900C9DD9
:1021A000E0FAA3E0FBEEC333F8E433F974B228F5A8
:1021B00082748039F583E02AF50AA3E03BF50B78B9
:1021C0000A1212BF7A407B427C0F7D00121CE87419
:1021D0000212106B8A0A8B0B8C0C8D0D7410780A0E
:1021E000120E53AA0AAB0B7F040211C474F1121130
:1021F000188A0E8B0F8C108D11740F1210A0E0FA3C
:10220000A3E0FB74111210A0E0F50AA3E0F50B782F
:102210000A1212BFEA2401F50AEB3400F50BE4F5CB
:102220000CF50D780E790A120CEA750A71750B021D
:10223000780E790A120CEAAA0EAB0FAC10AD11128F
:102240001CE8740212106B8B0BEA450B60047A01D8
:1022500080027A00EC2AFCED3400FD74131210A009
:10226000E0F8A3E0F9E8FEE9FFECF8EDF97A717B1C
:1022700002120FCA880A890B8E828F83780A120F86
:1022800034ECF8EDF97A717B02120FCA8A0A8B0BD3
:102290007405780A1210428E828F83A3A3A3A3E54C
:1022A0000AF0A3E50BF07F080211C4C082C083E9E5
:1022B000906000F0D083D08222120C8184F206124A
:1022C0000C818EF206120C81CCF206120C8115F3F1
:1022D00006120C814FF306120C81A9F306120C8131
:1022E000CAF306120C81D3F306120C8120F40612F5
:1022F0000C8149F406120C8153F406120C81BFF4D0
:1023000006120C8151F506120C819BF506120C8108
:10231000D1F506120C815DF606120C819EF60612AE
:102320000C81D5F606120C81E7F606120C8106F731
:1023300006120C810FF706120C81DCF706120C81D5
:102340007C8E07120C81738F07120C818D8F071200
:102350000C819E8F07120C81BD9107120C81DC91BC
:1023600007120C810CB607120C8142B607120C81C1
:1023700078B607120C81C3B707120C81DAC50712B1
:102380000C81F0C507120C81FAC507120C8144C6F6
:1023900007120C8176FF06120C81239307120C8121
:1023A000389307120C81E89307120C8128940712C6
:1023B0000C81419407120C817C9407120C81C99402
:1023C00007120C81FB9407120C813D9507120C81BA
:1023D0003E9707120C81A3C207120C81CCC20712D0
:1023E0000C81FBC207120C8113C307120C8155C369
:1023F00007120C816AA007120C819AA007120C81A7
:10240000ADA007120C81DCA007120C81FBA0071203
:102410000C81A6A107120C813FA207120C81C8A251
:1024200007120C81D4A307120C81CDFF05120C8179
:10243000CAC607120C81E3E904120C8148EC0412AD
:102440000C81E9ED04120C819DEE04120C8130EF39
:1024500004120C81B5EF04120C81DAEF04120C8126
:1024600030F304120C81B6F304120C81E9F4041267
:102470000C8123F504120C8158F504120C8118F715
:1024800004120C8175F704120C81BEF704120C8142
:1024900029F804120C819AF804120C81CCF8041269
:1024A0000C81E4F804120C812DFA04120C813DFA1F
:1024B00004120C8158FB04120C817AFB04120C816B
:1024C000B0FB04120C8164FD04120C81F1FD0412B6
:1024D0000C8130FE04120C8154FF04120C81AFC138
:1024E00007120C81BFC107120C8151C207120C8167
:1024F00078C207120C8198C207120C8120C70712FC
:102500000C815FC707120C8169C707120C8174C761
:1025100007120C81E73F00120C817EC307120C8169
:102520008EC307120C81A0C307120C8152C407127C
:102530000C81ABC007120C8130C107120C8196C10F
:1025400007120C81C9B307120C81F1B307120C8179
:1025500021B407120C8180B407120C81CEB407128B
:102560000C8108B507120C813CB507120C8198B597
:1025700007120C8159BE07120C8183BE07120C8111
:10258000E6BE07120C81F8BE07120C8148BF071285
:102590000C8186BF07120C8189BF07120C8180C78E
:1025A00007120C8190C707120C8193C707120C8188
:1025B000F83F00120C8131FD06120C81CCFE061290
:1025C0000C812DFF06120C8173FF06120C81008016
:1025D00007120C813A8007120C81578007120C8178
:1025E000348107120C81BE8107120C81AB82071265
:1025F0000C81DF8307120C81048407120C816D8427
:1026000007120C81C88407120C81C7EB06120C81DB
:1026100004EC06120C811FEC06120C81F0EC061281
:102620000C81DEED06120C8146EF06120C81B8EF2C
:1026300006120C81A0F006120C8127F106120C8103
:1026400040F206120C815CBB07120C81AEBB071274
:102650000C8138BC07120C819FBC07120C8184B11D
:1026600007120C81AEB107120C817CB207120C81EB
:1026700057B307120C81E8D406120C81AFD50612AD
:102680000C81E6D506120C8110D606120C8170D68C
:1026900006120C81C6D606120C812BD706120C81AD
:1026A000C3D706120C81D2D806120C8169DA061241
:1026B0000C81F6DA06120C815DDB06120C8174DBEC
:1026C00006120C818EDC06120C81CCDC06120C8109
:1026D0002F8E06120C81B09106120C8138930612CF
:1026E0000C818F9306120C81AE9306120C812C94F0
:1026F00006120C81C29506120C81A79606120C8157
:10270000B59A06120C818B9B06120C8100B0041244
:102710000C8111B404120C81DAB704120C818AB94D
:1027200004120C815EBA04120C819EBA04120C8150
:10273000A6BC04120C815BBD04120C8189BD04127D
:102740000C814ABE04120C8179BE04120C81C9BEF0
:1027500004120C81FFBF04120C81A0C904120C8169
:10276000FACB04120C8183CD04120C81FFCD04122C
:102770000C8117CE04120C8141CE04120C8172CE52
:1027800004120C81A2CE04120C81E3CE04120C813F
:10279000FBCF04120C819DD004120C81FDB70712EF
:1027A0000C8114B807120C8145B807120C8180B84F
:1027B00007120C81AAB807120C81D4B807120C8139
:1027C000EBB807120C8102B907120C8119B9071274
:1027D0000C8142B907120C8155B907120C816BB9F3
:1027E00007120C817EB907120C81A5B907120C8162
:1027F00045C206120C8149C306120C8181C3061220
:102800000C81A4C306120C81AFC306120C81D2C383
:1028100006120C81E1C406120C81B6C506120C81A9
:1028200031C606120C81B9C606120C81F4C6061216
:102830000C812BC706120C81B9C706120C8192C8F5
:1028400006120C81F2C806120C81FDC806120C811A
:102850007CC906120C817FC906120C8182C906123E
:102860000C8111CA06120C8114CA06120C8144CACA
:1028700006120C816ECA06120C815CCB06120C810A
:102880000ECC06120C81168507120C813E850712AC
:102890000C816C8507120C81A38507120C810186BF
:1028A00007120C814C8607120C81978607120C8147
:1028B000D78607120C811D8707120C814B870712E0
:1028C0000C81088807120C81128807120C811F885E
:1028D00007120C81528807120C811E8907120C8185
:1028E0002A8907120C81428907120C814C89071230
:1028F0000C8158C407120C8166C407120C817EC477
:1029000007120C8196C407120C8170E205120C812B
:102910001CE305120C8197E305120C81B8E4051243
:102920000C81F4E405120C819DE505120C8184E60E
:1029300005120C81E8E705120C813FE805120C81B5
:10294000C0E805120C81B0E905120C81FDE9051201
:102950000C8183EA05120C81B5EA05120C81C9ECE1
:1029600005120C810BED05120C8129ED05120C816D
:10297000ACED05120C8180EE05120C8148EF0512BA
:102980000C81A4E406120C8177E506120C8120E686
:1029900006120C8173E606120C8123E706120C81E5
:1029A000AFE706120C819BE806120C81CAE80612FA
:1029B0000C81DDE906120C8125EA06120C81FAEA87
:1029C00006120C8136EB06120C8152EB06120C81BA
:1029D00079FF04120C811FA807120C8135A8071279
:1029E0000C815BA807120C8177A907120C8181A9C1
:1029F00007120C81B6AA07120C81AEAB07120C812C
:102A00000AF806120C813AF906120C816DF90612C9
:102A10000C81B7F906120C817EFB06120C811FC3D4
:102A200005120C8189C305120C81E8C405120C81C2
:102A3000F8C405120C8125C505120C817CC5051250
:102A40000C8125C605120C812CC705120C81F6C716
:102A500005120C8156C905120C8199C905120C8109
:102A60003ECA05120C818BCA05120C81B1CA05122F
:102A70000C81BFCC05120C81C4CC05120C81C9CECF
:102A800005120C8116CF05120C8189CF05120C811D
:102A9000BCCF05120C815ED005120C8107D1051246
:102AA0000C813FD105120C8142D105120C818AD1D3
:102AB00005120C81CAD105120C8121D205120C819C
:102AC000B1AE07120C81C9AE07120C8111AF07120B
:102AD0000C8127AF07120C816EAF07120C8182B0F8
:102AE00007120C810FB107120C815AB107120C8129
:102AF000E2D004120C81EED004120C8129D1041210
:102B00000C816ED104120C812ED204120C81B4D22D
:102B100004120C8119D304120C8145D304120C81C8
:102B20007ED304120C81BCD504120C81A0D70412F0
:102B30000C8186D904120C81C9DA04120C8117DDCC
:102B400004120C8129DE04120C8174DF04120C8142
:102B500084E004120C81A1E004120C81DCE0041278
:102B60000C81FEE004120C8161E104120C8122E66A
:102B700004120C81B7E604120C8108E704120C81E0
:102B80002FE704120C8181E704120C819FE70412E5
:102B90000C81F9E704120C81F8E804120C817CE93D
:102BA00004120C81D38907120C81DD8907120C8174
:102BB000208A07120C813B8A07120C81CB8A0712EC
:102BC0000C81F38A07120C81308B07120C81678B02
:102BD00007120C81908B07120C81058C07120C8157
:102BE0001A8C07120C812F8C07120C81608C071233
:102BF0000C81748C07120C81998C07120C81D38C78
:102C000007120C81FF8C07120C81378D07120C8183
:102C1000B68D07120C81FF8D07120C81298E0712C9
:102C20000C81548E07120C8192BF07120C81E8327E
:102C300000120C81163300120C81643400120C81D6
:102C4000443500120C81633500120C81E03500120E
:102C50000C81233600120C81793700120C813A382E
:102C600000120C81C13A00120C81623B00120C81EF
:102C7000583C00120C81553D00120C81AF3E0012F1
:102C80000C813A3F00120C81FEBC07120C8167BD1B
:102C900007120C81BBBD07120C81E2BD07120C812B
:102CA00013BE07120C81B09707120C811D980712F2
:102CB0000C81649807120C817C9907120C81789A18
:102CC00007120C815B9B07120C817FCC06120C81D2
:102CD000C1CC06120C8193CD06120C816CCE06126B
:102CE0000C8166CF06120C8148D006120C81B1D03F
:102CF00006120C8167D106120C81DBD106120C8101
:102D000047D206120C8170D206120C81EAD206124A
:102D10000C8183D306120C81E8D306120C81FDD3FB
:102D200006120C8143D406120C815CD406120C816D
:102D3000C1D406120C81C4D406120C81B8AB0712A0
:102D40000C81E0AB07120C811EAC07120C81DCACCD
:102D500007120C8143AD07120C815FAD07120C8185
:102D600087AD07120C81B7AD07120C81C6AD0712F3
:102D70000C8143AE07120C8169AE07120C810ED391
:102D800005120C81ECD405120C811ED705120C81A2
:102D90005AD705120C8187D705120C8171D80512FC
:102DA0000C81BCD805120C8107D905120C8119D9E8
:102DB00005120C8159D905120C818ED905120C818E
:102DC000DCD905120C810BDA05120C812EDA051202
:102DD0000C817BDA05120C8100DB05120C811ADDF7
:102DE00005120C8159DF05120C819ADF05120C8146
:102DF0003CE105120C817DE105120C81F0E1051228
:102E00000C8146E205120C8102AA06120C8100AB6D
:102E100006120C8199B106120C81BAB306120C810C
:102E200085B506120C81EDB606120C81F5810512EE
:102E30000C81A48205120C81D18205120C811783AA
:102E400005120C81578405120C81ED8505120C8149
:102E5000678605120C81828605120C81FD8605129B
:102E60000C81578805120C81B78905120C81BD8A27
:102E700005120C811E8C05120C81378C05120C81F9
:102E8000958C05120C81838D05120C81B68D05126F
:102E90000C81268E05120C81A08E05120C81EA8E03
:102EA00005120C81B48F05120C81899005120C81DA
:102EB000689105120C81F39105120C816192051243
:102EC0000C81D59205120C81009305120C81BF93E1
:102ED00005120C81249505120C81419505120C8177
:102EE000609505120C81519605120C81769605129B
:102EF0000C81A09605120C811B9705120C81759709
:102F000005120C81DE9805120C818C9905120C813A
:102F1000CD9905120C812E9C06120C817C9C061208
:102F20000C81889C06120C81669D06120C81979D6F
:102F300006120C81C89D06120C81489E06120C8157
:102F4000809E06120C81D29E06120C810F9F0612E3
:102F50000C812CA106120C8152A306120C813DA5F6
:102F600006120C8127A706120C81FDFF04120C81AA
:102F70000CAF05120C813CAF05120C8115B6051281
:102F80000C819AB705120C8197BD05120C817FBE8A
:102F900005120C81BCBE05120C81DFBE05120C812E
:102FA00010BF05120C8119BF05120C8123BF051239
:102FB0000C8111C005120C8107C105120C81FD990D
:102FC00005120C81FC9D05120C81029E05120C81DC
:102FD0003DA505120C8156AA05120C8151A40712B9
:102FE0000C81E7A407120C81FDA407120C8173A5C4
:102FF00007120C81E7A507120C8125A607120C8188
:1030000099A607120C8112A707120C811BA70712A1
:103010000C8127A707120C813CA707120C817AA705
:1030200007120C8190A707120C81EFA707120C81E1
:103030001D9C07120C812A9C07120C81449C0712CC
:103040000C81839C07120C81C19C07120C81269D68
:1030500007120C813B9D07120C81469D07120C81C3
:10306000539D07120C816A9D07120C81789D0712EF
:103070000C81839D07120C818F9D07120C819E9DF0
:1030800007120C81A99D07120C81CC9D07120C819F
:10309000739E07120C81839E07120C819D9E07125E
:1030A0000C81BA9E07120C81D69E07120C81FB9EE2
:1030B00007120C81069F07120C811B9F07120C81BF
:1030C0002F9F07120C81909F07120C81969F071269
:1030D0000C819C9F07120C81A29F07120C81BA9F42
:1030E00007120C81ED9F07120C81058006120C81DE
:1030F000898006120C81388106120C819782061293
:103100000C81B88406120C81A48506120C81D98525
:1031100006120C81FB8506120C81AA8606120C8110
:10312000A28806120C81CB8806120C815D890612DA
:103130000C818F8906120C819C8906120C81F389FF
:1031400006120C81198A06120C81868C06120C81DB
:10315000898D06120C81E18D06120C8161F1051238
:103160000C816BF205120C8152F305120C815CF399
:1031700005120C817EF305120C818AF305120C8175
:1031800023F505120C8152F505120C816EF605121D
:103190000C81C7F605120C812DF805120C810CF973
:1031A00005120C8168F905120C81D5F905120C8104
:1031B00010FA05120C814FFA05120C8108FD051258
:1031C0000C8122FD05120C81AEFD05120C81BCFDA7
:1031D00005120C8115FE05120C8123FE05120C81CF
:1031E00096FE05120C81FAFE05120C8144FF0512B1
:1031F0000C8117B706120C8139B706120C815FB922
:1032000006120C8174BC06120C818CBD06120C8156
:103210003FBE06120C8121BF06120C81B7B90712FE
:103220000C81DCB907120C814EBA07120C812ADD21
:1032300006120C8133DD06120C813CDD06120C8176
:1032400013DE06120C81C4DF06120C81FADF0612AF
:103250000C8134E006120C816AE006120C81A4E0B5
:1032600006120C81D8E006120C8104E106120C81D2
:103270004DE106120C8187E106120C81D0E10612A5
:103280000C8128E206120C815DE206120C81B8E284
:1032900006120C81F2E206120C8143E306120C8145
:1032A00079E306120C81B3E306120C81E1E3061206
:1032B0000C8104E406120C812FC507120C815BC53A
:1032C00007120C81B6C507120C81C0C507120C810C
:1032D000D0C507120C81BB3F00120C81D5FF06FF41
:1032E000FFFFFFFFFFFFFFFFC082C083900ACB7488
:1032F000FFF0A3F0A3F0A3F0A3F0A3749FF0A3E466
:10330000F0A37420F0900ACA14F0D083D082020C8B
:103310007E7F0202117E74EE1210AC890CEAFEEB85
:10332000FF8C0A8D0B900EE3E0600302342EE9332C
:103330003354FC04F50D7407250DFA7B001222E3CB
:103340008A0E8B0FAC0EAD0FEC4D700302342E8C39
:10335000828D837401F0A374FFF0EC2402F8ED3445
:1033600000F9880E890FEC2404F8ED3400F9850E7D
:1033700082850F83E8F0A3E912344F740412344FAE
:10338000A3741312345EE50D12345EA3E50CF075E0
:103390000D00023418850D82858210751100E5102C
:1033A000C333FAE433FBEE2AF8EF3BF988128913B2
:1033B00074027810121042A810A911851282851388
:1033C00083E0F510C010123438D0E0F08512828509
:1033D0001383A3E0F510C010123433D0E0F0E50AF7
:1033E0002AFAE50B3BFB8A828B83E0F510C01012B2
:1033F0003433A3D0E01237EDA3E0C0E0850E828520
:103400000F83E028FAA3E0398A82F583A3A3A3A35C
:10341000A3A3A3D0E0F0050DE50DC3950C50030266
:103420003395ECFAEDFB900EE0E0F91222EF7F0A03
:1034300002117E123438A322850E82850F83E02884
:10344000F510A3E039851082F583A3A3A3A322126C
:10345000345322F0850E82850F83123832221234C3
:1034600053A3A32274EE1210AC8A0A8B0B890D8C25
:10347000108D11900EE2E07009900EE4E0700302EE
:103480003530900AC5E06003023530898285820EAE
:10349000750F00E92407FAE43400FB1222E38A12D4
:1034A0008B13AE12AF13EE4F7003023541741865E3
:1034B0000A70047420650B600C7417650A7004743C
:1034C00020650B7010900EE4E0600AF50C8E828F80
:1034D000837492800C900EE2E0F50C8E828F8374E0
:1034E00091F0A3740E12361D8E828F83A3A3F08EEB
:1034F000828F83123C4DEE2405F8EF3400F9E8FA90
:10350000E9FBEE2407F8EF123807F0780E1212BF2D
:10351000AC10AD118A828B83E0FAA3E0FB1222BFCC
:10352000740212106BEEFAEFFBA90C1222EF80115D
:1035300078101212BFAC0D790E122C4F74021210BB
:103540006B02342E74F61210ACE9FE8C0A8D0B78E7
:103550000A1212BFEEFC79FF122C4F740212106B8C
:1035600002331174F51210AC890CEAFEEBFF900ED9
:10357000E2E0603C900AC5E070367A067B001222D9
:10358000E3EA4B603A8A828B837491F0A3740F1242
:103590003B47E50C12361D8A828B83A3A3A3123C02
:1035A00023EEF0A3EFF0900EE2E0F91222EF800F8D
:1035B000EEFCEFFD890AAA0A7B00790F122C497FE5
:1035C0000302117E123F17FCA3E0F5838C82740482
:1035D0001235DCFCA3E0F5838C82A322123F332258
:1035E00074F71210AC74FC121055EA851A82851B10
:1035F0008312361DC0E074011210A0D0E0F07402F6
:103600001210A0ECF074031210A0ED123FAF7A0478
:10361000122C55740412106B7F0102117EF0900A77
:10362000C9E02274F21210AC890B8A0C8B0D8C0A43
:103630007407250AFA74FF650B600478038002782A
:1036400002E82AFA7B001222E38A0E8B0FAE0EAF3D
:103650000FEE4F70030237458E828F837401F0A303
:1036600074FFF0EE2402FAEF3400FBEE2404F8EFCE
:103670001237F7E50B1237EDE02402F8A3E034002F
:10368000F9890FA90D740E1210A0123A4874FF6543
:103690000B60327403250A8882850F8312361DC0A1
:1036A000E012374AD0E0123772E50C123772A3E904
:1036B000F0850A0C750D00780C1212BF8A828B837C
:1036C000E0240680667402250A8882850F83F08CC8
:1036D000828D83E0C0E012374AD0E0F08C828D8387
:1036E000A3E0C0E012375ED0E0F08C828D83A3A30C
:1036F000E0C0E012375EA3D0E012376D2406123727
:103700006312376D123D1BE9F0850A0CE50C24FDB0
:10371000F50CE434FFF50D780C1212BFEC2403FC19
:10372000ED3400FD8A828B83E02408FAA3E03400A4
:10373000FB1222BF740212106BEEFAEFFB900EE048
:10374000E0F91222EF7F0602117E12374E228A82A2
:103750008B83E0F8A3E0F5838882A3A3A32212372A
:103760004EA322F582E83400F583E50C22123813CB
:10377000C822123820A3A3A32274F21210AC890C21
:103780008A0DECFEEDFF7407250DFA7B001222E393
:103790008A0A8B0BEA450B6051123A95EB34000A0A
:1037A0000AFBE50A2404F8E50B1237F7E50C12379B
:1037B000ED12382EA3A3E50DF06023F50E750F0072
:1037C000780E1212BFEEFCEFFD8A828B83E0240399
:1037D000FAA3E03400FB1222BF740212106BAA0A93
:1037E000AB0B900EE0E0F91222EF0237451237F1F1
:1037F00022F08A828B8322123807123813F58388CD
:10380000827404123820223400F98A828B83E8F013
:10381000A3E92212381722F08A828B83123ABC2243
:10382000123817F5838882A3227F1002117E123886
:103830003222123ABCF58388822274E81210AC89D5
:1038400019EAFEEBFF8C188D1574181210A0123AAD
:10385000BCF974181210A0E8F0A3E9F0741A121061
:10386000A0E0F50EA3E0F50F741C1210A0E0F50A1D
:10387000A3E0F50B741E1210A0123C1B7420121052
:10388000A0E0F514900EE2E070030239457A157B52
:10389000001222E38A108B11EA45117003023A45A7
:1038A000123A817401F0EA2408FAEB3400FBE510C7
:1038B0002403F582E511123D20E519701EE4F07530
:1038C0001206F51378121212BF741A1210A0123ACF
:1038D000481222BF740212106B800C7431F07C0607
:1038E0007D0079001222D7851082851183A3A3A3BE
:1038F000A3EEF0A3EF123A57E518123A57A3E515D5
:10390000F0E510240EF582E511123D20123C2CE565
:10391000102410F582E511123D20123C50E51024D0
:1039200012F582E511123766F0A3E50DF0E51024DB
:1039300014F582E511123D20E514F0AA10AB1190A8
:103940000EE2023A40900AD2E0A2E54003023A4574
:10395000900ACAE0A2E04003023A457A1A7B0012BC
:1039600022E38A128B13EA45137003023A45123A96
:1039700095F510EB3400F511123A4E851082851141
:1039800083E8F0A3E9123A657404123A65A3743E21
:10399000123A6D7413123A6DA37401123A7BE51951
:1039A000123A7BA3EE123AA82406123D1DEF123AFA
:1039B000A8123D1BE518123AA82408123D1DE51572
:1039C000F075160675170078161212BF741A1210C9
:1039D000A0123A48851082851183E02409FAA3E0F9
:1039E0003400FB1222BF740212106B123D10240F20
:1039F000123D1DE50EF0E50FF50E123D10241012DC
:103A00003D1DE50E123AA82411123B3DF0E50BF5E1
:103A10000A123D102412123B3D123AA82413123709
:103A200063F0E50DF50C123D102414123763123AC1
:103A3000A82415123D1DE514F0AA12AB13900EE058
:103A4000E0F91222EF023829E0FCA3E0FD22EA248B
:103A500004F8EB3400F922F0851082851183A3A3CA
:103A6000A3A3A3A322123AADF583888222123A714E
:103A700022123AB1F5838882A3A322123A71A3A33A
:103A8000228A828B837491123A8B22F0A3743E12A5
:103A900037F1A3A322123A99228A828B837401F010
:103AA000A374FFF0EA240222123AADC822123AB1FE
:103AB00022F0851082851183123ABC22E0F8A3E03F
:103AC0002274F41210ACEAFEEBFF890A900EE2E0D9
:103AD00060277A067B001222E3EA4B605D8A828BC4
:103AE000837491F0A37405123B47E41237ED123C46
:103AF00034E50AF0900EE2803C900ACBE0A2E4505C
:103B0000397A0B7B001222E3EA4B602E1235C47423
:103B100005123B4B7404123B4BA3E4123B5CEE12C8
:103B20003B5CA3EFF088828983123D162406123B8A
:103B30003DF0900EE0E0F91222EF023F02F582E83C
:103B40003400F583E50A22123A8F22123B4F2212EB
:103B50003F33FCA3E0F5838C82A3A322123B4FA347
:103B6000A32274F01210AC8A0A8B0BECFEEDFF74EA
:103B7000101210A0123C1B74121210A0E0F50EA33C
:103B8000E0F50F900EE2E06045900ACAE0A2E24044
:103B900003023C167A0C7B001222E3EA4B60771298
:103BA0003A817403123B47A3E4F0123C488A828BAB
:103BB00083A3A3A3123C34A3A3A3E50CF0A3E50DB8
:103BC000123C23A3A3A3123C29900EE28043900A47
:103BD000D2E0A2E55040900ACAE0A2E250387A1141
:103BE0007B001222E3EA4B602D123F07743EF0A3E4
:103BF000740AF0A37403F0A3E4F0123C4FA3EEF0B8
:103C0000A3EFF0A3E50CF0A3E50DF0123C2B900E12
:103C1000E0E0F91222EF7F0802117EE0F50CA3E04C
:103C2000F50D22123A8FA3A322A3A3A3E50EF0A3BE
:103C3000E50FF022123C3822A3A3A3EEF0A3EF126B
:103C400037F1A3A3A3A3A3228A828B83A3A3A3A355
:103C5000E50AF0A3E50BF02274F41210AC890AEA2D
:103C6000FEEBFF8C0B900ACCE0A2E34003023D0D7B
:103C70007A0F7B001222E3EA4B7003023D0D123AE9
:103C800095F50CEB3400F50D123A4E850C82850D3E
:103C900083E8F0A3E9123D257404123D25A3740CBA
:103CA000123D2D7408123D2DA3E50A123D3BEE1284
:103CB0003D3BA3EF123D412406123D1DE50BF07480
:103CC0000C1210A0123A48850C82850D83123D1605
:103CD000123D1BEC123D412408123D1DEDF0740E07
:103CE0001210A0123ABCF9850C82850D83E0FCA36A
:103CF000E0CC2409F582EC123D20E8123D41240A73
:103D0000123D1DE9F0900EE0E0F91222EF023F02B1
:103D1000851082851183123ABCC8222407F582E8F7
:103D20003400F58322123D46F583888222123D310C
:103D300022123D4AF5838882A3A322123D31A3A318
:103D400022123D46C822123D4A22F0850C82850D82
:103D500083123ABC2274EC1210AC8A0E8B0F8C10BA
:103D60008D1174141210A0123C1B850C82F583A3D4
:103D7000858212858313900EE4E0607A7A0F7B00CF
:103D80001222E38A0A8B0BAE0AAF0BEE4F700302CE
:103D90003EAA8E828F837492F0A3743EF08E828F3F
:103DA00083A3A37405F08E828F83123C29750A08C1
:103DB000750B00780A1212BFAC10AD11EE2405FA93
:103DC000EF3400FB1222BF740212106B850C828547
:103DD0000D83E0FA851282851383E0F9EAF8EE2478
:103DE0000DF582EF123D20E8F0A3E9F0EEFAEFFBCB
:103DF000900EE4023EA5900AD2E0A2E55008900A97
:103E0000CAE0A2E44006122DF9023EAA7A147B0011
:103E10001222E38A0A8B0BEA450B7003023EAA12B8
:103E20003A95F8EB3400F9EA2404FAEB3400FB8805
:103E3000828983EAF0A3EB1235DCFEA3E0FF8E82D9
:103E40008F837404F0A3743EF0A3740DF0A3740583
:103E5000F0123C2BA3AE82AF83750E08750F00786D
:103E60000E1212BFAC10AD11EEFAEFFB1222BF74AE
:103E70000212106BEE2408FEEF3400FF850C8285E1
:103E80000D83E08E828F83F085120C85130DA30EB7
:103E9000AF83850C82850D83E08E828F83F0AA0A22
:103EA000AB0B900EE0E0F91222EF7F0C02117E7452
:103EB000F41210ACEAFEEBFF890A8C0B900EE4E0E2
:103EC00060167A077B001222E3EA4B6035123F97B7
:103ED000E50BF0900EE48025900ACBE0A2E750229B
:103EE0007A0B7B001222E3EA4B6017123F0774083B
:103EF000F0A37404123F8C123C52900EE0E0F912D1
:103F000022EF7F0402117E123F17F8A3E0F98882A6
:103F100089837404F0A322123A99F8EB3400F9EA89
:103F20002404FCEB3400FD88828983ECF0A3ED12BD
:103F30003F3322F088828983E02274F41210ACEAC5
:103F4000FEEBFF890A900EE4E060167A077B001210
:103F500022E3EA4B6033123F977401F0900EE48045
:103F600023900AD0E0A2E750207A0A7B001222E3D5
:103F7000EA4B6015123F077430F0A37403123F8CB4
:103F8000F0900EE0E0F91222EF023F02F0A3E50A02
:103F9000F0A3EEF0A3EF228A828B837492123A8B05
:103FA00074081237F1123C38E50A123C3FA322F0A4
:103FB000851A82851B83AC82AD8322C082C0838533
:103FC0001A82851B83E0F8A3E0F9E84960128A822F
:103FD0008B83ECF0A3E824FF18E934FFF94870F272
:103FE000D083D082020C7E7403F5D575D47274032D
:103FF000F5D375D27A020C7E851C87C2AF020C7E87
:020000040002F8
:1030000074F61210AC74C4121055E99009E6F0126F
:10301000274B9080A1C082742B1210A0AC82AD838C
:10302000758380D0827411120F6874211210A0AAC7
:1030300082AB83122D9974231210A012B3FC1210CC
:10304000A012B3EFC0E0740D1210A0D0E012B40AC9
:103050001210A012B3EFC0E0740E1210A0D0E0F076
:1030600074221210A012B3FC1210A012B3EFC0E031
:10307000740F1210A0D0E012B40A1210A012B3EF15
:10308000C0E074101210A0D0E0F074211210A0E083
:1030900012B4031210A012B3EFC0E074111210A00A
:1030A000D0E0F074211210A0E012B4041210A012AB
:1030B000B3EFC0E074121210A0D0E0F0750A0675EC
:1030C0000B00780A1212BF740F1210A0AC82AD83ED
:1030D0007AC37B101222BF740212106B780A12128C
:1030E000BF740F1210A0AC82AD837AE77B1012225E
:1030F000BF740212106B7C067D007A1F7B001228C1
:1031000083740C1210A07401F0741F1210A0E4F06C
:10311000A3F0740B1210A07401F0741D1210A074AF
:1031200020F0A37403F0741B1210A074B0F0A37409
:1031300004F074191210A07404F0A3E4F0741712D0
:1031400010A07488F0A37413F0740C1210A0AC8259
:10315000AD8379017A057B031226CD741F1210A06E
:10316000AC82AD8379027A067B031226CD7CB77DD3
:1031700010791B7A087B031226CD7CD27D10790B47
:103180007A077B031226CD740B1210A0AC82AD839C
:1031900079017A107B031226CD741D1210A0AC8227
:1031A000AD8379027A117B031226CD741B1210A015
:1031B000AC82AD8379027A127B031226CD74191288
:1031C00010A0AC82AD8379027A137B031226CD74F2
:1031D000171210A0AC82AD8379027A147B031226F9
:1031E000CD7CDD7D107A1579001229FD7C407D1F94
:1031F0007A067B001228837C407D1F7A077B0012B1
:1032000028837C407D1F7A087B001228837C407DC8
:103210001F7A097B0012288374271210A012B9812B
:10322000740A1210A07401F074091210A07401F055
:1032300074081210A0E4F074071210A07401F07466
:10324000271210A0AC82AD8379047A087B04122483
:1032500033740A1210A0AC82AD8379017A007B042A
:1032600012243374091210A0AC82AD8379017A0262
:103270007B0412243374081210A0AC82AD83790150
:103280007A037B0412243374071210A0AC82AD833E
:1032900079017A067B04122433908196120F43122F
:1032A0002A03908196120F43122B11908196120FD0
:1032B000431225CB1223F112260774151210A074A5
:1032C00003F0A3E4F074131210A07469F0A3E4F007
:1032D00074151210A0AC82AD837A0279041225D73E
:1032E00074131210A0AC82AD837A0279001225D734
:1032F00074061210A0740AF0AC82AD837A017901D1
:103300001223FD9009E6E0F91223DF75FDF675F34F
:103310000175FEFB75F40075FFFF75F5001227338C
:103320001227871227817AFB7B101225D17A217B05
:10333000271223F71224217AA67B0412279312273F
:103340008D7901122C077A107B009009E6E0F912C2
:1033500023137A8179501225479081C2C082851A41
:1033600082851B83AC82AD83758381D08274021207
:103370000F68851A82851B83AA82AB837902122586
:103380005374021210A0AA82AB83790412254D74E3
:10339000021210A0E0F4700974031210A0E0F460AF
:1033A0002674031210A0E0F974021210A0E0900934
:1033B000E912BC9574051210A0E0F974041210A073
:1033C000E09009EB12BC95122745851A82851B8374
:1033D000EAF0A3EB12BA4C7A0279041225D77A01EB
:1033E0007B009009E6E0F9122313743C02BEC1E5AC
:1033F0008228F582E5833400F583E022E0F50A12A5
:10340000B40322C4540FF8742B22F0E50A12B4045A
:103410002274F41210AC74F7121055EAFEEBFF544C
:103420008060239009E6E0F91222FB8A0A8B0BEAFE
:10343000450B600A122715AA0AAB0B1222E9EEFA15
:10344000EF648002B7C9EEA2E0400302B4F4900A30
:1034500022E0703F7AF77B101226D97A237B0A127A
:103460002451851A82851B837401F0AC82AD83F9E7
:103470007A057B031226CD90817E1212D27A027BCE
:10348000009009E6E0F91223AF740412106B9081EA
:103490007A802B6401703DC290C291C296C297C2DD
:1034A000A0C2A1C281C282C284C285C286C28790E4
:1034B000049674FFF0A3740FF0D293908156121209
:1034C000D27A017B009009E6E0F91223AF7404126E
:1034D000106B8014E0640270151227337A017B00B0
:1034E0009009E6E0F91223BB900A22E004F0EE64B2
:1034F0000102B757541060557A81791D122547741F
:10350000011210A0E412BFF7122565851A82851BEF
:1035100083AA82AB83790112256B851A82851B836E
:10352000E0543FF06004F9122751900A21E070172F
:103530009010F31212D27A107B009009E6E0F91293
:1035400023AF740412106BEE641002B757EE5408E8
:1035500060289009E7E06405701A1224039081B294
:103560001212D27A087B009009E6E0F91223AF74B8
:103570000412106BEE640802B757EE540260281272
:10358000272790049DE06401701790817E1212D26B
:103590007A027B009009E6E0F91223AF740412105E
:1035A0006BEE640202B757EE5480700302B641908E
:1035B0000A17E06403707F900A187401F01223491F
:1035C0008A0A8B0B8C0C8D0D780A1212BB740612B2
:1035D00010A0AA82AB8312234F740412106B7404E0
:1035E0001210A0E0F9C3940C400474F429F975F0AA
:1035F0000574031210A0E0849010F2F069700CE0E2
:10360000640B7004740A8002E004F07A0012273917
:1036100012273F90817A1212D27A007B029009E63B
:10362000E0F91223AF740412106B7A007B04900946
:10363000E6E0F91223BB900A17E4F0EE648002B7CB
:1036400057EF5401600B12273FEEFAEF640102B707
:10365000C9EF540260277A007B019009E6E0F91275
:1036600023BB122733900A19E4F09010F2740DF086
:10367000900A18E4F0EEFAEF640202B7C9900A1B50
:10368000E014F50AEE54206061E0C3940750167A06
:1036900000E0F91227397A00900A1BE0F8740CC395
:1036A00098F91227397A01A90A1227397A01900A62
:1036B0001BE0F8740DC398F9122739900A1BE00437
:1036C000F0C39408501990814E1212D27A207B00D8
:1036D0009009E6E0F91223AF740412106B8006E43F
:1036E000F0900A18F0EE6420806DEF5408605DE001
:1036F000C3940C500D7A00E0F91227397A01A90A17
:103700008016E0640C700D7A0079001227397A0176
:10371000790B80047A017900122739900A1BE004A2
:10372000F0C3940E50199081AE1212D27A007B0829
:103730009009E6E0F91223AF740412106B8006E4DE
:10374000F0900A18F0EEFAEF6408807DEE544060C5
:103750000A122733EE6440FAEF806EEF54046024BF
:10376000900A1AE06017900A187401F0FAF912270B
:10377000577A207B009009E6E0F9122313EEFAEF66
:1037800064048045EF541060137A007B089009E6CA
:10379000E0F9122313EEFAEF6410802DEF5420604D
:1037A0002B12275D900A1CE0C39403501790815A96
:1037B0001212D27A007B209009E6E0F91223AF744E
:1037C0000412106BEEFAEF6420FB80047A007B0099
:1037D000740912106B7F0402117E74F71210AC741E
:1037E000FC1210558A828B83E064C0600302B933F7
:1037F000A3A3A3E0FE7A81794A122547740312102D
:10380000A0E412BFF712256574021210A0AA82ABC1
:1038100083790112256B74021210A0E0A2E0E43358
:10382000900A1AF0EEA2E0507A900A18E0600302C3
:10383000B933900A1AE0A2E0501990814A1212D2CC
:103840007A007B049009E6E0F91223AF74041210A9
:103850006B800C7A007B049009E6E0F91223BB90A0
:103860000A1AE06021900A17E070057402F0801CCB
:103870006402600302B9367403F07A807B00900919
:10388000E6E0F91223BB900A17E06017908152120C
:1038900012D27A807B009009E6E0F91223AF74041B
:1038A00012106BEEA2E1400302B9337A81791D1246
:1038B0002547851A82851B83742AF074011210A093
:1038C000E412CD7D122553851A82851B837416124E
:1038D000BFF712256574011210A0AA82AB8379018B
:1038E00012256B851A82851B83742DF074011210CA
:1038F000A0E412CD7D122553851A82851B83742A7C
:10390000F074011210A012CD7B122553900A1D12E3
:10391000B981900A21F07A01F91227399010F31237
:1039200012D27A107B009009E6E0F91223AF7404FA
:1039300012106B02BA54E06403600302B88C900A60
:10394000187401F0FA79031227579081861212D267
:103950007A007B109009E6E0F91223AF740412108C
:103960006B7A807B009009E6E0F91223BB7A007B3A
:10397000049009E6E0F91223BB900A17E4F002B8BC
:10398000A3E4F0A3F0A3F0A3F02274F71210AC7438
:10399000F2121055E9FE14601014700302BA2A24C2
:1039A000FD700302BA3502BA4374081210A0AC824B
:1039B000AD837A047B031226D374081210A012CDB3
:1039C0005374091210A0E0C0E074011210A0D0E0FE
:1039D000F0740A1210A0E0C0E074021210A0D0E04F
:1039E000F074041210A0E4F074031210A0E4F07458
:1039F0000D1210A0E0C0E074071210A0D0E0F07427
:103A00000C1210A0E0C0E074061210A0D0E0F07418
:103A10000B1210A0E0C0E074051210A0D0E012BAA2
:103A20004C7A08790012242780197A007900122430
:103A3000ED7A0080097A0179001224ED7A0179008B
:103A40001224E7EE9009E7F0740E800A12C8A6ACC3
:103A500082AD8322740412106B7F0102117E74F711
:103A60001210ACE9FE74016E70219009E7E0640564
:103A7000702A9081B21212D27A087B009009E6E097
:103A8000F91223AF740412106B801174026E700C63
:103A90007A087B009009E6E0F91223BB80BB74F63C
:103AA0001210AC74F812105590049DE0640160038C
:103AB00002BC4B90049BE0F890049CE0C398400348
:103AC00002BC4BE0FAE8C39AF895E0F9C3E8940623
:103AD00012C8BCE0FE500302BB9C02BB5F90049482
:103AE00074FFF0A312BC551212BF7C8E7D047402C9
:103AF0001210A0AA82AB831222BF740212106B783C
:103B00000A1212BF7C907D0474041210A0AA82AB2A
:103B1000831222BF740212106B780A1212BF7C92B9
:103B20007D0474061210A0AA82AB831222BF740215
:103B300012106B780A1212BF7C947D047408121064
:103B4000A0AA82AB831222BF740212106B851A8264
:103B5000851B83AC82AD837A0879011225D70E8E3E
:103B600082A88290049CE02405FAE43400FBE89AE1
:103B7000E49BC365D0335020E812BC5F700D900900
:103B8000E1E0900494F0A3E402BAE474016E6003EF
:103B900002BADD90049B80E9EA02BC4FEE12BC5FE2
:103BA00070059009E1800874016E700C90049BE030
:103BB000900494F0A3E4800790049474FFF0A3129F
:103BC000BC551212BF7C8E7D0474021210A0AA8212
:103BD000AB831222BF740212106B780A1212BF7CE0
:103BE000907D0474041210A0AA82AB831222BF74C9
:103BF0000212106B780A1212BF7C927D04740612B6
:103C000010A0AA82AB831222BF740212106B780A32
:103C10001212BF7C947D0474081210A0AA82AB8398
:103C20001222BF740212106B851A82851B83AC822C
:103C3000AD837A0879011225D70E90049B12C9280A
:103C4000500302BB9CE090049C800490049DE4F02F
:103C5000740802BEC1F0750A02750B00780A22755D
:103C6000F006A4F8A9F0745F28F8740512C89FE064
:103C7000FAA3E0FB90048E12BC9AE0FAA3E0FB905A
:103C8000049012BC9AA3A3E0F8A3E0F99004921266
:103C9000BC94EE22E8F0A3E9F022EAF0A3EBF0886E
:103CA000828983A3A32274F41210AC74F11210550C
:103CB000E914600914606514605702BD56851A82C4
:103CC000851B83AA82AB8379011225DD851A828543
:103CD0001B8312C91F9010B512BC941227457402A1
:103CE0001210A0EAF0A3EBF074021210A0AC82ADA7
:103CF000837A0279041225D7900A1CE4F090815A45
:103D00001212D27A007B209009E6E0F91223AF80EC
:103D1000407AE87B0979031225DD803A7404121099
:103D2000A0AA82AB8379021225DD74041210A012BE
:103D30000F431223431223498A0A8B0B8C0C8D0DDF
:103D4000780A1212BB740C1210A0AA82AB83122341
:103D50004F740412106B740F02B7D2C082C083D2AA
:103D600090D291D296D297D2A0D2A1D281D282D231
:103D700084D285D286D287900496E4F0A3F0C293D1
:103D8000C280C294C29502D09674F21210AC750A29
:103D900001750B00E9780A121042AE0AAF0B046AF3
:103DA0007011EEF4FCEFF4FD900496E05CF0A3E0FB
:103DB0005D8009900496E04EF0A3E04FF0900496E9
:103DC00012C919EC4D7004C2938002D293E960705D
:103DD00014602014602414602814602C14603014C3
:103DE000603414603814603C146040146044146003
:103DF000488052EAA2E09291804BEAA2E09296803B
:103E000044EAA2E09297803DEAA2E092A08036EADE
:103E1000A2E092A1802FEAA2E092818028EAA2E0AB
:103E200092828021EAA2E09284801AEAA2E092853E
:103E30008013EAA2E09286800CEAA2E092878005D5
:103E4000EAA2E092907F0602117EC082C083900AAF
:103E500019E0700474018001E4F0E0FA9010F2E0DF
:103E6000F91227399081521212D27A007B019009FF
:103E7000E6E0F91223AF02D09174F61210AC90096B
:103E8000E912C91F7583097582EBE0C398F50AA38F
:103E9000E099F50B7583097582EBC3E098A3E0996F
:103EA000500CE50A24A0F50AE50B340FF50B74035A
:103EB000780A121033E50A2403FAE50B3400FB807C
:103EC0000312106B7F0202117EC082C08374FE1247
:103ED00010557A81791D122547851A82851B8374B6
:103EE0002BF074011210A0744012CD7D1225538561
:103EF0001A82851B83742B12BFF712256574011279
:103F000010A0AA82AB83790112256B74011210A054
:103F1000E0A2E640DA851A82851B83740EF07401F4
:103F20001210A0740212CDEFF9122553851A828562
:103F30001B837409F074011210A0744012CD7D121D
:103F40002553851A82851B837415F074011210A005
:103F500074FF12CD7D122553851A82851B83741739
:103F6000F074011210A0741112CD7D122553851A20
:103F700082851B837418F074011210A0740312CD93
:103F80007D122553851A82851B83742CF0740112CF
:103F900010A0740812CD7D122553851A82851B83CB
:103FA000742DF074011210A0740412CD7D122553EB
:103FB000851A82851B83742EF074011210A074047C
:103FC00012CD7D122553851A82851B83742BF074C4
:103FD000011210A0741F12CD7D122553851A8285FF
:103FE0001B83742AF074011210A012CD7B1225538A
:103FF000740202D0937444F0AA82AB8379012274D4
:10400000E81210AC74EB12105574071210A0E912EC
:10401000C992751200740B1210A012B981740912A2
:1040200010A07488F0A3741312C8A6E4F0740612EA
:1040300010A0E4F074081210A07401F074031210C0
:10404000A0E4F07A81791D1225477AC07B00122303
:104050006D74041210A0EAF0A3EBF07A407B00121A
:10406000236D74011210A0EAF0A3EBF07CC07D0078
:10407000790074041210A012C92E1222D7740412EF
:1040800010A012C91FE84960497CC07D0079007406
:10409000041210A012C92E1222D774081210A0AA5E
:1040A00082AB83790112256574041210A012C92E07
:1040B00075F00674071210A0E0A4F912256B7407BE
:1040C0001210A0E0900498F0C39405500E790002FD
:1040D000C895900498E4F0F902C8957CC07D0079F9
:1040E000007A9F7B041222D77E00804CEE75F0068A
:1040F000A4F8A9F0749F28FA740439FB7404121010
:10410000A0E028F8A3E012C89FE0FDA3E08A828B1C
:104110008312C97E12C90CE08A828B83A3A312C9C1
:104120007EA3A312C90CA3A3E0F8EDF98A828B83C6
:10413000A3A3A3A312BC940E12C92540AF7CC07DDB
:104140000079007A5F7B051222D7750EC0750F00CB
:10415000780E1212BF7C9F7D047A5F7B051222BF0E
:10416000740212106B900498E090049BF090049CF1
:10417000E4F090049EE0640170079009E17401800E
:10418000079009E4E09009E1F090049EE4F09004C7
:104190009D04F07A027B009009E6E0F91223137E79
:1041A000008048EE75F006A4F8A9F0749F28FA7410
:1041B000043912C94D12102312C972EA2402F8EB15
:1041C00012C8C7FCE9FD8C828D8312C952121023DC
:1041D0008C828D8312C976EA2404F8EB12C8C7FAE0
:1041E000E912C94D12102312C9720E12C92540B32B
:1041F000740F1210A0AC82AD837583817582387400
:1042000006120F68FE804F7F00EFC333F8E433F9E6
:10421000EE75F006A4FAABF0749F2AFA74043BFB27
:10422000EA28F582EB12C916740F1210A0E5822855
:10423000F8E58312C89F12C92EC3EC9AED9BA2D257
:1042400065D033500988828983ECF0A3EDF00FEF3D
:10425000C3940340B40E12C92540AC7C407D007964
:104260000074011210A012C92E1222D77E00807C89
:104270007F008E82A882EFC333FAE433FBE875F047
:1042800006A4FC85F00EAD0E749F2CFC74043DFD5D
:10429000EC2AFCED3BFD740F1210A0E5822AF5829A
:1042A000E5833BF58312C92E8D838C82E0C39AFA95
:1042B000A3E09BFBEA2401F50EEB3400F50F8C82A2
:1042C0008D8312C976E8C333FAE433FB740112100C
:1042D000A0E02AFCA3E03B8C82F583E0250EF0A34E
:1042E000E0350FF00FEFC39403408B0E12C9255039
:1042F0000302C270E0F51424FCFCE434FFFD7E00F0
:10430000805DE8C333F8E433F974011210A0E028AB
:10431000F50EA3E039850E8212C934120E8B0F8F71
:1043200082A882EA2404F50EE43400F50FE8950E25
:10433000E4950FC365D03340C990818A780E120F7F
:1043400025780A790E120E04EAC333FAE433FB74BB
:10435000011210A0E02AF8A3E03B888212C9858EE2
:104360000EC3E50E9CE49D5008EEFF8E82AA82806B
:10437000AE7E00EC2EFF8016EFC333F8E433F97401
:10438000011210A012C90312C934120E8B0FEFC311
:10439000951440E48E0E7404C3950EF50E95E0F569
:1043A0000F12C942120E048E0CEC250CF8ED12C847
:1043B000C7C333F8E933F974011210A012C903120C
:1043C000C985EEC3940440AB7E00804B8E82AA82E6
:1043D000EAC333F8E433F974011210A0E028FCA317
:1043E000E0398C8212C917900499E02A12C8C57569
:1043F000F006A4F8AAF075F006E9A42AF99009DFFE
:10440000E0C333FAE433FB741F2AFA74063BFBEA79
:1044100028F582EB12C8AEEEC3951440AF90049914
:10442000E02514F07C807D0179007A9F7B071222C1
:10443000D77E009009DFE0C333FAE433FB802EE837
:1044400012C8CCA3A3A3A3A3A3C082C083E514284E
:10445000F582E51512C916D083D082E0C39CFCA377
:10446000E09DFDE51628F582E51712C8AE749F2A77
:10447000F51674073BF517741F2AF51474063BF5FF
:10448000158E82A882900499E024FFFCE434FFFD9D
:10449000C3E89CE49DA2D265D03340A3E024FEFE95
:1044A00080011EEE603575F006A4F8A9F0E5162827
:1044B000FAE51739FBEA24FAF582EB34FF12C95EFC
:1044C00040E0E51628F582E5173912C95E50D38E13
:1044D00082858212E5126003FC80010C7E00801D43
:1044E000EE12C8CCE0F50AA3E0F50B3395E0F50C2D
:1044F000F50D740B1210A0780A120EB10E900499EB
:1045000012C92840DB740B1210A0780E120F2590F0
:104510000499E0F50AE4F50BF50CF50D780E790A2F
:10452000120E04850E0A850F0BA80AA90B7A0A7BC6
:1045300000120FC2880C890DC3E50A950CF50AE537
:104540000B950DF50B7E0002C5EA750C0412C8D35D
:10455000C3E0950AA3E0950BA2D265D0334007745F
:10456000031210A0E4F085188285198312C8FE504A
:1045700078850E82850F8312C8FE406D8510828576
:10458000118312C91FC3E8950AE9950BA2D265D021
:1045900033505674091210A0E0C398F8A3E099F9BB
:1045A00012C8B84044851A82851B83E0F8EAC39894
:1045B000F895E0F9C3E8950C12C8BC402CE0600FF8
:1045C00012C8B8502474031210A0E0A2E0401A747C
:1045D000061210A0E004F074012E851A82851B8358
:1045E000F074031210A07401F00E8E0CEC24FFF88E
:1045F000E434FFF9C3E50C98E499400302C6828EC7
:1046000082AA82EA75F006A4F885F00CA90CE514DC
:1046100028F50CE51539F50DE50C2406F510E50D2A
:104620003400F511E51628F50CE51739F50DE50C04
:104630002406F50EE50D3400F50FE51628F518E50E
:104640001739F51985188212C95E4024850E8285B6
:104650000F8312C9605019851082851183E0F50C13
:10466000A3E0F50D74091210A0E50CF0A3E50DF020
:10467000851A82851B83E0600302C54A750C00021F
:10468000C54D74061210A0E09009E5F0F8740168B9
:1046900070259009E4E0C39402403A9009E3E0C336
:1046A000940240317A0279021227579009E5E4F02A
:1046B00090049E04F0801EE8C3940240189009E420
:1046C000E0C39402400F9009E3E0640170077A02AE
:1046D00079021227579009E4E0FAC39402402DA30F
:1046E000E0FC9009E3E0FB8C0A250A12C8C594039C
:1046F000E99400C365D033500A74026B60057402FC
:104700006C7009EAC333FA79021227579009E3E083
:104710009009E2F09009E4E09009E3F09009E5E007
:104720009009E4F0A3E4F07CC0FDF97A1F7B091244
:1047300022D790049AE4F0900499E0F50AE5122457
:104740000112C8C5950AE99400400302C8289009DF
:10475000DFE0C333F8E433F9741F28FC740939FD32
:10476000741F28FA740639FBE50AC39512F895E020
:10477000F9E824FF18E934FFF9C3E89420E994002C
:104780007E00404E8E82A882900499E02812C8DEF6
:10479000F50AEB350BF50BE50A2440F582E50B3401
:1047A000FFF583E0F50AA3E0F50BE875F006A4F841
:1047B00085F00CA90CEC28F582ED39F583E50AF0BB
:1047C000A3E50BF00EEEC3942040B990049A742038
:1047D0008055803BE512250A12C8DEF582EB350BC9
:1047E000F583A3A3A3A3A3A3E0F50CA3E0F50DEE2B
:1047F00075F006A4F50A85F00EE50EF50BEC250A1A
:10480000F582ED350BF583E50CF0A3E50DF00E8E8A
:104810008285820AC3E50A98E49940B8900499E039
:10482000C395121490049AF07C807D0179007A1F60
:104830007B061222D7900499E4F07CC0FDF97A9FA0
:104840007B041222D7900498E4F090049AE075F06B
:1048500006A4F50AE5F0F50B780A1212BF7C1F7D5D
:10486000097A1F7B061222BF740212106B90049A01
:10487000E0900499F09009DFE09009E0F0740412F0
:1048800010A012C92E12237374011210A012C92E87
:104890001223737901741512106B7F1002117E3987
:1048A000F98882898322F0851A82851B832239F553
:1048B00083ECF0A3EDF00E22C3E89410E99400A27B
:1048C000D265D03322F8E43400F9E82275F006A46A
:1048D000F8A9F0E51428F582E51539F58322F50AE3
:1048E000E43400F50BE50A75F006A4F50A85F00C32
:1048F00075F006E50BA4250CF50BEA250A22C31278
:10490000C96822E028FAA3E0398A8222E0FD888281
:104910008983A3A3A32239F583E0FCA3E0FD22E071
:10492000F8A3E0F922900498E0F8EEC39822E0FAA8
:10493000A3E0FB22F583E0F50EA3E0F50F3312C9E7
:10494000422295E0F510F511780A790E22FB8A8251
:104950008B83E0F50EA3E0F50F7406780E22F58345
:10496000C3E0940112C96822A3E09400A2D265D0EA
:1049700033228A828B83E50EF0A3E50FF022F0A3A9
:10498000ED12BC9E22F583E50AF0A3E50B12C99255
:104990000E22F0750A00750B00750C00750D0022D3
:1049A00074E81210AC74ED12105589188A1974FF4E
:1049B0002518FE1223498A0A8B0B8C0C8D0D780A60
:1049C0001212BB74041210A0AA82AB8312234F747C
:1049D0000412106B74026518700774011210A0E4C1
:1049E000F0851A82851B83E4F0EE75F00EA4F8A919
:1049F000F074ED28FE740939FFEE240BF516EF3440
:104A000000F517EE2407F50CEF3400F50D8519823B
:104A100085820A850C82F583780E120F25E50E45F6
:104A20000F451045117032851A82851B83EEFCEF0D
:104A3000FD7407120F68EEFAEFFB12235B850C8200
:104A4000850D83120F4F851682851783E50AF0A323
:104A5000E412CBEEE51802CBE88E828F83A3A3A3EA
:104A6000A3A312C91F74051210A0E0687003A3E08D
:104A70006970498E828F83A3A3A3A3E0F874041204
:104A800010A0E06870368E828F83A3A3A3E0F87431
:104A9000031210A0E06870248E828F83A3E0F87464
:104AA000011210A0E06870148E828F83A3A3E0F837
:104AB00074021210A0E068700302CBDA7A81795098
:104AC0001225479009ECE0C0E074071210A0D0E076
:104AD000F09009EBE0C0E074081210A0D0E0F0857F
:104AE0000C82850D83780E120F2574091210A0E533
:104AF0000EF0740A1210A0E50FF0850E12F5138562
:104B0000101485111574107812120E53740B1210B4
:104B1000A0E512F07418780E120E53740C1210A047
:104B2000E50EF085168285178312C91F740D1210C9
:104B3000A0E8F0740E1210A0E912CBEEE0C0E07411
:104B40000F1210A0D0E0F09009E8E0C0E07410125D
:104B500010A0D0E0F074071210A0AA82AB83790AEB
:104B600012255312255F9009EB12CD6A4007900978
:104B7000EBE4F0A3F09009EB12C91F9009E9E0689B
:104B80007003A3E06970069009E912CD7112274500
:104B900074111210A0EAF0A3EBF074111210A0AC83
:104BA00082AD837A0279041225D7851A82851B8308
:104BB000EEFCEFFD7407120F68EEFAEFFB12235BB9
:104BC000850C82850D83120F4F851682851783E52C
:104BD0000AF0A3E4F0122763800F851682851783FD
:104BE000E0250AF0A3E03400F0741302C897F0EE59
:104BF000240DF582EF3400F5832274F01210AC74AA
:104C0000F61210559009E7E064056005790002CDC1
:104C10003D7A81795012254712CD5C7003A3E0697B
:104C2000604E9009EA12CD539009E9E0C0E07401AA
:104C30001210A0D0E012CD7D12255374021210A0E4
:104C4000AA82AB83790812254D9009E912CD6A40FA
:104C5000079009E9E4F0A3F074021210A0AC82AD51
:104C6000837A0879051225D7122763900A1CE4F08D
:104C700012CD5C7003A3E069600302CD3B12CD4707
:104C800074ED28FA740939FB8A828B83A3A3A3A34A
:104C9000A3A3A3780E120F2574021210A0E50EF044
:104CA000850F0BE50BF50A74031210A0E50AF085D9
:104CB0000E0A85100C85110D7410780A120E5374AB
:104CC000041210A0E50AF07418780E120E53740541
:104CD0001210A0E50EF0EA240BF582EB3400F58308
:104CE00012C91F74061210A0E8F074071210A0E990
:104CF000F0EA240DF582EB3400F583E0C0E074089F
:104D00001210A0D0E0F09009E8E0C0E074091210A1
:104D1000A0D0E0F074021210A0AC82AD837A0879C2
:104D2000051225D712CD4774F828F582740939F594
:104D300083E4F0A3F0900A1CE004F07901740A12F5
:104D4000106B7F0802117E900A1CE075F00EA4F82B
:104D5000A9F022E0851A82851B83F0229009E9E000
:104D6000F8A3E0F99009EBE0682212CD71C3947DBD
:104D700022E02408F0A3E03400F022746912CDF39D
:104D8000790222C082C08374FA1210557A81795058
:104D9000122547851A82851B83AC82AD837583817A
:104DA00075823E7406120F689009E9E0C0E0740253
:104DB0001210A0D0E0F09009EAE0C0E074031210F5
:104DC000A0D0E0F09009EBE0C0E074041210A0D095
:104DD000E0F09009ECE0C0E074051210A0D0E01201
:104DE000CDEF790612255312255F740602D0931277
:104DF000CDF322F0851A82851B83AA82AB832278A9
:104E00000079008008E8240108E93400F9C3E89A31
:104E1000E99B40F1020C7E74F61210AC8A0A8B0BEF
:104E20007E007F00800F7AE87B03122769EE240161
:104E30000EEF3400FFC3EE950AEF950B40E802BE7B
:104E4000C474F61210AC8A0A8B0B7E007F008016A9
:104E50007A687B011227697A017B0012276FEE24A2
:104E6000010EEF3400FFC3EE950AEF950B40E1020F
:104E7000BEC4C082C08374FC12105574011210A00D
:104E800012BFF5122565851A82851B83AA82AB8322
:104E9000790112256B74021210A012CEDC5440026C
:104EA000D079C082C08374FC12105574011210A016
:104EB00012BFF5122565851A82851B83AA82AB83F2
:104EC000790112256B851A82851B83E054F0F074FA
:104ED000021210A012CEDC444102D079744412C8F0
:104EE000A6E02274F61210AC74FE1210557A817985
:104EF0004A1225477A027B0012236D8A828B8374C3
:104F000030F0A37401F012277B851A82851B83740D
:104F100041F074011210A0743012CD7D122553851A
:104F20001A82851B837443F074011210A07423123B
:104F3000CD7D1225531227817A0A7B001227751224
:104F4000277B851A82851B83741AF074011210A0C6
:104F500074CA12CD7D122553851A82851B8374264F
:104F6000F074011210A0740112CD7D122553851A20
:104F700082851B837427F074011210A0740112CD76
:104F80007D122553851A82851B837428F0740112C3
:104F900010A0740F12CD7D122553851A82851B83B4
:104FA0007429F074011210A0740612CD7D122553DD
:104FB000851A82851B83742AF074011210A0740371
:104FC00012CD7D122553851A82851B837441F0749E
:104FD000011210A0743012CD7D122553851A8285DE
:104FE0001B837443F074011210A0742312CD7D1240
:104FF00025537A007B00740202BEC1C082C0837454
:10500000FC1210557A81795012254774021210A0B3
:10501000AC82AD837583817582C47402120F68748B
:10502000021210A0AA82AB837902122553851A823C
:10503000851B83AA82AB83790212254D851A82854E
:105040001B83E0FA74011210A0E0F9EA90029D12AD
:10505000BC9590029DE024EFF8A3E034FBF9C3E88F
:10506000948FE9940150047901800C90029D74D8CA
:10507000F0A37404F079008018C0E074031210A04B
:10508000D0E0F074021210A0AA82AB83790212253C
:1050900053740412106BD083D082020C7E74F7120A
:1050A00010AC74FC121055EAFEEBFF7A81795012B5
:1050B0002547851A82851B83AC82AD8375838175F4
:1050C00082827404120F6874021210A0EEF074034E
:1050D0001210A0EF12CDEF790412255312255F02B2
:1050E000BA54C082C083E99011BCF002D37174F746
:1050F0001210ACE9900A87F07CBF7D0A7AFF7BFF33
:10510000122B7D900A8874FFF0A3F0A3E4F0A3F0C3
:105110007905122B05900A87E0F9122A277A957BE8
:105120002B122D3F7F0102117E74F41210AC8A0AFB
:105130008B0BEB54806030900A87E0F91222FB8AD7
:105140000C8B0DAE0CAF0DEE4F60138E828F83E093
:1051500064B07003122B1DEEFAEFFB1222E9AA0ACB
:10516000E50B6480FB80047A007B0002D34074F27C
:105170001210AC74FC121055EAFEEBFFEE4F6038D3
:1051800074021210A0EEF0A3EF12D5A5ECF0A3ED7F
:1051900012D5A5AA82AB83122A21E9F50A7073748D
:1051A000121210A012E159E50C450D60658E828F38
:1051B0008312D21CEE4F7005750A0280557A067B69
:1051C0000012236D8A0E8B0FA80EA90FE8497005F7
:1051D000750A13803D88828983E412D226A3A3EE48
:1051E000F0A3EF12E5F2E50CF0A3E50DF0900A8DC7
:1051F00012D2AE900A8D6017E0FCA3E08003EAFCB7
:10520000EBFD8C828D8312D2AE70F38C828D831273
:10521000E07EA90A740412106B02E7F4A3A3A3A30F
:10522000E0FEA3E0FF22F0A3F0888289832274F2DB
:105230001210AC890CE975F017A4FEAFF0900A8C3F
:10524000E4F0900A8A12D2AE600A122373900A8A9E
:10525000E4F0A3F0EEFAEFFB12236D8A0A8B0BEA5F
:10526000450B602FEEFCEFFD79001222D7900A8AE1
:10527000E50AF0A3E50BF07B00800812D298E4F079
:10528000A3F00BEBC3950C40F2E50C900A8CF0797F
:10529000008002791302E7F4EB75F017A4F8A9F087
:1052A000900A8AE028FAA3E0398A82F5832212DE86
:1052B00014EA4B2274F41210AC750A00750B0074DA
:1052C0000C1210A012E5C6FEE9FF800CE50A2401CD
