:020000040000FA
:1000000002066DC2AFF508610DFFFFC2AFF50861D2
:100010001FFFFFC2AFF5086131FFFFC2AFF50861F6
:1000200043FFFFC2AFF5086155FFFFC2AFF508619E
:1000300067FFFFC2AFF5086179FFFFC2AFF5086146
:100040008BFFFFC2AFF508619DFFFFC2AFF50861EE
:10005000AFFFFFC2AFF50861C1FFFFC2AFF5086196
:10006000D3FFFFC2AFF50861E5FFFFC2AFF508613E
:10007000F7FFFFC2AFF5088109FFFFC2AFF50881A6
:100080001BFFFFC2AFF508812DFFFFC2AFF508814E
:100090003FFFFFFF758701002274F312053A890ABA
:1000A000750C00750D08780C12063E7C807D017A77
:1000B000007B0012045574021205FB850A0D9001A5
:1000C00086E0F50EA3E0F50F7409780E12064FE5F1
:1000D0000EF50B9001867409780E12062BE0C3F51D
:1000E0000EA3E0950FF50F7402780E12062BAE0EDC
:1000F000AF0FE50D250BF50B7401650D7006743E11
:10010000250BF50B53B4F375BC0075BC008042742D
:100110008028F582740139F583E0F5BDE8240108F3
:10012000E93400F9C39408402C050A7408650A7084
:1001300003750A46750E00750F08780E12063E7C90
:10014000807D017A007B00A90A1204557402120511
:10015000FB78007900E50D650A700AE849700678B9
:1001600003790080B7E50B650A70A4EE687002EFB2
:1001700069709CE5BD85BC0C850C0EAA0EFB7F0644
:100180000205A074F612053A890CEAFEEBFF53BE95
:10019000FBE59DA2E650FAE5C654804449F5C6E564
:1001A0009E547F644970F853C67FE59EA2E740FAEB
:1001B00053C680E59E547F70FA43BE04906270740B
:1001C00008F07409F5D575D4801200998E828F835A
:1001D000E0F8A3E0F9EA687002EB6970428E828F62
:1001E00083A3A3E8F0A3E9F08E828F8374FFF0A3CA
:1001F000F0750A01750B00780A12063EEEFCEFFD61
:10020000850C0A7409780A12062BFAAB0B1204D675
:1002100074021205FBC2AF75C9AB75C95B80FE7F66
:10022000030205A074FC120615750A04750B00780C
:100230000A12063E7402120689AC82AD837A007BF4
:1002400000790812045574021205FB851A82E0F445
:100250007003A3E0F4602D851A82851B83E0F8A368
:10026000E0F9E849601E7402120689E0687003A391
:10027000E0697010750901024030C2AF75C9AB75F5
:10028000C95B80FE780A12063E7402120689AC82AF
:10029000AD837A007B00790112045574021205FBCC
:1002A000851A82E0F47003A3E0F46051851A828518
:1002B0001B83E0F8A3E0F9E8496042740212068962
:1002C000E0F8A3E0F9851A82851B83E0687003A338
:1002D000E0697010750900020830C2AF75C9AB75CE
:1002E000C95B80FE74FF68700374FF69700F851A24
:1002F00082851B83AA82AB83790112018343BE03EB
:10030000120094C2AF75C9AB75C95B80FEE5096088
:1003100007E508D2AF024033E508D2AF020833E563
:10032000096007E508D2AF02403BE508D2AF0208FA
:100330003BE5096007E508D2AF024043E508D2AFCC
:10034000020843E5096007E508D2AF02404BE50823
:10035000D2AF02084BE5096007E508D2AF0240536F
:10036000E508D2AF020853E5096007E508D2AF02FD
:10037000405BE508D2AF02085BE5096007E508D2FB
:10038000AF024063E508D2AF020863E5096007E504
:1003900008D2AF02406BE508D2AF02086BE50960F6
:1003A00007E508D2AF024073E508D2AF020873E553
:1003B000096007E508D2AF02407BE508D2AF02082A
:1003C0007BE5096007E508D2AF024083E508D2AFBC
:1003D000020883E5096007E508D2AF02408BE50813
:1003E000D2AF02088BE5096007E508D2AF0240935F
:1003F000E508D2AF020893E5096007E508D2AF022D
:10040000409BE508D2AF02089BE5096007E508D2EA
:10041000AF0240A3E508D2AF0208A3E5096007E5F3
:1004200008D2AF0240ABE508D2AF0208ABE50960E5
:1004300007E508D2AF0240B3E508D2AF0208B3E542
:10044000096007E508D2AF0240BBE508D2AF020859
:10045000BB0002045174F512053A890A740B1206A6
:1004600089E0FEA3E0FF740F550AF50C750D0074CA
:100470000B780C12062BEA2400F8EB3480F9E82400
:1004800000E9350DF9E5C7FBA2AFE433F50BC2AFC8
:10049000E50AC4540FFAE5C754F84AF5C7EE4F60B1
:1004A0002888828983E08C828D83F088828983A367
:1004B000A882A9838C828D83A3AC82AD83EE24FFB6
:1004C0001EEF34FFFFEE4F70D88BC7E50BA2E09212
:1004D000AF7F040205A074F712053A740912068969
:1004E000E0F50AA3E0F50BED900980F0ECA3F0A392
:1004F0007462F0A37473F0A3E0541FF0E50A333381
:1005000054FCA3F07406780A12064FE50A90098499
:10051000F09009867412F0A37442F053D1FE75D6A0
:1005200001EA906271F0EBA3F0906270E0D2E1F02A
:10053000E0A2E740FB7F020205A0251AC582C0E0C9
:10054000E51B34FFC583C0E0E51AC3958224F9108A
:10055000AF0885831B85821A800885831B85821AD4
:10056000D2AFCEF0A3E520F0A3780AE608F0A3DE30
:10057000FAEFF0A3E58124FBF8E608F0A3E608F023
:10058000A30808E608F0A3E608F0A315811581D0BA
:10059000E0FED0E0F815811581E8C0E0EEC0E02271
:1005A000851B83851A82E0A3FEE0A3F520780AE08C
:1005B000A3F608DFFAE0A3FFE0A3C0E0E0A3C0E0F9
:1005C000E0A3C0E0E0A3C0E010AF0885821A8583F5
:1005D0001B800885821A85831BD2AFD083D08222EC
:1005E000251AF58210AF08F51A4002151B8008F590
:1005F0001A4002151BD2AF851B8322C0D0251A10CA
:10060000AF08F51A5002051B8008F51A5002051BA9
:10061000D2AFD0D022251A10AF08F51A4002151B10
:100620008008F51A4002151BD2AF22700422600D1B
:1006300018C6C333C608C633C6D5E0F41822740200
:100640008000C0E0F4041205E0D0E012067C2260D5
:100650000C08C6C313C618C613C6D5E0F42212068A
:1006600098B9000302066712022412069375D0009F
:1006700075813F751A80751B0102065ECAC0E0E6EF
:10068000F0A308DAFAD0E0FA22251AF582E4351B45
:10069000F5832200000080FB790122FFFFFFFFFFAE
:1006A000FFFFFFFFFFFFFFFFFFFFFFFFFFFFFFFF5A
:1006B000FFFFFFFFFFFFFFFFFFFFFFFFFFFFFFFF4A
:1006C000FFFFFFFFFFFFFFFFFFFFFFFFFFFFFFFF3A
:1006D000FFFFFFFFFFFFFFFFFFFFFFFFFFFFFFFF2A
:1006E000FFFFFFFFFFFFFFFFFFFFFFFFFFFFFFFF1A
:1006F000FFFFFFFFFFFFFFFFFFFFFFFFFFFFFFFF0A
:10070000FFFFFFFFFFFFFFFFFFFFFFFFFFFFFFFFF9
:10071000FFFFFFFFFFFFFFFFFFFFFFFFFFFFFFFFE9
:10072000FFFFFFFFFFFFFFFFFFFFFFFFFFFFFFFFD9
:10073000FFFFFFFFFFFFFFFFFFFFFFFFFFFFFFFFC9
:10074000FFFFFFFFFFFFFFFFFFFFFFFFFFFFFFFFB9
:10075000FFFFFFFFFFFFFFFFFFFFFFFFFFFFFFFFA9
:10076000FFFFFFFFFFFFFFFFFFFFFFFFFFFFFFFF99
:10077000FFFFFFFFFFFFFFFFFFFFFFFFFFFFFFFF89
:10078000FFFFFFFFFFFFFFFFFFFFFFFFFFFFFFFF79
:10079000FFFFFFFFFFFFFFFFFFFFFFFFFFFFFFFF69
:1007A000FFFFFFFFFFFFFFFFFFFFFFFFFFFFFFFF59
:1007B000FFFFFFFFFFFFFFFFFFFFFFFFFFFFFFFF49
:1007C000FFFFFFFFFFFFFFFFFFFFFFFFFFFFFFFF39
:1007D000FFFFFFFFFFFFFFFFFFFFFFFFFFFFFFFF29
:1007E000FFFFFFFFFFFFFFFFFFFFFFFFFFFFFFFF19
:1007F000FFFFFFFFFFFFFFFFFFFFFFFFFFFFFFFF09
:040000050000066D84
:00000001FF
