:020000040000FA
:1040000006BBFFFF0100007C42424242FFFFFFFF70
:10401000FFFFFFFFFFFFFFFFFFFFFFFFFFFFFFFFB0
:10402000000102030405060708090A0BFFFFFFFF52
:1040300002445A025337FFFFFFFFFFFFFFFFFFFF5E
:10404000FFFFFFFFFFFFFFFFFFFFFFFFFFFFFFFF80
:10405000FFFFFFFFFFFFFFFFFFFFFF024BF9FFFF27
:10406000FFFFFFFFFFFFFFFFFFFFFFFFFFFFFFFF60
:10407000FFFFFFFFFFFFFFFFFFFFFFFFFFFFFFFF50
:10408000FFFFFF0253AAFFFFFFFFFFFFFFFFFFFF3E
:10409000FFFFFFFFFFFFFFFFFFFFFF024BB2FFFF2E
:1040A000FFFFFFFFFFFFFFFFFFFFFF024BDBFFFFF5
:1040B000FFFFFF0251A301FFFF11019901126404E8
:1040C0000102FA81010000D281020682010000E7AC
:1040D0000E020082010000E80E02DA81030000A94E
:1040E0000202FE81010000E90E01E803053F100A0B
:1040F000024669726D776172650000000000000081
:1041000000001A446F2053796E6300000000000025
:1041100000000000084150502053657420436C6F2C
:10412000636B000000000841505020536574205418
:10413000696D657A6F6E65001201004461746120DB
:1041400048656164657200000000000012446174FB
:104150006120426F6479000000000000000002FA54
:104160008101000021810206820100001A0F02F67F
:1041700081010000A60302D8810100001B0F020686
:10418000820100002C0F02F081030000A80302DA74
:1041900081030000B00302D8810100002D0F020648
:1041A000820100003E0F02EE81020000B60302D839
:1041B000810100003F0F020682010000500F02EC57
:1041C00081020000BA0302D881010000510F0206EB
:1041D00082010000620F02EA81030000630F02DA2D
:1041E00081030000BB0302D881010000650F0206B5
:1041F00082010000760F02E881030000C10302DAA9
:1042000081030000C90302D881010000770F1C025E
:10421000FA81010000D581020682010000381010E9
:104220005080020000CF0302DA81030000D10302B4
:10423000D881010000F280020682010000381010CF
:104240006080020000D00302DA81030000D703027D
:10425000D881010000FF80FFFFFF000130750302DD
:104260000106000000000000000000000000000047
:104270000000000000000000000000000000FFFF40
:104280000600800CE8032C01010E1F4A7FAABA0A1F
:10429000094C312D30303030303005122003B0045D
:1042A000020A00020106070200230F18C0FF4C316A
:1042B0002D3030303030300DC4090000C75E0000B2
:1042C000D95EFF0000B4000028002800283075A047
:1042D00000A000A000A00000080008E001F000100D
:1042E000001000100010001000100050005000508E
:1042F0000010001000D0070000000000000F0001B7
:10430000000500307507001000010081FF0000006B
:1043100000FF436161614961FF020202080250002F
:10432000A0000000E80302FA81010000CF8102062C
:1043300082010000431102DC81010000540A0206E0
:1043400082010000441102E0810100006A0A0206B5
:1043500082010000451102E2810100006C0A0206A0
:1043600082010000461102E4810800006D0A020685
:104370008201000047110208820100004811FF017C
:1043800000FF2002FA81010000CC810206820100B8
:1043900000AC11020482000000000002DA81030078
:1043A00000BA0A136713671367136713671367135A
:1043B00067136713671367136713671367A769BFEB
:1043C00069A169E5C754F84404F5C77901220000E2
:1043D0000080FB1243C3B90003024444E47921780E
:1043E00008B800028004F709D8FCE479297802B8FB
:1043F00000028004F709D8FCE49002807862790D0D
:104400008002F0A3D8FCD9FA781C9040B67A01BAA1
:1044100000028007E493A3F608DAF9900EE1AA827D
:10442000AB839040B7780D79048015E493A3AC82F8
:10443000AD838A828B83F0A3AA82AB838C828D8327
:10444000D8E9D9E77582E8758390740412446C75D5
:1044500082CE758343740012446C75D00075813F21
:10446000751A80751B02759F000243D3C09FF59F8C
:10447000E473D09F22D083D082C09FE493C0E074C5
:104480000193C0E0740293F59F22E066701008A3C8
:10449000E066700A08A3E066700408A3E06622C321
:1044A000E7960809E7960809E7960809E79622C300
:1044B000E09608A3E09608A3E09608A3E09622C041
:1044C0000AC3E096F50A08A3E096420A08A3E0961C
:1044D000420A08A3E096450A7001D3D00A220808D0
:1044E00008EAC0E0EBC0E086F0E7A4FA180986F01D
:1044F000E7A42AFA180986F0E7A42AFA180986F030
:10450000E7A42AFA1986F0E7A4FBE5F02AFA1908CD
:1045100086F0E7A42BFBE5F03AFA190886F0E7A449
:104520002BFBE5F03AFA18180986F0E7A4C5F02B42
:10453000FBE43AFA1908E7C5F0C6A426F6E5F03B15
:10454000FBE43AFA1886F0E7A4F6E5F00826F6E46C
:104550003B08F6E43A08F6D0E0FBD0E0FA22E4CFDC
:10456000C0E0E4CEC0E0E4CDC0E0E4CCC0E075F053
:1045700020C3E633F608E633F608E633F608E633FA
:10458000F6181818EC33FCED33FDEE33FEEF33FF75
:10459000C3EC9709ED9709EE9709EF9719191940A0
:1045A0000FFFEC97FC09ED97FD09EE97FE19190630
:1045B000D5F0BEECF709EDF709EEF709EFF7191999
:1045C00019D0E0FCD0E0FDD0E0FED0E0FF22601783
:1045D000080808C6A2E713C618C613C618C613C62D
:1045E00018C613C6D5E0E9226016080808C6C3132A
:1045F000C618C613C618C613C618C613C6D5E0EA31
:10460000227009080808226016181818C6C333C695
:1046100008C633C608C633C608C633C6D5E0EA2284
:10462000E627F60809E637F60809E637F60809E648
:1046300037F622E026F608A3E036F608A3E036F6C1
:1046400008A3E036F622E026F008A3E036F008A33F
:10465000E036F008A3E036F022C3E697F60809E654
:1046600097F60809E697F60809E697F622C3E0C62A
:1046700096F608A3E0C696F608A3E0C696F608A349
:10468000E0C696F622C3E096F008A3E096F008A3F1
:10469000E096F008A3E096F022E657F60809E65700
:1046A000F60809E657F60809E657F622E056F60836
:1046B000A3E056F608A3E056F608A3E056F622E07B
:1046C00056F008A3E056F008A3E056F008A3E05621
:1046D000F022E0F608A3E0F608A3E0F608A3E0F66F
:1046E00022E6F008A3E6F008A3E6F008A3E6F0222D
:1046F000E0FAA3E0FBA3E0FCA3E0FD22EAF0A3EBD9
:10470000F0A3ECF0A3EDF022CAC0E0E6F0A308DAD3
:10471000FAD0E0FA22CAC0E0E0A3C582CCC582C5C7
:1047200083CDC583F0A3C582CCC582C583CDC583A7
:10473000DAE6D0E0CA22C3E498F8E499F9124777A0
:104740008026C3E49AFAE49BFBE920E7E912477765
:10475000E498F8E499F922C3E498F8E499F9124747
:1047600077E498F8E499F9C3E49AFAE49BFB22EB26
:1047700020E7CFE920E7E0B90010BB0008E88AF0A5
:1047800084F8AAF022E4FBC8FA22EB70227B10C85E
:1047900033C8C933C9335007C39AC3DBF280069AC2
:1047A00050012ADBEAC833F4C8C933F4C9FA2275C8
:1047B000F008E4C833C8C933C933C99AC99B500447
:1047C000C92AC93BD5F0ECFBC833F4C8E4C9FA22C6
:1047D000600D08C6A2E713C618C613C6D5E0F322BB
:1047E000600C08C6C313C618C613C6D5E0F4227001
:1047F0000422600D18C6C333C608C633C6D5E0F41C
:104800001822251A10AF08F51A4002151B8008F56A
:104810001A4002151BD2AF22C0D0251A10AF08F5DE
:104820001A5002051B8008F51A5002051BD2AFD0A2
:10483000D022251AF58210AF08F51A4002151B8008
:1048400008F51A4002151BD2AF851B8322251AF5E5
:1048500082E4351BF58322E473251AC582C0E0E5A6
:104860001B34FFC583C0E0E51AC3958224F810AF5E
:104870000885831B85821A800885831B85821AD24E
:10488000AFCEF0A3E520F0A3780AE608F0A3DEFAA5
:10489000EFF0A3E58124FAF8E608F0A3E608F0A318
:1048A000E608F0A30808E608F0A3E608F0A31581DF
:1048B0001581D0E0FED0E0F8158115811581E8C0A2
:1048C000E0EEC0E022251AC582C0E0E51B34FFC53A
:1048D00083C0E0E51AC3958224F910AF0885831BD5
:1048E00085821A800885831B85821AD2AFCEF0A3F9
:1048F000E520F0A3780AE608F0A3DEFAEFF0A3E5DE
:104900008124FBF8E608F0A3E608F0A30808E6080F
:10491000F0A3E608F0A315811581D0E0FED0E0F801
:1049200015811581E8C0E0EEC0E022851B83851A61
:1049300082E0A3FEE0A3F520780AE0A3F608DFFA00
:10494000E0A3FFE0A3C0E0E0A3C0E0E0A3C0E0E09C
:10495000A3C0E0E0A3C0E010AF0885821A85831BE6
:10496000800885821A85831BD2AFD083D08202440F
:1049700072851B83851A82E0A3FEE0A3F520780AE6
:10498000E0A3F608DFFAE0A3FFE0A3C0E0E0A3C0E5
:10499000E0E0A3C0E0E0A3C0E010AF0885821A8584
:1049A000831B800885821A85831BD2AFD083D08277
:1049B00022C0D0251AC582C0E0E51B34FFC583C0E4
:1049C000E0E51AC3958224F310AF0885831B858226
:1049D0001A800885831B85821AD2AFC8F0A3E9F03C
:1049E000A3EAF0A3EBF0A3790AE709F0A3D8FAEC65
:1049F000F0A3EDF0A3EEF0A3EFF0A3D0E0F0A3D08E
:104A0000E0F0A3D0E0F0A3E520F0A3E5F0F0A322CE
:104A1000851B83851A82E0C0E0A3E0F9A3E0FAA336
:104A2000E0FBA3780AE0F608A3DFFAE0FCA3E0FDD0
:104A3000A3E0FEA3E0FFA3E0C0E0A3E0C0E0A3E0AA
:104A4000F5D0A3E0F520A3E0A3F5F010AF0885832F
:104A50001B85821A800885831B85821AD2AFD0827B
:104A6000D083D0E0F8D0E032740480067402800273
:104A70007401C0E0F404124832D0E01247082274F6
:104A800004800474028000CCC0E0EDC0E0E51AC3ED
:104A90009CCCAD1B50011D10AF068C1A8D1B8006DF
:104AA0008C1A8D1BD2AF124715D0E0FDD0E0FC224E
:104AB000D083D082E9C0E0E493A3C386F0C5F0952B
:104AC000F0F908E493A386F0C5F095F0700BE49339
:104AD000A3C3994005E9048002A3E475F002A4256C
:104AE00082F582E5F03583F583D0E0F9E493A3C045
:104AF000E0E493C0E022D083D082ECC0E0EDC0E0DF
:104B0000E493A3FCE493A3FDED4C600D124B42EC47
:104B100024FFFCED34FFFD80EFE493A3FCE493A3BA
:104B2000FDED4C600D124B81EC24FFFCED34FFFDDC
:104B300080EFD0E0FDD0E0FCE493A3C0E0E493C0BC
:104B4000E022C0E0C3E49396087401939618400FE6
:104B5000E49366700808740193661870007019A3D6
:104B6000A3C3E49396087401939618A3A3400DD0B1
:104B7000E0D0E0D0E0024B32A3A3A3A3A3A3D0E0F4
:104B800022C0E0C0F088F0E49366700808740193D6
:104B900066187000A8F0A3A3700BD0F0D0E0D0E0AE
:104BA000D0E0024B32A3A3D0F0D0E022C2AF02008B
:104BB0000022C0E074F21249B1A2AFE433FED2AFDA
:104BC000E589A2E35003125D35758900C2C5751CE5
:104BD00000EEA2E092AF7F01024A10C0E074F21230
:104BE00049B1A2AFE433FED2AFE58AA2E25003128C
:104BF0005D35758A00C2EB80D5C0E0C0D0E8C0E06A
:104C0000E9C0E0E5A8D2AFC2C7751C00A2E7A2E7E1
:104C100092AFD0E0F9D0E0F8D0D0D0E03274F51205
:104C200048C5EAFEEBFFEE2434F8EF3400F9880AB9
:104C3000890BEE2435F582EF3400F583E0F8EE249D
:104C400037F582EF3400F583E0F50CEC850CF0A429
:104C5000FCAAF0850CF0EDA42AFDE82CF8E43DF95F
:104C60007A257B00124777EA850A82850B83F0F864
:104C7000740758F97401B900028004C333D9FCFAEF
:104C8000E8131313541FF8EE28F8EF3400F9E82462
:104C90005DF582E93400F583E05A6008EE2434F5CE
:104CA00082EF802CEE2434F582EF3400F583E0C0EF
:104CB000E0EE2436F582EF3400F583E0F5F0D0E045
:104CC00084A8F0EE28F8EF3400F9E82438F582E9FA
:104CD0003400F583E0F97F0402497174F51248C588
:104CE000EAFEEBFFEE2434F582EF3400F583E0C0FA
:104CF000E0EE2435F582EF3400F583D0E0F08E82CB
:104D00008F83A3A3A3A3A3A3A3C082C0838E828FF8
:104D100083A3A3A3A3A3E0F8A3E0F9D083D082E008
:104D2000C398F50AA3E099F50BEE247FF582EF34E2
:104D300000F583E064017069EE2480F582EF3400B1
:104D4000F583E0F8A3E0F98E828F83A3A3A3A3A346
:104D5000A3A3E0FCA3E0FD8E828F83A3A3A3A3A360
:104D6000E0FAA3E0FBC3EA9CEB9D5010C3EC98ED86
:104D700099402EC3EA98EB995027800EC3EA98EB2E
:104D8000994007C3EC98ED9940177C7D7D0CEEFAB5
:104D9000EFFB126671EE247FF582EF3400F583E4B9
:104DA000F0EE2434F8EF3400F9E8FCE9FDEE2435A8
:104DB000F582EF3400F583E0F8EE2437F582EF3426
:104DC00000F583E0F50CE50A850CF0A4F50AAAF0DD
:104DD000850CF0E50BA42AF50BE8250AF8E4350B61
:104DE000F97A257B00124777EA8C828D83F0F8747C
:104DF0000758F97401B900028004C333D9FCFAE8FA
:104E0000131313541FF8EE28F8EF3400F9E8245D6B
:104E1000F582E93400F583E05A6008EE2434F58227
:104E2000EF802CEE2434F582EF3400F583E0C0E00F
:104E3000EE2436F582EF3400F583E0F5F0D0E0841F
:104E4000A8F0EE28F8EF3400F9E82438F582E934C8
:104E500000F583E0F9125A57024CD6C082C0838510
:104E60001A82851B83E0F8A3E0F9C3EA9CEB9D500E
:104E700010C3EC98ED99401BC3EA98EB995014804D
:104E80000EC3EA98EB994007C3EC98ED994004797A
:104E90000180027900D083D08222EAC39CFAEB9D84
:104EA000FB2274EF1248C5900B43E064086005E0F4
:104EB0006407702A9061C8E06024900B71E0F46090
:104EC0001DE0F875F003A4C8AAF02AF9747328FE4F
:104ED000740B39FF8E828F83A3A3A3E07003024F6C
:104EE000D2906060E0C0E0EE2468F582EF3400F517
:104EF00083D0E0F0750EE6750F0C750A00750B0097
:104F0000E5D914F50CE5D95403F510601774036561
:104F100010605CE50C6010EE2467F582EF3400F55C
:104F200083E07003024FB7900CE1E06401602AEE69
:104F30002482F582EF3400F583E060047804800277
:104F40007800850C0AE50AC398FA95E0FB126539EA
:104F50008A0A8B0BEA450B70051268758074EE2483
:104F600082F582EF3400F583E070048A0E8B0FE542
:104F70000C6012850E82850F83F50DE5D9F0A3151F
:104F80000DE50D70F6EE2482F582EF3400F583E036
:104F9000604474FC250CF50C780E124A6CAC0CA91C
:104FA00010EEFAEFFB12670D7402124818E9702632
:104FB000AA0AAB0B125DF5793D8E828F83A3A3A362
:104FC000A3E0FA7B0012640DEEFAEFFB1266891281
:104FD000671F79008074740365106056850C127524
:104FE00013007812124A6CAC0EAD0FAA0AAB0B126A
:104FF00066E97402124818EE2468F582EF3400F571
:1050000083E064807004747F8001E0F50E780E12F6
:105010004A70E510F50E780E124A70A90CAC0AAD74
:105020000B900B71E0FA7B001263D17402124818E6
:105030008013900B43E06408600BAC0EAD0FEEFAEA
:10504000EFFB12677912688179017F0A0249717456
:10505000F51248C574FC124802EAFEEBFF890AA269
:10506000AFE433F50BC2AF806AEE2463F8EF34008F
:10507000F97A007B00A2AFE433F50CC2AF888289D5
:1050800083E0FCA3E0FDEC4D603A88828983E0FA7E
:10509000A3E0FB8A828B83E0FCA3E0FD8882898306
:1050A000ECF0A3EDF08A828B83E4F0A3F088828990
:1050B00083E0FCA3E0FDEC4D700A88828983A3A302
:1050C000E4F0A3F0E50CA2E092AF125DF5900C8441
:1050D000E004F0EE2463F582EF3400F583E0F8A3FA
:1050E000E0F9E849603DEE2463F582EF3400F58392
:1050F000E02402FAA3E03400FBEA2402F50CEB34CE
:1051000000F50D780C124A6C8A828B83E0FCA3E0D8
:10511000F9EEFAEFFB1266AD7402124818E970035B
:10512000025069900C84E06063900C85E0F8900C6C
:1051300084E0C398500C7402650A7050900C86E0AD
:10514000604A8E828F83A3A3A3A3E0851A82851B66
:1051500083F0A3E4F0900C84E0F8740212484DE868
:10516000F0A3E4F0900C84E0F8900C83E028F07455
:105170000212484DAC82AD83851A82851B83AA82B8
:10518000AB8379011263DD900C84E4F0E50BA2E0BF
:1051900092AF7404124818024CD6FFFF8521878510
:1051A00022C622C0E0C0D0E8C0E0E9C0E0EAC0E02A
:1051B000EBC0E0ECC0E0EDC0E0EEC0E0C00AC00B28
:1051C000C00CC00DC082C083C0F0A2AFE433FEC2E9
:1051D000AF759B00906182E0A2E05012E591A2E0E1
:1051E000500C7591FE740165217003124EA2E0A26D
:1051F000E55051E591A2E5504B7591DF900B43E0EE
:1052000064076005E06408702374016521703579D6
:1052100001900B71E0FA75F003A4CAA8F028FB74A2
:10522000732AFA740B3BFB12504F8018E0640D7028
:1052300013900B65E004F064287002E4F07A00E05B
:10524000F9126887906182E0A2E640030252EAE523
:1052500091A2E640030252EA7591BF900B43E064CD
:105260000570081267AF1267BB80031267B575211E
:1052700000126815E9900B44F07900126809126574
:10528000E77A017B00900B42E0F9125ABF90780355
:10529000E064427055900CE5E014F0704DC2AF121E
:1052A00052A200782AD0E0F618D0E0F6E59F540725
:1052B0007005750BFF8003750B7FC4C0E07829E68D
:1052C000F50A08E6550BF50B740B780A1247E0D087
:1052D000E0250AF8906270E0A2E740F8E8C3339056
:1052E0006272F0906270E0D2E0F0906181E0A2E33F
:1052F0005009E5E9A2E3500375E9F7A3E0A2E750FE
:1053000009E591A2E7500375917FEEA2E092AFD03C
:10531000F0D083D082D00DD00CD00BD00AD0E0FEDC
:10532000D0E0FDD0E0FCD0E0FBD0E0FAD0E0F9D056
:10533000E0F8D0D0D0E032C0E0C0D0C082C08390CE
:105340006183E0A2E05009E5BFA2E0500375BFFE13
:10535000E0A2E15009E5BFA2E1500375BFFDE0A264
:10536000E25009E5BFA2E2500375BFFBE0A2E350A3
:1053700009E5BFA2E3500375BFF7E0A2E45009E5D9
:10538000BFA2E4500375BFEFE0A2E55009E5BFA25C
:10539000E5500375BFDFE0A2E65009E5BFA2E65085
:1053A0000375BFBFD083D0828088C0E0C0D0E8C082
:1053B000E0E9C0E0EAC0E0EBC0E0ECC0E0EDC0E056
:1053C000C0F0E5A7A2E6500FE5A1A2E6500953A759
:1053D000BF75A1BF12540FE5A7A2E5500CE5A1A22D
:1053E000E5500653A7DF75A1DFE5A7A2E15009E567
:1053F000A1A2E1500375A1FDE5A7A2E2500CE5A131
:10540000A2E2500653A7FB75A1FBD0F00253207413
:10541000F81248C5752101900B43E064067015121F
:10542000673D8A828B83A3A3A3A3A3A3E0FAA3E08F
:10543000FB12679DA2AFE433FED2AF900B49E0644C
:105440000170187A207B00900B42E0F9125B677ABA
:10545000207B00900B42E0F9125AC5906182E0D2A5
:10546000E6F0900CE2E0602185C6228016900B48A1
:10547000E064017008E5C654F84405F5C653BEFC67
:1054800012519C7401652160E4EEA2E092AF7F01AD
:10549000024971FF8E238F24858228858327851AF0
:1054A00082851B83E0CEA3E0CF852882852783EB0E
:1054B000C9EAC8EDCBECCA75F010C3E833C8E933CC
:1054C000C9EA33CAEB33CBC3EA9EF526EB9FF52539
:1054D000B35004AB25AA26EC33CCED33CDD5F0DAAE
:1054E000AE23AF242274E91248C574F8124802852D
:1054F0001A82851B83ECF0A3EDF08A0A8B0B900BCC
:1055000043E024F7C394055006750A0102567C1245
:10551000673D8A0C8B0DAE0CAF0DEE4F700302563B
:1055200079AC0AAD0B740212484DAA82AB831267A4
:10553000CD8E828F83A3A3750EFF750FFF7510FFAD
:10554000751100780E1246AC740212484D7512FFA8
:105550007513FF7514FF75150078121246AC780E9E
:10556000791212449F502A780E7912124659750A00
:1055700001750BC8750C00750D00780A790E124480
:105580009F5052850E0A850F0B85100C85110D80DA
:10559000507516017517C875180075190085120A1F
:1055A00085130B85140C85150D780A790E12465952
:1055B0007816790A12449F401C750A00750B007515
:1055C0000C00750D01780A7912124659780A790E85
:1055D000124620800C750A01750B00750C00750DC4
:1055E000007409780A124601750E19F50FF510F5C9
:1055F00011780A790E12455E8E828F83A3A3A3A32E
:10560000A3A3E0F8A3E0F97AD07B03124777880ED2
:10561000890FE4F510F511780A790E124620740608
:1056200012484DE0F8A3E0F97AD07B03124777E8FF
:10563000FA8A0EE4F50F780A790E12449F50077823
:105640000A790E124659900B43E06408600AE06440
:10565000066005E06405702D750E0D780E790A124E
:10566000449F4021750EF4750FFF7510FF7511FFF3
:10567000780A790E124620800C750A00750B0075A9
:105680000C00750D00851A82851B83E0F8A3E0F5F8
:10569000838882780A1246E174081248187F100243
:1056A000497174F71248C51267DF900CE0E064019D
:1056B0007010906245E4F0A3F053F4F343FE0C53F2
:1056C00090F312678BE5C654804449F5C6E59E54B5
:1056D0007F644970F8906185740FF0900CDEE0F4FF
:1056E0007002A3E0604E900CDFE0600814601B14B1
:1056F000602E8040750A01750B00900CDEE0780A80
:105700001247EFE50AF45280802A750A01750B00F2
:10571000900CDEE0780A1247EFE50AF4529080140C
:10572000750A01750B00900CDEE0780A1247EFE570
:105730000AF452A079007F0202497174F71248C539
:10574000E9FEEAFF74016E700C7A807B00900B42D8
:10575000E0F9125ABF906A90E493F46008E493F978
:105760001265DB800953C680E59E547F70FA12678C
:1057700091900CE0E0640170031265F3900CDEE0A0
:10578000F47002A3E0604B900CDFE0600814601A34
:1057900014602C803D750A01750B00900CDEE078DA
:1057A0000A1247EFE50A42808028750A01750B004E
:1057B000900CDEE0780A1247EFE50A4290801375FC
:1057C0000A01750B00900CDEE0780A1247EFE50A3B
:1057D00042A01267DF12673D8A0A8B0BA80AA90B49
:1057E000E8496015E5E170FCE82414F582E934002D
:1057F000F583E0F46003E0F5E174016F700A7A016B
:10580000900B42E0F9125B3102573674ED1248C535
:105810008A0A8B0B8C0C8D0D741312484D780E1266
:1058200046D2780A790E12449F7512017513C87515
:1058300014007515005012780A790E124659781224
:10584000790A12449F50168010780E790A12465930
:105850007812790E12449F40047901800279007F0A
:105860000C02497174ED1248C58A0A8B0B8C0C8DA1
:105870000D741312484D780E1246D2780E790A1222
:10588000449F4011780A790E124659AA0AAB0BAC14
:105890000CAD0D802275120075130075140075157E
:1058A000017812790E1246597812790A124620AA06
:1058B00012AB13AC14AD1580A68A828B83750AFFD8
:1058C000750BFF750CFF750D00780A1246BF7F043B
:1058D00002497174F51248C58C828D83780A12468C
:1058E000D28A828B83780A124685EA2404F8EB3444
:1058F00000F98C828D83A3A3A3A3E0FCA3E0FD8821
:10590000828983C3E09CF0A3E09DF088828983C3F1
:10591000E09420A3E0944E40268A828B83750AFF90
:10592000750BFF750CFF750DFF780A1246468A82CB
:105930008B83A3A3A3A3E02420F0A3E0344EF002C2
:1059400058B974F51248C5E9FE900C98E0FAA3E046
:10595000FBEEC333F8E433F974E228F5827480393E
:10596000F583E02AF50AA3E03BF50B780A124A6CAE
:105970007A407B427C0F7D001254947402124818C6
:105980008A0A8B0B8C0C8D0D7410780A1245E8AACC
:105990000AAB0B7F0402497174F11248C58A0E8B61
:1059A0000F8C108D11740F12484DE0FAA3E0FB74B8
:1059B0001112484DE0F50AA3E0F50B780A124A6C83
:1059C000EA2401F50AEB3400F50BE4F50CF50D784B
:1059D0000E790A1244DE750A71750B02780E790A87
:1059E0001244DEAA0EAB0FAC10AD11125494740227
:1059F0001248188B0BEA450B60047A0180027A008A
:105A0000EC2AFCED3400FD741312484DE0F8A3E0DD
:105A1000F9E8FEE9FFECF8EDF97A717B02124777BD
:105A2000880A890B8E828F83780A1246E1ECF8EDA2
:105A3000F97A717B021247778A0A8B0B7405780A10
:105A40001247EF8E828F83A3A3A3A3E50AF0A3E5F9
:105A50000BF07F08024971C082C083E9906000F0BA
:105A6000D083D082221244755EBD0312447568BD96
:105A700003124475A6BD03124475EFBD03124475AD
:105A800029BE0312447583BE03124475A4BE0312DB
:105A90004475ADBE03124475FABE0312447523BFAC
:105AA000031244752DBF0312447599BF0312447548
:105AB0002BC00312447575C003124475ABC00312AA
:105AC000447537C10312447578C103124475AFC1E0
:105AD00003124475C1C103124475E0C10312447539
:105AE000E9C103124475B6C20312447587D6031286
:105AF00044757ED70312447598D703124475A9D70D
:105B000003124475C8D903124475E7D903124475CA
:105B1000DCFD0112447512FE0112447548FE0112AB
:105B2000447593FF011244756D8F04124475838F81
:105B3000041244758D8F04124475D78F0412447576
:105B40008990041244752EDB0312447543DB031263
:105B50004475F3DB0312447533DC031244754CDCEB
:105B60000312447587DC03124475D4DC03124475B8
:105B700006DD0312447548DD0312447549DF031244
:105B80004475368C041244755F8C041244758E8CF7
:105B900004124475A68C04124475E88C04124475F2
:105BA00075E803124475A5E803124475B8E80312BA
:105BB0004475E7E80312447506E903124475B1E938
:105BC000031244754AEA03124475D3EA031244757A
:105BD000DFEB03124475D3FF0312447540910412A6
:105BE000447533D40112447598D60112447539D8DE
:105BF00001124475EDD80112447580D90112447523
:105C000005DA011244752ADA0112447580DD0112A9
:105C1000447506DE0112447539DF0112447573DFE5
:105C200001124475A8DF0112447568E10112447540
:105C3000C5E1011244750EE20112447579E20112C8
:105C40004475EAE2011244751CE30112447534E321
:105C5000011244757DE4011244758DE4011244750E
:105C6000A8E501124475CAE50112447500E6011267
:105C70004475B4E70112447541E80112447580E8A7
:105C800001124475A4E901124475428B0412447553
:105C9000528B04124475E48B041244750B8C04126D
:105CA00044752B8C04124475A37F00124475E27F67
:105CB00000124475B49104124475BF9104124475E6
:105CC000E19104124475118D04124475218D041262
:105CD0004475338D04124475E58D04124475F3FE4A
:105CE0000212447578FF02124475DEFF02124475F9
:105CF0000B820412447533820412447563820412C9
:105D00004475C282041244751083041244754A8398
:105D1000041244757E8304124475DA8304124475B8
:105D2000F088041244751A89041244757D8904129E
:105D300044758F8904124475DF89041244751D8AE5
:105D400004124475208A04124475CB9104124475E0
:105D5000DB9104124475DE9104124475F87F001241
:105D600044758FF9031244752AFB031244758BFBAB
:105D700003124475D1FB031244750BC8031244751A
:105D800045C80312447562C8031244753FC9031223
:105D90004475C9C903124475B6CA03124475EACBE7
:105DA000031244750FCC0312447578CC031244756A
:105DB000D3CC0312447555B60312447592B6031240
:105DC0004475ADB6031244757EB7031244756CB8C2
:105DD0000312447519BA031244758BBA0312447541
:105DE00073BB03124475FABB031244751ABD031248
:105DF0004475F38504124475458604124475CF86B4
:105E000004124475368704124475D4FB031244759A
:105E1000FEFB03124475CCFC03124475A7FD03126C
:105E20004475769F031244753DA00312447574A017
:105E3000031244759EA003124475FEA0031244751C
:105E400054A103124475B9A10312447551A203125F
:105E5000447560A303124475F7A40312447584A526
:105E600003124475EBA50312447502A60312447590
:105E70001CA7031244755AA703124475DDCA021207
:105E800044755ECE02124475E6CF021244753DD0D1
:105E9000021244755CD002124475DAD002124475C5
:105EA00070D20212447555D30212447563D70212A0
:105EB000447539D8021244750080011244751F845C
:105EC00001124475E887011244756C89011244750A
:105ED000768A01124475B68A01124475C28C011289
:105EE00044757B8D01124475A98D011244756C8E29
:105EF000011244759B8E01124475EB8E011244759C
:105F0000299001124475EA9B01124475419E0112C9
:105F10004475C79F0112447543A0011244755BA0EC
:105F20000112447585A001124475B6A00112447592
:105F3000F1A0011244752BA10112447543A2011274
:105F40004475E5A20112447519FE0312447530FE32
:105F50000312447561FE031244759CFE03124475DE
:105F6000C6FE03124475F0FE0312447507FF0312C8
:105F700044751EFF0312447535FF031244755EFF1E
:105F80000312447571FF0312447587FF03124475B1
:105F90009AFF03124475C1FF03124475D38C031298
:105FA0004475D78D031244750F8E03124475328EDB
:105FB000031244753D8E03124475608E03124475BE
:105FC0006F8F03124475449003124475BF900312FF
:105FD0004475479103124475829103124475B99137
:105FE00003124475479203124475209303124475BB
:105FF0008093031244758B93031244750A94031221
:1060000044750D94031244751094031244759F94C3
:1060100003124475A29403124475D294031244757A
:10602000FC9403124475EA95031244759C9603127E
:10603000447521CD0312447549CD0312447577CDC3
:1060400003124475AECD031244750CCE0312447591
:1060500057CE03124475A2CE03124475E2CE03124A
:10606000447528CF0312447556CF0312447513D0DC
:10607000031244751DD0031244752AD003124475CF
:106080005DD00312447529D10312447535D1031232
:1060900044754DD10312447557D103124475EB8DED
:1060A00004124475F98D04124475118E041244755E
:1060B000298E04124475519F02124475FD9F0212ED
:1060C000447578A00212447599A102124475D5A1B5
:1060D000021244757EA20212447565A30212447531
:1060E000C9A40212447520A502124475A1A502128A
:1060F000447591A602124475DEA60212447564A787
:106100000212447596A702124475AAA90212447598
:10611000ECA9021244750AAA021244758DAA021251
:10612000447561AB0212447529AC0212447532AF5A
:106130000312447505B003124475AEB003124475E2
:1061400001B103124475B1B1031244753DB203129B
:10615000447529B30312447558B3031244756BB4E4
:1061600003124475B3B40312447588B50312447521
:10617000C4B503124475E0B50312447505900412CA
:1061800044752AF00312447540F00312447566F01A
:106190000312447582F1031244758CF103124475A5
:1061A000C1F203124475B9F303124475E4C2031239
:1061B000447514C40312447547C40312447591C452
:1061C0000312447558C603124475008002124475C8
:1061D0006A8002124475C98102124475D981021283
:1061E00044750682021244755D820212447506836C
:1061F000021244750D8402124475D784021244754C
:106200003786021244757A86021244751F8702127D
:1062100044756C8702124475928702124475A089F6
:1062200002124475A58902124475AA8B02124475A4
:10623000F78B021244756A8C021244759D8C02120F
:1062400044753F8D02124475E88D02124475208E0C
:1062500002124475238E021244756B8E021244752D
:10626000AB8E02124475028F02124475BCF6031203
:106270004475D4F6031244751CF70312447532F7C3
:106280000312447579F7031244758DF803124475AF
:106290001AF90312447565F9031244752AA3011211
:1062A000447536A30112447571A301124475B6A357
:1062B0000112447576A401124475FCA401124475C0
:1062C00061A5011244758DA501124475C6A5011280
:1062D000447504A801124475E8A901124475CEABB7
:1062E0000112447511AD011244755FAF011244757E
:1062F00071B001124475BCB101124475CCB20112E7
:106300004475E9B20112447524B30112447546B3D1
:1063100001124475A9B3011244756AB8011244759B
:10632000FFB80112447550B90112447577B90112D2
:106330004475C9B901124475E7B90112447541BAEF
:106340000112447540BB01124475C4BB011244756F
:10635000DED103124475E8D1031244752BD2031227
:10636000447546D203124475D6D203124475FED248
:10637000031244753BD30312447572D30312447560
:106380009BD30312447510D40312447525D4031211
:1063900044753AD4031244756BD4031244757FD408
:1063A00003124475A4D403124475DED40312447559
:1063B0000AD50312447542D503124475C1D50312A0
:1063C00044750AD60312447534D6031244755FD659
:1063D00003124475298A041244750080031244751F
:1063E0002E80031244757C81031244755C82031273
:1063F00044757B8203124475F882031244753B8313
:106400000312447591840312447552850312447536
:10641000D987031244757A88031244757089031270
:1064200044756D8A03124475C78B03124475528CF0
:1064300003124475958704124475FE87041244754F
:10644000528804124475798804124475AA8804128B
:106450004475BBDF0312447528E0031244756FE0F6
:106460000312447587E10312447583E203124475F5
:1064700066E3031244750D97031244754F97031298
:106480004475219803124475FA9803124475F499DF
:1064900003124475D69A031244753F9B0312447548
:1064A000F59B03124475699C03124475D59C031235
:1064B0004475FE9C03124475789D03124475119E29
:1064C00003124475769E031244758B9E0312447525
:1064D000D19E03124475EA9E031244754F9F031226
:1064E0004475529F03124475C3F303124475EBF3D2
:1064F0000312447529F403124475E7F4031244753A
:106500004EF5031244756AF50312447592F50312B1
:106510004475C2F503124475D1F5031244754EF665
:106520000312447574F603124475EF8F021244751A
:10653000CD9102124475FF93021244753B940212EE
:1065400044756894021244755295021244759D95E3
:1065500002124475E89502124475FA9502124475C8
:106560003A96021244756F9602124475BD96021255
:106570004475EC96021244750F97021244755C97AD
:1065800002124475E19702124475FB990212447598
:106590003A9C021244757B9C021244751D9E0212A5
:1065A00044755E9E02124475D19E02124475279F67
:1065B00002124475B0E602124475AEE70212447549
:1065C00047EE0212447568F00212447533F202126B
:1065D00044759BF3021244752BBC01124475DABC5E
:1065E0000112447507BD011244754DBD0112447579
:1065F0008DBE0112447523C0011244759DC0011265
:106600004475B8C00112447533C1011244758DC27E
:1066100001124475EDC301124475F3C401124475AF
:1066200054C6011244756DC601124475CBC60112E1
:106630004475B9C701124475ECC7011244755CC8B2
:1066400001124475D6C80112447520C9011244755F
:10665000EAC901124475BFCA011244759ECB0112EA
:10666000447529CC0112447597CC011244750BCDA9
:106670000112447536CD01124475F5CD01124475F1
:106680005ACF0112447577CF0112447596CF01128B
:10669000447587D001124475ACD001124475D6D030
:1066A0000112447551D101124475ABD101124475E8
:1066B00014D301124475C2D30112447503D40112DC
:1066C0004475DCD8021244752AD90212447536D9B1
:1066D0000212447514DA0212447545DA0212447546
:1066E00076DA02124475F6DA021244752EDB0212D3
:1066F000447580DB02124475BDDB02124475DADD9D
:106700000212447500E002124475EBE10212447576
:10671000D5E302124475EC7F00124475C9E90112F9
:106720004475F9E901124475D2F00112447557F22B
:106730000112447554F8011244753CF90112447574
:1067400079F9011244759CF901124475CDF90112D1
:106750004475D6F901124475E0F901124475CEFA78
:1067600001124475C4FB01124475946A0012447509
:10677000936E00124475996E00124475D475001220
:106780004475ED7A001244755CEC03124475F2EC2A
:106790000312447508ED031244757EED031244752F
:1067A000F2ED0312447530EE03124475A4EE0312A9
:1067B00044751DEF0312447526EF0312447532EF42
:1067C0000312447547EF0312447585EF03124475B5
:1067D0009BEF03124475FAEF0312447528E4031289
:1067E000447535E4031244754FE4031244758EE496
:1067F00003124475CCE40312447531E50312447569
:1068000046E50312447551E5031244755EE5031233
:10681000447575E50312447583E5031244758EE5EE
:10682000031244759AE503124475A9E503124475F1
:10683000B4E503124475D7E5031244757EE60312EE
:1068400044758EE603124475A8E603124475C5E646
:1068500003124475E1E60312447506E7031244751A
:1068600011E70312447526E7031244753AE7031251
:1068700044759BE703124475A1E703124475A7E72B
:1068800003124475ADE703124475C5E7031244755E
:10689000F8E703124475B3BC0212447537BD021207
:1068A0004475E6BD0212447545BF0212447566C1C7
:1068B0000212447552C20212447587C20212447514
:1068C000A9C20212447558C30212447550C502127F
:1068D000447579C5021244750BC6021244753DC653
:1068E000021244754AC602124475A1C602124475CA
:1068F000C7C60212447534C90212447537CA02125F
:1069000044758FCA0212447542AE021244754CAFF0
:106910000212447533B0021244753DB00212447540
:106920005FB0021244756BB00212447504B20212D9
:10693000447533B2021244754FB302124475A8B3C2
:10694000021244750EB502124475EDB5021244757B
:1069500049B602124475B6B602124475F1B6021277
:10696000447530B702124475E9B90212447503BA8E
:10697000021244758FBA021244759DBA0212447510
:10698000F6BA0212447504BB0212447577BB0212B8
:106990004475DBBB0212447525BC02124475C5F375
:1069A00002124475E7F3021244750DF602124475A3
:1069B00022F9021244753AFA02124475EDFA0212F3
:1069C0004475CFFB021244754E84041244757384DF
:1069D00004124475E58404124475B8A70312447583
:1069E000C1A703124475CAA703124475A1A80312D4
:1069F000447552AA0312447588AA03124475C2AAA8
:106A000003124475F8AA0312447532AB031244759D
:106A100066AB0312447592AB03124475DBAB0312F1
:106A2000447515AC031244755EAC03124475B6ACE4
:106A300003124475EBAC0312447546AD0312447562
:106A400080AD03124475D1AD0312447507AE031235
:106A5000447541AE031244756FAE0312447592AE95
:106A600003124475C28E04124475EE8E04124475EE
:106A7000498F04124475538F04124475638F0412B6
:106A80004475CDFF01124475969104FFFFFFFFFF8F
:106A9000FFFFFFFF74F4124859907803E0644270DE
:106AA00055900CE5E014F0704DC2AF126AAE00785C
:106AB0002AD0E0F618D0E0F6E59F54077005750B74
:106AC000FF8003750B7FC4C0E07829E6F50A08E66D
:106AD000550BF50B740B780A1247E0D0E0250AF845
:106AE000906270E0A2E740F8E8C333906272F090E1
:106AF0006270E0D2E0F0900B71E0F47003026E8EF1
:106B0000E0F875F003A4C8AAF02AF9747328FE749B
:106B10000B39FFEE2401F582EF3401F583E0F8A391
:106B2000E0F9E849601EEE2401F582EF3401F583B7
:106B3000E0FAA3E0FBEE2400F582EF3401F583E0F8
:106B4000F9125ABF8E828F83A3A3A3A3A3A3A3E0AA
:106B5000F8A3E0F98E828F83A3A3A3A3A3E8F0A3F5
:106B6000E9F0906054E0900B4AF0906055E0900B93
:106B70004BF0906056E0900B4CF0906057E0900B1B
:106B80004DF0906058E0900B4EF0906059E0900B03
:106B90004FF090605AE0900B50F090605BE0900BEB
:106BA00051F090605CE0FC900B52F090605DE0FB77
:106BB000900B53F090605EE0FD900B54F090605F9E
:106BC000E0FA900B55F0900B50E08C0A250AF8E49F
:106BD0003400F98D0AE8250AF8E93400F98B0AE84F
:106BE000250AF8E93400F98A0AE8250AFAE93400A6
:106BF000FBEE24F6F582EF3400F583E02AF0A3E003
:106C00003BF08C0AEE24F8F582EF3400F583E025A2
:106C10000AF0A3E03400F0EE24FAF582EF3400F538
:106C200083E02401F0A3E03400F0EE24FEF582EFCF
:106C30003400F583E0F8A3E0F9E849604290600091
:106C4000E0C333FCE433FDE82CF582E93DF583E055
:106C50002AF0A3E03BF0906000E0FA900B52E0FCD9
:106C6000EAC333FAE433FBE82AF8E93BF9E8244ABB
:106C7000F582E93400F583E02CF0A3E03400F090D5
:106C80000B50E07011900B53E0700BA3E07007A362
:106C9000E07003026D8B8E828F83A3A3A3A3A3E076
:106CA000F8A3E0F9EE240DF582EF3400F583E02837
:106CB000F8A3E039F9EE240BF582EF3400F583E810
:106CC000F0A3E9F0EE240FF582EF3400F583E4F051
:106CD000EE241CF582EF3400F583E06401701EEEB3
:106CE0002420F582EF3400F583E0F8A3E0F9EE24E8
:106CF0001DF582EF3400F583E8F0A3E9F0900B4B2B
:106D0000E06052EE241CF582EF3400F5837401F04C
:106D1000EE2469F582EF3400F583E07038EE2473D9
:106D2000F582EF3400F583E0702BEE247FF582EFDF
:106D30003400F583E0701EEE2420F582EF3400F578
:106D400083E0F8A3E0F9EE241DF582EF3400F5832B
:106D5000E8F0A3E9F0906062E07003026E3E8E827C
:106D60008F83E0F8A3E0F9E82406FCE93400FDE8AD
:106D70002402FAE93400FB1267C18E828F83E0F8A7
:106D8000A3E0C82412F582E8026E44900B52E06042
:106D90003AEE240FF582EF3400F583E4F0EE241C84
:106DA000F582EF3400F583E064017040EE2420F5B5
:106DB00082EF3400F583E0F8A3E0F9EE241DF582BC
:106DC000EF3400F583E8F0A3E98020EE24FCF5829F
:106DD000EF3400F583E02401F0A3E03400F0EE246A
:106DE0001DF582EF3400F583E4F0A3F0EE240BF5FB
:106DF00082EF3400F583E0F8A3E0F98E828F83A35D
:106E0000A3A3A3A3E0687003A3E0696003026CFD81
:106E1000EE240FF582EF3400F583E060128E828F4E
:106E200083A3A3A3A3A3E064057002A3E060047995
:106E3000088002793EEEFAEFFB12668F8050EE2456
:106E40001DF582EF3400F583E4F0A3F09061C8E013
:106E50006006124EA2E970F48E828F83A3A3A3E092
:106E6000602C9061C8E070069060607480F0EEFA6B
:106E7000EFFB12677FE9640160147902EEFAEFFB21
:106E800012504F126773E96401600312671F7F0499
:106E900002492B53BFEF02447274EC124859900B15
:106EA00071E0F875F003A4C8AAF02AF9747328FEFB
:106EB000740B39FF9061D0E07013EE2463F582EF1C
:106EC0003400F583E0F8A3E0F9E849600FEE241DF3
:106ED000F582EF3400F583E4F0A38053EE2469F5E6
:106EE00082EF3400F583E07047EE2473F582EF34CF
:106EF00000F583E0703AEE247FF582EF3400F583ED
:106F0000E0702DEE241CF582EF3400F583E064017F
:106F1000701EEE2420F582EF3400F583E0F8A3E044
:106F2000F9EE241DF582EF3400F583E8F0A3E9F0D3
:106F30008E828F83A3A3A3A3A3E0F8A3E0F9EE249A
:106F40001DF582EF3400F583E028F8A3E039F9E875
:106F5000240108E93400F9EE2407F50CEF3400F5BC
:106F60000D850C82F583E8F0A3E9F0EE240BF582A1
:106F7000EF3400F583C3E098A3E09950358E828FFB
:106F800083A3A3A3A3A3A3A3C082C083EE240BF572
:106F900082EF3400F583E0F8A3E0F9D083D082E0FB
:106FA000C398F8A3E099F9C3E894AAE9941050357E
:106FB000803BEE240BF582EF3400F583C082C08362
:106FC0008E828F83A3A3A3A3A3A3A3E0F8A3E0F9D6
:106FD000D083D082E0C398F8A3E099F9C3E894ABDA
:106FE000E994105008900C88E064017030EE241D84
:106FF000F582EF3400F583E4F0A3F08E828F83A353
:10700000A3A3A3A3E02401F8A3E03400F98E828FA8
:1070100083A3A3A3A3A3A3A3E8F0A3E9F0EE24739F
:10702000F582EF3400F583E064016003027294EEB0
:107030002474F582EF3400F583124A838E828F83A5
:10704000A3A3A3A3A3A3A3E0FCA3E0FD8E828F834D
:10705000A3A3A3A3A3E0FAA3E0FB124E5B74021266
:107060004818E97003027294EE2474F8EF3400F9C2
:10707000880A890B8882F583E0F8A3E0F9850C8201
:10708000850D83E8F0A3E9F0EE2476FCEF3400FDF3
:10709000EEFAEFFB12669BEE247BF582EF3400F5EF
:1070A00083E0F8A3E0F9EE2420F582EF3400F583C5
:1070B000E8F0A3E9F0EE241CF582EF3400F583E458
:1070C000F0EE241DF582EF3400F583E4F0A3F0EE3A
:1070D000240FF582EF3400F5837401F0850C82856E
:1070E0000D83E0F8A3E0F9EE240DF582EF3400F50E
:1070F00083E028F8A3E039F9EE240BF582EF3400A1
:10710000F583E8F0A3E9F08E828F83A3A3A3A3A362
:10711000E0FCA3E0FD850A82850B83E0FAA3E0FB97
:10712000124E9A8A0A8B0BEE242EF582EF3400F56C
:1071300083E0FAA3E0FBE4F50CF50D8A0E8B0FF566
:1071400010F511780A790E1244DEEE2477F582EFFD
:107150003400F583E0F50EA3E0F50F780A790E12FE
:107160004620EE2479F582EF3400F583E06A70035F
:10717000A3E06B7044EE247DF582EF3400F583E0EC
:10718000F8A3E0F9EE2432F582EF3400F583E068ED
:107190007003A3E0697022EE247BF582EF3400F5E2
:1071A00083E0F8A3E0F9EE2430F582EF3400F583B4
:1071B000E0687003A3E0696052EE247DF582EF344D
:1071C00000F583E0F50EA3E0F50F7404780E124786
:1071D000E0780E124A6CEE247BF582EF3400F583E2
:1071E000124A83EE2479F582EF3400F583E0FCA3A4
:1071F000E0C313FDEC13FC8E828F83A3A3A3A3E053
:10720000FA7B001264137404124818EE2476F58297
:10721000EF3400F583E0C0E0EE242BF582EF34007C
:10722000F583D0E0F0EE2479F582EF3400F583E0C9
:10723000F8A3E0F9EE242EF582EF3400F583E8F0B0
:10724000A3E9F0EE247BF582EF3400F583E0F8A3A8
:10725000E0F9EE2430F582EF3400F583E8F0A3E99D
:10726000F0EE247DF582EF3400F583E0F8A3E0F939
:10727000EE2432F582EF3400F583E8F0A3E9F0EE76
:10728000FAEFFB1266A1EE2473F582EF3400F5836A
:10729000E4F08016EE242EF582EF3400F583E0F55D
:1072A0000AA3E0F50BE4F50CF50DEE2418F582EFDA
:1072B0003400F583780A12448A701EEE241FF5828A
:1072C000EF3400F583E0F8EE241DF582EF3400F58D
:1072D00083E0687002A3E06039EE2412F50EEF340B
:1072E00000F50F780E124A6CEE2410F582EF340090
:1072F000F583124A83EE241DF582EF3400F58312E4
:107300004A83AA0AAB0BAC0CAD0D12599874061245
:107310004818EE2418F582EF3400F583780A1246F7
:10732000E1EE241DF582EF3400F583E0C0E0EE24A9
:107330001FF582EF3400F583D0E0F0EE2412FCEF6D
:107340003400FD8E828F83E02402FAA3E03400FB38
:107350001258D3906062E060147C247D818E828F0D
:1073600083E02402FAA3E03400FB1258D38E828F0C
:1073700083E0F8A3E0F988828983A3A3E82408FCCA
:10738000E93400FD74061247158E828F83E02402D3
:10739000F8A3E03400F9E8FAE9FBEE241DF582EFEA
:1073A0003400F583E0F512A3E0F513E4F514F515C8
:1073B000750E01F50FF510F5117812790E124620B1
:1073C0007812790A1244DE8A828B8378121246463A
:1073D0008A828B83750EFF750FFF7510FF780E1272
:1073E00046BF900C82E064016003027521790112AE
:1073F00068098E828F83E0FAA3E0FB750AFF750BA4
:10740000FF750CFF750DFFEA240EF582EB3400F5D5
:1074100083780A1246E1EA2412F8EB3400F9E8FA1C
:10742000E9FBEE2412F582EF3400F583780A124668
:10743000D2E50A75F0E2A4C50AA8F075F004A42804
:10744000F875F0E2E50BA428F50B8A828B83E02522
:107450000AF0A3E0350BF0EE2416F582EF3400F5C8
:1074600083E0F50AA3E0F50B7404780A1247E0E51F
:107470000A2401F8E50B3400F98A828B83E028F0B6
:10748000A3E039F0906062E08E828F837003027512
:1074900095E0F8A3E0C82412F582E83400F583E013
:1074A0002410F0A3E03401F0EE240FF582EF340055
:1074B000F583E06032EE242BF582EF3400F583E0B3
:1074C000F875F071A4C8AAF075F002A42AF98E82AA
:1074D0008F83E0FAA3E0CA2412F582EA3400F58330
:1074E000E028F0A3E039F08E828F83E0F8A3E0C8B3
:1074F0002414F582E83400F5837410F08E828F83B3
:10750000E0F8A3E0C82416F582E83400F58374237C
:10751000F0A37466F0EEFAEFFB124CDB7900027A0E
:10752000E8750E50750F00751000780E790A124438
:107530009F40030273F2EE241DF582EF3400F583C1
:10754000E0F8A3E0F9E84960030273F2780A124A0E
:1075500068EEFAEFFB1266A77404124818E964019A
:1075600060030273F2EE240FF582EF3400F583E03E
:1075700060128E828F83A3A3A3A3A3E0640570028D
:10758000A3E0600479088002793EEEFAEFFB126610
:107590008F79018089E0F8A3E0C82412F582E834ED
:1075A00000F583E02410F8A3E034FFF97A717B0240
:1075B000124777880A890BEE242EF582EF3400F506
:1075C00083E0F8A3E0F9C3E50A98E50B99500302BC
:1075D00074A880B074EC124859EAFEEBFF8C828DDF
:1075E00083E0F8A385820A85830B603B1470030255
:1075F00077BC147003027AB114700302783824FD4A
:107600007003027951147003027AE814700302794E
:10761000A824FE700302795614700302799814703E
:1076200003027A34027AD7EE2476F512EF3400F5AD
:1076300013E0851282851383F0850A82850B83A36C
:1076400085820A85830BEE2477F510EF3400F5115F
:107650007902AC0AAD0BAA10FB1266B98A0A8B0B31
:10766000EE2479F50EEF3400F50F7902AC0AAD0B7C
:10767000AA0EFB1266B98A0A8B0B7902AC0AAD0B13
:10768000EE247BFAEF3400FB1266B98A0A8B0BEE0C
:10769000247DF50CEF3400F50D7902AC0AAD0BAA90
:1076A0000CFB1266B98A0A8B0B851282851383E064
:1076B000C333F0851082851183E0F8A3E0F9E8C3B5
:1076C00033F8E933F9851082851183E8F0A3E9F0F6
:1076D000850E82850F83E0F8A3E0F9E8C333F8E96B
:1076E00033F9850E82850F83E8F0A3E9F0850C82DB
:1076F000850D83E0F50EA3E0F50F7404780E1247B4
:10770000EF850C82850D83E50EF0A3E50FF0EE24E6
:1077100074F50CEF3400F50D7902AC0AAD0BAA0C30
:10772000FB1266B9850C82850D83C082C0838E8270
:107730008F83A3A3A3A3A3E0F8A3E0F9D083D0820F
:10774000E0C398F8A3E099F9C3E894FFE9947F4077
:1077500003027812EE247DF582EF3400F583E0F524
:107760000AA3E0F50BE4F50CF50DEE247BF582EFB2
:107770003400F583E02401F50EA3E03400F50FE4B6
:10778000F510F511EE2479F582EF3400F583E0F879
:10779000A3E0F9E8C333F8E933F988128913E4F573
:1077A00014F515780E79121244DE780A790E124417
:1077B0009F4004793B805DEE24738062EE2480F567
:1077C0000CEF3400F50D7402C0E07905AC0AAD0B86
:1077D0007A7D7B0C1266B9EAFCEBFDD0E0F9AA0CCD
:1077E000AB0D1266B9850C82850D83C082C0838E75
:1077F000828F83A3A3A3A3A3E0F8A3E0F9D083D04F
:1078000082E0C398F8A3E099F9C3E894FFE9947F74
:1078100040097928EEFAEFFB027AD2EE247FF58256
:10782000EF3400F5837401F0EE241DF582EF34008F
:10783000F583E4F0A30279A4EE24E1F582EF3400AD
:10784000F583E07039EEF8EFF97A567B0B8A828B7C
:1078500083A3E0C0E0E824E2F582E93400F583D0B8
:10786000E0F08A828B83A3AA82AB8388828983A378
:10787000A882A983EA645E7003EB640B70CFEE24E8
:10788000E2F582EF3400F583E0A2E0EE401124DD62
:10789000F582EF3400F583741AF0790D027AAB2487
:1078A00062F582EF3400F583E4F0EE2467F582EFB1
:1078B0003400F583E4F0EE24E0F582EF3400F58344
:1078C0007401F07908AC0AAD0BEE249BFAEF34009A
:1078D000FB1266B98A0A8B0B7902AC0AAD0BEE2457
:1078E000A3FAEF3400FB1266B98A0A8B0BEE2493DD
:1078F000F50CEF3400F50D7908AC0AAD0BAA0CFBC2
:107900001266B98A0A8B0B7908AA0CAB0D1266BFF6
:10791000EE2487F50CEF3400F50D7904AC0AAD0BBD
:10792000AA0CFB1266B97904AA0CAB0D1266BFEE65
:10793000248BFAEF3400FB1266D1EE2483FAEF3485
:1079400000FB1266D7900B45E04480F07904027A80
:10795000ABEE24DE8045EE2462F582EF3400F58341
:10796000E4F0EE2467F582EF3400F583E4F0EE24D2
:10797000D2F582EF3400F583E4F0EE24DCF582EFFB
:107980003400F5837401F0EE24D3F582EF3400F572
:1079900083E4F0790B027AE5EE24DFF582EF340020
:1079A000F5837401F0027AE8EEF8EFF97A567B0B72
:1079B0008A828B83A3E0C0E0E824E2F582E9340008
:1079C000F583D0E0F08A828B83A3AA82AB8388827E
:1079D0008983A3A882A983EA645E7003EB640B70B9
:1079E000CFEEF8EFF97A567B0B8A828B83A3E0FC0B
:1079F000850A82850B83E05CC0E0E824E2F582E939
:107A00003400F583D0E0F0850A82850B83A385825C
:107A10000A85830B8A828B83A3AA82AB838882899F
:107A200083A3A882A983EA645E7003EB640B70B938
:107A300079098077EE24EAF582EF3400F583E0647B
:107A4000017003027AD7850A82850B83E0C0E0EEDD
:107A500024EDF582EF3400F583D0E0F0850A8285CD
:107A60000B83A385820A85830B7402C0E0F9AC0AFC
:107A7000AD0BEE24EEFAEF3400FB1266B9EAFCEB34
:107A8000FDD0E0F9EE24F0FAEF3400FB1266B9EE17
:107A900024EAF582EF3400F5837401F0EE24ECF56E
:107AA00082EF3400F583E0703F790CEEFAEFFB8053
:107AB00034EE24F4F8EF3400F9E088828983F0EEA4
:107AC00024F3F582EF3400F5837401F08882898312
:107AD000E0F912668F8011EE24F5F582EF3400F59F
:107AE00083E8F0790712665F7F0C02492B74F61267
:107AF0004859EAFEEBFF027D33EEFAEFFB126653C4
:107B0000027F7FEE2469F582EF3400F583E06401A3
:107B1000703E900B4DE07003027E0FEEFAEFFB1209
:107B20006665EE24A3F50AEF3400F50B780A124AD5
:107B30006CEE249BFCEF3400FD8E828F83A3A3A305
:107B4000A3E0FA7B0012641F7402124818027D330E
:107B5000EEFAEFFB126629027F7FEE2469F582EFD1
:107B60003400F583E064017055900B4DE06031EE18
:107B70002482F582EF3400F5837401F0EE24D4F50D
:107B800082EF3400F583E4F0A3F0A3F0A3F0EE2439
:107B9000D8F582EF3400F583E4F0A3F0A3F0A3F06E
:107BA000EE24DEF582EF3400F583E0640160030229
:107BB0007E0F7906EEFAEFFB12666B027D33EE2440
:107BC000D2F582EF3400F583E06401702AEEFAEF1B
:107BD000FB12662FE964016003027F9CEE24DEF550
:107BE00082EF3400F583E4F0EE2469F582EF34008F
:107BF000F5837401027F8AEE24D3F582EF3400F519
:107C000083E07003027F9CEE24B2F50AEF3400F5A6
:107C10000B780A124A6CEE248BFCEF3400FDEE2444
:107C2000C2FAEF3400FB1266DD7402124818EE242B
:107C3000D2F582EF3400F5837401027CFBEE2469F7
:107C4000F582EF3400F583E064016003027CFE906E
:107C50000B4DE07003027E0FEE2420F582EF34001E
:107C6000F583E0F8A3E0F9EE241DF582EF3400F58A
:107C700083E8F0A3E9F0EEFAEFFB126665EE24620A
:107C8000F582EF3400F5837401F0EE2467F582EF9E
:107C90003400F5837401F0EE24DCF582EF3400F556
:107CA00083E06401701379008E828F83A3A3A3A362
:107CB000E0FA7B0012642B80137C0179008E828FA6
:107CC00083A3A3A3A3E0FA7B00126425EE24DCF5D2
:107CD00082EF3400F583E4F0EE24E0F582EF340027
:107CE000F583E4F0EE24DFF582EF3400F583E4F071
:107CF000EE24DEF582EF3400F583E4F08035EEFA11
:107D0000EFFB126635027F7FEE2469F582EF3400C7
:107D1000F583E064016003027D9EEE24DFF582EFCF
:107D20003400F583E064016003027E0FEEFAEFFB9E
:107D3000126665EE246EF582EF3400F583E0700381
:107D4000027F9CEE246AF582EF3400F583E024FE86
:107D5000602F24FE7003027B03147003027B5A140D
:107D60007003027C3D147003027F8D24FE700302B9
:107D70007E4124FE6092147003027E8E14604C805B
:107D8000B2EE2469F582EF3400F583E0640160030C
:107D9000027AF9900B4CE060767916027F60EEFA79
:107DA000EFFB12663BE964016003027F9CEE24DF77
:107DB000F582EF3400F583E4F0EE2482F582EF34AF
:107DC00000F583E4F0EE2469027C31EE2469F5824B
:107DD000EF3400F583E06401705D900B4DE06026A8
:107DE000EE2482F582EF3400F583E4F0EE2462F5B0
:107DF00082EF3400F5837401F0EE2467F582EF34EE
:107E000000F5837401F0900B4CE06003027D2CEED2
:107E10002471F8EF3400F988828983E024FFF0A30D
:107E2000E034FFF088828983E0F8A3E0F9E8496054
:107E300003027F9C027F5EEEFAEFFB126641027F37
:107E40007FEE2469F582EF3400F583E0640170343D
:107E5000900B4DE060B9EE24E1F582EF3400F5833C
:107E60007401F0EE2420F582EF3400F583E0F8A3EE
:107E7000E0F9EE241DF582EF3400F583E8F0A3E984
:107E8000F0027D2CEEFAEFFB126647027F7FEE24B4
:107E900069F582EF3400F583E064016003027F6BD3
:107EA000EE24EAF582EF3400F583E064017051EED0
:107EB00024EBF582EF3400F583E064016003027D7A
:107EC0002CEE24F0F582EF3400F583124A83EE2481
:107ED000EEF582EF3400F583124A83EE24EDF5824D
:107EE000EF3400F583E0FC8E828F83A3A3A3A3E08D
:107EF000FA7B0079001264197404124818027D2C70
:107F0000EE2471F8EF3400F988828983E024FFF0D1
:107F1000A3E034FFF088828983E0F8A3E0F9E84920
:107F2000707AEE24F0F582EF3400F583124A83EE86
:107F300024EEF582EF3400F583124A83EE24EDF54A
:107F400082EF3400F583E0FC8E828F83A3A3A3A38A
:107F5000E0FA7B007922126419740412481879221D
:107F6000EEFAEFFB12668F79018033EE24ECF58296
:107F7000EF3400F5837401F0EEFAEFFB12664DEE7C
:107F80002469F582EF3400F583E9F0800FEEFAEF13
:107F9000FB126659E964017003027D2C79007F02AF
:107FA00002492BC082C08390037C7470F0A374B12B
:107FB000F0A3E0541FF0900380741DF0A37442F00E
:107FC000A37470F0A374B2F0900386E0541FF09095
:107FD0000388741EF0A37412F08000D083D0820254
:107FE0004472C082C083125CA5027FDB024472FF30
:107FF000FFFFFFFFFFFFFFFF851C87C2AF02447238
:1080000074F612485974C4124802E99009E1F0125A
:108010005EF79080A1C082742B12484DAC82AD8374
:10802000758380D0827411124715742112484DAAAD
:1080300082AB83126545742312484D1284011248A5
:108040004D1283F5C0E0740D12484DD0E012840F3C
:1080500012484D1283F5C0E0740E12484DD0E0F086
:10806000742212484D12840112484D1283F5C0E06B
:10807000740F12484DD0E012840F12484D1283F550
:10808000C0E0741012484DD0E0F0742112484DE069
:1080900012840812484D1283F5C0E0741112484D45
:1080A000D0E0F0742112484DE012840912484D12BC
:1080B00083F5C0E0741212484DD0E0F0750A0675E1
:1080C0000B00780A124A6C740F12484DAC82AD83D3
:1080D0007ABE7B10125A6B7402124818780A124A40
:1080E0006C740F12484DAC82AD837ADB7B10125A50
:1080F0006B74021248187C067D007A1F7B001260A8
:108100002F740C12484D7401F0741F12484DE4F0A6
:10811000A3F0740B12484D7401F0741D12484D7495
:1081200020F0A37403F0741B12484D74B0F0A374D4
:1081300004F0741912484D7404F0A3E4F07417129B
:10814000484D7488F0A37413F0740C12484DAC823F
:10815000AD8379017A057B03125E79741F12484D55
:10816000AC82AD8379027A067B03125E797CB97D9D
:108170001079147A087B03125E797CCD7D10790B1F
:108180007A077B03125E79740B12484DAC82AD8383
:1081900079017A107B03125E79741D12484DAC820E
:1081A000AD8379027A117B03125E79741B12484DFC
:1081B000AC82AD8379027A127B03125E7974191254
:1081C000484DAC82AD8379027A137B03125E7974D9
:1081D0001712484DAC82AD8379027A147B03125E8C
:1081E000797CD87D107A0979001261A97C407D1FC5
:1081F0007A067B0012602F7C407D1F7A077B00127D
:10820000602F7C407D1F7A087B0012602F7C407DB0
:108210001F7A097B0012602F742712484D128416B2
:10822000740A12484D7401F0740912484D7401F03B
:10823000740812484DE4F0740712484D7401F0744C
:108240002712484DAC82AD8379047A087B04125B17
:10825000DF740A12484DAC82AD8379017A007B0449
:10826000125BDF740912484DAC82AD8379017A024A
:108270007B04125BDF740812484DAC82AD83790138
:108280007A037B04125BDF740712484DAC82AD8326
:1082900079017A067B04125BDF9081C41246F012EA
:1082A00061AF9081C41246F01262BD9081C4124643
:1082B000F0125D77125B9D125DB3741512484D7418
:1082C00003F0A3E4F0741312484D7470F0A3E4F0CB
:1082D000741512484DAC82AD837A027904125D8325
:1082E000741312484DAC82AD837A027900125D831B
:1082F000740612484D740AF0AC82AD837A0179019C
:10830000125BA99009E1E0F9125B8B75FDF675F33C
:108310000175FEFB75F40075FFFF75F500125EDF59
:10832000125F33125F2D7AEA7B10125D7D7ACD7B6E
:108330005E125BA3125BCD7AA67B04125F3F125FD5
:108340003979011263B37A107B009009E1E0F912E8
:108350005ABF7A817950125CF39081E6C082851A07
:1083600082851B83AC82AD83758381D082740212B7
:108370004715851A82851B83AA82AB837902125C1A
:10838000FF740212484DAA82AB837904125CF9741F
:108390000212484DE0F47009740312484DE0F46095
:1083A00026740312484DE0F9740212484DE090091A
:1083B000E4128D76740512484DE0F9740412484DAC
:1083C000E09009E6128D76125EF1851A82851B8394
:1083D000129BDD851A82851B83AC82AD837A02797C
:1083E00004125D837A017B009009E1E0F9125ABF23
:1083F000743C028EE3E58228F582E583129F8CE0CF
:1084000022E0F50A12840822C4540FF8742B22F0DB
:10841000E50A12840922E4F0A3F0A3F0A3F0227489
:10842000F412485974F7124802EAFEEBFF548060D8
:10843000239009E1E0F9125AA78A0A8B0BEA450B4F
:10844000600A125EC1AA0AAB0B125A95EEFAEF64EB
:10845000800287D7EEA2E04003028502900A1DE069
:10846000703F7AE67B10125E857A1E7B0A125BFDF6
:10847000851A82851B837401F0AC82AD83F97A057D
:108480007B03125E799081B4124A7F7A027B00905E
:1084900009E1E0F9125B5B74041248189081B08026
:1084A0002B6401703DC290C291C296C297C2A0C215
:1084B000A1C281C282C284C285C286C2879004964C
:1084C00074FFF0A3740FF0D2939081AC124A7F7ABC
:1084D000017B009009E1E0F9125B5B74041248181B
:1084E0008014E064027015125EDF7A017B0090094F
:1084F000E1E0F9125B67900A1DE004F0EE6401020E
:108500008765541060557A81791D125CF3740112ED
:10851000484DE4129019125D11851A82851B83AAB9
:1085200082AB837901125D17851A82851B83E05423
:108530003FF06004F9125EFD900A1CE07017901085
:10854000E2124A7F7A107B009009E1E0F9125B5B4E
:108550007404124818EE6410028765EE540860280F
:108560009009E2E06405701A125BAF9081A8124A8C
:108570007F7A087B009009E1E0F9125B5B740412DA
:108580004818EE6408028765EE54026028125ED334
:1085900090049BE0640170179081B4124A7F7A02C4
:1085A0007B009009E1E0F9125B5B7404124818EE5D
:1085B0006402028765EE5480700302864F900A12AF
:1085C000E06403707F900A137401F0125AF58A0A6E
:1085D0008B0B8C0C8D0D780A124A68740612484D6C
:1085E000AA82AB83125AFB7404124818740412480E
:1085F0004DE0F9C3940C400474F429F975F0057446
:108600000312484DE0849010E1F069700CE0640BB7
:108610007004740A8002E004F07A00125EE5125ED3
:10862000EB9081B0124A7F7A007B029009E1E0F979
:10863000125B5B74041248187A007B049009E1E035
:10864000F9125B67900A12E4F0EE6480028765EF2E
:108650005401600B125EEBEEFAEF64010287D7EF74
:10866000540260277A007B019009E1E0F9125B6710
:10867000125EDF900A14E4F09010E1740DF0900A9D
:1086800013E4F0EEFAEF64020287D7900A16E014C2
:10869000F50AEE54206061E0C3940750167A00E0BA
:1086A000F9125EE57A00900A16E0F8740CC398F9A6
:1086B000125EE57A01A90A125EE57A01900A16E0D7
:1086C000F8740DC398F9125EE5900A16E004F0C341
:1086D000940850199081A4124A7F7A207B00900957
:1086E000E1E0F9125B5B74041248188006E4F09034
:1086F0000A13F0EE6420806DEF5408605DE0C394CF
:108700000C500D7A00E0F9125EE57A01A90A801694
:10871000E0640C700D7A007900125EE57A01790B45
:1087200080047A017900125EE5900A16E004F0C335
:10873000940E5019908158124A7F7A007B08900954
:10874000E1E0F9125B5B74041248188006E4F090D3
:108750000A13F0EEFAEF6408807DEE5440600A12CE
:108760005EDFEE6440FAEF806EEF54046024900AFE
:1087700015E06017900A137401F0FAF9125F037A9A
:10878000207B009009E1E0F9125ABFEEFAEF640491
:108790008045EF541060137A007B089009E1E0F9FE
:1087A000125ABFEEFAEF6410802DEF5420602B12A6
:1087B0005F09900A17E0C394035017908160124A32
:1087C0007F7A007B209009E1E0F9125B5B74041270
:1087D0004818EEFAEF6420FB80047A007B007409ED
:1087E0001248187F0402492B74F712485974FC127E
:1087F00048028A828B83E064C06003028941A3A39C
:10880000A3E0FE7A81794A125CF3740312484DE4C6
:10881000129019125D11740212484DAA82AB83792D
:1088200001125D17740212484DE0A2E0E433900A91
:1088300015F0EEA2E0507A900A13E060030289413D
:10884000900A15E0A2E050199081A0124A7F7A00A8
:108850007B049009E1E0F9125B5B74041248188014
:108860000C7A007B049009E1E0F9125B67900A152D
:10887000E06021900A12E070057402F0801C64022E
:1088800060030289447403F07A807B009009E1E080
:10889000F9125B67900A12E0601790819C124A7F80
:1088A0007A807B009009E1E0F9125B5B7404124866
:1088B00018EEA2E140030289417A81791D125CF32E
:1088C000851A82851B83742AF0740112484DE412C4
:1088D0009023125CFF851A82851B837416129019EF
:1088E000125D11740112484DAA82AB837901125DA9
:1088F00017851A82851B83742DF0740112484DE48C
:10890000129023125CFF851A82851B83742AF074EF
:108910000112484D129021125CFF900A1812841621
:10892000900A1CF07A01F9125EE59010E2124A7F7B
:108930007A107B009009E1E0F9125B5B7404124845
:1089400018028A6CE06403600302889A7A807B00D4
:108950009009E1E0F9125B677A007B049009E1E09D
:10896000F9125B67900A12E4F00288B174F71248BA
:108970005974F0124802E9FE146010147003028A60
:108980001B24FD7003028A2B028A63740A12484D6D
:10899000AC82AD837A047B03125E7F740A12484D69
:1089A000E0C0E0740212484DD0E0F0740B12484D64
:1089B000E0C0E0740312484DD0E0F0740C12484D52
:1089C000E0C0E0740412484DD0E0F0740612484D47
:1089D000E4F0740512484DE4F0740F12484DE0C005
:1089E000E0740912484DD0E0F0740E12484DE0C01A
:1089F000E0740812484DD0E0F0740D12484DE0C00C
:108A0000E0740712484DD0E0F0740212484DAC8279
:108A1000AD837A087900125BD380487A007900121E
:108A20005C997A007900125C9380387A017900129F
:108A30005C997A017900125C937A81794A125CF32D
:108A40009010B2E06401701B851A82851B83744309
:108A5000F0740112484D7423129023125CFF9010A1
:108A6000B2E4F0EE9009E2F074108002740412484F
:108A7000187F0102492B74F7124859E9FE74016E00
:108A800070219009E2E06405702A9081A8124A7F63
:108A90007A087B009009E1E0F9125B5B74041248EC
:108AA00018801174026E700C7A087B009009E1E066
:108AB000F9125B6780BB74F612485974F8124802C9
:108AC00090049BE064016003028C68900499E0F8D4
:108AD00090049AE0C3984003028C68E0FAE8C39AD5
:108AE000F895E0F9C3E89406E99400A2D265D03382
:108AF000E0FE5003028BB9028B7C90049474FFF06B
:108B0000A3128C72124A6C7C8E7D04740212484D42
:108B1000AA82AB83125A6B7402124818780A124A5E
:108B20006C7C907D04740412484DAA82AB83125A67
:108B30006B7402124818780A124A6C7C927D047495
:108B40000612484DAA82AB83125A6B74021248185F
:108B5000780A124A6C7C947D04740812484DAA82EB
:108B6000AB83125A6B7402124818851A82851B83D4
:108B7000AC82AD837A087901125D830E8E82A88261
:108B800090049AE02405FAE43400FBE89AE49BC3DD
:108B900065D0335020E8128C7C700D90061DE0905B
:108BA0000494F0A3E4028B0174016E6003028AFA5C
:108BB00090049980E9EA028C6CEE128C7C7005902E
:108BC000061D800874016E700C900499E090049466
:108BD000F0A3E4800790049474FFF0A3128C721247
:108BE0004A6C7C8E7D04740212484DAA82AB8312BB
:108BF0005A6B7402124818780A124A6C7C907D04F1
:108C0000740412484DAA82AB83125A6B7402124844
:108C100018780A124A6C7C927D04740612484DAA98
:108C200082AB83125A6B7402124818780A124A6C8B
:108C30007C947D04740812484DAA82AB83125A6B4F
:108C40007402124818851A82851B83AC82AD837A20
:108C5000087901125D830E900499129B92500302D1
:108C60008BB9E090049A800490049BE4F0740802AD
:108C70008EE3F0750A02750B00780A2275F006A4DF
:108C8000F8A9F0745D28F8740539F988828983E0C1
:108C9000FAA3E0FB90048E128CB6E0FAA3E0FB90FE
:108CA0000490128CB6A3A3E0F8A3E0F9900492E834
:108CB000F0A3E9F0EE22EAF0A3EBF088828983A327
:108CC000A32274F412485974F1124802E91460099D
:108CD000146063146055028D70851A82851B83AA07
:108CE00082AB837901125D89851A82851B83129B71
:108CF0006B9010B0128D75125EF1740212484D1215
:108D00009BDD740212484DAC82AD837A0279041265
:108D10005D83900A17E4F0908160124A7F7A007BAD
:108D2000209009E1E0F9125B5B80407AE37B0979EE
:108D300003125D89803A740412484DAA82AB83798C
:108D400002125D89740412484D1246F0125AEF1255
:108D50005AF58A0A8B0B8C0C8D0D780A124A6874AE
:108D60000C12484DAA82AB83125AFB7404124818A5
:108D7000740F0287E0E8F0A3E9F022C082C083D23A
:108D800090D291D296D297D2A0D2A1D281D282D2C1
:108D900084D285D286D287900496E4F0A3F0C29361
:108DA000C280C294C29502A2DE74F2124859750ABA
:108DB00001750B00E9780A1247EFAE0AAF0B046A9F
:108DC0007011EEF4FCEFF4FD900496E05CF0A3E08B
:108DD0005D8009900496E04EF0A3E04FF090049679
:108DE000E0FCA3E0FDEC4D7004C2938002D293E955
:108DF000607014602014602414602814602C1460C7
:108E00003014603414603814603C146040146044C2
:108E10001460488052EAA2E09291804BEAA2E0926C
:108E2000968044EAA2E09297803DEAA2E092A08078
:108E300036EAA2E092A1802FEAA2E092818028EA9D
:108E4000A2E092828021EAA2E09284801AEAA2E063
:108E500092858013EAA2E09286800CEAA2E09287D3
:108E60008005EAA2E092907F0602492BC082C0836F
:108E7000900A14E0700474018001E4F0E0FA9010AC
:108E8000E1E0F9125EE590819C124A7F7A007B0155
:108E90009009E1E0F9125B5B02A2D974F61248591D
:108EA0009009E4129B6B7583097582E6E0C398F51F
:108EB0000AA3E099F50B7583097582E6C3E098A3D0
:108EC000E099500CE50A24A0F50AE50B340FF50BE8
:108ED0007403780A1247E0E50A2403FAE50B34002C
:108EE000FB80031248187F0202492BC082C08374A2
:108EF000FE1248027A81791D125CF3851A82851B65
:108F000083742BF0740112484D7440129023125C4C
:108F1000FF851A82851B83742B129019125D1174C0
:108F20000112484DAA82AB837901125D17740112B8
:108F3000484DE0A2E640DA851A82851B83740EF064
:108F4000740112484D740212A033F9125CFF851AA5
:108F500082851B837409F0740112484D744012908D
:108F600023125CFF851A82851B837415F07401122D
:108F7000484D74FF129023125CFF851A82851B8373
:108F80007417F0740112484D7411129023125CFF93
:108F9000851A82851B837418F0740112484D74037E
:108FA000129023125CFF851A82851B83742CF07447
:108FB0000112484D7408129023125CFF851A8285B5
:108FC0001B83742DF0740112484D74041290231207
:108FD0005CFF851A82851B83742EF0740112484D44
:108FE0007404129023125CFF851A82851B83742BF4
:108FF000F0740112484D741F129023125CFF851A01
:1090000082851B83742AF0740112484D129021123C
:109010005CFF740202A2DB7444F0AA82AB83790184
:1090200022746912A03779022274E812485974D266
:10903000124802740C12484DE9F0741A12484DACF3
:1090400082AD83758381758211740812471574127D
:1090500012484DAC82AD83758381758219740812F4
:109060004715740D12484D7401F07A81791D125C18
:10907000F3908198780A1246D2900A18780A12461C
:1090800046908194780A1246D2900A18780A1244BF
:10909000AF406B9010E274C4F0A37409F0A3E4F045
:1090A000A3F0900A1C04F0740412484D742AF07462
:1090B0000512484DE4F0740412484DAA82AB83793E
:1090C00002125CFF740412484D742DF074051248AE
:1090D0004D7404F012484DAA82AB837902125CFFF2
:1090E000740412484D742AF0740512484D7469F0E6
:1090F000740412484DAA82AB837902125CFF7AC0D5
:109100007B00125B19740812484D129BDD7CC07DF8
:10911000007900740812484DE0FA125A837408125C
:10912000484D129B6BE84960497CC07D0079007412
:109130000812484D129B7D125A83740D12484DAA95
:1091400082AB837901125D11740812484D129B7D28
:1091500075F006740C12484DE0A4F9125D17740CFA
:1091600012484DE0900498F0C39405500E79000227
:109170009B36900498E4F0F9029B367E00EE75F081
:1091800006A4F8A9F0749D28FA740439FB74081237
:10919000484DE028F8A3E039F988828983E0FDA3EF
:1091A000E08A828B83129BE3129B55E08A828B8339
:1091B000A3A3129BE3A3A3129B55A3A3E0F8EDF98D
:1091C0008A828B83A3A3A3A3128D750E129B8F405B
:1091D000AC7CC07D0079007A5D7B05125A83750AEC
:1091E000C0750B00780A124A6C7C9D7D047A5D7B09
:1091F00005125A6B7402124818900498E090049972
:10920000F090049AE4F090049CE0640170079006EA
:109210001D74018007900620E090061DF090049CCC
:10922000E4F090049B04F07A027B009009E1E0F9FD
:10923000125ABF7E0080010E129B8F40FA7E008E74
:109240000A750B007403780A1247EFAA0AAB0B7475
:10925000222AF874073BF974722AFA74083BFB8AD5
:109260000A8B0B8A82F5831246F088828983124624
:10927000FC850A82850B83A3A3A3A31246F08882F0
:109280008983A3A3A3A31246FC0EEEC3940A40AFA6
:109290007E0A8E82AA828A0A750B007403780A12EB
:1092A00047EF7422250AF87407350BF9E8FCE9FD4D
:1092B000EA75F006A4FAABF0749D2AFA74043BFB3D
:1092C000EA24C6129BB1780A1246E1EA24C8129B2E
:1092D000B1A3A3A3A3780A1246E10E900498E02458
:1092E0000BF8E43400F9EE98E499C365D03340A25A
:1092F0007A207B00125B19740A12484D129BDD7CA8
:10930000207D007900740A12484DE0FA125A837EDB
:10931000000296638E0A750B007403780A1247EFF9
:10932000AA0AAB0B74222AF874063BF97406124899
:109330004D128D759010B8E0F50AE4F50BF50CF5BB
:109340000D742A12484D780A1246E19010B7E0F5E4
:109350000A742612484D780A1246E19010B6E0F5DC
:109360000A742212484D780A1246E19010B5E0F5D1
:109370000A740E12484D780A1246E19010B4E0F5D6
:109380000A74222AF874073BF9851A82851B831216
:109390008D759010B3E0F50EE4F50FF510F5111290
:1093A0009B9878161246D2129BD12450129F89782E
:1093B000161246337816790E1244DE129BD1240819
:1093C000129B4F1246D2129BD12448129B4F124639
:1093D000337812790A1244DE78167912124620C0C8
:1093E00016C017C018C019129BD12410129B4F121F
:1093F00046D2129BD12440129B4F124633740E1258
:10940000484D78161246D2781279161244DED019D9
:10941000D018D017D01678167912124620C016C070
:1094200017C018C019129BD12418129B4F1246D294
:10943000129BD12438129B4F124633742212484D8E
:1094400078161246D2781279161244DED019D01846
:10945000D017D01678167912124620C016C017C041
:1094600018C019129BD12420129B4F1246D2129B76
:10947000D12430129B4F124633742612484D781671
:109480001246D2781279161244DED019D018D017AD
:10949000D01678167912124620C016C017C018C010
:1094A00019129BD12428129B4F1246D2742A1248BB
:1094B0004D78161246D2781279161244DED019D0A1
:1094C00018D017D01678167912124620740A78161A
:1094D0001245CE740612484D129B9E78161246E134
:1094E000740612484D129B7112484D128D75129BD5
:1094F00098A3A3A3A378121246D2129BD12454128C
:109500009B4F1246337812790E1244DE85120E8577
:10951000130F851410851511129BD1240C129B4F2B
:109520001246D2129BD1244C129B4F124633781212
:10953000790A1244DE780E7912124620129BD12449
:1095400014129B491246D2129BD12444129B4912F9
:109550004633740E12484D78121246D2780A7912A8
:109560001244DE780E790A124620129BD1241C1276
:109570009B491246D2129BD1243C129B491246337E
:10958000742212484D78121246D2780A7912124487
:10959000DE780E790A124620129BD12424129B49B0
:1095A0001246D2129BD12434129B491246337426A0
:1095B00012484D78121246D2780A79121244DE7897
:1095C0000E790A124620129BD1242C129B49124676
:1095D000D2742A12484D78121246D2780A791212A1
:1095E00044DE780E790A124620740A780E1245CEAF
:1095F000740212484D129BAB1246E1740212484DA0
:10960000129B9E78121246D2740612484D129BCBC2
:109610001246D2850A0E850B0F850C10850D117828
:109620000E790A1244DE85120A85130B85140C8507
:10963000150D780A79121244DE780E790A12462046
:109640008E0A750B007402780A1247EF740A1248EA
:109650004DE0250AF8A3E0350B8882F583780E12D9
:1096600046E10E129B8F50030293147E00802778F0
:109670000E791212449F500A741E12484D780E1231
:1096800046E1780A790E12449F500A741612484D2A
:10969000780E1246E10E741612484D780A1246D220
:1096A000741E12484D78121246D2900498E0C313EB
:1096B000FF129B92504D8E0E750F007402780E12A1
:1096C00047EF740A12484DE0250EF8A3E0350F88E5
:1096D00082F583780E1246D2EEC39F5092741A120E
:1096E000484D780E1244AF500A741A12484D780E45
:1096F0001246E1741212484D780E1244BF4096741F
:1097000012808A741A12484D780E1246D2741212C0
:10971000484D780E1246337401780E1245E89009D0
:10972000C2780E1246E1741A12484D780E1246D2D3
:10973000741212484D780E12466D9009CE780E12B2
:1097400046E185120E85130F851410851511780ECC
:10975000790A1246207401780E1245E89009C678FD
:109760000E1246E17812790A124659740E12484DCB
:1097700078121246E1740E12484D1246F09009D24A
:109780001246FC7E0002981985120A85130B851477
:109790000C85150D780A7916124659780A1244BFBD
:1097A00050030298B6740612484D129B9E1246F062
:1097B000740212484D129B9E1246FC740612484DCC
:1097C000129BCB1246D2851A82851B83E02446F871
:1097D000A3E03409F988828983780A1246E1900966
:1097E000DCE024FDFAEEC39F400302992A9009C2EF
:1097F000780A1244AF40030298C69009C2780A1250
:1098000046D2740212484D129BCB1244AF50030251
:1098100098E39009DCE004F00E8E8285820A750BD5
:1098200000900498E024FFF8E434FFF9C3E50A98B7
:10983000E499A2D265D03340030299DB7402780A1E
:109840001247EF851A82851B83E50AF0A3E50B1208
:10985000A0E8F8A3E0F9740A12484DE028FAA3E062
:10986000129F9178121246D2851A82851B83E024BA
:10987000C2F8A3E03408F9740612484D128D7574CD
:109880000612484D129B7112484D128D758A828BBB
:109890008378161246D27812791612449F908190DE
:1098A0005003029788781679121246597816124496
:1098B000BF40030297A5740212484D129B9E781276
:1098C0001246E10297BB5003029812740212484DEF
:1098D000129BCB1246D29009C2780A1244AF4003C1
:1098E000029812EAC3941640030299D490818C78AE
:1098F0000A1246D29009CE780A1244AF4003029968
:10990000C29009CA780A1246D29009C2780A124453
:10991000AF500A9009CA780A1246D280729009C2E2
:10992000780A1246D29009CA8068780A790E1244E1
:109930009F5010740212484D129BAB1244AF401F4F
:10994000029812780E790A12449F4003029812740A
:109950000212484D129BAB1244BF5003029812EA08
:10996000C39416506F90818C780A1246D2740E12EE
:10997000484D780A1244AF50499009C2780E1244FB
:10998000AF5023850E0A850F0B85100C85110D90A5
:1099900009C2780A12466D758381758288780A1229
:1099A00044BF4030801C9009C2780A1246D2780A1F
:1099B000790E124659758381758288780A1244BFE0
:1099C00040129009D6E0F874D728F5827409129FE6
:1099D0008CE004F09009DCE40298179009CA780E34
:1099E0001246E1740A12484D129B7D125B1F9009CA
:1099F000D6129B8388828983E09009DDF088828972
:109A000083A3E09009DEF09009D6E02402F0C3942D
:109A1000035003029A98129B83E824FF129B409004
:109A200009DDF0E824FE129B409009DEF0E824FDF9
:109A3000129B409009DFF0E824FC129B409009E063
:109A4000F09009DDE0F89009DEE0FAE82AF8E43465
:109A500000F99009DF129B5F9009E0129B5FC3E859
:109A60009404E99400A2D265D03340169009DFE057
:109A7000F99009DEE0F89009DDE028292A9009DB59
:109A800080049009DBE4F0FA7902125F039009D6B2
:109A9000E4F09009D7128417740812484D129B7D88
:109AA000125B1F7E008E8285820A750B00900498DF
:109AB000E0250AF8E43400F9E875F006A4F8AAF005
:109AC00075F006E9A42AF9749D28FC740439FD7424
:109AD00003780A1247EF7472250AF87408350BF9F7
