:020000040000FA
:104000004AD8FFFF0100007C42424242FFFFFFFF0F
:10401000FFFFFFFFFFFFFFFFFFFFFFFFFFFFFFFFB0
:10402000000102030405060708090A0BFFFFFFFF52
:1040300002448A025367FFFFFFFFFFFFFFFFFFFFFE
:10404000FFFFFFFFFFFFFFFFFFFFFFFFFFFFFFFF80
:10405000FFFFFFFFFFFFFFFFFFFFFF024C29FFFFF6
:10406000FFFFFFFFFFFFFFFFFFFFFFFFFFFFFFFF60
:10407000FFFFFFFFFFFFFFFFFFFFFFFFFFFFFFFF50
:10408000FFFFFF0253DAFFFFFFFFFFFFFFFFFFFF0E
:10409000FFFFFFFFFFFFFFFFFFFFFF024BE2FFFFFE
:1040A000FFFFFFFFFFFFFFFFFFFFFF024C0BFFFFC4
:1040B000FFFFFF0251D301FFFF2C01990112990468
:1040C0000102FA81010000C88102F481010000218F
:1040D0000E020282010000220E02EE81030000A9FE
:1040E0000202E081010000230E01E803053F100AEF
:1040F000024669726D776172650000000000000081
:1041000000001A446F2053796E6300000000000025
:1041100000000000084150502053657420436C6F2C
:10412000636B000000000841505020536574205418
:10413000696D657A6F6E6500084150502053657453
:1041400020537973416374000000120100446174CC
:10415000612048656164657200000000000012443F
:1041600061746120426F647900000000000000006B
:1041700002FA81010000D18102F481010000540E95
:1041800002DC81010000A60302F081010000550E4F
:1041900002F481010000660E02DA81030000A80328
:1041A00002EE81030000B00302F081010000670EFF
:1041B00002F481010000780E02D881020000B603EB
:1041C00002F081010000790E02F4810100008A0EE4
:1041D00002EA81020000BA0302F0810100008B0EA6
:1041E00002F481010000AE0E02F881030000AF0E60
:1041F00002EE81030000BC0302F081010000B10E59
:1042000002F481010000C20E020082030000C2031A
:1042100002EE81030000CA0302F081010000C30E18
:1042200002F4810100009C0E02F281020000BB0337
:1042300002F0810100009D0E1C02FA8101000009BC
:104240008102F4810100009C0F105080020000D018
:104250000302EE81030000D20302F081010000F2AC
:104260008002F4810100009C0F106080020000D1E8
:104270000302EE81030000D80302F081010000FF79
:1042800080FFFFFF000130750302010600000000FF
:10429000000000000000000000000000000000001E
:1042A0000000000000000000FFFF0600800CE80393
:1042B0002C01010E1F4A7FAABA99CACA3C99010A69
:1042C000094C312D303030303030051228003C00A0
:1042D000020A00020106070200230F18C0FF4C313A
:1042E0002D3030303030300DC4090000F15E000058
:1042F000FD5EFF0000B4000028002800283075A0F3
:1043000000A000A000A00000080008E001F00010DC
:10431000001000100010001000100050005000505D
:104320000010001000D0070000000000000F000186
:10433000000500307507001000010081FF0000003B
:1043400000FF676185616D61FF0202020802500093
:10435000A0000000E80302FA81010000CE8102F40F
:1043600081010000AD1002EC810100008E0902F411
:1043700081010000AE10020682010000A40902F4CF
:1043800081010000AF1002E881010000A60902F4DB
:1043900081010000B01002E681080000A70902F4C4
:1043A00081010000B11002E481010000B210FF01A0
:1043B00000FF2002FA81010000CB8102F48101009C
:1043C00000161102E281000000000002EE810300ED
:1043D00000F40937673767376737673767376737F5
:1043E00067376737673767376737673767CB69E39B
:1043F00069C569E5C754F84404F5C779012200008E
:104400000080FB1243F3B90003024474E47921787D
:1044100008B800028004F709D8FCE479297802B8CA
:1044200000028004F709D8FCE4900280789C790CA3
:104430008002F0A3D8FCD9FA781C9040B67A01BA71
:1044400000028007E493A3F608DAF9900E1BAA8213
:10445000AB839040B7783D79048015E493A3AC8298
:10446000AD838A828B83F0A3AA82AB838C828D83F7
:10447000D8E9D9E77582EF758391740412449C756D
:1044800082FE758343740012449C75D00075813F91
:10449000751A80751B02759F00024403C09FF59F2B
:1044A000E473D09F22D083D082C09FE493C0E07495
:1044B0000193C0E0740293F59F22E066701008A398
:1044C000E066700A08A3E066700408A3E06622C3F1
:1044D000E7960809E7960809E7960809E79622C3D0
:1044E000E09608A3E09608A3E09608A3E09622C011
:1044F0000AC3E096F50A08A3E096420A08A3E096EC
:10450000420A08A3E096450A7001D3D00A2208089F
:1045100008EAC0E0EBC0E086F0E7A4FA180986F0EC
:10452000E7A42AFA180986F0E7A42AFA180986F0FF
:10453000E7A42AFA1986F0E7A4FBE5F02AFA19089D
:1045400086F0E7A42BFBE5F03AFA190886F0E7A419
:104550002BFBE5F03AFA18180986F0E7A4C5F02B12
:10456000FBE43AFA1908E7C5F0C6A426F6E5F03BE5
:10457000FBE43AFA1886F0E7A4F6E5F00826F6E43C
:104580003B08F6E43A08F6D0E0FBD0E0FA22E4CFAC
:10459000C0E0E4CEC0E0E4CDC0E0E4CCC0E075F023
:1045A00020C3E633F608E633F608E633F608E633CA
:1045B000F6181818EC33FCED33FDEE33FEEF33FF45
:1045C000C3EC9709ED9709EE9709EF971919194070
:1045D0000FFFEC97FC09ED97FD09EE97FE19190600
:1045E000D5F0BEECF709EDF709EEF709EFF7191969
:1045F00019D0E0FCD0E0FDD0E0FED0E0FF22601753
:10460000080808C6A2E713C618C613C618C613C6FC
:1046100018C613C6D5E0E9226016080808C6C313F9
:10462000C618C613C618C613C618C613C6D5E0EA00
:10463000227009080808226016181818C6C333C665
:1046400008C633C608C633C608C633C6D5E0EA2254
:10465000E627F60809E637F60809E637F60809E618
:1046600037F622E026F608A3E036F608A3E036F691
:1046700008A3E036F622E026F008A3E036F008A30F
:10468000E036F008A3E036F022C3E697F60809E624
:1046900097F60809E697F60809E697F622C3E0C6FA
:1046A00096F608A3E0C696F608A3E0C696F608A319
:1046B000E0C696F622C3E096F008A3E096F008A3C1
:1046C000E096F008A3E096F022E657F60809E657D0
:1046D000F60809E657F60809E657F622E056F60806
:1046E000A3E056F608A3E056F608A3E056F622E04B
:1046F00056F008A3E056F008A3E056F008A3E056F1
:10470000F022E0F608A3E0F608A3E0F608A3E0F63E
:1047100022E6F008A3E6F008A3E6F008A3E6F022FC
:10472000E0FAA3E0FBA3E0FCA3E0FD22EAF0A3EBA8
:10473000F0A3ECF0A3EDF022CAC0E0E6F0A308DAA3
:10474000FAD0E0FA22CAC0E0E0A3C582CCC582C597
:1047500083CDC583F0A3C582CCC582C583CDC58377
:10476000DAE6D0E0CA22C3E498F8E499F91247A740
:104770008026C3E49AFAE49BFBE920E7E91247A705
:10478000E498F8E499F922C3E498F8E499F9124717
:10479000A7E498F8E499F9C3E49AFAE49BFB22EBC6
:1047A00020E7CFE920E7E0B90010BB0008E88AF075
:1047B00084F8AAF022E4FBC8FA22EB70227B10C82E
:1047C00033C8C933C9335007C39AC3DBF280069A92
:1047D00050012ADBEAC833F4C8C933F4C9FA227598
:1047E000F008E4C833C8C933C933C99AC99B500417
:1047F000C92AC93BD5F0ECFBC833F4C8E4C9FA2296
:10480000600D08C6A2E713C618C613C6D5E0F3228A
:10481000600C08C6C313C618C613C6D5E0F42270D0
:104820000422600D18C6C333C608C633C6D5E0F4EB
:104830001822251A10AF08F51A4002151B8008F53A
:104840001A4002151BD2AF22C0D0251A10AF08F5AE
:104850001A5002051B8008F51A5002051BD2AFD072
:10486000D022251AF58210AF08F51A4002151B80D8
:1048700008F51A4002151BD2AF851B8322251AF5B5
:1048800082E4351BF58322E473251AC582C0E0E576
:104890001B34FFC583C0E0E51AC3958224F810AF2E
:1048A0000885831B85821A800885831B85821AD21E
:1048B000AFCEF0A3E520F0A3780AE608F0A3DEFA75
:1048C000EFF0A3E58124FAF8E608F0A3E608F0A3E8
:1048D000E608F0A30808E608F0A3E608F0A31581AF
:1048E0001581D0E0FED0E0F8158115811581E8C072
:1048F000E0EEC0E022251AC582C0E0E51B34FFC50A
:1049000083C0E0E51AC3958224F910AF0885831BA4
:1049100085821A800885831B85821AD2AFCEF0A3C8
:10492000E520F0A3780AE608F0A3DEFAEFF0A3E5AD
:104930008124FBF8E608F0A3E608F0A30808E608DF
:10494000F0A3E608F0A315811581D0E0FED0E0F8D1
:1049500015811581E8C0E0EEC0E022851B83851A31
:1049600082E0A3FEE0A3F520780AE0A3F608DFFAD0
:10497000E0A3FFE0A3C0E0E0A3C0E0E0A3C0E0E06C
:10498000A3C0E0E0A3C0E010AF0885821A85831BB6
:10499000800885821A85831BD2AFD083D0820244DF
:1049A000A2851B83851A82E0A3FEE0A3F520780A86
:1049B000E0A3F608DFFAE0A3FFE0A3C0E0E0A3C0B5
:1049C000E0E0A3C0E0E0A3C0E010AF0885821A8554
:1049D000831B800885821A85831BD2AFD083D08247
:1049E00022C0D0251AC582C0E0E51B34FFC583C0B4
:1049F000E0E51AC3958224F310AF0885831B8582F6
:104A00001A800885831B85821AD2AFC8F0A3E9F00B
:104A1000A3EAF0A3EBF0A3790AE709F0A3D8FAEC34
:104A2000F0A3EDF0A3EEF0A3EFF0A3D0E0F0A3D05D
:104A3000E0F0A3D0E0F0A3E520F0A3E5F0F0A3229E
:104A4000851B83851A82E0C0E0A3E0F9A3E0FAA306
:104A5000E0FBA3780AE0F608A3DFFAE0FCA3E0FDA0
:104A6000A3E0FEA3E0FFA3E0C0E0A3E0C0E0A3E07A
:104A7000F5D0A3E0F520A3E0A3F5F010AF088583FF
:104A80001B85821A800885831B85821AD2AFD0824B
:104A9000D083D0E0F8D0E032740480067402800243
:104AA0007401C0E0F404124862D0E0124738227466
:104AB00004800474028000CCC0E0EDC0E0E51AC3BD
:104AC0009CCCAD1B50011D10AF068C1A8D1B8006AF
:104AD0008C1A8D1BD2AF124745D0E0FDD0E0FC22EE
:104AE000D083D082E9C0E0E493A3C386F0C5F095FB
:104AF000F0F908E493A386F0C5F095F0700BE49309
:104B0000A3C3994005E9048002A3E475F002A4253B
:104B100082F582E5F03583F583D0E0F9E493A3C014
:104B2000E0E493C0E022D083D082ECC0E0EDC0E0AE
:104B3000E493A3FCE493A3FDED4C600D124B72ECE7
:104B400024FFFCED34FFFD80EFE493A3FCE493A38A
:104B5000FDED4C600D124BB1EC24FFFCED34FFFD7C
:104B600080EFD0E0FDD0E0FCE493A3C0E0E493C08C
:104B7000E022C0E0C3E49396087401939618400FB6
:104B8000E49366700808740193661870007019A3A6
:104B9000A3C3E49396087401939618A3A3400DD081
:104BA000E0D0E0D0E0024B62A3A3A3A3A3A3D0E094
:104BB00022C0E0C0F088F0E49366700808740193A6
:104BC00066187000A8F0A3A3700BD0F0D0E0D0E07E
:104BD000D0E0024B62A3A3D0F0D0E022C2AF02002B
:104BE0000022C0E074F21249E1A2AFE433FED2AF7A
:104BF000E589A2E35003125D5F758900C2C5751C8B
:104C000000EEA2E092AF7F01024A40C0E074F212CF
:104C100049E1A2AFE433FED2AFE58AA2E25003122B
:104C20005D5F758A00C2EB80D5C0E0C0D0E8C0E00F
:104C3000E9C0E0E5A8D2AFC2C7751C00A2E7A2E7B1
:104C400092AFD0E0F9D0E0F8D0D0D0E03274F512D5
:104C500048F5EAFEEBFFEE2434F8EF3400F9880A59
:104C6000890BEE2435F582EF3400F583E0F8EE246D
:104C700037F582EF3400F583E0F50CEC850CF0A4F9
:104C8000FCAAF0850CF0EDA42AFDE82CF8E43DF92F
:104C90007A257B001247A7EA850A82850B83F0F804
:104CA000740758F97401B900028004C333D9FCFABF
:104CB000E8131313541FF8EE28F8EF3400F9E82432
:104CC0005DF582E93400F583E05A6008EE2434F59E
:104CD00082EF802CEE2434F582EF3400F583E0C0BF
:104CE000E0EE2436F582EF3400F583E0F5F0D0E015
:104CF00084A8F0EE28F8EF3400F9E82438F582E9CA
:104D00003400F583E0F97F040249A174F51248F5F7
:104D1000EAFEEBFFEE2434F582EF3400F583E0C0C9
:104D2000E0EE2435F582EF3400F583D0E0F08E829A
:104D30008F83A3A3A3A3A3A3A3C082C0838E828FC8
:104D400083A3A3A3A3A3E0F8A3E0F9D083D082E0D8
:104D5000C398F50AA3E099F50BEE247FF582EF34B2
:104D600000F583E064017069EE2480F582EF340081
:104D7000F583E0F8A3E0F98E828F83A3A3A3A3A316
:104D8000A3A3E0FCA3E0FD8E828F83A3A3A3A3A330
:104D9000E0FAA3E0FBC3EA9CEB9D5010C3EC98ED56
:104DA00099402EC3EA98EB995027800EC3EA98EBFE
:104DB000994007C3EC98ED9940177CB77D0BEEFA4C
:104DC000EFFB126695EE247FF582EF3400F583E465
:104DD000F0EE2434F8EF3400F9E8FCE9FDEE243578
:104DE000F582EF3400F583E0F8EE2437F582EF34F6
:104DF00000F583E0F50CE50A850CF0A4F50AAAF0AD
:104E0000850CF0E50BA42AF50BE8250AF8E4350B30
:104E1000F97A257B001247A7EA8C828D83F0F8741B
:104E20000758F97401B900028004C333D9FCFAE8C9
:104E3000131313541FF8EE28F8EF3400F9E8245D3B
:104E4000F582E93400F583E05A6008EE2434F582F7
:104E5000EF802CEE2434F582EF3400F583E0C0E0DF
:104E6000EE2436F582EF3400F583E0F5F0D0E084EF
:104E7000A8F0EE28F8EF3400F9E82438F582E93498
:104E800000F583E0F9125A87024D06C082C083857F
:104E90001A82851B83E0F8A3E0F9C3EA9CEB9D50DE
:104EA00010C3EC98ED99401BC3EA98EB995014801D
:104EB0000EC3EA98EB994007C3EC98ED994004794A
:104EC0000180027900D083D08222EAC39CFAEB9D54
:104ED000FB2274EF1248F5900A7DE064086005E05B
:104EE0006407702A9061C8E06024900AABE0F46027
:104EF0001DE0F875F003A4C8AAF02AF974AD28FEE5
:104F0000740A39FF8E828F83A3A3A3E0700302503B
:104F100002906060E0C0E0EE2468F582EF3400F5B6
:104F200083D0E0F0750E20750F0C750A00750B002C
:104F3000E5D914F50CE5D95403F510601774036531
:104F400010605CE50C6010EE2467F582EF3400F52C
:104F500083E07003024FE7900C1BE06401602AEECF
:104F60002482F582EF3400F583E060047804800247
:104F70007800850C0AE50AC398FA95E0FB12655D96
:104F80008A0A8B0BEA450B70051268998074EE242F
:104F900082F582EF3400F583E070048A0E8B0FE512
:104FA0000C6012850E82850F83F50DE5D9F0A315EF
:104FB0000DE50D70F6EE2482F582EF3400F583E006
:104FC000604474FC250CF50C780E124A9CAC0CA9BC
:104FD00010EEFAEFFB1267317402124848E97026AE
:104FE000AA0AAB0B125E1F793D8E828F83A3A3A307
:104FF000A3E0FA7B00126431EEFAEFFB1266AD1209
:10500000674379008074740365106056850C1275CF
:1050100013007812124A9CAC0EAD0FAA0AAB0B1209
:10502000670D7402124848EE2468F582EF3400F5EB
:1050300083E064807004747F8001E0F50E780E12C6
:105040004AA0E510F50E780E124AA0A90CAC0AADE4
:105050000B900AABE0FA7B001263F5740212484829
:105060008013900A7DE06408600BAC0EAD0FEEFA81
:10507000EFFB12679D1268A579017F0A0249A174AE
:10508000F51248F574FC124832EAFEEBFF890AA2D9
:10509000AFE433F50BC2AF806AEE2463F8EF34005F
:1050A000F97A007B00A2AFE433F50CC2AF888289A5
:1050B00083E0FCA3E0FDEC4D603A88828983E0FA4E
:1050C000A3E0FB8A828B83E0FCA3E0FD88828983D6
:1050D000ECF0A3EDF08A828B83E4F0A3F088828960
:1050E00083E0FCA3E0FDEC4D700A88828983A3A3D2
:1050F000E4F0A3F0E50CA2E092AF125E1F900BBEAD
:10510000E004F0EE2463F582EF3400F583E0F8A3C9
:10511000E0F9E849603DEE2463F582EF3400F58361
:10512000E02402FAA3E03400FBEA2402F50CEB349D
:1051300000F50D780C124A9C8A828B83E0FCA3E078
:10514000F9EEFAEFFB1266D17402124848E97003D7
:10515000025099900BBEE06063900BBFE0F8900B9B
:10516000BEE0C398500C7402650A7050900BC0E00A
:10517000604A8E828F83A3A3A3A3E0851A82851B36
:1051800083F0A3E4F0900BBEE0F8740212487DE8CF
:10519000F0A3E4F0900BBEE0F8900BBDE028F074B3
:1051A0000212487DAC82AD83851A82851B83AA8258
:1051B000AB837901126401900BBEE4F0E50BA2E031
:1051C00092AF7404124848024D06FFFF852187857F
:1051D00022C622C0E0C0D0E8C0E0E9C0E0EAC0E0FA
:1051E000EBC0E0ECC0E0EDC0E0EEC0E0C00AC00BF8
:1051F000C00CC00DC082C083C0F0A2AFE433FEC2B9
:10520000AF759B00906182E0A2E05012E591A2E0B0
:10521000500C7591FE740165217003124ED2E0A20C
:10522000E55051E591A2E5504B7591DF900A7DE084
:1052300064076005E06408702374016521703579A6
:1052400001900AABE0FA75F003A4CAA8F028FB7439
:10525000AD2AFA740A3BFB12507F8018E0640D708F
:1052600013900A9FE004F064287002E4F07A00E0F2
:10527000F91268AB906182E0A2E6400302531AE59E
:1052800091A2E6400302531A7591BF900A7DE06433
:105290000570081267D31267DF80031267D9752182
:1052A00000126839E9900A7EF0790012682D1266C2
:1052B0000B7A017B00900A7CE0F9125AEF90780398
:1052C000E064427055900C1FE014F0704DC2AF12B4
:1052D00052D200782AD0E0F618D0E0F6E59F5407C5
:1052E0007005750BFF8003750B7FC4C0E07829E65D
:1052F000F50A08E6550BF50B740B780A124810D026
:10530000E0250AF8906270E0A2E740F8E8C3339025
:105310006272F0906270E0D2E0F0906181E0A2E30E
:105320005009E5E9A2E3500375E9F7A3E0A2E750CD
:1053300009E591A2E7500375917FEEA2E092AFD00C
:10534000F0D083D082D00DD00CD00BD00AD0E0FEAC
:10535000D0E0FDD0E0FCD0E0FBD0E0FAD0E0F9D026
:10536000E0F8D0D0D0E032C0E0C0D0C082C083909E
:105370006183E0A2E05009E5BFA2E0500375BFFEE3
:10538000E0A2E15009E5BFA2E1500375BFFDE0A234
:10539000E25009E5BFA2E2500375BFFBE0A2E35073
:1053A00009E5BFA2E3500375BFF7E0A2E45009E5A9
:1053B000BFA2E4500375BFEFE0A2E55009E5BFA22C
:1053C000E5500375BFDFE0A2E65009E5BFA2E65055
:1053D0000375BFBFD083D0828088C0E0C0D0E8C052
:1053E000E0E9C0E0EAC0E0EBC0E0ECC0E0EDC0E026
:1053F000C0F0E5A7A2E6500FE5A1A2E6500953A729
:10540000BF75A1BF12543FE5A7A2E5500CE5A1A2CC
:10541000E5500653A7DF75A1DFE5A7A2E15009E536
:10542000A1A2E1500375A1FDE5A7A2E2500CE5A100
:10543000A2E2500653A7FB75A1FBD0F002535074B3
:10544000F81248F5752101900A7DE0640670151286
:1054500067618A828B83A3A3A3A3A3A3E0FAA3E03B
:10546000FB1267C1A2AFE433FED2AF900A83E064BF
:105470000170187A207B00900A7CE0F9125B977A21
:10548000207B00900A7CE0F9125AF5906182E0D20C
:10549000E6F0900C1CE0602185C6228016900A82FE
:1054A000E064017008E5C654F84405F5C653BEFC37
:1054B0001251CC7401652160E4EEA2E092AF7F014D
:1054C0000249A1FF8E238F24858228858327851A90
:1054D00082851B83E0CEA3E0CF852882852783EBDE
:1054E000C9EAC8EDCBECCA75F010C3E833C8E9339C
:1054F000C9EA33CAEB33CBC3EA9EF526EB9FF52509
:10550000B35004AB25AA26EC33CCED33CDD5F0DA7D
:10551000AE23AF242274E91248F574F8124832859C
:105520001A82851B83ECF0A3EDF08A0A8B0B900A9C
:105530007DE024F7C394055006750A010256AC12AB
:1055400067618A0C8B0DAE0CAF0DEE4F70030256E7
:10555000A9AC0AAD0B740212487DAA82AB83126714
:10556000F18E828F83A3A3750EFF750FFF7510FF59
:10557000751100780E1246DC740212487D7512FF18
:105580007513FF7514FF75150078121246DC780E3E
:1055900079121244CF502A780E7912124689750A70
:1055A00001750BC8750C00750D00780A790E124450
:1055B000CF5052850E0A850F0B85100C85110D807A
:1055C000507516017517C875180075190085120AEF
:1055D00085130B85140C85150D780A790E124689F2
:1055E0007816790A1244CF401C750A00750B0075B5
:1055F0000C00750D01780A7912124689780A790E25
:10560000124650800C750A01750B00750C00750D63
:10561000007409780A124631750E19F50FF510F568
:1056200011780A790E12458E8E828F83A3A3A3A3CD
:10563000A3A3E0F8A3E0F97AD07B031247A7880E72
:10564000890FE4F510F511780A790E1246507406A8
:1056500012487DE0F8A3E0F97AD07B031247A7E86F
:10566000FA8A0EE4F50F780A790E1244CF500778C3
:105670000A790E124689900A7DE06408600AE064A7
:10568000066005E06405702D750E0D780E790A121E
:1056900044CF4021750EF4750FFF7510FF7511FF93
:1056A000780A790E124650800C750A00750B007549
:1056B0000C00750D00851A82851B83E0F8A3E0F5C8
:1056C000838882780A12471174081248487F1002B2
:1056D00049A174F71248F5126803900C1AE06401AE
:1056E0007010906245E4F0A3F053F4F343FE0C53C2
:1056F00090F31267AFE5C654804449F5C6E59E5461
:105700007F644970F8906185740FF0900C18E0F494
:105710007002A3E0604E900C19E0600814601B1446
:10572000602E8040750A01750B00900C18E0780A15
:1057300012481FE50AF45280802A750A01750B0091
:10574000900C18E0780A12481FE50AF45290801471
:10575000750A01750B00900C18E0780A12481FE5D5
:105760000AF452A079007F020249A174F71248F5A9
:10577000E9FEEAFF74016E700C7A807B00900A7C6F
:10578000E0F9125AEF906AB4E493F46008E493F9F4
:105790001265FF800953C680E59E547F70FA126738
:1057A000B5900C1AE064017003126617900C18E0B3
:1057B000F47002A3E0604B900C19E0600814601ACA
:1057C00014602C803D750A01750B00900C18E07870
:1057D0000A12481FE50A42808028750A01750B00ED
:1057E000900C18E0780A12481FE50A429080137561
:1057F0000A01750B00900C18E0780A12481FE50AA0
:1058000042A01268031267618A0A8B0BA80AA90BCF
:10581000E8496015E5E170FCE82414F582E93400FC
:10582000F583E0F46003E0F5E174016F700A7A013A
:10583000900A7CE0F9125B6102576674ED1248F53C
:105840008A0A8B0B8C0C8D0D741312487D780E1206
:105850004702780A790E1244CF7512017513C87584
:1058600014007515005012780A790E1246897812C4
:10587000790A1244CF50168010780E790A124689A0
:105880007812790E1244CF40047901800279007FAA
:105890000C0249A174ED1248F58A0A8B0B8C0C8D11
:1058A0000D741312487D780E124702780E790A1291
:1058B00044CF4011780A790E124689AA0AAB0BAC84
:1058C0000CAD0D802275120075130075140075154E
:1058D000017812790E1246897812790A124650AA76
:1058E00012AB13AC14AD1580A68A828B83750AFFA8
:1058F000750BFF750CFF750D00780A1246EF7F04DB
:105900000249A174F51248F58C828D83780A1247FA
:10591000028A828B83780A1246B5EA2404F8EB34B3
:1059200000F98C828D83A3A3A3A3E0FCA3E0FD88F0
:10593000828983C3E09CF0A3E09DF088828983C3C1
:10594000E09420A3E0944E40268A828B83750AFF60
:10595000750BFF750CFF750DFF780A1246768A826B
:105960008B83A3A3A3A3E02420F0A3E0344EF00292
:1059700058E974F51248F5E9FE900BD2E0FAA3E07D
:10598000FBEEC333F8E433F974B228F5827480393E
:10599000F583E02AF50AA3E03BF50B780A124A9C4E
:1059A0007A407B427C0F7D001254C4740212484836
:1059B0008A0A8B0B8C0C8D0D7410780A124618AA6B
:1059C0000AAB0B7F040249A174F11248F58A0E8BD1
:1059D0000F8C108D11740F12487DE0FAA3E0FB7458
:1059E0001112487DE0F50AA3E0F50B780A124A9CF3
:1059F000EA2401F50AEB3400F50BE4F50CF50D781B
:105A00000E790A12450E750A71750B02780E790A25
:105A100012450EAA0EAB0FAC10AD111254C4740295
:105A20001248488B0BEA450B60047A0180027A0029
:105A3000EC2AFCED3400FD741312487DE0F8A3E07D
:105A4000F9E8FEE9FFECF8EDF97A717B021247A75D
:105A5000880A890B8E828F83780A124711ECF8ED41
:105A6000F97A717B021247A78A0A8B0B7405780AB0
:105A700012481F8E828F83A3A3A3A3E50AF0A3E598
:105A80000BF07F080249A1C082C083E9906000F05A
:105A9000D083D082221244A55EBD031244A568BD06
:105AA000031244A5A6BD031244A5EFBD031244A5ED
:105AB00029BE031244A583BE031244A5A4BE03124B
:105AC00044A5ADBE031244A5FABE031244A523BFEC
:105AD000031244A52DBF031244A599BF031244A588
:105AE0002BC0031244A575C0031244A5ABC003121A
:105AF00044A537C1031244A578C1031244A5AFC120
:105B0000031244A5C1C1031244A5E0C1031244A578
:105B1000E9C1031244A5B6C2031244A5CBD60312B1
:105B200044A5C2D7031244A5DCD7031244A5EDD780
:105B3000031244A50CDA031244A52BDA031244A580
:105B40000982041244A53F82041244A575820412FE
:105B500044A5C083041244A5D390041244A5E9903F
:105B6000041244A5F390041244A53D91041244A5E7
:105B700090FF011244A572DB031244A587DB0312D8
:105B800044A537DC031244A577DC031244A590DC5E
:105B9000031244A5CBDC031244A518DD031244A56F
:105BA0004ADD031244A58CDD031244A58DDF0312E8
:105BB00044A59C8D041244A5C58D041244A5F48D02
:105BC000041244A50C8E041244A54E8E041244A562
:105BD00020F0031244A550F0031244A563F0031211
:105BE00044A592F0031244A5AFF0031244A544F17A
:105BF000031244A5DDF1031244A563F2031244A588
:105C0000CCFF031244A54792041244A5E7D5011224
:105C100044A54CD8011244A5EDD9011244A5A1DA3E
:105C2000011244A534DB011244A5B9DB011244A5DD
:105C3000DEDB011244A534DF011244A5BADF0112F4
:105C400044A5EDE0011244A527E1011244A55CE161
:105C5000011244A51CE3011244A579E3011244A5F5
:105C6000C2E3011244A52DE4011244A59EE40112F1
:105C700044A5D0E4011244A5E8E4011244A531E6AC
:105C8000011244A541E6011244A55CE7011244A5B6
:105C90007EE7011244A5B4E7011244A568E90112A8
:105CA00044A5F5E9011244A534EA011244A558EBD4
:105CB000011244A5A88C041244A5B88C041244A572
:105CC0004A8D041244A5718D041244A5918D0412CD
:105CD00044A59D92041244A5DC92041244A50493A9
:105CE000041244A50F93041244A5EFFF011244A52A
:105CF000778E041244A5878E041244A5998E04124F
:105D000044A54B8F041244A5F3FE021244A578FF6C
:105D1000021244A5DEFF021244A589FD031244A528
:105D2000B1FD031244A5E1FD031244A540FE031298
:105D300044A58EFE031244A5C8FE031244A5FCFE32
:105D4000031244A558FF031244A5568A041244A521
:105D5000808A041244A5E38A041244A5F58A041239
:105D600044A5458B041244A5838B041244A5868B5D
:105D7000041244A51B93041244A52B93041244A5BA
:105D80002E93041244A5F87F001244A5FFF80312D5
:105D900044A59AFA031244A5FBFA031244A541FB59
:105DA000031244A5E4C2031244A51EC3031244A572
:105DB0003BC3031244A537C4031244A5D4C4031241
:105DC00044A5C1C5031244A507C7031244A52CC7A7
:105DD000031244A595C7031244A5F0C7031244A5B6
:105DE00055B6031244A592B6031244A5ADB60312EC
:105DF00044A57EB7031244A56CB8031244A519BA92
:105E0000031244A58BBA031244A573BB031244A525
:105E1000FABB031244A51ABD031244A55987041204
:105E200044A5AB87041244A53588041244A59C8878
:105E3000041244A544FB031244A56EFB031244A5BF
:105E40003CFC031244A517FD031244A5769F0312E0
:105E500044A53DA0031244A574A0031244A59EA02E
:105E6000031244A5FEA0031244A554A1031244A5A5
:105E7000B9A1031244A551A2031244A560A30312C1
:105E800044A5F7A4031244A584A5031244A5EBA5D9
:105E9000031244A502A6031244A51CA7031244A59D
:105EA0005AA7031244A5DDCA021244A55ECE02120F
:105EB00044A5E6CF021244A53DD0021244A55CD011
:105EC000021244A5DAD0021244A570D2021244A5EF
:105ED00055D3021244A563D7021244A539D8021241
:105EE00044A50080011244A55684011244A5828B6A
:105EF000011244A5198D011244A5958E011244A5E5
:105F0000D68E011244A5A08F011244A5E08F011284
:105F100044A5BC90011244A50791011244A53491F7
:105F2000011244A58491011244A5C492011244A512
:105F3000179E011244A561A0011244A5E3A101121C
:105F400044A563A2011244A57BA2011244A5A5A207
:105F5000011244A5D6A2011244A50DA3011244A525
:105F600047A3011244A55FA4011244A5FA830412B9
:105F700044A51184041244A54284041244A57D84DE
:105F8000041244A5A784041244A5D184041244A594
:105F9000E884041244A5FF84041244A51685041263
:105FA00044A53F85041244A55285041244A5688582
:105FB000041244A57B85041244A5A285041244A5BD
:105FC000D38C031244A5D78D031244A50F8E031260
:105FD00044A5328E031244A53D8E031244A5608E63
:105FE000031244A56F8F031244A54490031244A5E5
:105FF000BF90031244A54791031244A58291031256
:1060000044A5B991031244A54792031244A52093D5
:10601000031244A58093031244A58B93031244A555
:106020000A94031244A50D94031244A5109403127C
:1060300044A59F94031244A5A294031244A5D294AC
:10604000031244A5FC94031244A5EA95031244A547
:106050009C96031244A565CD031244A58DCD031271
:1060600044A5BBCD031244A5F2CD031244A550CEE6
:10607000031244A59BCE031244A5E6CE031244A509
:1060800026CF031244A56CCF031244A59ACF031266
:1060900044A557D0031244A561D0031244A56ED085
:1060A000031244A5A1D0031244A56DD1031244A547
:1060B00079D1031244A591D1031244A59BD10312B7
:1060C00044A5518F041244A55F8F041244A5778F15
:1060D000041244A58F8F041244A5519F021244A5B7
:1060E000FD9F021244A578A0021244A599A10212B4
:1060F00044A5D5A1021244A57EA2021244A565A31F
:10610000021244A5C9A4021244A520A5021244A566
:10611000A1A5021244A591A6021244A5DEA6021270
:1061200044A564A7021244A596A7021244A5AAA9F1
:10613000021244A5ECA9021244A50AAA021244A51F
:106140008DAA021244A561AB021244A529AC021229
:1061500044A532AF031244A505B0031244A5AEB066
:10616000031244A501B1031244A5B1B1031244A521
:106170003DB2031244A529B3031244A558B3031238
:1061800044A56BB4031244A5B3B4031244A588B567
:10619000031244A5C4B5031244A5E0B5031244A5F7
:1061A0006B91041244A587EC031244A59DEC0312E5
:1061B00044A5C3EC031244A5DFED031244A5E9EDA9
:1061C000031244A51EEF031244A516F0031244A5C2
:1061D0003EC8031244A56EC9031244A5A1C9031207
:1061E00044A5EBC9031244A5B2CB031244A5008019
:1061F000021244A56A80021244A5C981021244A574
:10620000D981021244A50682021244A55D820212BF
:1062100044A50683021244A50D84021244A5D78426
:10622000021244A53786021244A57A86021244A5BA
:106230001F87021244A56C87021244A5928702129E
:1062400044A5A089021244A5A589021244A5AA8BDF
:10625000021244A5F78B021244A56A8C021244A5CF
:106260009D8C021244A53F8D021244A5E88D0212B6
:1062700044A5208E021244A5238E021244A56B8EE3
:10628000021244A5AB8E021244A5028F021244A54D
:106290002CF6031244A544F6031244A58CF603120F
:1062A00044A5A2F6031244A5E9F6031244A5FDF79E
:1062B000031244A58AF8031244A5D5F8031244A595
:1062C000DEA4011244A5EAA4011244A525A50112E9
:1062D00044A56AA5011244A52AA6011244A5B0A6A8
:1062E000011244A515A7011244A541A7011244A516
:1062F0007AA7011244A5B8A9011244A59CAB0112CA
:1063000044A582AD011244A5C5AE011244A513B146
:10631000011244A525B2011244A570B3011244A58F
:1063200080B4011244A59DB4011244A5D8B4011251
:1063300044A5FAB4011244A55DB5011244A51EBAE4
:10634000011244A5B3BA011244A504BB011244A52D
:106350002BBB011244A57DBB011244A59BBB0112BE
:1063600044A5F5BB011244A5F4BC011244A578BDB7
:10637000011244A522D2031244A52CD2031244A533
:106380006FD2031244A58AD2031244A51AD3031272
:1063900044A542D3031244A57FD3031244A5B6D328
:1063A000031244A5DFD3031244A554D4031244A519
:1063B00069D4031244A57ED4031244A5AFD40312BA
:1063C00044A5C3D4031244A5E8D4031244A522D59E
:1063D000031244A54ED5031244A586D5031244A545
:1063E00005D6031244A54ED6031244A578D603124F
:1063F00044A5A3D6031244A58F8B041244A50080A4
:10640000031244A52E80031244A57C81031244A5E7
:106410005C82031244A57B82031244A5F882031216
:1064200044A53B83031244A59184031244A55285DD
:10643000031244A5D987031244A57A88031244A500
:106440007089031244A56D8A031244A5C78B0312F9
:1064500044A5528C031244A5FB88041244A5648908
:10646000041244A5B889041244A5DF89041244A586
:10647000108A041244A5FFDF031244A56CE0031246
:1064800044A5B3E0031244A5CBE1031244A5C7E23F
:10649000031244A5AAE3031244A50D97031244A5D1
:1064A0004F97031244A52198031244A5FA980312AA
:1064B00044A5F499031244A5D69A031244A53F9B20
:1064C000031244A5F59B031244A5699C031244A53D
:1064D000D59C031244A5FE9C031244A5789D03128B
:1064E00044A5119E031244A5769E031244A58B9EDB
:1064F000031244A5D19E031244A5EA9E031244A5AB
:106500004F9F031244A5529F031244A533F3031275
:1065100044A55BF3031244A599F3031244A557F471
:10652000031244A5BEF4031244A5DAF4031244A5F1
:1065300002F5031244A532F5031244A541F50312F6
:1065400044A5BEF5031244A5E4F5031244A5EF8F5C
:10655000021244A5CD91021244A5FF93021244A554
:106560003B94021244A56894021244A5529502126B
:1065700044A59D95021244A5E895021244A5FA95FA
:10658000021244A53A96021244A56F96021244A53F
:10659000BD96021244A5EC96021244A50F97021272
:1065A00044A55C97021244A5E197021244A5FB9909
:1065B000021244A53A9C021244A57B9C021244A5F7
:1065C0001D9E021244A55E9E021244A5D19E021297
:1065D00044A5279F021244A5B0E6021244A5AEE7E7
:1065E000021244A547EE021244A568F0021244A527
:1065F00033F2021244A59BF3021244A5DFBD01123F
:1066000044A58EBE011244A5BBBE011244A501BF24
:10661000011244A541C0011244A5D7C1011244A5ED
:1066200051C2011244A56CC2011244A5E7C2011275
:1066300044A541C4011244A5A1C5011244A5A7C6A1
:10664000011244A508C8011244A521C8011244A59D
:106650007FC8011244A56DC9011244A5A0C9011249
:1066600044A510CA011244A58ACA011244A5D4CA7D
:10667000011244A59ECB011244A573CC011244A57E
:1066800052CD011244A5DDCD011244A54BCE01121D
:1066900044A5BFCE011244A5EACE011244A5A9CF5C
:1066A000011244A50ED1011244A52BD1011244A51B
:1066B0004AD1011244A53BD2011244A560D2011275
:1066C00044A58AD2011244A505D3011244A55FD383
:1066D000011244A5C8D4011244A576D5011244A5DF
:1066E000B7D5011244A5DCD8021244A52AD902125A
:1066F00044A536D9021244A514DA021244A545DA9B
:10670000021244A576DA021244A5F6DA021244A572
:106710002EDB021244A580DB021244A5BDDB02126F
:1067200044A5DADD021244A500E0021244A5EBE123
:10673000021244A5D5E3021244A5F37F001244A53A
:106740007DEB011244A5ADEB011244A586F20112C6
:1067500044A50BF4011244A508FA011244A5F0FA6D
:10676000011244A52DFB011244A550FB011244A5C2
:1067700081FB011244A58AFB011244A594FB01127E
:1067800044A582FC011244A578FD011244A5B86A13
:10679000001244A5B76E001244A5BD6E001244A5B8
:1067A000F875001244A5117B001244A5B9E8031244
:1067B00044A54FE9031244A565E9031244A5DBE9AA
:1067C000031244A54FEA031244A58DEA031244A51F
:1067D00001EB031244A57AEB031244A583EB0312E9
:1067E00044A58FEB031244A5A4EB031244A5E2EBEE
:1067F000031244A5F8EB031244A557EC031244A579
:106800006CE4031244A579E4031244A593E4031253
:1068100044A5D2E4031244A510E5031244A575E58E
:10682000031244A58AE5031244A595E5031244A585
:10683000A2E5031244A5B9E5031244A5C7E5031276
:1068400044A5D2E5031244A5DEE5031244A5EDE517
:10685000031244A5F8E5031244A51BE6031244A560
:10686000C2E6031244A5D2E6031244A5ECE60312E5
:1068700044A509E7031244A525E7031244A54AE706
:10688000031244A555E7031244A56AE7031244A581
:106890007EE7031244A5DFE7031244A5E5E70312F0
:1068A00044A5EBE7031244A5F1E7031244A509E868
:1068B000031244A53CE8031244A5B3BC021244A54C
:1068C00037BD021244A5E6BD021244A545BF02121F
:1068D00044A566C1021244A552C2021244A587C251
:1068E000021244A5A9C2021244A558C3021244A52B
:1068F00050C5021244A579C5021244A50BC6021266
:1069000044A53DC6021244A54AC6021244A5A1C62A
:10691000021244A5C7C6021244A534C9021244A5F6
:1069200037CA021244A58FCA021244A542AE02120F
:1069300044A54CAF021244A533B0021244A53DB0A9
:10694000021244A55FB0021244A56BB0021244A526
:1069500004B2021244A533B2021244A54FB302128C
:1069600044A5A8B3021244A50EB5021244A5EDB584
:10697000021244A549B6021244A5B6B6021244A5B5
:10698000F1B6021244A530B7021244A5E9B90212C9
:1069900044A503BA021244A58FBA021244A59DBAB7
:1069A000021244A5F6BA021244A504BB021244A581
:1069B00077BB021244A5DBBB021244A525BC021220
:1069C00044A5C5F3021244A5E7F3021244A50DF64F
:1069D000021244A522F9021244A53AFA021244A571
:1069E000EDFA021244A5CFFB021244A5B4850412AD
:1069F00044A5D985041244A54B86041244A5B8A722
:106A0000031244A5C1A7031244A5CAA7031244A5B3
:106A1000A1A8031244A552AA031244A588AA0312EE
:106A200044A5C2AA031244A5F8AA031244A532AB96
:106A3000031244A566AB031244A592AB031244A50E
:106A4000DBAB031244A515AC031244A55EAC0312E4
:106A500044A5B6AC031244A5EBAC031244A546AD65
:106A6000031244A580AD031244A5D1AD031244A581
:106A700007AE031244A541AE031244A56FAE031244
:106A800044A592AE031244A52890041244A5549044
:106A9000041244A5AF90041244A5B990041244A571
:106AA000C990041244A5C77F001244A5E69204FFD2
:106AB000FFFFFFFFFFFFFFFF74F412488990780388
:106AC000E064427055900C1FE014F0704DC2AF129C
:106AD0006AD200782AD0E0F618D0E0F6E59F540795
:106AE0007005750BFF8003750B7FC4C0E07829E645
:106AF000F50A08E6550BF50B740B780A124810D00E
:106B0000E0250AF8906270E0A2E740F8E8C333900D
:106B10006272F0906270E0D2E0F0900AABE0F47044
:106B200003026EB2E0F875F003A4C8AAF02AF97463
:106B3000AD28FE740A39FFEE2401F582EF3401F529
:106B400083E0F8A3E0F9E849601EEE2401F582EF46
:106B50003401F583E0FAA3E0FBEE2400F582EF3484
:106B600001F583E0F9125AEF8E828F83A3A3A3A3CA
:106B7000A3A3A3E0F8A3E0F98E828F83A3A3A3A32A
:106B8000A3E8F0A3E9F0906054E0900A84F09060EC
:106B900055E0900A85F0906056E0900A86F090608B
:106BA00057E0900A87F0906058E0900A88F0906073
:106BB00059E0900A89F090605AE0900A8AF090605B
:106BC0005BE0900A8BF090605CE0FC900A8CF090A7
:106BD000605DE0FB900A8DF090605EE0FD900A8EB3
:106BE000F090605FE0FA900A8FF0900A8AE08C0AD9
:106BF000250AF8E43400F98D0AE8250AF8E934009A
:106C0000F98B0AE8250AF8E93400F98A0AE8250A26
:106C1000FAE93400FBEE24F6F582EF3400F583E068
:106C20002AF0A3E03BF08C0AEE24F8F582EF340062
:106C3000F583E0250AF0A3E03400F0EE24FAF582B3
:106C4000EF3400F583E02401F0A3E03400F0EE24FB
:106C5000FEF582EF3400F583E0F8A3E0F9E849603F
:106C600042906000E0C333FCE433FDE82CF582E998
:106C70003DF583E02AF0A3E03BF0906000E0FA905D
:106C80000A8CE0FCEAC333FAE433FBE82AF8E93B78
:106C9000F9E8244AF582E93400F583E02CF0A3E01A
:106CA0003400F0900A8AE07011900A8DE0700BA316
:106CB000E07007A3E07003026DAF8E828F83A3A301
:106CC000A3A3A3E0F8A3E0F9EE240DF582EF3400CE
:106CD000F583E028F8A3E039F9EE240BF582EF34D0
:106CE00000F583E8F0A3E9F0EE240FF582EF34001D
:106CF000F583E4F0EE241CF582EF3400F583E064C4
:106D000001701EEE2420F582EF3400F583E0F8A335
:106D1000E0F9EE241DF582EF3400F583E8F0A3E9F5
:106D2000F0900A85E06052EE241CF582EF3400F505
:106D3000837401F0EE2469F582EF3400F583E0708E
:106D400038EE2473F582EF3400F583E0702BEE24E7
:106D50007FF582EF3400F583E0701EEE2420F5828B
:106D6000EF3400F583E0F8A3E0F9EE241DF582EF9F
:106D70003400F583E8F0A3E9F0906062E07003026C
:106D80006E628E828F83E0F8A3E0F9E82406FCE9C6
:106D90003400FDE82402FAE93400FB1267E58E8234
:106DA0008F83E0F8A3E0C82412F582E8026E6890B1
:106DB0000A8CE0603AEE240FF582EF3400F583E4AC
:106DC000F0EE241CF582EF3400F583E0640170409E
:106DD000EE2420F582EF3400F583E0F8A3E0F9EE2D
:106DE000241DF582EF3400F583E8F0A3E98020EE5E
:106DF00024FCF582EF3400F583E02401F0A3E034B5
:106E000000F0EE241DF582EF3400F583E4F0A3F0EA
:106E1000EE240BF582EF3400F583E0F8A3E0F98E61
:106E2000828F83A3A3A3A3A3E0687003A3E0696098
:106E300003026D21EE240FF582EF3400F583E0604C
:106E4000128E828F83A3A3A3A3A3E064057002A381
:106E5000E0600479088002793EEEFAEFFB1266B337
:106E60008050EE241DF582EF3400F583E4F0A3F0AA
:106E70009061C8E06006124ED2E970F48E828F8372
:106E8000A3A3A3E0602C9061C8E0700690606074DA
:106E900080F0EEFAEFFB1267A3E964016014790257
:106EA000EEFAEFFB12507F126797E964016003125C
:106EB00067437F0402495B53BFEF0244A274EC12A4
:106EC0004889900AABE0F875F003A4C8AAF02AF943
:106ED00074AD28FE740A39FF9061D0E07013EE247F
:106EE00063F582EF3400F583E0F8A3E0F9E8496048
:106EF0000FEE241DF582EF3400F583E4F0A38053F8
:106F0000EE2469F582EF3400F583E07047EE2473D8
:106F1000F582EF3400F583E0703AEE247FF582EFDE
:106F20003400F583E0702DEE241CF582EF3400F57B
:106F300083E06401701EEE2420F582EF3400F583B7
:106F4000E0F8A3E0F9EE241DF582EF3400F583E8C4
:106F5000F0A3E9F08E828F83A3A3A3A3A3E0F8A3F9
:106F6000E0F9EE241DF582EF3400F583E028F8A364
:106F7000E039F9E8240108E93400F9EE2407F50CBA
:106F8000EF3400F50D850C82F583E8F0A3E9F0EE0F
:106F9000240BF582EF3400F583C3E098A3E0995009
:106FA000358E828F83A3A3A3A3A3A3A3C082C08390
:106FB000EE240BF582EF3400F583E0F8A3E0F9D07E
:106FC00083D082E0C398F8A3E099F9C3E894AAE9D2
:106FD00094105035803BEE240BF582EF3400F5839E
:106FE000C082C0838E828F83A3A3A3A3A3A3A3E0A5
:106FF000F8A3E0F9D083D082E0C398F8A3E099F930
:10700000C3E894ABE994105008900BC2E06401709F
:1070100030EE241DF582EF3400F583E4F0A3F08E0A
:10702000828F83A3A3A3A3A3E02401F8A3E03400E9
:10703000F98E828F83A3A3A3A3A3A3A3E8F0A3E95C
:10704000F0EE2473F582EF3400F583E06401600311
:107050000272B8EE2474F582EF3400F583124AB35D
:107060008E828F83A3A3A3A3A3A3A3E0FCA3E0FD2D
:107070008E828F83A3A3A3A3A3E0FAA3E0FB124E07
:107080008B7402124848E970030272B8EE2474F857
:10709000EF3400F9880A890B8882F583E0F8A3E0D1
:1070A000F9850C82850D83E8F0A3E9F0EE2476FCE7
:1070B000EF3400FDEEFAEFFB1266BFEE247BF582A3
:1070C000EF3400F583E0F8A3E0F9EE2420F582EF39
:1070D0003400F583E8F0A3E9F0EE241CF582EF34E8
:1070E00000F583E4F0EE241DF582EF3400F583E42F
:1070F000F0A3F0EE240FF582EF3400F5837401F075
:10710000850C82850D83E0F8A3E0F9EE240DF5826D
:10711000EF3400F583E028F8A3E039F9EE240BF50D
:1071200082EF3400F583E8F0A3E9F08E828F83A329
:10713000A3A3A3A3E0FCA3E0FD850A82850B83E063
:10714000FAA3E0FB124ECA8A0A8B0BEE242EF582BC
:10715000EF3400F583E0FAA3E0FBE4F50CF50D8ACB
:107160000E8B0FF510F511780A790E12450EEE24EC
:1071700077F582EF3400F583E0F50EA3E0F50F78A4
:107180000A790E124650EE2479F582EF3400F58329
:10719000E06A7003A3E06B7044EE247DF582EF3467
:1071A00000F583E0F8A3E0F9EE2432F582EF340035
:1071B000F583E0687003A3E0697022EE247BF5821A
:1071C000EF3400F583E0F8A3E0F9EE2430F582EF28
:1071D0003400F583E0687003A3E0696052EE247D1B
:1071E000F582EF3400F583E0F50EA3E0F50F7404AB
:1071F000780E124810780E124A9CEE247BF582EF2E
:107200003400F583124AB3EE2479F582EF3400F5A9
:1072100083E0FCA3E0C313FDEC13FC8E828F83A3F9
:10722000A3A3A3E0FA7B001264377404124848EE6B
:107230002476F582EF3400F583E0C0E0EE242BF5F0
:1072400082EF3400F583D0E0F0EE2479F582EF345C
:1072500000F583E0F8A3E0F9EE242EF582EF340088
:10726000F583E8F0A3E9F0EE247BF582EF3400F536
:1072700083E0F8A3E0F9EE2430F582EF3400F583E3
:10728000E8F0A3E9F0EE247DF582EF3400F583E029
:10729000F8A3E0F9EE2432F582EF3400F583E8F04C
:1072A000A3E9F0EEFAEFFB1266C5EE2473F582EF68
:1072B0003400F583E4F08016EE242EF582EF3400DE
:1072C000F583E0F50AA3E0F50BE4F50CF50DEE24EB
:1072D00018F582EF3400F583780A1244BA701EEE76
:1072E000241FF582EF3400F583E0F8EE241DF582CB
:1072F000EF3400F583E0687002A3E06039EE2412F9
:10730000F50EEF3400F50F780E124A9CEE2410F5BE
:1073100082EF3400F583124AB3EE241DF582EF3478
:1073200000F583124AB3AA0AAB0BAC0CAD0D12598F
:10733000C87406124848EE2418F582EF3400F5832D
:10734000780A124711EE241DF582EF3400F583E030
:10735000C0E0EE241FF582EF3400F583D0E0F0EEBC
:107360002412FCEF3400FD8E828F83E02402FAA306
:10737000E03400FB125903906062E060147C0C7DE5
:10738000818E828F83E02402FAA3E03400FB12593D
:10739000038E828F83E0F8A3E0F988828983A3A318
:1073A000E82408FCE93400FD74061247458E828FFC
:1073B00083E02402F8A3E03400F9E8FAE9FBEE24C4
:1073C0001DF582EF3400F583E0F512A3E0F513E438
:1073D000F514F515750E01F50FF510F51178127904
:1073E0000E1246507812790A12450E8A828B8378E3
:1073F000121246768A828B83750EFF750FFF751009
:10740000FF780E1246EF900BBCE06401600302753A
:1074100045790112682D8E828F83E0FAA3E0FB7517
:107420000AFF750BFF750CFF750DFFEA240EF58240
:10743000EB3400F583780A124711EA2412F8EB3492
:1074400000F9E8FAE9FBEE2412F582EF3400F58347
:10745000780A124702E50A75F0E2A4C50AA8F07599
:10746000F004A428F875F0E2E50BA428F50B8A8255
:107470008B83E0250AF0A3E0350BF0EE2416F582AD
:10748000EF3400F583E0F50AA3E0F50B7404780A05
:10749000124810E50A2401F8E50B3400F98A828BC2
:1074A00083E028F0A3E039F0906062E08E828F8361
:1074B00070030275B9E0F8A3E0C82412F582E8343D
:1074C00000F583E02410F0A3E03401F0EE240FF582
:1074D00082EF3400F583E06032EE242BF582EF3446
:1074E00000F583E0F875F071A4C8AAF075F002A465
:1074F0002AF98E828F83E0FAA3E0CA2412F582EA89
:107500003400F583E028F0A3E039F08E828F83E029
:10751000F8A3E0C82414F582E83400F5837410F071
:107520008E828F83E0F8A3E0C82416F582E8340049
:10753000F5837447F0A37466F0EEFAEFFB124D0B7F
:107540007900027B0C750E50750F00751000780ED7
:10755000790A1244CF4003027416EE241DF582EF1F
:107560003400F583E0F8A3E0F9E8496003027416FB
:10757000780A124A98EEFAEFFB1266CB74041248AE
:1075800048E964016003027416EE240FF582EF34BB
:1075900000F583E060128E828F83A3A3A3A3A3E0F0
:1075A00064057002A3E0600479088002793EEEFA77
:1075B000EFFB1266B379018089E0F8A3E0C82412DA
:1075C000F582E83400F583E02410F8A3E034FFF9F5
:1075D0007A717B021247A7880A890BEE242EF58266
:1075E000EF3400F583E0F8A3E0F9C3E50A98E50B72
:1075F0009950030274CC80B074EC124889EAFEEB17
:10760000FF8C828D83E0F8A385820A85830B603B23
:107610001470030277E0147003027AD51470030229
:10762000785C24FD7003027975147003027B0C14DE
:1076300070030279CC24FE700302797A147003027D
:1076400079BC147003027A58027AFBEE2476F512A4
:10765000EF3400F513E0851282851383F0850A82EA
:10766000850B83A385820A85830BEE2477F510EFC3
:107670003400F5117902AC0AAD0BAA10FB1266DDDD
:107680008A0A8B0BEE2479F50EEF3400F50F7902A0
:10769000AC0AAD0BAA0EFB1266DD8A0A8B0B7902CF
:1076A000AC0AAD0BEE247BFAEF3400FB1266DD8AE8
:1076B0000A8B0BEE247DF50CEF3400F50D7902AC4E
:1076C0000AAD0BAA0CFB1266DD8A0A8B0B851282AF
:1076D000851383E0C333F0851082851183E0F8A31E
:1076E000E0F9E8C333F8E933F9851082851183E8BE
:1076F000F0A3E9F0850E82850F83E0F8A3E0F9E8B6
:10770000C333F8E933F9850E82850F83E8F0A3E9E6
:10771000F0850C82850D83E0F50EA3E0F50F74046F
:10772000780E12481F850C82850D83E50EF0A3E5C7
:107730000FF0EE2474F50CEF3400F50D7902AC0A6D
:10774000AD0BAA0CFB1266DD850C82850D83C08211
:10775000C0838E828F83A3A3A3A3A3E0F8A3E0F941
:10776000D083D082E0C398F8A3E099F9C3E894FFEE
:10777000E9947F4003027836EE247DF582EF3400F1
:10778000F583E0F50AA3E0F50BE4F50CF50DEE2426
:107790007BF582EF3400F583E02401F50EA3E0349D
:1077A00000F50FE4F510F511EE2479F582EF3400C1
:1077B000F583E0F8A3E0F9E8C333F8E933F9881278
:1077C0008913E4F514F515780E791212450E780A2E
:1077D000790E1244CF4004793B805DEE24738062C1
:1077E000EE2480F50CEF3400F50D7402C0E079054D
:1077F000AC0AAD0B7AB77B0B1266DDEAFCEBFDD071
:10780000E0F9AA0CAB0D1266DD850C82850D83C0F4
:1078100082C0838E828F83A3A3A3A3A3E0F8A3E0F7
:10782000F9D083D082E0C398F8A3E099F9C3E89433
:10783000FFE9947F40097928EEFAEFFB027AF6EE31
:10784000247FF582EF3400F5837401F0EE241DF5FA
:1078500082EF3400F583E4F0A30279C8EE24E1F569
:1078600082EF3400F583E07039EEF8EFF97A907B1F
:107870000A8A828B83A3E0C0E0E824E2F582E9343F
:1078800000F583D0E0F08A828B83A3AA82AB838841
:10789000828983A3A882A983EA64987003EB640AAF
:1078A00070CFEE24E2F582EF3400F583E0A2E0EE43
:1078B000401124DDF582EF3400F583741AF0790D60
:1078C000027ACF2462F582EF3400F583E4F0EE24EF
:1078D00067F582EF3400F583E4F0EE24E0F582EF03
:1078E0003400F5837401F07908AC0AAD0BEE249BEB
:1078F000FAEF3400FB1266DD8A0A8B0B7902AC0AC0
:10790000AD0BEE24A3FAEF3400FB1266DD8A0A8B7E
:107910000BEE2493F50CEF3400F50D7908AC0AADAD
:107920000BAA0CFB1266DD8A0A8B0B7908AA0CAB3A
:107930000D1266E3EE2487F50CEF3400F50D7904A3
:10794000AC0AAD0BAA0CFB1266DD7904AA0CAB0DD8
:107950001266E3EE248BFAEF3400FB1266F5EE2498
:1079600083FAEF3400FB1266FB900A7FE04480F05C
:107970007904027ACFEE24DE8045EE2462F582EFB0
:107980003400F583E4F0EE2467F582EF3400F583EC
:10799000E4F0EE24D2F582EF3400F583E4F0EE2437
:1079A000DCF582EF3400F5837401F0EE24D3F58228
:1079B000EF3400F583E4F0790B027B09EE24DFF568
:1079C00082EF3400F5837401F0027B0CEEF8EFF9DE
:1079D0007A907B0A8A828B83A3E0C0E0E824E2F5F8
:1079E00082E93400F583D0E0F08A828B83A3AA82F7
:1079F000AB8388828983A3A882A983EA64987003F1
:107A0000EB640A70CFEEF8EFF97A907B0A8A828BEA
:107A100083A3E0FC850A82850B83E05CC0E0E82458
:107A2000E2F582E93400F583D0E0F0850A82850B27
:107A300083A385820A85830B8A828B83A3AA82AB68
:107A40008388828983A3A882A983EA64987003EB60
:107A5000640A70B979098077EE24EAF582EF340080
:107A6000F583E064017003027AFB850A82850B834B
:107A7000E0C0E0EE24EDF582EF3400F583D0E0F0D5
:107A8000850A82850B83A385820A85830B7402C0D5
:107A9000E0F9AC0AAD0BEE24EEFAEF3400FB12660F
:107AA000DDEAFCEBFDD0E0F9EE24F0FAEF3400FB68
:107AB0001266DDEE24EAF582EF3400F5837401F0FE
:107AC000EE24ECF582EF3400F583E0703F790CEEA4
:107AD000FAEFFB8034EE24F4F8EF3400F9E088820A
:107AE0008983F0EE24F3F582EF3400F5837401F01E
:107AF00088828983E0F91266B38011EE24F5F5825D
:107B0000EF3400F583E8F079071266837F0C0249B1
:107B10005B74F6124889EAFEEBFF027D57EEFAEF3E
:107B2000FB126677027FA3EE2469F582EF3400F53D
:107B300083E06401703E900A87E07003027E33EEBA
:107B4000FAEFFB126689EE24A3F50AEF3400F50B79
:107B5000780A124A9CEE249BFCEF3400FD8E828F43
:107B600083A3A3A3A3E0FA7B001264437402124828
:107B700048027D57EEFAEFFB12664D027FA3EE241A
:107B800069F582EF3400F583E064017055900A874F
:107B9000E06031EE2482F582EF3400F5837401F069
:107BA000EE24D4F582EF3400F583E4F0A3F0A3F0E3
:107BB000A3F0EE24D8F582EF3400F583E4F0A3F0CF
:107BC000A3F0A3F0EE24DEF582EF3400F583E06449
:107BD000016003027E337906EEFAEFFB12668F0234
:107BE0007D57EE24D2F582EF3400F583E064017016
:107BF0002AEEFAEFFB126653E964016003027FC0CC
:107C0000EE24DEF582EF3400F583E4F0EE2469F52E
:107C100082EF3400F5837401027FAEEE24D3F58247
:107C2000EF3400F583E07003027FC0EE24B2F50A62
:107C3000EF3400F50B780A124A9CEE248BFCEF34EB
:107C400000FDEE24C2FAEF3400FB12670174021249
:107C50004848EE24D2F582EF3400F5837401027DAA
:107C60001FEE2469F582EF3400F583E064016003C0
:107C7000027D22900A87E07003027E33EE2420F515
:107C800082EF3400F583E0F8A3E0F9EE241DF582DD
:107C9000EF3400F583E8F0A3E9F0EEFAEFFB1266AB
:107CA00089EE2462F582EF3400F5837401F0EE244E
:107CB00067F582EF3400F5837401F0EE24DCF58281
:107CC000EF3400F583E06401701379008E828F83B6
:107CD000A3A3A3A3E0FA7B0012644F80137C017975
:107CE000008E828F83A3A3A3A3E0FA7B00126449D2
:107CF000EE24DCF582EF3400F583E4F0EE24E0F5C9
:107D000082EF3400F583E4F0EE24DFF582EF3400F7
:107D1000F583E4F0EE24DEF582EF3400F583E4F041
:107D20008035EEFAEFFB126659027FA3EE2469F567
:107D300082EF3400F583E064016003027DC2EE242B
:107D4000DFF582EF3400F583E064016003027E33E7
:107D5000EEFAEFFB126689EE246EF582EF3400F541
:107D600083E07003027FC0EE246AF582EF3400F5F1
:107D700083E024FE602F24FE7003027B271470032F
:107D8000027B7E147003027C61147003027FB124B5
:107D9000FE7003027E6524FE6092147003027EB2C0
:107DA00014604C80B2EE2469F582EF3400F583E074
:107DB00064016003027B1D900A86E06076791602FA
:107DC0007F84EEFAEFFB12665FE964016003027FD5
:107DD000C0EE24DFF582EF3400F583E4F0EE248278
:107DE000F582EF3400F583E4F0EE2469027C55EE71
:107DF0002469F582EF3400F583E06401705D900A38
:107E000087E06026EE2482F582EF3400F583E4F00B
:107E1000EE2462F582EF3400F5837401F0EE2467FE
:107E2000F582EF3400F5837401F0900A86E0600378
:107E3000027D50EE2471F8EF3400F988828983E0E6
:107E400024FFF0A3E034FFF088828983E0F8A3E008
:107E5000F9E8496003027FC0027F82EEFAEFFB126D
:107E60006665027FA3EE2469F582EF3400F583E0B6
:107E700064017034900A87E060B9EE24E1F582EF86
:107E80003400F5837401F0EE2420F582EF3400F520
:107E900083E0F8A3E0F9EE241DF582EF3400F583CA
:107EA000E8F0A3E9F0027D50EEFAEFFB12666B02F8
:107EB0007FA3EE2469F582EF3400F583E06401606E
:107EC00003027F8FEE24EAF582EF3400F583E0644D
:107ED000017051EE24EBF582EF3400F583E064018C
:107EE0006003027D50EE24F0F582EF3400F583123A
:107EF0004AB3EE24EEF582EF3400F583124AB3EE76
:107F000024EDF582EF3400F583E0FC8E828F83A3AD
:107F1000A3A3A3E0FA7B00790012643D7404124825
:107F200048027D50EE2471F8EF3400F9888289838D
:107F3000E024FFF0A3E034FFF088828983E0F8A317
:107F4000E0F9E849707AEE24F0F582EF3400F58329
:107F5000124AB3EE24EEF582EF3400F583124AB3F1
:107F6000EE24EDF582EF3400F583E0FC8E828F8302
:107F7000A3A3A3A3E0FA7B00792212643D74041248
:107F800048487922EEFAEFFB1266B379018033EEAE
:107F900024ECF582EF3400F5837401F0EEFAEFFB88
:107FA000126671EE2469F582EF3400F583E9F08002
:107FB0000FEEFAEFFB12667DE964017003027D505B
:107FC00079007F0202495BC082C083851A82851BCB
:107FD00083E0F8A3E0F9E84960128A828B83ECF031
:107FE000A3E824FF18E934FFF94870F2D083D08267
:107FF0000244A20244A2FFFF851C87C2AF0244A232
:1080000074F612488974C4124832E990091BF012C0
:108010005F2175C90053C9FCE5C954F34408F5C98B
:108020009080A1C082742B12487DAC82AD83758391
:1080300080D0827411124745742112487DAA82AB08
:1080400083126569742312487D12843812487D12A8
:10805000842CC0E0740D12487DD0E0128446124892
:108060007D12842CC0E0740E12487DD0E0F07422A2
:1080700012487D12843812487D12842CC0E0740F9F
:1080800012487DD0E012844612487D12842CC0E054
:10809000741012487DD0E0F0742112487DE0128403
:1080A0003F12487D12842CC0E0741112487DD0E04C
:1080B000F0742112487DE012844012487D12842C15
:1080C000C0E0741212487DD0E0F0750A06750B000E
:1080D000780A124A9C740F12487DAC82AD837A28CC
:1080E0007B10125A9B7402124848780A124A9C74F8
:1080F0000F12487DAC82AD837A457B10125A9B7477
:10810000021248487C067D007A1F7B00126053747F
:108110000C12487D7401F0741F12487DE4F0A3F046
:10812000740B12487D7401F0741D12487D7428127E
:10813000A051741B12487D743C12A051741912484E
:108140007D740412A051741712487D74F4F0A37466
:1081500001F0740C12487DAC82AD8379017A057B05
:1081600003125EA3741F12487DAC82AD8379027A3C
:10817000067B03125EA37C237D1079147A087B03AF
:10818000125EA37C377D10790B7A077B03125EA306
:10819000740B12487DAC82AD8379017A107B031297
:1081A0005EA3741D12487DAC82AD8379027A117B87
:1081B00003125EA3741B12487DAC82AD8379027AF0
:1081C000127B03125EA3741912487DAC82AD8379D1
:1081D000027A137B03125EA3741712487DAC82AD42
:1081E0008379027A147B03125EA37C427D107A09A4
:1081F00079001261CD7C507D0D7A067B00126053B0
:108200007C507D0D7A077B001260537C507D0D7A87
:10821000087B001260537C507D0D7A097B00126050
:1082200053742712487D12844D740A12487D7401DC
:10823000F0740912487D7401F0740812487DE4F06E
:10824000740712487D7401F0742712487DAC82AD2A
:108250008379047A087B04125C09740A12487DACA5
:1082600082AD8379017A007B04125C09740912489B
:108270007DAC82AD8379017A027B04125C097408BB
:1082800012487DAC82AD8379017A037B04125C09CC
:10829000740712487DAC82AD8379017A067B0412A3
:1082A0005C099081B01247201261D39081B01247CF
:1082B000201262E19081B0124720125DA1125BCDC5
:1082C000125DDD741512487D740312A051741312EF
:1082D000487D748012A051741512487DAC82AD8324
:1082E0007A027904125DAD741312487DAC82AD83BD
:1082F0007A027900125DAD740612487D740AF0AC02
:1083000082AD837A017901125BD990091BE0F912E1
:108310005BBB75FDF675F30175FEFB75F40075FF2B
:10832000FF75F500125F03125F5D125F577A547B91
:1083300010125DA77AF77B5E125BD3125F6379013F
:108340001263D77A107B0090091BE0F9125AEF7A7A
:10835000817950125D1D9081D4C082851A82851B5F
:1083600083AC82AD83758381D082740212474585C8
:108370001A82851B83AA82AB837902125D2974025B
:1083800012487DAA82AB837904125D2374021248DD
:108390007DE0F47009740312487DE0F460267403F4
:1083A00012487DE0F9740212487DE090091E128F98
:1083B0009B740512487DE0F9740412487DE0900931
:1083C00020128F9B125F1B851A82851B83EAF0A304
:1083D000EB12A25BAC82AD837A027904125DAD7AB6
:1083E000017B0090091BE0F9125AEF7A027B0090A2
:1083F000091BE0F9125AEF7A007B4090091BE0F963
:10840000125AEF7A407B0090091BE0F9125AEF7A7A
:10841000007B1090091BE0F9125AEF7A007B08905C
:10842000091BE0F9125AEF743C02917CE58228F5B1
:1084300082E58312A1B2E022E0F50A12843F22C451
:10844000540FF8742B22F0E50A12844022E4F0A3C2
:10845000F0A3F0A3F02274F412488974F5124832A4
:10846000EAFEEBFF5480602390091BE0F9125AD713
:108470008A0A8B0BEA450B600A125EEBAA0AAB0B69
:10848000125AC5EEFAEF6480028B71EEA2E040034F
:10849000028655900957E0705E7A507B10125EAFED
:1084A0007A587B09125C277901125F1590818C1232
:1084B0004AAF7A027B0090091BE0F9125B8B7404CF
:1084C000124848908188124AAF7A007B4090091B7D
:1084D000E0F9125B8B7404124848908184124AAF11
:1084E0007A007B1090091BE0F9125B8B7404124830
:1084F0004890818002861F64017010C290D291D290
:1085000096D297D2A0D2A1D2818013E06402701FCC
:10851000C290D291D296D297D2A0D2A1C281D28259
:10852000D284D285D286D28790048F74218046E08F
:108530006403701FD290C291D296D297D2A0D2A1DA
:10854000D281C282D284D285D286D28790048F749F
:10855000428022E064047023D290D291C296D297D6
:10856000D2A0D2A1D281D282C284D285D286D28731
:1085700090048F7484F0A3E4028619E064057023EC
:10858000D290D291D296C297D2A0D2A1D281D282D9
:10859000D284C285D286D28790048F7408F0A374E7
:1085A000018076E064067023D290D291D296D29761
:1085B000C2A0D2A1D281D282D284D285C286D287F1
:1085C00090048F7410F0A37402804EE0640770234F
:1085D000D290D291D296D297D2A0C2A1D281D28289
:1085E000D284D285D286C28790048F7420F0A3747F
:1085F000048026E06408703DC290D291D296D29752
:10860000D2A0D2A1C281D282D284D285D286D28790
:1086100090048F7440F0A37408F0D29390818C1270
:108620004AAF7A017B0090091BE0F9125B8B74045E
:108630001248488014E064097015125F037A017BC8
:108640000090091BE0F9125B97900957E004F0EEE7
:108650006401028938541060647A81791D125D1DAD
:10866000740112487DE41292B4125D3B851A828532
:108670001B83AA82AB837901125D41851A82851B17
:1086800083E0543FF0601390091CE06405600B85A3
:108690001A82851B83E0F9125F27900956E0701754
:1086A00090104C124AAF7A107B0090091BE0F9122F
:1086B0005B8B7404124848EE6410028938EE54084B
:1086C000602890091CE06405701A125BDF908188B5
:1086D000124AAF7A087B0090091BE0F9125B8B7499
:1086E00004124848EE6408028938EE54027003020E
:1086F00087D0900913E0701A7A017900125CC37A6E
:10870000017900125CBD9009137401F090818C0214
:1087100087B690091CE0640260030287A0900916E6
:10872000E004F0C3940B5039125BF7E990091AF09A
:10873000F8900917E02812A04A900919E0F890096A
:108740001AE0C3984005E0900919F090091AE0F882
:10875000901021E0C398404890091AE090102180C1
:108760003E900917C082900919E0F8758309D082FC
:10877000E0C398F8A3E09400F9901021E0FAE8C370
:108780009AF50AE99400F50B7403780A124810E58B
:108790000A90101DF0900916E4F0900917F0A3F06C
:1087A0007A007900125CC37A007900125CBD9009EE
:1087B00013E4F0908188124AAF7A027B0090091B83
:1087C000E0F9125B8B7404124848EE6402028938A7
:1087D000EE5480700302889190094CE064036003BA
:1087E000028886D290D291D296D297D2A0D2A1D22C
:1087F00081D282D284D285D286D2877A407B009081
:10880000091BE0F9125B9790094D7401F0125B258A
:108810008A0A8B0B8C0C8D0D780A124A98740812F8
:10882000487DAA82AB83125B2B74041248487406FD
:1088300012487DE0F9C3940C400474F429F975F0F2
:1088400005740512487DE08490104BF069700CE0CF
:10885000640B7004740A8002E004F07A00125F096D
:10886000125F0F908180124AAF7A007B0290091B41
:10887000E0F9125B8B74041248487A007B0490097B
:108880001BE0F9125B9790094CE4F0EE64800289DA
:1088900038EF5401600B125F0FEEFAEF6401028BA8
:1088A00071EF540260277A007B0190091BE0F912F6
:1088B0005B97125F0390094EE4F090104B740DF03B
:1088C00090094DE4F0EEFAEF6402028B71EE542051
:1088D000606B900950E0C3940750167A00E0F912DB
:1088E0005F097A00900950E0F8740CC398F9125FA0
:1088F000097A01900950E014F9125F097A01900990
:1089000050E0F8740DC398F9125F09900950E00423
:10891000F0C3940850199081BC124AAF7A207B00B2
:1089200090091BE0F9125B8B74041248488006E43E
:10893000F090094DF0EE6420FAEF028B71EF5408CD
:108940006015900915E070077A017901125F2DEE2C
:10895000FAEF6408028B71EE5440601FC290C2911E
:10896000C296C297C2A0C2A1C281C282C284C2857D
:10897000C286C287EE6440FA028B78EF540470031B
:10898000028A1BD290D291D296D297D2A0D2A1D2F3
:1089900081D282D284D285D286D2877A407B0090DF
:1089A000091BE0F9125B9790094FE0606690102276
:1089B000E07037901016E0705A90094D7401F090F5
:1089C0008158124AAF7A007B0890091BE0F9125BCC
:1089D0008B74041248489009157401F07A207B00CA
:1089E00090091BE0F9125AEF80296401702590105C
:1089F00016E06401701D9009577401F090815412C3
:108A00004AAF7A017B0090091BE0F9125B8B74047A
:108A1000124848EEFAEF6404028B71EF5420602B89
:108A2000125F33900951E0C3940350179081601294
:108A30004AAF7A007B2090091BE0F9125B8B74042B
:108A4000124848EEFAEF6420028B71EF5440700335
:108A5000028B1E7A81794A125D1D851A82851B83DD
:108A600074031292B4125D3B740112487DAA82AB6A
:108A7000837901125D41740112487DE0C43333549F
:108A8000C0F50A851A82851B8374021292B4125DA6
:108A90003B740112487DAA82AB837901125D417457
:108AA0000112487DE01313543F54F8450A90101FFB
:108AB000F090101EE0F890101FE0689009147036D6
:108AC000E004F0C3940A4030E4F0125F51740212E3
:108AD000487D741AF090101FE0C0E0740312487DC6
:108AE000D0E0F0740212487DAA82AB837902125D55
:108AF00029125F578002E4F090101FE090101EF0E2
:108B0000908188124AAF7A007B4090091BE0F912ED
:108B10005B8B7404124848EEFAEF64408053EF54C4
:108B2000106051901020E0C39402E0400414F080E3
:108B30001464017005E4F0F98008E07008743CF0FA
:108B40007901125F15E5C9540F44A0F5C9E5C95470
:108B50000F4450F5C9908184124AAF7A007B10907F
:108B6000091BE0F9125B8B7404124848EEFAEF64BB
:108B700010FB80047A007B00740B1248487F0402CB
:108B8000495B74F712488974FC1248328A828B83DD
:108B9000E064C06003028CEEA3A3A3E0FE7A8179B7
:108BA0004A125D1D740312487DE41292B4125D3BBB
:108BB000740212487DAA82AB837901125D4174026E
:108BC00012487DE0A2E0E43390094FF0EEA2E040CD
:108BD00003028C64E0A2E04005900915E4F09009DE
:108BE0004DE06003028CEE90094FE0A2E050199036
:108BF000815C124AAF7A007B0490091BE0F9125B9A
:108C00008B7404124848800C7A007B0490091BE0A6
:108C1000F9125B9790094FE0602D901022E07027C9
:108C2000901016E0702190094CE070057402F080FD
:108C30001C64026003028CF17403F07A807B009064
:108C4000091BE0F9125B9790094CE0601790815482
:108C5000124AAF7A807B0090091BE0F9125B8B749B
:108C600004124848EEA2E14003028CEE7A81791D9D
:108C7000125D1D851A82851B83742AF074011248C7
:108C80007DE41292BE125D29851A82851B837416BB
:108C90001292B4125D3B740112487DAA82AB8379B3
:108CA00001125D41851A82851B83742DF0740112B7
:108CB000487DE41292BE125D29851A82851B837459
:108CC0002AF0740112487D1292BC125D299009525B
:108CD00012844D900956F090104C124AAF7A107BD6
:108CE0000090091BE0F9125B8B7404124848029152
:108CF0002AE064036003028C4D7A807B0090091B9C
:108D0000E0F9125B977A007B0490091BE0F9125B93
:108D10009790094CE4F0028C6474F712488974F05F
:108D2000124832E9FE146009147003028DC2028EEB
:108D30008B740A12487DAC82AD837A047B03125E89
:108D4000A9740A12487DE0C0E0740212487DD0E0A8
:108D5000F0740B12487DE0C0E0740312487DD0E04F
:108D6000F0740C12487DE0C0E0740412487DD0E03D
:108D7000F0740612487DE4F0740512487DE4F07446
:108D80000F12487DE0C0E0740912487DD0E0F07415
:108D90000E12487DE0C0E0740812487DD0E0F07407
:108DA0000D12487DE0C0E0740712487DD0E0F074F9
:108DB0000212487DAC82AD837A087900125BFD0215
:108DC0008E8B901022E064017073901016E06003A7
:108DD000028E8B7A81794A125D1D125F51851A824B
:108DE000851B837443F0740112487D74261292BE71
:108DF000125D299010167401F0125F577A81791D67
:108E0000125D1D851A82851B83742AF07401124835
:108E10007D74681292BE125D2990092DE4F0A3F0D2
:108E200090093BF0A3F0900949F0A3F090091EF0DF
:108E3000A3F0900920F0A3F0125F39804EE0704B50
:108E4000901016E0640170437A81794A125D1D1218
:108E50005F51851A82851B837443F0740112487D2B
:108E600074231292BE125D29901016E4F0125F571F
:108E70007A81791D125D1D851A82851B83742AF003
:108E8000740112487D1292BC125D29EE90091CF00B
:108E9000741002912C74F7124889E9FE74016E7007
:108EA0002190091CE06405702A908188124AAF7AEB
:108EB000087B0090091BE0F9125B8B740412484890
:108EC000801174026E700C7A087B0090091BE0F927
:108ED000125B9702912F74F412488974F112483290
:108EE000E914601014606914605E24FD7003028F41
:108EF0008C028F95851A82851B83AA82AB837901A8
:108F0000125DB3851A82851B83129DAF90101412D7
:108F10008F9A125F1B740212487DEAF0A3EBF07483
:108F20000212487DAC82AD837A027904125DAD9065
:108F30000951E4F0908160124AAF7A007B209009D9
:108F40001BE0F9125B8B803D7A1D7B09790380421F
:108F5000740412487DAA82AB837902125DB3740453
:108F600012487D124720125B1F125B258A0A8B0B69
:108F70008C0C8D0D780A124A98740C12487DAA82C6
:108F8000AB83125B2B740412484880097A227B1051
:108F90007906125DB3740F028B7AE8F0A3E9F02230
:108FA000C082C083D290D291D296D297D2A0D2A1C1
:108FB000D281D282D284D285D286D28790048FE4A5
:108FC000F0A3F0C293C280C294C29590818C124AE1
:108FD000AF7A407B0090091BE0F9125B8B0290FB9B
:108FE00074F2124889E9FEEAFF750A01750B00EE7A
:108FF000780A12481FAA0AAB0B046F7011EAF4F842
:10900000EBF4F990048FE058F0A3E0598009900444
:109010008FE04AF0A3E04BF090048F129DAFE84937
:10902000701BC29390818C124AAF7A407B009009EA
:109030001BE0F9125B8B74041248488002D293EE55
:10904000607014602014602414602814602C146074
:109050003014603414603814603C14604014604470
:109060001460488052EFA2E09291804BEFA2E09210
:10907000968044EFA2E09297803DEFA2E092A0801C
:1090800036EFA2E092A1802FEFA2E092818028EF3C
:10909000A2E092828021EFA2E09284801AEFA2E007
:1090A00092858013EFA2E09286800CEFA2E0928777
:1090B0008005EFA2E092907F0602495BC082C083E8
:1090C00090094EE0700474018001E4F0E0FA901021
:1090D0004BE0F9125F09908154124AAF7A007B018C
:1090E000028FD5C0E0740312487DD0E0F074021204
:1090F000487DAA82AB837902125D29740412484824
:10910000D083D0820244A274F712488974FF1248B7
:1091100032E9851A82851B83F0AC82AD8379017AAE
:10912000057B03125EA37401800274041248487F19
:109130000102495B74F612488990091E129DAF75B1
:109140008309758220E0C398F50AA3E099F50B75B1
:109150008309758220C3E098A3E099500CE50A24A6
:10916000A0F50AE50B340FF50B7403780A124810CA
:10917000E50A2403FAE50B3400FB80031248487F1C
:109180000202495BC082C08374FE1248327A817940
:109190001D125D1D851A82851B83742BF0740112CC
:1091A000487D74401292BE125D29851A82851B8308
:1091B000742B1292B4125D3B740112487DAA82ABEB
:1091C000837901125D41740112487DE0A2E640DA24
:1091D000851A82851B83740EF0740112487D740217
:1091E00012A24FF9125D29851A82851B837409F03A
:1091F000740112487D74401292BE125D29851A8254
:10920000851B837415F0740112487D74FF1292BEA1
:10921000125D29851A82851B837417F07401124828
:109220007D74111292BE125D29851A82851B83748A
:1092300018F0740112487D74031292BE125D2985E4
:109240001A82851B83742CF0740112487D740812F5
:1092500092BE125D29851A82851B83742DF07401DC
:1092600012487D74041292BE125D29851A82851BF4
:1092700083742EF0740112487D74041292BE125D44
:1092800029851A82851B83742BF0740112487D7422
:109290001F1292BE125D29851A82851B83742AF0E3
:1092A000740112487D74681292BE125D2974020224
:1092B00090FD7444F0AA82AB83790122746912A2F2
:1092C0005379022274E812488974D2124832740C1D
:1092D00012487DE9F0741A12487DAC82AD83758323
:1092E000817582227408124745741212487DAC823F
:1092F000AD8375838175821A7408124745740D1207
:10930000487D7401F07A81791D125D1D90819078FD
:109310000A124702900952780A1246767AC07B00F8
:10932000125B49740812487DEAF0A3EBF07CC07D23
:10933000007900740812487DE0FA125AB3740812DA
:10934000487D129DAFE84960497CC07D007900747A
:109350000812487D129DC1125AB3740D12487DAA9D
:1093600082AB837901125D3B740812487D129DC166
:1093700075F006740C12487DE0A4F9125D41740C7E
:1093800012487DE0900491F0C39405500E790002DC
:109390009D7A900491E4F0F9029D7A7E00EE75F0DA
:1093A00006A4F8A9F0749228FA740439FB74081220
:1093B000487DE028F8A3E039F988828983E0FDA39D
:1093C000E08A828B83129E0C129D99E08A828B83A5
:1093D000A3A3129E0CA3A3129D99A3A3E0F8EDF9F9
:1093E0008A828B83A3A3A3A3128F9A0E900491E089
:1093F000F8EEC39840A77E0080010EEEC39840FAB5
:109400007E008E0A750B007403780A12481FAA0AA0
:10941000AB0B74522AF874063BF974A22AFA74074B
:109420003BFB8A0A8B0B8A82F5831247208882894C
:109430008312472C850A82850B83A3A3A3A312471B
:109440002088828983A3A3A3A312472C0EEEC39482
:109450000A40AF7E0A8E82AA828A0A750B007403C4
:10946000780A12481F7452250AF87406350BF9E879
:10947000FCE9FDEA75F006A4FAABF074922AFA74DE
:10948000043BFBEA24C6129DE0780A124711EA2445
:10949000C8129DE0A3A3A3A3780A1247110E90045B
:1094A00091E0240BF8E43400F9EE98E499C365D018
:1094B0003340A27A207B00125B49740A12487DEA8D
:1094C000F0A3EBF07C207D007900740A12487DE067
:1094D000FA125AB37E000298288E0A750B007403A4
:1094E000780A12481FAA0AAB0B74522AF874053B7B
:1094F000F9740612487D128F9A90101CE0F50AE468
:10950000F50BF50CF50D742A12487D780A124711F7
:1095100090101BE0F50A742612487D780A12471154
:1095200090101AE0F50A742212487D780A12471149
:10953000901019E0F50A740E12487D780A1247114E
:10954000901018E0F50A74522AF874063BF9851A4F
:1095500082851B83128F9A901017E0F50EE4F50FA9
:10956000F510F511129DC77816124702129E0024BD
:109570005012A1AF78161246637816790E12450E76
:10958000129E002408129D93124702129E00244846
:10959000129D931246637812790A12450E78167955
:1095A00012124650C016C017C018C019129E0024CF
:1095B00010129D93124702129E002440129D931296
:1095C0004663740E12487D78161247027812791697
:1095D00012450ED019D018D017D01678167912125D
:1095E0004650C016C017C018C019129E0024181289
:1095F0009D93124702129E002438129D93124663D7
:10960000742212487D781612470278127916124594
:109610000ED019D018D017D01678167912124650DD
:10962000C016C017C018C019129E002420129D93A6
:10963000124702129E002430129D93124663742634
:1096400012487D78161247027812791612450ED00C
:1096500019D018D017D01678167912124650C016A5
:10966000C017C018C019129E002428129D931247DB
:1096700002742A12487D781612470278127916125F
:10968000450ED019D018D017D01678167912124678
:1096900050740A78161245FE740612487D129DCD4C
:1096A0007816124711740612487D129DB512487D36
:1096B000128F9A129DC7A3A3A3A378121247021276
:1096C0009E002454129D931246637812790E12451F
:1096D0000E85120E85130F851410851511129E002C
:1096E000240C129D93124702129E00244C129D934B
:1096F0001246637812790A12450E780E79121246D4
:1097000050129E002414129D8D124702129E0024B6
:1097100044129D8D124663740E12487D78121247D2
:1097200002780A791212450E780E790A1246501202
:109730009E00241C129D8D124702129E00243C1292
:109740009D8D124663742212487D7812124702786A
:109750000A791212450E780E790A124650129E00AE
:109760002424129D8D124702129E002434129D8DD6
:10977000124663742612487D7812124702780A79DD
:109780001212450E780E790A124650129E00242CB1
:10979000129D8D124702742A12487D7812124702D8
:1097A000780A791212450E780E790A124650740A18
:1097B000780E1245FE740212487D129DDA1247118E
:1097C000740212487D129DCD78121247027406125F
:1097D000487D129DFA124702850A0E850B0F850CF3
:1097E00010850D11780E790A12450E85120A85131F
:1097F0000B85140C85150D780A791212450E780E1A
:10980000790A1246508E0A750B007402780A1248C3
:109810001F740A12487DE0250AF8A3E0350B888200
:10982000F583780E1247110E900491E0F8EEC3987C
:1098300050030294D97E008027780E79121244CF0B
:10984000500A741E12487D780E124711780A790E5C
:109850001244CF500A741612487D780E1247110E2A
:10986000741612487D780A124702741E12487D78D9
:1098700012124702900491E0C313FFE0F8EEC39880
:10988000504D8E0E750F007402780E12481F740A28
:1098900012487DE0250EF8A3E0350F8882F5837825
:1098A0000E124702EEC39F5090741A12487D780E34
:1098B0001244DF500A741A12487D780E1247117450
:1098C0001212487D780E1244EF409474128088740E
:1098D0001A12487D780E124702741212487D780ED3
:1098E0001246637401780E1246189008F2780E1230
:1098F0004711741A12487D780E12470274121248EA
:109900007D780E12469D9008FE780E124711851242
:109910000E85130F851410851511780E790A1246DD
:10992000507401780E1246189008F6780E124711FE
:109930007812790A124689740E12487D78121247FD
:1099400011740E12487D12472090090212472C7E96
:10995000000299E585120A85130B85140C85150DF7
:10996000780A7916124689780A1244EF5003029A4F
:1099700082740612487D129DCD124720740212484F
:109980007D129DCD12472C740612487D129DFA124D
:109990004702851A82851B83E02476F8A3E0340809
:1099A000F988828983780A12471190090CE024FD16
:1099B000FAEEC39F4003029AF69008F2780A124426
:1099C000DF4003029A929008F2780A12470274026A
:1099D00012487D129DFA1244DF5003029AAF90099B
:1099E0000CE004F00E8E8285820A750B00900491C3
:1099F000E024FFF8E434FFF9C3E50A98E499A2D221
:109A000065D0334003029BA77402780A12481F8571
:109A10001A82851B83E50AF0A3E50B12A308F8A3BD
:109A2000E0F9740A12487DE028FAA3E012A1B778A1
:109A300012124702851A82851B83E024F2F8A3E004
:109A40003407F9740612487D128F9A740612487D05
:109A5000129DB512487D128F9A8A828B83781612D6
:109A60004702781279161244CF90819450030299DC
:109A7000547816791212468978161244EF40030280
:109A80009971740212487D129DCD7812124711020D
:109A9000998750030299DE740212487D129DFA12D2
:109AA00047029008F2780A1244DF40030299DEEA86
:109AB000C394164003029BA0908198780A12470233
:109AC0009008FE780A1244DF4003029B8E9008FA49
:109AD000780A1247029008F2780A1244DF500A907E
