:020000040000FA
:10400000487BFFFF0100007C42424242FFFFFFFF6E
:10401000FFFFFFFFFFFFFFFFFFFFFFFFFFFFFFFFB0
:10402000000102030405060708090A0BFFFFFFFF52
:10403000024488025367FFFFFFFFFFFFFFFFFFFF00
:10404000FFFFFFFFFFFFFFFFFFFFFFFFFFFFFFFF80
:10405000FFFFFFFFFFFFFFFFFFFFFF024C29FFFFF6
:10406000FFFFFFFFFFFFFFFFFFFFFFFFFFFFFFFF60
:10407000FFFFFFFFFFFFFFFFFFFFFFFFFFFFFFFF50
:10408000FFFFFF0253DAFFFFFFFFFFFFFFFFFFFF0E
:10409000FFFFFFFFFFFFFFFFFFFFFF024BE2FFFFFE
:1040A000FFFFFFFFFFFFFFFFFFFFFF024C0BFFFFC4
:1040B000FFFFFF0251D301FFFF2C01990112990468
:1040C0000102FA81010000C88102F481010000238D
:1040D0000E020282010000240E02EE81030000A9FC
:1040E0000202E081010000250E01E803053F100AED
:1040F000024669726D776172650000000000000081
:1041000000001A446F2053796E6300000000000025
:1041100000000000084150502053657420436C6F2C
:10412000636B000000000841505020536574205418
:10413000696D657A6F6E6500084150502053657453
:1041400020537973416374000000120100446174CC
:10415000612048656164657200000000000012443F
:1041600061746120426F647900000000000000006B
:1041700002FA81010000D18102F481010000560E93
:1041800002DC81010000A60302F081010000570E4D
:1041900002F481010000680E02DA81030000A80326
:1041A00002EE81030000B00302F081010000690EFD
:1041B00002F4810100007A0E02D881020000B603E9
:1041C00002F0810100007B0E02F4810100008C0EE0
:1041D00002EA81020000BA0302F0810100008D0EA4
:1041E00002F481010000B00E02F881030000B10E5C
:1041F00002EE81030000BC0302F081010000B30E57
:1042000002F481010000C40E020082030000C20318
:1042100002EE81030000CA0302F081010000C50E16
:1042200002F4810100009E0E02F281020000BB0335
:1042300002F0810100009F0E1C02FA8101000009BA
:104240008102F4810100009E0F105080020000D016
:104250000302EE81030000D20302F081010000F2AC
:104260008002F4810100009E0F106080020000D1E6
:104270000302EE81030000D80302F081010000FF79
:1042800080FFFFFF000130750302010600000000FF
:10429000000000000000000000000000000000001E
:1042A0000000000000000000FFFF0600800CE80393
:1042B0002C010E1F4A7FAABA99CACA78990A094CDA
:1042C000312D30303030303005122003B004020A76
:1042D00000020106070200230F18C0FF4C312D30E9
:1042E00030303030300DC4090000F15E0000FD5E5A
:1042F000FF0000B4000028002800283075A000A0AE
:1043000000A000A00000080008E001F0001000106C
:10431000001000100010001000500050005000105D
:10432000001000D0070000000000000F0001000591
:1043300000307507001000010081FF00000000FF41
:1043400061617F616761FF02020208025000A00004
:104350000000E80302FA81010000CE8102F481012D
:104360000000AD1002EC81010000900902F481010F
:104370000000AE10020682010000A60902F48101CD
:104380000000AF1002E881010000A80902F48101D9
:104390000000B01002E681080000A90902F48101C2
:1043A0000000B11002E481010000B210FF0100FF23
:1043B0002002FA81010000CB8102F4810100001685
:1043C0001102E281000000000002EE81030000F60D
:1043D000093167316731673167316731673167317B
:1043E0006731673167316731673167C569DD69BF3B
:1043F00069E5C754F84404F5C7790122000000803C
:10440000FB1243F1B90003024472E479217808B841
:1044100000028004F709D8FCE479297802B8000288
:104420008004F709D8FCE4900280789E790C800221
:10443000F0A3D8FCD9FA781C9040B67A01BA0002F1
:104440008007E493A3F608DAF9900E1DAA82AB83E5
:104450009040B7783B79048015E493A3AC82AD8398
:104460008A828B83F0A3AA82AB838C828D83D8E966
:10447000D9E7758273758391740412449A7582FC2E
:10448000758343740012449A75D00075813F751A84
:1044900080751B02759F00024401C09FF59FE47365
:1044A000D09F22D083D082C09FE493C0E074019358
:1044B000C0E0740293F59F22E066701008A3E066E6
:1044C000700A08A3E066700408A3E06622C3E796BA
:1044D0000809E7960809E7960809E79622C3E096D7
:1044E00008A3E09608A3E09608A3E09622C00AC3BA
:1044F000E096F50A08A3E096420A08A3E096420A6D
:1045000008A3E096450A7001D3D00A22080808EAF9
:10451000C0E0EBC0E086F0E7A4FA180986F0E7A453
:104520002AFA180986F0E7A42AFA180986F0E7A4FF
:104530002AFA1986F0E7A4FBE5F02AFA190886F0B2
:10454000E7A42BFBE5F03AFA190886F0E7A42BFB69
:10455000E5F03AFA18180986F0E7A4C5F02BFBE459
:104560003AFA1908E7C5F0C6A426F6E5F03BFBE4E5
:104570003AFA1886F0E7A4F6E5F00826F6E43B08D8
:10458000F6E43A08F6D0E0FBD0E0FA22E4CFC0E04F
:10459000E4CEC0E0E4CDC0E0E4CCC0E075F020C3E0
:1045A000E633F608E633F608E633F608E633F6189F
:1045B0001818EC33FCED33FDEE33FEEF33FFC3ECA4
:1045C0009709ED9709EE9709EF97191919400FFF11
:1045D000EC97FC09ED97FD09EE97FE191906D5F049
:1045E000BEECF709EDF709EEF709EFF7191919D045
:1045F000E0FCD0E0FDD0E0FED0E0FF22601708082C
:1046000008C6A2E713C618C613C618C613C618C62E
:1046100013C6D5E0E9226016080808C6C313C618F9
:10462000C613C618C613C618C613C6D5E0EA22704C
:1046300009080808226016181818C6C333C608C629
:1046400033C608C633C608C633C6D5E0EA22E62715
:10465000F60809E637F60809E637F60809E637F6F8
:1046600022E026F608A3E036F608A3E036F608A313
:10467000E036F622E026F008A3E036F008A3E036A4
:10468000F008A3E036F022C3E697F60809E697F6AD
:104690000809E697F60809E697F622C3E0C696F6FB
:1046A00008A3E0C696F608A3E0C696F608A3E0C6FF
:1046B00096F622C3E096F008A3E096F008A3E096F1
:1046C000F008A3E096F022E657F60809E657F60848
:1046D00009E657F60809E657F622E056F608A3E081
:1046E00056F608A3E056F608A3E056F622E056F088
:1046F00008A3E056F008A3E056F008A3E056F02225
:10470000E0F608A3E0F608A3E0F608A3E0F622E648
:10471000F008A3E6F008A3E6F008A3E6F022E0FA2A
:10472000A3E0FBA3E0FCA3E0FD22EAF0A3EBF0A3EF
:10473000ECF0A3EDF022CAC0E0E6F0A308DAFAD06C
:10474000E0FA22CAC0E0E0A3C582CCC582C583CD11
:10475000C583F0A3C582CCC582C583CDC583DAE607
:10476000D0E0CA22C3E498F8E499F91247A580265C
:10477000C3E49AFAE49BFBE920E7E91247A5E49831
:10478000F8E499F922C3E498F8E499F91247A5E40A
:1047900098F8E499F9C3E49AFAE49BFB22EB20E74A
:1047A000CFE920E7E0B90010BB0008E88AF084F800
:1047B000AAF022E4FBC8FA22EB70227B10C833C8AF
:1047C000C933C9335007C39AC3DBF280069A50013C
:1047D0002ADBEAC833F4C8C933F4C9FA2275F008F1
:1047E000E4C833C8C933C933C99AC99B5004C92A1C
:1047F000C93BD5F0ECFBC833F4C8E4C9FA22600D1C
:1048000008C6A2E713C618C613C6D5E0F322600C8B
:1048100008C6C313C618C613C6D5E0F42270042216
:10482000600D18C6C333C608C633C6D5E0F41822D7
:10483000251A10AF08F51A4002151B8008F51A401A
:1048400002151BD2AF22C0D0251A10AF08F51A509E
:1048500002051B8008F51A5002051BD2AFD0D022EA
:10486000251AF58210AF08F51A4002151B8008F5CD
:104870001A4002151BD2AF851B8322251AF582E44C
:10488000351BF58322E473251AC582C0E0E51B348D
:10489000FFC583C0E0E51AC3958224F810AF0885F0
:1048A000831B85821A800885831B85821AD2AFCE2E
:1048B000F0A3E520F0A3780AE608F0A3DEFAEFF013
:1048C000A3E58124FAF8E608F0A3E608F0A3E608D9
:1048D000F0A30808E608F0A3E608F0A31581158107
:1048E000D0E0FED0E0F8158115811581E8C0E0EE3A
:1048F000C0E022251AC582C0E0E51B34FFC583C095
:10490000E0E51AC3958224F910AF0885831B8582E0
:104910001A800885831B85821AD2AFCEF0A3E520CA
:10492000F0A3780AE608F0A3DEFAEFF0A3E581240D
:10493000FBF8E608F0A3E608F0A30808E608F0A3F1
:10494000E608F0A315811581D0E0FED0E0F81581CE
:104950001581E8C0E0EEC0E022851B83851A82E065
:10496000A3FEE0A3F520780AE0A3F608DFFAE0A3AF
:10497000FFE0A3C0E0E0A3C0E0E0A3C0E0E0A3C08C
:10498000E0E0A3C0E010AF0885821A85831B800891
:1049900085821A85831BD2AFD083D0820244A08542
:1049A0001B83851A82E0A3FEE0A3F520780AE0A32A
:1049B000F608DFFAE0A3FFE0A3C0E0E0A3C0E0E078
:1049C000A3C0E0E0A3C0E010AF0885821A85831B76
:1049D000800885821A85831BD2AFD083D08222C003
:1049E000D0251AC582C0E0E51B34FFC583C0E0E5D1
:1049F0001AC3958224F310AF0885831B85821A8021
:104A00000885831B85821AD2AFC8F0A3E9F0A3EA18
:104A1000F0A3EBF0A3790AE709F0A3D8FAECF0A32E
:104A2000EDF0A3EEF0A3EFF0A3D0E0F0A3D0E0F020
:104A3000A3D0E0F0A3E520F0A3E5F0F0A322851BCE
:104A400083851A82E0C0E0A3E0F9A3E0FAA3E0FBCB
:104A5000A3780AE0F608A3DFFAE0FCA3E0FDA3E0F8
:104A6000FEA3E0FFA3E0C0E0A3E0C0E0A3E0F5D038
:104A7000A3E0F520A3E0A3F5F010AF0885831B8524
:104A8000821A800885831B85821AD2AFD082D08398
:104A9000D0E0F8D0E0327404800674028002740121
:104AA000C0E0F404124860D0E0124736227404805B
:104AB0000474028000CCC0E0EDC0E0E51AC39CCCD9
:104AC000AD1B50011D10AF068C1A8D1B80068C1A71
:104AD0008D1BD2AF124743D0E0FDD0E0FC22D08343
:104AE000D082E9C0E0E493A3C386F0C5F095F0F965
:104AF00008E493A386F0C5F095F0700BE493A3C38C
:104B0000994005E9048002A3E475F002A42582F52A
:104B100082E5F03583F583D0E0F9E493A3C0E0E4C7
:104B200093C0E022D083D082ECC0E0EDC0E0E493FB
:104B3000A3FCE493A3FDED4C600D124B70EC24FF3D
:104B4000FCED34FFFD80EFE493A3FCE493A3FDEDC3
:104B50004C600D124BAFEC24FFFCED34FFFD80EFF9
:104B6000D0E0FDD0E0FCE493A3C0E0E493C0E022F9
:104B7000C0E0C3E49396087401939618400FE49341
:104B800066700808740193661870007019A3A3C3B7
:104B9000E49396087401939618A3A3400DD0E0D037
:104BA000E0D0E0024B60A3A3A3A3A3A3D0E022C064
:104BB000E0C0F088F0E4936670080874019366180A
:104BC0007000A8F0A3A3700BD0F0D0E0D0E0D0E04C
:104BD000024B60A3A3D0F0D0E022FFFFC2AF0200DF
:104BE0000022C0E074F21249DFA2AFE433FED2AF7C
:104BF000E589A2E35003125D5F758900C2C5751C8B
:104C000000EEA2E092AF7F01024A3EC0E074F212D1
:104C100049DFA2AFE433FED2AFE58AA2E25003122D
:104C20005D5F758A00C2EB80D5C0E0C0D0E8C0E00F
:104C3000E9C0E0E5A8D2AFC2C7751C00A2E7A2E7B1
:104C400092AFD0E0F9D0E0F8D0D0D0E03274F512D5
:104C500048F3EAFEEBFFEE2434F8EF3400F9880A5B
:104C6000890BEE2435F582EF3400F583E0F8EE246D
:104C700037F582EF3400F583E0F50CEC850CF0A4F9
:104C8000FCAAF0850CF0EDA42AFDE82CF8E43DF92F
:104C90007A257B001247A5EA850A82850B83F0F806
:104CA000740758F97401B900028004C333D9FCFABF
:104CB000E8131313541FF8EE28F8EF3400F9E82432
:104CC0005DF582E93400F583E05A6008EE2434F59E
:104CD00082EF802CEE2434F582EF3400F583E0C0BF
:104CE000E0EE2436F582EF3400F583E0F5F0D0E015
:104CF00084A8F0EE28F8EF3400F9E82438F582E9CA
:104D00003400F583E0F97F0402499F74F51248F3FB
:104D1000EAFEEBFFEE2434F582EF3400F583E0C0C9
:104D2000E0EE2435F582EF3400F583D0E0F08E829A
:104D30008F83A3A3A3A3A3A3A3C082C0838E828FC8
:104D400083A3A3A3A3A3E0F8A3E0F9D083D082E0D8
:104D5000C398F50AA3E099F50BEE247FF582EF34B2
:104D600000F583E064017069EE2480F582EF340081
:104D7000F583E0F8A3E0F98E828F83A3A3A3A3A316
:104D8000A3A3E0FCA3E0FD8E828F83A3A3A3A3A330
:104D9000E0FAA3E0FBC3EA9CEB9D5010C3EC98ED56
:104DA00099402EC3EA98EB995027800EC3EA98EBFE
:104DB000994007C3EC98ED9940177CB97D0BEEFA4A
:104DC000EFFB12668FEE247FF582EF3400F583E46B
:104DD000F0EE2434F8EF3400F9E8FCE9FDEE243578
:104DE000F582EF3400F583E0F8EE2437F582EF34F6
:104DF00000F583E0F50CE50A850CF0A4F50AAAF0AD
:104E0000850CF0E50BA42AF50BE8250AF8E4350B30
:104E1000F97A257B001247A5EA8C828D83F0F8741D
:104E20000758F97401B900028004C333D9FCFAE8C9
:104E3000131313541FF8EE28F8EF3400F9E8245D3B
:104E4000F582E93400F583E05A6008EE2434F582F7
:104E5000EF802CEE2434F582EF3400F583E0C0E0DF
:104E6000EE2436F582EF3400F583E0F5F0D0E084EF
:104E7000A8F0EE28F8EF3400F9E82438F582E93498
:104E800000F583E0F9125A87024D06C082C083857F
:104E90001A82851B83E0F8A3E0F9C3EA9CEB9D50DE
:104EA00010C3EC98ED99401BC3EA98EB995014801D
:104EB0000EC3EA98EB994007C3EC98ED994004794A
:104EC0000180027900D083D08222EAC39CFAEB9D54
:104ED000FB2274EF1248F3900A7FE064086005E05B
:104EE0006407702A9061C8E06024900AADE0F46025
:104EF0001DE0F875F003A4C8AAF02AF974AF28FEE3
:104F0000740A39FF8E828F83A3A3A3E0700302503B
:104F100002906060E0C0E0EE2468F582EF3400F5B6
:104F200083D0E0F0750E22750F0C750A00750B002A
:104F3000E5D914F50CE5D95403F510601774036531
:104F400010605CE50C6010EE2467F582EF3400F52C
:104F500083E07003024FE7900C1DE06401602AEECD
:104F60002482F582EF3400F583E060047804800247
:104F70007800850C0AE50AC398FA95E0FB1265579C
:104F80008A0A8B0BEA450B70051268938074EE2435
:104F900082F582EF3400F583E070048A0E8B0FE512
:104FA0000C6012850E82850F83F50DE5D9F0A315EF
:104FB0000DE50D70F6EE2482F582EF3400F583E006
:104FC000604474FC250CF50C780E124A9AAC0CA9BE
:104FD00010EEFAEFFB12672B7402124846E97026B6
:104FE000AA0AAB0B125E1F793D8E828F83A3A3A307
:104FF000A3E0FA7B0012642BEEFAEFFB1266A71215
:10500000673D79008074740365106056850C1275D5
:1050100013007812124A9AAC0EAD0FAA0AAB0B120B
:1050200067077402124846EE2468F582EF3400F5F3
:1050300083E064807004747F8001E0F50E780E12C6
:105040004A9EE510F50E780E124A9EA90CAC0AADE8
:105050000B900AADE0FA7B001263EF74021248462F
:105060008013900A7FE06408600BAC0EAD0FEEFA7F
:10507000EFFB12679712689F79017F0A02499F74BC
:10508000F51248F374FC124830EAFEEBFF890AA2DD
:10509000AFE433F50BC2AF806AEE2463F8EF34005F
:1050A000F97A007B00A2AFE433F50CC2AF888289A5
:1050B00083E0FCA3E0FDEC4D603A88828983E0FA4E
:1050C000A3E0FB8A828B83E0FCA3E0FD88828983D6
:1050D000ECF0A3EDF08A828B83E4F0A3F088828960
:1050E00083E0FCA3E0FDEC4D700A88828983A3A3D2
:1050F000E4F0A3F0E50CA2E092AF125E1F900BC0AB
:10510000E004F0EE2463F582EF3400F583E0F8A3C9
:10511000E0F9E849603DEE2463F582EF3400F58361
:10512000E02402FAA3E03400FBEA2402F50CEB349D
:1051300000F50D780C124A9A8A828B83E0FCA3E07A
:10514000F9EEFAEFFB1266CB7402124846E97003DF
:10515000025099900BC0E06063900BC1E0F8900B97
:10516000C0E0C398500C7402650A7050900BC2E006
:10517000604A8E828F83A3A3A3A3E0851A82851B36
:1051800083F0A3E4F0900BC0E0F8740212487BE8CF
:10519000F0A3E4F0900BC0E0F8900BBFE028F074AF
:1051A0000212487BAC82AD83851A82851B83AA825A
:1051B000AB8379011263FB900BC0E4F0E50BA2E036
:1051C00092AF7404124846024D06FFFF8521878581
:1051D00022C622C0E0C0D0E8C0E0E9C0E0EAC0E0FA
:1051E000EBC0E0ECC0E0EDC0E0EEC0E0C00AC00BF8
:1051F000C00CC00DC082C083C0F0A2AFE433FEC2B9
:10520000AF759B00906182E0A2E05012E591A2E0B0
:10521000500C7591FE740165217003124ED2E0A20C
:10522000E55051E591A2E5504B7591DF900A7FE082
:1052300064076005E06408702374016521703579A6
:1052400001900AADE0FA75F003A4CAA8F028FB7437
:10525000AF2AFA740A3BFB12507F8018E0640D708D
:1052600013900AA1E004F064287002E4F07A00E0F0
:10527000F91268A5906182E0A2E6400302531AE5A4
:1052800091A2E6400302531A7591BF900A7FE06431
:105290000570081267CD1267D980031267D3752194
:1052A00000126833E9900A80F079001268271266CC
:1052B000057A017B00900A7EE0F9125AEF9078039C
:1052C000E064427055900C21E014F0704DC2AF12B2
:1052D00052D200782AD0E0F618D0E0F6E59F5407C5
:1052E0007005750BFF8003750B7FC4C0E07829E65D
:1052F000F50A08E6550BF50B740B780A12480ED028
:10530000E0250AF8906270E0A2E740F8E8C3339025
:105310006272F0906270E0D2E0F0906181E0A2E30E
:105320005009E5E9A2E3500375E9F7A3E0A2E750CD
:1053300009E591A2E7500375917FEEA2E092AFD00C
:10534000F0D083D082D00DD00CD00BD00AD0E0FEAC
:10535000D0E0FDD0E0FCD0E0FBD0E0FAD0E0F9D026
:10536000E0F8D0D0D0E032C0E0C0D0C082C083909E
:105370006183E0A2E05009E5BFA2E0500375BFFEE3
:10538000E0A2E15009E5BFA2E1500375BFFDE0A234
:10539000E25009E5BFA2E2500375BFFBE0A2E35073
:1053A00009E5BFA2E3500375BFF7E0A2E45009E5A9
:1053B000BFA2E4500375BFEFE0A2E55009E5BFA22C
:1053C000E5500375BFDFE0A2E65009E5BFA2E65055
:1053D0000375BFBFD083D0828088C0E0C0D0E8C052
:1053E000E0E9C0E0EAC0E0EBC0E0ECC0E0EDC0E026
:1053F000C0F0E5A7A2E6500FE5A1A2E6500953A729
:10540000BF75A1BF12543FE5A7A2E5500CE5A1A2CC
:10541000E5500653A7DF75A1DFE5A7A2E15009E536
:10542000A1A2E1500375A1FDE5A7A2E2500CE5A100
:10543000A2E2500653A7FB75A1FBD0F002535074B3
:10544000F81248F3752101900A7FE0640670151286
:10545000675B8A828B83A3A3A3A3A3A3E0FAA3E041
:10546000FB1267BBA2AFE433FED2AF900A85E064C3
:105470000170187A207B00900A7EE0F9125B977A1F
:10548000207B00900A7EE0F9125AF5906182E0D20A
:10549000E6F0900C1EE0602185C6228016900A84FA
:1054A000E064017008E5C654F84405F5C653BEFC37
:1054B0001251CC7401652160E4EEA2E092AF7F014D
:1054C00002499FFF8E238F24858228858327851A92
:1054D00082851B83E0CEA3E0CF852882852783EBDE
:1054E000C9EAC8EDCBECCA75F010C3E833C8E9339C
:1054F000C9EA33CAEB33CBC3EA9EF526EB9FF52509
:10550000B35004AB25AA26EC33CCED33CDD5F0DA7D
:10551000AE23AF242274E91248F374F812483085A0
:105520001A82851B83ECF0A3EDF08A0A8B0B900A9C
:105530007FE024F7C394055006750A010256AC12A9
:10554000675B8A0C8B0DAE0CAF0DEE4F70030256ED
:10555000A9AC0AAD0B740212487BAA82AB83126716
:10556000EB8E828F83A3A3750EFF750FFF7510FF5F
:10557000751100780E1246DA740212487B7512FF1C
:105580007513FF7514FF75150078121246DA780E40
:1055900079121244CD502A780E7912124687750A74
:1055A00001750BC8750C00750D00780A790E124450
:1055B000CD5052850E0A850F0B85100C85110D807C
:1055C000507516017517C875180075190085120AEF
:1055D00085130B85140C85150D780A790E124687F4
:1055E0007816790A1244CD401C750A00750B0075B7
:1055F0000C00750D01780A7912124687780A790E27
:1056000012464E800C750A01750B00750C00750D65
:10561000007409780A12462F750E19F50FF510F56A
:1056200011780A790E12458C8E828F83A3A3A3A3CF
:10563000A3A3E0F8A3E0F97AD07B031247A5880E74
:10564000890FE4F510F511780A790E12464E7406AA
:1056500012487BE0F8A3E0F97AD07B031247A5E873
:10566000FA8A0EE4F50F780A790E1244CD500778C5
:105670000A790E124687900A7FE06408600AE064A7
:10568000066005E06405702D750E0D780E790A121E
:1056900044CD4021750EF4750FFF7510FF7511FF95
:1056A000780A790E12464E800C750A00750B00754B
:1056B0000C00750D00851A82851B83E0F8A3E0F5C8
:1056C000838882780A12470F74081248467F1002B6
:1056D000499F74F71248F31267FD900C1CE06401B7
:1056E0007010906245E4F0A3F053F4F343FE0C53C2
:1056F00090F31267A9E5C654804449F5C6E59E5467
:105700007F644970F8906185740FF0900C1AE0F492
:105710007002A3E0604E900C1BE0600814601B1444
:10572000602E8040750A01750B00900C1AE0780A13
:1057300012481DE50AF45280802A750A01750B0093
:10574000900C1AE0780A12481DE50AF45290801471
:10575000750A01750B00900C1AE0780A12481DE5D5
:105760000AF452A079007F0202499F74F71248F3AD
:10577000E9FEEAFF74016E700C7A807B00900A7E6D
:10578000E0F9125AEF906AB0E493F46008E493F9F8
:105790001265F9800953C680E59E547F70FA12673E
:1057A000AF900C1CE064017003126611900C1AE0BB
:1057B000F47002A3E0604B900C1BE0600814601AC8
:1057C00014602C803D750A01750B00900C1AE0786E
:1057D0000A12481DE50A42808028750A01750B00EF
:1057E000900C1AE0780A12481DE50A429080137561
:1057F0000A01750B00900C1AE0780A12481DE50AA0
:1058000042A01267FD12675B8A0A8B0BA80AA90BDC
:10581000E8496015E5E170FCE82414F582E93400FC
:10582000F583E0F46003E0F5E174016F700A7A013A
:10583000900A7EE0F9125B6102576674ED1248F33C
:105840008A0A8B0B8C0C8D0D741312487B780E1208
:105850004700780A790E1244CD7512017513C87588
:1058600014007515005012780A790E1246877812C6
:10587000790A1244CD50168010780E790A124687A4
:105880007812790E1244CD40047901800279007FAC
:105890000C02499F74ED1248F38A0A8B0B8C0C8D15
:1058A0000D741312487B780E124700780E790A1295
:1058B00044CD4011780A790E124687AA0AAB0BAC88
:1058C0000CAD0D802275120075130075140075154E
:1058D000017812790E1246877812790A12464EAA7A
:1058E00012AB13AC14AD1580A68A828B83750AFFA8
:1058F000750BFF750CFF750D00780A1246ED7F04DD
:1059000002499F74F51248F38C828D83780A1247FE
:10591000008A828B83780A1246B3EA2404F8EB34B7
:1059200000F98C828D83A3A3A3A3E0FCA3E0FD88F0
:10593000828983C3E09CF0A3E09DF088828983C3C1
:10594000E09420A3E0944E40268A828B83750AFF60
:10595000750BFF750CFF750DFF780A1246748A826D
:105960008B83A3A3A3A3E02420F0A3E0344EF00292
:1059700058E974F51248F3E9FE900BD4E0FAA3E07D
:10598000FBEEC333F8E433F974B228F5827480393E
:10599000F583E02AF50AA3E03BF50B780A124A9A50
:1059A0007A407B427C0F7D001254C4740212484638
:1059B0008A0A8B0B8C0C8D0D7410780A124616AA6D
:1059C0000AAB0B7F0402499F74F11248F38A0E8BD5
:1059D0000F8C108D11740F12487BE0FAA3E0FB745A
:1059E0001112487BE0F50AA3E0F50B780A124A9AF7
:1059F000EA2401F50AEB3400F50BE4F50CF50D781B
:105A00000E790A12450C750A71750B02780E790A27
:105A100012450CAA0EAB0FAC10AD111254C4740297
:105A20001248468B0BEA450B60047A0180027A002B
:105A3000EC2AFCED3400FD741312487BE0F8A3E07F
:105A4000F9E8FEE9FFECF8EDF97A717B021247A55F
:105A5000880A890B8E828F83780A12470FECF8ED43
:105A6000F97A717B021247A58A0A8B0B7405780AB2
:105A700012481D8E828F83A3A3A3A3E50AF0A3E59A
:105A80000BF07F0802499FC082C083E9906000F05C
:105A9000D083D082221244A35EBD031244A368BD0A
:105AA000031244A3A6BD031244A3EFBD031244A3F3
:105AB00029BE031244A383BE031244A3A4BE03124F
:105AC00044A3ADBE031244A3FABE031244A323BFF2
:105AD000031244A32DBF031244A399BF031244A38E
:105AE0002BC0031244A375C0031244A3ABC003121E
:105AF00044A337C1031244A378C1031244A3AFC126
:105B0000031244A3C1C1031244A3E0C1031244A37E
:105B1000E9C1031244A3B6C2031244A3CBD60312B5
:105B200044A3C2D7031244A3DCD7031244A3EDD786
:105B3000031244A30CDA031244A32BDA031244A386
:105B40000982041244A33F82041244A37582041202
:105B500044A3C083041244A3F88F041244A30E90FC
:105B6000041244A31890041244A36290041244A3A4
:105B70001491041244A372DB031244A387DB0312C3
:105B800044A337DC031244A377DC031244A390DC64
:105B9000031244A3CBDC031244A318DD031244A375
:105BA0004ADD031244A38CDD031244A38DDF0312EC
:105BB00044A320FF011244A349FF011244A378FF2C
:105BC000011244A390FF011244A3D2FF011244A387
:105BD00020F0031244A350F0031244A363F0031215
:105BE00044A392F0031244A3AFF0031244A344F180
:105BF000031244A3DDF1031244A363F2031244A38E
:105C0000CCFF031244A3CB91041244A377D5011215
:105C100044A3DCD7011244A37DD9011244A331DA95
:105C2000011244A3C4DA011244A349DB011244A3C4
:105C30006EDB011244A3C4DE011244A34ADF011249
:105C400044A37DE0011244A3B7E0011244A3ECE0B9
:105C5000011244A3ACE2011244A309E3011244A3DC
:105C600052E3011244A3BDE3011244A32EE4011246
:105C700044A360E4011244A378E4011244A3C1E503
:105C8000011244A3D1E5011244A3ECE6011244A39E
:105C90000EE7011244A344E7011244A3F8E80112FD
:105CA00044A385E9011244A3C4E9011244A3E8EA2C
:105CB000011244A3A88C041244A3B88C041244A378
:105CC0004A8D041244A3718D041244A3918D0412D1
:105CD00044A32192041244A36092041244A3889224
:105CE000041244A39392041244A3B592041244A351
:105CF0009C8D041244A3AC8D041244A3BE8D0412E7
:105D000044A3708E041244A3F3FE021244A378FF4E
:105D1000021244A3DEFF021244A389FD031244A32E
:105D2000B1FD031244A3E1FD031244A340FE03129C
:105D300044A38EFE031244A3C8FE031244A3FCFE38
:105D4000031244A358FF031244A3568A041244A327
:105D5000808A041244A3E38A041244A3F58A04123D
:105D600044A3458B041244A3838B041244A3868B63
:105D7000041244A39F92041244A3AF92041244A3BA
:105D8000B292041244A3F87F001244A3FFF8031256
:105D900044A39AFA031244A3FBFA031244A341FB5F
:105DA000031244A3E4C2031244A31EC3031244A378
:105DB0003BC3031244A337C4031244A3D4C4031245
:105DC00044A3C1C5031244A307C7031244A32CC7AD
:105DD000031244A395C7031244A3F0C7031244A3BC
:105DE00055B6031244A392B6031244A3ADB60312F0
:105DF00044A37EB7031244A36CB8031244A319BA98
:105E0000031244A38BBA031244A373BB031244A32B
:105E1000FABB031244A31ABD031244A35987041208
:105E200044A3AB87041244A33588041244A39C887E
:105E3000041244A344FB031244A36EFB031244A3C5
:105E40003CFC031244A317FD031244A3769F0312E4
:105E500044A33DA0031244A374A0031244A39EA034
:105E6000031244A3FEA0031244A354A1031244A3AB
:105E7000B9A1031244A351A2031244A360A30312C5
:105E800044A3F7A4031244A384A5031244A3EBA5DF
:105E9000031244A302A6031244A31CA7031244A3A3
:105EA0005AA7031244A3DDCA021244A35ECE021213
:105EB00044A3E6CF021244A33DD0021244A35CD017
:105EC000021244A3DAD0021244A370D2021244A3F5
:105ED00055D3021244A363D7021244A339D8021245
:105EE00044A30080011244A35F84011244A37D8B6C
:105EF000011244A3108D011244A3408E011244A349
:105F0000808E011244A3488F011244A3888F01128E
:105F100044A36490011244A3AF90011244A3FF90E4
:105F2000011244A33D92011244A3909D011244A387
:105F3000F19F011244A373A1011244A3EFA1011226
:105F400044A307A2011244A331A2011244A362A2F6
:105F5000011244A39DA2011244A3D7A2011244A39B
:105F6000EFA3011244A3FA83041244A31184041280
:105F700044A34284041244A37D84041244A3A7844E
:105F8000041244A3D184041244A3E884041244A359
:105F9000FF84041244A31685041244A33F8504120F
:105FA00044A35285041244A36885041244A37B854C
:105FB000041244A3A285041244A3D38C031244A365
:105FC000D78D031244A30F8E031244A3328E031203
:105FD00044A33D8E031244A3608E031244A36F8F2B
:105FE000031244A34490031244A3BF90031244A39A
:105FF0004791031244A38291031244A3B99103125F
:1060000044A34792031244A32093031244A3809312
:10601000031244A38B93031244A30A94031244A3D0
:106020000D94031244A31094031244A39F940312EB
:1060300044A3A294031244A3D294031244A3FC9455
:10604000031244A3EA95031244A39C96031244A3AB
:1060500065CD031244A38DCD031244A3BBCD03121F
:1060600044A3F2CD031244A350CE031244A39BCE0B
:10607000031244A3E6CE031244A326CF031244A383
:106080006CCF031244A39ACF031244A357D0031238
:1060900044A361D0031244A36ED0031244A3A1D041
:1060A000031244A36DD1031244A379D1031244A374
:1060B00091D1031244A39BD1031244A3768E041200
:1060C00044A3848E041244A39C8E041244A3B48E71
:1060D000041244A3519F021244A3FD9F021244A341
:1060E00078A0021244A399A1021244A3D5A10212DE
:1060F00044A37EA2021244A365A3021244A3C9A42E
:10610000021244A320A5021244A3A1A5021244A393
:1061100091A6021244A3DEA6021244A364A70212AF
:1061200044A396A7021244A3AAA9021244A3ECA96D
:10613000021244A30AAA021244A38DAA021244A383
:1061400061AB021244A329AC021244A332AF031282
:1061500044A305B0031244A3AEB0031244A301B19B
:10616000031244A3B1B1031244A33DB2031244A3EA
:1061700029B3031244A358B3031244A36BB403120C
:1061800044A3B3B4031244A388B5031244A3C4B513
:10619000031244A3E0B5031244A39090041244A355
:1061A00087EC031244A39DEC031244A3C3EC031237
:1061B00044A3DFED031244A3E9ED031244A31EEF51
:1061C000031244A316F0031244A33EC8031244A3CF
:1061D0006EC9031244A3A1C9031244A3EBC903125D
:1061E00044A3B2CB031244A30080021244A36A80EA
:1061F000021244A3C981021244A3D981021244A30A
:106200000682021244A35D82021244A30683021294
:1062100044A30D84021244A3D784021244A33786F8
:10622000021244A37A86021244A31F87021244A3D7
:106230006C87021244A39287021244A3A08902121F
:1062400044A3A589021244A3AA8B021244A3F78B8C
:10625000021244A36A8C021244A39D8C021244A32E
:106260003F8D021244A3E88D021244A3208E021235
:1062700044A3238E021244A36B8E021244A3AB8E5E
:10628000021244A3028F021244A32CF6031244A369
:1062900044F6031244A38CF6031244A3A2F603129D
:1062A00044A3E9F6031244A3FDF7031244A38AF8BA
:1062B000031244A3D5F8031244A36EA4011244A30D
:1062C0007AA4011244A3B5A4011244A3FAA40112B2
:1062D00044A3BAA5011244A340A6011244A3A5A653
:1062E000011244A3D1A6011244A30AA7011244A398
:1062F00048A9011244A32CAB011244A312AD011210
:1063000044A355AE011244A3A3B0011244A3B5B1F6
:10631000011244A300B3011244A310B4011244A318
:106320002DB4011244A368B4011244A38AB401122B
:1063300044A3EDB4011244A3AEB9011244A343BA7D
:10634000011244A394BA011244A3BBBA011244A39C
:106350000DBB011244A32BBB011244A385BB011248
:1063600044A384BC011244A308BD011244A322D259
:10637000031244A32CD2031244A36FD2031244A3EA
:106380008AD2031244A31AD3031244A342D30312A2
:1063900044A37FD3031244A3B6D3031244A3DFD391
:1063A000031244A354D4031244A369D4031244A394
:1063B0007ED4031244A3AFD4031244A3C3D4031264
:1063C00044A3E8D4031244A322D5031244A34ED518
:1063D000031244A386D5031244A305D6031244A393
:1063E0004ED6031244A378D6031244A3A3D60312B5
:1063F00044A38F8B041244A30080031244A32E8075
:10640000031244A37C81031244A35C82031244A3BD
:106410007B82031244A3F882031244A33B8303123A
:1064200044A39184031244A35285031244A3D98741
:10643000031244A37A88031244A37089031244A36D
:106440006D8A031244A3C78B031244A3528C031218
:1064500044A3FB88041244A36489041244A3B889AA
:10646000041244A3DF89041244A3108A041244A333
:10647000FFDF031244A36CE0031244A3B3E0031252
:1064800044A3CBE1031244A3C7E2031244A3AAE34B
:10649000031244A30D97031244A34F97031244A37E
:1064A0002198031244A3FA98031244A3F499031207
:1064B00044A3D69A031244A33F9B031244A3F59B23
:1064C000031244A3699C031244A3D59C031244A362
:1064D000FE9C031244A3789D031244A3119E031251
:1064E00044A3769E031244A38B9E031244A3D19E21
:1064F000031244A3EA9E031244A34F9F031244A332
:10650000529F031244A333F3031244A35BF3031219
:1065100044A399F3031244A357F4031244A3BEF413
:10652000031244A3DAF4031244A302F5031244A3B2
:1065300032F5031244A341F5031244A3BEF503123E
:1065400044A3E4F5031244A3EF8F021244A3CD91B8
:10655000021244A3FF93021244A33B94021244A3E9
:106560006894021244A35295021244A39D9502120C
:1065700044A3E895021244A3FA95021244A33A9662
:10658000021244A36F96021244A3BD96021244A3C2
:10659000EC96021244A30F97021244A35C970212D6
:1065A00044A3E197021244A3FB99021244A33A9C2C
:1065B000021244A37B9C021244A31D9E021244A318
:1065C0005E9E021244A3D19E021244A3279F021290
:1065D00044A3B0E6021244A3AEE7021244A347EE7E
:1065E000021244A368F0021244A333F2021244A33D
:1065F0009BF3021244A36FBD011244A31EBE0112FD
:1066000044A34BBE011244A391BE011244A3D1BFC7
:10661000011244A367C1011244A3E1C1011244A3C2
:10662000FCC1011244A377C2011244A3D1C30112D9
:1066300044A331C5011244A337C6011244A398C72D
:10664000011244A3B1C7011244A30FC8011244A30D
:10665000FDC8011244A330C9011244A3A0C901120C
:1066600044A31ACA011244A364CA011244A32ECB44
:10667000011244A303CC011244A3E2CC011244A3AF
:106680006DCD011244A3DBCD011244A34FCE011204
:1066900044A37ACE011244A339CF011244A39ED061
:1066A000011244A3BBD0011244A3DAD0011244A3C7
:1066B000CBD1011244A3F0D1011244A31AD201128A
:1066C00044A395D2011244A3EFD2011244A358D49B
:1066D000011244A306D5011244A347D5011244A3D5
:1066E000DCD8021244A32AD9021244A336D90212DA
:1066F00044A314DA021244A345DA021244A376DA60
:10670000021244A3F6DA021244A32EDB021244A3BF
:1067100080DB021244A3BDDB021244A3DADD0212C5
:1067200044A300E0021244A3EBE1021244A3D5E328
:10673000021244A3EF7F001244A30DEB011244A305
:106740003DEB011244A316F2011244A39BF3011284
:1067500044A398F9011244A380FA011244A3BDFA9C
:10676000011244A3E0FA011244A311FB011244A355
:106770001AFB011244A324FB011244A312FC0112D0
:1067800044A308FD011244A3B46A001244A3B36EEB
:10679000001244A3B96E001244A3F475001244A37E
:1067A0000D7B001244A3B9E8031244A34FE903127E
:1067B00044A365E9031244A3DBE9031244A34FEAAF
:1067C000031244A38DEA031244A301EB031244A372
:1067D0007AEB031244A383EB031244A38FEB03125F
:1067E00044A3A4EB031244A3E2EB031244A3F8EB8B
:1067F000031244A357EC031244A36CE4031244A312
:1068000079E4031244A393E4031244A3D2E40312F1
:1068100044A310E5031244A375E5031244A38AE5DB
:10682000031244A395E5031244A3A2E5031244A373
:10683000B9E5031244A3C7E5031244A3D2E503124A
:1068400044A3DEE5031244A3EDE5031244A3F8E5F7
:10685000031244A31BE6031244A3C2E6031244A39B
:10686000D2E6031244A3ECE6031244A309E70312A1
:1068700044A325E7031244A34AE7031244A355E7C0
:10688000031244A36AE7031244A37EE7031244A35E
:10689000DFE7031244A3E5E7031244A3EBE7031287
:1068A00044A3F1E7031244A309E8031244A33CE81C
:1068B000031244A3B3BC021244A337BD021244A383
:1068C000E6BD021244A345BF021244A366C10212F0
:1068D00044A352C2021244A387C2021244A3A9C213
:1068E000021244A358C3021244A350C5021244A387
:1068F00079C5021244A30BC6021244A33DC602127C
:1069000044A34AC6021244A3A1C6021244A3C7C6A6
:10691000021244A334C9021244A337CA021244A388
:106920008FCA021244A342AE021244A34CAF021219
:1069300044A333B0021244A33DB0021244A35FB09B
:10694000021244A36BB0021244A304B2021244A385
:1069500033B2021244A34FB3021244A3A8B30212EB
:1069600044A30EB5021244A3EDB5021244A349B6E6
:10697000021244A3B6B6021244A3F1B6021244A313
:1069800030B7021244A3E9B9021244A303BA0212B7
:1069900044A38FBA021244A39DBA021244A3F6BACA
:1069A000021244A304BB021244A377BB021244A305
:1069B000DBBB021244A325BC021244A3C5F302129E
:1069C00044A3E7F3021244A30DF6021244A322F9F2
:1069D000021244A33AFA021244A3EDFA021244A3AB
:1069E000CFFB021244A3B485041244A3D985041238
:1069F00044A34B86041244A3B8A7031244A3C1A71F
:106A0000031244A3CAA7031244A3A1A8031244A3D8
:106A100052AA031244A388AA031244A3C2AA0312CF
:106A200044A3F8AA031244A332AB031244A366ABF7
:106A3000031244A392AB031244A3DBAB031244A39F
:106A400015AC031244A35EAC031244A3B6AC03120C
:106A500044A3EBAC031244A346AD031244A380ADA0
:106A6000031244A3D1AD031244A307AE031244A3FF
:106A700041AE031244A36FAE031244A392AE0312BD
:106A800044A34D8F041244A3798F041244A3D48FDE
:106A9000041244A3DE8F041244A3EE8F041244A315
:106AA000C37F001244A36A9204FFFFFFFFFFFFFFB2
:106AB000FFFFFFFF74F4124887907803E064427090
:106AC00055900C21E014F0704DC2AF126ACE0078E0
:106AD0002AD0E0F618D0E0F6E59F54077005750B54
:106AE000FF8003750B7FC4C0E07829E6F50A08E64D
:106AF000550BF50B740B780A12480ED0E0250AF8F6
:106B0000906270E0A2E740F8E8C333906272F090C0
:106B10006270E0D2E0F0900AADE0F47003026EAE75
:106B2000E0F875F003A4C8AAF02AF974AF28FE743F
:106B30000A39FFEE2401F582EF3401F583E0F8A372
:106B4000E0F9E849601EEE2401F582EF3401F58397
:106B5000E0FAA3E0FBEE2400F582EF3401F583E0D8
:106B6000F9125AEF8E828F83A3A3A3A3A3A3A3E05A
:106B7000F8A3E0F98E828F83A3A3A3A3A3E8F0A3D5
:106B8000E9F0906054E0900A86F0906055E0900A39
:106B900087F0906056E0900A88F0906057E0900A85
:106BA00089F0906058E0900A8AF0906059E0900A6D
:106BB0008BF090605AE0900A8CF090605BE0900A55
:106BC0008DF090605CE0FC900A8EF090605DE0FBE0
:106BD000900A8FF090605EE0FD900A90F090605F08
:106BE000E0FA900A91F0900A8CE08C0A250AF8E409
:106BF0003400F98D0AE8250AF8E93400F98B0AE82F
:106C0000250AF8E93400F98A0AE8250AFAE9340085
:106C1000FBEE24F6F582EF3400F583E02AF0A3E0E2
:106C20003BF08C0AEE24F8F582EF3400F583E02582
:106C30000AF0A3E03400F0EE24FAF582EF3400F518
:106C400083E02401F0A3E03400F0EE24FEF582EFAF
:106C50003400F583E0F8A3E0F9E849604290600071
:106C6000E0C333FCE433FDE82CF582E93DF583E035
:106C70002AF0A3E03BF0906000E0FA900A8EE0FC7E
:106C8000EAC333FAE433FBE82AF8E93BF9E8244A9B
:106C9000F582E93400F583E02CF0A3E03400F090B5
:106CA0000A8CE07011900A8FE0700BA3E07007A3CC
:106CB000E07003026DAB8E828F83A3A3A3A3A3E036
:106CC000F8A3E0F9EE240DF582EF3400F583E02817
:106CD000F8A3E039F9EE240BF582EF3400F583E8F0
:106CE000F0A3E9F0EE240FF582EF3400F583E4F031
:106CF000EE241CF582EF3400F583E06401701EEE93
:106D00002420F582EF3400F583E0F8A3E0F9EE24C7
:106D10001DF582EF3400F583E8F0A3E9F0900A87CF
:106D2000E06052EE241CF582EF3400F5837401F02C
:106D3000EE2469F582EF3400F583E07038EE2473B9
:106D4000F582EF3400F583E0702BEE247FF582EFBF
:106D50003400F583E0701EEE2420F582EF3400F558
:106D600083E0F8A3E0F9EE241DF582EF3400F5830B
:106D7000E8F0A3E9F0906062E07003026E5E8E823C
:106D80008F83E0F8A3E0F9E82406FCE93400FDE88D
:106D90002402FAE93400FB1267DF8E828F83E0F869
:106DA000A3E0C82412F582E8026E64900A8EE060C7
:106DB0003AEE240FF582EF3400F583E4F0EE241C64
:106DC000F582EF3400F583E064017040EE2420F595
:106DD00082EF3400F583E0F8A3E0F9EE241DF5829C
:106DE000EF3400F583E8F0A3E98020EE24FCF5827F
:106DF000EF3400F583E02401F0A3E03400F0EE244A
:106E00001DF582EF3400F583E4F0A3F0EE240BF5DA
:106E100082EF3400F583E0F8A3E0F98E828F83A33C
:106E2000A3A3A3A3E0687003A3E0696003026D1D40
:106E3000EE240FF582EF3400F583E060128E828F2E
:106E400083A3A3A3A3A3E064057002A3E060047975
:106E5000088002793EEEFAEFFB1266AD8050EE2418
:106E60001DF582EF3400F583E4F0A3F09061C8E0F3
:106E70006006124ED2E970F48E828F83A3A3A3E042
:106E8000602C9061C8E070069060607480F0EEFA4B
:106E9000EFFB12679DE9640160147902EEFAEFFBE3
:106EA00012507F126791E96401600312673D7F040D
:106EB00002495953BFEF0244A074EC124887900A6C
:106EC000ADE0F875F003A4C8AAF02AF974AF28FE63
:106ED000740A39FF9061D0E07013EE2463F582EFFD
:106EE0003400F583E0F8A3E0F9E849600FEE241DD3
:106EF000F582EF3400F583E4F0A38053EE2469F5C6
:106F000082EF3400F583E07047EE2473F582EF34AE
:106F100000F583E0703AEE247FF582EF3400F583CC
:106F2000E0702DEE241CF582EF3400F583E064015F
:106F3000701EEE2420F582EF3400F583E0F8A3E024
:106F4000F9EE241DF582EF3400F583E8F0A3E9F0B3
:106F50008E828F83A3A3A3A3A3E0F8A3E0F9EE247A
:106F60001DF582EF3400F583E028F8A3E039F9E855
:106F7000240108E93400F9EE2407F50CEF3400F59C
:106F80000D850C82F583E8F0A3E9F0EE240BF58281
:106F9000EF3400F583C3E098A3E09950358E828FDB
:106FA00083A3A3A3A3A3A3A3C082C083EE240BF552
:106FB00082EF3400F583E0F8A3E0F9D083D082E0DB
:106FC000C398F8A3E099F9C3E894AAE9941050355E
:106FD000803BEE240BF582EF3400F583C082C08342
:106FE0008E828F83A3A3A3A3A3A3A3E0F8A3E0F9B6
:106FF000D083D082E0C398F8A3E099F9C3E894ABBA
:10700000E994105008900BC4E064017030EE241D28
:10701000F582EF3400F583E4F0A3F08E828F83A332
:10702000A3A3A3A3E02401F8A3E03400F98E828F88
:1070300083A3A3A3A3A3A3A3E8F0A3E9F0EE24737F
:10704000F582EF3400F583E0640160030272B4EE70
:107050002474F582EF3400F583124AB18E828F8357
:10706000A3A3A3A3A3A3A3E0FCA3E0FD8E828F832D
:10707000A3A3A3A3A3E0FAA3E0FB124E8B74021216
:107080004846E970030272B4EE2474F8EF3400F954
:10709000880A890B8882F583E0F8A3E0F9850C82E1
:1070A000850D83E8F0A3E9F0EE2476FCEF3400FDD3
:1070B000EEFAEFFB1266B9EE247BF582EF3400F5B1
:1070C00083E0F8A3E0F9EE2420F582EF3400F583A5
:1070D000E8F0A3E9F0EE241CF582EF3400F583E438
:1070E000F0EE241DF582EF3400F583E4F0A3F0EE1A
:1070F000240FF582EF3400F5837401F0850C82854E
:107100000D83E0F8A3E0F9EE240DF582EF3400F5ED
:1071100083E028F8A3E039F9EE240BF582EF340080
:10712000F583E8F0A3E9F08E828F83A3A3A3A3A342
:10713000E0FCA3E0FD850A82850B83E0FAA3E0FB77
:10714000124ECA8A0A8B0BEE242EF582EF3400F51C
:1071500083E0FAA3E0FBE4F50CF50D8A0E8B0FF546
:1071600010F511780A790E12450CEE2477F582EFAE
:107170003400F583E0F50EA3E0F50F780A790E12DE
:10718000464EEE2479F582EF3400F583E06A700311
:10719000A3E06B7044EE247DF582EF3400F583E0CC
:1071A000F8A3E0F9EE2432F582EF3400F583E068CD
:1071B0007003A3E0697022EE247BF582EF3400F5C2
:1071C00083E0F8A3E0F9EE2430F582EF3400F58394
:1071D000E0687003A3E0696052EE247DF582EF342D
:1071E00000F583E0F50EA3E0F50F7404780E124865
:1071F0000E780E124A9AEE247BF582EF3400F58366
:10720000124AB1EE2479F582EF3400F583E0FCA355
:10721000E0C313FDEC13FC8E828F83A3A3A3A3E032
:10722000FA7B001264317404124846EE2476F5822B
:10723000EF3400F583E0C0E0EE242BF582EF34005C
:10724000F583D0E0F0EE2479F582EF3400F583E0A9
:10725000F8A3E0F9EE242EF582EF3400F583E8F090
:10726000A3E9F0EE247BF582EF3400F583E0F8A388
:10727000E0F9EE2430F582EF3400F583E8F0A3E97D
:10728000F0EE247DF582EF3400F583E0F8A3E0F919
:10729000EE2432F582EF3400F583E8F0A3E9F0EE56
:1072A000FAEFFB1266BFEE2473F582EF3400F5832C
:1072B000E4F08016EE242EF582EF3400F583E0F53D
:1072C0000AA3E0F50BE4F50CF50DEE2418F582EFBA
:1072D0003400F583780A1244B8701EEE241FF5823C
:1072E000EF3400F583E0F8EE241DF582EF3400F56D
:1072F00083E0687002A3E06039EE2412F50EEF34EB
:1073000000F50F780E124A9AEE2410F582EF340041
:10731000F583124AB1EE241DF582EF3400F5831295
:107320004AB1AA0AAB0BAC0CAD0D1259C8740612C7
:107330004846EE2418F582EF3400F583780A1247A8
:107340000FEE241DF582EF3400F583E0C0E0EE245B
:107350001FF582EF3400F583D0E0F0EE2412FCEF4D
:107360003400FD8E828F83E02402FAA3E03400FB18
:10737000125903906062E060147C0C7D818E828FD4
:1073800083E02402FAA3E03400FB1259038E828FBB
:1073900083E0F8A3E0F988828983A3A3E82408FCAA
:1073A000E93400FD74061247438E828F83E0240285
:1073B000F8A3E03400F9E8FAE9FBEE241DF582EFCA
:1073C0003400F583E0F512A3E0F513E4F514F515A8
:1073D000750E01F50FF510F5117812790E12464E63
:1073E0007812790A12450C8A828B837812124674BD
:1073F0008A828B83750EFF750FFF7510FF780E1252
:1074000046ED900BBEE06401600302754179011204
:1074100068278E828F83E0FAA3E0FB750AFF750B65
:10742000FF750CFF750DFFEA240EF582EB3400F5B5
:1074300083780A12470FEA2412F8EB3400F9E8FACD
:10744000E9FBEE2412F582EF3400F583780A124747
:1074500000E50A75F0E2A4C50AA8F075F004A428B6
:10746000F875F0E2E50BA428F50B8A828B83E02502
:107470000AF0A3E0350BF0EE2416F582EF3400F5A8
:1074800083E0F50AA3E0F50B7404780A12480EE5D0
:107490000A2401F8E50B3400F98A828B83E028F096
:1074A000A3E039F0906062E08E828F8370030275F2
:1074B000B5E0F8A3E0C82412F582E83400F583E0D3
:1074C0002410F0A3E03401F0EE240FF582EF340035
:1074D000F583E06032EE242BF582EF3400F583E093
:1074E000F875F071A4C8AAF075F002A42AF98E828A
:1074F0008F83E0FAA3E0CA2412F582EA3400F58310
:10750000E028F0A3E039F08E828F83E0F8A3E0C892
:107510002414F582E83400F5837410F08E828F8392
:10752000E0F8A3E0C82416F582E83400F58374413E
:10753000F0A37466F0EEFAEFFB124D0B7900027BBC
:1075400008750E50750F00751000780E790A1244F8
:10755000CD4003027412EE241DF582EF3400F58352
:10756000E0F8A3E0F9E8496003027412780A124ACD
:1075700096EEFAEFFB1266C57404124846E9640100
:107580006003027412EE240FF582EF3400F583E0FD
:1075900060128E828F83A3A3A3A3A3E0640570026D
:1075A000A3E0600479088002793EEEFAEFFB1266F0
:1075B000AD79018089E0F8A3E0C82412F582E834AF
:1075C00000F583E02410F8A3E034FFF97A717B0220
:1075D0001247A5880A890BEE242EF582EF3400F5B8
:1075E00083E0F8A3E0F9C3E50A98E50B995003029C
:1075F00074C880B074EC124887EAFEEBFF8C828D71
:1076000083E0F8A385820A85830B603B1470030234
:1076100077DC147003027AD114700302785824FDC9
:107620007003027971147003027B081470030279ED
:10763000C824FE70030279761470030279B81470BE
:1076400003027A54027AF7EE2476F512EF3400F54D
:1076500013E0851282851383F0850A82850B83A34C
:1076600085820A85830BEE2477F510EF3400F5113F
:107670007902AC0AAD0BAA10FB1266D78A0A8B0BF3
:10768000EE2479F50EEF3400F50F7902AC0AAD0B5C
:10769000AA0EFB1266D78A0A8B0B7902AC0AAD0BD5
:1076A000EE247BFAEF3400FB1266D78A0A8B0BEECE
:1076B000247DF50CEF3400F50D7902AC0AAD0BAA70
:1076C0000CFB1266D78A0A8B0B851282851383E026
:1076D000C333F0851082851183E0F8A3E0F9E8C395
:1076E00033F8E933F9851082851183E8F0A3E9F0D6
:1076F000850E82850F83E0F8A3E0F9E8C333F8E94B
:1077000033F9850E82850F83E8F0A3E9F0850C82BA
:10771000850D83E0F50EA3E0F50F7404780E124892
:107720001D850C82850D83E50EF0A3E50FF0EE2498
:1077300074F50CEF3400F50D7902AC0AAD0BAA0C10
:10774000FB1266D7850C82850D83C082C0838E8232
:107750008F83A3A3A3A3A3E0F8A3E0F9D083D082EF
:10776000E0C398F8A3E099F9C3E894FFE9947F4057
:1077700003027832EE247DF582EF3400F583E0F5E4
:107780000AA3E0F50BE4F50CF50DEE247BF582EF92
:107790003400F583E02401F50EA3E03400F50FE496
:1077A000F510F511EE2479F582EF3400F583E0F859
:1077B000A3E0F9E8C333F8E933F988128913E4F553
:1077C00014F515780E791212450C780A790E1244C8
:1077D000CD4004793B805DEE24738062EE2480F519
:1077E0000CEF3400F50D7402C0E07905AC0AAD0B66
:1077F0007AB97B0B1266D7EAFCEBFDD0E0F9AA0C54
:10780000AB0D1266D7850C82850D83C082C0838E36
:10781000828F83A3A3A3A3A3E0F8A3E0F9D083D02E
:1078200082E0C398F8A3E099F9C3E894FFE9947F54
:1078300040097928EEFAEFFB027AF2EE247FF58216
:10784000EF3400F5837401F0EE241DF582EF34006F
:10785000F583E4F0A30279C4EE24E1F582EF34006D
:10786000F583E07039EEF8EFF97A927B0A8A828B21
:1078700083A3E0C0E0E824E2F582E93400F583D098
:10788000E0F08A828B83A3AA82AB8388828983A358
:10789000A882A983EA649A7003EB640A70CFEE248D
:1078A000E2F582EF3400F583E0A2E0EE401124DD42
:1078B000F582EF3400F583741AF0790D027ACB2447
:1078C00062F582EF3400F583E4F0EE2467F582EF91
:1078D0003400F583E4F0EE24E0F582EF3400F58324
:1078E0007401F07908AC0AAD0BEE249BFAEF34007A
:1078F000FB1266D78A0A8B0B7902AC0AAD0BEE2419
:10790000A3FAEF3400FB1266D78A0A8B0BEE24939E
:10791000F50CEF3400F50D7908AC0AAD0BAA0CFBA1
:107920001266D78A0A8B0B7908AA0CAB0D1266DD9A
:10793000EE2487F50CEF3400F50D7904AC0AAD0B9D
:10794000AA0CFB1266D77904AA0CAB0D1266DDEE09
:10795000248BFAEF3400FB1266EFEE2483FAEF3447
:1079600000FB1266F5900A81E04480F07904027A07
:10797000CBEE24DE8045EE2462F582EF3400F58301
:10798000E4F0EE2467F582EF3400F583E4F0EE24B2
:10799000D2F582EF3400F583E4F0EE24DCF582EFDB
:1079A0003400F5837401F0EE24D3F582EF3400F552
:1079B00083E4F0790B027B05EE24DFF582EF3400DF
:1079C000F5837401F0027B08EEF8EFF97A927B0AF6
:1079D0008A828B83A3E0C0E0E824E2F582E93400E8
:1079E000F583D0E0F08A828B83A3AA82AB8388825E
:1079F0008983A3A882A983EA649A7003EB640A705E
:107A0000CFEEF8EFF97A927B0A8A828B83A3E0FCAF
:107A1000850A82850B83E05CC0E0E824E2F582E918
:107A20003400F583D0E0F0850A82850B83A385823C
:107A30000A85830B8A828B83A3AA82AB838882897F
:107A400083A3A882A983EA649A7003EB640A70B9DD
:107A500079098077EE24EAF582EF3400F583E0645B
:107A6000017003027AF7850A82850B83E0C0E0EE9D
:107A700024EDF582EF3400F583D0E0F0850A8285AD
:107A80000B83A385820A85830B7402C0E0F9AC0ADC
:107A9000AD0BEE24EEFAEF3400FB1266D7EAFCEBF6
:107AA000FDD0E0F9EE24F0FAEF3400FB1266D7EED9
:107AB00024EAF582EF3400F5837401F0EE24ECF54E
:107AC00082EF3400F583E0703F790CEEFAEFFB8033
:107AD00034EE24F4F8EF3400F9E088828983F0EE84
:107AE00024F3F582EF3400F5837401F088828983F2
:107AF000E0F91266AD8011EE24F5F582EF3400F561
:107B000083E8F0790712667D7F0C02495974F612FA
:107B10004887EAFEEBFF027D53EEFAEFFB12667137
:107B2000027F9FEE2469F582EF3400F583E0640163
:107B3000703E900A89E07003027E2FEEFAEFFB128E
:107B40006683EE24A3F50AEF3400F50B780A124A97
:107B50009AEE249BFCEF3400FD8E828F83A3A3A3B7
:107B6000A3E0FA7B0012643D7402124846027D5382
:107B7000EEFAEFFB126647027F9FEE2469F582EF73
:107B80003400F583E064017055900A89E06031EEBD
:107B90002482F582EF3400F5837401F0EE24D4F5ED
:107BA00082EF3400F583E4F0A3F0A3F0A3F0EE2419
:107BB000D8F582EF3400F583E4F0A3F0A3F0A3F04E
:107BC000EE24DEF582EF3400F583E0640160030209
:107BD0007E2F7906EEFAEFFB126689027D53EE24C2
:107BE000D2F582EF3400F583E06401702AEEFAEFFB
:107BF000FB12664DE964016003027FBCEE24DEF5F2
:107C000082EF3400F583E4F0EE2469F582EF34006E
:107C1000F5837401027FAAEE24D3F582EF3400F5D8
:107C200083E07003027FBCEE24B2F50AEF3400F566
:107C30000B780A124A9AEE248BFCEF3400FDEE24F6
:107C4000C2FAEF3400FB1266FB7402124846EE24BF
:107C5000D2F582EF3400F5837401027D1BEE2469B6
:107C6000F582EF3400F583E064016003027D1E902D
:107C70000A89E07003027E2FEE2420F582EF3400A3
:107C8000F583E0F8A3E0F9EE241DF582EF3400F56A
:107C900083E8F0A3E9F0EEFAEFFB126683EE2462CC
:107CA000F582EF3400F5837401F0EE2467F582EF7E
:107CB0003400F5837401F0EE24DCF582EF3400F536
:107CC00083E06401701379008E828F83A3A3A3A342
:107CD000E0FA7B0012644980137C0179008E828F68
:107CE00083A3A3A3A3E0FA7B00126443EE24DCF594
:107CF00082EF3400F583E4F0EE24E0F582EF340007
:107D0000F583E4F0EE24DFF582EF3400F583E4F050
:107D1000EE24DEF582EF3400F583E4F08035EEFAF0
:107D2000EFFB126653027F9FEE2469F582EF340069
:107D3000F583E064016003027DBEEE24DFF582EF8F
:107D40003400F583E064016003027E2FEEFAEFFB5E
:107D5000126683EE246EF582EF3400F583E0700343
:107D6000027FBCEE246AF582EF3400F583E024FE46
:107D7000602F24FE7003027B23147003027B7A14AD
:107D80007003027C5D147003027FAD24FE70030259
:107D90007E6124FE6092147003027EAE14604C80FB
:107DA000B2EE2469F582EF3400F583E064016003EC
:107DB000027B19900A88E060767916027F80EEFADD
:107DC000EFFB126659E964016003027FBCEE24DF19
:107DD000F582EF3400F583E4F0EE2482F582EF348F
:107DE00000F583E4F0EE2469027C51EE2469F5820B
:107DF000EF3400F583E06401705D900A89E060264D
:107E0000EE2482F582EF3400F583E4F0EE2462F58F
:107E100082EF3400F5837401F0EE2467F582EF34CD
:107E200000F5837401F0900A88E06003027D4CEE57
:107E30002471F8EF3400F988828983E024FFF0A3ED
:107E4000E034FFF088828983E0F8A3E0F9E8496034
:107E500003027FBC027F7EEEFAEFFB12665F027FB9
:107E60009FEE2469F582EF3400F583E064017034FD
:107E7000900A89E060B9EE24E1F582EF3400F583E1
:107E80007401F0EE2420F582EF3400F583E0F8A3CE
:107E9000E0F9EE241DF582EF3400F583E8F0A3E964
:107EA000F0027D4CEEFAEFFB126665027F9FEE2436
:107EB00069F582EF3400F583E064016003027F8B93
:107EC000EE24EAF582EF3400F583E064017051EEB0
:107ED00024EBF582EF3400F583E064016003027D5A
:107EE0004CEE24F0F582EF3400F583124AB1EE2413
:107EF000EEF582EF3400F583124AB1EE24EDF582FF
:107F0000EF3400F583E0FC8E828F83A3A3A3A3E06C
:107F1000FA7B0079001264377404124846027D4CE3
:107F2000EE2471F8EF3400F988828983E024FFF0B1
:107F3000A3E034FFF088828983E0F8A3E0F9E84900
:107F4000707AEE24F0F582EF3400F583124AB1EE38
:107F500024EEF582EF3400F583124AB1EE24EDF5FC
:107F600082EF3400F583E0FC8E828F83A3A3A3A36A
:107F7000E0FA7B00792212643774041248467922B1
:107F8000EEFAEFFB1266AD79018033EE24ECF58258
:107F9000EF3400F5837401F0EEFAEFFB12666BEE3E
:107FA0002469F582EF3400F583E9F0800FEEFAEFF3
:107FB000FB126677E964017003027D4C79007F0251
:107FC000024959C082C083851A82851B83E0F8A3C9
:107FD000E0F9E84960128A828B83ECF0A3E824FF81
:107FE00018E934FFF94870F2D083D0820244A0022D
:107FF00044A0FFFFFFFFFFFF851C87C2AF0244A024
:1080000074F612488774C4124830E990091CF012C3
:108010005F1B75C90053C9FCE5C954F34408F5C991
:108020009080A1C082742B12487BAC82AD83758393
:1080300080D0827411124743742112487BAA82AB0C
:1080400083126563742312487B12844112487B12A9
:108050008435C0E0740D12487BD0E012844F124882
:108060007B128435C0E0740E12487BD0E0F074229D
:1080700012487B12844112487B128435C0E0740F91
:1080800012487BD0E012844F12487B128435C0E046
:10809000741012487BD0E0F0742112487BE0128407
:1080A0004812487B128435C0E0741112487BD0E03E
:1080B000F0742112487BE012844912487B12843507
:1080C000C0E0741212487BD0E0F0750A06750B0010
:1080D000780A124A9A740F12487BAC82AD837A28D0
:1080E0007B10125A9B7402124846780A124A9A74FC
:1080F0000F12487BAC82AD837A457B10125A9B7479
:10810000021248467C067D007A1F7B0012604D7487
:108110000C12487B7401F0741F12487BE4F0A3F04A
:10812000740B12487B7401F0741D12487B7420F0AC
:10813000A37403F0741B12487B74B0F0A37404F0B2
:10814000741912487B7404F0A3E4F0741712487B8E
:108150007488F0A37413F0740C12487BAC82AD8366
:1081600079017A057B03125EA3741F12487BAC82EF
:10817000AD8379027A067B03125EA37C237D10799E
:10818000147A087B03125EA37C377D10790B7A0783
:108190007B03125EA3740B12487BAC82AD83790122
:1081A0007A107B03125EA3741D12487BAC82AD83F0
:1081B00079027A117B03125EA3741B12487BAC8296
:1081C000AD8379027A127B03125EA3741912487B85
:1081D000AC82AD8379027A137B03125EA37417120B
:1081E000487BAC82AD8379027A147B03125EA37C58
:1081F000427D107A0979001261C77C407D1F7A06A2
:108200007B0012604D7C407D1F7A077B0012604D21
:108210007C407D1F7A087B0012604D7C407D1F7A78
:10822000097B0012604D742712487B128456740A31
:1082300012487B7401F0740912487B7401F07408D1
:1082400012487BE4F0740712487B7401F074271223
:10825000487BAC82AD8379047A087B04125C097494
:108260000A12487BAC82AD8379017A007B04125CF0
:1082700009740912487BAC82AD8379017A027B04D0
:10828000125C09740812487BAC82AD8379017A03D1
:108290007B04125C09740712487BAC82AD837901C0
:1082A0007A067B04125C099081B012471E1261CDE0
:1082B0009081B012471E1262DB9081B012471E12ED
:1082C0005DA1125BCD125DDD741512487B7403F065
:1082D000A3E4F0741312487B747CF0A3E4F07415EB
:1082E00012487BAC82AD837A027904125DAD7413BF
:1082F00012487BAC82AD837A027900125DAD7406C0
:1083000012487B740AF0AC82AD837A017901125B6A
:10831000D990091CE0F9125BBB75FDF675F3017588
:10832000FEFB75F40075FFFF75F500125F03125F29
:1083300057125F517A547B10125DA77AF77B5E1259
:108340005BD3125F5D79011263D17A107B009009D3
:108350001CE0F9125AEF7A817950125D1D9081D498
:10836000C082851A82851B83AC82AD83758381D0E0
:10837000827402124743851A82851B83AA82AB83CB
:108380007902125D29740212487BAA82AB837904B8
:10839000125D23740212487BE0F4700974031248E2
:1083A0007BE0F46026740312487BE0F97402124803
:1083B0007BE0900920128F43740512487BE0F9742A
:1083C0000412487BE0900922128F43125F15851A30
:1083D00082851B83129D7F851A82851B83AC82ADAB
:1083E000837A027904125DAD7A017B0090091CE06A
:1083F000F9125AEF7A027B0090091CE0F9125AEF49
:108400007A007B4090091CE0F9125AEF7A407B0019
:1084100090091CE0F9125AEF7A007B1090091CE0D9
:10842000F9125AEF7A007B0890091CE0F9125AEF12
:10843000743C0290F7E58228F582E58312A142E0C0
:1084400022E0F50A12844822C4540FF8742B22F05B
:10845000E50A12844922E4F0A3F0A3F0A3F0227409
:10846000F412488774F4124830EAFEEBFF5480603F
:108470002390091CE0F9125AD78A0A8B0BEA450BA4
:10848000600A125EEBAA0AAB0B125AC5EEFAEF6451
:1084900080028B5FEEA2E04003028650900959E013
:1084A00070657A507B10125EAF7A5A7B09125C2796
:1084B000851A82851B83128B70125EA390818C12A9
:1084C0004AAD7A027B0090091CE0F9125B8B7404C0
:1084D000124846908188124AAD7A007B4090091C70
:1084E000E0F9125B8B7404124846908184124AAD05
:1084F0007A007B1090091CE0F9125B8B740412481F
:108500004690818002861A6401701FC290D291D277
:1085100096D297D2A0D2A1C281D282D284D285D261
:1085200086D28790048F74218046E06402701FD247
:1085300090C291D296D297D2A0D2A1D281C282D239
:1085400084D285D286D28790048F74428022E064E0
:10855000037023D290D291C296D297D2A0D2A1D248
:1085600081D282C284D285D286D28790048F7484CD
:10857000F0A3E4028614E064047023D290D291D276
:1085800096C297D2A0D2A1D281D282D284C285D201
:1085900086D28790048F7408F0A374018076E0641B
:1085A000057023D290D291D296D297C2A0D2A1D2F6
:1085B00081D282D284D285C286D28790048F7410F1
:1085C000F0A37402804EE064067023D290D291D260
:1085D00096D297D2A0C2A1D281D282D284D285D2A1
:1085E00086C28790048F7420F0A374048026E06410
:1085F00007703DC290D291D296D297D2A0D2A1C29A
:1086000081D282D284D285D286D28790048F744060
:10861000F0A37408F0D29390818C124AAD7A017B5A
:108620000090091CE0F9125B8B7404124846801418
:10863000E064087015125F037A017B0090091CE06A
:10864000F9125B97900959E004F0EE640102895534
:10865000541070030286DA7A81791D125D1D74044C
:1086600012487BE412922D125D3B851A82851B8392
:10867000AA82AB837901125D41851A82851B83E052
:10868000543FF06004F9125F21900958E070179090
:10869000104C124AAD7A107B0090091CE0F9125B75
:1086A0008B740412484690091DE0640290102170FA
:1086B0000EE0C39478400474788008E0048004E0FD
:1086C000600414F0800E7478F0740112487B128BF1
:1086D00070125EA3EE6410028955EE540860289073
:1086E000091DE06405701A125BDF908188124AADA3
:1086F0007A087B0090091CE0F9125B8B7404124825
:1087000046EE6408028955EE540270030287ED902C
:108710000914E0701A7A017900125CC37A017900B9
:10872000125CBD9009147401F090818C0287D39083
:10873000091DE0640260030287BD900917E004F0A0
:10874000C3940B5039125BF7E990091BF0F89009BC
:1087500018E028129FDF90091AE0F890091BE0C387
:10876000984005E090091AF090091BE0F89010225B
:10877000E0C398404890091BE0901022803E900989
:1087800018C08290091AE0F8758309D082E0C39876
:10879000F8A3E09400F9901022E0FAE8C39AF50AF1
:1087A000E99400F50B7403780A12480EE50A90105C
:1087B0001EF0900917E4F0900918F0A3F07A007900
:1087C00000125CC37A007900125CBD900914E4F0D9
:1087D000908188124AAD7A027B0090091CE0F91260
:1087E0005B8B7404124846EE6402028955EE548095
:1087F00070030288AE90094EE0640360030288A310
:10880000D290D291D296D297D2A0D2A1D281D28246
:10881000D284D285D286D2877A407B0090091CE030
:10882000F9125B9790094F7401F0125B258A0A8B4D
:108830000B8C0C8D0D780A124A96740912487BAA8B
:1088400082AB83125B2B7404124846740712487B78
:10885000E0F9C3940C400474F429F975F00574062A
:1088600012487BE08490104BF069700CE0640B7050
:1088700004740A8002E004F07A00125F09125F0FAC
:10888000908180124AAD7A007B0290091CE0F912B7
:108890005B8B74041248467A007B0490091CE0F953
:1088A000125B9790094EE4F0EE6480028955EF5414
:1088B00001600B125F0FEEFAEF6401028B5FEF5461
:1088C0000260277A007B0190091CE0F9125B971285
:1088D0005F03900950E4F090104B740DF090094F35
:1088E000E4F0EEFAEF6402028B5FEE5420606B90CE
:1088F0000952E0C3940750167A00E0F9125F097A32
:1089000000900952E0F8740CC398F9125F097A01DB
:10891000900952E014F9125F097A01900952E0F8C7
:10892000740DC398F9125F09900952E004F0C394E2
:108930000850199081BC124AAD7A207B0090091C26
:10894000E0F9125B8B74041248468006E4F090094B
:108950004FF0EE6420FAEF028B5FEF540860159041
:108960000916E070077A017901125F27EEFAEF64C9
:1089700008028B5FEE5440601FC290C291C296C243
:1089800097C2A0C2A1C281C282C284C285C286C26D
:1089900087EE6440FA028B66EF54047003028A2B60
:1089A000D290D291D296D297D2A0D2A1D281D282A5
:1089B000D284D285D286D2877A407B0090091CE08F
:1089C000F9125B97900951E06059900492E06401BC
:1089D000703190094F7401F0908158124AAD7A00BD
:1089E0007B0890091CE0F9125B8B740412484690D6
:1089F00009167401F07A207B0090091CE0F9125AE4
:108A0000EF8020E0701D9009597401F0908154129C
:108A10004AAD7A017B0090091CE0F9125B8B74046B
:108A2000124846EEFAEF6404028B5FEF5420602B8D
:108A3000125F2D900953E0C3940350179081601288
:108A40004AAD7A007B2090091CE0F9125B8B74041C
:108A5000124846EEFAEF6420028B5FEF5440700339
:108A6000028B2E7A81794A125D1D851A82851B83BD
:108A7000740312922D125D3B740112487BAA82ABE3
:108A8000837901125D41740112487BE0C433335491
:108A9000C0F50A851A82851B83740212922D125D1D
:108AA0003B740112487BAA82AB837901125D417449
:108AB0000112487BE01313543F54F8450A901020EC
:108AC000F090101FE0F8901020E0689009157036C3
:108AD000E004F0C3940A4030E4F0125F4B740212D9
:108AE000487B741AF0901020E0C0E0740312487BB9
:108AF000D0E0F0740212487BAA82AB837902125D47
:108B000029125F518002E4F0901020E090101FF0D5
:108B1000908188124AAD7A007B4090091CE0F912DE
:108B20005B8B7404124846EEFAEF64408031EF54D8
:108B300010602FE5C9540F44A0F5C9E5C9540F448E
:108B400050F5C9908184124AAD7A007B1090091CBF
:108B5000E0F9125B8B7404124846EEFAEF6410FBE6
:108B600080047A007B00740C1248467F0402495945
:108B70007401F0AC82AD83F97A057B032274F7129D
:108B8000488774FC1248308A828B83E064C060039B
:108B9000028CE5A3A3A3E0FE7A81794A125D1D74DD
:108BA0000312487BE412922D125D3B740212487B43
:108BB000AA82AB837901125D41740212487BE0A264
:108BC000E0E433900951F0EEA2E04003028C5BE058
:108BD000A2E04005900916E4F090094FE06003021E
:108BE0008CE5900951E0A2E0501990815C124AADE9
:108BF0007A007B0490091CE0F9125B8B7404124824
:108C000046800C7A007B0490091CE0F9125B979077
:108C10000951E06029900492E06401702190094EAE
:108C2000E070057402F0801C64026003028CE8743A
:108C300003F07A807B0090091CE0F9125B979009A1
:108C40004EE06017908154124AAD7A807B00900903
:108C50001CE0F9125B8B7404124846EEA2E140035B
:108C6000028CE57A81791D125D1D851A82851B8330
:108C7000742AF0740112487BE4129237125D298540
:108C80001A82851B83741612922D125D3B74011299
:108C9000487BAA82AB837901125D41851A82851BCC
:108CA00083742DF0740112487BE4129237125D290F
:108CB000851A82851B83742AF0740112487B1292F4
:108CC00035125D29900954128456900958F090107D
:108CD0004C124AAD7A107B0090091CE0F9125B8BB4
:108CE0007404124846028E36E064036003028C442A
:108CF0007A807B0090091CE0F9125B977A007B0474
:108D000090091CE0F9125B9790094EE4F0028C5B2D
:108D100074F712488774F0124830E9FE146010149A
:108D20007003028DBF24FD7003028DF9028E2D7435
:108D30000A12487BAC82AD837A047B03125EA9746D
:108D40000A12487BE0C0E0740212487BD0E0F07465
:108D50000B12487BE0C0E0740312487BD0E0F07453
:108D60000C12487BE0C0E0740412487BD0E0F07441
:108D70000612487BE4F0740512487BE4F0740F128D
:108D8000487BE0C0E0740912487BD0E0F0740E121A
:108D9000487BE0C0E0740812487BD0E0F0740D120C
:108DA000487BE0C0E0740712487BD0E0F074021208
:108DB000487BAC82AD837A087900125BFD806E7AC5
:108DC00081794A125D1D90091FE06401705F900473
:108DD00092E064017057125F4B851A82851B837481
:108DE00043F0740112487B7426129237125D299069
:108DF0000492E4F0125F5180347A81794A125D1D49
:108E0000900492E07027125F4B851A82851B837451
:108E100043F0740112487B7423129237125D29903B
:108E200004927401F0125F5190091FE4F0EE900972
:108E30001DF07410800274041248467F01024959E3
:108E400074F7124887E9FE74016E702190091DE0E5
:108E50006405702A908188124AAD7A087B009009D7
:108E60001CE0F9125B8B7404124846801174026E88
:108E7000700C7A087B0090091CE0F9125B9780BBAC
:108E800074F412488774F1124830E91460101460C9
:108E90006714605C24FD7003028F34028F3D851AD5
:108EA00082851B83AA82AB837901125DB3851A8206
:108EB000851B83129D22901016128F42125F15742B
:108EC0000212487B129D7F740212487BAC82AD83F4
:108ED0007A027904125DAD900953E4F0908160123A
:108EE0004AAD7A007B2090091CE0F9125B8B803D33
:108EF0007A1E7B0979038042740412487BAA82ABF4
:108F0000837902125DB3740412487B12471E125B10
:108F10001F125B258A0A8B0B8C0C8D0D780A124A66
:108F200096740C12487BAA82AB83125B2B740412DA
:108F3000484680097A1F7B097906125DB3740F02D7
:108F40008B68E8F0A3E9F022C082C083D290D2916E
:108F5000D296D297D2A0D2A1D281D282D284D28507
:108F6000D286D28790048FE4F0A3F0C293C280C26D
:108F700094C29590818C124AAD7A407B0090091C76
:108F8000E0F9125B8B0290A374F2124887E9FEEAC3
:108F9000FF750A01750B00EE780A12481DAA0AAB8C
:108FA0000B046F7011EAF4F8EBF4F990048FE058B9
:108FB000F0A3E059800990048FE04AF0A3E04BF061
:108FC00090048F129D22E849701BC29390818C12ED
:108FD0004AAD7A407B0090091CE0F9125B8B740467
:108FE0001248468002D293EE607014602014602410
:108FF00014602814602C1460301460341460381429
:10900000603C1460401460441460488052EFA2E059
:109010009291804BEFA2E092968044EFA2E092976B
:10902000803DEFA2E092A08036EFA2E092A1802FD7
:10903000EFA2E092818028EFA2E092828021EFA24D
:10904000E09284801AEFA2E092858013EFA2E09272
:1090500086800CEFA2E092878005EFA2E092907FDD
:1090600006024959C082C083900950E0700474011F
:109070008001E4F0E0FA90104BE0F9125F09908172
:1090800054124AAD7A007B01028F7DC0E074031256
:10909000487BD0E0F0740212487BAA82AB8379024D
:1090A000125D297404124846D083D0820244A07411
:1090B000F6124887900920129D2275830975822235
:1090C000E0C398F50AA3E099F50B75830975822230
:1090D000C3E098A3E099500CE50A24A0F50AE50B3B
:1090E000340FF50B7403780A12480EE50A2403FACC
:1090F000E50B3400FB80031248467F02024959C049
:1091000082C08374FE1248307A81791D125D1D85FC
:109110001A82851B83742BF0740112487B744012F1
:109120009237125D29851A82851B83742B12922D2A
:10913000125D3B740112487BAA82AB837901125DF8
:1091400041740112487BE0A2E640DA851A82851B51
:1091500083740EF0740112487B740212A1DFF912BD
:109160005D29851A82851B837409F0740112487B7E
:109170007440129237125D29851A82851B837415FB
:10918000F0740112487B74FF129237125D29851A20
:1091900082851B837417F0740112487B741112923C
:1091A00037125D29851A82851B837418F0740112A9
:1091B000487B7403129237125D29851A82851B83BE
:1091C000742CF0740112487B7408129237125D29D6
:1091D000851A82851B83742DF0740112487B7404F8
:1091E000129237125D29851A82851B83742EF074C2
:1091F0000112487B7404129237125D29851A828508
:109200001B83742BF0740112487B741F1292371267
:109210005D29851A82851B83742AF0740112487BAC
:10922000129235125D2974020290A57444F0AA824C
:10923000AB83790122746912A1E379022274E812E6
:10924000488774D2124830740C12487BE9F0741AC3
:1092500012487BAC82AD83758381758222740812BB
:109260004743741212487BAC82AD8375838175824B
:109270001A7408124743740D12487B7401F07A8106
:10928000791D125D1D908190780A12470090095453
:10929000780A1246747AC07B00125B49740812483F
:1092A0007B129D7F7CC07D007900740812487BE0B2
:1092B000FA125AB3740812487B129D22E849604999
:1092C0007CC07D007900740812487B129D34125ACC
:1092D000B3740D12487BAA82AB837901125D3B7493
:1092E0000812487B129D3475F006740C12487BE01E
:1092F000A4F9125D41740C12487BE0900491F0C314
:109300009405500E7900029CED900491E4F0F9026E
:109310009CED7E00EE75F006A4F8A9F0749328FA8F
:10932000740439FB740812487BE028F8A3E039F98B
:1093300088828983E0FDA3E08A828B83129D851257
:109340009D0CE08A828B83A3A3129D85A3A3129D0B
:109350000CA3A3E0F8EDF98A828B83A3A3A3A31245
:109360008F420E900491E0F8EEC39840A77E0080F3
:10937000010EEEC39840FA7E008E0A750B0074034E
:10938000780A12481DAA0AAB0B74532AF874063BDC
:10939000F974A32AFA74073BFB8A0A8B0B8A82F5BD
:1093A0008312471E8882898312472A850A82850B89
:1093B00083A3A3A3A312471E88828983A3A3A3A385
:1093C00012472A0EEEC3940A40AF7E0A8E82AA820A
:1093D0008A0A750B007403780A12481D7453250A13
:1093E000F87406350BF9E8FCE9FDEA75F006A4FA15
:1093F000ABF074932AFA74043BFBEA24C6129D5323
:10940000780A12470FEA24C8129D53A3A3A3A37896
:109410000A12470F0E900491E0240BF8E43400F98F
:10942000EE98E499C365D03340A27A207B00125BAA
:1094300049740A12487B129D7F7C207D007900745C
:109440000A12487BE0FA125AB37E0002979D8E0AF8
:10945000750B007403780A12481DAA0AAB0B7453EB
:109460002AF874053BF9740612487B128F4290105B
:109470001DE0F50AE4F50BF50CF50D742A12487B96
:10948000780A12470F90101CE0F50A742612487BE8
:10949000780A12470F90101BE0F50A742212487BDD
:1094A000780A12470F90101AE0F50A740E12487BE2
:1094B000780A12470F901019E0F50A74532AF874CD
:1094C000063BF9851A82851B83128F42901018E0A3
:1094D000F50EE4F50FF510F511129D3A78161247C6
:1094E00000129D73245012A13F781612466178161F
:1094F000790E12450C129D732408129D0612470026
:10950000129D732448129D061246617812790A1240
:10951000450C7816791212464EC016C017C018C0F6
:1095200019129D732410129D06124700129D732478
:1095300040129D06124661740E12487B781612473F
:10954000007812791612450CD019D018D017D01601
:109550007816791212464EC016C017C018C01912DC
:109560009D732418129D06124700129D7324381211
:109570009D06124661742212487B781612470078C5
:1095800012791612450CD019D018D017D0167816AB
:10959000791212464EC016C017C018C019129D731A
:1095A0002420129D06124700129D732430129D063E
:1095B000124661742612487B781612470078127999
:1095C0001612450CD019D018D017D016781679126B
:1095D00012464EC016C017C018C019129D73242819
:1095E000129D06124700742A12487B781612470013
:1095F0007812791612450CD019D018D017D01678D9
:1096000016791212464E740A78161245FC74061228
:10961000487B129D40781612470F740612487B1241
:109620009D2812487B128F42129D3AA3A3A3A378D0
:1096300012124700129D732454129D06124661783F
:1096400012790E12450C85120E85130F85141085A4
:109650001511129D73240C129D06124700129D7362
:10966000244C129D061246617812790A12450C7834
:109670000E791212464E129D732414129D00124749
:1096800000129D732444129D00124661740E12480C
:109690007B7812124700780A791212450C780E79FD
:1096A0000A12464E129D73241C129D00124700128E
:1096B0009D73243C129D00124661742212487B78EF
:1096C00012124700780A791212450C780E790A12A4
:1096D000464E129D732424129D00124700129D7362
:1096E0002434129D00124661742612487B781212AF
:1096F0004700780A791212450C780E790A12464E04
:10970000129D73242C129D00124700742A12487B6C
:109710007812124700780A791212450C780E790AED
:1097200012464E740A780E1245FC740212487B12DF
:109730009D4D12470F740212487B129D4078121201
:109740004700740612487B129D6D124700850A0E71
:10975000850B0F850C10850D11780E790A12450CBA
:1097600085120A85130B85140C85150D780A79125C
:1097700012450C780E790A12464E8E0A750B00744B
:1097800002780A12481D740A12487BE0250AF8A3E1
:10979000E0350B8882F583780E12470F0E90049106
:1097A000E0F8EEC398500302944E7E008027780EB6
:1097B00079121244CD500A741E12487B780E12475B
:1097C0000F780A790E1244CD500A741612487B782D
:1097D0000E12470F0E741612487B780A1247007457
:1097E0001E12487B7812124700900491E0C313FFC9
:1097F000E0F8EEC398504D8E0E750F007402780E8F
:1098000012481D740A12487BE0250EF8A3E0350FBC
:109810008882F583780E124700EEC39F5090741A29
:1098200012487B780E1244DD500A741A12487B7875
:109830000E12470F741212487B780E1244ED4094BA
:1098400074128088741A12487B780E1247007412C2
:1098500012487B780E1246617401780E12461690FB
:1098600008F3780E12470F741A12487B780E1247CD
:1098700000741212487B780E12469B9008FF780EF7
:1098800012470F85120E85130F8514108515117858
:109890000E790A12464E7401780E1246169008F799
:1098A000780E12470F7812790A124687740E124802
:1098B0007B781212470F740E12487B12471E9009D4
:1098C0000312472A7E0002995A85120A85130B85D6
:1098D000140C85150D780A7916124687780A1244F9
:1098E000ED50030299F7740612487B129D4012470F
:1098F0001E740212487B129D4012472A74061248B9
:109900007B129D6D124700851A82851B83E02477A8
:10991000F8A3E03408F988828983780A12470F9007
:10992000090DE024FDFAEEC39F4003029A6B9008F4
:10993000F3780A1244DD4003029A079008F3780A8C
:10994000124700740212487B129D6D1244DD5003D1
:10995000029A2490090DE004F00E8E8285820A7529
:109960000B00900491E024FFF8E434FFF9C3E50A0A
:1099700098E499A2D265D0334003029B1C7402780C
:109980000A12481D851A82851B83E50AF0A3E50BA0
:1099900012A294F8A3E0F9740A12487BE028FAA313
:1099A000E012A1477812124700851A82851B83E0D6
:1099B00024F3F8A3E03407F9740612487B128F42AF
:1099C000740612487B129D2812487B128F428A82AD
:1099D0008B837816124700781279161244CD908145
:1099E0009450030298C97816791212468778161295
:1099F00044ED40030298E6740212487B129D4078C1
:109A00001212470F0298FC50030299537402124835
:109A10007B129D6D1247009008F3780A1244DD40D6
:109A200003029953EAC394164003029B1590819850
:109A3000780A1247009008FF780A1244DD400302BA
:109A40009B039008FB780A1247009008F3780A12EB
:109A500044DD500A9008FB780A1247008072900893
:109A6000F3780A1247009008FB8068780A790E1292
:109A700044CD5010740212487B129D4D1244DD40BB
:109A80001F029953780E790A1244CD40030299536C
:109A9000740212487B129D4D1244ED5003029953FB
:109AA000EAC39416506F908198780A124700740E9A
:109AB00012487B780A1244DD50499008F3780E1260
:109AC00044DD5023850E0A850F0B85100C85110D82
:109AD0009008F3780A12469B75838175829C780AF8
