:020000040000FA
:104000000845FFFF0100007C42424242FFFFFFFFE4
:10401000FFFFFFFFFFFFFFFFFFFFFFFFFFFFFFFFB0
:10402000000102030405060708090A0BFFFFFFFF52
:1040300002448C02536BFFFFFFFFFFFFFFFFFFFFF8
:10404000FFFFFFFFFFFFFFFFFFFFFFFFFFFFFFFF80
:10405000FFFFFFFFFFFFFFFFFFFFFF024C2DFFFFF2
:10406000FFFFFFFFFFFFFFFFFFFFFFFFFFFFFFFF60
:10407000FFFFFFFFFFFFFFFFFFFFFFFFFFFFFFFF50
:10408000FFFFFF0253DEFFFFFFFFFFFFFFFFFFFF0A
:10409000FFFFFFFFFFFFFFFFFFFFFF024BE6FFFFFA
:1040A000FFFFFFFFFFFFFFFFFFFFFF024C0FFFFFC0
:1040B000FFFFFF0251D701FFFF2C01990112990464
:1040C00001020582010000D28102F3810100001D7E
:1040D0000E0201820100001E0E020982030000A9E7
:1040E000020213820100001F0E01E803053F100ABF
:1040F000024669726D776172650000000000000081
:1041000000001A446F2053796E6300000000000025
:1041100000000000084150502053657420436C6F2C
:10412000636B000000000841505020536574205418
:10413000696D657A6F6E6500084150502053657453
:1041400020537973416374000000120100446174CC
:10415000612048656164657200000000000012443F
:1041600061746120426F647900000000000000006B
:10417000020582010000D58102F381010000500E8A
:10418000020D82010000A603021582010000510EFB
:1041900002F381010000620E02FF81030000A80308
:1041A000020982030000B003021582010000630EC1
:1041B00002F381010000740E02FD81020000B603CB
:1041C000021582010000750E02F381010000860EC7
:1041D00002FB81020000BA03021582010000870E73
:1041E00002F381010000AA0E02F781030000AB0E6A
:1041F000020982030000BC03021582010000AD0E1B
:1042000002F381010000BE0E02F581030000C2032B
:10421000020982030000CA03021582010000BF0EDA
:1042200002F381010000980E02F981020000BB0335
:10423000021582010000990E1C020582010000D8BF
:104240008102F381010000980F105080020000D01D
:1042500003020982030000D203021582010000F26A
:104260008002F381010000980F106080020000D1ED
:1042700003020982030000D803021582010000FF37
:1042800080FFFFFF000130750302010600000000FF
:10429000000000000000000000000000000000001E
:1042A0000000000000000000FFFF0600800CE80393
:1042B0002C010E1F4A7FAABA99CACA3C995A010119
:1042C000FF0A094C312D30303030303005122800D3
:1042D0003C00020A00020106070200230F18C0FF7B
:1042E0004C312D3030303030300DC4090000F55ED7
:1042F0000000015FFF0000B4000028002800283003
:1043000075A000A000A000A00000080008E001F0D7
:10431000001000100010001000100010005000509D
:1043200000500010001000D0070000000000000F37
:104330000001000500307507001000010081FF003A
:10434000000000FF71618F617761FF0202020802C5
:104350005000A0000000E803020582010000DE8199
:1043600002F381010000AB1002E7810100008A091D
:1043700002F381010000AC1002E981010000A009F4
:1043800002F381010000AD1002EB81010000A209DF
:1043900002F381010000AE1002EF81080000A309C2
:1043A00002F381010000AF1002F181010000B010A2
:1043B000FF0100FF20020582010000198102F38144
:1043C000010000141102178200000000000209829F
:1043D000030000F009416741674167416741674158
:1043E000674167416741674167416741674167D5F9
:1043F00069ED69CF69E5C754F84404F5C77901222E
:1044000000000080FB1243F5B90003024476E47912
:10441000217808B800028004F709D8FCE4792978EB
:1044200002B800028004F709D8FCE4900280789872
:10443000790C8002F0A3D8FCD9FA781C9040B67AA7
:1044400001BA00028007E493A3F608DAF9900E1788
:10445000AA82AB839040B7783F79048015E493A398
:10446000AC82AD838A828B83F0A3AA82AB838C82D9
:104470008D83D8E9D9E77582B375839374041244A8
:104480009E758200758344740012449E75D0007539
:10449000813F751A80751B02759F00024405C09FFD
:1044A000F59FE473D09F22D083D082C09FE493C055
:1044B000E0740193C0E0740293F59F22E0667010EF
:1044C00008A3E066700A08A3E066700408A3E0662B
:1044D00022C3E7960809E7960809E7960809E796D0
:1044E00022C3E09608A3E09608A3E09608A3E0960E
:1044F00022C00AC3E096F50A08A3E096420A08A380
:10450000E096420A08A3E096450A7001D3D00A2239
:10451000080808EAC0E0EBC0E086F0E7A4FA180952
:1045200086F0E7A42AFA180986F0E7A42AFA1809FF
:1045300086F0E7A42AFA1986F0E7A4FBE5F02AFA48
:10454000190886F0E7A42BFBE5F03AFA190886F083
:10455000E7A42BFBE5F03AFA18180986F0E7A4C5A2
:10456000F02BFBE43AFA1908E7C5F0C6A426F6E5F5
:10457000F03BFBE43AFA1886F0E7A4F6E5F00826EB
:10458000F6E43B08F6E43A08F6D0E0FBD0E0FA2285
:10459000E4CFC0E0E4CEC0E0E4CDC0E0E4CCC0E0D5
:1045A00075F020C3E633F608E633F608E633F6087E
:1045B000E633F6181818EC33FCED33FDEE33FEEF5E
:1045C00033FFC3EC9709ED9709EE9709EF97191997
:1045D00019400FFFEC97FC09ED97FD09EE97FE19C6
:1045E0001906D5F0BEECF709EDF709EEF709EFF77C
:1045F000191919D0E0FCD0E0FDD0E0FED0E0FF2298
:104600006017080808C6A2E713C618C613C618C65E
:1046100013C618C613C6D5E0E9226016080808C6F6
:10462000C313C618C613C618C613C618C613C6D5F4
:10463000E0EA227009080808226016181818C6C394
:1046400033C608C633C608C633C608C633C6D5E067
:10465000EA22E627F60809E637F60809E637F608FB
:1046600009E637F622E026F608A3E036F608A3E0CE
:1046700036F608A3E036F622E026F008A3E036F08E
:1046800008A3E036F008A3E036F022C3E697F60868
:1046900009E697F60809E697F60809E697F622C3B1
:1046A000E0C696F608A3E0C696F608A3E0C696F61E
:1046B00008A3E0C696F622C3E096F008A3E096F0C1
:1046C00008A3E096F008A3E096F022E657F6080962
:1046D000E657F60809E657F60809E657F622E056C7
:1046E000F608A3E056F608A3E056F608A3E056F64F
:1046F00022E056F008A3E056F008A3E056F008A325
:10470000E056F022E0F608A3E0F608A3E0F608A3DE
:10471000E0F622E6F008A3E6F008A3E6F008A3E638
:10472000F022E0FAA3E0FBA3E0FCA3E0FD22EAF024
:10473000A3EBF0A3ECF0A3EDF022CAC0E0E6F0A3F7
:1047400008DAFAD0E0FA22CAC0E0E0A3C582CCC5FC
:1047500082C583CDC583F0A3C582CCC582C583CD78
:10476000C583DAE6D0E0CA22C3E498F8E499F912E6
:1047700047A98026C3E49AFAE49BFBE920E7E91203
:1047800047A9E498F8E499F922C3E498F8E499F980
:104790001247A9E498F8E499F9C3E49AFAE49BFB78
:1047A00022EB20E7CFE920E7E0B90010BB0008E8E2
:1047B0008AF084F8AAF022E4FBC8FA22EB70227B8C
:1047C00010C833C8C933C9335007C39AC3DBF2805A
:1047D000069A50012ADBEAC833F4C8C933F4C9FA8F
:1047E0002275F008E4C833C8C933C933C99AC99BD4
:1047F0005004C92AC93BD5F0ECFBC833F4C8E4C95E
:10480000FA22600D08C6A2E713C618C613C6D5E083
:10481000F322600C08C6C313C618C613C6D5E0F44D
:1048200022700422600D18C6C333C608C633C6D52D
:10483000E0F41822251A10AF08F51A4002151B8063
:1048400008F51A4002151BD2AF22C0D0251A10AFAE
:1048500008F51A5002051B8008F51A5002051BD2F4
:10486000AFD0D022251AF58210AF08F51A400215F4
:104870001B8008F51A4002151BD2AF851B83222529
:104880001AF582E4351BF58322E473251AC582C02C
:10489000E0E51B34FFC583C0E0E51AC3958224F828
:1048A00010AF0885831B85821A800885831B85824B
:1048B0001AD2AFCEF0A3E520F0A3780AE608F0A361
:1048C000DEFAEFF0A3E58124FAF8E608F0A3E608A3
:1048D000F0A3E608F0A30808E608F0A3E608F0A3B2
:1048E00015811581D0E0FED0E0F815811581158184
:1048F000E8C0E0EEC0E022251AC582C0E0E51B3426
:10490000FFC583C0E0E51AC3958224F910AF08857E
:10491000831B85821A800885831B85821AD2AFCEBD
:10492000F0A3E520F0A3780AE608F0A3DEFAEFF0A2
:10493000A3E58124FBF8E608F0A3E608F0A3080845
:10494000E608F0A3E608F0A315811581D0E0FED0BB
:10495000E0F815811581E8C0E0EEC0E022851B83F8
:10496000851A82E0A3FEE0A3F520780AE0A3F6080A
:10497000DFFAE0A3FFE0A3C0E0E0A3C0E0E0A3C053
:10498000E0E0A3C0E0E0A3C0E010AF0885821A8594
:10499000831B800885821A85831BD2AFD083D08287
:1049A0000244A4851B83851A82E0A3FEE0A3F520C0
:1049B000780AE0A3F608DFFAE0A3FFE0A3C0E0E096
:1049C000A3C0E0E0A3C0E0E0A3C0E010AF08858290
:1049D0001A85831B800885821A85831BD2AFD083FA
:1049E000D08222C0D0251AC582C0E0E51B34FFC5A5
:1049F00083C0E0E51AC3958224F310AF0885831BBA
:104A000085821A800885831B85821AD2AFC8F0A3DD
:104A1000E9F0A3EAF0A3EBF0A3790AE709F0A3D841
:104A2000FAECF0A3EDF0A3EEF0A3EFF0A3D0E0F0EA
:104A3000A3D0E0F0A3D0E0F0A3E520F0A3E5F0F0F0
:104A4000A322851B83851A82E0C0E0A3E0F9A3E0DE
:104A5000FAA3E0FBA3780AE0F608A3DFFAE0FCA3E0
:104A6000E0FDA3E0FEA3E0FFA3E0C0E0A3E0C0E020
:104A7000A3E0F5D0A3E0F520A3E0A3F5F010AF0884
:104A800085831B85821A800885831B85821AD2AF95
:104A9000D082D083D0E0F8D0E03274048006740273
:104AA00080027401C0E0F404124864D0E012473A76
:104AB000227404800474028000CCC0E0EDC0E0E504
:104AC0001AC39CCCAD1B50011D10AF068C1A8D1B58
:104AD00080068C1A8D1BD2AF124747D0E0FDD0E084
:104AE000FC22D083D082E9C0E0E493A3C386F0C562
:104AF000F095F0F908E493A386F0C5F095F0700BFB
:104B0000E493A3C3994005E9048002A3E475F0028D
:104B1000A42582F582E5F03583F583D0E0F9E493AE
:104B2000A3C0E0E493C0E022D083D082ECC0E0EDEB
:104B3000C0E0E493A3FCE493A3FDED4C600D124BA5
:104B400074EC24FFFCED34FFFD80EFE493A3FCE460
:104B500093A3FDED4C600D124BB3EC24FFFCED3440
:104B6000FFFD80EFD0E0FDD0E0FCE493A3C0E0E4E3
:104B700093C0E022C0E0C3E49396087401939618B2
:104B8000400FE49366700808740193661870007013
:104B900019A3A3C3E49396087401939618A3A340A2
:104BA0000DD0E0D0E0D0E0024B64A3A3A3A3A3A365
:104BB000D0E022C0E0C0F088F0E49366700808748A
:104BC000019366187000A8F0A3A3700BD0F0D0E09A
:104BD000D0E0D0E0024B64A3A3D0F0D0E022FFFFEE
:104BE000C2AF02000022C0E074F21249E3A2AFE4B7
:104BF00033FED2AFE589A2E35003125D63758900ED
:104C0000C2C5751C00EEA2E092AF7F01024A42C00D
:104C1000E074F21249E3A2AFE433FED2AFE58AA218
:104C2000E25003125D63758A00C2EB80D5C0E0C01C
:104C3000D0E8C0E0E9C0E0E5A8D2AFC2C7751C006B
:104C4000A2E7A2E792AFD0E0F9D0E0F8D0D0D0E070
:104C50003274F51248F7EAFEEBFFEE2434F8EF3435
:104C600000F9880A890BEE2435F582EF3400F583CC
:104C7000E0F8EE2437F582EF3400F583E0F50CEC34
:104C8000850CF0A4FCAAF0850CF0EDA42AFDE82C1C
:104C9000F8E43DF97A257B001247A9EA850A828566
:104CA0000B83F0F8740758F97401B900028004C34B
:104CB00033D9FCFAE8131313541FF8EE28F8EF3435
:104CC00000F9E8245DF582E93400F583E05A6008D4
:104CD000EE2434F582EF802CEE2434F582EF34009C
:104CE000F583E0C0E0EE2436F582EF3400F583E092
:104CF000F5F0D0E084A8F0EE28F8EF3400F9E824CD
:104D000038F582E93400F583E0F97F040249A374A1
:104D1000F51248F7EAFEEBFFEE2434F582EF34009B
:104D2000F583E0C0E0EE2435F582EF3400F583D062
:104D3000E0F08E828F83A3A3A3A3A3A3A3C082C00A
:104D4000838E828F83A3A3A3A3A3E0F8A3E0F9D06B
:104D500083D082E0C398F50AA3E099F50BEE247F97
:104D6000F582EF3400F583E064017069EE2480F58C
:104D700082EF3400F583E0F8A3E0F98E828F83A3FD
:104D8000A3A3A3A3A3A3E0FCA3E0FD8E828F83A330
:104D9000A3A3A3A3E0FAA3E0FBC3EA9CEB9D5010FE
:104DA000C3EC98ED99402EC3EA98EB995027800EFA
:104DB000C3EA98EB994007C3EC98ED9940177CB390
:104DC0007D0BEEFAEFFB12669FEE247FF582EF3447
:104DD00000F583E4F0EE2434F8EF3400F9E8FCE960
:104DE000FDEE2435F582EF3400F583E0F8EE24374C
:104DF000F582EF3400F583E0F50CE50A850CF0A4AC
:104E0000F50AAAF0850CF0E50BA42AF50BE8250AB3
:104E1000F8E4350BF97A257B001247A9EA8C828DDC
:104E200083F0F8740758F97401B900028004C333A1
:104E3000D9FCFAE8131313541FF8EE28F8EF3400E6
:104E4000F9E8245DF582E93400F583E05A6008EE64
:104E50002434F582EF802CEE2434F582EF3400F513
:104E600083E0C0E0EE2436F582EF3400F583E0F510
:104E7000F0D0E084A8F0EE28F8EF3400F9E8243808
:104E8000F582E93400F583E0F9125A8B024D0AC02D
:104E900082C083851A82851B83E0F8A3E0F9C3EA08
:104EA0009CEB9D5010C3EC98ED99401BC3EA98EB26
:104EB000995014800EC3EA98EB994007C3EC98ED23
:104EC000994004790180027900D083D08222EAC31C
:104ED0009CFAEB9DFB2274EF1248F7900A79E0648C
:104EE000086005E06407702A9061C8E06024900AB9
:104EF000A7E0F4601DE0F875F003A4C8AAF02AF951
:104F000074A928FE740A39FF8E828F83A3A3A3E0BD
:104F10007003025006906060E0C0E0EE2468F58205
:104F2000EF3400F583D0E0F0750E1C750F0C750A98
:104F300000750B00E5D914F50CE5D95403F51060A4
:104F40001774036510605CE50C6010EE2467F58251
:104F5000EF3400F583E07003024FEB900C17E06430
:104F600001602AEE2482F582EF3400F583E06004CC
:104F7000780480027800850C0AE50AC398FA95E067
:104F8000FB1265678A0A8B0BEA450B70051268A352
:104F90008074EE2482F582EF3400F583E070048A99
:104FA0000E8B0FE50C6012850E82850F83F50DE5E3
:104FB000D9F0A3150DE50D70F6EE2482F582EF34DD
:104FC00000F583E0604474FC250CF50C780E124A61
:104FD0009EAC0CA910EEFAEFFB12673B740212486C
:104FE0004AE97026AA0AAB0B125E23793D8E828FA6
:104FF00083A3A3A3A3E0FA7B0012643BEEFAEFFBCA
:105000001266B712674D790080747403651060569C
:10501000850C127513007812124A9EAC0EAD0FAAC1
:105020000AAB0B126717740212484AEE2468F58225
:10503000EF3400F583E064807004747F8001E0F554
:105040000E780E124AA2E510F50E780E124AA2A9A9
:105050000CAC0AAD0B900AA7E0FA7B001263FF7458
:105060000212484A8013900A79E06408600BAC0E83
:10507000AD0FEEFAEFFB1267A71268AF79017F0A56
:105080000249A374F51248F774FC124834EAFEEBA7
:10509000FF890AA2AFE433F50BC2AF806AEE246346
:1050A000F8EF3400F97A007B00A2AFE433F50CC2CC
:1050B000AF88828983E0FCA3E0FDEC4D603A8882F2
:1050C0008983E0FAA3E0FB8A828B83E0FCA3E0FD06
:1050D00088828983ECF0A3EDF08A828B83E4F0A3CD
:1050E000F088828983E0FCA3E0FDEC4D700A8882A1
:1050F0008983A3A3E4F0A3F0E50CA2E092AF125ED3
:1051000023900BBAE004F0EE2463F582EF3400F54F
:1051100083E0F8A3E0F9E849603DEE2463F582EF0F
:105120003400F583E02402FAA3E03400FBEA240211
:10513000F50CEB3400F50D780C124A9E8A828B83B5
:10514000E0FCA3E0F9EEFAEFFB1266DB7402124812
:105150004AE9700302509D900BBAE06063900BBB6C
:10516000E0F8900BBAE0C398500C7402650A7050D6
:10517000900BBCE0604A8E828F83A3A3A3A3E0853B
:105180001A82851B83F0A3E4F0900BBAE0F8740256
:1051900012487FE8F0A3E4F0900BBAE0F8900BB966
:1051A000E028F0740212487FAC82AD83851A8285B4
:1051B0001B83AA82AB83790112640B900BBAE4F0D3
:1051C000E50BA2E092AF740412484A024D0AFFFFB9
:1051D0008521878522C622C0E0C0D0E8C0E0E9C0B2
:1051E000E0EAC0E0EBC0E0ECC0E0EDC0E0EEC0E023
:1051F000C00AC00BC00CC00DC082C083C0F0A2AFFB
:10520000E433FEC2AF759B00906182E0A2E05012D1
:10521000E591A2E0500C7591FE74016521700312B6
:105220004ED6E0A2E55051E591A2E5504B7591DFD5
:10523000900A79E064076005E064087023740165F2
:105240002170357901900AA7E0FA75F003A4CAA885
:10525000F028FB74A92AFA740A3BFB1250838018C9
:10526000E0640D7013900A9BE004F064287002E47F
:10527000F07A00E0F91268B5906182E0A2E640039E
:1052800002531EE591A2E6400302531E7591BF90A2
:105290000A79E0640570081267DD1267E98003127D
:1052A00067E3752100126843E9900A7AF0790012E9
:1052B00068371266157A017B00900A78E0F9125A75
:1052C000F3907803E064427055900C1BE014F0708A
:1052D0004DC2AF1252D600782AD0E0F618D0E0F6D0
:1052E000E59F54077005750BFF8003750B7FC4C0E5
:1052F000E07829E6F50A08E6550BF50B740B780AF9
:10530000124812D0E0250AF8906270E0A2E740F857
:10531000E8C333906272F0906270E0D2E0F0906186
:1053200081E0A2E35009E5E9A2E3500375E9F7A3A0
:10533000E0A2E75009E591A2E7500375917FEEA244
:10534000E092AFD0F0D083D082D00DD00CD00BD073
:105350000AD0E0FED0E0FDD0E0FCD0E0FBD0E0FAE7
:10536000D0E0F9D0E0F8D0D0D0E032C0E0C0D0C07A
:1053700082C083906183E0A2E05009E5BFA2E050C3
:105380000375BFFEE0A2E15009E5BFA2E15003753D
:10539000BFFDE0A2E25009E5BFA2E2500375BFFBEA
:1053A000E0A2E35009E5BFA2E3500375BFF7E0A216
:1053B000E45009E5BFA2E4500375BFEFE0A2E55059
:1053C00009E5BFA2E5500375BFDFE0A2E65009E59D
:1053D000BFA2E6500375BFBFD083D0828088C0E0F3
:1053E000C0D0E8C0E0E9C0E0EAC0E0EBC0E0ECC05B
:1053F000E0EDC0E0C0F0E5A7A2E6500FE5A1A2E60F
:10540000500953A7BF75A1BF125443E5A7A2E550A9
:105410000CE5A1A2E5500653A7DF75A1DFE5A7A221
:10542000E15009E5A1A2E1500375A1FDE5A7A2E2C3
:10543000500CE5A1A2E2500653A7FB75A1FBD0F0EA
:1054400002535474F81248F7752101900A79E06408
:1054500006701512676B8A828B83A3A3A3A3A3A3F1
:10546000E0FAA3E0FB1267CBA2AFE433FED2AF9029
:105470000A7FE0640170187A207B00900A78E0F9D6
:10548000125B9B7A207B00900A78E0F9125AF9901F
:105490006182E0D2E6F0900C18E0602185C622809F
:1054A00016900A7EE064017008E5C654F84405F5DC
:1054B000C653BEFC1251D07401652160E4EEA2E037
:1054C00092AF7F010249A3FF8E238F248582288516
:1054D0008327851A82851B83E0CEA3E0CF852882AF
:1054E000852783EBC9EAC8EDCBECCA75F010C3E899
:1054F00033C8E933C9EA33CAEB33CBC3EA9EF52696
:10550000EB9FF525B35004AB25AA26EC33CCED3345
:10551000CDD5F0DAAE23AF242274E91248F774F83F
:10552000124834851A82851B83ECF0A3EDF08A0AB9
:105530008B0B900A79E024F7C394055006750A0195
:105540000256B012676B8A0C8B0DAE0CAF0DEE4F8E
:1055500070030256ADAC0AAD0B740212487FAA82EA
:10556000AB831267FB8E828F83A3A3750EFF750F2B
:10557000FF7510FF751100780E1246DE7402124896
:105580007F7512FF7513FF7514FF751500781212E1
:1055900046DE780E79121244D1502A780E79121212
:1055A000468B750A01750BC8750C00750D00780ADD
:1055B000790E1244D15052850E0A850F0B85100CBE
:1055C00085110D80507516017517C875180075196D
:1055D0000085120A85130B85140C85150D780A7940
:1055E0000E12468B7816790A1244D1401C750A00B7
:1055F000750B00750C00750D01780A791212468B37
:10560000780A790E124652800C750A01750B0075E6
:105610000C00750D007409780A124633750E19F5E1
:105620000FF510F511780A790E1245908E828F834E
:10563000A3A3A3A3A3A3E0F8A3E0F97AD07B03126A
:1056400047A9880E890FE4F510F511780A790E1232
:105650004652740612487FE0F8A3E0F97AD07B0343
:105660001247A9E8FA8A0EE4F50F780A790E124477
:10567000D15007780A790E12468B900A79E06408B7
:10568000600AE064066005E06405702D750E0D7813
:105690000E790A1244D14021750EF4750FFF751072
:1056A000FF7511FF780A790E124652800C750A00B8
:1056B000750B00750C00750D00851A82851B83E043
:1056C000F8A3E0F5838882780A1247137408124819
:1056D0004A7F100249A374F71248F712680D900C24
:1056E00016E064017010906245E4F0A3F053F4F307
:1056F00043FE0C5390F31267B9E5C654804449F554
:10570000C6E59E547F644970F8906185740FF090EF
:105710000C14E0F47002A3E0604E900C15E06008F9
:1057200014601B14602E8040750A01750B00900CEC
:1057300014E0780A124821E50AF45280802A750A9A
:1057400001750B00900C14E0780A124821E50AF468
:1057500052908014750A01750B00900C14E0780AC1
:10576000124821E50AF452A079007F020249A3748D
:10577000F71248F7E9FEEAFF74016E700C7A807B3D
:1057800000900A78E0F9125AF3906AC0E493F4604A
:1057900008E493F9126609800953C680E59E547F98
:1057A00070FA1267BF900C16E06401700312662154
:1057B000900C14E0F47002A3E0604B900C15E060D4
:1057C0000814601A14602C803D750A01750B009056
:1057D0000C14E0780A124821E50A42808028750AF4
:1057E00001750B00900C14E0780A124821E50A427A
:1057F000908013750A01750B00900C14E0780A1262
:105800004821E50A42A012680D12676B8A0A8B0BC9
:10581000A80AA90BE8496015E5E170FCE82414F535
:1058200082E93400F583E0F46003E0F5E174016F90
:10583000700A7A01900A78E0F9125B6502576A747F
:10584000ED1248F78A0A8B0B8C0C8D0D74131248DD
:105850007F780E124704780A790E1244D17512012E
:105860007513C87514007515005012780A790E1258
:10587000468B7812790A1244D150168010780E792E
:105880000A12468B7812790E1244D14004790180B5
:105890000279007F0C0249A374ED1248F78A0A8B43
:1058A0000B8C0C8D0D741312487F780E1247047800
:1058B0000E790A1244D14011780A790E12468BAA49
:1058C0000AAB0BAC0CAD0D80227512007513007580
:1058D00014007515017812790E12468B7812790A28
:1058E000124652AA12AB13AC14AD1580A68A828B55
:1058F00083750AFF750BFF750CFF750D00780A1292
:1059000046F17F040249A374F51248F78C828D8317
:10591000780A1247048A828B83780A1246B7EA24EF
:1059200004F8EB3400F98C828D83A3A3A3A3E0FCDD
:10593000A3E0FD88828983C3E09CF0A3E09DF0880A
:10594000828983C3E09420A3E0944E40268A828B10
:1059500083750AFF750BFF750CFF750DFF780A1232
:1059600046788A828B83A3A3A3A3E02420F0A3E03C
:10597000344EF00258ED74F51248F7E9FE900BCE64
:10598000E0FAA3E0FBEEC333F8E433F974D228F570
:1059900082748039F583E02AF50AA3E03BF50B78A1
:1059A0000A124A9E7A407B427C0F7D001254C874D2
:1059B0000212484A8A0A8B0B8C0C8D0D7410780ADF
:1059C00012461AAA0AAB0B7F040249A374F11248CB
:1059D000F78A0E8B0F8C108D11740F12487FE0FA2E
:1059E000A3E0FB741112487FE0F50AA3E0F50B7801
:1059F0000A124A9EEA2401F50AEB3400F50BE4F59D
:105A00000CF50D780E790A124510750A71750B02A6
:105A1000780E790A124510AA0EAB0FAC10AD111218
:105A200054C8740212484A8B0BEA450B60047A0191
:105A300080027A00EC2AFCED3400FD741312487FDA
:105A4000E0F8A3E0F9E8FEE9FFECF8EDF97A717B04
:105A5000021247A9880A890B8E828F83780A12471F
:105A600013ECF8EDF97A717B021247A98A0A8B0BC5
:105A70007405780A1248218E828F83A3A3A3A3E51D
:105A80000AF0A3E50BF07F080249A3C082C083E9B6
:105A9000906000F0D083D082221244A712C103127A
:105AA00044A71CC1031244A75AC1031244A7A3C1AF
:105AB000031244A7DDC1031244A737C2031244A74F
:105AC00058C2031244A761C2031244A7AEC2031214
:105AD00044A7D7C2031244A7E1C2031244A74DC38F
:105AE000031244A7DFC3031244A729C4031244A727
:105AF0005FC4031244A7EBC4031244A72CC50312CE
:105B000044A763C5031244A775C5031244A794C5EF
:105B1000031244A79DC5031244A76AC6031244A7F3
:105B20007FDA031244A776DB031244A790DB03124B
:105B300044A7A1DB031244A7C0DD031244A7DFDDA5
:105B4000031244A75D84041244A79384041244A75B
:105B5000C984041244A71486041244A763FF0212E6
:105B600044A779FF021244A783FF021244A7CDFF86
:105B7000021244A75493041244A726DF031244A739
:105B80003BDF031244A7EBDF031244A72BE0031211
:105B900044A744E0031244A77FE0031244A7CCE0EB
:105BA000031244A7FEE0031244A740E1031244A7F6
:105BB00041E3031244A7998F041244A7C28F041231
:105BC00044A7F18F041244A70990041244A74B90F4
:105BD000041244A7D4F3031244A704F4031244A705
:105BE00017F4031244A746F4031244A763F4031204
:105BF00044A7F8F4031244A791F5031244A717F63B
:105C0000031244A7AA94041244A70B94041244A7B5
:105C100087D7011244A7ECD9011244A78DDB0112EA
:105C200044A741DC011244A7D4DC011244A759DD8A
:105C3000011244A77EDD011244A7D4E0011244A75B
:105C40005AE1011244A78DE2011244A7C7E20112F2
:105C500044A7FCE2011244A7BCE4011244A719E5E1
:105C6000011244A762E5011244A7CDE5011244A741
:105C70003EE6011244A770E6011244A788E601122D
:105C800044A7D1E7011244A7E1E7011244A7FCE8C9
:105C9000011244A71EE9011244A754E9011244A7C6
:105CA00008EB011244A795EB011244A7D4EB0112B3
:105CB00044A7F8EC011244A7A58E041244A7B58EA0
:105CC000041244A7478F041244A76E8F041244A7FE
:105CD0008E8F041244A76194041244A7A094041266
:105CE00044A7DFFF011244A7EAFF011244A7EA9488
:105CF000041244A77490041244A78490041244A789
:105D00009690041244A74891041244A7A18D04124E
:105D100044A7268E041244A78C8E041244A71A822C
:105D2000041244A74282041244A77282041244A7B8
:105D3000D182041244A71F83041244A7598304127A
:105D400044A78D83041244A7E983041244A74F8B10
:105D5000041244A7798B041244A7DC8B041244A7D5
:105D6000EE8B041244A73E8C041244A77C8C0412D0
:105D700044A77F8C041244A7D494041244A7E4944B
:105D8000041244A7E794041244A7F87F001244A722
:105D9000E0F9031244A77BFB031244A7DCFB0312C8
:105DA00044A722FC031244A798C6031244A7D2C6F4
:105DB000031244A7EFC6031244A7EBC7031244A77C
:105DC00088C8031244A775C9031244A7BBCA0312AB
:105DD00044A7E0CA031244A749CB031244A7A4CBAB
:105DE000031244A709BA031244A746BA031244A7F0
:105DF00061BA031244A732BB031244A720BC0312AA
:105E000044A7CDBD031244A73FBE031244A727BF3A
:105E1000031244A7AEBF031244A7CEC0031244A787
:105E2000AD89041244A7FF89041244A7898A041289
:105E300044A7F08A041244A725FC031244A74FFC90
:105E4000031244A71DFD031244A7F8FD031244A743
:105E5000A4AA031244A76BAB031244A7A2AB03127C
:105E600044A7CCAB031244A72CAC031244A782ACCA
:105E7000031244A7E7AC031244A77FAD031244A763
:105E80008EAE031244A725B0031244A7B2B003128A
:105E900044A719B1031244A730B1031244A74AB270
:105EA000031244A788B2031244A701CF021244A7E9
:105EB00082D2021244A70AD4021244A761D4021269
:105EC00044A780D4021244A7FED4021244A794D659
:105ED000021244A779D7021244A787DB021244A713
:105EE0005DDC021244A70080011244A7BB840112AA
:105EF00044A7C78C011244A75F8E011244A70390E8
:105F0000011244A74490011244A71391011244A71F
:105F10005391011244A72F92011244A77A920112C1
:105F200044A7A792011244A7F092011244A74194FA
:105F3000011244A7719F011244A7B7A1011244A7FF
:105F400030A3011244A79CA3011244A7B4A30112D9
:105F500044A7DDA3011244A710A4011244A74BA437
:105F6000011244A785A4011244A7B1A5011244A7B8
:105F700040A6011244A74E86041244A76586041267
:105F800044A79686041244A7D186041244A7FB8630
:105F9000041244A72587041244A73C87041244A78F
:105FA0005387041244A76A87041244A793870412F4
:105FB00044A7A687041244A7BC87041244A7CF872E
:105FC000041244A7F687041244A70198031244A7B9
:105FD0000599031244A73D99031244A7609903123F
:105FE00044A76B99031244A78E99031244A79D9A64
:105FF000031244A7729B031244A7ED9B031244A70C
:10600000759C031244A7B09C031244A7E79C03129B
:1060100044A7759D031244A74E9E031244A7AE9E4B
:10602000031244A7B99E031244A7389F031244A742
:106030003B9F031244A73E9F031244A7CD9F031228
:1060400044A7D09F031244A700A0031244A72AA08C
:10605000031244A718A1031244A7CAA1031244A71C
:1060600019D1031244A741D1031244A76FD10312DF
:1060700044A7A6D1031244A704D2031244A74FD2C7
:10608000031244A79AD2031244A7DAD2031244A7F8
:1060900020D3031244A74ED3031244A70BD40312F8
:1060A00044A715D4031244A722D4031244A755D4FD
:1060B000031244A721D5031244A72DD5031244A7E8
:1060C00045D5031244A74FD5031244A74E9104129D
:1060D00044A75C91041244A77491041244A78C91C4
:1060E000041244A775A3021244A721A4021244A7D4
:1060F0009CA4021244A7BDA5021244A7F9A502124E
:1061000044A7A2A6021244A789A7021244A7EDA899
:10611000021244A744A9021244A7C5A9021244A727
:10612000B5AA021244A702AB021244A788AB02121E
:1061300044A7BAAB021244A7CEAD021244A710AED8
:10614000021244A72EAE021244A7B1AE021244A717
:1061500085AF021244A74DB0021244A7E6B2031263
:1061600044A7B9B3031244A762B4031244A7B5B459
:10617000031244A765B5031244A7F1B5031244A75F
:10618000DDB6031244A70CB7031244A71FB80312CD
:1061900044A767B8031244A73CB9031244A778B9CF
:1061A000031244A794B9031244A7D092041244A73F
:1061B0003BF0031244A751F0031244A777F00312F7
:1061C00044A793F1031244A79DF1031244A7D2F20E
:1061D000031244A7CAF3031244A7F2CB031244A745
:1061E00022CD031244A755CD031244A79FCD03121D
:1061F00044A766CF031244A71DED011244A787ED03
:10620000011244A7E6EE011244A7F6EE011244A7DC
:1062100023EF011244A77AEF011244A723F00112E1
:1062200044A72AF1011244A7F4F1011244A754F340
:10623000011244A797F3011244A73CF4011244A7AA
:1062400089F4011244A7AFF4011244A7BDF601126C
:1062500044A7C2F6011244A7C7F8011244A714F9D3
:10626000011244A787F9011244A7BAF9011244A701
:106270005CFA011244A705FB011244A73DFB011281
:1062800044A740FB011244A788FB011244A7C8FBA6
:10629000011244A71FFC011244A70CFD011244A7E0
:1062A00024FD011244A76CFD011244A782FD0112D6
:1062B00044A7C9FD011244A7DDFE011244A76AFFED
:1062C000011244A7B5FF011244A77EA6011244A7FC
:1062D0008AA6011244A7C5A6011244A70AA7011263
:1062E00044A7CAA7011244A750A8011244A7B5A801
:1062F000011244A7E1A8011244A71AA9011244A758
:1063000058AB011244A73CAD011244A722AF0112C1
:1063100044A765B0011244A7B3B2011244A7C5B3A4
:10632000011244A710B5011244A720B6011244A7D8
:106330003DB6011244A778B6011244A79AB60112DD
:1063400044A7FDB6011244A7BEBB011244A753BC2B
:10635000011244A7A4BC011244A7CBBC011244A75C
:106360001DBD011244A73BBD011244A795BD0112FA
:1063700044A794BE011244A718BF011244A7D6D562
:10638000031244A7E0D5031244A723D6031244A75F
:106390003ED6031244A7CED6031244A7F6D6031264
:1063A00044A733D7031244A76AD7031244A793D74D
:1063B000031244A708D8031244A71DD8031244A708
:1063C00032D8031244A763D8031244A777D8031224
:1063D00044A79CD8031244A7D6D8031244A702D9D5
:1063E000031244A73AD9031244A7B9D9031244A708
:1063F00002DA031244A72CDA031244A757DA031275
:1064000044A7888C041244A70080031244A72E805E
:10641000031244A77C81031244A75C82031244A7A1
:106420007B82031244A7F882031244A73B83031222
:1064300044A79184031244A75285031244A7D98725
:10644000031244A77A88031244A77089031244A751
:106450006D8A031244A7C78B031244A7528C031200
:1064600044A76AFE031244A7D3FE031244A727FFE2
:10647000031244A74EFF031244A77FFF031244A751
:10648000B3E3031244A720E4031244A767E4031212
:1064900044A77FE5031244A77BE6031244A75EE707
:1064A000031244A73BA2031244A77DA2031244A7F0
:1064B0004FA3031244A728A4031244A722A5031242
:1064C00044A704A6031244A76DA6031244A723A75A
:1064D000031244A797A7031244A703A8031244A7D3
:1064E0002CA8031244A7A6A8031244A73FA903128D
:1064F00044A7A4A9031244A7B9A9031244A7FFA95A
:10650000031244A718AA031244A77DAA031244A7A2
:1065100080AA031244A7E7F6031244A70FF7031259
:1065200044A74DF7031244A70BF8031244A772F8CF
:10653000031244A78EF8031244A7B6F8031244A727
:10654000E6F8031244A7F5F8031244A772F9031200
:1065500044A798F9031244A71394021244A7F19593
:10656000021244A72398021244A75F98021244A77C
:106570008C98021244A77699021244A7C19902127C
:1065800044A70C9A021244A71E9A021244A75E9ACC
:10659000021244A7939A021244A7E19A021244A756
:1065A000109B021244A7339B021244A7809B021245
:1065B00044A7059C021244A71F9E021244A75EA096
:1065C000021244A79FA0021244A741A2021244A7AC
:1065D00082A2021244A7F5A2021244A74BA3021200
:1065E00044A7D4EA021244A7D2EB021244A76BF2EA
:1065F000021244A78CF4021244A757F6021244A7D1
:10660000BFF7021244A77FBF011244A72EC0011298
:1066100044A75BC0011244A7A1C0011244A7E1C175
:10662000011244A777C3011244A7F1C3011244A782
:106630000CC4011244A787C4011244A7E1C501128A
:1066400044A741C7011244A747C8011244A7A8C9DB
:10665000011244A7C1C9011244A71FCA011244A7CD
:106660000DCB011244A740CB011244A7B0CB0112BD
:1066700044A72ACC011244A774CC011244A73ECDF2
:10668000011244A713CE011244A7F2CE011244A76F
:106690007DCF011244A7EBCF011244A75FD00112B6
:1066A00044A78AD0011244A749D1011244A7AED20F
:1066B000011244A7CBD2011244A7EAD2011244A787
:1066C000DBD3011244A700D4011244A72AD401123B
:1066D00044A7A5D4011244A7FFD4011244A768D649
:1066E000011244A716D7011244A757D7011244A795
:1066F00000DD021244A74EDD021244A75ADD021249
:1067000044A738DE021244A769DE021244A79ADECB
:10671000021244A71ADF021244A752DF021244A752
:10672000A4DF021244A7E1DF021244A7FEE1021235
:1067300044A724E4021244A70FE6021244A7F9E793
:10674000021244A7F17F001244A70080021244A75E
:106750003080021244A70987021244A78E880212D1
:1067600044A78B8E021244A7738F021244A7B08FE6
:10677000021244A7D38F021244A70490021244A726
:106780000D90021244A71790021244A7059102121D
:1067900044A7FB91021244A7C46A001244A7C36E27
:1067A000001244A7C96E001244A70476001244A741
:1067B0001D7B001244A76DEC031244A703ED0312E6
:1067C00044A719ED031244A78FED031244A703EE6B
:1067D000031244A741EE031244A7B5EE031244A7E7
:1067E0002EEF031244A737EF031244A743EF03121F
:1067F00044A758EF031244A796EF031244A7ACEF47
:10680000031244A70BF0031244A720E8031244A785
:106810002DE8031244A747E8031244A786E80312B1
:1068200044A7C4E8031244A729E9031244A73EE998
:10683000031244A749E9031244A756E9031244A7E7
:106840006DE9031244A77BE9031244A786E903120A
:1068500044A792E9031244A7A1E9031244A7ACE9B3
:10686000031244A7CFE9031244A776EA031244A710
:1068700086EA031244A7A0EA031244A7BDEA031262
:1068800044A7D9EA031244A7FEEA031244A709EB7E
:10689000031244A71EEB031244A732EB031244A7D2
:1068A00093EB031244A799EB031244A79FEB031247
:1068B00044A7A5EB031244A7BDEB031244A7F0EBDA
:1068C000031244A7D7C0021244A75BC1021244A717
:1068D0000AC2021244A769C3021244A78AC502125F
:1068E00044A776C6021244A7ABC6021244A7CDC67F
:1068F000021244A77CC7021244A774C9021244A71B
:106900009DC9021244A72FCA021244A761CA0212EB
:1069100044A76ECA021244A7C5CA021244A7EBCA12
:10692000021244A758CD021244A75BCE021244A71C
:10693000B3CE021244A766B2021244A770B3021289
:1069400044A757B4021244A761B4021244A783B407
:10695000021244A78FB4021244A728B6021244A719
:1069600057B6021244A773B7021244A7CCB702125B
:1069700044A732B9021244A711BA021244A76DBA51
:10698000021244A7DABA021244A715BB021244A7A6
:1069900054BB021244A70DBE021244A727BE021226
:1069A00044A7B3BE021244A7C1BE021244A71ABF35
:1069B000021244A728BF021244A79BBF021244A799
:1069C000FFBF021244A749C0021244A7D38C03128E
:1069D00044A7F58C031244A71B8F031244A73092DF
:1069E000031244A74893031244A7FB93031244A73E
:1069F000DD94031244A70888041244A72D880412CA
:106A000044A79F88041244A7E9F7021244A7F2F7AB
:106A1000021244A7FBF7021244A7D2F8021244A7BD
:106A200083FA021244A7B9FA021244A7F3FA021237
:106A300044A729FB021244A763FB021244A797FB59
:106A4000021244A7C3FB021244A70CFC021244A783
:106A500046FC021244A78FFC021244A7E7FC021274
:106A600044A71CFD021244A777FD021244A7B1FD02
:106A7000021244A702FE021244A738FE021244A7E3
:106A800072FE021244A7A0FE021244A7C3FE021225
:106A900044A72592041244A75192041244A7AC9231
:106AA000041244A7B692041244A7C692041244A743
:106AB000C5FF031244A7D37F00FFFFFFFFFFFFFFC7
:106AC000FFFFFFFF74F412488B907803E06442707C
:106AD00055900C1BE014F0704DC2AF126ADE0078C6
:106AE0002AD0E0F618D0E0F6E59F54077005750B44
:106AF000FF8003750B7FC4C0E07829E6F50A08E63D
:106B0000550BF50B740B780A124812D0E0250AF8E1
:106B1000906270E0A2E740F8E8C333906272F090B0
:106B20006270E0D2E0F0900AA7E0F47003026EBE5B
:106B3000E0F875F003A4C8AAF02AF974A928FE7435
:106B40000A39FFEE2401F582EF3401F583E0F8A362
:106B5000E0F9E849601EEE2401F582EF3401F58387
:106B6000E0FAA3E0FBEE2400F582EF3401F583E0C8
:106B7000F9125AF38E828F83A3A3A3A3A3A3A3E046
:106B8000F8A3E0F98E828F83A3A3A3A3A3E8F0A3C5
:106B9000E9F0906054E0900A80F0906055E0900A2F
:106BA00081F0906056E0900A82F0906057E0900A81
:106BB00083F0906058E0900A84F0906059E0900A69
:106BC00085F090605AE0900A86F090605BE0900A51
:106BD00087F090605CE0FC900A88F090605DE0FBDC
:106BE000900A89F090605EE0FD900A8AF090605F04
:106BF000E0FA900A8BF0900A86E08C0A250AF8E405
:106C00003400F98D0AE8250AF8E93400F98B0AE81E
:106C1000250AF8E93400F98A0AE8250AFAE9340075
:106C2000FBEE24F6F582EF3400F583E02AF0A3E0D2
:106C30003BF08C0AEE24F8F582EF3400F583E02572
:106C40000AF0A3E03400F0EE24FAF582EF3400F508
:106C500083E02401F0A3E03400F0EE24FEF582EF9F
:106C60003400F583E0F8A3E0F9E849604290600061
:106C7000E0C333FCE433FDE82CF582E93DF583E025
:106C80002AF0A3E03BF0906000E0FA900A88E0FC74
:106C9000EAC333FAE433FBE82AF8E93BF9E8244A8B
:106CA000F582E93400F583E02CF0A3E03400F090A5
:106CB0000A86E07011900A89E0700BA3E07007A3C8
:106CC000E07003026DBB8E828F83A3A3A3A3A3E016
:106CD000F8A3E0F9EE240DF582EF3400F583E02807
:106CE000F8A3E039F9EE240BF582EF3400F583E8E0
:106CF000F0A3E9F0EE240FF582EF3400F583E4F021
:106D0000EE241CF582EF3400F583E06401701EEE82
:106D10002420F582EF3400F583E0F8A3E0F9EE24B7
:106D20001DF582EF3400F583E8F0A3E9F0900A81C5
:106D3000E06052EE241CF582EF3400F5837401F01C
:106D4000EE2469F582EF3400F583E07038EE2473A9
:106D5000F582EF3400F583E0702BEE247FF582EFAF
:106D60003400F583E0701EEE2420F582EF3400F548
:106D700083E0F8A3E0F9EE241DF582EF3400F583FB
:106D8000E8F0A3E9F0906062E07003026E6E8E821C
:106D90008F83E0F8A3E0F9E82406FCE93400FDE87D
:106DA0002402FAE93400FB1267EF8E828F83E0F849
:106DB000A3E0C82412F582E8026E74900A88E060AD
:106DC0003AEE240FF582EF3400F583E4F0EE241C54
:106DD000F582EF3400F583E064017040EE2420F585
:106DE00082EF3400F583E0F8A3E0F9EE241DF5828C
:106DF000EF3400F583E8F0A3E98020EE24FCF5826F
:106E0000EF3400F583E02401F0A3E03400F0EE2439
:106E10001DF582EF3400F583E4F0A3F0EE240BF5CA
:106E200082EF3400F583E0F8A3E0F98E828F83A32C
:106E3000A3A3A3A3E0687003A3E0696003026D2D20
:106E4000EE240FF582EF3400F583E060128E828F1E
:106E500083A3A3A3A3A3E064057002A3E060047965
:106E6000088002793EEEFAEFFB1266BD8050EE24F8
:106E70001DF582EF3400F583E4F0A3F09061C8E0E3
:106E80006006124ED6E970F48E828F83A3A3A3E02E
:106E9000602C9061C8E070069060607480F0EEFA3B
:106EA000EFFB1267ADE9640160147902EEFAEFFBC3
:106EB0001250831267A1E96401600312674D7F04D9
:106EC00002495D53BFEF0244A474EC12488B900A50
:106ED000A7E0F875F003A4C8AAF02AF974A928FE5F
:106EE000740A39FF9061D0E07013EE2463F582EFED
:106EF0003400F583E0F8A3E0F9E849600FEE241DC3
:106F0000F582EF3400F583E4F0A38053EE2469F5B5
:106F100082EF3400F583E07047EE2473F582EF349E
:106F200000F583E0703AEE247FF582EF3400F583BC
:106F3000E0702DEE241CF582EF3400F583E064014F
:106F4000701EEE2420F582EF3400F583E0F8A3E014
:106F5000F9EE241DF582EF3400F583E8F0A3E9F0A3
:106F60008E828F83A3A3A3A3A3E0F8A3E0F9EE246A
:106F70001DF582EF3400F583E028F8A3E039F9E845
:106F8000240108E93400F9EE2407F50CEF3400F58C
:106F90000D850C82F583E8F0A3E9F0EE240BF58271
:106FA000EF3400F583C3E098A3E09950358E828FCB
:106FB00083A3A3A3A3A3A3A3C082C083EE240BF542
:106FC00082EF3400F583E0F8A3E0F9D083D082E0CB
:106FD000C398F8A3E099F9C3E894AAE9941050354E
:106FE000803BEE240BF582EF3400F583C082C08332
:106FF0008E828F83A3A3A3A3A3A3A3E0F8A3E0F9A6
:10700000D083D082E0C398F8A3E099F9C3E894ABA9
:10701000E994105008900BBEE064017030EE241D1E
:10702000F582EF3400F583E4F0A3F08E828F83A322
:10703000A3A3A3A3E02401F8A3E03400F98E828F78
:1070400083A3A3A3A3A3A3A3E8F0A3E9F0EE24736F
:10705000F582EF3400F583E0640160030272C4EE50
:107060002474F582EF3400F583124AB58E828F8343
:10707000A3A3A3A3A3A3A3E0FCA3E0FD8E828F831D
:10708000A3A3A3A3A3E0FAA3E0FB124E8F74021202
:10709000484AE970030272C4EE2474F8EF3400F930
:1070A000880A890B8882F583E0F8A3E0F9850C82D1
:1070B000850D83E8F0A3E9F0EE2476FCEF3400FDC3
:1070C000EEFAEFFB1266C9EE247BF582EF3400F591
:1070D00083E0F8A3E0F9EE2420F582EF3400F58395
:1070E000E8F0A3E9F0EE241CF582EF3400F583E428
:1070F000F0EE241DF582EF3400F583E4F0A3F0EE0A
:10710000240FF582EF3400F5837401F0850C82853D
:107110000D83E0F8A3E0F9EE240DF582EF3400F5DD
:1071200083E028F8A3E039F9EE240BF582EF340070
:10713000F583E8F0A3E9F08E828F83A3A3A3A3A332
:10714000E0FCA3E0FD850A82850B83E0FAA3E0FB67
:10715000124ECE8A0A8B0BEE242EF582EF3400F508
:1071600083E0FAA3E0FBE4F50CF50D8A0E8B0FF536
:1071700010F511780A790E124510EE2477F582EF9A
:107180003400F583E0F50EA3E0F50F780A790E12CE
:107190004652EE2479F582EF3400F583E06A7003FD
:1071A000A3E06B7044EE247DF582EF3400F583E0BC
:1071B000F8A3E0F9EE2432F582EF3400F583E068BD
:1071C0007003A3E0697022EE247BF582EF3400F5B2
:1071D00083E0F8A3E0F9EE2430F582EF3400F58384
:1071E000E0687003A3E0696052EE247DF582EF341D
:1071F00000F583E0F50EA3E0F50F7404780E124855
:1072000012780E124A9EEE247BF582EF3400F5834D
:10721000124AB5EE2479F582EF3400F583E0FCA341
:10722000E0C313FDEC13FC8E828F83A3A3A3A3E022
:10723000FA7B00126441740412484AEE2476F58207
:10724000EF3400F583E0C0E0EE242BF582EF34004C
:10725000F583D0E0F0EE2479F582EF3400F583E099
:10726000F8A3E0F9EE242EF582EF3400F583E8F080
:10727000A3E9F0EE247BF582EF3400F583E0F8A378
:10728000E0F9EE2430F582EF3400F583E8F0A3E96D
:10729000F0EE247DF582EF3400F583E0F8A3E0F909
:1072A000EE2432F582EF3400F583E8F0A3E9F0EE46
:1072B000FAEFFB1266CFEE2473F582EF3400F5830C
:1072C000E4F08016EE242EF582EF3400F583E0F52D
:1072D0000AA3E0F50BE4F50CF50DEE2418F582EFAA
:1072E0003400F583780A1244BC701EEE241FF58228
:1072F000EF3400F583E0F8EE241DF582EF3400F55D
:1073000083E0687002A3E06039EE2412F50EEF34DA
:1073100000F50F780E124A9EEE2410F582EF34002D
:10732000F583124AB5EE241DF582EF3400F5831281
:107330004AB5AA0AAB0BAC0CAD0D1259CC740612AF
:10734000484AEE2418F582EF3400F583780A124794
:1073500013EE241DF582EF3400F583E0C0E0EE2447
:107360001FF582EF3400F583D0E0F0EE2412FCEF3D
:107370003400FD8E828F83E02402FAA3E03400FB08
:10738000125907906062E060147C1C7D818E828FB0
:1073900083E02402FAA3E03400FB1259078E828FA7
:1073A00083E0F8A3E0F988828983A3A3E82408FC9A
:1073B000E93400FD74061247478E828F83E0240271
:1073C000F8A3E03400F9E8FAE9FBEE241DF582EFBA
:1073D0003400F583E0F512A3E0F513E4F514F51598
:1073E000750E01F50FF510F5117812790E1246524F
:1073F0007812790A1245108A828B837812124678A5
:107400008A828B83750EFF750FFF7510FF780E1241
:1074100046F1900BB8E064016003027551790112E6
:1074200068378E828F83E0FAA3E0FB750AFF750B45
:10743000FF750CFF750DFFEA240EF582EB3400F5A5
:1074400083780A124713EA2412F8EB3400F9E8FAB9
:10745000E9FBEE2412F582EF3400F583780A124737
:1074600004E50A75F0E2A4C50AA8F075F004A428A2
:10747000F875F0E2E50BA428F50B8A828B83E025F2
:107480000AF0A3E0350BF0EE2416F582EF3400F598
:1074900083E0F50AA3E0F50B7404780A124812E5BC
:1074A0000A2401F8E50B3400F98A828B83E028F086
:1074B000A3E039F0906062E08E828F8370030275E2
:1074C000C5E0F8A3E0C82412F582E83400F583E0B3
:1074D0002410F0A3E03401F0EE240FF582EF340025
:1074E000F583E06032EE242BF582EF3400F583E083
:1074F000F875F071A4C8AAF075F002A42AF98E827A
:107500008F83E0FAA3E0CA2412F582EA3400F583FF
:10751000E028F0A3E039F08E828F83E0F8A3E0C882
:107520002414F582E83400F5837410F08E828F8382
:10753000E0F8A3E0C82416F582E83400F58374511E
:10754000F0A37466F0EEFAEFFB124D0F7900027BA8
:1075500018750E50750F00751000780E790A1244D8
:10756000D14003027422EE241DF582EF3400F5832E
:10757000E0F8A3E0F9E8496003027422780A124AAD
:107580009AEEFAEFFB1266D5740412484AE96401D8
:107590006003027422EE240FF582EF3400F583E0DD
:1075A00060128E828F83A3A3A3A3A3E0640570025D
:1075B000A3E0600479088002793EEEFAEFFB1266E0
:1075C000BD79018089E0F8A3E0C82412F582E8348F
:1075D00000F583E02410F8A3E034FFF97A717B0210
:1075E0001247A9880A890BEE242EF582EF3400F5A4
:1075F00083E0F8A3E0F9C3E50A98E50B995003028C
:1076000074D880B074EC12488BEAFEEBFF8C828D4C
:1076100083E0F8A385820A85830B603B1470030224
:1076200077EC147003027AE114700302786824FD89
:107630007003027981147003027B181470030279BD
:10764000D824FE70030279861470030279C814707E
:1076500003027A64027B07EE2476F512EF3400F51C
:1076600013E0851282851383F0850A82850B83A33C
:1076700085820A85830BEE2477F510EF3400F5112F
:107680007902AC0AAD0BAA10FB1266E78A0A8B0BD3
:10769000EE2479F50EEF3400F50F7902AC0AAD0B4C
:1076A000AA0EFB1266E78A0A8B0B7902AC0AAD0BB5
:1076B000EE247BFAEF3400FB1266E78A0A8B0BEEAE
:1076C000247DF50CEF3400F50D7902AC0AAD0BAA60
:1076D0000CFB1266E78A0A8B0B851282851383E006
:1076E000C333F0851082851183E0F8A3E0F9E8C385
:1076F00033F8E933F9851082851183E8F0A3E9F0C6
:10770000850E82850F83E0F8A3E0F9E8C333F8E93A
:1077100033F9850E82850F83E8F0A3E9F0850C82AA
:10772000850D83E0F50EA3E0F50F7404780E124882
:1077300021850C82850D83E50EF0A3E50FF0EE2484
:1077400074F50CEF3400F50D7902AC0AAD0BAA0C00
:10775000FB1266E7850C82850D83C082C0838E8212
:107760008F83A3A3A3A3A3E0F8A3E0F9D083D082DF
:10777000E0C398F8A3E099F9C3E894FFE9947F4047
:1077800003027842EE247DF582EF3400F583E0F5C4
:107790000AA3E0F50BE4F50CF50DEE247BF582EF82
:1077A0003400F583E02401F50EA3E03400F50FE486
:1077B000F510F511EE2479F582EF3400F583E0F849
:1077C000A3E0F9E8C333F8E933F988128913E4F543
:1077D00014F515780E7912124510780A790E1244B4
:1077E000D14004793B805DEE24738062EE2480F505
:1077F0000CEF3400F50D7402C0E07905AC0AAD0B56
:107800007AB37B0B1266E7EAFCEBFDD0E0F9AA0C39
:10781000AB0D1266E7850C82850D83C082C0838E16
:10782000828F83A3A3A3A3A3E0F8A3E0F9D083D01E
:1078300082E0C398F8A3E099F9C3E894FFE9947F44
:1078400040097928EEFAEFFB027B02EE247FF582F5
:10785000EF3400F5837401F0EE241DF582EF34005F
:10786000F583E4F0A30279D4EE24E1F582EF34004D
:10787000F583E07039EEF8EFF97A8C7B0A8A828B17
:1078800083A3E0C0E0E824E2F582E93400F583D088
:10789000E0F08A828B83A3AA82AB8388828983A348
:1078A000A882A983EA64947003EB640A70CFEE2483
:1078B000E2F582EF3400F583E0A2E0EE401124DD32
:1078C000F582EF3400F583741AF0790D027ADB2427
:1078D00062F582EF3400F583E4F0EE2467F582EF81
:1078E0003400F583E4F0EE24E0F582EF3400F58314
:1078F0007401F07908AC0AAD0BEE249BFAEF34006A
:10790000FB1266E78A0A8B0B7902AC0AAD0BEE24F8
:10791000A3FAEF3400FB1266E78A0A8B0BEE24937E
:10792000F50CEF3400F50D7908AC0AAD0BAA0CFB91
:107930001266E78A0A8B0B7908AA0CAB0D1266ED6A
:10794000EE2487F50CEF3400F50D7904AC0AAD0B8D
:10795000AA0CFB1266E77904AA0CAB0D1266EDEED9
:10796000248BFAEF3400FB1266FFEE2483FAEF3427
:1079700000FB126705900A7BE04480F07904027AEC
:10798000DBEE24DE8045EE2462F582EF3400F583E1
:10799000E4F0EE2467F582EF3400F583E4F0EE24A2
:1079A000D2F582EF3400F583E4F0EE24DCF582EFCB
:1079B0003400F5837401F0EE24D3F582EF3400F542
:1079C00083E4F0790B027B15EE24DFF582EF3400BF
:1079D000F5837401F0027B18EEF8EFF97A8C7B0ADC
:1079E0008A828B83A3E0C0E0E824E2F582E93400D8
:1079F000F583D0E0F08A828B83A3AA82AB8388824E
:107A00008983A3A882A983EA64947003EB640A7053
:107A1000CFEEF8EFF97A8C7B0A8A828B83A3E0FCA5
:107A2000850A82850B83E05CC0E0E824E2F582E908
:107A30003400F583D0E0F0850A82850B83A385822C
:107A40000A85830B8A828B83A3AA82AB838882896F
:107A500083A3A882A983EA64947003EB640A70B9D3
:107A600079098077EE24EAF582EF3400F583E0644B
:107A7000017003027B07850A82850B83E0C0E0EE7C
:107A800024EDF582EF3400F583D0E0F0850A82859D
:107A90000B83A385820A85830B7402C0E0F9AC0ACC
:107AA000AD0BEE24EEFAEF3400FB1266E7EAFCEBD6
:107AB000FDD0E0F9EE24F0FAEF3400FB1266E7EEB9
:107AC00024EAF582EF3400F5837401F0EE24ECF53E
:107AD00082EF3400F583E0703F790CEEFAEFFB8023
:107AE00034EE24F4F8EF3400F9E088828983F0EE74
:107AF00024F3F582EF3400F5837401F088828983E2
:107B0000E0F91266BD8011EE24F5F582EF3400F540
:107B100083E8F0790712668D7F0C02495D74F612D6
:107B2000488BEAFEEBFF027D63EEFAEFFB12668103
:107B3000027FAFEE2469F582EF3400F583E0640143
:107B4000703E900A83E07003027E3FEEFAEFFB1274
:107B50006693EE24A3F50AEF3400F50B780A124A77
:107B60009EEE249BFCEF3400FD8E828F83A3A3A3A3
:107B7000A3E0FA7B0012644D740212484A027D634E
:107B8000EEFAEFFB126657027FAFEE2469F582EF43
:107B90003400F583E064017055900A83E06031EEB3
:107BA0002482F582EF3400F5837401F0EE24D4F5DD
:107BB00082EF3400F583E4F0A3F0A3F0A3F0EE2409
:107BC000D8F582EF3400F583E4F0A3F0A3F0A3F03E
:107BD000EE24DEF582EF3400F583E06401600302F9
:107BE0007E3F7906EEFAEFFB126699027D63EE2482
:107BF000D2F582EF3400F583E06401702AEEFAEFEB
:107C0000FB12665DE964016003027FCCEE24DEF5C1
:107C100082EF3400F583E4F0EE2469F582EF34005E
:107C2000F5837401027FBAEE24D3F582EF3400F5B8
:107C300083E07003027FCCEE24B2F50AEF3400F546
:107C40000B780A124A9EEE248BFCEF3400FDEE24E2
:107C5000C2FAEF3400FB12670B740212484AEE249A
:107C6000D2F582EF3400F5837401027D2BEE246996
:107C7000F582EF3400F583E064016003027D2E900D
:107C80000A83E07003027E3FEE2420F582EF340089
:107C9000F583E0F8A3E0F9EE241DF582EF3400F55A
:107CA00083E8F0A3E9F0EEFAEFFB126693EE2462AC
:107CB000F582EF3400F5837401F0EE2467F582EF6E
:107CC0003400F5837401F0EE24DCF582EF3400F526
:107CD00083E06401701379008E828F83A3A3A3A332
:107CE000E0FA7B0012645980137C0179008E828F48
:107CF00083A3A3A3A3E0FA7B00126453EE24DCF574
:107D000082EF3400F583E4F0EE24E0F582EF3400F6
:107D1000F583E4F0EE24DFF582EF3400F583E4F040
:107D2000EE24DEF582EF3400F583E4F08035EEFAE0
:107D3000EFFB126663027FAFEE2469F582EF340039
:107D4000F583E064016003027DCEEE24DFF582EF6F
:107D50003400F583E064016003027E3FEEFAEFFB3E
:107D6000126693EE246EF582EF3400F583E0700323
:107D7000027FCCEE246AF582EF3400F583E024FE26
:107D8000602F24FE7003027B33147003027B8A147D
:107D90007003027C6D147003027FBD24FE70030229
:107DA0007E7124FE6092147003027EBE14604C80CB
:107DB000B2EE2469F582EF3400F583E064016003DC
:107DC000027B29900A82E060767916027F90EEFAB3
:107DD000EFFB126669E964016003027FCCEE24DFE9
:107DE000F582EF3400F583E4F0EE2482F582EF347F
:107DF00000F583E4F0EE2469027C61EE2469F582EB
:107E0000EF3400F583E06401705D900A83E0602642
:107E1000EE2482F582EF3400F583E4F0EE2462F57F
:107E200082EF3400F5837401F0EE2467F582EF34BD
:107E300000F5837401F0900A82E06003027D5CEE3D
:107E40002471F8EF3400F988828983E024FFF0A3DD
:107E5000E034FFF088828983E0F8A3E0F9E8496024
:107E600003027FCC027F8EEEFAEFFB12666F027F79
:107E7000AFEE2469F582EF3400F583E064017034DD
:107E8000900A83E060B9EE24E1F582EF3400F583D7
:107E90007401F0EE2420F582EF3400F583E0F8A3BE
:107EA000E0F9EE241DF582EF3400F583E8F0A3E954
:107EB000F0027D5CEEFAEFFB126675027FAFEE24F6
:107EC00069F582EF3400F583E064016003027F9B73
:107ED000EE24EAF582EF3400F583E064017051EEA0
:107EE00024EBF582EF3400F583E064016003027D4A
:107EF0005CEE24F0F582EF3400F583124AB5EE24EF
:107F0000EEF582EF3400F583124AB5EE24EDF582EA
:107F1000EF3400F583E0FC8E828F83A3A3A3A3E05C
:107F2000FA7B007900126447740412484A027D5CAF
:107F3000EE2471F8EF3400F988828983E024FFF0A1
:107F4000A3E034FFF088828983E0F8A3E0F9E849F0
:107F5000707AEE24F0F582EF3400F583124AB5EE24
:107F600024EEF582EF3400F583124AB5EE24EDF5E8
:107F700082EF3400F583E0FC8E828F83A3A3A3A35A
:107F8000E0FA7B007922126447740412484A79228D
:107F9000EEFAEFFB1266BD79018033EE24ECF58238
:107FA000EF3400F5837401F0EEFAEFFB12667BEE1E
:107FB0002469F582EF3400F583E9F0800FEEFAEFE3
:107FC000FB126687E964017003027D5C79007F0221
:107FD00002495DC082C0838A828B838001A3E070E6
:107FE000FCE582C39AFAE5839BFBD083D0820244EE
:107FF000A40244A4FFFFFFFF851C87C2AF0244A474
:1080000074F012488B74CD124834E9900917F012BD
:108010005F2575C90053C9FCE5C954F34408F5C987
:108020009080A1C082742212487FAC82AD83758398
:1080300080D0827411124747741812487FAA82AB0D
:1080400083126573741A12487F1284A612487F1235
:10805000849AC0E0741012487FD0E01284B41248B1
:108060007F12849AC0E0741112487FD0E0F0741936
:1080700012487F1284A612487F12849AC0E07412BC
:1080800012487FD0E01284B412487F12849AC0E074
:10809000741312487FD0E0F0741812487FE0128405
:1080A000AD12487F12849AC0E0741412487FD0E069
:1080B000F0741812487FE01284AE12487F12849A3E
:1080C000C0E0741512487FD0E0F0750A06750B0009
:1080D000780A124A9E741212487FAC82AD837A26C7
:1080E0007B10125A9F740212484A780A124A9E74F0
:1080F0001212487FAC82AD837A437B10125A9F7470
:108100000212484A7C067D007A1F7B0012605D7473
:108110000F12487F7401F0741612487FE4F0A3F048
:10812000740F12487FAC82AD8379017A057B03120C
:108130005EA7741612487FAC82AD8379027A067B03
:1081400003125EA77C217D1079147A087B03125EEE
:10815000A77C357D10790B7A077B03125EA77C40E4
:108160007D107A0979001261D77C507D0D7A067BEB
:108170000012605D7C507D0D7A077B0012605D7C93
:10818000507D0D7A087B0012605D7C507D0D7A0970
:108190007B0012605D741E12487FE4F0A3F0A3F030
:1081A000A3F0740E12487F7401F0740D12487F74AE
:1081B00001F0740C12487FE4F0740B12487F7401D4
:1081C000F0741E12487FAC82AD8379047A087B0478
:1081D000125C0D740E12487FAC82AD8379017A0077
:1081E0007B04125C0D740D12487FAC82AD83790163
:1081F0007A027B04125C0D740C12487FAC82AD8352
:1082000079017A037B04125C0D740B12487FAC82F7
:10821000AD8379017A067B04125C0D9081CA124706
:10822000221261DD9081CA1247221262EB9081CA4C
:10823000124722125DA5125BD1125DE1740512484E
:108240007F7403F0A3E4F0740712487F748BF0A3EB
:10825000E4F0740512487FAC82AD837A027904128F
:108260005DB1740712487FAC82AD837A0279001247
:108270005DB1851A82851B83740AF0AC82AD837A66
:10828000017901125BDD900917E0F9125BBF75FD02
:10829000F675F30175FEFB75F40075FFFF75F500CB
:1082A000125F07125F61125F5B7A527B10125DAB47
:1082B0007AFB7B5E125BD7125F6779011263E17A0A
:1082C000107B00900917E0F9125AF37A8179501265
:1082D0005D219081EDC082740912487FAC82AD832C
:1082E000758381D0827402124747740912487FAAAD
:1082F00082AB837902125D2D740112487FAA82AB92
:10830000837904125D27740112487FE0F4700974C8
:108310000212487FE0F46026740212487FE0F9748C
:108320000112487FE090091A12910E740412487FDE
:10833000E0F9740312487FE090091C12910E125F5D
:108340001F740912487FEAF0A3EBF0740912487F0A
:10835000AC82AD837A027904125DB17A017B009020
:108360000917E0F9125AF37A027B00900917E0F935
:10837000125AF37A007B40900917E0F9125AF37A07
:10838000407B00900917E0F9125AF37A007B1090B5
:108390000917E0F9125AF37A007B08900917E0F9FF
:1083A000125AF37A817950125D21908203C082744F
:1083B0000712487FAC82AD83758382D0827402122B
:1083C0004747740712487FAA82AB837902125D2D5A
:1083D000740112487FAA82AB837904125D2774046A
:1083E00012487FE0F50AE4F50CF50D740312487F9E
:1083F000129F047408780E124633780A790E1246DA
:1084000052740212487FE0F50EE4F50F7410780EF6
:10841000124633780A790E124652740112487FE0F0
:10842000F50EE4F5107418780E124633780A790EBA
:108430001246529081BE780A124665AA0AAB0BAC6E
:108440000CAD0D125B23125B297A817950125D21EC
:108450009081E3C082740512487FAC82AD8375833E
:1084600081D0827402124747740512487FAA82ABFA
:10847000837902125D2D851A82851B83AA82AB83C4
:108480007901125D27851A82851B83E090101DF00B
:10849000743312484A7F0802495DE58228F582E577
:1084A00083129EE1E022E0F50A1284AD22C4540F4B
:1084B000F8742222F0E50A1284AE2274F012488B7E
:1084C00074EF124834EAFEEBFF54806023900917E2
:1084D000E0F9125ADB8A0A8B0BEA450B600A125E3E
:1084E000EFAA0AAB0B125AC9EEFAEF6480028CBBFA
:1084F000EEA2E040030286F7900953E0705E7A4EE8
:108500007B10125EB37A547B09125C2B7901125FE7
:10851000199081BA124AB17A027B00900917E0F9EA
:10852000125B8F740412484A9081B6124AB17A00E5
:108530007B40900917E0F9125B8F740412484A904F
:1085400081B2124AB17A007B10900917E0F9125BF0
:108550008F740412484A9081AE0286C16401702B68
:1085600090101DE0645A70030286D5C290D291D259
:1085700096D297D2A0D2A1D281D282D284D285D2F1
:1085800086D28790048F74010286B8E0640270037B
:10859000028693E06403702B90101DE0645A700310
:1085A0000286D5D290C291D296D297D2A0D2A1D231
:1085B00081C282D284D285D286D28790048F74827F
:1085C0000286B8E06404702F90101DE0645A7003B6
:1085D0000286D5D290D291C296D297D2A0D2A1D201
:1085E00081D282C284D285D286D28790048F7404CD
:1085F000F0A374010286BBE06405702F90101DE0AB
:10860000645A70030286D5D290D291D296C297D284
:10861000A0D2A1D281D282D284C285D286D28790C2
:10862000048F7408F0A374020286BBE06406702E07
:1086300090101DE0645A70030286D5D290D291D278
:1086400096D297C2A0D2A1D281D282D284D285C240
:1086500086D28790048F7410F0A37404805DE06468
:1086600007702B90101DE0645A606AD290D291D2AC
:1086700096D297D2A0C2A1D281D282D284D285D200
:1086800086C28790048F7420F0A37408802DE06464
:1086900008704E90101DE0645A603AC290D291D298
:1086A00096D297D2A0D2A1C281D282D284D285D2D0
:1086B00086D28790048F7441F0A3E4F0D293908126
:1086C000BA124AB17A017B00900917E0F9125B8F68
:1086D000740412484A900953E004F0EE64010289E0
:1086E000DAE0640970F5125F077A017B00900917E0
:1086F000E0F9125B9B80DE541060647A81791D1270
:108700005D21740112487FE4129431125D3F851A95
:1087100082851B83AA82AB837901125D45851A820B
:10872000851B83E0543FF06013900918E0640560F6
:108730000B851A82851B83E0F9125F2B900952E0AA
:10874000701790104A124AB17A107B00900917E016
:10875000F9125B8F740412484AEE64100289DAEE53
:1087600054086028900918E06405701A125BE390C1
:1087700081B6124AB17A087B00900917E0F9125BC2
:108780008F740412484AEE64080289DAEE540270CB
:108790000302887290090EE0701A7A017900125C67
:1087A000C77A017900125CC190090E7401F09081C2
:1087B000BA028858900918E0640260030288429067
:1087C0000911E004F0C3940B5039125BFBE99009E6
:1087D00015F0F8900912E02812A1A5900914E0F80C
:1087E000900915E0C3984005E0900914F090091530
:1087F000E0F890101CE0C3984048900915E09010F4
:108800001C803E900912C082900914E0F87583091B
:10881000D082E0C398F8A3E09400F990101CE0FA2D
:10882000E8C39AF50AE99400F50B7403780A124834
:1088300012E50A901018F0900911E4F0900912F076
:10884000A3F07A007900125CC77A007900125CC14B
:1088500090090EE4F09081B6124AB17A027B009042
:108860000917E0F9125B8F740412484AEE640202A1
:1088700089DAEE54807003028933900948E064037A
:108880006003028928D290D291D296D297D2A0D2F8
:10889000A1D281D282D284D285D286D2877A407BFD
:1088A00000900917E0F9125B9B9009497401F012DE
:1088B0005B298A0A8B0B8C0C8D0D780A124A9A74EC
:1088C0000E12487FAA82AB83125B2F740412484AAF
:1088D000740C12487FE0F9C3940C400474F429F935
:1088E00075F005740B12487FE084901049F06970B0
:1088F0000CE0640B7004740A8002E004F07A001249
:108900005F0D125F139081AE124AB17A007B029024
:108910000917E0F9125B8F740412484A7A007B044D
:10892000900917E0F9125B9B900948E4F0EE64802F
:108930000289DAEF5401600B125F13EEFAEF640163
:10894000028CBBEF540260277A007B01900917E08C
:10895000F9125B9B125F0790094AE4F0901049748A
:108960000DF0900949E4F0EEFAEF6402028CBBEEE0
:108970005420606B90094CE0C3940750167A00E0D5
:10898000F9125F0D7A0090094CE0F8740CC398F965
:10899000125F0D7A0190094CE014F9125F0D7A0113
:1089A00090094CE0F8740DC398F9125F0D90094CD2
:1089B000E004F0C3940850199081A6124AB17A20BD
:1089C0007B00900917E0F9125B8F740412484A800B
:1089D00006E4F0900949F0EE6420FAEF028CBBEF58
:1089E0005408601D900910E0700F7A017901125F40
:1089F00031E59DFA7903125F31EEFAEF6408028CDB
:108A0000BBEE5440601FC290C291C296C297C2A0F2
:108A1000C2A1C281C282C284C285C286C287EE64FC
:108A200040FA028CC2EF54047003028AB5D290D28D
:108A300091D296D297D2A0D2A1D281D282D284D220
:108A400085D286D2877A407B00900917E0F9125BC5
:108A50009B90094BE0605690101DE0645A70319075
:108A600009497401F09081A2124AB17A007B089002
:108A70000917E0F9125B8F740412484A90091074C8
:108A800001F07A207B00900917E0F9125AF3801D5B
:108A90009009537401F090819E124AB17A017B00D3
:108AA000900917E0F9125B8F740412484AEEFAEF4E
:108AB0006404028CBBEF5420602B125F3790094D89
:108AC000E0C394035017908162124AB17A007B2070
:108AD000900917E0F9125B8F740412484AEEFAEF1E
:108AE0006420028CBBEF54407003028BB97A817909
:108AF0004A125D21851A82851B83740312943112F8
:108B00005D3F740112487FAA82AB837901125D45F3
:108B1000740112487FE0C4333354C0F50A851A82C9
:108B2000851B837402129431125D3F740112487FD9
:108B3000AA82AB837901125D45740112487FE0136C
:108B400013543F54F8450A90101AF0901019E0F8A9
:108B500090101AE06890090F7036E004F0C3940A90
:108B60004030E4F0125F55740212487F741AF0909E
:108B7000101AE0C0E0740312487FD0E0F0740212D3
:108B8000487FAA82AB837902125D2D125F5B80025F
:108B9000E4F090101AE0901019F09081B6124AB1EA
:108BA0007A007B40900917E0F9125B8F7404124839
:108BB0004AEEFAEF6440028CBBEF54107003028C53
:108BC000BE900918E0640590101B7004743C800886
:108BD000E0C39402E0400414F0801464017005E4E2
:108BE000F0F98008E07008743CF07901125F19E533
:108BF000C9540F44A0F5C9E5C9540F4450F5C990B4
:108C00000916E004F0C394C85003028C9F90091821
:108C1000E064057003028C9F125B298A0E8B0F8C17
:108C2000108D117A817950125D21908142C0827439
:108C30000412487FAC82AD83758381D082740612A2
:108C40004747850E0A850F0B85100C85110D74188A
:108C5000780A12461A740612487FE50AF0850E0A51
:108C6000850F0B85100CF50D7410780A12461A74D6
:108C70000712487FE50A12A320740812487FE50A0C
:108C8000F0740912487FE50EF0740412487FAA823E
:108C9000AB837906125D2D125D39900916E4F090D0
:108CA00081B2124AB17A007B10900917E0F9125B89
:108CB0008F740412484AEEFAEF6410FB80047A00C5
:108CC0007B00741102849274F712488B74FC124872
:108CD000348A828B83E064C06003028E34A3A3A332
:108CE000E0FE7A81794A125D21740312487FE41212
:108CF0009431125D3F740212487FAA82AB837901DE
:108D0000125D45740212487FE0A2E0E43390094B03
:108D1000F0EEA2E04003028DA5E0A2E0400590093C
:108D200010E4F0900949E06003028E3490094BE0B2
:108D3000A2E0501990819A124AB17A007B049009FE
:108D400017E0F9125B8F740412484A800C7A007B9A
:108D500004900917E0F9125B9B90094BE0602990A1
:108D6000101DE0645A7021900948E070057402F00B
:108D7000801C64026003028E377403F07A807B00EB
:108D8000900917E0F9125B9B900948E06017908109
:108D90009E124AB17A807B00900917E0F9125B8F2E
:108DA000740412484AEEA2E14003028E347A8179BB
:108DB0001D125D21851A82851B83742AF0740112AD
:108DC000487FE412943B125D2D851A82851B8374C3
:108DD00016129431125D3F740112487FAA82AB8350
:108DE0007901125D45851A82851B83742DF074010B
:108DF00012487FE412943B125D2D851A82851B83F5
:108E0000742AF0740112487F129439125D2D900972
:108E10004EE4F0A3F0A3F0A3F0900952F090104AB2
:108E2000124AB17A107B00900917E0F9125B8F7437
:108E30000412484A02929DE064036003028D8E7A18
:108E4000807B00900917E0F9125B9B7A007B04900D
:108E50000917E0F9125B9B900948E4F0028DA574B4
:108E6000F712488B74F0124834E9FE14600914704C
:108E700003028F08028FF9740A12487FAC82AD8317
:108E80007A047B03125EAD740A12487FE0C0E0747E
:108E90000212487FD0E0F0740B12487FE0C0E0740B
:108EA0000312487FD0E0F0740C12487FE0C0E074F9
:108EB0000412487FD0E0F0740612487FE4F0740595
:108EC00012487FE4F0740F12487FE0C0E07409128A
:108ED000487FD0E0F0740E12487FE0C0E0740812C2
:108EE000487FD0E0F0740D12487FE0C0E0740712B4
:108EF000487FD0E0F0740212487FAC82AD837A08DC
:108F00007900125C01028FF990101DE0645A9010F4
:108F1000206003028F9CE064016003028FF99010CF
:108F20001FE064016003028FF97A81794A125D21A2
:108F3000125F55851A82851B837443F074011248B1
:108F40007F742612943B125D2D90101FE4F0901058
:108F50001E04F0125F5B7A81791D125D21851A82F1
:108F6000851B83742AF0740112487F746812943B45
:108F7000125D2D900929E4F0A3F0900937F0A3F0D9
:108F8000900945F0A3F090091AF0A3F090091CF0A5
:108F9000A3F0125F3D90101D74A58058E0705A90A8
:108FA000101EE0640170527A81794A125D21125FCD
:108FB00055851A82851B837443F0740112487F74AF
:108FC0002312943B125D2D90101EE4F090101F04AC
:108FD000F0125F5B7A81791D125D21851A82851BF3
:108FE00083742AF0740112487F129439125D2D9017
:108FF000101D745AF0F9125F6DEE900918F074109C
:1090000002929F74F712488BE9FE74016E702190F2
:109010000918E06405702A9081B6124AB17A087B7B
:1090200000900917E0F9125B8F740412484A80110E
:1090300074026E700C7A087B00900917E0F9125BDD
:109040009B0292A274F412488B74F1124834E91412
:10905000601014606914605E24FD70030290FA02CF
:109060009103851A82851B83AA82AB837901125DE5
:10907000B7851A82851B83129EFE90101012910DE7
:10908000125F1F740212487FEAF0A3EBF074021221
:10909000487FAC82AD837A027904125DB190094DAC
:1090A000E4F0908162124AB17A007B20900917E0C7
:1090B000F9125B8F803D7A197B0979038042740431
:1090C00012487FAA82AB837902125DB774041248FA
:1090D0007F124722125B23125B298A0A8B0B8C0CAE
:1090E0008D0D780A124A9A740C12487FAA82AB83BB
:1090F000125B2F740412484A80097A207B1079068B
:10910000125DB7740F12484A7F0402495DE8F0A36C
:10911000E9F022C082C083D290D291D296D297D267
:10912000A0D2A1D281D282D284D285D286D2879097
:10913000048FE4F0A3F0C293C280C294C2959081E0
:10914000BA124AB17A407B00900917E0F9125B8F9E
:1091500002926E74F212488BE9FEEAFF750A0175FD
:109160000B00EE780A124821AA0AAB0B046F7011AB
:10917000EAF4F8EBF4F990048FE058F0A3E059809A
:109180000990048FE04AF0A3E04BF090048F129E08
:10919000FEE849701BC2939081BA124AB17A407BB3
:1091A00000900917E0F9125B8F740412484A80029C
:1091B000D293EE6070146020146024146028146050
:1091C0002C14603014603414603814603C14604017
:1091D0001460441460488052EFA2E09291804BEFFB
:1091E000A2E092968044EFA2E09297803DEFA2E049
:1091F00092A08036EFA2E092A1802FEFA2E09281B0
:109200008028EFA2E092828021EFA2E09284801A6F
:10921000EFA2E092858013EFA2E09286800CEFA28D
:10922000E092878005EFA2E092907F0602495DC040
:1092300082C08390094AE0700474018001E4F0E088
:10924000FA901049E0F9125F0D90819E124AB17AAE
:10925000007B01029148C0E0740312487FD0E0F027
:10926000740212487FAA82AB837902125D2D7404C6
:1092700012484AD083D0820244A474F712488B74F7
:10928000FF124834E9851A82851B83F0AC82AD83D6
:1092900079017A057B03125EA774018002740412BF
:1092A000484A7F0102495D74F612488B90091A12F0
:1092B0009EFE75830975821CE0C398F50AA3E099A8
:1092C000F50B75830975821CC3E098A3E099500CD7
:1092D000E50A24A0F50AE50B340FF50B7403780AB0
:1092E000124812E50A2403FAE50B3400FB02A40B32
:1092F000C082C08374FE1248347A81791D125D21C8
:10930000851A82851B83742BF0740112487F744088
:1093100012943B125D2D851A82851B83742B129447
:1093200031125D3F740112487FAA82AB837901122A
:109330005D45740112487FE0A2E640DA851A828515
:109340001B83740EF0740112487F740212A630F968
:10935000125D2D851A82851B837409F074011248F1
:109360007F744012943B125D2D851A82851B837495
:1093700015F0740112487F74FF12943B125D2D8525
:109380001A82851B837417F0740112487F741112BE
:10939000943B125D2D851A82851B837418F074012D
:1093A00012487F740312943B125D2D851A82851B2F
:1093B00083742CF0740112487F740812943B125D80
:1093C0002D851A82851B83742DF0740112487F74D9
:1093D0000412943B125D2D851A82851B83742EF036
:1093E000740112487F740412943B125D2D851A8219
:1093F000851B83742BF0740112487F741F12943BF9
:10940000125D2D851A82851B83742AF090101DE051
:10941000645A6009740112487F74688007740112ED
:10942000487F746912943B125D2D7402029270742D
:1094300044F0AA82AB83790122746912A6347902BE
:109440002274E812488B74D2124834740C12487F8C
:10945000E9F0741A12487FAC82AD837583817582FE
:10946000097408124747741212487FAC82AD8375A5
:1094700083817582117408124747740D12487F74F6
:1094800001F07A81791D125D21908196780A124748
:109490000490094E780A1246787AC07B00125B4D20
:1094A000740812487FEAF0A3EBF07CC07D007900DD
:1094B000740812487FE0FA125AB7740812487F12F3
:1094C0009EFEE849700302957C7CC07D00790074A3
:1094D0000812487F129F1B125AB7740D12487FAAB8
:1094E00082AB837901125D3F740812487F129F1B83
:1094F00075F006740C12487FE0A4F9125D45740CF7
:1095000012487FE0900491F0C39405501074081243
:10951000487F129F1B125B537900029ED47E00EE9F
:1095200075F006A4F8A9F0749228FA740439FB7453
:109530000812487FE028F8A3E039F988828983E09F
:10954000FDA3E08A828B83129F66129EF2E08A82DC
:109550008B83A3A3129F66A3A3129EF2A3A3E0F89A
:10956000EDF98A828B83A3A3A3A312910D0E90041D
:1095700091E0F8EEC39840A77E00800A900491E441
:10958000F0F9029ED40EEEC39840FA7E008E0A7562
:109590000B007403780A124821AA0AAB0B74522AF2
:1095A000F874063BF974A22AFA74073BFB8A0A8B0B
:1095B0000B8A82F5831247228882898312472E857F
:1095C0000A82850B83A3A3A3A312472288828983DF
:1095D000A3A3A3A312472E0EEEC3940A40AF7E0AA4
:1095E0008E82AA828A0A750B007403780A124821B7
:1095F0007452250AF87406350BF9E8FCE9FDEA75A2
:10960000F006A4FAABF074922AFA74043BFBEA2445
:10961000C6129F3A780A124713EA24C8129F3AA347
:10962000A3A3A3780A1247130E900491E0240BF829
:10963000E43400F9EE98E499C365D03340A27A206F
:109640007B00125B4D740A12487FEAF0A3EBF07CBA
:10965000207D007900740A12487FE0FA125AB77E22
:10966000000299AC8E0A750B007403780A12482127
:10967000AA0AAB0B74522AF874053BF97406124817
:109680007F12910D901017E0F50AE4F50BF50CF53B
:109690000D742A12487F780A124713901016E0F5CD
:1096A0000A742612487F780A124713901015E0F5C5
:1096B0000A742212487F780A124713901014E0F5BA
:1096C0000A740E12487F780A124713901013E0F5BF
:1096D0000A74522AF874063BF9851A82851B831294
:1096E000910D901012129F04129F217816124704B8
:1096F000129F5A2450129EDE78161246657816790B
:109700000E124510129F5A2408129EEC12470412A2
:109710009F5A2448129EEC1246657812790A124527
:109720001078167912124652C016C017C018C01908
:10973000129F5A2410129EEC124704129F5A244082
:10974000129EEC124665740E12487F78161247047A
:1097500078127916124510D019D018D017D0167873
:10976000167912124652C016C017C018C019129F9F
:109770005A2418129EEC124704129F5A2438129E43
:10978000EC124665742212487F781612470478124C
:109790007916124510D019D018D017D0167816792E
:1097A00012124652C016C017C018C019129F5A2470
:1097B00020129EEC124704129F5A2430129EEC1283
:1097C0004665742612487F78161247047812791677
:1097D000124510D019D018D017D016781679121259
:1097E0004652C016C017C018C019129F5A2428121A
:1097F0009EEC124704742A12487F781612470478A8
:10980000127916124510D019D018D017D016781624
:109810007912124652740A781612460074061248DB
:109820007F129F277816124713740612487F129FE3
:109830000F12487F12910D129F21A3A3A3A37812A8
:10984000124704129F5A2454129EEC124665781255
:10985000790E12451085120E85130F85141085158B
:1098600011129F5A240C129EEC124704129F5A2484
:109870004C129EEC1246657812790A124510780E49
:109880007912124652129F5A2414129EE61247046D
:10989000129F5A2444129EE6124665740E12487FA7
:1098A0007812124704780A7912124510780E790A54
:1098B000124652129F5A241C129EE6124704129F0F
:1098C0005A243C129EE6124665742212487F781292
:1098D000124704780A7912124510780E790A124656
:1098E00052129F5A2424129EE6124704129F5A24B1
:1098F00034129EE6124665742612487F781212478B
:1099000004780A7912124510780E790A124652121A
:109910009F5A242C129EE6124704742A12487F781C
:1099200012124704780A7912124510780E790A1239
:109930004652740A780E124600740212487F129F33
:1099400034124713740212487F129F27781212476D
:1099500004740612487F129F54124704850A0E852C
:109960000B0F850C10850D11780E790A12451085A4
:10997000120A85130B85140C85150D780A791212BD
:109980004510780E790A1246528E0A750B00740241
:10999000780A124821740A12487FE0250AF8A3E0E9
:1099A000350B8882F583780E1247130E900491E0F0
:1099B000F8EEC39850030296647E008027780E79F3
:1099C000121244D1500A741E12487F780E124713A7
:1099D000780A790E1244D1500A741612487F780E14
:1099E0001247130E741612487F780A124704741E29
:1099F00012487F7812124704900491E0C313FFE0ED
:109A0000F8EEC398504D8E0E750F007402780E124A
:109A10004821740A12487FE0250EF8A3E0350F882C
:109A200082F583780E124704EEC39F5090741A1289
:109A3000487F780E1244E1500A741A12487F780E5B
:109A4000124713741212487F780E1244F140947436
:109A5000128088741A12487F780E1247047412120A
:109A6000487F780E1246657401780E12461A9008E7
:109A7000F2780E124713741A12487F780E124704B8
:109A8000741212487F780E12469F9008FE780E12CC
:109A9000471385120E85130F851410851511780E46
:109AA000790A1246527401780E12461A9008F67816
:109AB0000E1247137812790A12468B740E12487FE1
:109AC0007812124713740E12487F1247229009022F
:109AD00012472E7E00029B6985120A85130B85149E
