:020000040000FA
:104000001262FFFF0100007C42424242FFFFFFFFBD
:10401000FFFFFFFFFFFFFFFFFFFFFFFFFFFFFFFFB0
:10402000000102030405060708090A0BFFFFFFFF52
:1040300002446C02534BFFFFFFFFFFFFFFFFFFFF38
:10404000FFFFFFFFFFFFFFFFFFFFFFFFFFFFFFFF80
:10405000FFFFFFFFFFFFFFFFFFFFFF024C0DFFFF12
:10406000FFFFFFFFFFFFFFFFFFFFFFFFFFFFFFFF60
:10407000FFFFFFFFFFFFFFFFFFFFFFFFFFFFFFFF50
:10408000FFFFFF0253BEFFFFFFFFFFFFFFFFFFFF2A
:10409000FFFFFFFFFFFFFFFFFFFFFF024BC6FFFF1A
:1040A000FFFFFFFFFFFFFFFFFFFFFF024BEFFFFFE1
:1040B000FFFFFF0251B701FFFF11019901126404D4
:1040C0000102F881010000C88102F281010000E7CD
:1040D0000E020082010000E80E02EC81030000A93C
:1040E0000202DE81010000E90E01E803053F100A2B
:1040F000024669726D776172650000000000000081
:1041000000001A446F2053796E6300000000000025
:1041100000000000084150502053657420436C6F2C
:10412000636B000000000841505020536574205418
:10413000696D657A6F6E65001201004461746120DB
:1041400048656164657200000000000012446174FB
:104150006120426F6479000000000000000002F856
:1041600081010000D18102F2810100001A0F02DA00
:1041700081010000A60302EE810100001B0F02F284
:10418000810100002C0F02D881030000A80302EC7B
:1041900081030000B00302EE810100002D0F02F246
:1041A000810100003E0F02D681020000B60302EE3C
:1041B000810100003F0F02F281010000500F02F068
:1041C00081020000BA0302EE81010000510F02F2E9
:1041D00081010000620F02F681030000630F02EC10
:1041E00081030000BB0302EE81010000650F02F2B3
:1041F00081010000760F02FE81030000C10302EC82
:1042000081030000C90302EE81010000770F1C0248
:10421000F881010000098102F281010000381010CC
:104220005080020000CF0302EC81030000D10302A2
:10423000EE81010000F28002F281010000381010CE
:104240006080020000D00302EC81030000D703026B
:10425000EE81010000FF80FFFFFF000130750302C7
:104260000106000000000000000000000000000047
:104270000000000000000000000000000000FFFF40
:104280000600800CE8032C010E1F4A7FAABA110910
:10429000416464696E675F41312D303030303030B9
:1042A00005122003B004020A0002010607020023DF
:1042B0000F18C0FF416464696E675F41312D303073
:1042C0003030303000000000000DC4090000DB5E1B
:1042D0000000ED5EFF0000B4000028002800283038
:1042E00075A000A000A000A00000080008E001F0F8
:1042F00000100010001000100010001000500050BE
:1043000000500010001000D0070000000000000F57
:104310000001000500307507001000010081FF005A
:10432000000000FF576175615D61FF020202080233
:104330005000A0000000E80302F881010000CE81D7
:1043400002F281010000551102EA81010000540AC5
:1043500002F28101000056110204820100006A0A83
:1043600002F281010000571102E6810100006C0A8F
:1043700002F281010000581102E4810800006D0A78
:1043800002F281010000591102E2810100005A117C
:10439000FF0100FF2002F881010000CB8102F281C1
:1043A000010000BE1102E081000000000002EC816B
:1043B000030000BA0A276727672767276727672749
:1043C000672767276727672767276727672767BBE9
:1043D00069D369B569E5C754F84404F5C779012282
:1043E00000000080FB1243D5B90003024456E47973
:1043F000217808B800028004F709D8FCE47929780C
:1044000002B800028004F709D8FCE49002807862C8
:10441000790D8002F0A3D8FCD9FA781C9040B67AC6
:1044200001BA00028007E493A3F608DAF9900EE1DE
:10443000AA82AB839040B7781F79048015E493A3D8
:10444000AC82AD838A828B83F0A3AA82AB838C82F9
:104450008D83D8E9D9E7758233758390740412444B
:104460007E7582E0758343740012447E75D00075BA
:10447000813F751A80751B02759F000243E5C09F3E
:10448000F59FE473D09F22D083D082C09FE493C075
:10449000E0740193C0E0740293F59F22E06670100F
:1044A00008A3E066700A08A3E066700408A3E0664B
:1044B00022C3E7960809E7960809E7960809E796F0
:1044C00022C3E09608A3E09608A3E09608A3E0962E
:1044D00022C00AC3E096F50A08A3E096420A08A3A0
:1044E000E096420A08A3E096450A7001D3D00A225A
:1044F000080808EAC0E0EBC0E086F0E7A4FA180973
:1045000086F0E7A42AFA180986F0E7A42AFA18091F
:1045100086F0E7A42AFA1986F0E7A4FBE5F02AFA68
:10452000190886F0E7A42BFBE5F03AFA190886F0A3
:10453000E7A42BFBE5F03AFA18180986F0E7A4C5C2
:10454000F02BFBE43AFA1908E7C5F0C6A426F6E515
:10455000F03BFBE43AFA1886F0E7A4F6E5F008260B
:10456000F6E43B08F6E43A08F6D0E0FBD0E0FA22A5
:10457000E4CFC0E0E4CEC0E0E4CDC0E0E4CCC0E0F5
:1045800075F020C3E633F608E633F608E633F6089E
:10459000E633F6181818EC33FCED33FDEE33FEEF7E
:1045A00033FFC3EC9709ED9709EE9709EF971919B7
:1045B00019400FFFEC97FC09ED97FD09EE97FE19E6
:1045C0001906D5F0BEECF709EDF709EEF709EFF79C
:1045D000191919D0E0FCD0E0FDD0E0FED0E0FF22B8
:1045E0006017080808C6A2E713C618C613C618C67F
:1045F00013C618C613C6D5E0E9226016080808C617
:10460000C313C618C613C618C613C618C613C6D514
:10461000E0EA227009080808226016181818C6C3B4
:1046200033C608C633C608C633C608C633C6D5E087
:10463000EA22E627F60809E637F60809E637F6081B
:1046400009E637F622E026F608A3E036F608A3E0EE
:1046500036F608A3E036F622E026F008A3E036F0AE
:1046600008A3E036F008A3E036F022C3E697F60888
:1046700009E697F60809E697F60809E697F622C3D1
:10468000E0C696F608A3E0C696F608A3E0C696F63E
:1046900008A3E0C696F622C3E096F008A3E096F0E1
:1046A00008A3E096F008A3E096F022E657F6080982
:1046B000E657F60809E657F60809E657F622E056E7
:1046C000F608A3E056F608A3E056F608A3E056F66F
:1046D00022E056F008A3E056F008A3E056F008A345
:1046E000E056F022E0F608A3E0F608A3E0F608A3FF
:1046F000E0F622E6F008A3E6F008A3E6F008A3E659
:10470000F022E0FAA3E0FBA3E0FCA3E0FD22EAF044
:10471000A3EBF0A3ECF0A3EDF022CAC0E0E6F0A317
:1047200008DAFAD0E0FA22CAC0E0E0A3C582CCC51C
:1047300082C583CDC583F0A3C582CCC582C583CD98
:10474000C583DAE6D0E0CA22C3E498F8E499F91206
:1047500047898026C3E49AFAE49BFBE920E7E91243
:104760004789E498F8E499F922C3E498F8E499F9C0
:10477000124789E498F8E499F9C3E49AFAE49BFBB8
:1047800022EB20E7CFE920E7E0B90010BB0008E802
:104790008AF084F8AAF022E4FBC8FA22EB70227BAC
:1047A00010C833C8C933C9335007C39AC3DBF2807A
:1047B000069A50012ADBEAC833F4C8C933F4C9FAAF
:1047C0002275F008E4C833C8C933C933C99AC99BF4
:1047D0005004C92AC93BD5F0ECFBC833F4C8E4C97E
:1047E000FA22600D08C6A2E713C618C613C6D5E0A4
:1047F000F322600C08C6C313C618C613C6D5E0F46E
:1048000022700422600D18C6C333C608C633C6D54D
:10481000E0F41822251A10AF08F51A4002151B8083
:1048200008F51A4002151BD2AF22C0D0251A10AFCE
:1048300008F51A5002051B8008F51A5002051BD214
:10484000AFD0D022251AF58210AF08F51A40021514
:104850001B8008F51A4002151BD2AF851B83222549
:104860001AF582E4351BF58322E473251AC582C04C
:10487000E0E51B34FFC583C0E0E51AC3958224F848
:1048800010AF0885831B85821A800885831B85826B
:104890001AD2AFCEF0A3E520F0A3780AE608F0A381
:1048A000DEFAEFF0A3E58124FAF8E608F0A3E608C3
:1048B000F0A3E608F0A30808E608F0A3E608F0A3D2
:1048C00015811581D0E0FED0E0F8158115811581A4
:1048D000E8C0E0EEC0E022251AC582C0E0E51B3446
:1048E000FFC583C0E0E51AC3958224F910AF08859F
:1048F000831B85821A800885831B85821AD2AFCEDE
:10490000F0A3E520F0A3780AE608F0A3DEFAEFF0C2
:10491000A3E58124FBF8E608F0A3E608F0A3080865
:10492000E608F0A3E608F0A315811581D0E0FED0DB
:10493000E0F815811581E8C0E0EEC0E022851B8318
:10494000851A82E0A3FEE0A3F520780AE0A3F6082A
:10495000DFFAE0A3FFE0A3C0E0E0A3C0E0E0A3C073
:10496000E0E0A3C0E0E0A3C0E010AF0885821A85B4
:10497000831B800885821A85831BD2AFD083D082A7
:10498000024484851B83851A82E0A3FEE0A3F52000
:10499000780AE0A3F608DFFAE0A3FFE0A3C0E0E0B6
:1049A000A3C0E0E0A3C0E0E0A3C0E010AF088582B0
:1049B0001A85831B800885821A85831BD2AFD0831A
:1049C000D08222C0D0251AC582C0E0E51B34FFC5C5
:1049D00083C0E0E51AC3958224F310AF0885831BDA
:1049E00085821A800885831B85821AD2AFC8F0A3FE
:1049F000E9F0A3EAF0A3EBF0A3790AE709F0A3D862
:104A0000FAECF0A3EDF0A3EEF0A3EFF0A3D0E0F00A
:104A1000A3D0E0F0A3D0E0F0A3E520F0A3E5F0F010
:104A2000A322851B83851A82E0C0E0A3E0F9A3E0FE
:104A3000FAA3E0FBA3780AE0F608A3DFFAE0FCA300
:104A4000E0FDA3E0FEA3E0FFA3E0C0E0A3E0C0E040
:104A5000A3E0F5D0A3E0F520A3E0A3F5F010AF08A4
:104A600085831B85821A800885831B85821AD2AFB5
:104A7000D082D083D0E0F8D0E03274048006740293
:104A800080027401C0E0F404124844D0E012471AD6
:104A9000227404800474028000CCC0E0EDC0E0E524
:104AA0001AC39CCCAD1B50011D10AF068C1A8D1B78
:104AB00080068C1A8D1BD2AF124727D0E0FDD0E0C4
:104AC000FC22D083D082E9C0E0E493A3C386F0C582
:104AD000F095F0F908E493A386F0C5F095F0700B1B
:104AE000E493A3C3994005E9048002A3E475F002AE
:104AF000A42582F582E5F03583F583D0E0F9E493CF
:104B0000A3C0E0E493C0E022D083D082ECC0E0ED0B
:104B1000C0E0E493A3FCE493A3FDED4C600D124BC5
:104B200054EC24FFFCED34FFFD80EFE493A3FCE4A0
:104B300093A3FDED4C600D124B93EC24FFFCED3480
:104B4000FFFD80EFD0E0FDD0E0FCE493A3C0E0E403
:104B500093C0E022C0E0C3E49396087401939618D2
:104B6000400FE49366700808740193661870007033
:104B700019A3A3C3E49396087401939618A3A340C2
:104B80000DD0E0D0E0D0E0024B44A3A3A3A3A3A3A5
:104B9000D0E022C0E0C0F088F0E4936670080874AA
:104BA000019366187000A8F0A3A3700BD0F0D0E0BA
:104BB000D0E0D0E0024B44A3A3D0F0D0E022FFFF2E
:104BC000C2AF02000022C0E074F21249C3A2AFE4F7
:104BD00033FED2AFE589A2E35003125D4975890027
:104BE000C2C5751C00EEA2E092AF7F01024A22C04E
:104BF000E074F21249C3A2AFE433FED2AFE58AA259
:104C0000E25003125D49758A00C2EB80D5C0E0C056
:104C1000D0E8C0E0E9C0E0E5A8D2AFC2C7751C008B
:104C2000A2E7A2E792AFD0E0F9D0E0F8D0D0D0E090
:104C30003274F51248D7EAFEEBFFEE2434F8EF3475
:104C400000F9880A890BEE2435F582EF3400F583EC
:104C5000E0F8EE2437F582EF3400F583E0F50CEC54
:104C6000850CF0A4FCAAF0850CF0EDA42AFDE82C3C
:104C7000F8E43DF97A257B00124789EA850A8285A6
:104C80000B83F0F8740758F97401B900028004C36B
:104C900033D9FCFAE8131313541FF8EE28F8EF3455
:104CA00000F9E8245DF582E93400F583E05A6008F4
:104CB000EE2434F582EF802CEE2434F582EF3400BC
:104CC000F583E0C0E0EE2436F582EF3400F583E0B2
:104CD000F5F0D0E084A8F0EE28F8EF3400F9E824ED
:104CE00038F582E93400F583E0F97F0402498374E2
:104CF000F51248D7EAFEEBFFEE2434F582EF3400DC
:104D0000F583E0C0E0EE2435F582EF3400F583D082
:104D1000E0F08E828F83A3A3A3A3A3A3A3C082C02A
:104D2000838E828F83A3A3A3A3A3E0F8A3E0F9D08B
:104D300083D082E0C398F50AA3E099F50BEE247FB7
:104D4000F582EF3400F583E064017069EE2480F5AC
:104D500082EF3400F583E0F8A3E0F98E828F83A31D
:104D6000A3A3A3A3A3A3E0FCA3E0FD8E828F83A350
:104D7000A3A3A3A3E0FAA3E0FBC3EA9CEB9D50101E
:104D8000C3EC98ED99402EC3EA98EB995027800E1A
:104D9000C3EA98EB994007C3EC98ED9940177C7DE6
:104DA0007D0CEEFAEFFB126685EE247FF582EF3480
:104DB00000F583E4F0EE2434F8EF3400F9E8FCE980
:104DC000FDEE2435F582EF3400F583E0F8EE24376C
:104DD000F582EF3400F583E0F50CE50A850CF0A4CC
:104DE000F50AAAF0850CF0E50BA42AF50BE8250AD4
:104DF000F8E4350BF97A257B00124789EA8C828D1D
:104E000083F0F8740758F97401B900028004C333C1
:104E1000D9FCFAE8131313541FF8EE28F8EF340006
:104E2000F9E8245DF582E93400F583E05A6008EE84
:104E30002434F582EF802CEE2434F582EF3400F533
:104E400083E0C0E0EE2436F582EF3400F583E0F530
:104E5000F0D0E084A8F0EE28F8EF3400F9E8243828
:104E6000F582E93400F583E0F9125A6B024CEAC08E
:104E700082C083851A82851B83E0F8A3E0F9C3EA28
:104E80009CEB9D5010C3EC98ED99401BC3EA98EB46
:104E9000995014800EC3EA98EB994007C3EC98ED43
:104EA000994004790180027900D083D08222EAC33C
:104EB0009CFAEB9DFB2274EF1248D7900B43E06401
:104EC000086005E06407702A9061C8E06024900BD8
:104ED00071E0F4601DE0F875F003A4C8AAF02AF9A7
:104EE000747328FE740B39FF8E828F83A3A3A3E013
:104EF0007003024FE6906060E0C0E0EE2468F58247
:104F0000EF3400F583D0E0F0750EE6750F0C750AEE
:104F100000750B00E5D914F50CE5D95403F51060C4
:104F20001774036510605CE50C6010EE2467F58271
:104F3000EF3400F583E07003024FCB900CE1E064A6
:104F400001602AEE2482F582EF3400F583E06004EC
:104F5000780480027800850C0AE50AC398FA95E087
:104F6000FB12654D8A0A8B0BEA450B7005126889A6
:104F70008074EE2482F582EF3400F583E070048AB9
:104F80000E8B0FE50C6012850E82850F83F50DE503
:104F9000D9F0A3150DE50D70F6EE2482F582EF34FD
:104FA00000F583E0604474FC250CF50C780E124A81
:104FB0007EAC0CA910EEFAEFFB12672174021248C6
:104FC0002AE97026AA0AAB0B125E09793D8E828F00
:104FD00083A3A3A3A3E0FA7B00126421EEFAEFFB04
:104FE00012669D12673379008074740365106056F1
:104FF000850C127513007812124A7EAC0EAD0FAA02
:105000000AAB0B1266FD740212482AEE2468F58280
:10501000EF3400F583E064807004747F8001E0F574
:105020000E780E124A82E510F50E780E124A82A909
:105030000CAC0AAD0B900B71E0FA7B001263E574C7
:105040000212482A8013900B43E06408600BAC0EF8
:10505000AD0FEEFAEFFB12678D12689579017F0AAA
:1050600002498374F51248D774FC124814EAFEEB27
:10507000FF890AA2AFE433F50BC2AF806AEE246366
:10508000F8EF3400F97A007B00A2AFE433F50CC2EC
:10509000AF88828983E0FCA3E0FDEC4D603A888212
:1050A0008983E0FAA3E0FB8A828B83E0FCA3E0FD26
:1050B00088828983ECF0A3EDF08A828B83E4F0A3ED
:1050C000F088828983E0FCA3E0FDEC4D700A8882C1
:1050D0008983A3A3E4F0A3F0E50CA2E092AF125EF3
:1050E00009900C84E004F0EE2463F582EF3400F5BF
:1050F00083E0F8A3E0F9E849603DEE2463F582EF30
:105100003400F583E02402FAA3E03400FBEA240231
:10511000F50CEB3400F50D780C124A7E8A828B83F5
:10512000E0FCA3E0F9EEFAEFFB1266C1740212484C
:105130002AE9700302507D900C84E06063900C8536
:10514000E0F8900C84E0C398500C7402650A70502B
:10515000900C86E0604A8E828F83A3A3A3A3E08590
:105160001A82851B83F0A3E4F0900C84E0F87402AB
:1051700012485FE8F0A3E4F0900C84E0F8900C8310
:10518000E028F0740212485FAC82AD83851A8285F4
:105190001B83AA82AB8379011263F1900C84E4F043
:1051A000E50BA2E092AF740412482A024CEAFFFF1A
:1051B0008521878522C622C0E0C0D0E8C0E0E9C0D2
:1051C000E0EAC0E0EBC0E0ECC0E0EDC0E0EEC0E043
:1051D000C00AC00BC00CC00DC082C083C0F0A2AF1B
:1051E000E433FEC2AF759B00906182E0A2E05012F2
:1051F000E591A2E0500C7591FE74016521700312D7
:105200004EB6E0A2E55051E591A2E5504B7591DF15
:10521000900B43E064076005E06408702374016547
:105220002170357901900B71E0FA75F003A4CAA8DA
:10523000F028FB74732AFA740B3BFB12506380183E
:10524000E0640D7013900B65E004F064287002E4D4
:10525000F07A00E0F912689B906182E0A2E64003D8
:105260000252FEE591A2E640030252FE7591BF9004
:105270000B43E0640570081267C31267CF80031206
:1052800067C9752100126829E9900B44F079001272
:10529000681D1265FB7A017B00900B42E0F9125AFF
:1052A000D3907803E064427055900CE5E014F07000
:1052B0004DC2AF1252B600782AD0E0F618D0E0F610
:1052C000E59F54077005750BFF8003750B7FC4C005
:1052D000E07829E6F50A08E6550BF50B740B780A19
:1052E0001247F2D0E0250AF8906270E0A2E740F899
:1052F000E8C333906272F0906270E0D2E0F09061A7
:1053000081E0A2E35009E5E9A2E3500375E9F7A3C0
:10531000E0A2E75009E591A2E7500375917FEEA264
:10532000E092AFD0F0D083D082D00DD00CD00BD093
:105330000AD0E0FED0E0FDD0E0FCD0E0FBD0E0FA07
:10534000D0E0F9D0E0F8D0D0D0E032C0E0C0D0C09A
:1053500082C083906183E0A2E05009E5BFA2E050E3
:105360000375BFFEE0A2E15009E5BFA2E15003755D
:10537000BFFDE0A2E25009E5BFA2E2500375BFFB0A
:10538000E0A2E35009E5BFA2E3500375BFF7E0A236
:10539000E45009E5BFA2E4500375BFEFE0A2E55079
:1053A00009E5BFA2E5500375BFDFE0A2E65009E5BD
:1053B000BFA2E6500375BFBFD083D0828088C0E013
:1053C000C0D0E8C0E0E9C0E0EAC0E0EBC0E0ECC07B
:1053D000E0EDC0E0C0F0E5A7A2E6500FE5A1A2E62F
:1053E000500953A7BF75A1BF125423E5A7A2E550EA
:1053F0000CE5A1A2E5500653A7DF75A1DFE5A7A242
:10540000E15009E5A1A2E1500375A1FDE5A7A2E2E3
:10541000500CE5A1A2E2500653A7FB75A1FBD0F00A
:1054200002533474F81248D7752101900B43E0649D
:105430000670151267518A828B83A3A3A3A3A3A32B
:10544000E0FAA3E0FB1267B1A2AFE433FED2AF9063
:105450000B49E0640170187A207B00900B42E0F960
:10546000125B7B7A207B00900B42E0F9125AD990B4
:105470006182E0D2E6F0900CE2E0602185C62280F5
:1054800016900B48E064017008E5C654F84405F531
:10549000C653BEFC1251B07401652160E4EEA2E077
:1054A00092AF7F01024983FF8E238F248582288556
:1054B0008327851A82851B83E0CEA3E0CF852882CF
:1054C000852783EBC9EAC8EDCBECCA75F010C3E8B9
:1054D00033C8E933C9EA33CAEB33CBC3EA9EF526B6
:1054E000EB9FF525B35004AB25AA26EC33CCED3366
:1054F000CDD5F0DAAE23AF242274E91248D774F880
:10550000124814851A82851B83ECF0A3EDF08A0AF9
:105510008B0B900B43E024F7C394055006750A01EA
:105520000256901267518A0C8B0DAE0CAF0DEE4FE8
:10553000700302568DAC0AAD0B740212485FAA824A
:10554000AB831267E18E828F83A3A3750EFF750F65
:10555000FF7510FF751100780E1246BE74021248D6
:105560005F7512FF7513FF7514FF75150078121221
:1055700046BE780E79121244B1502A780E79121272
:10558000466B750A01750BC8750C00750D00780A1D
:10559000790E1244B15052850E0A850F0B85100CFE
:1055A00085110D80507516017517C875180075198D
:1055B0000085120A85130B85140C85150D780A7960
:1055C0000E12466B7816790A1244B1401C750A0017
:1055D000750B00750C00750D01780A791212466B77
:1055E000780A790E124632800C750A01750B007527
:1055F0000C00750D007409780A124613750E19F522
:105600000FF510F511780A790E1245708E828F838E
:10561000A3A3A3A3A3A3E0F8A3E0F97AD07B03128A
:105620004789880E890FE4F510F511780A790E1272
:105630004632740612485FE0F8A3E0F97AD07B03A3
:10564000124789E8FA8A0EE4F50F780A790E1244B7
:10565000B15007780A790E12466B900B43E064084C
:10566000600AE064066005E06405702D750E0D7833
:105670000E790A1244B14021750EF4750FFF7510B2
:10568000FF7511FF780A790E124632800C750A00F8
:10569000750B00750C00750D00851A82851B83E063
:1056A000F8A3E0F5838882780A1246F3740812485A
:1056B0002A7F1002498374F71248D71267F3900CBF
:1056C000E0E064017010906245E4F0A3F053F4F35D
:1056D00043FE0C5390F312679FE5C654804449F58E
:1056E000C6E59E547F644970F8906185740FF09010
:1056F0000CDEE0F47002A3E0604E900CDFE0600886
:1057000014601B14602E8040750A01750B00900C0C
:10571000DEE0780A124801E50AF45280802A750A10
:1057200001750B00900CDEE0780A124801E50AF4DE
:1057300052908014750A01750B00900CDEE0780A17
:10574000124801E50AF452A079007F0202498374ED
:10575000F71248D7E9FEEAFF74016E700C7A807B7D
:1057600000900B42E0F9125AD3906AA4E493F460DB
:1057700008E493F91265EF800953C680E59E547FD3
:1057800070FA1267A5900CE0E064017003126607DE
:10579000900CDEE0F47002A3E0604B900CDFE06060
:1057A0000814601A14602C803D750A01750B009076
:1057B0000CDEE0780A124801E50A42808028750A6A
:1057C00001750B00900CDEE0780A124801E50A42F0
:1057D000908013750A01750B00900CDEE0780A12B8
:1057E0004801E50A42A01267F31267518A0A8B0B3F
:1057F000A80AA90BE8496015E5E170FCE82414F556
:1058000082E93400F583E0F46003E0F5E174016FB0
:10581000700A7A01900B42E0F9125B4502574A7414
:10582000ED1248D78A0A8B0B8C0C8D0D741312481D
:105830005F780E1246E4780A790E1244B1751201AF
:105840007513C87514007515005012780A790E1278
:10585000466B7812790A1244B150168010780E798E
:105860000A12466B7812790E1244B1400479018015
:105870000279007F0C02498374ED1248D78A0A8BA3
:105880000B8C0C8D0D741312485F780E1246E47861
:105890000E790A1244B14011780A790E12466BAAA9
:1058A0000AAB0BAC0CAD0D802275120075130075A0
:1058B00014007515017812790E12466B7812790A68
:1058C000124632AA12AB13AC14AD1580A68A828B95
:1058D00083750AFF750BFF750CFF750D00780A12B2
:1058E00046D17F0402498374F51248D78C828D8398
:1058F000780A1246E48A828B83780A124697EA2451
:1059000004F8EB3400F98C828D83A3A3A3A3E0FCFD
:10591000A3E0FD88828983C3E09CF0A3E09DF0882A
:10592000828983C3E09420A3E0944E40268A828B30
:1059300083750AFF750BFF750CFF750DFF780A1252
:1059400046588A828B83A3A3A3A3E02420F0A3E07C
:10595000344EF00258CD74F51248D7E9FE900C98F9
:10596000E0FAA3E0FBEEC333F8E433F974B228F5B0
:1059700082748039F583E02AF50AA3E03BF50B78C1
:105980000A124A7E7A407B427C0F7D001254A87432
:105990000212482A8A0A8B0B8C0C8D0D7410780A1F
:1059A0001245FAAA0AAB0B7F0402498374F112482C
:1059B000D78A0E8B0F8C108D11740F12485FE0FA8E
:1059C000A3E0FB741112485FE0F50AA3E0F50B7841
:1059D0000A124A7EEA2401F50AEB3400F50BE4F5DD
:1059E0000CF50D780E790A1244F0750A71750B02E8
:1059F000780E790A1244F0AA0EAB0FAC10AD11125A
:105A000054A8740212482A8B0BEA450B60047A01F1
:105A100080027A00EC2AFCED3400FD741312485F1A
:105A2000E0F8A3E0F9E8FEE9FFECF8EDF97A717B24
:105A300002124789880A890B8E828F83780A124660
:105A4000F3ECF8EDF97A717B021247898A0A8B0B25
:105A50007405780A1248018E828F83A3A3A3A3E55D
:105A60000AF0A3E50BF07F08024983C082C083E9F6
:105A7000906000F0D083D082221244875EBD031272
:105A8000448768BD03124487A6BD03124487EFBD57
:105A90000312448729BE0312448783BE031244873E
:105AA000A4BE03124487ADBE03124487FABE03129C
:105AB000448723BF031244872DBF0312448799BF35
:105AC000031244872BC00312448775C00312448716
:105AD000ABC00312448737C10312448778C1031255
:105AE0004487AFC103124487C1C103124487E0C198
:105AF00003124487E9C103124487B6C203124487E4
:105B000087D6031244877ED70312448798D703129F
:105B10004487A9D703124487C8D903124487E7D919
:105B2000031244870782041244873D82041244878B
:105B3000738204124487BE8304124487178F0412B1
:105B400044872D8F04124487378F04124487818F36
:105B50000412448785FF011244872EDB0312448719
:105B600043DB03124487F3DB0312448733DC031265
:105B700044874CDC0312448787DC03124487D4DC5F
:105B80000312448706DD0312448748DD031244876D
:105B900049DF03124487E08B04124487098C041206
:105BA0004487388C04124487508C04124487928CAA
:105BB0000412448775E803124487A5E8031244875A
:105BC000B8E803124487E7E80312448706E90312A2
:105BD0004487B1E9031244874AEA03124487D3EAAF
:105BE00003124487DFEB03124487D1FF031244877B
:105BF0008B900412448797D301124487FCD501127D
:105C000044879DD70112448751D801124487E4D8B4
:105C10000112448769D9011244878ED90112448741
:105C2000E4DC011244876ADD011244879DDE011223
:105C30004487D7DE011244870CDF01124487CCE091
:105C40000112448729E10112448772E1011244875D
:105C5000DDE1011244874EE20112448780E2011225
:105C6000448798E201124487E1E301124487F1E39B
:105C7000011244870CE5011244872EE50112448786
:105C800064E50112448718E701124487A5E7011271
:105C90004487E4E70112448708E901124487EC8A4B
:105CA00004124487FC8A041244878E8B04124487B2
:105CB000B58B04124487D58B04124487E1900412FB
:105CC0004487209104124487E4FF01124487EFFFC8
:105CD00001124487E37F00124487BB8C041244877F
:105CE000CB8C04124487DD8C041244878F8D041200
:105CF0004487F3FE0212448778FF02124487DEFFD6
:105D000002124487D4FB03124487FCFB031244872E
:105D10002CFC031244878BFC03124487D9FC03122A
:105D2000448713FD0312448747FD03124487A3FDF4
:105D3000031244879A8804124487C4880412448753
:105D400027890412448739890412448789890412F7
:105D50004487C78904124487CA890412448748913A
:105D6000041244875891041244875B9104124487BB
:105D7000F87F0012448740FD01124487DBFE0112C8
:105D800044873CFF0112448782FF011244870BC8FD
:105D90000312448745C80312448762C8031244872C
:105DA0003FC903124487C9C903124487B6CA031204
:105DB0004487EACB031244870FCC0312448778CC84
:105DC00003124487D3CC0312448755B60312448789
:105DD00092B603124487ADB6031244877EB703120E
:105DE00044876CB80312448719BA031244878BBAEC
:105DF0000312448773BB03124487FABB0312448720
:105E00001ABD031244879D8504124487EF8504124E
:105E10004487798604124487E086041244878FF908
:105E200003124487B9F90312448787FA031244879F
:105E300062FB03124487769F031244873DA003123E
:105E4000448774A0031244879EA003124487FEA0D7
:105E50000312448754A103124487B9A10312448753
:105E600051A20312448760A303124487F7A40312CC
:105E7000448784A503124487EBA50312448702A636
:105E8000031244871CA7031244875AA703124487AE
:105E9000DDCA021244875ECE02124487E6CF0212A8
:105EA00044873DD0021244875CD002124487DAD086
:105EB0000212448770D20212448755D302124487DB
:105EC00063D70212448739D8021244870080011236
:105ED0004487198401124487E28701124487898923
:105EE000011244875D8A011244879D8A011244870A
:105EF000A98C01124487648D01124487928D01128E
:105F00004487558E01124487848E01124487D48EB3
:105F1000011244870A9001124487489B011244876A
:105F2000A19D011244872B9F01124487AB9F011250
:105F30004487C39F01124487ED9F011244871EA02E
:105F40000112448755A0011244878FA00112448793
:105F5000A7A10112448749A20112448717FE031228
:105F600044872EFE031244875FFE031244879AFE85
:105F700003124487C4FE03124487EEFE03124487D3
:105F800005FF031244871CFF0312448733FF0312EB
:105F900044875CFF031244876FFF0312448785FF29
:105FA0000312448798FF03124487BFFF03124487FC
:105FB000D38C03124487D78D031244870F8E0312AC
:105FC0004487328E031244873D8E03124487608ECD
:105FD000031244876F8F031244874490031244874F
:105FE000BF900312448747910312448782910312A2
:105FF0004487B99103124487479203124487209340
:10600000031244878093031244878B9303124487BF
:106010000A94031244870D940312448710940312C8
:1060200044879F9403124487A29403124487D29416
:1060300003124487FC9403124487EA9503124487B1
:106040009C960312448721CD0312448749CD031245
:10605000448777CD03124487AECD031244870CCE1C
:106060000312448757CE03124487A2CE03124487FB
:10607000E2CE0312448728CF0312448756CF03127F
:10608000448713D0031244871DD0031244872AD0BB
:10609000031244875DD00312448729D10312448739
:1060A00035D1031244874DD10312448757D10312CF
:1060B0004487958D04124487A38D04124487BB8DB9
:1060C00004124487D38D04124487519F02124487DF
:1060D000FD9F0212448778A00212448799A1021200
:1060E0004487D5A1021244877EA20212448765A389
:1060F00002124487C9A40212448720A502124487D1
:10610000A1A50212448791A602124487DEA60212BC
:10611000448764A70212448796A702124487AAA95B
:1061200002124487ECA9021244870AAA0212448789
:106130008DAA0212448761AB0212448729AC021275
:10614000448732AF0312448705B003124487AEB0D0
:106150000312448701B103124487B1B1031244878B
:106160003DB20312448729B30312448758B3031284
:1061700044876BB403124487B3B40312448788B5D1
:1061800003124487C4B503124487E0B50312448761
:10619000AF8F041244872AF00312448740F00312A1
:1061A000448766F00312448782F1031244878CF11E
:1061B00003124487C1F203124487B9F303124487E0
:1061C000E4C20312448714C40312448747C4031271
:1061D000448791C40312448758C603124487008041
:1061E000021244876A8002124487C98102124487DE
:1061F000D981021244870682021244875D8202120C
:1062000044870683021244870D8402124487D78490
:10621000021244873786021244877A860212448724
:106220001F87021244876C870212448792870212EA
:106230004487A08902124487A58902124487AA8B49
:1062400002124487F78B021244876A8C0212448739
:106250009D8C021244873F8D02124487E88D021202
:106260004487208E02124487238E021244876B8E4D
:1062700002124487AB8E02124487028F02124487B7
:10628000BCF603124487D4F6031244871CF70312AA
:10629000448732F70312448779F7031244878DF855
:1062A000031244871AF90312448765F903124487DD
:1062B0008EA2011244879AA201124487D5A201122C
:1062C00044871AA301124487DAA30112448760A409
:1062D00001124487C5A401124487F1A40112448726
:1062E0002AA50112448768A7011244874CA901120C
:1062F000448732AB0112448775AC01124487C3AEA8
:1063000001124487D5AF0112448720B1011244879E
:1063100030B2011244874DB20112448788B2011293
:106320004487AAB2011244870DB301124487CEB745
:106330000112448763B801124487B4B8011244873C
:10634000DBB8011244872DB9011244874BB9011201
:106350004487A5B901124487A4BA0112448728BB17
:1063600001124487DED103124487E8D10312448727
:106370002BD20312448746D203124487D6D203128B
:106380004487FED2031244873BD30312448772D35F
:10639000031244879BD30312448710D4031244870B
:1063A00025D4031244873AD4031244876BD40312D2
:1063B00044877FD403124487A4D403124487DED4D5
:1063C000031244870AD50312448742D50312448737
:1063D000C1D5031244870AD60312448734D6031268
:1063E00044875FD603124487D38904124487008010
:1063F000031244872E80031244877C810312448752
:106400005C82031244877B8203124487F882031262
:1064100044873B8303124487918403124487528547
:1064200003124487D987031244877A88031244876A
:106430007089031244876D8A03124487C78B031245
:106440004487528C031244873F8704124487A887ED
:1064500004124487FC87041244872388041244876B
:10646000548804124487BBDF0312448728E00312D8
:1064700044876FE00312448787E10312448783E275
:106480000312448766E3031244870D97031244877F
:106490004F9703124487219803124487FA980312F6
:1064A0004487F49903124487D69A031244873F9B8A
:1064B00003124487F59B03124487699C03124487A7
:1064C000D59C03124487FE9C03124487789D0312D7
:1064D0004487119E03124487769E031244878B9E45
:1064E00003124487D19E03124487EA9E0312448715
:1064F0004F9F03124487529F03124487C3F3031232
:106500004487EBF30312448729F403124487E7F42A
:10651000031244874EF5031244876AF50312448739
:1065200092F503124487C2F503124487D1F5031292
:1065300044874EF60312448774F603124487EF8FA4
:1065400002124487CD9102124487FF9302124487BE
:106550003B940212448768940212448752950212B7
:1065600044879D9502124487E89502124487FA9564
:10657000021244873A96021244876F9602124487A9
:10658000BD9602124487EC96021244870F970212BE
:1065900044875C9702124487E19702124487FB9973
:1065A000021244873A9C021244877B9C0212448761
:1065B0001D9E021244875E9E02124487D19E0212E3
:1065C0004487279F02124487B0E602124487AEE751
:1065D0000212448747EE0212448768F00212448791
:1065E00033F2021244879BF3021244878FBB0112DD
:1065F00044873EBC011244876BBC01124487B1BC86
:1066000001124487F1BD0112448787BF01124487FC
:1066100001C0011244871CC00112448797C00112B7
:106620004487F1C10112448751C30112448757C402
:1066300001124487B8C501124487D1C501124487AD
:106640002FC6011244871DC70112448750C701128B
:106650004487C0C7011244873AC80112448784C8DE
:10666000011244874EC90112448723CA011244878C
:1066700002CB011244878DCB01124487FBCB011260
:1066800044876FCC011244879ACC0112448759CDBC
:1066900001124487BECE01124487DBCE011244872B
:1066A000FACE01124487EBCF0112448710D00112B9
:1066B00044873AD001124487B5D0011244870FD1E4
:1066C0000112448778D20112448726D301124487ED
:1066D00067D301124487DCD8021244872AD90212F8
:1066E000448736D90212448714DA0212448745DA05
:1066F0000212448776DA02124487F6DA02124487DD
:106700002EDB0212448780DB02124487BDDB0212BB
:106710004487DADD0212448700E002124487EBE18D
:1067200002124487D5E302124487F47F00124487A3
:106730002DE9011244875DE90112448736F0011208
:106740004487BBF101124487B8F701124487A0F8CF
:1067500001124487DDF80112448700F901124487D1
:1067600031F9011244873AF90112448744F90112C0
:10677000448732FA0112448728FB01124487A86A31
:1067800000124487A76E00124487AD6E0012448742
:10679000E87500124487017B001244875CEC031209
:1067A0004487F2EC0312448708ED031244877EED20
:1067B00003124487F2ED0312448730EE031244873C
:1067C000A4EE031244871DEF0312448726EF031241
:1067D000448732EF0312448747EF0312448785EF63
:1067E000031244879BEF03124487FAEF0312448796
:1067F00028E40312448735E4031244874FE403126C
:1068000044878EE403124487CCE40312448731E5C5
:106810000312448746E50312448751E50312448777
:106820005EE50312448775E50312448783E503128E
:1068300044878EE5031244879AE503124487A9E54D
:1068400003124487B4E503124487D7E50312448753
:106850007EE6031244878EE603124487A8E60312FD
:106860004487C5E603124487E1E60312448706E73E
:106870000312448711E70312448726E70312448773
:106880003AE7031244879BE703124487A1E7031208
:106890004487A7E703124487ADE703124487C5E79F
:1068A00003124487F8E703124487B3BC02124487FB
:1068B00037BD02124487E6BD0212448745BF02126B
:1068C000448766C10212448752C20212448787C2BB
:1068D00002124487A9C20212448758C30212448795
:1068E00050C50212448779C5021244870BC60212B2
:1068F00044873DC6021244874AC602124487A1C695
:1069000002124487C7C60212448734C90212448760
:1069100037CA021244878FCA0212448742AE02125B
:1069200044874CAF0212448733B0021244873DB013
:10693000021244875FB0021244876BB00212448790
:1069400004B20212448733B2021244874FB30212D8
:106950004487A8B3021244870EB502124487EDB5EE
:106960000212448749B602124487B6B6021244871F
:10697000F1B60212448730B702124487E9B9021215
:10698000448703BA021244878FBA021244879DBA21
:1069900002124487F6BA0212448704BB02124487EB
:1069A00077BB02124487DBBB0212448725BC02126C
:1069B0004487C5F302124487E7F3021244870DF6B9
:1069C0000212448722F9021244873AFA02124487DB
:1069D000EDFA02124487CFFB02124487F8830412B7
:1069E00044871D84041244878F8404124487B8A707
:1069F00003124487C1A703124487CAA7031244871E
:106A0000A1A80312448752AA0312448788AA03123A
:106A10004487C2AA03124487F8AA0312448732AB00
:106A20000312448766AB0312448792AB0312448778
:106A3000DBAB0312448715AC031244875EAC031230
:106A40004487B6AC03124487EBAC0312448746ADCF
:106A50000312448780AD03124487D1AD03124487EB
:106A600007AE0312448741AE031244876FAE031290
:106A7000448792AE031244876C8E04124487988E2A
:106A800004124487F38E04124487FD8E0412448757
:106A90000D8F04124487B77F001244872A9104FFA8
:106AA000FFFFFFFFFFFFFFFF74F412486B907803B6
:106AB000E064427055900CE5E014F0704DC2AF12E6
:106AC0006AC200782AD0E0F618D0E0F6E59F5407B5
:106AD0007005750BFF8003750B7FC4C0E07829E655
:106AE000F50A08E6550BF50B740B780A1247F2D03D
:106AF000E0250AF8906270E0A2E740F8E8C333901E
:106B00006272F0906270E0D2E0F0900B71E0F4708D
:106B100003026EA2E0F875F003A4C8AAF02AF97483
:106B20007328FE740B39FFEE2401F582EF3401F572
:106B300083E0F8A3E0F9E849601EEE2401F582EF56
:106B40003401F583E0FAA3E0FBEE2400F582EF3494
:106B500001F583E0F9125AD38E828F83A3A3A3A3F6
:106B6000A3A3A3E0F8A3E0F98E828F83A3A3A3A33A
:106B7000A3E8F0A3E9F0906054E0900B4AF0906035
:106B800055E0900B4BF0906056E0900B4CF090600D
:106B900057E0900B4DF0906058E0900B4EF09060F5
:106BA00059E0900B4FF090605AE0900B50F09060DD
:106BB0005BE0900B51F090605CE0FC900B52F09029
:106BC000605DE0FB900B53F090605EE0FD900B5435
:106BD000F090605FE0FA900B55F0900B50E08C0A5B
:106BE000250AF8E43400F98D0AE8250AF8E93400AA
:106BF000F98B0AE8250AF8E93400F98A0AE8250A37
:106C0000FAE93400FBEE24F6F582EF3400F583E078
:106C10002AF0A3E03BF08C0AEE24F8F582EF340072
:106C2000F583E0250AF0A3E03400F0EE24FAF582C3
:106C3000EF3400F583E02401F0A3E03400F0EE240B
:106C4000FEF582EF3400F583E0F8A3E0F9E849604F
:106C500042906000E0C333FCE433FDE82CF582E9A8
:106C60003DF583E02AF0A3E03BF0906000E0FA906D
:106C70000B52E0FCEAC333FAE433FBE82AF8E93BC1
:106C8000F9E8244AF582E93400F583E02CF0A3E02A
:106C90003400F0900B50E07011900B53E0700BA398
:106CA000E07007A3E07003026D9F8E828F83A3A321
:106CB000A3A3A3E0F8A3E0F9EE240DF582EF3400DE
:106CC000F583E028F8A3E039F9EE240BF582EF34E0
:106CD00000F583E8F0A3E9F0EE240FF582EF34002D
:106CE000F583E4F0EE241CF582EF3400F583E064D4
:106CF00001701EEE2420F582EF3400F583E0F8A346
:106D0000E0F9EE241DF582EF3400F583E8F0A3E905
:106D1000F0900B4BE06052EE241CF582EF3400F54E
:106D2000837401F0EE2469F582EF3400F583E0709E
:106D300038EE2473F582EF3400F583E0702BEE24F7
:106D40007FF582EF3400F583E0701EEE2420F5829B
:106D5000EF3400F583E0F8A3E0F9EE241DF582EFAF
:106D60003400F583E8F0A3E9F0906062E07003027C
:106D70006E528E828F83E0F8A3E0F9E82406FCE9E6
:106D80003400FDE82402FAE93400FB1267D58E8254
:106D90008F83E0F8A3E0C82412F582E8026E5890D1
:106DA0000B52E0603AEE240FF582EF3400F583E4F5
:106DB000F0EE241CF582EF3400F583E064017040AE
:106DC000EE2420F582EF3400F583E0F8A3E0F9EE3D
:106DD000241DF582EF3400F583E8F0A3E98020EE6E
:106DE00024FCF582EF3400F583E02401F0A3E034C5
:106DF00000F0EE241DF582EF3400F583E4F0A3F0FB
:106E0000EE240BF582EF3400F583E0F8A3E0F98E71
:106E1000828F83A3A3A3A3A3E0687003A3E06960A8
:106E200003026D11EE240FF582EF3400F583E0606C
:106E3000128E828F83A3A3A3A3A3E064057002A391
:106E4000E0600479088002793EEEFAEFFB1266A357
:106E50008050EE241DF582EF3400F583E4F0A3F0BA
:106E60009061C8E06006124EB6E970F48E828F839E
:106E7000A3A3A3E0602C9061C8E0700690606074EA
:106E800080F0EEFAEFFB126793E964016014790277
:106E9000EEFAEFFB125063126787E9640160031298
:106EA00067337F0402493D53BFEF02448474EC1200
:106EB000486B900B71E0F875F003A4C8AAF02AF9AA
:106EC000747328FE740B39FF9061D0E07013EE24C8
:106ED00063F582EF3400F583E0F8A3E0F9E8496058
:106EE0000FEE241DF582EF3400F583E4F0A3805308
:106EF000EE2469F582EF3400F583E07047EE2473E9
:106F0000F582EF3400F583E0703AEE247FF582EFEE
:106F10003400F583E0702DEE241CF582EF3400F58B
:106F200083E06401701EEE2420F582EF3400F583C7
:106F3000E0F8A3E0F9EE241DF582EF3400F583E8D4
:106F4000F0A3E9F08E828F83A3A3A3A3A3E0F8A309
:106F5000E0F9EE241DF582EF3400F583E028F8A374
:106F6000E039F9E8240108E93400F9EE2407F50CCA
:106F7000EF3400F50D850C82F583E8F0A3E9F0EE1F
:106F8000240BF582EF3400F583C3E098A3E0995019
:106F9000358E828F83A3A3A3A3A3A3A3C082C083A0
:106FA000EE240BF582EF3400F583E0F8A3E0F9D08E
:106FB00083D082E0C398F8A3E099F9C3E894AAE9E2
:106FC00094105035803BEE240BF582EF3400F583AE
:106FD000C082C0838E828F83A3A3A3A3A3A3A3E0B5
:106FE000F8A3E0F9D083D082E0C398F8A3E099F940
:106FF000C3E894ABE994105008900C88E0640170E9
:1070000030EE241DF582EF3400F583E4F0A3F08E1A
:10701000828F83A3A3A3A3A3E02401F8A3E03400F9
:10702000F98E828F83A3A3A3A3A3A3A3E8F0A3E96C
:10703000F0EE2473F582EF3400F583E06401600321
:107040000272A8EE2474F582EF3400F583124A959B
:107050008E828F83A3A3A3A3A3A3A3E0FCA3E0FD3D
:107060008E828F83A3A3A3A3A3E0FAA3E0FB124E17
:107070006F740212482AE970030272A8EE2474F8B1
:10708000EF3400F9880A890B8882F583E0F8A3E0E1
:10709000F9850C82850D83E8F0A3E9F0EE2476FCF7
:1070A000EF3400FDEEFAEFFB1266AFEE247BF582C3
:1070B000EF3400F583E0F8A3E0F9EE2420F582EF49
:1070C0003400F583E8F0A3E9F0EE241CF582EF34F8
:1070D00000F583E4F0EE241DF582EF3400F583E43F
:1070E000F0A3F0EE240FF582EF3400F5837401F085
:1070F000850C82850D83E0F8A3E0F9EE240DF5827E
:10710000EF3400F583E028F8A3E039F9EE240BF51D
:1071100082EF3400F583E8F0A3E9F08E828F83A339
:10712000A3A3A3A3E0FCA3E0FD850A82850B83E073
:10713000FAA3E0FB124EAE8A0A8B0BEE242EF582E8
:10714000EF3400F583E0FAA3E0FBE4F50CF50D8ADB
:107150000E8B0FF510F511780A790E1244F0EE241B
:1071600077F582EF3400F583E0F50EA3E0F50F78B4
:107170000A790E124632EE2479F582EF3400F58357
:10718000E06A7003A3E06B7044EE247DF582EF3477
:1071900000F583E0F8A3E0F9EE2432F582EF340045
:1071A000F583E0687003A3E0697022EE247BF5822A
:1071B000EF3400F583E0F8A3E0F9EE2430F582EF38
:1071C0003400F583E0687003A3E0696052EE247D2B
:1071D000F582EF3400F583E0F50EA3E0F50F7404BB
:1071E000780E1247F2780E124A7EEE247BF582EF7B
:1071F0003400F583124A95EE2479F582EF3400F5D8
:1072000083E0FCA3E0C313FDEC13FC8E828F83A309
:10721000A3A3A3E0FA7B00126427740412482AEEA9
:107220002476F582EF3400F583E0C0E0EE242BF500
:1072300082EF3400F583D0E0F0EE2479F582EF346C
:1072400000F583E0F8A3E0F9EE242EF582EF340098
:10725000F583E8F0A3E9F0EE247BF582EF3400F546
:1072600083E0F8A3E0F9EE2430F582EF3400F583F3
:10727000E8F0A3E9F0EE247DF582EF3400F583E039
:10728000F8A3E0F9EE2432F582EF3400F583E8F05C
:10729000A3E9F0EEFAEFFB1266B5EE2473F582EF88
:1072A0003400F583E4F08016EE242EF582EF3400EE
:1072B000F583E0F50AA3E0F50BE4F50CF50DEE24FB
:1072C00018F582EF3400F583780A12449C701EEEA4
:1072D000241FF582EF3400F583E0F8EE241DF582DB
:1072E000EF3400F583E0687002A3E06039EE241209
:1072F000F50EEF3400F50F780E124A7EEE2410F5ED
:1073000082EF3400F583124A95EE241DF582EF34A6
:1073100000F583124A95AA0AAB0BAC0CAD0D1259BD
:10732000AC740612482AEE2418F582EF3400F58377
:10733000780A1246F3EE241DF582EF3400F583E05F
:10734000C0E0EE241FF582EF3400F583D0E0F0EECC
:107350002412FCEF3400FD8E828F83E02402FAA316
:10736000E03400FB1258E7906062E060147C0C7D12
:10737000818E828F83E02402FAA3E03400FB12584E
:10738000E78E828F83E0F8A3E0F988828983A3A344
:10739000E82408FCE93400FD74061247278E828F2A
:1073A00083E02402F8A3E03400F9E8FAE9FBEE24D4
:1073B0001DF582EF3400F583E0F512A3E0F513E448
:1073C000F514F515750E01F50FF510F51178127914
:1073D0000E1246327812790A1244F08A828B837830
:1073E000121246588A828B83750EFF750FFF751037
:1073F000FF780E1246D1900C82E0640160030275A2
:1074000035790112681D8E828F83E0FAA3E0FB7547
:107410000AFF750BFF750CFF750DFFEA240EF58250
:10742000EB3400F583780A1246F3EA2412F8EB34C1
:1074300000F9E8FAE9FBEE2412F582EF3400F58357
:10744000780A1246E4E50A75F0E2A4C50AA8F075C8
:10745000F004A428F875F0E2E50BA428F50B8A8265
:107460008B83E0250AF0A3E0350BF0EE2416F582BD
:10747000EF3400F583E0F50AA3E0F50B7404780A15
:107480001247F2E50A2401F8E50B3400F98A828BF1
:1074900083E028F0A3E039F0906062E08E828F8371
:1074A00070030275A9E0F8A3E0C82412F582E8345D
:1074B00000F583E02410F0A3E03401F0EE240FF592
:1074C00082EF3400F583E06032EE242BF582EF3456
:1074D00000F583E0F875F071A4C8AAF075F002A475
:1074E0002AF98E828F83E0FAA3E0CA2412F582EA99
:1074F0003400F583E028F0A3E039F08E828F83E03A
:10750000F8A3E0C82414F582E83400F5837410F081
:107510008E828F83E0F8A3E0C82416F582E8340059
:10752000F5837437F0A37466F0EEFAEFFB124CEFBC
:107530007900027AFC750E50750F00751000780EF8
:10754000790A1244B14003027406EE241DF582EF5D
:107550003400F583E0F8A3E0F9E84960030274061B
:10756000780A124A7AEEFAEFFB1266BB74041248EC
:107570002AE964016003027406EE240FF582EF34F9
:1075800000F583E060128E828F83A3A3A3A3A3E000
:1075900064057002A3E0600479088002793EEEFA87
:1075A000EFFB1266A379018089E0F8A3E0C82412FA
:1075B000F582E83400F583E02410F8A3E034FFF905
:1075C0007A717B02124789880A890BEE242EF58294
:1075D000EF3400F583E0F8A3E0F9C3E50A98E50B82
:1075E0009950030274BC80B074EC12486BEAFEEB55
:1075F000FF8C828D83E0F8A385820A85830B603B34
:107600001470030277D0147003027AC51470030259
:10761000784C24FD7003027965147003027AFC141F
:1076200070030279BC24FE700302796A14700302AD
:1076300079AC147003027A48027AEBEE2476F512E4
:10764000EF3400F513E0851282851383F0850A82FA
:10765000850B83A385820A85830BEE2477F510EFD3
:107660003400F5117902AC0AAD0BAA10FB1266CDFD
:107670008A0A8B0BEE2479F50EEF3400F50F7902B0
:10768000AC0AAD0BAA0EFB1266CD8A0A8B0B7902EF
:10769000AC0AAD0BEE247BFAEF3400FB1266CD8A08
:1076A0000A8B0BEE247DF50CEF3400F50D7902AC5E
:1076B0000AAD0BAA0CFB1266CD8A0A8B0B851282CF
:1076C000851383E0C333F0851082851183E0F8A32E
:1076D000E0F9E8C333F8E933F9851082851183E8CE
:1076E000F0A3E9F0850E82850F83E0F8A3E0F9E8C6
:1076F000C333F8E933F9850E82850F83E8F0A3E9F7
:10770000F0850C82850D83E0F50EA3E0F50F74047F
:10771000780E124801850C82850D83E50EF0A3E5F5
:107720000FF0EE2474F50CEF3400F50D7902AC0A7D
:10773000AD0BAA0CFB1266CD850C82850D83C08231
:10774000C0838E828F83A3A3A3A3A3E0F8A3E0F951
:10775000D083D082E0C398F8A3E099F9C3E894FFFE
:10776000E9947F4003027826EE247DF582EF340011
:10777000F583E0F50AA3E0F50BE4F50CF50DEE2436
:107780007BF582EF3400F583E02401F50EA3E034AD
:1077900000F50FE4F510F511EE2479F582EF3400D1
:1077A000F583E0F8A3E0F9E8C333F8E933F9881288
:1077B0008913E4F514F515780E79121244F0780A5D
:1077C000790E1244B14004793B805DEE24738062EF
:1077D000EE2480F50CEF3400F50D7402C0E079055D
:1077E000AC0AAD0B7A7D7B0C1266CDEAFCEBFDD0CA
:1077F000E0F9AA0CAB0D1266CD850C82850D83C015
:1078000082C0838E828F83A3A3A3A3A3E0F8A3E007
:10781000F9D083D082E0C398F8A3E099F9C3E89443
:10782000FFE9947F40097928EEFAEFFB027AE6EE51
:10783000247FF582EF3400F5837401F0EE241DF50A
:1078400082EF3400F583E4F0A30279B8EE24E1F589
:1078500082EF3400F583E07039EEF8EFF97A567B69
:107860000B8A828B83A3E0C0E0E824E2F582E9344E
:1078700000F583D0E0F08A828B83A3AA82AB838851
:10788000828983A3A882A983EA645E7003EB640BF8
:1078900070CFEE24E2F582EF3400F583E0A2E0EE53
:1078A000401124DDF582EF3400F583741AF0790D70
:1078B000027ABF2462F582EF3400F583E4F0EE240F
:1078C00067F582EF3400F583E4F0EE24E0F582EF13
:1078D0003400F5837401F07908AC0AAD0BEE249BFB
:1078E000FAEF3400FB1266CD8A0A8B0B7902AC0AE0
:1078F000AD0BEE24A3FAEF3400FB1266CD8A0A8B9F
:107900000BEE2493F50CEF3400F50D7908AC0AADBD
:107910000BAA0CFB1266CD8A0A8B0B7908AA0CAB5A
:107920000D1266D3EE2487F50CEF3400F50D7904C3
:10793000AC0AAD0BAA0CFB1266CD7904AA0CAB0DF8
:107940001266D3EE248BFAEF3400FB1266E5EE24C8
:1079500083FAEF3400FB1266EB900B45E04480F0B5
:107960007904027ABFEE24DE8045EE2462F582EFD0
:107970003400F583E4F0EE2467F582EF3400F583FC
:10798000E4F0EE24D2F582EF3400F583E4F0EE2447
:10799000DCF582EF3400F5837401F0EE24D3F58238
:1079A000EF3400F583E4F0790B027AF9EE24DFF589
:1079B00082EF3400F5837401F0027AFCEEF8EFF9FF
:1079C0007A567B0B8A828B83A3E0C0E0E824E2F541
:1079D00082E93400F583D0E0F08A828B83A3AA8207
:1079E000AB8388828983A3A882A983EA645E70033B
:1079F000EB640B70CFEEF8EFF97A567B0B8A828B33
:107A000083A3E0FC850A82850B83E05CC0E0E82468
:107A1000E2F582E93400F583D0E0F0850A82850B37
:107A200083A385820A85830B8A828B83A3AA82AB78
:107A30008388828983A3A882A983EA645E7003EBAA
:107A4000640B70B979098077EE24EAF582EF34008F
:107A5000F583E064017003027AEB850A82850B836B
:107A6000E0C0E0EE24EDF582EF3400F583D0E0F0E5
:107A7000850A82850B83A385820A85830B7402C0E5
:107A8000E0F9AC0AAD0BEE24EEFAEF3400FB12661F
:107A9000CDEAFCEBFDD0E0F9EE24F0FAEF3400FB88
:107AA0001266CDEE24EAF582EF3400F5837401F01E
:107AB000EE24ECF582EF3400F583E0703F790CEEB4
:107AC000FAEFFB8034EE24F4F8EF3400F9E088821A
:107AD0008983F0EE24F3F582EF3400F5837401F02E
:107AE00088828983E0F91266A38011EE24F5F5827D
:107AF000EF3400F583E8F079071266737F0C0249D2
:107B00003D74F612486BEAFEEBFF027D47EEFAEF9A
:107B1000FB126667027F93EE2469F582EF3400F56D
:107B200083E06401703E900B4DE07003027E23EE13
:107B3000FAEFFB126679EE24A3F50AEF3400F50B99
:107B4000780A124A7EEE249BFCEF3400FD8E828F71
:107B500083A3A3A3A3E0FA7B001264337402124848
:107B60002A027D47EEFAEFFB12663D027F93EE2478
:107B700069F582EF3400F583E064017055900B4D98
:107B8000E06031EE2482F582EF3400F5837401F079
:107B9000EE24D4F582EF3400F583E4F0A3F0A3F0F3
:107BA000A3F0EE24D8F582EF3400F583E4F0A3F0DF
:107BB000A3F0A3F0EE24DEF582EF3400F583E06459
:107BC000016003027E237906EEFAEFFB12667F0264
:107BD0007D47EE24D2F582EF3400F583E064017036
:107BE0002AEEFAEFFB126643E964016003027FB0FC
:107BF000EE24DEF582EF3400F583E4F0EE2469F53F
:107C000082EF3400F5837401027F9EEE24D3F58267
:107C1000EF3400F583E07003027FB0EE24B2F50A82
:107C2000EF3400F50B780A124A7EEE248BFCEF3419
:107C300000FDEE24C2FAEF3400FB1266F17402126A
:107C4000482AEE24D2F582EF3400F5837401027DD8
:107C50000FEE2469F582EF3400F583E064016003E0
:107C6000027D12900B4DE07003027E23EE2420F57E
:107C700082EF3400F583E0F8A3E0F9EE241DF582ED
:107C8000EF3400F583E8F0A3E9F0EEFAEFFB1266BB
:107C900079EE2462F582EF3400F5837401F0EE246E
:107CA00067F582EF3400F5837401F0EE24DCF58291
:107CB000EF3400F583E06401701379008E828F83C6
:107CC000A3A3A3A3E0FA7B0012643F80137C017995
:107CD000008E828F83A3A3A3A3E0FA7B00126439F2
:107CE000EE24DCF582EF3400F583E4F0EE24E0F5D9
:107CF00082EF3400F583E4F0EE24DFF582EF340008
:107D0000F583E4F0EE24DEF582EF3400F583E4F051
:107D10008035EEFAEFFB126649027F93EE2469F597
:107D200082EF3400F583E064016003027DB2EE244B
:107D3000DFF582EF3400F583E064016003027E2307
:107D4000EEFAEFFB126679EE246EF582EF3400F561
:107D500083E07003027FB0EE246AF582EF3400F511
:107D600083E024FE602F24FE7003027B171470034F
:107D7000027B6E147003027C51147003027FA124F5
:107D8000FE7003027E5524FE6092147003027EA2F0
:107D900014604C80B2EE2469F582EF3400F583E084
:107DA00064016003027B0D900B4CE0607679160253
:107DB0007F74EEFAEFFB12664FE964016003027F05
:107DC000B0EE24DFF582EF3400F583E4F0EE248298
:107DD000F582EF3400F583E4F0EE2469027C45EE91
:107DE0002469F582EF3400F583E06401705D900B47
:107DF0004DE06026EE2482F582EF3400F583E4F056
:107E0000EE2462F582EF3400F5837401F0EE24670E
:107E1000F582EF3400F5837401F0900B4CE06003C1
:107E2000027D40EE2471F8EF3400F988828983E006
:107E300024FFF0A3E034FFF088828983E0F8A3E018
:107E4000F9E8496003027FB0027F72EEFAEFFB129D
:107E50006655027F93EE2469F582EF3400F583E0E6
:107E600064017034900B4DE060B9EE24E1F582EFCF
:107E70003400F5837401F0EE2420F582EF3400F530
:107E800083E0F8A3E0F9EE241DF582EF3400F583DA
:107E9000E8F0A3E9F0027D40EEFAEFFB12665B0228
:107EA0007F93EE2469F582EF3400F583E06401608E
:107EB00003027F7FEE24EAF582EF3400F583E0646D
:107EC000017051EE24EBF582EF3400F583E064019C
:107ED0006003027D40EE24F0F582EF3400F583125A
:107EE0004A95EE24EEF582EF3400F583124A95EEC2
:107EF00024EDF582EF3400F583E0FC8E828F83A3BE
:107F0000A3A3A3E0FA7B00790012642D7404124845
:107F10002A027D40EE2471F8EF3400F988828983CB
:107F2000E024FFF0A3E034FFF088828983E0F8A327
:107F3000E0F9E849707AEE24F0F582EF3400F58339
:107F4000124A95EE24EEF582EF3400F583124A953D
:107F5000EE24EDF582EF3400F583E0FC8E828F8312
:107F6000A3A3A3A3E0FA7B00792212642D74041268
:107F7000482A7922EEFAEFFB1266A379018033EEEC
:107F800024ECF582EF3400F5837401F0EEFAEFFB98
:107F9000126661EE2469F582EF3400F583E9F08022
:107FA0000FEEFAEFFB12666DE964017003027D408B
:107FB00079007F0202493DC082C083851A82851BF9
:107FC00083E0F8A3E0F9E84960128A828B83ECF041
:107FD000A3E824FF18E934FFF94870F2D083D08277
:107FE0000244847403F5D575D4727403F5D375D245
:107FF0007A024484024484FF851C87C2AF02448411
:1080000074F612486B74C4124814E99009E1F01236
:108010005F0B9080A1C082742B12485FAC82AD834D
:10802000758380D0827411124727742112485FAA89
:1080300082AB83126559742312485F1283FB124886
:108040005F1283EFC0E0740D12485FD0E012840924
:1080500012485F1283EFC0E0740E12485FD0E0F068
:10806000742212485F1283FB12485F1283EFC0E054
:10807000740F12485FD0E012840912485F1283EF38
:10808000C0E0741012485FD0E0F0742112485FE045
:1080900012840212485F1283EFC0E0741112485F2D
:1080A000D0E0F0742112485FE012840312485F129E
:1080B00083EFC0E0741212485FD0E0F0750A0675D5
:1080C0000B00780A124A7E740F12485FAC82AD83AF
:1080D0007AC47B10125A7F740212482A780A124A14
:1080E0007E740F12485FAC82AD837AE87B10125A1F
:1080F0007F740212482A7C067D007A1F7B00126082
:1081000043740C12485F7401F0741F12485FE4F06E
:10811000A3F0740B12485F7401F0741D12485F7471
:1081200020F0A37403F0741B12485F74B0F0A374C2
:1081300004F0741912485F7404F0A3E4F074171289
:10814000485F7488F0A37413F0740C12485FAC821B
:10815000AD8379017A057B03125E8D741F12485F2F
:10816000AC82AD8379027A067B03125E8D7CB87D8A
:1081700010791B7A087B03125E8D7CD37D10790BFE
:108180007A077B03125E8D740B12485FAC82AD835D
:1081900079017A107B03125E8D741D12485FAC82E8
:1081A000AD8379027A117B03125E8D741B12485FD6
:1081B000AC82AD8379027A127B03125E8D74191240
:1081C000485FAC82AD8379027A137B03125E8D74B3
:1081D0001712485FAC82AD8379027A147B03125E7A
:1081E0008D7CDE7D107A1579001261BD7C207D03C7
:1081F0007A067B001260437C207D037A077B0012A5
:1082000060437C207D037A087B001260437C207DE4
:10821000037A097B00126043742712485F128410AE
:10822000740A12485F7401F0740912485F7401F017
:10823000740812485FE4F0740712485F7401F07428
:108240002712485FAC82AD8379047A087B04125B05
:10825000F3740A12485FAC82AD8379017A007B0423
:10826000125BF3740912485FAC82AD8379017A0224
:108270007B04125BF3740812485FAC82AD83790112
:108280007A037B04125BF3740712485FAC82AD8300
:1082900079017A067B04125BF39081C412470212C3
:1082A00061C39081C41247021262D19081C4124707
:1082B00002125D8B125BB1125DC7741512485F74B8
:1082C00003F0A3E4F0741312485F746AF0A3E4F0BF
:1082D000741512485FAC82AD837A027904125D97FF
:1082E000741312485FAC82AD837A027900125D97F5
:1082F000740612485F740AF0AC82AD837A0179018A
:10830000125BBD9009E1E0F9125B9F75FDF675F314
:108310000175FEFB75F40075FFFF75F500125EF345
:10832000125F47125F417AFC7B10125D917AE17B0C
:108330005E125BB7125BE17AA67B04125F53125F99
:108340004D79011263C77A107B009009E1E0F912C0
:108350005AD37A817950125D079081E8C082851ADC
:1083600082851B83AC82AD83758381D082740212B7
:108370004727851A82851B83AA82AB837902125D07
:1083800013740212485FAA82AB837904125D0D74E4
:108390000212485FE0F47009740312485FE0F46071
:1083A00026740312485FE0F9740212485FE09009F6
:1083B000E4128D5F740512485FE0F9740412485F9F
:1083C000E09009E6128D5F125F05851A82851B8396
:1083D000EAF0A3EB128A4B7A027904125D977A01D4
:1083E0007B009009E1E0F9125AD3743C028ECCE58F
:1083F0008228F582E583129A9CE022E0F50A128435
:108400000222C4540FF8742B22F0E50A12840322CE
:10841000E4F0A3F0A3F0A3F02274F412486B74F715
:10842000124814EAFEEBFF548060239009E1E0F962
:10843000125ABB8A0A8B0BEA450B600A125ED5AA58
:108440000AAB0B125AA9EEFAEF64800287D1EEA2B2
:10845000E040030284FC900A1DE0703F7AF87B1034
:10846000125E997A1E7B0A125C11851A82851B8323
:108470007401F0AC82AD83F97A057B03125E8D90B6
:108480008188124A917A027B009009E1E0F9125B3F
:108490006F740412482A908184802B6401703DC25D
:1084A00090C291C296C297C2A0C2A1C281C282C22A
:1084B00084C285C286C28790049674FFF0A3740FAD
:1084C000F0D293908180124A917A017B009009E169
:1084D000E0F9125B6F740412482A8014E0640270A1
:1084E00015125EF37A017B009009E1E0F9125B7BE3
:1084F000900A1DE004F0EE640102875F541060559D
:108500007A81791D125D07740112485FE4129002AE
:10851000125D25851A82851B83AA82AB837901129D
:108520005D2B851A82851B83E0543FF06004F912AD
:108530005F11900A1CE070179010F4124A917A10A3
:108540007B009009E1E0F9125B6F740412482AEE97
:10855000641002875FEE540860289009E2E0640529
:10856000701A125BC390815C124A917A087B00906A
:1085700009E1E0F9125B6F740412482AEE64080204
:10858000875FEE54026028125EE790049BE064016E
:108590007017908188124A917A027B009009E1E07D
:1085A000F9125B6F740412482AEE640202875FEED0
:1085B00054807003028649900A12E06403707F9031
:1085C0000A137401F0125B098A0A8B0B8C0C8D0D57
:1085D000780A124A7A740612485FAA82AB83125B49
:1085E0000F740412482A740412485FE0F9C3940C13
:1085F000400474F429F975F005740312485FE084AF
:108600009010F3F069700CE0640B7004740A80023F
:10861000E004F07A00125EF9125EFF908184124A43
:10862000917A007B029009E1E0F9125B6F74041209
:10863000482A7A007B049009E1E0F9125B7B900AFA
:1086400012E4F0EE648002875FEF5401600B125E6B
:10865000FFEEFAEF64010287D1EF540260277A003F
:108660007B019009E1E0F9125B7B125EF3900A1442
:10867000E4F09010F3740DF0900A13E4F0EEFAEFCA
:1086800064020287D1900A16E014F50AEE542060C5
:1086900061E0C3940750167A00E0F9125EF97A009F
:1086A000900A16E0F8740CC398F9125EF97A01A9E1
:1086B0000A125EF97A01900A16E0F8740DC398F96F
:1086C000125EF9900A16E004F0C3940850199081E4
:1086D000B8124A917A207B009009E1E0F9125B6FB1
:1086E000740412482A8006E4F0900A13F0EE642025
:1086F000806DEF5408605DE0C3940C500D7A00E08B
:10870000F9125EF97A01A90A8016E0640C700D7AFC
:10871000007900125EF97A01790B80047A01790000
:10872000125EF9900A16E004F0C3940E501990817D
:10873000B4124A917A007B089009E1E0F9125B6F6C
:10874000740412482A8006E4F0900A13F0EEFAEF5F
:108750006408807DEE5440600A125EF3EE6440FAD5
:10876000EF806EEF54046024900A15E06017900AC1
:10877000137401F0FAF9125F177A207B009009E177
:10878000E0F9125AD3EEFAEF64048045EF5410601A
:10879000137A007B089009E1E0F9125AD3EEFAEF60
:1087A0006410802DEF5420602B125F1D900A17E09B
:1087B000C394035017908160124A917A007B2090F5
:1087C00009E1E0F9125B6F740412482AEEFAEF64D3
:1087D00020FB80047A007B00740912482A7F04027F
:1087E000493D74F712486B74FC1248148A828B83DB
:1087F000E064C0600302893BA3A3A3E0FE7A817911
:108800004A125D07740312485FE4129002125D255C
:10881000740212485FAA82AB837901125D2B740245
:1088200012485FE0A2E0E433900A15F0EEA2E050B7
:108830007A900A13E0600302893B900A15E0A2E0F7
:108840005019908154124A917A007B049009E1E01A
:10885000F9125B6F740412482A800C7A007B049032
:1088600009E1E0F9125B7B900A15E06021900A12A1
:10887000E070057402F0801C6402600302893E749B
:1088800003F07A807B009009E1E0F9125B7B900AAB
:1088900012E06017908158124A917A807B0090090B
:1088A000E1E0F9125B6F740412482AEEA2E1400382
:1088B00002893B7A81791D125D07851A82851B83A7
:1088C000742AF0740112485FE4129F25125D13852B
:1088D0001A82851B837416129002125D2574011290
:1088E000485FAA82AB837901125D2B851A82851BB2
:1088F00083742DF0740112485FE4129F25125D13FA
:10890000851A82851B83742AF0740112485F129FB6
:1089100023125D13900A18128410900A1CF07A0139
:10892000F9125EF99010F4124A917A107B009009C6
:10893000E1E0F9125B6F740412482A028A53E06482
:10894000036003028894900A137401F0FA79031209
:108950005F17908190124A917A007B109009E1E0B4
:10896000F9125B6F740412482A7A807B009009E147
:10897000E0F9125B7B7A007B049009E1E0F9125B7D
:108980007B900A12E4F00288AB74F712486B74F221
:10899000124814E9FE146010147003028A2924FDA1
:1089A0007003028A34028A42740812485FAC82ADB6
:1089B000837A047B03125E93740812485F129EFB55
:1089C000740912485FE0C0E0740112485FD0E0F023
:1089D000740A12485FE0C0E0740212485FD0E0F011
:1089E000740412485FE4F0740312485FE4F0740DFD
:1089F00012485FE0C0E0740712485FD0E0F0740CEA
:108A000012485FE0C0E0740612485FD0E0F0740BDB
:108A100012485FE0C0E0740512485FD0E0128A4B54
:108A20007A087900125BE780197A007900125CAD50
:108A30007A0080097A017900125CAD7A017900121E
:108A40005CA7EE9009E2F0740E800A129FA3AC823C
:108A5000AD8322740412482A7F0102493D74F71243
:108A6000486BE9FE74016E70219009E2E0640570C4
:108A70002A90815C124A917A087B009009E1E0F922
:108A8000125B6F740412482A801174026E700C7AA3
:108A9000087B009009E1E0F9125B7B80BB74F61261
:108AA000486B74F812481490049BE0640160030260
:108AB0008C4F900499E0F890049AE0C39840030228
:108AC0008C4FE0FAE8C39AF895E0F9C3E89406E918
:108AD0009400A2D265D033E0FE5003028BA0028B3B
:108AE0006390049474FFF0A3128C59124A7E7C8E1A
:108AF0007D04740212485FAA82AB83125A7F74020B
:108B000012482A780A124A7E7C907D047404124826
:108B10005FAA82AB83125A7F740212482A780A1223
:108B20004A7E7C927D04740612485FAA82AB83124F
:108B30005A7F740212482A780A124A7E7C947D0475
:108B4000740812485FAA82AB83125A7F74021248DB
:108B50002A851A82851B83AC82AD837A087901123B
:108B60005D970E8E82A88290049AE02405FAE43480
:108B700000FBE89AE49BC365D0335020E8128C6375
:108B8000700D90061DE0900494F0A3E4028AE8744E
:108B9000016E6003028AE190049980E9EA028C5335
:108BA000EE128C63700590061D800874016E700CC7
:108BB000900499E0900494F0A3E4800790049474E6
:108BC000FFF0A3128C59124A7E7C8E7D047402122F
:108BD000485FAA82AB83125A7F740212482A780A2D
:108BE000124A7E7C907D04740412485FAA82AB8393
:108BF000125A7F740212482A780A124A7E7C927DA9
:108C000004740612485FAA82AB83125A7F74021260
:108C1000482A780A124A7E7C947D04740812485FC0
:108C2000AA82AB83125A7F740212482A851A82855F
:108C30001B83AC82AD837A087901125D970E900494
:108C400099129AE75003028BA0E090049A80049056
:108C5000049BE4F07408028ECCF0750A02750B00D8
:108C6000780A2275F006A4F8A9F0745D28F8740556
:108C700039F988828983E0FAA3E0FB90048E128C94
:108C80009DE0FAA3E0FB900490128C9DA3A3E0F872
:108C9000A3E0F9900492E8F0A3E9F0EE22EAF0A351
:108CA000EBF088828983A3A32274F412486B74F1D9
:108CB000124814E9146009146065146057028D5954
:108CC000851A82851B83AA82AB837901125D9D85FB
:108CD0001A82851B83129ACC9010B0128D5E125F9F
:108CE00005740212485FEAF0A3EBF0740212485FC9
:108CF000AC82AD837A027904125D97900A17E4F092
:108D0000908160124A917A007B209009E1E0F9128B
:108D10005B6F80407AE37B097903125D9D803A7432
:108D20000412485FAA82AB837902125D9D7404121B
:108D3000485F124702125B03125B098A0A8B0B8C95
:108D40000C8D0D780A124A7A740C12485FAA82AB15
:108D500083125B0F740412482A740F0287DAE8F05A
:108D6000A3E9F022C082C083D290D291D296D2974A
:108D7000D2A0D2A1D281D282D284D285D286D28709
:108D8000900496E4F0A3F0C293C280C294C295020C
:108D9000A24274F212486B750A01750B00E9780A59
:108DA000124801AE0AAF0B046A7011EEF4FCEFF446
:108DB000FD900496E05CF0A3E05D8009900496E0ED
:108DC0004EF0A3E04FF0900496E0FCA3E0FDEC4DE4
:108DD0007004C2938002D293E96070146020146022
:108DE0002414602814602C1460301460341460382B
:108DF00014603C1460401460441460488052EAA23D
:108E0000E09291804BEAA2E092968044EAA2E0923E
:108E100097803DEAA2E092A08036EAA2E092A1808B
:108E20002FEAA2E092818028EAA2E092828021EAE1
:108E3000A2E09284801AEAA2E092858013EAA2E07E
:108E40009286800CEAA2E092878005EAA2E09290E6
:108E50007F0602493DC082C083900A14E07004740A
:108E6000018001E4F0E0FA9010F3E0F9125EF9906D
:108E70008158124A917A007B019009E1E0F9125B76
:108E80006F02A23D74F612486B9009E4129ACC75F9
:108E900083097582E6E0C398F50AA3E099F50B759E
:108EA00083097582E6C3E098A3E099500CE50A2493
:108EB000A0F50AE50B340FF50B7403780A1247F29C
:108EC000E50A2403FAE50B3400FB800312482A7FED
:108ED0000202493DC082C08374FE1248147A81792F
:108EE0001D125D07851A82851B83742BF074011295
:108EF000485F7440129F25125D13851A82851B837B
:108F0000742B129002125D25740112485FAA82AB85
:108F1000837901125D2B740112485FE0A2E640DA0A
:108F2000851A82851B83740EF0740112485F7402E7
:108F3000129F97F9125D13851A82851B837409F0BD
:108F4000740112485F7440129F25125D13851A82C6
:108F5000851B837415F0740112485F74FF129F25FE
:108F6000125D13851A82851B837417F074011248F1
:108F70005F7411129F25125D13851A82851B8374FD
:108F800018F0740112485F7403129F25125D138557
:108F90001A82851B83742CF0740112485F740812C6
:108FA0009F25125D13851A82851B83742DF0740131
:108FB00012485F7404129F25125D13851A82851B67
:108FC00083742EF0740112485F7404129F25125DA1
:108FD00013851A82851B83742BF0740112485F7409
:108FE0001F129F25125D13851A82851B83742AF038
:108FF000740112485F129F23125D13740202A23F94
:109000007444F0AA82AB8379012274E812486B742D
:10901000D2124814740A12485FE9F0741612485FBD
:10902000AC82AD83758381758222740812472774E0
:109030000E12485FAC82AD8375838175821A740805
:10904000124727740B12485F7401F07A81791D1260
:109050005D077AC07B00125B2D740612485FEAF050
:10906000A3EBF07CC07D007900740612485FE0FA43
:10907000125A97740612485F129ACCE84960497CEC
:10908000C07D007900740612485F129ADE125A976A
:10909000740B12485FAA82AB837901125D257406B6
:1090A00012485F129ADE75F006740A12485FE0A457
:1090B000F9125D2B740A12485FE0900498F0C39493
:1090C00005500E7900029A8F900498E4F0F9029A04
:1090D0008F7E00EE75F006A4F8A9F0749D28FA744E
:1090E0000439FB740612485FE028F8A3E039F988D8
:1090F000828983E0FDA3E08A828B83129B41129ACE
:10910000B6E08A828B83A3A3129B41A3A3129AB6D3
:10911000A3A3E0F8EDF98A828B83A3A3A3A3128D06
:109120005E0E129AE440AC7CC07D0079007A5D7BD3
:1091300005125A97750AC0750B00780A124A7E7C90
:109140009D7D047A5D7B05125A7F740212482A9035
:109150000498E0900499F090049AE4F090049CE064
:109160006401700790061D74018007900620E0904E
:10917000061DF090049CE4F090049B04F07A027BBE
:10918000009009E1E0F9125AD37E0080010E129A94
:10919000E440FA7E008E0A750B007403780A1248C8
:1091A00001AA0AAB0B74222AF874073BF974722ADD
:1091B000FA74083BFB8A0A8B0B8A82F583124702FA
:1091C0008882898312470E850A82850B83A3A3A315
:1091D000A312470288828983A3A3A3A312470E0E7A
:1091E000EEC3940A40AF7E0A8E82AA828A0A750B69
:1091F000007403780A1248017422250AF8740735AE
:109200000BF9E8FCE9FDEA75F006A4FAABF0749DF1
:109210002AFA74043BFBEA24C6129B06780A12461B
:10922000F3EA24C8129B06A3A3A3A3780A1246F369
:109230000E900498E0240BF8E43400F9EE98E499D9
:10924000C365D03340A27A207B00125B2D740812D4
:10925000485FEAF0A3EBF07C207D007900740812EF
:10926000485FE0FA125A977E000295BB8E0A750B92
:10927000007403780A124801AA0AAB0B74222AF878
:1092800074063BF9740412485F128D5E9010B7E0CB
:10929000F50AE4F50BF50CF50D742A12485F780A0F
:1092A0001246F39010B6E0F50A742612485F780A69
:1092B0001246F39010B5E0F50A742212485F780A5E
:1092C0001246F39010B4E0F50A741E12485F780A53
:1092D0001246F39010B3E0F50A74222AF874073BA3
:1092E000F9851A82851B83128D5E9010B2E0F50E0F
:1092F000E4F50FF510F511129AED78161246E41206
:109300009B352450129A9978161246457816790E94
:109310001244F0129B352408129AB01246E4129BB4
:10932000352448129AB01246457812790A1244F050
:1093300078167912124632C016C017C018C019121A
:109340009B352410129AB01246E4129B3524401229
:109350009AB0124645741E12485F78161246E47899
:109360001279161244F0D019D018D017D0167816EA
:109370007912124632C016C017C018C019129B3598
:109380002418129AB01246E4129B352438129AB06F
:10939000124645742212485F78161246E478127914
:1093A000161244F0D019D018D017D01678167912AA
:1093B000124632C016C017C018C019129B3524209F
:1093C000129AB01246E4129B352430129AB012461B
:1093D00045742612485F78161246E4781279161200
:1093E00044F0D019D018D017D0167816791212463A
:1093F00032C016C017C018C019129B352428129A03
:10940000B01246E4742A12485F78161246E47812C5
:1094100079161244F0D019D018D017D016781679D2
:1094200012124632740A78161245E0740412485F2C
:10943000129AF378161246F3740412485F129AD205
:1094400012485F128D5E129AEDA3A3A3A3781212A5
:1094500046E4129B352454129AB01246457812798C
:109460000E1244F085120E85130F85141085151108
:10947000129B35240C129AB01246E4129B35244CF0
:10948000129AB01246457812790A1244F0780E7991
:1094900012124632129B352414129AAA1246E41272
:1094A0009B352444129AAA124645741E12485F78CE
:1094B000121246E4780A79121244F0780E790A12F0
:1094C0004632129B35241C129AAA1246E4129B358E
:1094D000243C129AAA124645742212485F7812124E
:1094E00046E4780A79121244F0780E790A1246326C
:1094F000129B352424129AAA1246E4129B35243476
:10950000129AAA124645742612485F78121246E44F
:10951000780A79121244F0780E790A124632129BB8
:1095200035242C129AAA1246E4742A12485F781243
:109530001246E4780A79121244F0780E790A12463B
:1095400032740A780E1245E0740212485F129B00D2
:109550001246F3740212485F129AF378121246E42C
:10956000740412485F129B2F1246E4850A0E850B85
:109570000F850C10850D11780E790A1244F08512B2
:109580000A85130B85140C85150D780A791212447F
:10959000F0780E790A1246328E0A750B0074027842
:1095A0000A124801740812485FE0250AF8A3E03562
:1095B0000B8882F583780E1246F30E129AE450035C
:1095C00002926C7E008027780E79121244B1500A04
:1095D000741A12485F780E1246F3780A790E124414
:1095E000B1500A741212485F780E1246F30E7412CC
:1095F00012485F780A1246E4741A12485F78121211
:1096000046E4900498E0C313FF129AE7504D8E0E83
:10961000750F007402780E124801740812485FE05A
:10962000250EF8A3E0350F8882F583780E1246E404
:10963000EEC39F5092741612485F780E1244C150C8
:109640000A741612485F780E1246F3740E12485FC1
:10965000780E1244D14096740E808A741612485FB8
:10966000780E1246E4740E12485F780E1246457466
:1096700001780E1245FA9009C2780E1246F374165C
:1096800012485F780E1246E4740E12485F780E128C
:10969000467F9009CE780E1246F385120E85130F81
:1096A000851410851511780E790A124632740178E6
:1096B0000E1245FA9009C6780E1246F37812790A0E
:1096C00012466B9009D278121246F37E00129B204C
:1096D000740C12485F128D5E02976C85120A851316
:1096E0000B85140C85150D780A791612466B780ACD
:1096F0001244D15003029809740412485F129AF37D
:10970000124702740212485F129AF312470E740451
:1097100012485F129B2F1246E4851A82851B83E054
:109720002446F8A3E03409F988828983780A12462E
:10973000F39009DCE024FDFAEEC39F400302989EFB
:109740009009C2780A1244C140030298199009C2D4
:10975000780A1246E4740212485F129B2F1244C129
:1097600050030298369009DCE004F00E8E82858268
:109770000A750B00900498E024FFF8E434FFF9C365
:10978000E50A98E499A2D265D03340030299357472
:1097900002780A124801851A82851B83E50AF0A324
:1097A000E50B12A050F8A3E0F9740812485FE02816
:1097B000FAA3E0129EE478121246E4851A82851B11
:1097C00083E024C2F8A3E03408F9740412485F125D
:1097D0008D5E740412485F129AD212485F128D5E39
:1097E0008A828B8378161246E4781279161244B175
:1097F00090819450030296DB7816791212466B78AA
:10980000161244D140030296F8740212485F129A6D
:10981000F378121246F302970E5003029765740212
:1098200012485F129B2F1246E49009C2780A124434
:10983000C14003029765EAC39416400302992E9033
:1098400009CA780A1246E49009C2780A1244C15043
:10985000229009CA780A1246E49009C2780A124690
:109860007F758381758298780A1244D150030299DA
:109870002E80209009C2780A1246E49009CA780A1C
:1098800012467F758381758298780A1244D15003FD
:1098900002992E740C12485F129AF302992B780ADF
:1098A000790E1244B15010740212485F129B0012DC
:1098B00044C1401F029765780E790A1244B14003F3
:1098C000029765740212485F129B001244D1500344
:1098D000029765EAC3941650559009C2780E124457
:1098E000C15023850E0A850F0B85100C85110D9034
:1098F00009C2780A12467F758381758298780A12A8
:1099000044D1402A801C9009C2780A1246E4780AA1
:10991000790E12466B758381758298780A1244D14C
:10992000400C740C12485F129AF3A3E004F0900903
:10993000DCE402976A9009CA780E1246F3740812A2
:10994000485F129ADE125B33129B2088828983E083
:109950009009DDF088828983A3E09009DEF0900908
:10996000D6E02402F0C3940350030299EF129B2324
:10997000E824FF129AA19009DDF0E824FE129AA1D2
:109980009009DEF0E824FD129AA19009DFF0E824A6
:10999000FC129AA19009E0F09009DDE0F89009DE50
:1099A000E0FAE82AF8E43400F99009DF129AC0904E
:1099B00009E0129AC0C3E89404E99400A2D265D0E9
:1099C0003340169009DFE0F99009DEE0F89009DDF8
:1099D000E028292A9009DB80049009DBE4F0FA7979
:1099E00002125F179009D6E4F09009D7128411741F
:1099F0000612485F129ADE125B337E008E828582E9
:109A00000A750B00900498E0250AF8E43400F9E8A0
:109A100075F006A4F8AAF075F006E9A42AF9749D79
:109A200028FC740439FD7403780A12480174722505
:109A30000AF87408350BF9880E890FEC24C6F582F4
:109A4000ED34FF129ACA3395E0FAFB850E82850F3A
:109A500083880A890B8A0C8B0D780A1246F3EC2452
:109A6000C8F582ED34FFF583129ADE3395E0FC856C
:109A70000E82850F83A3A3A3A3EAF0A3EBF0A3ECCC
:109A8000F0A3F00EEEC3940A50030299FC7901741E
:109A90002E12482A7F1002493DF582E83400F583F2
:109AA00022F582E934FFF583E022129A99780A229E
:109AB000129A99781222E0FD88828983A3A3A322B7
:109AC000E0FAE82AF8E93400F922F583E0F8A3E0A7
:109AD000F922E02404F8A3E03400F9740222E0FA49
