:020000040000FA
:104000002A15FFFF0100007C42424242FFFFFFFFF2
:10401000FFFFFFFFFFFFFFFFFFFFFFFFFFFFFFFFB0
:10402000000102030405060708090A0BFFFFFFFF52
:1040300002448602534FFFFFFFFFFFFFFFFFFFFF1A
:10404000FFFFFFFFFFFFFFFFFFFFFFFFFFFFFFFF80
:10405000FFFFFFFFFFFFFFFFFFFFFF024C10FFFF0F
:10406000FFFFFF024BF2FFFFFFFFFFFFFFFFFFFF1E
:10407000FFFFFFFFFFFFFFFFFFFFFFFFFFFFFFFF50
:10408000FFFFFF0253C2FFFFFFFFFFFFFFFFFFFF26
:10409000FFFFFFFFFFFFFFFFFFFFFF024BAEFFFF32
:1040A000FFFFFFFFFFFFFFFFFFFFFF024BD7FFFFF9
:1040B000FFFFFF0251BB01FFFF11019901126404D0
:1040C0000102E081010000B98102DA81010000A74C
:1040D0000902E881010000A80902D481030000A9B7
:1040E0000202C681010000A90901E803053F100A88
:1040F000024669726D776172650000000000000081
:1041000000001A446F2053796E6300000000000025
:1041100000000000084150502053657420436C6F2C
:10412000636B000000000841505020536574205418
:10413000696D657A6F6E65001201004461746120DB
:1041400048656164657200000000000012446174FB
:104150006120426F6479000000000000000002E06E
:1041600081010000B08102DA81010000DA0902C297
:1041700081010000A60302D681010000DB0902DAFA
:1041800081010000EC0902BC81030000A80302D4F5
:1041900081030000B00302D681010000ED0902DABC
:1041A00081010000FE0902CC81020000B60302D6A4
:1041B00081010000FF0902DA81010000100A02D823
:1041C00081020000BA0302D681010000110A02DA5E
:1041D00081010000220A02EC81030000230A02D4BC
:1041E00081030000BB0302D681010000250A02DA28
:1041F00081010000360A02DE81030000C10302D4FF
:1042000081030000C90302D681010000370A0000C3
:10421000000000000000000000000000000000009E
:104220000000000000001C02E08101000009810282
:10423000DA81010000100B103080020000CF030271
:10424000D481030000D10302D681010000F2800274
:10425000DA81010000100B104080020000D0030240
:10426000D481030000D70302D681010000FF80FF44
:10427000FFFF00013075030201060000000000008E
:10428000000000000000000000000000000000002E
:10429000000000000000FFFF0600800CE80306009D
:1042A0000C00A00F010001001109416464696E67F0
:1042B0005F41312D30303030303005122003B004F2
:1042C000020A00020106070200230F18C0FF416422
:1042D00064696E675F41312D30303030303000001E
:1042E0000000000DC4090000E55E0000F15EFF0063
:1042F00000B4000028002800283075A000A000A00D
:1043000000A00000080008E001F0001000100010FC
:10431000001000100010005000500050001000105D
:1043200000D0070000000000000F00010005003071
:104330007507001000010081FF00000000FF6161AF
:104340007F616761FF02020208025000A0000000C6
:10435000E80302E081010000B68102DA8101000079
:104360002F0C02D281010000140502DA8101000045
:10437000300C02D0810100002A0502DA8101000020
:10438000310C02CE810100002C0502DA810100000F
:10439000320C02E6810800002D0502DA81010000DE
:1043A000330C02CA81010000340CFF0100FF20021F
:1043B000E081010000B38102DA81010000980C0263
:1043C000C881000000000002D4810300007A05319A
:1043D000673167316731673167316731673167311D
:1043E000673167316731673167C569DD69BF69E585
:1043F000C754F84404F5C779012200000080FB127D
:1044000043EFB90003024470E479217808B8000250
:104410008004F709D8FCE479297802B80002800406
:10442000F709D8FCE4900280782279088002F0A392
:10443000D8FCD9FA781C9040B67A01BA00028007FD
:10444000E493A3F608DAF99009A1AA82AB8390401D
:10445000B7783979048015E493A3AC82AD838A825E
:104460008B83F0A3AA82AB838C828D83D8E9D9E7B2
:1044700075821D75838674041244987582FA75835B
:1044800043740012449875D00075813F751A807589
:104490001B02759F000243FFC09FF59FE473D09FEE
:1044A00022D083D082C09FE493C0E0740193C0E027
:1044B000740293F59F22E066701008A3E066700A0C
:1044C00008A3E066700408A3E06622C3E796080923
:1044D000E7960809E7960809E79622C3E09608A33D
:1044E000E09608A3E09608A3E09622C00AC3E096EF
:1044F000F50A08A3E096420A08A3E096420A08A338
:10450000E096450A7001D3D00A22080808EAC0E004
:10451000EBC0E086F0E7A4FA180986F0E7A42AFACF
:10452000180986F0E7A42AFA180986F0E7A42AFAFF
:104530001986F0E7A4FBE5F02AFA190886F0E7A44B
:104540002BFBE5F03AFA190886F0E7A42BFBE5F01F
:104550003AFA18180986F0E7A4C5F02BFBE43AFAFA
:104560001908E7C5F0C6A426F6E5F03BFBE43AFAE5
:104570001886F0E7A4F6E5F00826F6E43B08F6E432
:104580003A08F6D0E0FBD0E0FA22E4CFC0E0E4CE77
:10459000C0E0E4CDC0E0E4CCC0E075F020C3E63379
:1045A000F608E633F608E633F608E633F618181888
:1045B000EC33FCED33FDEE33FEEF33FFC3EC970934
:1045C000ED9709EE9709EF97191919400FFFEC972E
:1045D000FC09ED97FD09EE97FE191906D5F0BEEC22
:1045E000F709EDF709EEF709EFF7191919D0E0FC13
:1045F000D0E0FDD0E0FED0E0FF226016080808C63B
:10460000C313C618C613C618C613C618C613C6D514
:10461000E0EA227009080808226016181818C6C3B4
:1046200033C608C633C608C633C608C633C6D5E087
:10463000EA22E627F60809E637F60809E637F6081B
:1046400009E637F622E026F608A3E036F608A3E0EE
:1046500036F608A3E036F622E026F008A3E036F0AE
:1046600008A3E036F008A3E036F022C3E697F60888
:1046700009E697F60809E697F60809E697F622C3D1
:10468000E096F008A3E096F008A3E096F008A3E017
:1046900096F022E657F60809E657F60809E657F6B7
:1046A0000809E657F622E056F608A3E056F608A3F6
:1046B000E056F608A3E056F622E056F008A3E056CE
:1046C000F008A3E056F008A3E056F022E0F608A3B5
:1046D000E0F608A3E0F608A3E0F622E6F008A3E679
:1046E000F008A3E6F008A3E6F022E0FAA3E0FBA3BB
:1046F000E0FCA3E0FD22EAF0A3EBF0A3ECF0A3EDD5
:10470000F022CAC0E0E6F0A308DAFAD0E0FA22CA42
:10471000C0E0E0A3C582CCC582C583CDC583F0A32C
:10472000C582CCC582C583CDC583DAE6D0E0CA2276
:10473000C3E498F8E499F91247718026C3E49AFA21
:10474000E49BFBE920E7E9124771E498F8E499F962
:1047500022C3E498F8E499F9124771E498F8E499CF
:10476000F9C3E49AFAE49BFB22EB20E7CFE920E7C8
:10477000E0B90010BB0008E88AF084F8AAF022E44F
:10478000FBC8FA22EB70227B10C833C8C933C93387
:104790005007C39AC3DBF280069A50012ADBEAC8AD
:1047A00033F4C8C933F4C9FA2275F008E4C833C831
:1047B000C933C933C99AC99B5004C92AC93BD5F02A
:1047C000ECFBC833F4C8E4C9FA22600D08C6A2E7BE
:1047D00013C618C613C6D5E0F322600C08C6C3136F
:1047E000C618C613C6D5E0F422700422600D18C6A0
:1047F000C333C608C633C6D5E0F41822251A10AF55
:1048000008F51A4002151B8008F51A4002151BD244
:10481000AF22C0D0251A10AF08F51A5002051B8030
:1048200008F51A5002051BD2AFD0D022251AF58206
:1048300010AF08F51A4002151B8008F51A40021542
:104840001BD2AF851B8322251AF582E4351BF58325
:1048500022E473251AC582C0E0E51B34FFC583C07E
:10486000E0E51AC3958224F810AF0885831B858282
:104870001A800885831B85821AD2AFCEF0A3E5206B
:10488000F0A3780AE608F0A3DEFAEFF0A3E58124AE
:10489000FAF8E608F0A3E608F0A3E608F0A3080893
:1048A000E608F0A3E608F0A315811581D0E0FED05C
:1048B000E0F8158115811581E8C0E0EEC0E0222501
:1048C0001AC582C0E0E51B34FFC583C0E0E51AC30A
:1048D000958224F910AF0885831B85821A8008858C
:1048E000831B85821AD2AFCEF0A3E520F0A3780A0D
:1048F000E608F0A3DEFAEFF0A3E58124FBF8E60872
:10490000F0A3E608F0A30808E608F0A3E608F0A381
:1049100015811581D0E0FED0E0F815811581E8C041
:10492000E0EEC0E022851B83851A82E0A3FEE0A3AF
:10493000F520780AE0A3F608DFFAE0A3FFE0A3C0C1
:10494000E0E0A3C0E0E0A3C0E0E0A3C0E0E0A3C0DB
:10495000E010AF0885821A85831B800885821A853E
:10496000831BD2AFD083D08202449E851B83851ADD
:1049700082E0A3FEE0A3F520780AE0A3F608DFFAC0
:10498000E0A3FFE0A3C0E0E0A3C0E0E0A3C0E0E05C
:10499000A3C0E010AF0885821A85831B800885823A
:1049A0001A85831BD2AFD083D08222C0D0251AC5EE
:1049B00082C0E0E51B34FFC583C0E0E51AC39582E1
:1049C00024F310AF0885831B85821A800885831B1A
:1049D00085821AD2AFC8F0A3E9F0A3EAF0A3EBF006
:1049E000A3790AE709F0A3D8FAECF0A3EDF0A3EE5F
:1049F000F0A3EFF0A3D0E0F0A3D0E0F0A3D0E0F07C
:104A0000A3E520F0A3E5F0F0A322851B83851A829D
:104A1000E0C0E0A3E0F9A3E0FAA3E0FBA3780AE09A
:104A2000F608A3DFFAE0FCA3E0FDA3E0FEA3E0FFAD
:104A3000A3E0C0E0A3E0C0E0A3E0F5D0A3E0F52050
:104A4000A3E0A3F5F010AF0885831B85821A8008C8
:104A500085831B85821AD2AFD082D083D0E0F8D074
:104A6000E03274048006740280027401C0E0F40431
:104A700012482CD0E0124702227404800474028091
:104A800000CCC0E0EDC0E0E51AC39CCCAD1B5001EA
:104A90001D10AF068C1A8D1B80068C1A8D1BD2AF91
:104AA00012470FD0E0FDD0E0FC22D083D082E9C0D5
:104AB000E0E493A3C386F0C5F095F0F908E493A36E
:104AC00086F0C5F095F0700BE493A3C3994005E917
:104AD000048002A3E475F002A42582F582E5F03596
:104AE00083F583D0E0F9E493A3C0E0E493C0E0222F
:104AF000D083D082ECC0E0EDC0E0E493A3FCE4936B
:104B0000A3FDED4C600D124B3CEC24FFFCED34FF9B
:104B1000FD80EFE493A3FCE493A3FDED4C600D1244
:104B20004B7BEC24FFFCED34FFFD80EFD0E0FDD0AB
:104B3000E0FCE493A3C0E0E493C0E022C0E0C3E45F
:104B40009396087401939618400FE49366700808D2
:104B5000740193661870007019A3A3C3E4939608B8
:104B60007401939618A3A3400DD0E0D0E0D0E002EA
:104B70004B2CA3A3A3A3A3A3D0E022C0E0C0F08842
:104B8000F0E4936670080874019366187000A8F04A
:104B9000A3A3700BD0F0D0E0D0E0D0E0024B2CA368
:104BA000A3D0F0D0E022FFFFC2AF02000022C0E09D
:104BB00074F21249ABA2AFE433FED2AFE589A2E1B1
:104BC0005003125D53758900C2C5751C00EEA2E04A
:104BD00092AF7F01024A0AC0E074F21249ABE5A825
:104BE000FED2AF125D53C2EB751C00EEA2E7A2E746
:104BF00080DEC0E074F21249ABA2AFE433FED2AF64
:104C0000E58BA2E05003125D53758B00C2E880BAB9
:104C1000C0E0C0D0E8C0E0E9C0E0E5A8D2AFC2C7BC
:104C2000751C00A2E7A2E792AFD0E0F9D0E0F8D07F
:104C3000D0D0E03274F51248BFEAFEEBFFEE243428
:104C4000F8EF3400F9880A890BEE2435F582EF3449
:104C500000F583E0F8EE2437F582EF3400F583E0C9
:104C6000F50CEC850CF0A4FCAAF0850CF0EDA42A60
:104C7000FDE82CF8E43DF97A257B00124771EA85BE
:104C80000A82850B83F0F8740758F97401B90002A1
:104C90008004C333D9FCFAE8131313541FF8EE2829
:104CA000F8EF3400F9E8245DF582E93400F583E09B
:104CB0005A6008EE2434F582EF802CEE2434F5821D
:104CC000EF3400F583E0C0E0EE2436F582EF3400E7
:104CD000F583E0F5F0D0E084A8F0EE28F8EF34009A
:104CE000F9E82438F582E93400F583E0F97F04021D
:104CF000496B74F51248BFEAFEEBFFEE2434F582EF
:104D0000EF3400F583E0C0E0EE2435F582EF3400A7
:104D1000F583D0E0F08E828F83A3A3A3A3A3A3A3E4
:104D2000C082C0838E828F83A3A3A3A3A3E0F8A332
:104D3000E0F9D083D082E0C398F50AA3E099F50B9F
:104D4000EE247FF582EF3400F583E064017069EEB4
:104D50002480F582EF3400F583E0F8A3E0F98E8239
:104D60008F83A3A3A3A3A3A3A3E0FCA3E0FD8E8250
:104D70008F83A3A3A3A3A3E0FAA3E0FBC3EA9CEB66
:104D80009D5010C3EC98ED99402EC3EA98EB9950D2
:104D900027800EC3EA98EB994007C3EC98ED994041
:104DA000177C3D7D07EEFAEFFB12668FEE247FF550
:104DB00082EF3400F583E4F0EE2434F8EF3400F9A8
:104DC000E8FCE9FDEE2435F582EF3400F583E0F8E8
:104DD000EE2437F582EF3400F583E0F50CE50A8523
:104DE0000CF0A4F50AAAF0850CF0E50BA42AF50B4B
:104DF000E8250AF8E4350BF97A257B00124771EAB9
:104E00008C828D83F0F8740758F97401B900028020
:104E100004C333D9FCFAE8131313541FF8EE28F82F
:104E2000EF3400F9E8245DF582E93400F583E05AB7
:104E30006008EE2434F582EF802CEE2434F582EF06
:104E40003400F583E0C0E0EE2436F582EF3400F55F
:104E500083E0F5F0D0E084A8F0EE28F8EF3400F914
:104E6000E82438F582E93400F583E0F9125A6F023C
:104E70004CEDC082C083851A82851B83E0F8A3E0D5
:104E8000F9C3EA9CEB9D5010C3EC98ED99401BC30D
:104E9000EA98EB995014800EC3EA98EB994007C347
:104EA000EC98ED994004790180027900D083D0829A
:104EB00022EAC39CFAEB9DFB2274EF1248BF9006D6
:104EC00003E064086005E06407702A9061C8E06050
:104ED00024900631E0F4601DE0F875F003A4C8AA40
:104EE000F02AF9743328FE740639FF8E828F83A36B
:104EF000A3A3E07003024FE9906060E0C0E0EE24FD
:104F000068F582EF3400F583D0E0F0750EA6750FDA
:104F100007750A00750B00E5D914F50CE5D95403A3
:104F2000F510601774036510605CE50C6010EE24EA
:104F300067F582EF3400F583E07003024FCE9007EF
:104F4000A1E06401602AEE2482F582EF3400F5834B
:104F5000E06004780480027800850C0AE50AC398B2
:104F6000FA95E0FB1265578A0A8B0BEA450B700530
:104F70001268938074EE2482F582EF3400F583E0AA
:104F800070048A0E8B0FE50C6012850E82850F83EC
:104F9000F50DE5D9F0A3150DE50D70F6EE2482F5BB
:104FA00082EF3400F583E0604474FC250CF50C7846
:104FB0000E124A66AC0CA910EEFAEFFB12672B74C6
:104FC00002124812E97026AA0AAB0B125E13793D51
:104FD0008E828F83A3A3A3A3E0FA7B0012642BEE3F
:104FE000FAEFFB1266A712673D79008074740365BF
:104FF000106056850C127513007812124A66AC0EBA
:10500000AD0FAA0AAB0B1267077402124812EE2406
:1050100068F582EF3400F583E064807004747F806B
:1050200001E0F50E780E124A6AE510F50E780E12C0
:105030004A6AA90CAC0AAD0B900631E0FA7B00126B
:1050400063EF74021248128013900603E064086054
:105050000BAC0EAD0FEEFAEFFB12679712689F795B
:10506000017F0A02496B74F51248BF74FC1247FCB9
:10507000EAFEEBFF890AA2AFE433F50BC2AF806A08
:10508000EE2463F8EF3400F97A007B00A2AFE4333A
:10509000F50CC2AF88828983E0FCA3E0FDEC4D6093
:1050A0003A88828983E0FAA3E0FB8A828B83E0FC62
:1050B000A3E0FD88828983ECF0A3EDF08A828B83E4
:1050C000E4F0A3F088828983E0FCA3E0FDEC4D705E
:1050D0000A88828983A3A3E4F0A3F0E50CA2E092FE
:1050E000AF125E13900744E004F0EE2463F582EF04
:1050F0003400F583E0F8A3E0F9E849603DEE24636D
:10510000F582EF3400F583E02402FAA3E03400FBDB
:10511000EA2402F50CEB3400F50D780C124A668A8D
:10512000828B83E0FCA3E0F9EEFAEFFB1266CB740E
:1051300002124812E97003025080900744E0606355
:10514000900745E0F8900744E0C398500C7402655E
:105150000A7050900746E0604A8E828F83A3A3A313
:10516000A3E0851A82851B83F0A3E4F0900744E056
:10517000F87402124847E8F0A3E4F0900744E0F81E
:10518000900743E028F07402124847AC82AD838553
:105190001A82851B83AA82AB8379011263FB900775
:1051A00044E4F0E50BA2E092AF7404124812024C02
:1051B000EDFFFFFF8521878522C622C0E0C0D0E831
:1051C000C0E0E9C0E0EAC0E0EBC0E0ECC0E0EDC068
:1051D000E0EEC0E0C00AC00BC00CC00DC082C083AE
:1051E000C0F0A2AFE433FEC2AF759B00906182E0D5
:1051F000A2E05012E591A2E0500C7591FE74016599
:10520000217003124EB9E0A2E55051E591A2E5509C
:105210004B7591DF900603E064076005E064087059
:10522000237401652170357901900631E0FA75F03B
:1052300003A4CAA8F028FB74332AFA74063BFB12B5
:1052400050668018E0640D7013900625E004F06449
:10525000287002E4F07A00E0F91268A5906182E01B
:10526000A2E64003025302E591A2E6400302530284
:105270007591BF900603E0640570081267CD126750
:10528000D980031267D3752100126833E9900604B0
:10529000F079001268271266057A017B00900602F9
:1052A000E0F9125AD7907803E0644270559007A550
:1052B000E014F0704DC2AF1252BA00782AD0E0F676
:1052C00018D0E0F6E59F54077005750BFF80037555
:1052D0000B7FC4C0E07829E6F50A08E6550BF50B0C
:1052E000740B780A1247DAD0E0250AF8906270E071
:1052F000A2E740F8E8C333906272F0906270E0D2A7
:10530000E0F0906181E0A2E35009E5E9A2E35003F7
:1053100075E9F7A3E0A2E75009E591A2E75003750C
:10532000917FEEA2E092AFD0F0D083D082D00DD0AA
:105330000CD00BD00AD0E0FED0E0FDD0E0FCD0E0F5
:10534000FBD0E0FAD0E0F9D0E0F8D0D0D0E032C025
:10535000E0C0D0C082C083906183E0A2E05009E544
:10536000BFA2E0500375BFFEE0A2E15009E5BFA275
:10537000E1500375BFFDE0A2E25009E5BFA2E25093
:105380000375BFFBE0A2E35009E5BFA2E35003753C
:10539000BFF7E0A2E45009E5BFA2E4500375BFEFF8
:1053A000E0A2E55009E5BFA2E5500375BFDFE0A22A
:1053B000E65009E5BFA2E6500375BFBFD083D08297
:1053C0008088C0E0C0D0E8C0E0E9C0E0EAC0E0EB1F
:1053D000C0E0ECC0E0EDC0E0C0F0E5A7A2E6500FF1
:1053E000E5A1A2E6500953A7BF75A1BF125427E556
:1053F000A7A2E5500CE5A1A2E5500653A7DF75A1D1
:10540000DFE5A7A2E15009E5A1A2E1500375A1FDE6
:10541000E5A7A2E2500CE5A1A2E2500653A7FB7556
:10542000A1FBD0F002533874F81248BF75210190E7
:105430000603E06406701512675B8A828B83A3A360
:10544000A3A3A3A3E0FAA3E0FB1267BBA2AFE433DC
:10545000FED2AF900609E0640170187A207B0090BC
:105460000602E0F9125B7F7A207B00900602E0F9E9
:10547000125ADD906182E0D2E6F09007A2E060214E
:1054800085C6228016900608E064017008E5C654BF
:10549000F84405F5C653BEFC1251B4740165216091
:1054A000E4EEA2E092AF7F0102496BFF8E238F24CE
:1054B000858228858327851A82851B83E0CEA3E019
:1054C000CF852882852783EBC9EAC8EDCBECCA7566
:1054D000F010C3E833C8E933C9EA33CAEB33CBC3AE
:1054E000EA9EF526EB9FF525B35004AB25AA26ECE2
:1054F00033CCED33CDD5F0DAAE23AF242274E912EC
:1055000048BF74F81247FC851A82851B83ECF0A310
:10551000EDF08A0A8B0B900603E024F7C394055044
:1055200006750A0102569412675B8A0C8B0DAE0C4D
:10553000AF0DEE4F7003025691AC0AAD0B74021220
:105540004847AA82AB831267EB8E828F83A3A37531
:105550000EFF750FFF7510FF751100780E1246A62D
:1055600074021248477512FF7513FF7514FF751505
:105570000078121246A6780E79121244CB502A787F
:105580000E791212466B750A01750BC8750C007501
:105590000D00780A790E1244CB5052850E0A850F01
:1055A0000B85100C85110D80507516017517C87587
:1055B000180075190085120A85130B85140C8515C2
:1055C0000D780A790E12466B7816790A1244CB4090
:1055D0001C750A00750B00750C00750D01780A79B1
:1055E0001212466B780A790E124632800C750A0147
:1055F000750B00750C00750D007409780A124613BE
:10560000750E19F50FF510F511780A790E12458A05
:105610008E828F83A3A3A3A3A3A3E0F8A3E0F97AC8
:10562000D07B03124771880E890FE4F510F51178CD
:105630000A790E1246327406124847E0F8A3E0F9E0
:105640007AD07B03124771E8FA8A0EE4F50F780AE4
:10565000790E1244CB5007780A790E12466B9006E9
:1056600003E06408600AE064066005E06405702DEC
:10567000750E0D780E790A1244CB4021750EF47523
:105680000FFF7510FF7511FF780A790E12463280F0
:105690000C750A00750B00750C00750D00851A82DB
:1056A000851B83E0F8A3E0F5838882780A1246DB45
:1056B00074081248127F1002496B74F71248BF1227
:1056C00067FD9007A0E064017010906245E4F0A3CC
:1056D000F053F4F343FE0C5390F31267A9E5C6545C
:1056E000804449F5C6E59E547F644970F890618511
:1056F000740FF090079EE0F47002A3E0604E9007F4
:105700009FE0600814601B14602E8040750A0175CC
:105710000B0090079EE0780A1247E9E50AF45280F0
:10572000802A750A01750B0090079EE0780A1247DF
:10573000E9E50AF452908014750A01750B00900790
:105740009EE0780A1247E9E50AF452A079007F0248
:1057500002496B74F71248BFE9FEEAFF74016E70EC
:105760000C7A807B00900602E0F9125AD7906AB05A
:10577000E493F46008E493F91265F9800953C68054
:10578000E59E547F70FA1267AF9007A0E064017045
:105790000312661190079EE0F47002A3E0604B9044
:1057A000079FE0600814601A14602C803D750A01A0
:1057B000750B0090079EE0780A1247E9E50A4280DF
:1057C0008028750A01750B0090079EE0780A124741
:1057D000E9E50A42908013750A01750B0090079E57
:1057E000E0780A1247E9E50A42A01267FD12675BFA
:1057F0008A0A8B0BA80AA90BE8496015E5E170FC41
:10580000E82414F582E93400F583E0F46003E0F560
:10581000E174016F700A7A01900602E0F9125B49A7
:1058200002574E74ED1248BF8A0A8B0B8C0C8D0DFB
:105830007413124847780E1246CC780A790E124437
:10584000CB7512017513C8751400751500501278C8
:105850000A790E12466B7812790A1244CB501680E0
:1058600010780E790A12466B7812790E1244CB40EA
:10587000047901800279007F0C02496B74ED1248B3
:10588000BF8A0A8B0B8C0C8D0D7413124847780E4F
:105890001246CC780E790A1244CB4011780A790E60
:1058A00012466BAA0AAB0BAC0CAD0D802275120030
:1058B0007513007514007515017812790E12466B78
:1058C0007812790A124632AA12AB13AC14AD1580C5
:1058D000A68A828B83750AFF750BFF750CFF750D09
:1058E00000780A1246B97F0402496B74F51248BF6A
:1058F0008C828D83780A1246CC8A828B83780A1236
:10590000467FEA2404F8EB3400F98C828D83A3A34C
:10591000A3A3E0FCA3E0FD88828983C3E09CF0A3FD
:10592000E09DF088828983C3E09420A3E0944E40F8
:10593000268A828B83750AFF750BFF750CFF750D28
:10594000FF780A1246588A828B83A3A3A3A3E0247C
:1059500020F0A3E0344EF00258D174F51248BFE9AC
:10596000FE900758E0FAA3E0FBEEC333F8E433F906
:1059700074D228F582748039F583E02AF50AA3E011
:105980003BF50B780A124A667A407B427C0F7D0019
:105990001254AC74021248128A0A8B0B8C0C8D0DB7
:1059A0007410780A1245FAAA0AAB0B7F0402496BFD
:1059B00074F11248BF8A0E8B0F8C108D11740F1268
:1059C0004847E0FAA3E0FB7411124847E0F50AA348
:1059D000E0F50B780A124A66EA2401F50AEB340076
:1059E000F50BE4F50CF50D780E790A12450A750AE7
:1059F00071750B02780E790A12450AAA0EAB0FAC2C
:105A000010AD111254AC74021248128B0BEA450B04
:105A100060047A0180027A00EC2AFCED3400FD7407
:105A200013124847E0F8A3E0F9E8FEE9FFECF8EDCF
:105A3000F97A717B02124771880A890B8E828F83F3
:105A4000780A1246DBECF8EDF97A717B02124771A5
:105A50008A0A8B0B7405780A1247E98E828F83A31A
:105A6000A3A3A3E50AF0A3E50BF07F0802496BC0EE
:105A700082C083E9906000F0D083D082221244A1DA
:105A80008BB0031244A195B0031244A1D3B003120A
:105A900044A11CB1031244A156B1031244A1B0B1F8
:105AA000031244A1D1B1031244A1DAB1031244A1FB
:105AB00027B2031244A150B2031244A15AB20312F6
:105AC00044A1C6B2031244A158B3031244A1A2B325
:105AD000031244A1D8B3031244A164B4031244A135
:105AE000A5B4031244A1DCB4031244A1EEB4031222
:105AF00044A10DB5031244A116B5031244A1E3B5A8
:105B0000031244A1B4C9031244A1ABCA031244A1B5
:105B1000C5CA031244A1D6CA031244A1F5CC03128C
:105B200044A114CD031244A189F3031244A1BFF38D
:105B3000031244A1F5F3031244A140F5031244A15A
:105B40002685041244A13C85041244A14685041212
:105B500044A19085041244A1BE85041244A15BCEE9
:105B6000031244A170CE031244A120CF031244A11A
:105B700060CF031244A179CF031244A1B4CF031222
:105B800044A101D0031244A133D0031244A175D023
:105B9000031244A176D2031244A1EF81041244A15E
:105BA0001882041244A14782041244A15F820412A5
:105BB00044A1A182041244A1A2DB031244A1D2DBBE
:105BC000031244A1E5DB031244A114DC031244A137
:105BD00033DC031244A1DEDC031244A177DD03129F
:105BE00044A100DE031244A10CDF031244A1CAFF4A
:105BF000021244A17586041244A12FC9011244A1C6
:105C000094CB011244A135CD011244A1E9CD01127A
:105C100044A17CCE011244A101CF011244A126CFA0
:105C2000011244A17CD2011244A102D3011244A169
:105C300035D4011244A16FD4011244A1A4D401129D
:105C400044A164D6011244A1C1D6011244A10AD7CD
:105C5000011244A175D7011244A1E6D7011244A153
:105C600018D8011244A130D8011244A179D90112E7
:105C700044A189D9011244A1A4DA011244A1C6DACF
:105C8000011244A1FCDA011244A1B0DC011244A1CA
:105C90003DDD011244A17CDD011244A1A0DE011210
:105CA00044A17CFE031244A18CFE031244A11EFFFA
:105CB000031244A145FF031244A165FF031244A14E
:105CC000CB86041244A10A87041244A1328704122D
:105CD00044A13D87041244A1EDFF011244A1CA82F0
:105CE000041244A1DA82041244A1EC82041244A1F9
:105CF0009E83041244A178FD031244A1FDFD03120A
:105D000044A163FE031244A146F1031244A16EF1C3
:105D1000031244A19EF1031244A1FDF1031244A118
:105D20004BF2031244A185F2031244A1B9F203120B
:105D300044A115F3031244A17BFA031244A1A4FA6F
:105D4000031244A10AFB031244A12AFB031244A13B
:105D50007BFB031244A1D6FB031244A110FC0312E7
:105D600044A113FC031244A14987041244A159879A
:105D7000041244A15C87041244A1F87F001244A1DC
:105D8000BCEC031244A157EE031244A1B8EE031277
:105D900044A1FEEE031244A138BB031244A172BB1E
:105DA000031244A18FBB031244A16CBC031244A193
:105DB000F6BC031244A1E3BD031244A117BF0312B2
:105DC00044A13CBF031244A1A5BF031244A100C0DB
:105DD000031244A182A9031244A1BFA9031244A142
:105DE000DAA9031244A1ABAA031244A199AB03128E
:105DF00044A146AD031244A1B8AD031244A1A0AE24
:105E0000031244A127AF031244A147B0031244A1D7
:105E1000D9F8031244A12BF9031244A1B5F90312D6
:105E200044A11CFA031244A101EF031244A12BEF79
:105E3000031244A1F9EF031244A1D4F0031244A1C8
:105E4000A392031244A16A93031244A1A1930312E3
:105E500044A1CB93031244A12B94031244A1819437
:105E6000031244A1E694031244A17E95031244A1B7
:105E70008D96031244A12498031244A1B1980312F1
:105E800044A11899031244A12F99031244A1499ADD
:105E9000031244A1879A031244A1DDCA021244A14D
:105EA0005ECE021244A1E6CF021244A13DD00212FE
:105EB00044A15CD0021244A1DAD0021244A170D2F3
:105EC000021244A155D3021244A163D7021244A185
:105ED00039D8021244A10199011244A10F9D011267
:105EE00044A169A0011244A10FA2011244A1E3A29E
:105EF000011244A123A3011244A1D8A3011244A179
:105F000006A4011244A1C9A4011244A1F8A40112DB
:105F100044A141A5011244A177A6011244A198A869
:105F2000011244A1E4A9011244A156AC011244A1FA
:105F3000C8AD011244A144AE011244A15CAE0112ED
:105F400044A186AE011244A1B7AE011244A1E7AE4E
:105F5000011244A128AF011244A140B0011244A192
:105F6000E2B0011244A17AF5031244A191F50312A3
:105F700044A1C2F5031244A1FDF5031244A127F682
:105F8000031244A151F6031244A168F6031244A17E
:105F90007FF6031244A196F6031244A1BFF6031242
:105FA00044A1D2F6031244A1E8F6031244A1FBF681
:105FB000031244A122F7031244A10080031244A15A
:105FC0000481031244A13C81031244A15F810312A6
:105FD00044A16A81031244A18D81031244A19C82D1
:105FE000031244A17183031244A1EC83031244A160
:105FF0007484031244A1AF84031244A1E684031203
:1060000044A17485031244A14D86031244A1AD86B8
:10601000031244A1B886031244A13787031244A196
:106020003A87031244A13D87031244A1CC8703128F
:1060300044A1CF87031244A1FF87031244A12988FA
:10604000031244A11789031244A1C989031244A170
:106050004EC0031244A176C0031244A1A4C003128F
:1060600044A1DBC0031244A139C1031244A184C17D
:10607000031244A1CFC1031244A10FC2031244A1D1
:1060800055C2031244A183C2031244A140C30312A8
:1060900044A14AC3031244A157C3031244A18AC3B3
:1060A000031244A156C4031244A162C4031244A1C2
:1060B0007AC4031244A184C4031244A1A483041229
:1060C00044A1B283041244A1CA83041244A1E2830E
:1060D000041244A1519F021244A1FD9F021244A147
:1060E00078A0021244A199A1021244A1D5A10212E2
:1060F00044A17EA2021244A165A3021244A1C9A434
:10610000021244A120A5021244A1A1A5021244A199
:1061100091A6021244A1DEA6021244A164A70212B3
:1061200044A196A7021244A1AAA9021244A1ECA973
:10613000021244A10AAA021244A18DAA021244A189
:1061400061AB021244A129AC021244A15FA2031266
:1061500044A132A3031244A1DBA3031244A12EA441
:10616000031244A1DEA4031244A16AA5031244A1B0
:1061700056A6031244A185A6031244A198A70312B0
:1061800044A1E0A7031244A1B5A8031244A1F1A8B9
:10619000031244A10DA9031244A170FF031244A1EC
:1061A00057E3031244A16DE3031244A193E30312E6
:1061B00044A1AFE4031244A1B9E4031244A1EEE503
:1061C000031244A1E6E6031244A111B6031244A14E
:1061D00041B7031244A174B7031244A1BEB703121E
:1061E00044A185B9031244A10080021244A16A802F
:1061F000021244A1C981021244A1D981021244A110
:106200000682021244A15D82021244A10683021298
:1062100044A10D84021244A1D784021244A13786FE
:10622000021244A17A86021244A11F87021244A1DD
:106230006C87021244A19287021244A1A089021223
:1062400044A1A589021244A1AA8B021244A1F78B92
:10625000021244A16A8C021244A19D8C021244A134
:106260003F8D021244A1E88D021244A1208E021239
:1062700044A1238E021244A16B8E021244A1AB8E64
:10628000021244A1028F021244A1E9E9031244A1BF
:1062900001EA031244A149EA031244A15FEA03128E
:1062A00044A1A6EA031244A1BAEB031244A147ECAD
:1062B000031244A192EC031244A10080011244A1F4
:1062C0000C80011244A14780011244A18C8001126C
:1062D00044A14C81011244A1D281011244A1378210
:1062E000011244A16382011244A19C82011244A1C3
:1062F000DA84011244A1BE86011244A1A4880112CD
:1063000044A1E789011244A1358C011244A1478DB3
:10631000011244A1928E011244A1A28F011244A144
:10632000BF8F011244A1FA8F011244A11C900112E7
:1063300044A17F90011244A14095011244A1D5953A
:10634000011244A12696011244A14D96011244A1C6
:106350009F96011244A1BD96011244A11797011204
:1063600044A11698011244A19A98011244A10BC5A8
:10637000031244A115C5031244A158C5031244A138
:1063800073C5031244A103C6031244A12BC6031212
:1063900044A168C6031244A19FC6031244A1C8C603
:1063A000031244A13DC7031244A152C7031244A1E2
:1063B00067C7031244A198C7031244A1ACC70312D4
:1063C00044A1D1C7031244A10BC8031244A137C88A
:1063D000031244A16FC8031244A1EEC8031244A1E2
:1063E00037C9031244A161C9031244A18CC9031225
:1063F00044A1B1FE021244A1B0E6021244A1DEE6BD
:10640000021244A12CE8021244A10CE9021244A198
:106410002BE9021244A1A8E9021244A1EBE90212FD
:1064200044A141EB021244A102EC021244A189EE04
:10643000021244A12AEF021244A120F0021244A148
:106440001DF1021244A177F2021244A102F30212DA
:1064500044A11DFC031244A186FC031244A1DAFCF2
:10646000031244A101FD031244A132FD031244A111
:10647000E8D2031244A155D3031244A19CD30312C2
:1064800044A1B4D4031244A1B0D5031244A193D6BD
:10649000031244A13A8A031244A17C8A031244A144
:1064A0004E8B031244A1278C031244A1218D0312A9
:1064B00044A1038E031244A16C8E031244A1228FC7
:1064C000031244A1968F031244A10290031244A127
:1064D0002B90031244A1A590031244A13E910312F4
:1064E00044A1A391031244A1B891031244A1FE91C7
:1064F000031244A11792031244A17C92031244A1F7
:106500007F92031244A1F0E6031244A118E703129C
:1065100044A156E7031244A114E8031244A17BE806
:10652000031244A197E8031244A1BFE8031244A157
:10653000EFE8031244A1FEE8031244A17BE9031231
:1065400044A1A1E9031244A1EF8F021244A1CD910D
:10655000021244A1FF93021244A13B94021244A1EF
:106560006894021244A15295021244A19D95021210
:1065700044A1E895021244A1FA95021244A13A9668
:10658000021244A16F96021244A1BD96021244A1C8
:10659000EC96021244A10F97021244A15C970212DA
:1065A00044A1E197021244A1FB99021244A13A9C32
:1065B000021244A17B9C021244A11D9E021244A11E
:1065C0005E9E021244A1D19E021244A1279F021294
:1065D00044A1D8F2011244A1D6F3011244A16FFAEA
:1065E000011244A190FC011244A15BFE011244A1DE
:1065F000C3FF011244A127B1011244A1D6B1011277
:1066000044A103B2011244A149B2011244A189B3C9
:10661000011244A11FB5011244A199B5011244A170
:10662000B4B5011244A12FB6011244A189B70112D9
:1066300044A1E9B8011244A1EFB9011244A150BB31
:10664000011244A169BB011244A1C7BB011244A1BC
:10665000B5BC011244A1E8BC011244A158BD01120D
:1066600044A1D2BD011244A11CBE011244A1E6BE48
:10667000011244A1BBBF011244A19AC0011244A15E
:1066800025C1011244A193C1011244A107C2011204
:1066900044A132C2011244A1F1C2011244A156C464
:1066A000011244A173C4011244A192C4011244A175
:1066B00083C5011244A1A8C5011244A1D2C501128B
:1066C00044A14DC6011244A1A7C6011244A110C89D
:1066D000011244A1BEC8011244A1FFC8011244A185
:1066E000DCD8021244A12AD9021244A136D90212DE
:1066F00044A114DA021244A145DA021244A176DA66
:10670000021244A1F6DA021244A12EDB021244A1C5
:1067100080DB021244A1BDDB021244A1DADD0212C9
:1067200044A100E0021244A1EBE1021244A1D5E32E
:10673000021244A1EF7F001244A1C5DE011244A160
:10674000F5DE011244A1CEE5011244A153E7011286
:1067500044A150ED011244A138EE011244A175EE9E
:10676000011244A198EE011244A1C9EE011244A104
:10677000D2EE011244A1DCEE011244A1CAEF0112D3
:1067800044A1C0F0011244A1B46A001244A1B36E46
:10679000001244A1B96E001244A1F475001244A184
:1067A0000D7B001244A189DF031244A11FE00312F4
:1067B00044A135E0031244A1ABE0031244A11FE160
:1067C000031244A15DE1031244A1D1E1031244A1EB
:1067D0004AE2031244A153E2031244A15FE203120E
:1067E00044A174E2031244A1B2E2031244A1C8E23C
:1067F000031244A127E3031244A155D7031244A175
:1068000062D7031244A17CD7031244A1BBD7031261
:1068100044A1F9D7031244A15ED8031244A173D84E
:10682000031244A17ED8031244A18BD8031244A1C1
:10683000A2D8031244A1B0D8031244A1BBD80312BA
:1068400044A1C7D8031244A1D6D8031244A1E1D869
:10685000031244A104D9031244A1ABD9031244A1E9
:10686000BBD9031244A1D5D9031244A1F2D9031212
:1068700044A10EDA031244A133DA031244A13EDA32
:10688000031244A153DA031244A167DA031244A1AC
:10689000C8DA031244A1CEDA031244A1D4DA0312F7
:1068A00044A1DADA031244A1F2DA031244A125DB8F
:1068B000031244A1B3BC021244A137BD021244A189
:1068C000E6BD021244A145BF021244A166C10212F4
:1068D00044A152C2021244A187C2021244A1A9C219
:1068E000021244A158C3021244A150C5021244A18D
:1068F00079C5021244A10BC6021244A13DC6021280
:1069000044A14AC6021244A1A1C6021244A1C7C6AC
:10691000021244A134C9021244A137CA021244A18E
:106920008FCA021244A142AE021244A14CAF02121D
:1069300044A133B0021244A13DB0021244A15FB0A1
:10694000021244A16BB0021244A104B2021244A18B
:1069500033B2021244A14FB3021244A1A8B30212EF
:1069600044A10EB5021244A1EDB5021244A149B6EC
:10697000021244A1B6B6021244A1F1B6021244A119
:1069800030B7021244A1E9B9021244A103BA0212BB
:1069900044A18FBA021244A19DBA021244A1F6BAD0
:1069A000021244A104BB021244A177BB021244A10B
:1069B000DBBB021244A125BC021244A183F30212E4
:1069C00044A1A5F3021244A1CBF5021244A1E0F8C0
:1069D000021244A1F8F9021244A1ABFA021244A136
:1069E0008DFB021244A134F7031244A159F703129C
:1069F00044A1CBF7031244A1E59A031244A1EE9AF5
:106A0000031244A1F79A031244A1CE9B031244A19E
:106A10007F9D031244A1B59D031244A1EF9D031273
:106A200044A1259E031244A15F9E031244A1939E9C
:106A3000031244A1BF9E031244A1089F031244A164
:106A4000429F031244A18B9F031244A1E39F0312B0
:106A500044A118A0031244A173A0031244A1ADA045
:106A6000031244A1FEA0031244A134A1031244A1C5
:106A70006EA1031244A19CA1031244A1BFA1031261
:106A800044A17B84041244A1A784041244A102857A
:106A9000041244A10C85041244A11C85041244A1D3
:106AA000C37F001244A1148704FFFFFFFFFFFFFF15
:106AB000FFFFFFFF74F4124853907803E0644270C4
:106AC000559007A5E014F0704DC2AF126ACE007861
:106AD0002AD0E0F618D0E0F6E59F54077005750B54
:106AE000FF8003750B7FC4C0E07829E6F50A08E64D
:106AF000550BF50B740B780A1247DAD0E0250AF82B
:106B0000906270E0A2E740F8E8C333906272F090C0
:106B10006270E0D2E0F0900631E0F47003026EAEF5
:106B2000E0F875F003A4C8AAF02AF9743328FE74BB
:106B30000639FFEE2401F582EF3401F583E0F8A376
:106B4000E0F9E849601EEE2401F582EF3401F58397
:106B5000E0FAA3E0FBEE2400F582EF3401F583E0D8
:106B6000F9125AD78E828F83A3A3A3A3A3A3A3E072
:106B7000F8A3E0F98E828F83A3A3A3A3A3E8F0A3D5
:106B8000E9F0906054E090060AF0906055E09006BD
:106B90000BF0906056E090060CF0906057E0900685
:106BA0000DF0906058E090060EF0906059E090066D
:106BB0000FF090605AE0900610F090605BE0900655
:106BC00011F090605CE0FC900612F090605DE0FBDC
:106BD000900613F090605EE0FD900614F090605F08
:106BE000E0FA900615F0900610E08C0A250AF8E409
:106BF0003400F98D0AE8250AF8E93400F98B0AE82F
:106C0000250AF8E93400F98A0AE8250AFAE9340085
:106C1000FBEE24F6F582EF3400F583E02AF0A3E0E2
:106C20003BF08C0AEE24F8F582EF3400F583E02582
:106C30000AF0A3E03400F0EE24FAF582EF3400F518
:106C400083E02401F0A3E03400F0EE24FEF582EFAF
:106C50003400F583E0F8A3E0F9E849604290600071
:106C6000E0C333FCE433FDE82CF582E93DF583E035
:106C70002AF0A3E03BF0906000E0FA900612E0FCFE
:106C8000EAC333FAE433FBE82AF8E93BF9E8244A9B
:106C9000F582E93400F583E02CF0A3E03400F090B5
:106CA0000610E07011900613E0700BA3E07007A3CC
:106CB000E07003026DAB8E828F83A3A3A3A3A3E036
:106CC000F8A3E0F9EE240DF582EF3400F583E02817
:106CD000F8A3E039F9EE240BF582EF3400F583E8F0
:106CE000F0A3E9F0EE240FF582EF3400F583E4F031
:106CF000EE241CF582EF3400F583E06401701EEE93
:106D00002420F582EF3400F583E0F8A3E0F9EE24C7
:106D10001DF582EF3400F583E8F0A3E9F090060B4F
:106D2000E06052EE241CF582EF3400F5837401F02C
:106D3000EE2469F582EF3400F583E07038EE2473B9
:106D4000F582EF3400F583E0702BEE247FF582EFBF
:106D50003400F583E0701EEE2420F582EF3400F558
:106D600083E0F8A3E0F9EE241DF582EF3400F5830B
:106D7000E8F0A3E9F0906062E07003026E5E8E823C
:106D80008F83E0F8A3E0F9E82406FCE93400FDE88D
:106D90002402FAE93400FB1267DF8E828F83E0F869
:106DA000A3E0C82412F582E8026E64900612E06047
:106DB0003AEE240FF582EF3400F583E4F0EE241C64
:106DC000F582EF3400F583E064017040EE2420F595
:106DD00082EF3400F583E0F8A3E0F9EE241DF5829C
:106DE000EF3400F583E8F0A3E98020EE24FCF5827F
:106DF000EF3400F583E02401F0A3E03400F0EE244A
:106E00001DF582EF3400F583E4F0A3F0EE240BF5DA
:106E100082EF3400F583E0F8A3E0F98E828F83A33C
:106E2000A3A3A3A3E0687003A3E0696003026D1D40
:106E3000EE240FF582EF3400F583E060128E828F2E
:106E400083A3A3A3A3A3E064057002A3E060047975
:106E5000088002793EEEFAEFFB1266AD8050EE2418
:106E60001DF582EF3400F583E4F0A3F09061C8E0F3
:106E70006006124EB9E970F48E828F83A3A3A3E05B
:106E8000602C9061C8E070069060607480F0EEFA4B
:106E9000EFFB12679DE9640160147902EEFAEFFBE3
:106EA000125066126791E96401600312673D7F0426
:106EB00002492553BFEF02449E74EC1248539006DA
:106EC00031E0F875F003A4C8AAF02AF9743328FE5B
:106ED000740639FF9061D0E07013EE2463F582EF01
:106EE0003400F583E0F8A3E0F9E849600FEE241DD3
:106EF000F582EF3400F583E4F0A38053EE2469F5C6
:106F000082EF3400F583E07047EE2473F582EF34AE
:106F100000F583E0703AEE247FF582EF3400F583CC
:106F2000E0702DEE241CF582EF3400F583E064015F
:106F3000701EEE2420F582EF3400F583E0F8A3E024
:106F4000F9EE241DF582EF3400F583E8F0A3E9F0B3
:106F50008E828F83A3A3A3A3A3E0F8A3E0F9EE247A
:106F60001DF582EF3400F583E028F8A3E039F9E855
:106F7000240108E93400F9EE2407F50CEF3400F59C
:106F80000D850C82F583E8F0A3E9F0EE240BF58281
:106F9000EF3400F583C3E098A3E09950358E828FDB
:106FA00083A3A3A3A3A3A3A3C082C083EE240BF552
:106FB00082EF3400F583E0F8A3E0F9D083D082E0DB
:106FC000C398F8A3E099F9C3E894AAE9941050355E
:106FD000803BEE240BF582EF3400F583C082C08342
:106FE0008E828F83A3A3A3A3A3A3A3E0F8A3E0F9B6
:106FF000D083D082E0C398F8A3E099F9C3E894ABBA
:10700000E994105008900748E064017030EE241DA8
:10701000F582EF3400F583E4F0A3F08E828F83A332
:10702000A3A3A3A3E02401F8A3E03400F98E828F88
:1070300083A3A3A3A3A3A3A3E8F0A3E9F0EE24737F
:10704000F582EF3400F583E0640160030272B4EE70
:107050002474F582EF3400F583124A7D8E828F838B
:10706000A3A3A3A3A3A3A3E0FCA3E0FD8E828F832D
:10707000A3A3A3A3A3E0FAA3E0FB124E727402122F
:107080004812E970030272B4EE2474F8EF3400F988
:10709000880A890B8882F583E0F8A3E0F9850C82E1
:1070A000850D83E8F0A3E9F0EE2476FCEF3400FDD3
:1070B000EEFAEFFB1266B9EE247BF582EF3400F5B1
:1070C00083E0F8A3E0F9EE2420F582EF3400F583A5
:1070D000E8F0A3E9F0EE241CF582EF3400F583E438
:1070E000F0EE241DF582EF3400F583E4F0A3F0EE1A
:1070F000240FF582EF3400F5837401F0850C82854E
:107100000D83E0F8A3E0F9EE240DF582EF3400F5ED
:1071100083E028F8A3E039F9EE240BF582EF340080
:10712000F583E8F0A3E9F08E828F83A3A3A3A3A342
:10713000E0FCA3E0FD850A82850B83E0FAA3E0FB77
:10714000124EB18A0A8B0BEE242EF582EF3400F535
:1071500083E0FAA3E0FBE4F50CF50D8A0E8B0FF546
:1071600010F511780A790E12450AEE2477F582EFB0
:107170003400F583E0F50EA3E0F50F780A790E12DE
:107180004632EE2479F582EF3400F583E06A70032D
:10719000A3E06B7044EE247DF582EF3400F583E0CC
:1071A000F8A3E0F9EE2432F582EF3400F583E068CD
:1071B0007003A3E0697022EE247BF582EF3400F5C2
:1071C00083E0F8A3E0F9EE2430F582EF3400F58394
:1071D000E0687003A3E0696052EE247DF582EF342D
:1071E00000F583E0F50EA3E0F50F7404780E124766
:1071F000DA780E124A66EE247BF582EF3400F583CE
:10720000124A7DEE2479F582EF3400F583E0FCA389
:10721000E0C313FDEC13FC8E828F83A3A3A3A3E032
:10722000FA7B001264317404124812EE2476F5825F
:10723000EF3400F583E0C0E0EE242BF582EF34005C
:10724000F583D0E0F0EE2479F582EF3400F583E0A9
:10725000F8A3E0F9EE242EF582EF3400F583E8F090
:10726000A3E9F0EE247BF582EF3400F583E0F8A388
:10727000E0F9EE2430F582EF3400F583E8F0A3E97D
:10728000F0EE247DF582EF3400F583E0F8A3E0F919
:10729000EE2432F582EF3400F583E8F0A3E9F0EE56
:1072A000FAEFFB1266BFEE2473F582EF3400F5832C
:1072B000E4F08016EE242EF582EF3400F583E0F53D
:1072C0000AA3E0F50BE4F50CF50DEE2418F582EFBA
:1072D0003400F583780A1244B6701EEE241FF5823E
:1072E000EF3400F583E0F8EE241DF582EF3400F56D
:1072F00083E0687002A3E06039EE2412F50EEF34EB
:1073000000F50F780E124A66EE2410F582EF340075
:10731000F583124A7DEE241DF582EF3400F58312C9
:107320004A7DAA0AAB0BAC0CAD0D1259B074061213
:107330004812EE2418F582EF3400F583780A1246DD
:10734000DBEE241DF582EF3400F583E0C0E0EE248F
:107350001FF582EF3400F583D0E0F0EE2412FCEF4D
:107360003400FD8E828F83E02402FAA3E03400FB18
:107370001258EB906062E060147C0C7D818E828FED
:1073800083E02402FAA3E03400FB1258EB8E828FD4
:1073900083E0F8A3E0F988828983A3A3E82408FCAA
:1073A000E93400FD740612470F8E828F83E02402B9
:1073B000F8A3E03400F9E8FAE9FBEE241DF582EFCA
:1073C0003400F583E0F512A3E0F513E4F514F515A8
:1073D000750E01F50FF510F5117812790E1246327F
:1073E0007812790A12450A8A828B837812124658DB
:1073F0008A828B83750EFF750FFF7510FF780E1252
:1074000046B9900742E064016003027541790112B8
:1074100068278E828F83E0FAA3E0FB750AFF750B65
:10742000FF750CFF750DFFEA240EF582EB3400F5B5
:1074300083780A1246DBEA2412F8EB3400F9E8FA02
:10744000E9FBEE2412F582EF3400F583780A124648
:10745000CCE50A75F0E2A4C50AA8F075F004A428EA
:10746000F875F0E2E50BA428F50B8A828B83E02502
:107470000AF0A3E0350BF0EE2416F582EF3400F5A8
:1074800083E0F50AA3E0F50B7404780A1247DAE505
:107490000A2401F8E50B3400F98A828B83E028F096
:1074A000A3E039F0906062E08E828F8370030275F2
:1074B000B5E0F8A3E0C82412F582E83400F583E0D3
:1074C0002410F0A3E03401F0EE240FF582EF340035
:1074D000F583E06032EE242BF582EF3400F583E093
:1074E000F875F071A4C8AAF075F002A42AF98E828A
:1074F0008F83E0FAA3E0CA2412F582EA3400F58310
:10750000E028F0A3E039F08E828F83E0F8A3E0C892
:107510002414F582E83400F5837410F08E828F8392
:10752000E0F8A3E0C82416F582E83400F58374413E
:10753000F0A37466F0EEFAEFFB124CF27900027BD6
:1075400008750E50750F00751000780E790A1244F8
:10755000CB4003027412EE241DF582EF3400F58354
:10756000E0F8A3E0F9E8496003027412780A124ACD
:1075700062EEFAEFFB1266C57404124812E9640168
:107580006003027412EE240FF582EF3400F583E0FD
:1075900060128E828F83A3A3A3A3A3E0640570026D
:1075A000A3E0600479088002793EEEFAEFFB1266F0
:1075B000AD79018089E0F8A3E0C82412F582E834AF
:1075C00000F583E02410F8A3E034FFF97A717B0220
:1075D000124771880A890BEE242EF582EF3400F5EC
:1075E00083E0F8A3E0F9C3E50A98E50B995003029C
:1075F00074C880B074EC124853EAFEEBFF8C828DA5
:1076000083E0F8A385820A85830B603B1470030234
:1076100077DC147003027AD114700302785824FDC9
:107620007003027971147003027B081470030279ED
:10763000C824FE70030279761470030279B81470BE
:1076400003027A54027AF7EE2476F512EF3400F54D
:1076500013E0851282851383F0850A82850B83A34C
:1076600085820A85830BEE2477F510EF3400F5113F
:107670007902AC0AAD0BAA10FB1266D78A0A8B0BF3
:10768000EE2479F50EEF3400F50F7902AC0AAD0B5C
:10769000AA0EFB1266D78A0A8B0B7902AC0AAD0BD5
:1076A000EE247BFAEF3400FB1266D78A0A8B0BEECE
:1076B000247DF50CEF3400F50D7902AC0AAD0BAA70
:1076C0000CFB1266D78A0A8B0B851282851383E026
:1076D000C333F0851082851183E0F8A3E0F9E8C395
:1076E00033F8E933F9851082851183E8F0A3E9F0D6
:1076F000850E82850F83E0F8A3E0F9E8C333F8E94B
:1077000033F9850E82850F83E8F0A3E9F0850C82BA
:10771000850D83E0F50EA3E0F50F7404780E124793
:10772000E9850C82850D83E50EF0A3E50FF0EE24CC
:1077300074F50CEF3400F50D7902AC0AAD0BAA0C10
:10774000FB1266D7850C82850D83C082C0838E8232
:107750008F83A3A3A3A3A3E0F8A3E0F9D083D082EF
:10776000E0C398F8A3E099F9C3E894FFE9947F4057
:1077700003027832EE247DF582EF3400F583E0F5E4
:107780000AA3E0F50BE4F50CF50DEE247BF582EF92
:107790003400F583E02401F50EA3E03400F50FE496
:1077A000F510F511EE2479F582EF3400F583E0F859
:1077B000A3E0F9E8C333F8E933F988128913E4F553
:1077C00014F515780E791212450A780A790E1244CA
:1077D000CB4004793B805DEE24738062EE2480F51B
:1077E0000CEF3400F50D7402C0E07905AC0AAD0B66
:1077F0007A3D7B071266D7EAFCEBFDD0E0F9AA0CD4
:10780000AB0D1266D7850C82850D83C082C0838E36
:10781000828F83A3A3A3A3A3E0F8A3E0F9D083D02E
:1078200082E0C398F8A3E099F9C3E894FFE9947F54
:1078300040097928EEFAEFFB027AF2EE247FF58216
:10784000EF3400F5837401F0EE241DF582EF34006F
:10785000F583E4F0A30279C4EE24E1F582EF34006D
:10786000F583E07039EEF8EFF97A167B068A828BA1
:1078700083A3E0C0E0E824E2F582E93400F583D098
:10788000E0F08A828B83A3AA82AB8388828983A358
:10789000A882A983EA641E7003EB640670CFEE240D
:1078A000E2F582EF3400F583E0A2E0EE401124DD42
:1078B000F582EF3400F583741AF0790D027ACB2447
:1078C00062F582EF3400F583E4F0EE2467F582EF91
:1078D0003400F583E4F0EE24E0F582EF3400F58324
:1078E0007401F07908AC0AAD0BEE249BFAEF34007A
:1078F000FB1266D78A0A8B0B7902AC0AAD0BEE2419
:10790000A3FAEF3400FB1266D78A0A8B0BEE24939E
:10791000F50CEF3400F50D7908AC0AAD0BAA0CFBA1
:107920001266D78A0A8B0B7908AA0CAB0D1266DD9A
:10793000EE2487F50CEF3400F50D7904AC0AAD0B9D
:10794000AA0CFB1266D77904AA0CAB0D1266DDEE09
:10795000248BFAEF3400FB1266EFEE2483FAEF3447
:1079600000FB1266F5900605E04480F07904027A87
:10797000CBEE24DE8045EE2462F582EF3400F58301
:10798000E4F0EE2467F582EF3400F583E4F0EE24B2
:10799000D2F582EF3400F583E4F0EE24DCF582EFDB
:1079A0003400F5837401F0EE24D3F582EF3400F552
:1079B00083E4F0790B027B05EE24DFF582EF3400DF
:1079C000F5837401F0027B08EEF8EFF97A167B0676
:1079D0008A828B83A3E0C0E0E824E2F582E93400E8
:1079E000F583D0E0F08A828B83A3AA82AB8388825E
:1079F0008983A3A882A983EA641E7003EB640670DE
:107A0000CFEEF8EFF97A167B068A828B83A3E0FC2F
:107A1000850A82850B83E05CC0E0E824E2F582E918
:107A20003400F583D0E0F0850A82850B83A385823C
:107A30000A85830B8A828B83A3AA82AB838882897F
:107A400083A3A882A983EA641E7003EB640670B95D
:107A500079098077EE24EAF582EF3400F583E0645B
:107A6000017003027AF7850A82850B83E0C0E0EE9D
:107A700024EDF582EF3400F583D0E0F0850A8285AD
:107A80000B83A385820A85830B7402C0E0F9AC0ADC
:107A9000AD0BEE24EEFAEF3400FB1266D7EAFCEBF6
:107AA000FDD0E0F9EE24F0FAEF3400FB1266D7EED9
:107AB00024EAF582EF3400F5837401F0EE24ECF54E
:107AC00082EF3400F583E0703F790CEEFAEFFB8033
:107AD00034EE24F4F8EF3400F9E088828983F0EE84
:107AE00024F3F582EF3400F5837401F088828983F2
:107AF000E0F91266AD8011EE24F5F582EF3400F561
:107B000083E8F0790712667D7F0C02492574F6122E
:107B10004853EAFEEBFF027D53EEFAEFFB1266716B
:107B2000027F9FEE2469F582EF3400F583E0640163
:107B3000703E90060DE07003027E2FEEFAEFFB120E
:107B40006683EE24A3F50AEF3400F50B780A124A97
:107B500066EE249BFCEF3400FD8E828F83A3A3A3EB
:107B6000A3E0FA7B0012643D7402124812027D53B6
:107B7000EEFAEFFB126647027F9FEE2469F582EF73
:107B80003400F583E06401705590060DE06031EE3D
:107B90002482F582EF3400F5837401F0EE24D4F5ED
:107BA00082EF3400F583E4F0A3F0A3F0A3F0EE2419
:107BB000D8F582EF3400F583E4F0A3F0A3F0A3F04E
:107BC000EE24DEF582EF3400F583E0640160030209
:107BD0007E2F7906EEFAEFFB126689027D53EE24C2
:107BE000D2F582EF3400F583E06401702AEEFAEFFB
:107BF000FB12664DE964016003027FBCEE24DEF5F2
:107C000082EF3400F583E4F0EE2469F582EF34006E
:107C1000F5837401027FAAEE24D3F582EF3400F5D8
:107C200083E07003027FBCEE24B2F50AEF3400F566
:107C30000B780A124A66EE248BFCEF3400FDEE242A
:107C4000C2FAEF3400FB1266FB7402124812EE24F3
:107C5000D2F582EF3400F5837401027D1BEE2469B6
:107C6000F582EF3400F583E064016003027D1E902D
:107C7000060DE07003027E2FEE2420F582EF340023
:107C8000F583E0F8A3E0F9EE241DF582EF3400F56A
:107C900083E8F0A3E9F0EEFAEFFB126683EE2462CC
:107CA000F582EF3400F5837401F0EE2467F582EF7E
:107CB0003400F5837401F0EE24DCF582EF3400F536
:107CC00083E06401701379008E828F83A3A3A3A342
:107CD000E0FA7B0012644980137C0179008E828F68
:107CE00083A3A3A3A3E0FA7B00126443EE24DCF594
:107CF00082EF3400F583E4F0EE24E0F582EF340007
:107D0000F583E4F0EE24DFF582EF3400F583E4F050
:107D1000EE24DEF582EF3400F583E4F08035EEFAF0
:107D2000EFFB126653027F9FEE2469F582EF340069
:107D3000F583E064016003027DBEEE24DFF582EF8F
:107D40003400F583E064016003027E2FEEFAEFFB5E
:107D5000126683EE246EF582EF3400F583E0700343
:107D6000027FBCEE246AF582EF3400F583E024FE46
:107D7000602F24FE7003027B23147003027B7A14AD
:107D80007003027C5D147003027FAD24FE70030259
:107D90007E6124FE6092147003027EAE14604C80FB
:107DA000B2EE2469F582EF3400F583E064016003EC
:107DB000027B1990060CE060767916027F80EEFA5D
:107DC000EFFB126659E964016003027FBCEE24DF19
:107DD000F582EF3400F583E4F0EE2482F582EF348F
:107DE00000F583E4F0EE2469027C51EE2469F5820B
:107DF000EF3400F583E06401705D90060DE06026CD
:107E0000EE2482F582EF3400F583E4F0EE2462F58F
:107E100082EF3400F5837401F0EE2467F582EF34CD
:107E200000F5837401F090060CE06003027D4CEED7
:107E30002471F8EF3400F988828983E024FFF0A3ED
:107E4000E034FFF088828983E0F8A3E0F9E8496034
:107E500003027FBC027F7EEEFAEFFB12665F027FB9
:107E60009FEE2469F582EF3400F583E064017034FD
:107E700090060DE060B9EE24E1F582EF3400F58361
:107E80007401F0EE2420F582EF3400F583E0F8A3CE
:107E9000E0F9EE241DF582EF3400F583E8F0A3E964
:107EA000F0027D4CEEFAEFFB126665027F9FEE2436
:107EB00069F582EF3400F583E064016003027F8B93
:107EC000EE24EAF582EF3400F583E064017051EEB0
:107ED00024EBF582EF3400F583E064016003027D5A
:107EE0004CEE24F0F582EF3400F583124A7DEE2447
:107EF000EEF582EF3400F583124A7DEE24EDF58233
:107F0000EF3400F583E0FC8E828F83A3A3A3A3E06C
:107F1000FA7B0079001264377404124812027D4C17
:107F2000EE2471F8EF3400F988828983E024FFF0B1
:107F3000A3E034FFF088828983E0F8A3E0F9E84900
:107F4000707AEE24F0F582EF3400F583124A7DEE6C
:107F500024EEF582EF3400F583124A7DEE24EDF530
:107F600082EF3400F583E0FC8E828F83A3A3A3A36A
:107F7000E0FA7B00792212643774041248127922E5
:107F8000EEFAEFFB1266AD79018033EE24ECF58258
:107F9000EF3400F5837401F0EEFAEFFB12666BEE3E
:107FA0002469F582EF3400F583E9F0800FEEFAEFF3
:107FB000FB126677E964017003027D4C79007F0251
:107FC000024925C082C083851A82851B83E0F8A3FD
:107FD000E0F9E84960128A828B83ECF0A3E824FF81
:107FE00018E934FFF94870F2D083D08202449E022F
:107FF000449EFFFFFFFFFFFF851C87C2AF02449E28
:10800000C082C083E9900C97F002828F74F7124807
:1080100053E9900542F07C7A7D057AFF7BFF12637D
:108020004790054374FFF0A3F0A3E4F0A3F07905B3
:108030001262CF900542E0F91261F17A5F7B631220
:1080400065097F0102492574F41248538A0A8B0B93
:10805000EB54806030900542E0F9125ABF8A0C8BD5
:108060000DAE0CAF0DEE4F60138E828F83E064B0C7
:1080700070031262E7EEFAEFFB125AADAA0AE50BA3
:108080006480FB80047A007B0002825E74F21248F6
:108090005374FC1247FCEAFEEBFFEE4F60387402AB
:1080A000124847EEF0A3EF1284C3ECF0A3ED128464
:1080B000C3AA82AB831261EBE9F50A7073741212E2
:1080C0004847129077E50C450D60658E828F8312CC
:1080D000813AEE4F7005750A0280557A067B0012D0
:1080E0005B318A0E8B0FA80EA90FE8497005750A3F
:1080F00013803D88828983E4128144A3A3EEF0A318
:10810000EF129510E50CF0A3E50DF09005481281F3
:10811000CC9005486017E0FCA3E08003EAFCEBFD8F
:108120008C828D831281CC70F38C828D83128F9C14
:10813000A90A7404124812029712A3A3A3A3E0FE93
:10814000A3E0FF22F0A3F0888289832274F2124810
:1081500053890CE975F017A4FEAFF0900547E4F0E1
:108160009005451281CC600A125B37900545E4F01A
:10817000A3F0EEFAEFFB125B318A0A8B0BEA450B98
:10818000602FEEFCEFFD7900125A9B900545E50A41
:10819000F0A3E50BF07B0080081281B6E4F0A3F0B9
:1081A0000BEBC3950C40F2E50C900547F07900808D
:1081B000027913029712EB75F017A4F8A9F0900555
:1081C00045E028FAA3E0398A82F58322128D32EA4B
:1081D0004B2274F4124853750A00750B00740C128C
:1081E00048471294E4FEE9FF800CE50A2401F50AF1
:1081F000E50B3400F50BC3E50A9CE50B9D50328579
:108200000A0C850B0D7403780C1247E9EA250CF86B
:10821000EB350DF988828983A3A3A3A3A3A31290AE
:1082200077EE650C7003EF650D70BFE8FAE9FB802F
:10823000047A007B00802774F41248537900EAA284
:10824000E0501B750A1A750B81780A124A667C0485
:108250007D007A997B0C1262C974021248127F0465
:10826000024925C082C083900548128296601C880E
:10827000828983A3A3E06A7003A3E06B8882898369
:1082800070E8A3A3A3A3128D2E80047A007B00D0F4
:1082900083D08202449E1297E5E8492274EE124888
:1082A0005374FC1247FCEAFEEBFF851A82851B83A0
:1082B000E4F0A3F0EE2402128F80EE24051284B1C4
:1082C000EE2404F510EF128896E024FE603924FCB9
:1082D000604624FE605224FE605E24FE700302832A
:1082E000B624FE700302842E24FE700302843D2413
:1082F000FE700302844C24FC700302845B24FE7035
:108300000302846A0284A79005617417F0A3E41243
:1083100084CB125F690284A7851A82851B83AC8295
:10832000AD831262ED028477851A82851B83AC824D
:10833000AD831262F3028477850E0A850F0B7402F7
:10834000124847AC82AD83850A82850B83128D2E3D
:1083500012620F8A0E8B0FAC0EAD0FEC4D6042E433
:10836000F50EF50F780E124A66750E61750F0578D9
:108370000E124A66750E62750F05780E124A667403
:1083800008124847124A7D7916128D2812632F74FD
:1083900008124812E9F50E700B128D24125F8180CD
:1083A0000F750E01850A82850B831284B9128F9C8A
:1083B000850E0A02847A7402124847AC82AD838526
:1083C0000E82850F83128D2E12620F8A128B13ACD0
:1083D00012AD13EC4D6043850E82850F83A3A3126B
:1083E0004A7D7512617513057812124A667512621C
:1083F0007513057812124A667408124847124A7DAE
:108400007916128D2812632F7408124812E9F50BA1
:10841000700B128D24125F87800F750B01850E8201
:10842000850F831284B9128F9C850B0A804C851AA4
:1084300082851B83AC82AD831262F9803A851A82F1
:10844000851B83AC82AD831262FF802B851A8285E7
:108450001B83AC82AD83126305801C851A82851B49
:1084600083AC82AD8312630B800D851A82851B83DA
:10847000AC82AD83126311E9F50AE50A60298E82A8
:108480008F83A3E06414601F851082851183E090C0
:1084900005611284C31297E1900562128F9CE50A70
:1084A000A31284CB125F63EEFAEFFB12628D028E91
:1084B00088F50EEF3400F50F221297E5851A8285B4
:1084C0001B8322F0851A82851B8322F07C617D0547
:1084D000850C82850D83128D322274EE12485374FE
:1084E000FC1247FC8A0C8B0D8C108D11EA2405F5CB
:1084F0000AEB3400F50B7C157D0079007A617B0571
:10850000125A9BE50A2402F50EE50B1284B4851A73
:1085100082851B838582128583137812124A6685B1
:108520000A82850B83A3A3A3A31289DE124A66E500
:108530000A2405F512E50B3400F5137812124A6689
:10854000850E82850F83128D3812620974061248D7
:10855000128A128B13AE12AF13E50C2402F50CE550
:108560000D128F83EE4F70030286A08017740212E3
:108570004847128D2E88828983EAF0A3EBF090059C
:1085800061E004F0900561E0C3940540030286A019
:10859000E4F512F5137812124A6675124A7513053E
:1085A0007812124A6675124B7513057812124A66D4
:1085B0007406124847124A7D7910EEFCEFFD128DC9
:1085C0002812632F7408124812E9705E850A8285AA
:1085D0000B83A3A3A3A3A3A3A3E0F890054AE06899
:1085E00070481289DE124A667C4B7D05E50A240834
:1085F000FAE50B3400FB125A957402124812E96036
:10860000298E828F83A3A3A3A3128D2E900561E0F0
:10861000F512740278121247E974622512F5827419
:10862000053513F583EAF0A3EBF074021248478591
:1086300082128583137812124A6674021248471216
:108640004A7D850E82850F831297F6126215740497
:108650001248128A128B13AE12AF13900561E0F527
:1086600012751300740278121247E974612512F82A
:1086700074053513F988828983A31281CC700302B3
:108680008564E82403F8E93400F9EE4F60030285BD
:108690006D8882898374FFF0A3F0900561E004F097
:1086A000900561E0600A128D24125F757900800BDD
:1086B000850A82850B83128F93790A028E8874EA69
:1086C00012485374FE1247FC8C148D15EA2405F5EC
:1086D0000EEB12980012813E750A00750B00EA2419
:1086E00002F512EB3400F513851A82851B8385820F
:1086F0000C85830D780C124A66850E82850F83A344
:10870000A3A3A31288A0124A66E50E2405F50CE582
:108710000F128F83780C124A66850E82850F8312A2
:1087200097F412620974061248128A0C8B0DEA45FE
:108730000D7003028851EA2404F510EB128896129A
:10874000813E8A828B83A3A3A3E0F98512828513DD
:1087500083128D2E1261F7E9F50B6003028851E454
:10876000F516F5177816124A6675164A75170578C4
:1087700016124A6675164B7517057816124A6674F6
:1087800006124847124A7D7913AC0CAD0D85128252
:10879000851383128D2E12632F7408124812E9F587
:1087A0000B600302885190054AE0F8E50A7009E081
:1087B0002402900562F08017900562E0FCE8240234
:1087C000FAE43400FBEA6C7001EB60030288558523
:1087D0000A82AA821289D594141289CD5073851009
:1087E00082851183E0C0E074632A12888DD0E0F0A6
:1087F000050A851082851183A3E0C0E0850A0C7408
:1088000063250C12888DD0E0F0050A90054A128885
:10881000A0124A667C4B7D05850A0C7463250CFA10
:1088200074053400FB125A83740212481290054AF0
:10883000E0250AF50A74FF6E700374FF6F6012EE94
:1088400024010EEF3400FFE50AC39414500302869E
:10885000E8E50A6013128C19851282851383128D44
:108860002E125F7B79008014E50B7003750B0A856F
:108870001482851583EEF0A3EFF0A90B7402124861
:10888000127F0E024925850A0E7463250EF5827447
:10889000053400F583223400F511851082F583221A
:1088A0001295232274EE12485374FE1247FC8C106A
:1088B0008D11EA2405F50EEB1284B4750D009005B8
:1088C00061E4F0F50CEA2402F50AEB3400F50B80C4
:1088D00049900561E0FA90054AE0F81289D59417AD
:1088E0001289CD400D900561E0F87416C39890058B
:1088F0004AF01289DE124A667C4B7D0574622AFAC0
:1089000074053400FB125A83740212481290054A0F
:10891000E0F8900561E028F0050CE50E2416F582DC
:10892000E50F128891E0F8E50CC39840030289B680
:10893000900561E0C39416507DE50CC333F8E43331
:10894000F9E50E28FEE50F39FF851A82851B83ACF9
:1089500082AD838E828F83128D2E12620F8A128BCC
:1089600013AC12AD13EC4D7005750D018043E4F5A9
:1089700012F5137812124A6675124A7513057812A9
:10898000124A6675124B7513057812124A66740600
:10899000124847124A7D7916850A82850B83128D0B
:1089A0002E12632F7408124812E9F50D7003028825
:1089B000D1128F8F80107C617D05850A82850B83A3
:1089C000128D2E125F8DA90D7402028E8AE9940019
:1089D000C365D03322EA28F8E43400F9E822E0F550
:1089E0001275130078122274EA12485374FC12476D
:1089F000FC8A0E8B0F8C148D15EA2405F50CEB12F6
:108A00008F83750A00750B00E50C2402F512E50D45
:108A10003400F5137402124847858210858311785B
:108A200010124A66850C82850D83A3A3A3A312941A
:108A3000CF124A66E50C2405F510E50D3400F5115A
:108A40007810124A66851282851383128F89128DDF
:108A50002812620974061248128A108B11AE10AFE8
:108A600011E50E2402F510E50F3400F51180408861
:108A700082898374FFF0050A12888674FFF0050A64
:108A800090054AE0F50E750F00780E124A667C4B91
:108A90007D05850A0E7463250EFA74053400FB12F9
:108AA0005A83740212481290054AE0250AF50AEE2C
:108AB0004F60718E828F83A3A3A3E0F98510828516
:108AC0001183128D2E1261F7E9F50BEE2404128446
:108AD000B1E97044E4F516F5177816124A66751672
:108AE0004A7517057816124A6675164B751705787C
:108AF00016124A667408124847124A7D7911EEFC34
:108B0000EFFD851082851183128D2E12632F74085C
:108B1000124812E9F50B6027850E82850F83128CAF
:108B20000F128F9CE50A7003028BF5128C198510C9
:108B300082851183128D2E125F937900028C0A8533
:108B40000A82AA82EA90054A7009E024049005622C
:108B5000F08022E0F8900562E0F516E82404FCE4D9
:108B60003400FDEC65167001ED70C01289D59412C9
:108B70001289CD50B6850E82850F83E0C0E0746304
:108B80002A12888DD0E0F0050A850E82850F83A316
:108B9000E0C0E0128886D0E0128C2B85820E85839F
:108BA0000F780E124A667404124847124A7D8512E5
:108BB000828513831297F612621574041248128A82
:108BC0000E8B0FAE0EAF0F850A0E7463250EF87470
:108BD000053400F9EE4F7003028A6F851A82851BF7
:108BE00083E088828983128C2BA3E0C0E012888600
:108BF000D0E0028A7DE50B7003750B0A850C828537
:108C00000D83128C0F128F9CA90B740402887E12A4
:108C100097E585148285158322900562E0F5F0E5DD
:108C20000A84900561F07C617D0522F0050A851AB1
:108C300082851B832274EC12485374FE1247FC8A0F
:108C40000A8B0B8C108D11EA2405FEEB3400FF8596
:108C50001A82851B83AC82AD838E828F83128D2E08
:108C600012620F8A0C8B0DEE24181284B1EA450DA6
:108C70007003028CFF128E715032851A82851B831D
:108C8000128D2E1263238A128B13EA4513606B79BF
:108C900012AC0CAD0D850A82850B83128D2E8512C8
:108CA00082851383124851E9F50C7058E4F50CF5F0
:108CB0000D780C124A668E828F83A3A3E0F50C78A0
:108CC0000C124A66EE2403128F80780C124A668ECC
:108CD000828F83128D381263357406124812E9F5BB
:108CE0000C7021850E82850F83E0701F850A8285B6
:108CF0000B83128D2E125F998011750C0E800975F1
:108D00000C018004E50C6003128F8F850E82850FA5
:108D100083E0600479008002A90C74021248127F7B
:108D20000C0249257C617D05850C82850D83128DA1
:108D30003222E0FAA3E0FB22E0FCA3E0FD850A82F8
:108D4000850B83128D322274EE12485374FE124743
:108D5000FC8A0A8B0B8C0E8D0FEA2405FEEB340087
:108D6000FF751000851A82851B83AC82AD838E82CD
:108D70008F83128D2E12620F8A0C8B0DEA450D70B7
:108D800003028E5D128E715035851A82851B831207
:108D90008D2E1263238A108B11EA4511605E7912C1
:108DA000AC0CAD0D850A82850B83128D2E85108249
:108DB000851183124851E9F5106003028E60850A1F
:108DC00082850B83129077AA0CFB1263178A128B91
:108DD00013A812A913E849701E7AFF7BFF126317CC
:108DE0008A128B13A812A913E849606C88828983C0
:108DF000E50CF0A3E50DF0750C00800775100E80F2
:108E00005F050C900547E0FAE50CC39A504AE50C63
:108E100075F017A4FAABF088828983A3A3E02AFA3D
:108E2000A3E03BFB8A828B83128F89EC4D70D27555
:108E30000C17750D00780C124A66EEFCEFFD125A05
:108E4000837402124812EEFCEFFD850A82850B83C3
:108E5000128D2E125F9F801475100980037510010A
:108E60001297DD850E82850F83128F9CA9100289CF
:108E7000C8E50A2402F50AE50B3400F50B8A828B5B
:108E800083A3A3A3E0A2E52274041248127F0A027E
:108E9000492574EC1248538C128D13EA2405F50E03
:108EA000EB1284B4751100EA2402F50CEB128F83E7
:108EB000850C82F583128D2E1263178A0A8B0BEABA
:108EC000450B7003028F757510008071850E8285C9
:108ED0000F83E06401704F8E828F83A3A3124A7DBB
:108EE0008E828F83A3A3A3A3E0F5147515007814D5
:108EF000124A66EE2405F514EF3400F515781412C5
:108F00004A66128D281263357406124812E9F5116B
:108F10006014850E82850F83E4F01297DD8512823E
:108F2000851383128F9C7C177D007900EEFAEFFB8E
:108F3000125A9B8E828F83E4F0A3F00510900547B0
:108F4000E0F8E510C398501EE51075F017A4F8A9D5
:108F5000F0850A82850B83A3A312980A128F89ECED
:108F60004D6003028ECC850A82850B8374FFF0A3CB
:108F7000F0E5117006128D28125FA5A911028D1F50
:108F8000F50CEF3400F50D22A3E0FCA3E0FD228EEA
:108F9000828F831297E5851082851183E8F0A3E91B
:108FA000F022C082C083900543E06A7003A3E06BA7
:108FB00070067A437B0580047A007B0002828FC0B2
:108FC00082C08378008C828D83E06A7003A3E06B9B
:108FD0007010E875F003A4F8A9F0EC28FAED39FB5D
:108FE0008015088C828D83A3A3A3E06A7003A3E09D
:108FF0006B60DF7A007B0002828F74F61248531296
:1090000062E18A828B83E582458370067A007B0069
:109010008007A3A3A3A3128D2E02968E74F212488A
:1090200053E9FE740E1248471290777410124847A5
:109030001294EF8C828D83E064027036A31297EB5A
:10904000F50EA3E0F9A80E74026870037429697024
:1090500021750E02750F00780E124A66780A124AC0
:1090600066780C124A66EEF91263597406124812B9
:1090700080027901029712E0F50CA3E0F50D22744D
:10908000E812485374FB1247FCE9851A82851B835A
:10909000F08A188B19ECFEEDFF751200741D124852
:1090A000471297E1741D124847128F9C8E828F835E
:1090B000A3A3A3E0A2E4502D741D124847128D2EE5
:1090C0001263238A828B83E582458370030294C0F6
:1090D000790AEEFCEFFDAA18AB19124851E9F51216
:1090E00060030294C3741F1248471294EF74211254
:1090F00048471290777423124847E0F510A3E0F533
:10910000118E828F83E06402600302946EA3129733
:10911000E1850A82850B83A3858214858315EE245D
:10912000061284B188828983E0FAA3E0F9EA240078
:10913000F516E439F5177816124AF00100002801F7
:109140002863910700022828920328959100295F3F
:109150009301298A9302292B9303295F93042909F8
:10916000946E94E51045116003029469850E828522
:109170000F831294E4FAE9FB8A828B83E0850C82E8
:10918000850D8312951A124A668A828B83A3E0FCAE
:10919000A3E00293F3E51045116003029469850C86
:1091A00082850D837401F01294F7850A82850B8302
:1091B000F07C007D008E828F83A3A3A3A3E0240113
:1091C000FAA3E03400FB12620FEA4B60418A828B03
:1091D00083E02402F8850C82850D83E028F0EA24E0
:1091E00004F8EB3400F988828983E08514828515C0
:1091F0008312952C12951A124A668A828B83128FDB
:1092000088E50A2403FAE50B3400FB0293F8850C89
:1092100082850D83E02404F07C047D007900AA148B
:10922000AB15125A9B0294C3E510451160030294DA
:10923000691294F7FEA3E0FF850C82850D83740408
:10924000F0EE850A82850B83F0EF85148285158305
:10925000F07403124847AC82AD83EEFAEFFB126262
:109260000F8A0E8B0FEA450F700302930C8A828BD4
:1092700083A3A312813A7401124847858210858323
:10928000117810124A667405124847124A7D7CFF15
:109290007DFF12621574041248128B11EA45117099
:1092A00033850E82850F831294CF124A66850E8213
:1092B000850F83A3124A7D7C027D007ADC7B8112BC
:1092C00060417404124812E9700A7401124847742C
:1092D000FFF0A3F08E828F83E064027039750E0276
:1092E000750F00780E124A668E828F83128F88E582
:1092F0000A2404FAE50B3400FB125A837402124864
:1093000012850C82850D83E02402800974011248C5
:1093100047EEF0A3EFF074011248471294E0F074A6
:1093200001124847A31294D8029463E510451160D6
:1093300003029469850E82850F83128F89AA18AB68
:109340001912634D850C82850D837402F0EA850A3B
:1093500082850B83F0851482851583EB029466E584
:1093600010451160030294691294F7F8A3E0F9859F
:109370000C82850D837402F0E8850A82850B83F0E8
:10938000E9851482851583029466850E82850F8394
:10939000128D2E125A7DEAFC8C82A882C39510E4AD
:1093A0009511405FE865107002E51170047C008043
:1093B00022851A82851B83E0FAE5102AFAE511342A
:1093C00000FBC3EA98EB94005003E08005E510CC65
:1093D000C39CFCEC850C82850D83F08C0C750D0014
:1093E000780C124A66850E82850F83E02510FCA357
:1093F000E03511FDAA0AAB0B125A8374021248120F
:109400000294C37512070294C3E5104511705A8582
:109410000E82850F831297E1850C82850D83740778
:109420001281461294D8128146A3E08514828515D4
:1094300083F0E82402FAE93400FB8A828B831294D9
:10944000D81295071294E0A31295101294E9F0E84F
:109450002405F8E93400F9888289831294E9A3127B
:10946000952CA3A3A3A3F0805A75120B8055741DED
:10947000124847128D2E1262E18A828B83E5824563
:1094800083603D1297E1880E890FE8450F603178BF
:1094900010124A66780C124A66780A124A667406F6
:1094A000124847E0F9EEFCEFFDAA18AB19850E82D1
:1094B000850F831248517406124812E9F512800391
:1094C00075120EA91274051248127F10024925E088
:1094D000F510751100781022E0850A82850B832231
:1094E000129536221297E5E822129536A3A322E0C0
:1094F000F50AA3E0F50B22850E82850F83E0F8A321
:10950000E0F5838882E022A3A3F08A828B83A322E2
:10951000F088828983A3A3A3A322F08A828B83127B
:10952000952322E0F50C750D00780C22F0888289D5
:1095300083A312953622E0850A82850B83A3A3229A
:1095400074EE12485374FE1247FC8A0C8B0DECFA31
:10955000EDFB7414124847E0F512A3E0F5137416FE
:10956000124847E0FE7418124847E0F510A3E0F5F2
:1095700011851A82851B83AC82AD8312620F8A0E1D
:109580008B0FEA450F6049851A82851B83128D2E49
:109590001262E18A828B83E5824583602FA3A31246
:1095A00094EFE50A450B60247810124A667812128F
:1095B0004A66EEF9AC0EAD0FAA0CAB0D850A82859A
:1095C0000B8312485174041248128006790E8002EF
:1095D00079010289C874F612485374FE1247FC746C
:1095E0000C1248471294E4851A82851B83F074019B
:1095F000124847E9F0E4F50AF50B780A124A667555
:109600000A02780A124A66740412484785820A855B
:10961000830B780A124A6612633574061248127474
:1096200002124812806874F7124853EAFEEBFF8971
:109630000A7C7A7D0512634DEA5402600BA90AEE9A
:10964000FAEFFB1262038002790102804274F61283
:10965000485374FF6A700374FF6B70168C828D839D
:10966000129693E4F08C828D83A3A3A3129693A306
:10967000801812631D8A0A8B0BA80AA90BE849609F
:109680000D8882898374FF128144A3A3E4F07F02D2
:1096900002492574FFF0A3F08C828D83A3A322746A
:1096A000F612485312631D8A828B83E582458360DC
:1096B00006A3A3E0FA80027A007B0080D174F21244
:1096C00048538A0A8B0BECFEEDFF740E124847E0FC
:1096D000F50C12631D8A0E8B0FA80EA90FE84970B6
:1096E00026EEFCEFFD7AFF7BFF12631D8A0E8B0FC7
:1096F000A80EA90FE8497004791180168882898321
:10970000E50AF0A3E50BF088828983A3A3E50CF0BA
:1097100079007F0602492574EE124853EAFEEBFFFA
:109720008C0A8D0B890E74141248471297E1741637
:10973000124847128D2E750F00E84960030297D535
:109740007402650E60030297D07412124847129794
:10975000EBFCA3E0F9EC2400F510E439F511EAF490
:10976000F8EBF4F9EC58F8E51159F9E849705CE5C3
:109770000A2406F8ED3400F9880C890D8882F583F7
:109780001297F612634D8A128B13E510651270045E
:10979000E511651360427810124A66850C82850DCA
:1097A000831297F61263537402124812E9F50F7090
:1097B000277810124A66850A82850B83A3A3129725
:1097C000F41263657402124812800D750F808008D0
:1097D000750F0D8003750F0BA90F028E8D8E828F72
:1097E000831297E522E0F8A3E0F9221297E5888238
:1097F0008983E022A3A3E0FCA3E0FDEEFAEFFB22C5
:109800003400F50F850E82F58322E028FEA3E039AF
:10981000FF8E828F832274F2124853EAFEEBFF8997
:109820000D7401650D600E7402650D706A79011288
:109830006527E97062EEFAEFFB1263178A0A8B0B59
:10984000EA450B6047750C00800B7C177D007900A2
:10985000125A9B050C900547E0F8E50CC39850217F
:10986000E50C75F017A4F8A9F0850A82850B83A38F
:10987000A3E028FAA3E039FB8A828B8312829670D8
:10988000C9850A82850B8374FFF0A3F07C7A7D057D
:10989000EEFAEFFB12634702971274F21248538AF2
:1098A0000A8B0BECFEEDFF740E1248471290779076
:1098B0000C97E0F4603D7A097B00125AA7EA4B60EE
:1098C000328A828B8374B1F0A3E4129509A31295B6
:1098D00007A3E50AF0A3E50B1298F6EEF0A3EF124A
:1098E00098F6A3A3E50CF0A3E50DF0900C97E0F932
:1098F000125AB3029712F08A828B83A3A3A3A3A365
:109900002274F612485374C41247FCE99004A2F082
:10991000125F0F9080A1C082742B124847AC82ADB9
:1099200083758380D082741112470F7421124847C7
:10993000AA82AB831265637423124847129CFA1201
:109940004847129CEDC0E0740D124847D0E0129DCC
:1099500008124847129CEDC0E0740E124847D0E050
:10996000F07422124847129CFA124847129CEDC02C
:10997000E0740F124847D0E0129D08124847129C2D
:10998000EDC0E07410124847D0E0F074211248474F
:10999000E0129D01124847129CEDC0E0741112487C
:1099A00047D0E0F07421124847E0129D0212484768
:1099B000129CEDC0E07412124847D0E0F0750A0620
:1099C000750B00780A124A66740F124847AC82ADD4
:1099D000837A9E7B0B125A837402124812780A1201
:1099E0004A66740F124847AC82AD837AC27B0B1271
:1099F0005A8374021248127C067D007A1F7B001283
:109A0000604D740C1248477401F0741F124847E40B
:109A1000F0A3F0740B1248477401F0741D1248470C
:109A20007420F0A37403F0741B12484774B0F0A3C1
:109A30007404F07419124847740412A9D7741712E9
:109A400048477488F0A37413F0740C124847AC8232
:109A5000AD8379017A057B03125E97741F12484724
:109A6000AC82AD8379027A067B03125E977C927D8D
:109A70000B791B7A087B03125E977CAD7D0B790B0B
:109A80007A077B03125E97740B124847AC82AD8352
:109A900079017A107B03125E97741D124847AC82DD
:109AA000AD8379027A117B03125E97741B124847CB
:109AB000AC82AD8379027A127B03125E977419121D
:109AC0004847AC82AD8379027A137B03125E9774A8
:109AD00017124847AC82AD8379027A147B03125E79
