:020000040000FA
:104000009042FFFF0100007C42424242FFFFFFFF5F
:10401000FFFFFFFFFFFFFFFFFFFFFFFFFFFFFFFFB0
:10402000000102030405060708090A0BFFFFFFFF52
:1040300002446602538BFFFFFFFFFFFFFFFFFFFFFE
:10404000FFFFFFFFFFFFFFFFFFFFFFFFFFFFFFFF80
:10405000FFFFFFFFFFFFFFFFFFFFFF024C4DFFFFD2
:10406000FFFFFFFFFFFFFFFFFFFFFFFFFFFFFFFF60
:10407000FFFFFFFFFFFFFFFFFFFFFFFFFFFFFFFF50
:10408000FFFFFF0253FEFFFFFFFFFFFFFFFFFFFFEA
:10409000FFFFFFFFFFFFFFFFFFFFFF024C06FFFFD9
:1040A000FFFFFFFFFFFFFFFFFFFFFF024C2FFFFFA0
:1040B000FFFFFF0251F701FFFF1101990112640494
:1040C0000102EA81010000C38102E481010000ECE9
:1040D0000E02F281010000ED0E02DE81030000A954
:1040E0000202D081010000EE0E01E803053F100A34
:1040F000024669726D776172650000000000000081
:1041000000001A446F2053796E6300000000000025
:1041100000000000084150502053657420436C6F2C
:10412000636B000000000841505020536574205418
:10413000696D657A6F6E65001201004461746120DB
:1041400048656164657200000000000012446174FB
:104150006120426F6479000000000000000002EA64
:1041600081010000BA8102E4810100001F0F02CC2E
:1041700081010000A60302E081010000200F02E49B
:1041800081010000310F02CA81030000A80302DE92
:1041900081030000B00302E081010000320F02E45D
:1041A00081010000430F02D681020000B60302E045
:1041B00081010000440F02E481010000550F02E27A
:1041C00081020000BA0302E081010000560F02E400
:1041D00081010000670F02E881030000680F02DE22
:1041E00081030000BB0302E0810100006A0F02E4CA
:1041F000810100007B0F02F681030000C10302DE93
:1042000081030000C90302E0810100007C0F1C0251
:10421000EA81010000118102E4810100003D1010DB
:104220005080020000CF0302DE81030000D10302B0
:10423000E081010000F28002E4810100003D1010E5
:104240006080020000D00302DE81030000D7030279
:10425000E081010000FF80FFFFFF000130750302D5
:104260000106000000000000000000000000000047
:104270000000000000000000000000000000FFFF40
:104280000600800CE8032C011109416464696E6723
:104290005F41312D30303030303005122003B00412
:1042A000020A00020106070200230F18C0FF416442
:1042B00064696E675F41312D30303030303000003E
:1042C0000000000DC40900001B5F00002D5FFF000F
:1042D00000B4000028002800283075A000A000A02D
:1042E00000A00000080008E001F00010001000101D
:1042F000001000100010005000500050001000107E
:1043000000D0070000000000000F00010005003091
:104310007507001000010081FF00000000FF976199
:10432000B5619D61FF02020208025000A00000007A
:10433000E80302EA81010000C08102E4810100007B
:10434000541102DC81010000590A02E481010000DD
:10435000551102DA810100006F0A02E481010000B8
:10436000561102D881010000710A02E481010000A7
:10437000571102F081080000720A02E48101000076
:10438000581102D4810100005911FF0100FF2002E1
:10439000EA81010000BD8102E481010000BD11023B
:1043A000D281000000000002DE81030000BF0A6726
:1043B000676767676767676767676767676767678D
:1043C000676767676767676767FB69136AF569E52A
:1043D000C754F84404F5C779012200000080FB129D
:1043E00043CFB90003024450E479217808B80002B1
:1043F0008004F709D8FCE479297802B80002800427
:10440000F709D8FCE49002807867790D8002F0A368
:10441000D8FCD9FA781C9040B67A01BA000280071D
:10442000E493A3F608DAF9900EE6AA82AB839040F3
:10443000B7781979048015E493A3AC82AD838A829E
:104440008B83F0A3AA82AB838C828D83D8E9D9E7D2
:1044500075829375838E74041244787582DA75833D
:1044600043740012447875D00075813F751A8075C9
:104470001B02759F000243DFC09FF59FE473D09F2E
:1044800022D083D082C09FE493C0E0740193C0E047
:10449000740293F59F22E066701008A3E066700A2C
:1044A00008A3E066700408A3E06622C3E796080943
:1044B000E7960809E7960809E79622C3E09608A35D
:1044C000E09608A3E09608A3E09622C00AC3E0960F
:1044D000F50A08A3E096420A08A3E096420A08A358
:1044E000E096450A7001D3D00A22080808EAC0E025
:1044F000EBC0E086F0E7A4FA180986F0E7A42AFAF0
:10450000180986F0E7A42AFA180986F0E7A42AFA1F
:104510001986F0E7A4FBE5F02AFA190886F0E7A46B
:104520002BFBE5F03AFA190886F0E7A42BFBE5F03F
:104530003AFA18180986F0E7A4C5F02BFBE43AFA1A
:104540001908E7C5F0C6A426F6E5F03BFBE43AFA05
:104550001886F0E7A4F6E5F00826F6E43B08F6E452
:104560003A08F6D0E0FBD0E0FA22E4CFC0E0E4CE97
:10457000C0E0E4CDC0E0E4CCC0E075F020C3E63399
:10458000F608E633F608E633F608E633F6181818A8
:10459000EC33FCED33FDEE33FEEF33FFC3EC970954
:1045A000ED9709EE9709EF97191919400FFFEC974E
:1045B000FC09ED97FD09EE97FE191906D5F0BEEC42
:1045C000F709EDF709EEF709EFF7191919D0E0FC33
:1045D000D0E0FDD0E0FED0E0FF22124642181818CD
:1045E00012456A1246311919192212463119191940
:1045F000080808E618181820E7E012456A12464233
:1046000018181822090909E719191920E7DC080800
:1046100008E618181820E70302456A1246421818DF
:104620001812456A124642181818124631191919FB
:1046300022E4C397F709E497F709E497F709E497A9
:10464000F722E4C396F608E496F608E496F608E442
:1046500096F6226016080808C6C313C618C613C605
:1046600018C613C618C613C6D5E0EA227009080892
:1046700008226016181818C6C333C608C633C60801
:10468000C633C608C633C6D5E0EA22E627F60809CF
:10469000E637F60809E637F60809E637F622E02697
:1046A000F608A3E036F608A3E036F608A3E036F6EF
:1046B00022E026F008A3E036F008A3E036F008A3D5
:1046C000E036F022C3E697F60809E697F60809E611
:1046D00097F60809E697F622C3E096F008A3E0965D
:1046E000F008A3E096F008A3E096F022E657F6085B
:1046F00009E657F60809E657F60809E657F622E0F4
:1047000056F608A3E056F608A3E056F608A3E056CE
:10471000F622E056F008A3E056F008A3E056F008B1
:10472000A3E056F022E0F608A3E0F608A3E0F608BE
:10473000A3E0F622E6F008A3E6F008A3E6F008A35B
:10474000E6F022E0FAA3E0FBA3E0FCA3E0FD22EA0E
:10475000F0A3EBF0A3ECF0A3EDF022CAC0E0E6F08A
:10476000A308DAFAD0E0FA22CAC0E0E0A3C582CCFE
:10477000C582C583CDC583F0A3C582CCC582C58360
:10478000CDC583DAE6D0E0CA22C3E498F8E499F90B
:104790001247CA8026C3E49AFAE49BFBE920E7E9C2
:1047A0001247CAE498F8E499F922C3E498F8E49926
:1047B000F91247CAE498F8E499F9C3E49AFAE49B39
:1047C000FB22EB20E7CFE920E7E0B90010BB0008AF
:1047D000E88AF084F8AAF022E4FBC8FA22EB7022FF
:1047E0007B10C833C8C933C9335007C39AC3DBF23F
:1047F00080069A50012ADBEAC833F4C8C933F4C9E9
:10480000FA2275F008E4C833C8C933C933C99AC954
:104810009B5004C92AC93BD5F0ECFBC833F4C8E46B
:10482000C9FA22600D08C6A2E713C618C613C6D57A
:10483000E0F322600C08C6C313C618C613C6D5E041
:10484000F422700422600D18C6C333C608C633C6EE
:10485000D5E0F41822251A10AF08F51A4002151BEE
:104860008008F51A4002151BD2AF22C0D0251A10BD
:10487000AF08F51A5002051B8008F51A5002051BF7
:10488000D2AFD0D022251AF58210AF08F51A400217
:10489000151B8008F51A4002151BD2AF851B832219
:1048A000251AF582E4351BF58322E473251AC582A7
:1048B000C0E0E51B34FFC583C0E0E51AC395822440
:1048C000F810AF0885831B85821A800885831B85B5
:1048D000821AD2AFCEF0A3E520F0A3780AE608F062
:1048E000A3DEFAEFF0A3E58124FAF8E608F0A3E6E8
:1048F00008F0A3E608F0A30808E608F0A3E608F02D
:10490000A315811581D0E0FED0E0F8158115811541
:1049100081E8C0E0EEC0E022251AC582C0E0E51BB8
:1049200034FFC583C0E0E51AC3958224F910AF08AF
:1049300085831B85821A800885831B85821AD2AFE6
:10494000CEF0A3E520F0A3780AE608F0A3DEFAEFA4
:10495000F0A3E58124FBF8E608F0A3E608F0A3083D
:1049600008E608F0A3E608F0A315811581D0E0FE63
:10497000D0E0F815811581E8C0E0EEC0E022851B8B
:1049800083851A82E0A3FEE0A3F520780AE0A3F66F
:1049900008DFFAE0A3FFE0A3C0E0E0A3C0E0E0A3EB
:1049A000C0E0E0A3C0E0E0A3C0E010AF0885821A39
:1049B00085831B800885821A85831BD2AFD083D064
:1049C0008202447E851B83851A82E0A3FEE0A3F564
:1049D00020780AE0A3F608DFFAE0A3FFE0A3C0E036
:1049E000E0A3C0E0E0A3C0E0E0A3C0E010AF088512
:1049F000821A85831B800885821A85831BD2AFD0DB
:104A000083D08222C0D0251AC582C0E0E51B34FFC6
:104A1000C583C0E0E51AC3958224F310AF088583EF
:104A20001B85821A800885831B85821AD2AFC8F045
:104A3000A3E9F0A3EAF0A3EBF0A3790AE709F0A356
:104A4000D8FAECF0A3EDF0A3EEF0A3EFF0A3D0E0E2
:104A5000F0A3D0E0F0A3D0E0F0A3E520F0A3E5F0D0
:104A6000F0A322851B83851A82E0C0E0A3E0F9A3AE
:104A7000E0FAA3E0FBA3780AE0F608A3DFFAE0FC83
:104A8000A3E0FDA3E0FEA3E0FFA3E0C0E0A3E0C03D
:104A9000E0A3E0F5D0A3E0F520A3E0A3F5F010AF8C
:104AA0000885831B85821A800885831B85821AD21C
:104AB000AFD082D083D0E0F8D0E0327404800674A6
:104AC0000280027401C0E0F404124885D0E012476D
:104AD0005B227404800474028000CCC0E0EDC0E06E
:104AE000E51AC39CCCAD1B50011D10AF068C1A8D6E
:104AF0001B80068C1A8D1BD2AF124768D0E0FDD008
:104B0000E0FC22D083D082E9C0E0E493A3C386F026
:104B1000C5F095F0F908E493A386F0C5F095F07020
:104B20000BE493A3C3994005E9048002A3E475F064
:104B300002A42582F582E5F03583F583D0E0F9E41F
:104B400093A3C0E0E493C0E022D083D082ECC0E025
:104B5000EDC0E0E493A3FCE493A3FDED4C600D12E3
:104B60004B95EC24FFFCED34FFFD80EFE493A3FCB8
:104B7000E493A3FDED4C600D124BD4EC24FFFCED4F
:104B800034FFFD80EFD0E0FDD0E0FCE493A3C0E073
:104B9000E493C0E022C0E0C3E493960874019396C6
:104BA00018400FE49366700808740193661870004B
:104BB0007019A3A3C3E49396087401939618A3A352
:104BC000400DD0E0D0E0D0E0024B85A3A3A3A3A387
:104BD000A3D0E022C0E0C0F088F0E493667008083B
:104BE00074019366187000A8F0A3A3700BD0F0D0E6
:104BF000E0D0E0D0E0024B85A3A3D0F0D0E022FFCC
:104C0000C2AF02000022C0E074F2124A04A2AFE474
:104C100033FED2AFE589A2E35003125D89758900A6
:104C2000C2C5751C00EEA2E092AF7F01024A63C0CC
:104C3000E074F2124A04A2AFE433FED2AFE58AA2D6
:104C4000E25003125D89758A00C2EB80D5C0E0C0D6
:104C5000D0E8C0E0E9C0E0E5A8D2AFC2C7751C004B
:104C6000A2E7A2E792AFD0E0F9D0E0F8D0D0D0E050
:104C70003274F5124918EAFEEBFFEE2434F8EF34F3
:104C800000F9880A890BEE2435F582EF3400F583AC
:104C9000E0F8EE2437F582EF3400F583E0F50CEC14
:104CA000850CF0A4FCAAF0850CF0EDA42AFDE82CFC
:104CB000F8E43DF97A257B001247CAEA850A828525
:104CC0000B83F0F8740758F97401B900028004C32B
:104CD00033D9FCFAE8131313541FF8EE28F8EF3415
:104CE00000F9E8245DF582E93400F583E05A6008B4
:104CF000EE2434F582EF802CEE2434F582EF34007C
:104D0000F583E0C0E0EE2436F582EF3400F583E071
:104D1000F5F0D0E084A8F0EE28F8EF3400F9E824AC
:104D200038F582E93400F583E0F97F040249C47460
:104D3000F5124918EAFEEBFFEE2434F582EF340059
:104D4000F583E0C0E0EE2435F582EF3400F583D042
:104D5000E0F08E828F83A3A3A3A3A3A3A3C082C0EA
:104D6000838E828F83A3A3A3A3A3E0F8A3E0F9D04B
:104D700083D082E0C398F50AA3E099F50BEE247F77
:104D8000F582EF3400F583E064017069EE2480F56C
:104D900082EF3400F583E0F8A3E0F98E828F83A3DD
:104DA000A3A3A3A3A3A3E0FCA3E0FD8E828F83A310
:104DB000A3A3A3A3E0FAA3E0FBC3EA9CEB9D5010DE
:104DC000C3EC98ED99402EC3EA98EB995027800EDA
:104DD000C3EA98EB994007C3EC98ED9940177C82A1
:104DE0007D0CEEFAEFFB1266C5EE247FF582EF3400
:104DF00000F583E4F0EE2434F8EF3400F9E8FCE940
:104E0000FDEE2435F582EF3400F583E0F8EE24372B
:104E1000F582EF3400F583E0F50CE50A850CF0A48B
:104E2000F50AAAF0850CF0E50BA42AF50BE8250A93
:104E3000F8E4350BF97A257B001247CAEA8C828D9B
:104E400083F0F8740758F97401B900028004C33381
:104E5000D9FCFAE8131313541FF8EE28F8EF3400C6
:104E6000F9E8245DF582E93400F583E05A6008EE44
:104E70002434F582EF802CEE2434F582EF3400F5F3
:104E800083E0C0E0EE2436F582EF3400F583E0F5F0
:104E9000F0D0E084A8F0EE28F8EF3400F9E82438E8
:104EA000F582E93400F583E0F9125AAB024D2AC0CD
:104EB00082C083851A82851B83E0F8A3E0F9C3EAE8
:104EC0009CEB9D5010C3EC98ED99401BC3EA98EB06
:104ED000995014800EC3EA98EB994007C3EC98ED03
:104EE000994004790180027900D083D08222EAC3FC
:104EF0009CFAEB9DFB2274EF124918900B48E0647A
:104F0000086005E06407702A9061C8E06024900B97
:104F100076E0F4601DE0F875F003A4C8AAF02AF961
:104F2000747828FE740B39FF8E828F83A3A3A3E0CD
:104F30007003025026906060E0C0E0EE2468F582C5
:104F4000EF3400F583D0E0F0750EEB750F0C750AA9
:104F500000750B00E5D914F50CE5D95403F5106084
:104F60001774036510605CE50C6010EE2467F58231
:104F7000EF3400F583E0700302500B900CE6E06420
:104F800001602AEE2482F582EF3400F583E06004AC
:104F9000780480027800850C0AE50AC398FA95E047
:104FA000FB12658D8A0A8B0BEA450B70051268C9E6
:104FB0008074EE2482F582EF3400F583E070048A79
:104FC0000E8B0FE50C6012850E82850F83F50DE5C3
:104FD000D9F0A3150DE50D70F6EE2482F582EF34BD
:104FE00000F583E0604474FC250CF50C780E124A41
:104FF000BFAC0CA910EEFAEFFB1267617402124805
:105000006BE97026AA0AAB0B125E49793D8E828F3E
:1050100083A3A3A3A3E0FA7B00126461EEFAEFFB83
:105020001266DD1267737900807474036510605630
:10503000850C127513007812124ABFAC0EAD0FAA80
:105040000AAB0B12673D740212486BEE2468F582BE
:10505000EF3400F583E064807004747F8001E0F534
:105060000E780E124AC3E510F50E780E124AC3A947
:105070000CAC0AAD0B900B76E0FA7B001264257441
:105080000212486B8013900B48E06408600BAC0E72
:10509000AD0FEEFAEFFB1267CD1268D579017F0AEA
:1050A0000249C474F512491874FC124855EAFEEB23
:1050B000FF890AA2AFE433F50BC2AF806AEE246326
:1050C000F8EF3400F97A007B00A2AFE433F50CC2AC
:1050D000AF88828983E0FCA3E0FDEC4D603A8882D2
:1050E0008983E0FAA3E0FB8A828B83E0FCA3E0FDE6
:1050F00088828983ECF0A3EDF08A828B83E4F0A3AD
:10510000F088828983E0FCA3E0FDEC4D700A888280
:105110008983A3A3E4F0A3F0E50CA2E092AF125EB2
:1051200049900C89E004F0EE2463F582EF3400F539
:1051300083E0F8A3E0F9E849603DEE2463F582EFEF
:105140003400F583E02402FAA3E03400FBEA2402F1
:10515000F50CEB3400F50D780C124ABF8A828B8374
:10516000E0FCA3E0F9EEFAEFFB12670174021248CB
:105170006BE970030250BD900C89E06063900C8A6B
:10518000E0F8900C89E0C398500C7402650A7050E6
:10519000900C8BE0604A8E828F83A3A3A3A3E0854B
:1051A0001A82851B83F0A3E4F0900C89E0F8740266
:1051B0001248A0E8F0A3E4F0900C89E0F8900C8885
:1051C000E028F074021248A0AC82AD83851A828573
:1051D0001B83AA82AB837901126431900C89E4F0BD
:1051E000E50BA2E092AF740412486B024D2AFFFF58
:1051F0008521878522C622C0E0C0D0E8C0E0E9C092
:10520000E0EAC0E0EBC0E0ECC0E0EDC0E0EEC0E002
:10521000C00AC00BC00CC00DC082C083C0F0A2AFDA
:10522000E433FEC2AF759B00906182E0A2E05012B1
:10523000E591A2E0500C7591FE7401652170031296
:105240004EF6E0A2E55051E591A2E5504B7591DF95
:10525000900B48E064076005E06408702374016502
:105260002170357901900B76E0FA75F003A4CAA895
:10527000F028FB74782AFA740B3BFB1250A38018B9
:10528000E0640D7013900B6AE004F064287002E48F
:10529000F07A00E0F91268DB906182E0A2E6400358
:1052A00002533EE591A2E6400302533E7591BF9042
:1052B0000B48E06405700812680312680F8003123F
:1052C0006809752100126869E9900B49F0790012AC
:1052D000685D12663B7A017B00900B47E0F9125B38
:1052E00013907803E064427055900CEAE014F0707B
:1052F0004DC2AF1252F600782AD0E0F618D0E0F690
:10530000E59F54077005750BFF8003750B7FC4C0C4
:10531000E07829E6F50A08E6550BF50B740B780AD8
:10532000124833D0E0250AF8906270E0A2E740F816
:10533000E8C333906272F0906270E0D2E0F0906166
:1053400081E0A2E35009E5E9A2E3500375E9F7A380
:10535000E0A2E75009E591A2E7500375917FEEA224
:10536000E092AFD0F0D083D082D00DD00CD00BD053
:105370000AD0E0FED0E0FDD0E0FCD0E0FBD0E0FAC7
:10538000D0E0F9D0E0F8D0D0D0E032C0E0C0D0C05A
:1053900082C083906183E0A2E05009E5BFA2E050A3
:1053A0000375BFFEE0A2E15009E5BFA2E15003751D
:1053B000BFFDE0A2E25009E5BFA2E2500375BFFBCA
:1053C000E0A2E35009E5BFA2E3500375BFF7E0A2F6
:1053D000E45009E5BFA2E4500375BFEFE0A2E55039
:1053E00009E5BFA2E5500375BFDFE0A2E65009E57D
:1053F000BFA2E6500375BFBFD083D0828088C0E0D3
:10540000C0D0E8C0E0E9C0E0EAC0E0EBC0E0ECC03A
:10541000E0EDC0E0C0F0E5A7A2E6500FE5A1A2E6EE
:10542000500953A7BF75A1BF125463E5A7A2E55069
:105430000CE5A1A2E5500653A7DF75A1DFE5A7A201
:10544000E15009E5A1A2E1500375A1FDE5A7A2E2A3
:10545000500CE5A1A2E2500653A7FB75A1FBD0F0CA
:1054600002537474F8124918752101900B48E064D6
:105470000670151267918A828B83A3A3A3A3A3A3AB
:10548000E0FAA3E0FB1267F1A2AFE433FED2AF90E3
:105490000B4EE0640170187A207B00900B47E0F916
:1054A000125BBB7A207B00900B47E0F9125B1990EE
:1054B0006182E0D2E6F0900CE7E0602185C62280B0
:1054C00016900B4DE064017008E5C654F84405F5EC
:1054D000C653BEFC1251F07401652160E4EEA2E0F7
:1054E00092AF7F010249C4FF8E238F2485822885D5
:1054F0008327851A82851B83E0CEA3E0CF8528828F
:10550000852783EBC9EAC8EDCBECCA75F010C3E878
:1055100033C8E933C9EA33CAEB33CBC3EA9EF52675
:10552000EB9FF525B35004AB25AA26EC33CCED3325
:10553000CDD5F0DAAE23AF242274E912491874F8FD
:10554000124855851A82851B83ECF0A3EDF08A0A78
:105550008B0B900B48E024F7C394055006750A01A5
:105560000256D01267918A0C8B0DAE0CAF0DEE4F28
:1055700070030256CDAC0AAD0B74021248A0AA8289
:10558000AB831268218E828F83A3A3750EFF750FE4
:10559000FF7510FF751100780E1246FF7402124855
:1055A000A07512FF7513FF7514FF751500781212A0
:1055B00046FF780E79121244AB502A780E791212F7
:1055C00046C4750A01750BC8750C00750D00780A84
:1055D000790E1244AB5052850E0A850F0B85100CC4
:1055E00085110D80507516017517C875180075194D
:1055F0000085120A85130B85140C85150D780A7920
:105600000E1246C47816790A1244AB401C750A0083
:10561000750B00750C00750D01780A79121246C4DD
:10562000780A790E12468B800C750A01750B00758D
:105630000C00750D007409780A12466C750E19F588
:105640000FF510F511780A790E12456A8E828F8354
:10565000A3A3A3A3A3A3E0F8A3E0F97AD07B03124A
:1056600047CA880E890FE4F510F511780A790E12F1
:10567000468B74061248A0E0F8A3E0F97AD07B03C9
:105680001247CAE8FA8A0EE4F50F780A790E124436
:10569000AB5007780A790E1246C4900B48E06408B4
:1056A000600AE064066005E06405702D750E0D78F3
:1056B0000E790A1244AB4021750EF4750FFF751078
:1056C000FF7511FF780A790E12468B800C750A005F
:1056D000750B00750C00750D00851A82851B83E023
:1056E000F8A3E0F5838882780A12473474081248D8
:1056F0006B7F100249C474F7124918126833900C7A
:10570000E5E064017010906245E4F0A3F053F4F317
:1057100043FE0C5390F31267DFE5C654804449F50D
:10572000C6E59E547F644970F8906185740FF090CF
:105730000CE3E0F47002A3E0604E900CE4E060083B
:1057400014601B14602E8040750A01750B00900CCC
:10575000E3E0780A124842E50AF45280802A750A8A
:1057600001750B00900CE3E0780A124842E50AF458
:1057700052908014750A01750B00900CE3E0780AD2
:10578000124842E50AF452A079007F020249C4742B
:10579000F7124918E9FEEAFF74016E700C7A807BFB
:1057A00000900B47E0F9125B13906AE4E493F46015
:1057B00008E493F912662F800953C680E59E547F52
:1057C00070FA1267E5900CE5E06401700312664719
:1057D000900CE3E0F47002A3E0604B900CE4E06016
:1057E0000814601A14602C803D750A01750B009036
:1057F0000CE3E0780A124842E50A42808028750AE4
:1058000001750B00900CE3E0780A124842E50A4269
:10581000908013750A01750B00900CE3E0780A1272
:105820004842E50A42A01268331267918A0A8B0B3C
:10583000A80AA90BE8496015E5E170FCE82414F515
:1058400082E93400F583E0F46003E0F5E174016F70
:10585000700A7A01900B47E0F9125B8502578A744F
:10586000ED1249188A0A8B0B8C0C8D0D741312489B
:10587000A0780E124725780A790E1244AB751201F2
:105880007513C87514007515005012780A790E1238
:1058900046C47812790A1244AB50168010780E79FB
:1058A0000A1246C47812790E1244AB400479018082
:1058B0000279007F0C0249C474ED1249188A0A8BE0
:1058C0000B8C0C8D0D74131248A0780E124725789E
:1058D0000E790A1244AB4011780A790E1246C4AA16
:1058E0000AAB0BAC0CAD0D80227512007513007560
:1058F00014007515017812790E1246C47812790ACF
:1059000012468BAA12AB13AC14AD1580A68A828BFB
:1059100083750AFF750BFF750CFF750D00780A1271
:1059200047127F040249C474F51249188C828D8392
:10593000780A1247258A828B83780A1246D8EA248D
:1059400004F8EB3400F98C828D83A3A3A3A3E0FCBD
:10595000A3E0FD88828983C3E09CF0A3E09DF088EA
:10596000828983C3E09420A3E0944E40268A828BF0
:1059700083750AFF750BFF750CFF750DFF780A1212
:1059800046B18A828B83A3A3A3A3E02420F0A3E0E3
:10599000344EF002590D74F5124918E9FE900C9D31
:1059A000E0FAA3E0FBEEC333F8E433F974B228F570
:1059B00082748039F583E02AF50AA3E03BF50B7881
:1059C0000A124ABF7A407B427C0F7D001254E87471
:1059D0000212486B8A0A8B0B8C0C8D0D7410780A9E
:1059E000124653AA0AAB0B7F040249C474F1124950
:1059F000188A0E8B0F8C108D11740F1248A0E0FACC
:105A0000A3E0FB74111248A0E0F50AA3E0F50B78BF
:105A10000A124ABFEA2401F50AEB3400F50BE4F55B
:105A20000CF50D780E790A1244EA750A71750B02AD
:105A3000780E790A1244EAAA0EAB0FAC10AD11121F
:105A400054E8740212486B8B0BEA450B60047A0130
:105A500080027A00EC2AFCED3400FD74131248A099
:105A6000E0F8A3E0F9E8FEE9FFECF8EDF97A717BE4
:105A7000021247CA880A890B8E828F83780A1247DE
:105A800034ECF8EDF97A717B021247CA8A0A8B0B63
:105A90007405780A1248428E828F83A3A3A3A3E5DC
:105AA0000AF0A3E50BF07F080249C4C082C083E975
:105AB000906000F0D083D082221244815EBD031238
:105AC000448168BD03124481A6BD03124481EFBD29
:105AD0000312448129BE0312448183BE0312448110
:105AE000A4BE03124481ADBE03124481FABE031268
:105AF000448123BF031244812DBF0312448199BF07
:105B0000031244812BC00312448175C003124481E7
:105B1000ABC00312448137C10312448178C1031220
:105B20004481AFC103124481C1C103124481E0C169
:105B300003124481E9C103124481B6C203124481B5
:105B400087D6031244817ED70312448198D703126B
:105B50004481A9D703124481C8D903124481E7D9EB
:105B6000031244810FFC0312448145FC031244815B
:105B70007BFC03124481C6FD03124481188D04127C
:105B800044812E8D04124481388D04124481828D0B
:105B900004124481348E041244812EDB03124481AA
:105BA00043DB03124481F3DB0312448133DC031231
:105BB00044814CDC0312448187DC03124481D4DC31
:105BC0000312448106DD0312448148DD031244813F
:105BD00049DF03124481E189041244810A8A0412D4
:105BE0004481398A04124481518A04124481938A7F
:105BF0000412448128E40312448158E403124481CE
:105C00006BE4031244819AE403124481B9E4031261
:105C1000448164E503124481FDE50312448186E674
:105C20000312448192E7031244818A8F0412448153
:105C3000EB8E04124481EBD10112448150D4011245
:105C40004481F1D501124481A5D60112448138D78F
:105C500001124481BDD701124481E2D7011244816F
:105C600038DB01124481BEDB01124481F1DC0112F8
:105C700044812BDD0112448160DD0112448120DF6B
:105C8000011244817DDF01124481C6DF011244818B
:105C900031E001124481A2E001124481D4E00112FA
:105CA0004481ECE00112448135E20112448145E275
:105CB0000112448160E30112448182E301124481B4
:105CC000B8E3011244816CE501124481F9E5011247
:105CD000448138E6011244815CE701124481ED8879
:105CE00004124481FD88041244818F890412448186
:105CF000B68904124481D68904124481418F04126A
:105D00004481808F04124481E6FF03124481F1FF35
:105D100003124481CA8F04124481BC8A0412448154
:105D2000CC8A04124481DE8A04124481908B0412CE
:105D30004481F3FE0212448178FF02124481DEFFA7
:105D400002124481CCF903124481F4F90312448114
:105D500024FA0312448183FA03124481D1FA031214
:105D600044810BFB031244813FFB031244819BFBE4
:105D7000031244819B8604124481C5860412448127
:105D80002887041244813A87041244818A870412C6
:105D90004481C88704124481CB8704124481B48FA4
:105DA00004124481C48F04124481C78F04124481B9
:105DB000F87F0012448142F503124481DDF603129C
:105DC00044813EF70312448184F7031244810BC8D7
:105DD0000312448145C80312448162C803124481FE
:105DE0003FC903124481C9C903124481B6CA0312D0
:105DF0004481EACB031244810FCC0312448178CC56
:105E000003124481D3CC0312448155B6031244815A
:105E100092B603124481ADB6031244817EB70312D9
:105E200044816CB80312448119BA031244818BBABD
:105E30000312448173BB03124481FABB03124481F1
:105E40001ABD031244819E8304124481F08304121C
:105E500044817A8404124481E1840412448187F7E6
:105E600003124481B1F7031244817FF80312448185
:105E70005AF903124481769F031244813DA0031214
:105E8000448174A0031244819EA003124481FEA0A9
:105E90000312448154A103124481B9A10312448125
:105EA00051A20312448160A303124481F7A4031298
:105EB000448184A503124481EBA50312448102A608
:105EC000031244811CA7031244815AA70312448180
:105ED000DDCA021244815ECE02124481E6CF021274
:105EE00044813DD0021244815CD002124481DAD058
:105EF0000212448170D20212448155D302124481AD
:105F000063D70212448139D8021244810080011201
:105F10004481118401124481DA87011244818A8903
:105F2000011244815E8A011244819E8A01124481D9
:105F3000A68C011244815B8D01124481898D01126E
:105F400044814A8E01124481798E01124481C98EA6
:105F500001124481FF8F01124481A09901124481F2
:105F6000FA9B01124481839D01124481FF9D01121D
:105F70004481179E01124481419E01124481729E08
:105F800001124481A29E01124481E39E01124481C8
:105F9000FB9F011244819DA00112448100FE031267
:105FA000448117FE0312448148FE0312448183FE9C
:105FB00003124481ADFE03124481D7FE03124481D3
:105FC000EEFE0312448105FF031244811CFF0312FD
:105FD000448145FF0312448158FF031244816EFF40
:105FE0000312448181FF03124481A8FF03124481FC
:105FF000D38C03124481D78D031244810F8E031278
:106000004481328E031244813D8E03124481608E9E
:10601000031244816F8F0312448144900312448120
:10602000BF9003124481479103124481829103126D
:106030004481B99103124481479203124481209311
:10604000031244818093031244818B930312448191
:106050000A94031244810D94031244811094031294
:1060600044819F9403124481A29403124481D294E8
:1060700003124481FC9403124481EA950312448183
:106080009C960312448121CD0312448149CD031211
:10609000448177CD03124481AECD031244810CCEEE
:1060A0000312448157CE03124481A2CE03124481CD
:1060B000E2CE0312448128CF0312448156CF03124B
:1060C000448113D0031244811DD0031244812AD08D
:1060D000031244815DD00312448129D1031244810B
:1060E00035D1031244814DD10312448157D103129B
:1060F0004481968B04124481A48B04124481BC8B8E
:1061000004124481D48B04124481519F02124481B1
:10611000FD9F0212448178A00212448199A10212CB
:106120004481D5A1021244817EA20212448165A35A
:1061300002124481C9A40212448120A502124481A2
:10614000A1A50212448191A602124481DEA6021288
:10615000448164A70212448196A702124481AAA92D
:1061600002124481ECA9021244810AAA021244815B
:106170008DAA0212448161AB0212448129AC021241
:10618000448132AF0312448105B003124481AEB0A2
:106190000312448101B103124481B1B1031244815D
:1061A0003DB20312448129B30312448158B3031250
:1061B00044816BB403124481B3B40312448188B5A3
:1061C00003124481C4B503124481E0B50312448133
:1061D000B08D04124481DDEB03124481F3EB031212
:1061E000448119EC0312448135ED031244813FEDE3
:1061F0000312448174EE031244816CEF0312448154
:10620000E4C20312448114C40312448147C403123C
:10621000448191C40312448158C603124481008012
:10622000021244816A8002124481C98102124481AF
:10623000D981021244810682021244815D820212D7
:1062400044810683021244810D8402124481D78462
:10625000021244813786021244817A8602124481F6
:106260001F87021244816C870212448192870212B6
:106270004481A08902124481A58902124481AA8B1B
:1062800002124481F78B021244816A8C021244810B
:106290009D8C021244813F8D02124481E88D0212CE
:1062A0004481208E02124481238E021244816B8E1F
:1062B00002124481AB8E02124481028F0212448189
:1062C0006FF20312448187F203124481CFF203126A
:1062D0004481E5F2031244812CF30312448140F41B
:1062E00003124481CDF40312448118F50312448152
:1062F000E2A001124481EEA00112448129A1011201
:1063000044816EA1011244812EA201124481B4A2E3
:106310000112448119A30112448145A30112448151
:106320007EA301124481BCA501124481A0A70112E1
:10633000448186A901124481C9AA0112448117AD82
:106340000112448129AE0112448174AF01124481CB
:1063500084B001124481A1B001124481DCB0011269
:106360004481FEB00112448161B10112448122B620
:1063700001124481B7B60112448108B70112448169
:106380002FB70112448181B7011244819FB70112D6
:106390004481F9B701124481F8B8011244817CB9F3
:1063A00001124481DED103124481E8D103124481F9
:1063B0002BD20312448146D203124481D6D2031257
:1063C0004481FED2031244813BD30312448172D331
:1063D000031244819BD30312448110D403124481DD
:1063E00025D4031244813AD4031244816BD403129E
:1063F00044817FD403124481A4D403124481DED4A7
:10640000031244810AD50312448142D50312448108
:10641000C1D5031244810AD60312448134D6031233
:1064200044815FD603124481D487041244810080E2
:10643000031244812E80031244817C810312448123
:106440005C82031244817B8203124481F88203122E
:1064500044813B8303124481918403124481528519
:1064600003124481D987031244817A88031244813C
:106470007089031244816D8A03124481C78B031211
:106480004481528C03124481408504124481A985C1
:1064900004124481FD85041244812486041244813F
:1064A000558604124481BBDF0312448128E00312A5
:1064B00044816FE00312448187E10312448183E247
:1064C0000312448166E3031244810D970312448151
:1064D0004F9703124481219803124481FA980312C2
:1064E0004481F49903124481D69A031244813F9B5C
:1064F00003124481F59B03124481699C0312448179
:10650000D59C03124481FE9C03124481789D0312A2
:106510004481119E03124481769E031244818B9E16
:1065200003124481D19E03124481EA9E03124481E6
:106530004F9F03124481529F0312448176EF03124E
:1065400044819EEF03124481DCEF031244819AF0F0
:106550000312448101F1031244811DF103124481AD
:1065600045F10312448175F10312448184F1031251
:10657000448101F20312448127F203124481EF8F18
:1065800002124481CD9102124481FF930212448190
:106590003B94021244816894021244815295021283
:1065A00044819D9502124481E89502124481FA9536
:1065B000021244813A96021244816F96021244817B
:1065C000BD9602124481EC96021244810F9702128A
:1065D00044815C9702124481E19702124481FB9945
:1065E000021244813A9C021244817B9C0212448133
:1065F0001D9E021244815E9E02124481D19E0212AF
:106600004481279F02124481B0E602124481AEE722
:106610000212448147EE0212448168F00212448162
:1066200033F2021244819BF302124481E3B9011256
:10663000448192BA01124481BFBA0112448105BB60
:106640000112448145BC01124481DBBD0112448129
:1066500055BE0112448170BE01124481EBBE01128D
:10666000448145C001124481A5C101124481ABC2DD
:10667000011244810CC40112448125C401124481D9
:1066800083C40112448171C501124481A4C5011261
:10669000448114C6011244818EC601124481D8C6B9
:1066A00001124481A2C70112448177C801124481BA
:1066B00056C901124481E1C9011244814FCA011235
:1066C0004481C3CA01124481EECA01124481ADCB98
:1066D0000112448112CD011244812FCD0112448157
:1066E0004ECD011244813FCE0112448164CE01128D
:1066F00044818ECE0112448109CF0112448163CFBF
:1067000001124481CCD0011244817AD1011244811A
:10671000BBD101124481DCD8021244812AD9021271
:10672000448136D90212448114DA0212448145DAD6
:106730000212448176DA02124481F6DA02124481AE
:106740002EDB0212448180DB02124481BDDB021287
:106750004481DADD0212448100E002124481EBE15F
:1067600002124481D5E302124481F7FF02124481F0
:1067700081E701124481B1E7011244818AEE0112DE
:1067800044810FF0011244810CF601124481F4F6A9
:106790000112448131F70112448154F701124481FE
:1067A00085F7011244818EF70112448198F7011296
:1067B000448186F8011244817CF901124481E86A1F
:1067C00000124481E76E00124481ED6E0012448194
:1067D000287600124481417B001244810FE80312A5
:1067E0004481A5E803124481BBE80312448131E9E6
:1067F00003124481A5E903124481E3E903124481B1
:1068000057EA03124481D0EA03124481D9EA031201
:106810004481E5EA03124481FAEA0312448138EB29
:10682000031244814EEB03124481ADEB0312448109
:1068300094FB01124481A1FB01124481BBFB0112B4
:106840004481FAFB0112448138FC011244819DFC11
:1068500001124481B2FC01124481BDFC0112448149
:10686000CAFC01124481E1FC01124481EFFC0112D7
:106870004481FAFC0112448106FD0112448115FD98
:106880000112448120FD0112448143FD0112448123
:10689000EAFD01124481FAFD0112448114FE011245
:1068A000448131FE011244814DFE0112448172FE89
:1068B000011244817DFE0112448192FE0112448145
:1068C000A6FE0112448107FF011244810DFF01124F
:1068D000448113FF0112448119FF0112448131FFE9
:1068E0000112448164FF01124481B3BC021244814D
:1068F00037BD02124481E6BD0212448145BF021237
:10690000448166C10212448152C20212448187C28C
:1069100002124481A9C20212448158C30212448166
:1069200050C50212448179C5021244810BC602127D
:1069300044813DC6021244814AC602124481A1C666
:1069400002124481C7C60212448134C90212448132
:1069500037CA021244818FCA0212448142AE021227
:1069600044814CAF0212448133B0021244813DB0E5
:10697000021244815FB0021244816BB00212448162
:1069800004B20212448133B2021244814FB30212A4
:106990004481A8B3021244810EB502124481EDB5C0
:1069A0000212448149B602124481B6B602124481F1
:1069B000F1B60212448130B702124481E9B90212E1
:1069C000448103BA021244818FBA021244819DBAF3
:1069D00002124481F6BA0212448104BB02124481BD
:1069E00077BB02124481DBBB0212448125BC021238
:1069F0004481C5F302124481E7F3021244810DF68B
:106A00000212448122F9021244813AFA02124481AC
:106A1000EDFA02124481CFFB02124481F981041283
:106A200044811E8204124481908204124481B8A7DA
:106A300003124481C1A703124481CAA703124481EF
:106A4000A1A80312448152AA0312448188AA031206
:106A50004481C2AA03124481F8AA0312448132ABD2
:106A60000312448166AB0312448192AB031244814A
:106A7000DBAB0312448115AC031244815EAC0312FC
:106A80004481B6AC03124481EBAC0312448146ADA1
:106A90000312448180AD03124481D1AD03124481BD
:106AA00007AE0312448141AE031244816FAE03125C
:106AB000448192AE031244816D8C04124481998CFE
:106AC00004124481F48C04124481FE8C041244812B
:106AD0000E8D04124481BAFF03124481E1FF01FFCD
:106AE000FFFFFFFFFFFFFFFF74F41248AC90780335
:106AF000E064427055900CEAE014F0704DC2AF12A1
:106B00006B0200782AD0E0F618D0E0F6E59F540733
:106B10007005750BFF8003750B7FC4C0E07829E614
:106B2000F50A08E6550BF50B740B780A124833D0BA
:106B3000E0250AF8906270E0A2E740F8E8C33390DD
:106B40006272F0906270E0D2E0F0900B76E0F47048
:106B500003026EE2E0F875F003A4C8AAF02AF97403
:106B60007828FE740B39FFEE2401F582EF3401F52D
:106B700083E0F8A3E0F9E849601EEE2401F582EF16
:106B80003401F583E0FAA3E0FBEE2400F582EF3454
:106B900001F583E0F9125B138E828F83A3A3A3A375
:106BA000A3A3A3E0F8A3E0F98E828F83A3A3A3A3FA
:106BB000A3E8F0A3E9F0906054E0900B4FF09060F0
:106BC00055E0900B50F0906056E0900B51F09060C3
:106BD00057E0900B52F0906058E0900B53F09060AB
:106BE00059E0900B54F090605AE0900B55F0906093
:106BF0005BE0900B56F090605CE0FC900B57F090DF
:106C0000605DE0FB900B58F090605EE0FD900B59EA
:106C1000F090605FE0FA900B5AF0900B55E08C0A10
:106C2000250AF8E43400F98D0AE8250AF8E9340069
:106C3000F98B0AE8250AF8E93400F98A0AE8250AF6
:106C4000FAE93400FBEE24F6F582EF3400F583E038
:106C50002AF0A3E03BF08C0AEE24F8F582EF340032
:106C6000F583E0250AF0A3E03400F0EE24FAF58283
:106C7000EF3400F583E02401F0A3E03400F0EE24CB
:106C8000FEF582EF3400F583E0F8A3E0F9E849600F
:106C900042906000E0C333FCE433FDE82CF582E968
:106CA0003DF583E02AF0A3E03BF0906000E0FA902D
:106CB0000B57E0FCEAC333FAE433FBE82AF8E93B7C
:106CC000F9E8244AF582E93400F583E02CF0A3E0EA
:106CD0003400F0900B55E07011900B58E0700BA34E
:106CE000E07007A3E07003026DDF8E828F83A3A3A1
:106CF000A3A3A3E0F8A3E0F9EE240DF582EF34009E
:106D0000F583E028F8A3E039F9EE240BF582EF349F
:106D100000F583E8F0A3E9F0EE240FF582EF3400EC
:106D2000F583E4F0EE241CF582EF3400F583E06493
:106D300001701EEE2420F582EF3400F583E0F8A305
:106D4000E0F9EE241DF582EF3400F583E8F0A3E9C5
:106D5000F0900B50E06052EE241CF582EF3400F509
:106D6000837401F0EE2469F582EF3400F583E0705E
:106D700038EE2473F582EF3400F583E0702BEE24B7
:106D80007FF582EF3400F583E0701EEE2420F5825B
:106D9000EF3400F583E0F8A3E0F9EE241DF582EF6F
:106DA0003400F583E8F0A3E9F0906062E07003023C
:106DB0006E928E828F83E0F8A3E0F9E82406FCE966
:106DC0003400FDE82402FAE93400FB1268158E82D3
:106DD0008F83E0F8A3E0C82412F582E8026E989051
:106DE0000B57E0603AEE240FF582EF3400F583E4B0
:106DF000F0EE241CF582EF3400F583E0640170406E
:106E0000EE2420F582EF3400F583E0F8A3E0F9EEFC
:106E1000241DF582EF3400F583E8F0A3E98020EE2D
:106E200024FCF582EF3400F583E02401F0A3E03484
:106E300000F0EE241DF582EF3400F583E4F0A3F0BA
:106E4000EE240BF582EF3400F583E0F8A3E0F98E31
:106E5000828F83A3A3A3A3A3E0687003A3E0696068
:106E600003026D51EE240FF582EF3400F583E060EC
:106E7000128E828F83A3A3A3A3A3E064057002A351
:106E8000E0600479088002793EEEFAEFFB1266E3D7
:106E90008050EE241DF582EF3400F583E4F0A3F07A
:106EA0009061C8E06006124EF6E970F48E828F831E
:106EB000A3A3A3E0602C9061C8E0700690606074AA
:106EC00080F0EEFAEFFB1267D3E9640160147902F7
:106ED000EEFAEFFB1250A31267C7E96401600312D8
:106EE00067737F0402497E53BFEF02447E74EC1245
:106EF00048AC900B76E0F875F003A4C8AAF02AF924
:106F0000747828FE740B39FF9061D0E07013EE2482
:106F100063F582EF3400F583E0F8A3E0F9E8496017
:106F20000FEE241DF582EF3400F583E4F0A38053C7
:106F3000EE2469F582EF3400F583E07047EE2473A8
:106F4000F582EF3400F583E0703AEE247FF582EFAE
:106F50003400F583E0702DEE241CF582EF3400F54B
:106F600083E06401701EEE2420F582EF3400F58387
:106F7000E0F8A3E0F9EE241DF582EF3400F583E894
:106F8000F0A3E9F08E828F83A3A3A3A3A3E0F8A3C9
:106F9000E0F9EE241DF582EF3400F583E028F8A334
:106FA000E039F9E8240108E93400F9EE2407F50C8A
:106FB000EF3400F50D850C82F583E8F0A3E9F0EEDF
:106FC000240BF582EF3400F583C3E098A3E09950D9
:106FD000358E828F83A3A3A3A3A3A3A3C082C08360
:106FE000EE240BF582EF3400F583E0F8A3E0F9D04E
:106FF00083D082E0C398F8A3E099F9C3E894AAE9A2
:1070000094105035803BEE240BF582EF3400F5836D
:10701000C082C0838E828F83A3A3A3A3A3A3A3E074
:10702000F8A3E0F9D083D082E0C398F8A3E099F9FF
:10703000C3E894ABE994105008900C8DE0640170A3
:1070400030EE241DF582EF3400F583E4F0A3F08EDA
:10705000828F83A3A3A3A3A3E02401F8A3E03400B9
:10706000F98E828F83A3A3A3A3A3A3A3E8F0A3E92C
:10707000F0EE2473F582EF3400F583E064016003E1
:107080000272E8EE2474F582EF3400F583124AD6DA
:107090008E828F83A3A3A3A3A3A3A3E0FCA3E0FDFD
:1070A0008E828F83A3A3A3A3A3E0FAA3E0FB124ED7
:1070B000AF740212486BE970030272E8EE2474F8B0
:1070C000EF3400F9880A890B8882F583E0F8A3E0A1
:1070D000F9850C82850D83E8F0A3E9F0EE2476FCB7
:1070E000EF3400FDEEFAEFFB1266EFEE247BF58243
:1070F000EF3400F583E0F8A3E0F9EE2420F582EF09
:107100003400F583E8F0A3E9F0EE241CF582EF34B7
:1071100000F583E4F0EE241DF582EF3400F583E4FE
:10712000F0A3F0EE240FF582EF3400F5837401F044
:10713000850C82850D83E0F8A3E0F9EE240DF5823D
:10714000EF3400F583E028F8A3E039F9EE240BF5DD
:1071500082EF3400F583E8F0A3E9F08E828F83A3F9
:10716000A3A3A3A3E0FCA3E0FD850A82850B83E033
:10717000FAA3E0FB124EEE8A0A8B0BEE242EF58268
:10718000EF3400F583E0FAA3E0FBE4F50CF50D8A9B
:107190000E8B0FF510F511780A790E1244EAEE24E1
:1071A00077F582EF3400F583E0F50EA3E0F50F7874
:1071B0000A790E12468BEE2479F582EF3400F583BE
:1071C000E06A7003A3E06B7044EE247DF582EF3437
:1071D00000F583E0F8A3E0F9EE2432F582EF340005
:1071E000F583E0687003A3E0697022EE247BF582EA
:1071F000EF3400F583E0F8A3E0F9EE2430F582EFF8
:107200003400F583E0687003A3E0696052EE247DEA
:10721000F582EF3400F583E0F50EA3E0F50F74047A
:10722000780E124833780E124ABFEE247BF582EFB7
:107230003400F583124AD6EE2479F582EF3400F556
:1072400083E0FCA3E0C313FDEC13FC8E828F83A3C9
:10725000A3A3A3E0FA7B00126467740412486BEEE8
:107260002476F582EF3400F583E0C0E0EE242BF5C0
:1072700082EF3400F583D0E0F0EE2479F582EF342C
:1072800000F583E0F8A3E0F9EE242EF582EF340058
:10729000F583E8F0A3E9F0EE247BF582EF3400F506
:1072A00083E0F8A3E0F9EE2430F582EF3400F583B3
:1072B000E8F0A3E9F0EE247DF582EF3400F583E0F9
:1072C000F8A3E0F9EE2432F582EF3400F583E8F01C
:1072D000A3E9F0EEFAEFFB1266F5EE2473F582EF08
:1072E0003400F583E4F08016EE242EF582EF3400AE
:1072F000F583E0F50AA3E0F50BE4F50CF50DEE24BB
:1073000018F582EF3400F583780A124496701EEE69
:10731000241FF582EF3400F583E0F8EE241DF5829A
:10732000EF3400F583E0687002A3E06039EE2412C8
:10733000F50EEF3400F50F780E124ABFEE2410F56B
:1073400082EF3400F583124AD6EE241DF582EF3425
:1073500000F583124AD6AA0AAB0BAC0CAD0D12593C
:10736000EC740612486BEE2418F582EF3400F583B6
:10737000780A124734EE241DF582EF3400F583E0DD
:10738000C0E0EE241FF582EF3400F583D0E0F0EE8C
:107390002412FCEF3400FD8E828F83E02402FAA3D6
:1073A000E03400FB125927906062E060147C147D89
:1073B000818E828F83E02402FAA3E03400FB12590D
:1073C000278E828F83E0F8A3E0F988828983A3A3C4
:1073D000E82408FCE93400FD74061247688E828FA9
:1073E00083E02402F8A3E03400F9E8FAE9FBEE2494
:1073F0001DF582EF3400F583E0F512A3E0F513E408
:10740000F514F515750E01F50FF510F511781279D3
:107410000E12468B7812790A1244EA8A828B83789C
:10742000121246B18A828B83750EFF750FFF75109D
:10743000FF780E124712900C87E06401600302751A
:1074400075790112685D8E828F83E0FAA3E0FB7587
:107450000AFF750BFF750CFF750DFFEA240EF58210
:10746000EB3400F583780A124734EA2412F8EB343F
:1074700000F9E8FAE9FBEE2412F582EF3400F58317
:10748000780A124725E50A75F0E2A4C50AA8F07546
:10749000F004A428F875F0E2E50BA428F50B8A8225
:1074A0008B83E0250AF0A3E0350BF0EE2416F5827D
:1074B000EF3400F583E0F50AA3E0F50B7404780AD5
:1074C000124833E50A2401F8E50B3400F98A828B6F
:1074D00083E028F0A3E039F0906062E08E828F8331
:1074E00070030275E9E0F8A3E0C82412F582E834DD
:1074F00000F583E02410F0A3E03401F0EE240FF552
:1075000082EF3400F583E06032EE242BF582EF3415
:1075100000F583E0F875F071A4C8AAF075F002A434
:107520002AF98E828F83E0FAA3E0CA2412F582EA58
:107530003400F583E028F0A3E039F08E828F83E0F9
:10754000F8A3E0C82414F582E83400F5837410F041
:107550008E828F83E0F8A3E0C82416F582E8340019
:10756000F5837477F0A37466F0EEFAEFFB124D2FFB
:107570007900027B3C750E50750F00751000780E77
:10758000790A1244AB4003027446EE241DF582EFE3
:107590003400F583E0F8A3E0F9E84960030274469B
:1075A000780A124ABBEEFAEFFB1266FB740412482B
:1075B0006BE964016003027446EE240FF582EF3438
:1075C00000F583E060128E828F83A3A3A3A3A3E0C0
:1075D00064057002A3E0600479088002793EEEFA47
:1075E000EFFB1266E379018089E0F8A3E0C824127A
:1075F000F582E83400F583E02410F8A3E034FFF9C5
:107600007A717B021247CA880A890BEE242EF58212
:10761000EF3400F583E0F8A3E0F9C3E50A98E50B41
:107620009950030274FC80B074EC1248ACEAFEEB93
:10763000FF8C828D83E0F8A385820A85830B603BF3
:10764000147003027810147003027B051470030297
:10765000788C24FD70030279A5147003027B3C141E
:1076600070030279FC24FE70030279AA14700302ED
:1076700079EC147003027A88027B2BEE2476F512E3
:10768000EF3400F513E0851282851383F0850A82BA
:10769000850B83A385820A85830BEE2477F510EF93
:1076A0003400F5117902AC0AAD0BAA10FB12670D7C
:1076B0008A0A8B0BEE2479F50EEF3400F50F790270
:1076C000AC0AAD0BAA0EFB12670D8A0A8B0B79026E
:1076D000AC0AAD0BEE247BFAEF3400FB12670D8A87
:1076E0000A8B0BEE247DF50CEF3400F50D7902AC1E
:1076F0000AAD0BAA0CFB12670D8A0A8B0B8512824E
:10770000851383E0C333F0851082851183E0F8A3ED
:10771000E0F9E8C333F8E933F9851082851183E88D
:10772000F0A3E9F0850E82850F83E0F8A3E0F9E885
:10773000C333F8E933F9850E82850F83E8F0A3E9B6
:10774000F0850C82850D83E0F50EA3E0F50F74043F
:10775000780E124842850C82850D83E50EF0A3E574
:107760000FF0EE2474F50CEF3400F50D7902AC0A3D
:10777000AD0BAA0CFB12670D850C82850D83C082B0
:10778000C0838E828F83A3A3A3A3A3E0F8A3E0F911
:10779000D083D082E0C398F8A3E099F9C3E894FFBE
:1077A000E9947F4003027866EE247DF582EF340091
:1077B000F583E0F50AA3E0F50BE4F50CF50DEE24F6
:1077C0007BF582EF3400F583E02401F50EA3E0346D
:1077D00000F50FE4F510F511EE2479F582EF340091
:1077E000F583E0F8A3E0F9E8C333F8E933F9881248
:1077F0008913E4F514F515780E79121244EA780A23
:10780000790E1244AB4004793B805DEE24738062B4
:10781000EE2480F50CEF3400F50D7402C0E079051C
:10782000AC0AAD0B7A827B0C12670DEAFCEBFDD043
:10783000E0F9AA0CAB0D12670D850C82850D83C093
:1078400082C0838E828F83A3A3A3A3A3E0F8A3E0C7
:10785000F9D083D082E0C398F8A3E099F9C3E89403
:10786000FFE9947F40097928EEFAEFFB027B26EED0
:10787000247FF582EF3400F5837401F0EE241DF5CA
:1078800082EF3400F583E4F0A30279F8EE24E1F509
:1078900082EF3400F583E07039EEF8EFF97A5B7B24
:1078A0000B8A828B83A3E0C0E0E824E2F582E9340E
:1078B00000F583D0E0F08A828B83A3AA82AB838811
:1078C000828983A3A882A983EA64637003EB640BB3
:1078D00070CFEE24E2F582EF3400F583E0A2E0EE13
:1078E000401124DDF582EF3400F583741AF0790D30
:1078F000027AFF2462F582EF3400F583E4F0EE248F
:1079000067F582EF3400F583E4F0EE24E0F582EFD2
:107910003400F5837401F07908AC0AAD0BEE249BBA
:10792000FAEF3400FB12670D8A0A8B0B7902AC0A5E
:10793000AD0BEE24A3FAEF3400FB12670D8A0A8B1D
:107940000BEE2493F50CEF3400F50D7908AC0AAD7D
:107950000BAA0CFB12670D8A0A8B0B7908AA0CABD9
:107960000D126713EE2487F50CEF3400F50D790442
:10797000AC0AAD0BAA0CFB12670D7904AA0CAB0D77
:10798000126713EE248BFAEF3400FB126725EE2406
:1079900083FAEF3400FB12672B900B4AE04480F02F
:1079A0007904027AFFEE24DE8045EE2462F582EF50
:1079B0003400F583E4F0EE2467F582EF3400F583BC
:1079C000E4F0EE24D2F582EF3400F583E4F0EE2407
:1079D000DCF582EF3400F5837401F0EE24D3F582F8
:1079E000EF3400F583E4F0790B027B39EE24DFF508
:1079F00082EF3400F5837401F0027B3CEEF8EFF97E
:107A00007A5B7B0B8A828B83A3E0C0E0E824E2F5FB
:107A100082E93400F583D0E0F08A828B83A3AA82C6
:107A2000AB8388828983A3A882A983EA64637003F5
:107A3000EB640B70CFEEF8EFF97A5B7B0B8A828BED
:107A400083A3E0FC850A82850B83E05CC0E0E82428
:107A5000E2F582E93400F583D0E0F0850A82850BF7
:107A600083A385820A85830B8A828B83A3AA82AB38
:107A70008388828983A3A882A983EA64637003EB65
:107A8000640B70B979098077EE24EAF582EF34004F
:107A9000F583E064017003027B2B850A82850B83EA
:107AA000E0C0E0EE24EDF582EF3400F583D0E0F0A5
:107AB000850A82850B83A385820A85830B7402C0A5
:107AC000E0F9AC0AAD0BEE24EEFAEF3400FB1267DE
:107AD0000DEAFCEBFDD0E0F9EE24F0FAEF3400FB08
:107AE00012670DEE24EAF582EF3400F5837401F09D
:107AF000EE24ECF582EF3400F583E0703F790CEE74
:107B0000FAEFFB8034EE24F4F8EF3400F9E08882D9
:107B10008983F0EE24F3F582EF3400F5837401F0ED
:107B200088828983E0F91266E38011EE24F5F582FC
:107B3000EF3400F583E8F079071266B37F0C024951
:107B40007E74F61248ACEAFEEBFF027D87EEFAEF98
:107B5000FB1266A7027FD3EE2469F582EF3400F5AD
:107B600083E06401703E900B52E07003027E63EE8E
:107B7000FAEFFB1266B9EE24A3F50AEF3400F50B19
:107B8000780A124ABFEE249BFCEF3400FD8E828FF0
:107B900083A3A3A3A3E0FA7B0012647374021248C8
:107BA0006B027D87EEFAEFFB12667D027FD3EE2437
:107BB00069F582EF3400F583E064017055900B5253
:107BC000E06031EE2482F582EF3400F5837401F039
:107BD000EE24D4F582EF3400F583E4F0A3F0A3F0B3
:107BE000A3F0EE24D8F582EF3400F583E4F0A3F09F
:107BF000A3F0A3F0EE24DEF582EF3400F583E06419
:107C0000016003027E637906EEFAEFFB1266BF02A3
:107C10007D87EE24D2F582EF3400F583E0640170B5
:107C20002AEEFAEFFB126683E964016003027FF03B
:107C3000EE24DEF582EF3400F583E4F0EE2469F5FE
:107C400082EF3400F5837401027FDEEE24D3F582E7
:107C5000EF3400F583E07003027FF0EE24B2F50A02
:107C6000EF3400F50B780A124ABFEE248BFCEF3498
:107C700000FDEE24C2FAEF3400FB126731740212E9
:107C8000486BEE24D2F582EF3400F5837401027D57
:107C90004FEE2469F582EF3400F583E06401600360
:107CA000027D52900B52E07003027E63EE2420F5B9
:107CB00082EF3400F583E0F8A3E0F9EE241DF582AD
:107CC000EF3400F583E8F0A3E9F0EEFAEFFB12667B
:107CD000B9EE2462F582EF3400F5837401F0EE24EE
:107CE00067F582EF3400F5837401F0EE24DCF58251
:107CF000EF3400F583E06401701379008E828F8386
:107D0000A3A3A3A3E0FA7B0012647F80137C017914
:107D1000008E828F83A3A3A3A3E0FA7B0012647971
:107D2000EE24DCF582EF3400F583E4F0EE24E0F598
:107D300082EF3400F583E4F0EE24DFF582EF3400C7
:107D4000F583E4F0EE24DEF582EF3400F583E4F011
:107D50008035EEFAEFFB126689027FD3EE2469F5D7
:107D600082EF3400F583E064016003027DF2EE24CB
:107D7000DFF582EF3400F583E064016003027E6387
:107D8000EEFAEFFB1266B9EE246EF582EF3400F5E1
:107D900083E07003027FF0EE246AF582EF3400F591
:107DA00083E024FE602F24FE7003027B57147003CF
:107DB000027BAE147003027C91147003027FE124F5
:107DC000FE7003027E9524FE6092147003027EE230
:107DD00014604C80B2EE2469F582EF3400F583E044
:107DE00064016003027B4D900B51E06076791602CE
:107DF0007FB4EEFAEFFB12668FE964016003027F45
:107E0000F0EE24DFF582EF3400F583E4F0EE248217
:107E1000F582EF3400F583E4F0EE2469027C85EE10
:107E20002469F582EF3400F583E06401705D900B06
:107E300052E06026EE2482F582EF3400F583E4F010
:107E4000EE2462F582EF3400F5837401F0EE2467CE
:107E5000F582EF3400F5837401F0900B51E060037C
:107E6000027D80EE2471F8EF3400F988828983E086
:107E700024FFF0A3E034FFF088828983E0F8A3E0D8
:107E8000F9E8496003027FF0027FB2EEFAEFFB12DD
:107E90006695027FD3EE2469F582EF3400F583E026
:107EA00064017034900B52E060B9EE24E1F582EF8A
:107EB0003400F5837401F0EE2420F582EF3400F5F0
:107EC00083E0F8A3E0F9EE241DF582EF3400F5839A
:107ED000E8F0A3E9F0027D80EEFAEFFB12669B0268
:107EE0007FD3EE2469F582EF3400F583E06401600E
:107EF00003027FBFEE24EAF582EF3400F583E064ED
:107F0000017051EE24EBF582EF3400F583E064015B
:107F10006003027D80EE24F0F582EF3400F58312D9
:107F20004AD6EE24EEF582EF3400F583124AD6EEFF
:107F300024EDF582EF3400F583E0FC8E828F83A37D
:107F4000A3A3A3E0FA7B00790012646D74041248C5
:107F50006B027D80EE2471F8EF3400F9888289830A
:107F6000E024FFF0A3E034FFF088828983E0F8A3E7
:107F7000E0F9E849707AEE24F0F582EF3400F583F9
:107F8000124AD6EE24EEF582EF3400F583124AD67B
:107F9000EE24EDF582EF3400F583E0FC8E828F83D2
:107FA000A3A3A3A3E0FA7B00792212646D740412E8
:107FB000486B7922EEFAEFFB1266E379018033EE2B
:107FC00024ECF582EF3400F5837401F0EEFAEFFB58
:107FD0001266A1EE2469F582EF3400F583E9F080A2
:107FE0000FEEFAEFFB1266ADE964017003027D80CB
:107FF00079007F0202497EFF851C87C2AF02447E62
:1080000074F61248AC74C4124855E99009E6F012AF
:108010005F4B9080A1C082742B1248A0AC82AD83CC
:10802000758380D082741112476874211248A0AA07
:1080300082AB8312659974231248A01283FC124804
:10804000A01283EFC0E0740D1248A0D0E012840AA1
:108050001248A01283EFC0E0740E1248A0D0E0F0E6
:1080600074221248A01283FC1248A01283EFC0E0D1
:10807000740F1248A0D0E012840A1248A01283EFB5
:10808000C0E074101248A0D0E0F074211248A0E0C3
:108090001284031248A01283EFC0E074111248A0AA
:1080A000D0E0F074211248A0E01284041248A0121B
:1080B00083EFC0E074121248A0D0E0F0750A067594
:1080C0000B00780A124ABF740F1248A0AC82AD832D
:1080D0007AC37B10125ABF740212486B780A124A94
:1080E000BF740F1248A0AC82AD837AE77B10125A9E
:1080F000BF740212486B7C067D007A1F7B00126001
:1081000083740C1248A07401F0741F1248A0E4F0AC
:10811000A3F0740B1248A07401F0741D1248A074EF
:1081200020F0A37403F0741B1248A074B0F0A37481
:1081300004F074191248A07404F0A3E4F074171248
:1081400048A07488F0A37413F0740C1248A0AC8299
:10815000AD8379017A057B03125ECD741F1248A0AE
:10816000AC82AD8379027A067B03125ECD7CB77D4B
:1081700010791B7A087B03125ECD7CD27D10790BBF
:108180007A077B03125ECD740B1248A0AC82AD83DC
:1081900079017A107B03125ECD741D1248A0AC8267
:1081A000AD8379027A117B03125ECD741B1248A055
:1081B000AC82AD8379027A127B03125ECD74191200
:1081C00048A0AC82AD8379027A137B03125ECD7432
:1081D000171248A0AC82AD8379027A147B03125E39
:1081E000CD7CDD7D107A1579001261FD7C407D1F0C
:1081F0007A067B001260837C407D1F7A077B001229
:1082000060837C407D1F7A087B001260837C407D08
:108210001F7A097B0012608374271248A01289819B
:10822000740A1248A07401F074091248A07401F095
:1082300074081248A0E4F074071248A07401F074A6
:10824000271248A0AC82AD8379047A087B04125CC3
:1082500033740A1248A0AC82AD8379017A007B04A2
:10826000125C3374091248A0AC82AD8379017A02A2
:108270007B04125C3374081248A0AC82AD83790190
:108280007A037B04125C3374071248A0AC82AD837E
:1082900079017A067B04125C33908196124743126F
:1082A00062039081961247431263119081961247A0
:1082B00043125DCB125BF1125E0774151248A07475
:1082C00003F0A3E4F074131248A07469F0A3E4F07F
:1082D00074151248A0AC82AD837A027904125DD77E
:1082E00074131248A0AC82AD837A027900125DD774
:1082F00074061248A0740AF0AC82AD837A01790149
:10830000125BFD9009E6E0F9125BDF75FDF675F38F
:108310000175FEFB75F40075FFFF75F500125F3304
:10832000125F87125F817AFB7B10125DD17A217B0D
:108330005F125BF7125C217AA67B04125F93125FD7
:108340008D79011264077A107B009009E6E0F9123A
:108350005B137A817950125D479081C6C082851A7D
:1083600082851B83AC82AD83758381D082740212B7
:108370004768851A82851B83AA82AB837902125DC6
:108380005374021248A0AA82AB837904125D4D7423
:10839000021248A0E0F4700974031248A0E0F460EF
:1083A0002674031248A0E0F974021248A0E0900974
:1083B000E9128C9574051248A0E0F974041248A0E3
:1083C000E09009EB128C95125F45851A82851B831C
:1083D000EAF0A3EB128A4C7A027904125DD77A0193
:1083E0007B009009E6E0F9125B13743C028EC1E554
:1083F0008228F582E5833400F583E022E0F50A1255
:10840000840322C4540FF8742B22F0E50A1284046A
:108410002274F41248AC74F7124855EAFEEBFF548C
:108420008060239009E6E0F9125AFB8A0A8B0BEA76
:10843000450B600A125F15AA0AAB0B125AE9EEFA55
:10844000EF64800287C9EEA2E040030284F4900A40
:1084500022E0703F7AF77B10125ED97A237B0A12F2
:108460005C51851A82851B837401F0AC82AD83F95F
:108470007A057B03125ECD90817E124AD27A027B0E
:10848000009009E6E0F9125BAF740412486B90812A
:108490007A802B6401703DC290C291C296C297C28D
:1084A000A0C2A1C281C282C284C285C286C2879094
:1084B000049674FFF0A3740FF0D293908156124A81
:1084C000D27A017B009009E6E0F9125BAF740412E6
:1084D000486B8014E064027015125F337A017B00F0
:1084E0009009E6E0F9125BBB900A22E004F0EE642A
:1084F00001028757541060557A81791D125D4774C7
:10850000011248A0E4128FF7125D65851A82851B5F
:1085100083AA82AB837901125D6B851A82851B83E6
:10852000E0543FF06004F9125F51900A21E07017A7
:108530009010F3124AD27A107B009009E6E0F9120B
:108540005BAF740412486BEE6410028757EE540858
:1085500060289009E7E06405701A125C039081B20C
:10856000124AD27A087B009009E6E0F9125BAF74F8
:108570000412486BEE6408028757EE54026028121A
:108580005F2790049DE06401701790817E124AD2AB
:108590007A027B009009E6E0F9125BAF740412489E
:1085A0006BEE6402028757EE54807003028641909E
:1085B0000A17E06403707F900A187401F0125B4997
:1085C0008A0A8B0B8C0C8D0D780A124ABB7406122A
:1085D00048A0AA82AB83125B4F740412486B7404E8
:1085E0001248A0E0F9C3940C400474F429F975F022
:1085F0000574031248A0E0849010F2F069700CE05A
:10860000640B7004740A8002E004F07A00125F398F
:10861000125F3F90817A124AD27A007B029009E67B
:10862000E0F9125BAF740412486B7A007B04900986
:10863000E6E0F9125BBB900A17E4F0EE6480028773
:1086400057EF5401600B125F3FEEFAEF64010287AF
:10865000C9EF540260277A007B019009E6E0F91225
:108660005BBB125F33900A19E4F09010F2740DF0C6
:10867000900A18E4F0EEFAEF64020287C9900A1B30
:10868000E014F50AEE54206061E0C3940750167AB6
:1086900000E0F9125F397A00900A1BE0F8740CC30D
:1086A00098F9125F397A01A90A125F397A01900AA2
:1086B0001BE0F8740DC398F9125F39900A1BE004AF
:1086C000F0C39408501990814E124AD27A207B0050
:1086D0009009E6E0F9125BAF740412486B8006E47F
:1086E000F0900A18F0EE6420806DEF5408605DE0B1
:1086F000C3940C500D7A00E0F9125F397A01A90A8F
:108700008016E0640C700D7A007900125F397A01EE
:10871000790B80047A017900125F39900A1BE0041A
:10872000F0C3940E50199081AE124AD27A007B08A1
:108730009009E6E0F9125BAF740412486B8006E41E
:10874000F0900A18F0EEFAEF6408807DEE54406075
:108750000A125F33EE6440FAEF806EEF5404602437
:10876000900A1AE06017900A187401F0FAF9125F83
:10877000577A207B009009E6E0F9125B13EEFAEFDE
:1087800064048045EF541060137A007B089009E67A
:10879000E0F9125B13EEFAEF6410802DEF542060C5
:1087A0002B125F5D900A1CE0C39403501790815A0E
:1087B000124AD27A007B209009E6E0F9125BAF748E
:1087C0000412486BEEFAEF6420FB80047A007B0011
:1087D000740912486B7F0402497E74F71248AC7426
:1087E000FC1248558A828B83E064C060030289339F
:1087F000A3A3A3E0FE7A81794A125D47740312486D
:10880000A0E4128FF7125D6574021248A0AA82AB31
:10881000837901125D6B74021248A0E0A2E0E43398
:10882000900A1AF0EEA2E0507A900A18E060030273
:108830008933900A1AE0A2E0501990814A124AD274
:108840007A007B049009E6E0F9125BAF74041248E9
:108850006B800C7A007B049009E6E0F9125BBB9018
:108860000A1AE06021900A17E070057402F0801C7B
:10887000640260030289367403F07A807B009009F9
:10888000E6E0F9125BBB900A17E060179081521284
:108890004AD27A807B009009E6E0F9125BAF74045B
:1088A00012486BEEA2E140030289337A81791D12EE
:1088B0005D47851A82851B83742AF074011248A0D3
:1088C000E4129D7D125D53851A82851B83741612F6
:1088D0008FF7125D6574011248A0AA82AB837901FB
:1088E000125D6B851A82851B83742DF0740112480A
:1088F000A0E4129D7D125D53851A82851B83742A24
:10890000F074011248A0129D7B125D53900A1D1253
:108910008981900A21F07A01F9125F399010F312DF
:108920004AD27A107B009009E6E0F9125BAF74043A
:1089300012486B028A54E06403600302888C900A38
:10894000187401F0FA7903125F57908186124AD2A7
:108950007A007B109009E6E0F9125BAF74041248CC
:108960006B7A807B009009E6E0F9125BBB7A007BB2
:10897000049009E6E0F9125BBB900A17E4F0028864
:10898000A3E4F0A3F0A3F0A3F02274F71248AC74B0
:10899000F2124855E9FE146010147003028A2A246A
:1089A000FD7003028A35028A4374081248A0AC8223
:1089B000AD837A047B03125ED374081248A0129D23
:1089C0005374091248A0E0C0E074011248A0D0E03E
:1089D000F0740A1248A0E0C0E074021248A0D0E08F
:1089E000F074041248A0E4F074031248A0E4F07498
:1089F0000D1248A0E0C0E074071248A0D0E0F07467
:108A00000C1248A0E0C0E074061248A0D0E0F07458
:108A10000B1248A0E0C0E074051248A0D0E0128A12
:108A20004C7A087900125C2780197A007900125C70
:108A3000ED7A0080097A017900125CED7A01790003
:108A4000125CE7EE9009E7F0740E800A1298A6AC6B
:108A500082AD8322740412486B7F0102497E74F751
:108A60001248ACE9FE74016E70219009E7E06405DC
:108A7000702A9081B2124AD27A087B009009E6E00F
:108A8000F9125BAF740412486B801174026E700CA3
:108A90007A087B009009E6E0F9125BBB80BB74F6B4
:108AA0001248AC74F812485590049DE064016003CC
:108AB000028C4B90049BE0F890049CE0C398400328
:108AC000028C4BE0FAE8C39AF895E0F9C3E8940603
:108AD0001298BCE0FE5003028B9C028B5F900494C2
:108AE00074FFF0A3128C55124ABF7C8E7D04740271
:108AF0001248A0AA82AB83125ABF740212486B7844
:108B00000A124ABF7C907D0474041248A0AA82AB6A
:108B100083125ABF740212486B780A124ABF7C92C1
:108B20007D0474061248A0AA82AB83125ABF740255
:108B300012486B780A124ABF7C947D04740812486C
:108B4000A0AA82AB83125ABF740212486B851A82A4
:108B5000851B83AC82AD837A087901125DD70E8EB6
:108B600082A88290049CE02405FAE43400FBE89A91
:108B7000E49BC365D0335020E8128C5F700D9009E0
:108B8000E1E0900494F0A3E4028AE474016E6003CF
:108B9000028ADD90049B80E9EA028C4FEE128C5F22
:108BA00070059009E1800874016E700C90049BE0E0
:108BB000900494F0A3E4800790049474FFF0A3124F
:108BC0008C55124ABF7C8E7D0474021248A0AA8282
:108BD000AB83125ABF740212486B780A124ABF7CE8
:108BE000907D0474041248A0AA82AB83125ABF7409
:108BF0000212486B780A124ABF7C927D04740612F6
:108C000048A0AA82AB83125ABF740212486B780A3A
:108C1000124ABF7C947D0474081248A0AA82AB83D8
:108C2000125ABF740212486B851A82851B83AC826C
:108C3000AD837A087901125DD70E90049B129928B2
:108C40005003028B9CE090049C800490049DE4F00F
:108C50007408028EC1F0750A02750B00780A22753D
:108C6000F006A4F8A9F0745F28F8740512989FE044
:108C7000FAA3E0FB90048E128C9AE0FAA3E0FB903A
:108C80000490128C9AA3A3E0F8A3E0F99004921246
:108C90008C94EE22E8F0A3E9F022EAF0A3EBF0884E
:108CA000828983A3A32274F41248AC74F11248554C
:108CB000E9146009146065146057028D56851A82A4
:108CC000851B83AA82AB837901125DDD851A8285BB
:108CD0001B8312991F9010B5128C94125F45740279
:108CE0001248A0EAF0A3EBF074021248A0AC82ADE7
:108CF000837A027904125DD7900A1CE4F090815ABD
:108D0000124AD27A007B209009E6E0F9125BAF802C
:108D1000407AE87B097903125DDD803A74041248D9
:108D2000A0AA82AB837902125DDD74041248A012FE
:108D30004743125B43125B498A0A8B0B8C0C8D0DE7
:108D4000780A124ABB740C1248A0AA82AB83125B49
:108D50004F740412486B740F0287D2C082C083D252
:108D600090D291D296D297D2A0D2A1D281D282D2E1
:108D700084D285D286D287900496E4F0A3F0C29381
:108D8000C280C294C29502A09674F21248AC750AD1
:108D900001750B00E9780A124842AE0AAF0B046A6B
:108DA0007011EEF4FCEFF4FD900496E05CF0A3E0AB
:108DB0005D8009900496E04EF0A3E04FF090049699
:108DC000129919EC4D7004C2938002D293E960703D
:108DD00014602014602414602814602C1460301473
:108DE000603414603814603C1460401460441460B3
:108DF000488052EAA2E09291804BEAA2E0929680EB
:108E000044EAA2E09297803DEAA2E092A08036EA8E
:108E1000A2E092A1802FEAA2E092818028EAA2E05B
:108E200092828021EAA2E09284801AEAA2E09285EE
:108E30008013EAA2E09286800CEAA2E09287800585
:108E4000EAA2E092907F0602497EC082C083900A27
:108E500019E0700474018001E4F0E0FA9010F2E08F
:108E6000F9125F39908152124AD27A007B0190093F
:108E7000E6E0F9125BAF02A09174F61248AC9009DB
:108E8000E912991F7583097582EBE0C398F50AA36F
:108E9000E099F50B7583097582EBC3E098A3E0991F
:108EA000500CE50A24A0F50AE50B340FF50B74030A
:108EB000780A124833E50A2403FAE50B3400FB80F4
:108EC0000312486B7F0202497EC082C08374FE1287
:108ED00048557A81791D125D47851A82851B8374F6
:108EE0002BF074011248A07440129D7D125D5385D1
:108EF0001A82851B83742B128FF7125D6574011221
:108F000048A0AA82AB837901125D6B74011248A05C
:108F1000E0A2E640DA851A82851B83740EF07401A4
:108F20001248A07402129DEFF9125D53851A8285D2
:108F30001B837409F074011248A07440129D7D12C5
:108F40005D53851A82851B837415F074011248A045
:108F500074FF129D7D125D53851A82851B837417E1
:108F6000F074011248A07411129D7D125D53851A90
:108F700082851B837418F074011248A07403129D3B
:108F80007D125D53851A82851B83742CF074011247
:108F900048A07408129D7D125D53851A82851B833B
:108FA000742DF074011248A07404129D7D125D535B
:108FB000851A82851B83742EF074011248A07404F4
:108FC000129D7D125D53851A82851B83742BF0746C
:108FD000011248A0741F129D7D125D53851A82856F
:108FE0001B83742AF074011248A0129D7B125D53FA
:108FF000740202A0937444F0AA82AB8379012274B4
:10900000E81248AC74EB12485574071248A0E912F4
:109010009992751200740B1248A01289817409127A
:1090200048A07488F0A374131298A6E4F074061292
:1090300048A0E4F074081248A07401F074031248C8
:10904000A0E4F07A81791D125D477AC07B00125B43
:109050006D74041248A0EAF0A3EBF07A407B001292
:109060005B6D74011248A0EAF0A3EBF07CC07D00B8
:10907000790074041248A012992E125AD77404125F
:1090800048A012991FE84960497CC07D00790074AE
:10909000041248A012992E125AD774081248A0AA96
:1090A00082AB837901125D6574041248A012992E77
:1090B00075F00674071248A0E0A4F9125D6B7407FE
:1090C0001248A0E0900498F0C39405500E79000275
:1090D0009895900498E4F0F90298957CC07D007909
:1090E000007A9F7B04125AD77E00804CEE75F00602
:1090F000A4F8A9F0749F28FA740439FB7404124888
:10910000A0E028F8A3E012989FE0FDA3E08A828BFC
:109110008312997E12990CE08A828B83A3A3129901
:109120007EA3A312990CA3A3E0F8EDF98A828B83A6
:10913000A3A3A3A3128C940E12992540AF7CC07DEB
:109140000079007A5F7B05125AD7750EC0750F0043
:10915000780E124ABF7C9F7D047A5F7B05125ABF4E
:10916000740212486B900498E090049BF090049C69
:10917000E4F090049EE0640170079009E1740180BE
:10918000079009E4E09009E1F090049EE4F0900477
:109190009D04F07A027B009009E6E0F9125B137EF1
:1091A000008048EE75F006A4F8A9F0749F28FA74C0
:1091B000043912994D124823129972EA2402F8EBED
:1091C0001298C7FCE9FD8C828D83129952124823B4
:1091D0008C828D83129976EA2404F8EB1298C7FAF0
:1091E000E912994D1248231299720E12992540B333
:1091F000740F1248A0AC82AD837583817582387478
:1092000006124768FE804F7F00EFC333F8E433F95E
:10921000EE75F006A4FAABF0749F2AFA74043BFBD7
:10922000EA28F582EB129916740F1248A0E58228FD
:10923000F8E58312989F12992EC3EC9AED9BA2D267
:1092400065D033500988828983ECF0A3EDF00FEFED
:10925000C3940340B40E12992540AC7C407D007944
:109260000074011248A012992E125AD77E00807CF9
:109270007F008E82A882EFC333FAE433FBE875F0F7
:1092800006A4FC85F00EAD0E749F2CFC74043DFD0D
:10929000EC2AFCED3BFD740F1248A0E5822AF58212
:1092A000E5833BF58312992E8D838C82E0C39AFA75
:1092B000A3E09BFBEA2401F50EEB3400F50F8C8252
:1092C0008D83129976E8C333FAE433FB74011248B4
:1092D000A0E02AFCA3E03B8C82F583E0250EF0A3FE
:1092E000E0350FF00FEFC39403408B0E1299255019
:1092F00003029270E0F51424FCFCE434FFFD7E00D0
:10930000805DE8C333F8E433F974011248A0E02823
:10931000F50EA3E039850E8212993412468B0F8F19
:1093200082A882EA2404F50EE43400F50FE8950ED5
:10933000E4950FC365D03340C990818A780E1247F7
:1093400025780A790E124604EAC333FAE433FB7433
:10935000011248A0E02AF8A3E03B88821299858E8A
:109360000EC3E50E9CE49D5008EEFF8E82AA82801B
:10937000AE7E00EC2EFF8016EFC333F8E433F974B1
:10938000011248A012990312993412468B0FEFC3B1
:10939000951440E48E0E7404C3950EF50E95E0F519
:1093A0000F1299421246048E0CEC250CF8ED12981F
:1093B000C7C333F8E933F974011248A012990312B4
:1093C0009985EEC3940440AB7E00804B8E82AA82C6
:1093D000EAC333F8E433F974011248A0E028FCA38F
:1093E000E0398C82129917900499E02A1298C57579
:1093F000F006A4F8AAF075F006E9A42AF99009DFAE
:10940000E0C333FAE433FB741F2AFA74063BFBEA29
:1094100028F582EB1298AEEEC3951440AF900499F4
:10942000E02514F07C807D0179007A9F7B07125A39
:10943000D77E009009DFE0C333FAE433FB802EE8E7
:109440001298CCA3A3A3A3A3A3C082C083E514282E
:10945000F582E515129916D083D082E0C39CFCA357
:10946000E09DFDE51628F582E5171298AE749F2A57
:10947000F51674073BF517741F2AF51474063BF5AF
:10948000158E82A882900499E024FFFCE434FFFD4D
:10949000C3E89CE49DA2D265D03340A3E024FEFE45
:1094A00080011EEE603575F006A4F8A9F0E51628D7
:1094B000FAE51739FBEA24FAF582EB34FF12995EDC
:1094C00040E0E51628F582E5173912995E50D38EF3
:1094D00082858212E5126003FC80010C7E00801DF3
:1094E000EE1298CCE0F50AA3E0F50B3395E0F50C0D
:1094F000F50D740B1248A0780A1246B10E9004992B
:1095000012992840DB740B1248A0780E1247259060
:109510000499E0F50AE4F50BF50CF50D780E790ADF
:10952000124604850E0A850F0BA80AA90B7A0A7B3E
:10953000001247C2880C890DC3E50A950CF50AE5AF
:109540000B950DF50B7E000295EA750C041298D36D
:10955000C3E0950AA3E0950BA2D265D0334007740F
:10956000031248A0E4F08518828519831298FE50F2
:1095700078850E82850F831298FE406D8510828556
:10958000118312991FC3E8950AE9950BA2D265D001
:1095900033505674091248A0E0C398F8A3E099F933
:1095A0001298B84044851A82851B83E0F8EAC39874
:1095B000F895E0F9C3E8950C1298BC402CE0600FD8
:1095C0001298B8502474031248A0E0A2E0401A7424
:1095D000061248A0E004F074012E851A82851B83D0
:1095E000F074031248A07401F00E8E0CEC24FFF806
:1095F000E434FFF9C3E50C98E49940030296828EA7
:1096000082AA82EA75F006A4F885F00CA90CE5148C
:1096100028F50CE51539F50DE50C2406F510E50DDA
:109620003400F511E51628F50CE51739F50DE50CB4
:109630002406F50EE50D3400F50FE51628F518E5BE
:109640001739F51985188212995E4024850E828596
:109650000F831299605019851082851183E0F50CF3
:10966000A3E0F50D74091248A0E50CF0A3E50DF098
:10967000851A82851B83E0600302954A750C0002FF
:10968000954D74061248A0E09009E5F0F874016861
:1096900070259009E4E0C39402403A9009E3E0C3E6
:1096A000940240317A027902125F579009E5E4F0A2
:1096B00090049E04F0801EE8C3940240189009E4D0
:1096C000E0C39402400F9009E3E0640170077A025E
:1096D0007902125F579009E4E0FAC39402402DA387
:1096E000E0FC9009E3E0FB8C0A250A1298C594037C
:1096F000E99400C365D033500A74026B60057402AC
:109700006C7009EAC333FA7902125F579009E3E0FB
:109710009009E2F09009E4E09009E3F09009E5E0B7
:109720009009E4F0A3E4F07CC0FDF97A1F7B0912F4
:109730005AD790049AE4F0900499E0F50AE51224CF
:10974000011298C5950AE9940040030298289009EF
:10975000DFE0C333F8E433F9741F28FC740939FDE2
:10976000741F28FA740639FBE50AC39512F895E0D0
:10977000F9E824FF18E934FFF9C3E89420E99400DC
:109780007E00404E8E82A882900499E0281298DED6
:10979000F50AEB350BF50BE50A2440F582E50B34B1
:1097A000FFF583E0F50AA3E0F50BE875F006A4F8F1
:1097B00085F00CA90CEC28F582ED39F583E50AF06B
:1097C000A3E50BF00EEEC3942040B990049A7420E8
:1097D0008055803BE512250A1298DEF582EB350BA9
:1097E000F583A3A3A3A3A3A3E0F50CA3E0F50DEEDB
:1097F00075F006A4F50A85F00EE50EF50BEC250ACA
:10980000F582ED350BF583E50CF0A3E50DF00E8E3A
:109810008285820AC3E50A98E49940B8900499E0E9
:10982000C395121490049AF07C807D0179007A1F10
:109830007B06125AD7900499E4F07CC0FDF97A9F18
:109840007B04125AD7900498E4F090049AE075F0E3
:1098500006A4F50AE5F0F50B780A124ABF7C1F7DD5
:10986000097A1F7B06125ABF740212486B90049A41
:10987000E0900499F09009DFE09009E0F0740412A0
:1098800048A012992E125B7374011248A012992EEF
:10989000125B737901741512486B7F1002497E398F
:1098A000F98882898322F0851A82851B832239F503
:1098B00083ECF0A3EDF00E22C3E89410E99400A22B
:1098C000D265D03322F8E43400F9E82275F006A41A
:1098D000F8A9F0E51428F582E51539F58322F50A93
:1098E000E43400F50BE50A75F006A4F50A85F00CE2
:1098F00075F006E50BA4250CF50BEA250A22C31228
:10990000996822E028FAA3E0398A8222E0FD888261
:109910008983A3A3A32239F583E0FCA3E0FD22E021
:10992000F8A3E0F922900498E0F8EEC39822E0FA58
:10993000A3E0FB22F583E0F50EA3E0F50F331299C7
:10994000422295E0F510F511780A790E22FB8A8201
:109950008B83E0F50EA3E0F50F7406780E22F583F5
:10996000C3E0940112996822A3E09400A2D265D0CA
:1099700033228A828B83E50EF0A3E50FF022F0A359
:10998000ED128C9E22F583E50AF0A3E50B12999265
:109990000E22F0750A00750B00750C00750D002283
:1099A00074E81248AC74ED12485589188A1974FF8E
:1099B0002518FE125B498A0A8B0B8C0C8D0D780AD8
:1099C000124ABB74041248A0AA82AB83125B4F7484
:1099D0000412486B74026518700774011248A0E401
:1099E000F0851A82851B83E4F0EE75F00EA4F8A9C9
:1099F000F074ED28FE740939FFEE240BF516EF34F0
:109A000000F517EE2407F50CEF3400F50D851982EB
:109A100085820A850C82F583780E124725E50E456E
:109A20000F451045117032851A82851B83EEFCEFBD
:109A3000FD7407124768EEFAEFFB125B5B850C8240
:109A4000850D8312474F851682851783E50AF0A39B
:109A5000E4129BEEE518029BE88E828F83A3A3A3FA
:109A6000A3A312991F74051248A0E0687003A3E035
:109A70006970498E828F83A3A3A3A3E0F8740412B4
:109A800048A0E06870368E828F83A3A3A3E0F874A9
:109A9000031248A0E06870248E828F83A3E0F874DC
:109AA000011248A0E06870148E828F83A3A3E0F8AF
:109AB00074021248A0E0687003029BDA7A81795040
:109AC000125D479009ECE0C0E074071248A0D0E0B6
:109AD000F09009EBE0C0E074081248A0D0E0F085F7
