:020000040000FA
:0600000002011D021E9B1F
:03002B00021ABFF7
:03005300021F0E7B
:03007B00021A84E2
:10008300021D4FE5C754F84401F5C779012200006A
:100093000080FB120086B90003020107E47921788E
:1000A30008B800028004F709D8FCE479297802B87B
:1000B30000028004F709D8FCE490028178CC790926
:1000C3008002F0A3D8FCD9FA781A90014D7A01BACC
:1000D30000028007E493A3F608DAF9900B4CAA8296
:1000E300AB8390014E788179038015E493A3AC82AE
:1000F300AD838A828B83F0A3AA82AB838C828D83A8
:10010300D8E9D9E77582CB7583B7740312012F75CC
:100113008291758300740012012F75D00075813FA1
:10012300751881751902759F00020096C09FF59F8F
:10013300E473D09F22D083D082C09FE493C0E07445
:100143000193C0E0740293F59F2201FFFF1101990F
:10015300010F126404010264840100005484026AE2
:1001630084010000530B027E84010000540B028AB9
:1001730084030000A702028084010000550B01E8FC
:1001830003053F101A446F2053796E63000000008B
:1001930000000000000008415050205365742043C4
:1001A3006C6F636B000000001201004461746120F6
:1001B30048656164657200000000000012446174C8
:1001C3006120426F647900000000000000000264B7
:1001D300840100005784026A84010000850B0278C1
:1001E30084030000BF03028A84030000C703026C78
:1001F30084010000860B026A84010000970B0276DB
:1002030084020000CD03026C84010000980B026A93
:1002130084010000A90B027484030000AA0B028A64
:1002230084030000D103026C84010000AC0B026A5A
:1002330084010000BD0B027284030000D703028A0D
:1002430084030000DF03026C84010000BE0B000086
:10025300000000000000FF000130750302010600EA
:10026300000000000000000000000000000000008B
:100273000000000000000000000000FFFF060080F7
:100283000CE80305000A002C0101000100110941DB
:100293006464696E672041312D3030303030300571
:1002A300125000A000020A00020106050200230FFB
:1002B30018416464696E672041312D30303030302D
:1002C3003000000000001E0800002A08FF0000B4F0
:1002D300000028002800283075A000A000A000A07E
:1002E3000000080008E001F00010001000100010EA
:1002F300001000100050005000500010001000D0FB
:10030300070000000000000F000100050030750722
:10031300001000010081FF0000FF520A700A580A12
:10032300FF02020208025000A0000000E80302647A
:10033300840100005A84026A84010000220D0268CD
:1003430084010000A306026A84010000230D0270E9
:1003530084010000B906026A84010000240D0288AA
:1003630084010000BB06026A84010000250D028699
:1003730084080000BC06026A84010000260D028482
:1003830084010000270DFF0100FF200264840100A7
:10039300005D84026A840100008B0D0282840000E8
:1003A300000000028A84030000090728102810288F
:1003B300102810281028102810281028102810287A
:1003C3001028102810B612CE12B012120138ACC386
:1003D30002120138B6C302120138F7C30212013800
:1003E30040C4021201387AC402120138D0C4021286
:1003F3000138F1C402120138A0C702120138A9C79B
:1004030002120138FDC70212013826C80212013850
:1004130030C8021201389EC8021201382EC90212D6
:10042300013889C902120138B7C9021201383FCA1B
:10043300021201387ECA02120138B3CA021201380D
:10044300C5CA02120138E4CA02120138EDCA021207
:100453000138B4CB0212013801FA02120138F8FA5A
:100463000212013812FB0212013823FB0212013877
:1004730035FD0212013854FD0212013828A9031276
:1004830001385EA90312013892A903120138DFAAC9
:1004930003120138D0B503120138E6B5031201384F
:1004A300F0B5031201383AB6031201386CB70312E0
:1004B300013860F50212013873F50212013834F67F
:1004C3000212013873F60212013890F60212013853
:1004D300C9F60212013816F70212013848F7021260
:1004E30001387FF70212013888F902120138F4F952
:1004F3000212013864AE0312013887AE03120138C9
:10050300B6AE031201384EAF0312013866AF0312C1
:100513000138A8AF031201380A9C031201383A9C30
:10052300031201384D9C031201387C9C03120138DD
:10053300989C03120138449D03120138DD9D031278
:100543000138669E03120138F8B80312013823B844
:10055300031201388E84011201386C8601120138AE
:100563000B8801120138B68801120138368901124D
:100573000138BB8901120138E48901120138BF8DAA
:1005830001120138368E011201384D8F01120138E4
:10059300878F01120138C88F011201380F910112A0
:1005A3000138659101120138AE91011201381D9293
:1005B30001120138899201120138BA9201120138ED
:1005C300D29201120138EB9301120138FB9301120D
:1005D3000138B19501120138C89501120138FA9515
:1005E300011201389C970112013830980112013829
:1005F30014B50312013825B503120138C5B503122A
:10060300013879B803120138B8B80312013868B950
:10061300031201385BB3031201386BB303120138C1
:1006230083B30312013837B40312013859B20312EA
:100633000138DEB20312013842B303120138F1AFBD
:100643000312013825B00312013848B003120138F0
:10065300BCB0031201389BFE02120138C3FE021222
:10066300013837FF0212013851FF02120138A9FF86
:1006730002120138F2FF02120138F5FF02120138AB
:10068300BD8C03120138EA8C031201385C8D03120E
:100693000138718D03120138928E03120138158FC0
:1006A300031201388E8F03120138AD8F0312013804
:1006B300D08F031201380D900312013825900312D5
:1006C30001387B9003120138A18803120138B888DE
:1006D30003120138328903120138168A03120138D2
:1006E300ED8B03120138528C03120138A98C0312CB
:1006F3000138F87F00120138EEA6031201387EA8F4
:1007030003120138DFA80312013825A903120138A7
:10071300B9F002120138F3F00212013810F102129B
:100723000138B3F10212013815F20212013811F344
:100733000212013843F40212013868F4021201383C
:10074300B1F4021201381BF502120138CCAC0312CA
:1007530001381EAD0312013891AD03120138FEAD0D
:1007630003120138A7A403120138D1A403120138DC
:10077300A0A5031201387CA603120138E2CB0212B2
:100783000138AECC02120138EFCC0212013829CD68
:100793000212013887CD02120138DBCD0212013873
:1007A30039CE02120138CFCE02120138D7CF02124E
:1007B300013861D102120138FFD10212013866D229
:1007C3000212013879D2021201386DD302120138B4
:1007D300B6D30212013800800212013832830212AA
:1007E3000138C384021201381A8502120138378591
:1007F30002120138B7850212013833870212013819
:100803000288021201386F8B02120138598C0212CE
:1008130001386E9801120138B89B01120138A39C6C
:1008230001120138BE9D01120138049E01120138E4
:100833002C9F01120138AE9F01120138DFA0011273
:1008430001384BA30112013818A401120138BCA6C8
:100853000112013819AB0312013830AB031201380E
:100863005FAB0312013898AB03120138C0AB03121C
:100873000138EEAB0312013805AC031201381CAC8E
:100883000312013832AC0312013859AC0312013898
:100893006CAC0312013882AC0312013895AC03121D
:1008A3000138BAAC0312013800B102120138FFB1AA
:1008B3000212013834B20212013855B20212013861
:1008C30065B20212013886B20212013892B30212E3
:1008D30001385FB402120138D2B40212013858B59C
:1008E300021201389BB502120138D2B50212013847
:1008F30058B6021201382AB70212013888B7021219
:100903000138A0B7021201381AB8021201381DB813
:100913000212013820B802120138C7B80212013896
:10092300DFB8021201380FB9021201382FB90212CF
:1009330001381DBA02120138D3BA0212013811EC80
:100943000212013839EC0212013867EC0212013845
:100953009EEC0212013806ED021201384FED02122D
:1009630001389AED02120138D8ED0212013815EE62
:100973000212013843EE02120138EAEE0212013884
:10098300F4EE0212013801EF0212013834EF0212C1
:100993000138F6EF0212013802F0021201381AF0A0
:1009A3000212013824F0021201383DB40312013857
:1009B3004BB40312013863B4031201387BB403123E
:1009C300013890B7011201382EB801120138A6B8C8
:1009D30001120138BBB901120138F5B9011201380E
:1009E3009EBA0112013873BB01120138D7BC011240
:1009F30001382EBD01120138B5BD011201389CBE6C
:100A030001120138E9BE0112013877BF0112013822
:100A13009BBF0112013870C101120138B1C101122B
:100A23000138D3C10112013854C2011201383EC347
:100A33000112013804C40112013835DB02120138F6
:100A430007DC02120138B0DC02120138F3DC0212B7
:100A5300013880DD021201380CDE02120138EDDEAE
:100A6300021201381CDF0212013818E002120138A9
:100A730060E00212013862E102120138A6E10212BB
:100A83000138CCE10212013866B6031201389C9496
:100A930003120138B29403120138D89403120138B7
:100AA3000096031201380A96031201386397031262
:100AB300013863980312013841E20212013876E3E8
:100AC30002120138A9E302120138F3E302120138DA
:100AD300B1E50212013833A80112013896A80112B8
:100AE3000138DBA901120138EBA9011201380EAA62
:100AF3000112013859AA01120138FEAA0112013864
:100B0300F4AB01120138BEAC0112013836AE01124A
:100B1300013878AE0112013816AF0112013863AF04
:100B23000112013889AF0112013877B1011201387E
:100B33007CB1011201385DB301120138B1B3011266
:100B4300013813B4011201383BB401120138DFB488
:100B530001120138A1B501120138D2B501120138D1
:100B6300D5B5011201381DB6011201385FB6011265
:100B73000138C6B60112013851A20312013864A22A
:100B8300031201387DA203120138C8A203120138EF
:100B9300A3A30312013832A4031201387DA4031264
:100BA3000138A02500120138AC2500120138E525D3
:100BB300001201382A2600120138E12600120138FA
:100BC300672700120138932700120138CC2700123F
:100BD3000138E02900120138BC2B00120138A72D7F
:100BE30000120138DE2E001201383E3100120138A6
:100BF3002A32001201387033001201387D3400129A
:100C030001389A3400120138D23400120138EC341E
:100C130000120138543500120138EE390012013840
:100C23008F3A00120138E03A00120138073B0012F4
:100C33000138553B00120138733B00120138C73BA2
:100C430000120138CF3C00120138573D0012013821
:100C530067E70212013871E7021201383CE8021219
:100C6300013857E8021201387DE802120138C1E861
:100C730002120138F9E80212013822E9021201389E
:100C83009BE902120138B0E902120138C5E90212E8
:100C93000138FCE90212013810EA0212013841EA74
:100CA300021201387BEA02120138A7EA0212013864
:100CB300FDEA0212013851EB021201389AEB0212DB
:100CC3000138C4EB02120138E9EB02120138B0908B
:100CD300031201387A91031201385D92031201382D
:100CE300D39203120138159303120138429403126D
:100CF3000138EF8C02120138188D02120138318D40
:100D030002120138768E02120138548F0212013812
:100D1300738F0212013800900212013843900212BD
:100D230001389091021201382F9202120138AE94C9
:100D33000212013845950212013819960212013840
:100D4300FB9602120138679802120138FA980212D0
:100D5300013844B103120138ADB10312013801B2B5
:100D63000312013828B2031201380080031201383C
:100D73006D8003120138B88003120138AD8103126C
:100D83000138A982031201389383031201383EBB51
:100D93000212013880BB021201385ABC0212013818
:100DA30033BD021201382EBE021201380DBF0212EA
:100DB300013879BF0212013840C002120138ABC0BA
:100DC3000212013812C1021201383DC10212013868
:100DD300AEC10212013841C202120138AAC2021284
:100DE3000138BFC20212013807C30212013820C3FF
:100DF3000212013885C30212013888C30212013876
:100E0300579F031201387F9F03120138BD9F0312BE
:100E130001387BA003120138E6A00312013802A1B6
:100E2300031201382AA1031201385AA1031201380F
:100E330069A103120138E3A10312013809A20312C5
:100E43000138B7D40112013894D6011201388FD872
:100E53000112013862D901120138ADD901120138EA
:100E6300F8D9011201380ADA011201384ADA0112FB
:100E730001387FDA01120138CBDA01120138FADACC
:100E8300011201381DDB011201386ADB011201383E
:100E9300F3DB0112013800DE01120138EBDF01122E
:100EA30001382EE00112013893E101120138D4E137
:100EB3000112013847E20112013893E201120138AD
:100EC300BEE2011201387199021201389C99021293
:100ED300013883A002120138A7A20212013862A4CA
:100EE30002120138BFA502120138BE3D00120138BB
:100EF300553E00120138823E00120138C83E0012EE
:100F030001380740001201389E410012013818428F
:100F130000120138334200120138A842001201388E
:100F2300D74300120138324500120138344600120B
:100F33000138914700120138AA47001201380748C7
:100F430000120138E948001201381C490012013827
:100F53008C4900120138064A00120138554A001222
:100F63000138214B00120138264C00120138054D7F
:100F730000120138904D00120138FE4D0012013865
:100F8300724E001201389B4E001201385A4F001264
:100F93000138D45000120138F150001201381051B9
:100FA30000120138A15100120138C6510012013854
:100FB300EE5100120138695200120138C352001277
:100FC3000138175400120138D45400120138A755C0
:100FD30000120138E8E20112013838E30112013846
:100FE30044E30112013821E40112013851E40112F2
:100FF300013889E40112013808E50112013840E59E
:101003000112013892E501120138CFE501120138CE
:10101300F4E70112013820EA011201381BEC011236
:101023000138F6ED0112013879B9031201381A6C4F
:1010330000120138646C0012013843720012013847
:10104300C47300120138237A001201381E7B001288
:1010530001385B7B001201387E7B00120138C07BB4
:1010630000120138C97B00120138D37B001201380A
:10107300BF7C00120138B37D00120138D555001230
:1010830001384D60001201385360001201385F6768
:10109300001201386D9803120138039903120138C5
:1010A300199903120138939903120138E99903122C
:1010B3000138279A03120138849A03120138019BDD
:1010C300031201380A9B03120138169B03120138DD
:1010D300299B03120138659B031201387B9B031282
:1010E3000138DA9B031201385584031201386284F4
:1010F300031201387C8403120138BB8403120138C4
:10110300F984031201385E850312013873850312D3
:1011130001387E85031201388B8503120138A285BD
:1011230003120138B08503120138BB85031201385D
:10113300C78503120138D68503120138E1850312EE
:101143000138048603120138AD8603120138BD86C7
:1011530003120138D78603120138F48603120138CB
:101163001087031201383587031201383F870312B2
:101173000138538703120138728703120138D3876A
:1011830003120138D98703120138DF8703120138AC
:10119300E58703120138F18703120138248803120B
:1011A3000138BCF0011201383EF101120138E7F1B8
:1011B300011201382FF3011201383DF501120138F4
:1011C30023F60112013858F6011201387AF601129A
:1011D300013823F701120138F3F8011201381CF921
:1011E3000112013894F901120138C6F901120138CC
:1011F300D3F9011201381EFA0112013842FA011221
:10120300013893FC011201389DFD01120138F9FDEB
:101213000112013839C6011201384AC701120138D7
:101223002EC80112013838C8011201385AC80112F8
:10123300013866C8011201380ACA0112013837CAD7
:10124300011201384DCB01120138A2CB0112013832
:10125300F1CC01120138C6CD0112013822CE0112A0
:1012630001388DCE01120138C2CE0112013805CFEB
:1012730001120138CFD101120138E7D1011201382F
:1012830078D20112013886D201120138D3D2011269
:101293000138E1D2011201384DD301120138C8D30C
:1012A300011201381FD401120138E2A502120138DC
:1012B30004A60212013815A802120138D4AA021298
:1012C3000138FEAB02120138BCAC02120138A8ADE2
:1012D3000212013846FE011201386BFE0112013879
:1012E300E1FE0112013818D40212013821D402128E
:1012F30001382AD40212013802D502120138B3D6BA
:1013030002120138E3D6021201380ED70212013855
:101313003ED70212013869D7021201389DD7021253
:101323000138C9D7021201380CD80212013837D854
:10133300021201387ED802120138D3D802120138C2
:1013430015D9021201386FD9021201389AD9021243
:101353000138E9D90212013819DA0212013844DAE4
:101363000212013872DA0212013895DA02120138D8
:10137300EFB6031201381BB70312013848B7031243
:10138300013852B70312013862B703120138CB7F19
:1013930000120138C2B80312013822B9031201380E
:1013A3004AB903E066701008A3E066700A08A3E078
:1013B30066700408A3E06622C3E7960809E7960867
:1013C30009E7960809E79622C3E09608A3E0960882
:1013D300A3E09608A3E09622C008C3E096F50808A8
:1013E300A3E096420808A3E096420808A3E09645C6
:1013F300087001D3D00822080808EAC0E0EBC0E077
:1014030086F0E7A4FA180986F0E7A42AFA180986F1
:10141300F0E7A42AFA180986F0E7A42AFA1986F055
:10142300E7A4FBE5F02AFA190886F0E7A42BFBE50D
:10143300F03AFA190886F0E7A42BFBE5F03AFA181C
:10144300180986F0E7A4C5F02BFBE43AFA1908E77C
:10145300C5F0C6A426F6E5F03BFBE43AFA1886F09D
:10146300E7A4F6E5F00826F6E43B08F6E43A08F6C6
:10147300D0E0FBD0E0FA22E4CFC0E0E4CEC0E0E469
:10148300CDC0E0E4CCC0E075F020C3E633F608E657
:1014930033F608E633F608E633F6181818EC33FC8F
:1014A300ED33FDEE33FEEF33FFC3EC9709ED970900
:1014B300EE9709EF97191919400FFFEC97FC09ED07
:1014C30097FD09EE97FE191906D5F0BEECF709ED65
:1014D300F709EEF709EFF7191919D0E0FCD0E0FD91
:1014E300D0E0FED0E0FF226016080808C6C313C68A
:1014F30018C613C618C613C618C613C6D5E0EA2203
:101503007009080808226016181818C6C333C608DD
:10151300C633C608C633C608C633C6D5E0EA22E6D4
:1015230027F60809E637F60809E637F60809E63725
:10153300F622E026F608A3E036F608A3E036F6081E
:10154300A3E036F622E026F008A3E036F008A3E095
:1015530036F008A3E036F022C3E697F60809E697CB
:10156300F60809E697F60809E697F622C3E096F02F
:1015730008A3E096F008A3E096F008A3E096F02213
:10158300E056F608A3E056F608A3E056F608A3E0F3
:1015930056F622E056F008A3E056F008A3E056F012
:1015A30008A3E056F022E0F608A3E0F608A3E0F66D
:1015B30008A3E0F622E6F008A3E6F008A3E6F008A5
:1015C300A3E6F022E0FAA3E0FBA3E0FCA3E0FD2204
:1015D300EAF0A3EBF0A3ECF0A3EDF022CAC0E0E63F
:1015E300F0A308DAFAD0E0FA22CAC0E0E0A3C58289
:1015F300CCC582C583CDC583F0A3C582CCC582C5C6
:1016030083CDC583DAE6D0E0CA22C3E498F8E4992F
:10161300F912164E8026C3E49AFAE49BFBE920E70D
:10162300E912164EE498F8E499F922C3E498F8E431
:1016330099F912164EE498F8E499F9C3E49AFAE496
:101643009BFB22EB20E7CFE920E7E0B90010BB00CA
:1016530008E88AF084F8AAF022E4FBC8FA22EB70C7
:10166300227B10C833C8C933C9335007C39AC3DBBD
:10167300F280069A50012ADBEAC833F4C8C933F46E
:10168300C9FA2275F008E4C833C8C933C933C99A03
:10169300C99B5004C92AC93BD5F0ECFBC833F4C835
:1016A300E4C9FA22600D08C6A2E713C618C613C61A
:1016B300D5E0F322600C08C6C313C618C613C6D5FB
:1016C300E0F422700422600D18C6C333C608C63383
:1016D300C6D5E0F41822251810AF08F518400215F6
:1016E300198008F51840021519D2AF22C0D0251869
:1016F30010AF08F518500205198008F518500205B7
:1017030019D2AFD0D0222518F58210AF08F51840B2
:101713000215198008F51840021519D2AF851983EF
:10172300222518F582E43519F58322E4732518C5BB
:1017330082C0E0E51934FFC583C0E0E518C3958294
:1017430024F810AF088583198582188008858319CA
:10175300858218D2AFCEF0A3E520F0A37808E6087F
:10176300F0A3DEFAEFF0A3E58124FAF8E608F0A38C
:10177300E608F0A3E608F0A30808E608F0A3E608E5
:10178300F0A315811581D0E0FED0E0F81581158115
:101793001581E8C0E0EEC0E0222518C582C0E0E56F
:1017A3001934FFC583C0E0E518C3958224F910AF4F
:1017B300088583198582188008858319858218D244
:1017C300AFCEF0A3E520F0A37808E608F0A3DEFA95
:1017D300EFF0A3E58124FBF8E608F0A3E608F0A305
:1017E3000808E608F0A3E608F0A315811581D0E008
:1017F300FED0E0F815811581E8C0E0EEC0E0228557
:101803001983851882E0A3FEE0A3F5207808E0A3FE
:10181300F608DFFAE0A3FFE0A3C0E0E0A3C0E0E046
:10182300A3C0E0E0A3C0E0E0A3C0E010AF0885825E
:10183300188583198008858218858319D2AFD083D0
:10184300D082020135851983851882E0A3FEE0A3C7
:10185300F5207808E0A3F608DFFAE0A3FFE0A3C0D1
:10186300E0E0A3C0E0E0A3C0E0E0A3C0E010AF0865
:101873008582188583198008858218858319D2AFDC
:10188300D083D08222C0D02518C582C0E0E51934A8
:10189300FFC583C0E0E518C3958224F310AF088524
:1018A30083198582188008858319858218D2AFC869
:1018B300F0A3E9F0A3EAF0A3EBF0A37908E709F0BA
:1018C300A3D8FAECF0A3EDF0A3EEF0A3EFF0A3D0CE
:1018D300E0F0A3D0E0F0A3D0E0F0A3E520F0A3E58F
:1018E300F0F0A322851983851882E0C0E0A3E0F914
:1018F300A3E0FAA3E0FBA37808E0F608A3DFFAE08D
:10190300FCA3E0FDA3E0FEA3E0FFA3E0C0E0A3E0AF
:10191300C0E0A3E0F5D0A3E0F520A3E0A3F5F01029
:10192300AF088583198582188008858319858218F5
:10193300D2AFD082D083D0E0F8D0E03274048006F6
:10194300740280027401C0E0F404121709D0E0129B
:1019530015DF227404800474028000CCC0E0EDC063
:10196300E0E518C39CCCAD1950011D10AF068C18CF
:101973008D1980068C188D19D2AF1215ECD0E0FDAD
:10198300D0E0FC22D083D082E9C0E0E493A3C386F5
:10199300F0C5F095F0F908E493A386F0C5F095F04F
:1019A300700BE493A3C3994005E9048002A3E47593
:1019B300F002A42582F582E5F03583F583D0E0F9C2
:1019C300E493A3C0E0E493C0E022D083D082ECC0D0
:1019D300E0EDC0E0E493A3FCE493A3FDED4C600DC4
:1019E300121A19EC24FFFCED34FFFD80EFE493A3FE
:1019F300FCE493A3FDED4C600D121A58EC24FFFC9C
:101A0300ED34FFFD80EFD0E0FDD0E0FCE493A3C014
:101A1300E0E493C0E022C0E0C3E49396087401932A
:101A23009618400FE4936670080874019366187063
:101A3300007019A3A3C3E49396087401939618A3A3
:101A4300A3400DD0E0D0E0D0E0021A09A3A3A3A3E2
:101A5300A3A3D0E022C0E0C0F088F0E4936670084E
:101A63000874019366187000A8F0A3A3700BD0F05C
:101A7300D0E0D0E0D0E0021A09A3A3D0F0D0E02256
:101A8400C0E074F2121888A2AFE433FED2AFE58A44
:101A9400A2E2400CE58AA2E34006E58AA2E45003F0
:101AA40012066E758A00758A00758A00C2EB751A73
:101AB40000EEA2E092AF7F010218E7C0E0C0D0E8D8
:101AC400C0E0E5A8D2AFC2C7751A00A2E792AFD0B2
:101AD400E0F8D0D0D0E03274F512179CEAFEEBFFA8
:101AE400EE2434F8EF3400F988088909EE2435F53A
:101AF40082EF3400F583E0F8EE2437F582EF34000A
:101B0400F583E0F50AEC850AF0A4FCAAF0850AF056
:101B1400EDA42AFDE82CF8E43DF97A257B001216A1
:101B24004EEA850882850983F05407F87401B800E9
:101B3400028004C333D8FCC0E0E0131313541FF82D
:101B4400EE28F8EF3400F9E8245DF582E93400F575
:101B540083D0E0F8E0586008EE2434F582EF801E6C
:101B6400EE2436F582EF3400F583E0F5F0EA84A83C
:101B7400F0EE28F8EF3400F9E82438F582E934006F
:101B8400F583E0F97F0402184874F512179CEAFE05
:101B9400EBFFEE2434F582EF3400F583E0C0E0EE91
:101BA4002435F582EF3400F583D0E0F08E828F8304
:101BB400A3A3A3A3A3A3A3C082C0838E828F83A362
:101BC400A3A3A3A3E0F8A3E0F9D083D082E0C39851
:101BD400F508A3E099F509EE2480F582EF3400F5C9
:101BE40083E064017069EE2481F582EF3400F583AB
:101BF400E0F8A3E0F98E828F83A3A3A3A3A3A3A3F6
:101C0400E0FCA3E0FD8E828F83A3A3A3A3A3E0FA49
:101C1400A3E0FBC3EA9CEB9D5027C3EC98ED9940ED
:101C24002EC3EA98EB9950277CEE7D08EEFAEFFB81
:101C3400120F86EE2480F582EF3400F583E4F08001
:101C44000EC3EA98EB9940E0C3EC98ED9950D9EEB5
:101C54002434F8EF3400F9E8FCE9FDEE2435F5828C
:101C6400EF3400F583E0F8EE2437F582EF3400F525
:101C740083E0F50AE508850AF0A4F508AAF0850AC8
:101C8400F0E509A42AF509E82508F8E43509F97A04
:101C9400257B0012164EEA8C828D83F05407F8746B
:101CA40001B800028004C333D8FCC0E0E01313136E
:101CB400541FF8EE28F8EF3400F9E8245DF582E9C2
:101CC4003400F583D0E0F8E0586008EE2434F5825F
:101CD400EF801EEE2436F582EF3400F583E0F5F054
:101CE400EA84A8F0EE28F8EF3400F9E82438F58205
:101CF400E93400F583E0F9122589021B88C082C00B
:101D040083851882851983E0F8A3E0F9C3EA9CEB84
:101D14009D5012C3EC98ED994019C3EA98EB995081
:101D24001279018010C3EA98EB9940F5C3EC98ED61
:101D34009950EE7900D083D08222EAC39CFAEB9DBD
:101D4400FB2200008521878522C622C0E0C0D0E89E
:101D5400C0E0E9C0E0EAC0E0EBC0E0ECC0E0EDC008
:101D6400E0C008C009C00AC00BC082C083C0F075BF
:101D74009B00906182E0A2E64003021E2DE591A241
:101D8400E64003021E2D7591BF9007B3E064057011
:101D9400081210BE1210CA80031210C4752100125A
:101DA4001124E99007B4F07900121118120EFC7A8C
:101DB400017B009007B2E0F912042E907803E064EE
:101DC400426003021E76900950E014F06003021E84
:101DD40076C2AF121DDA00782AD0E0F618D0E0F609
:101DE400E59F5407F970059083E480039083C878D5
:101DF400081215A9E9C4C0E07829E65508F50808D1
:101E0400E65509F509740B78081216B7D0E02508D1
:101E1400F8906270E0A2E740F8E8C333906272F091
:101E2400906270E0D2E0F08049E0A2E55024E591B0
:101E3400A2E5501E7591DF9007B3E0640D70139016
:101E440007D5E004F064287002E4F07A00E0F912A7
:101E54001196906181E0A2E35009E5E9A2E3500301
:101E640075E9F7A3E0A2E75009E591A2E7500375ED
:101E7400917FD0F0D083D082D00BD00AD009D00883
:101E8400D0E0FDD0E0FCD0E0FBD0E0FAD0E0F9D027
:101E9400E0F8D0D0D0E032C0E0C0D0C082C083909F
:101EA4006183E0A2E05009E5BFA2E0500375BFFEE4
:101EB400E0A2E15009E5BFA2E1500375BFFDE0A235
:101EC400E25009E5BFA2E2500375BFFBE0A2E35074
:101ED40009E5BFA2E3500375BFF7E0A2E45009E5AA
:101EE400BFA2E4500375BFEFE0A2E55009E5BFA22D
:101EF400E5500375BFDFE0A2E65009E5BFA2E65056
:101F04000375BFBFD083D0828088C0E0C0D0E8C052
:101F1400E0E9C0E0EAC0E0EBC0E0ECC0E0EDC0E026
:101F2400C0F0E5A7A2E6500FE5A1A2E6500953A729
:101F3400BF75A1BF121F73E5A7A2E5500CE5A1A2CE
:101F4400E5500653A7DF75A1DFE5A7A2E15009E537
:101F5400A1A2E1500375A1FDE5A7A2E2500CE5A101
:101F6400A2E2500653A7FB75A1FBD0F0021E8474B5
:101F7400F812179C7521019007B3E06406701512DE
:101F840010528A828B83A3A3A3A3A3A3E0FAA3E0A2
:101F9400FB1210ACA2AFE433FED2AF9007B9E064F9
:101FA4000170187A207B009007B2E0F91204D67A07
:101FB400207B009007B2E0F9120434906182E0D2F1
:101FC400E6F090094FE0602185C62280169007B89C
:101FD400E064017008E5C654F84405F5C653BEFC38
:101FE400121D487401652160E4EEA2E092AF7F0106
:101FF400021848008E238F2485822885832785181C
:1020040082851983E0CEA3E0CF852882852783EBE0
:10201400C9EAC8EDCBECCA75F010C3E833C8E9339C
:10202400C9EA33CAEB33CBC3EA9EF526EB9FF52509
:10203400B35004AB25AA26EC33CCED33CDD5F0DA7E
:10204400AE23AF242274EB12179C74FA1216D98AA9
:10205400088B098C148D159007B3E024F7C39405FD
:10206400500690843C0221AB1210528A0A8B0BAEAC
:102074000AAF0BEE4F70030221A8AC08AD09851816
:1020840082851983AA82AB831210DC8E828F83A38C
:10209400A378081215A9908420780812158385184E
:1020A40082851983780C1215A9908420780C121556
:1020B400837808790C1213BB501F7808790C121519
:1020C4005B9083D878081213DB4047850810850994
:1020D40011850A12850B138041850C10850D11851D
:1020E4000E12850F137810790812155B9083D87837
:1020F400101213DB501C7510007511007512007559
:1021040013017810790C12155B78107908121522D6
:10211400800890843C78101215A97409781012155F
:10212400039083D078081215A97810790812147ACC
:102134008E828F83A3A3A3A3A3A3E0F8A3E0F97AD9
:10214400D07B0312164E88088909E4F50AF50B784A
:102154001079081215227404121724E0F8A3E0F988
:102164007AD07B0312164EE8FA8A08E4F50978104F
:1021740079081213BB50077810790812155B900781
:10218400B3E06408600AE064066005E06405701C5E
:102194009083F878101213DB501290840478101294
:1021A400153580089083E078101215A9851482856E
:1021B400158378101215B874061216EF7F0E0218E4
:1021C4004874F712179C1210EE90094DE0640170E8
:1021D40010906245E4F0A3F053F4F343FE0C5390E3
:1021E400F312109AE5C654804449F5C6E59E547F1F
:1021F400644970F8906185740FF090094BE0F470B5
:1022040002A3E0604E90094CE0600814601B146067
:102214002E804075080175090090094BE07808127A
:1022240016C6E508F45280802A75080175090090E5
:10223400094BE078081216C6E508F452908014752C
:10224400080175090090094BE078081216C6E508E4
:10225400F452A079007F0202184874F712179CE91F
:10226400FEEAFF74016E700C7A807B009007B2E086
:10227400F912042E902598E493F46008E493F9127B
:102284000EF0800953C680E59E547F70FA1210A0A8
:1022940090094DE064017003120F0890094BE0F4BB
:1022A4007002A3E0604B90094CE0600814601A14BB
:1022B400602C803D75080175090090094BE0780891
:1022C4001216C6E508428080287508017509009039
:1022D400094BE078081216C6E50842908013750889
:1022E4000175090090094BE078081216C6E508420A
:1022F400A01210EE1210528A088B09A808A909E846
:10230400496015E5E170FCE82414F582E93400F530
:1023140083E0F46003E0F5E174016F700A7A0190E0
:1023240007B2E0F91204A002225974F112179C8A30
:10233400088B098C0A8D0B740F121724780C121554
:10234400A99084207808121583908420780C1215A3
:10235400837808790C1213BB50157808790C121580
:102364005B9083D878081213DB40157901801378C9
:102374000C790812155B9083D8780C1213DB40EBB0
:1023840079007F0802184874ED12179C8A088B099B
:102394008C0A8D0B7413121724780C1215A99084CF
:1023A400207808121583908420780C121583780CF9
:1023B40079081213BB40117808790C12155BAA082E
:1023C400AB09AC0AAD0B80227510007511007512B3
:1023D400007513017810790C12155B7810790812C6
:1023E4001522AA10AB11AC12AD137F0C0218489041
:1023F400842078081215A98A828B8378081215968E
:102404007F0402184874F512179C8C828D83780817
:102414001215A98A828B83780812156FEA2404F8AE
:10242400EB3400F98C828D83A3A3A3A3E0FCA3E087
:10243400FD88828983C3E09CF0A3E09DF0888289B3
:1024440083C3E09420A3E0944E4022908400780853
:102454001215A98A828B8378081215488A828B8385
:10246400A3A3A3A3E02420F0A3E0344EF08080745F
:10247400F512179CE9FE900905E0FAA3E0FBEEC310
:1024840033F8E433F9748F28F582748239F583E0E4
:102494002AF508A3E03BF50978081219439084084B
:1024A4001215C7121FF874021216EF8A088B098CD2
:1024B4000A8D0B741078081214EAAA08AB097F0479
:1024C40002184874F112179C8A0C8B0D8C0E8D0F18
:1024D400740F121724E0FAA3E0FB7411121724E01E
:1024E400F508A3E0F5097413121724E0FEA3E0FF36
:1024F4007808121943EA2401F508EB3400F509E4DD
:10250400F50AF50B780C79081213FA908410780800
:102514001215A9780C79081213FAAA0CAB0DAC0E9B
:10252400AD0F121FF874021216EF8B09EA45096009
:10253400047A0180027A00EC2AFCED3400FDECF808
:10254400EDF97A717B0212164E88088909E4F50ABE
:10255400F50B8E828F8378081215B8ECF8EDF97AB2
:10256400717B0212164E8A088B09740578081216BC
:10257400C68E828F83A3A3A3A3E508F0A3E509F085
:102584007F08021848C082C083E9906000F0D083BD
:03259400D08222D0
:10259800FFFFFFFFFFFFFFFFC082C083E9900D8AA6
:1025A800F00227BF74F7121730E99006D1F07C09C2
:1025B8007D077AFF7BFF120C2C9006D274FFF0A3E4
:1025C800F0A3E4F0A3F07905120BBA9006D1E0F974
:1025D800120AE27A447B0C120E060234CD74F4120D
:1025E80017308A088B09EB548060309006D1E0F9E7
:1025F8001204168A0A8B0BAE0AAF0BEE4F60138ECD
:10260800828F83E064B07003120BCCEEFAEFFB12FA
:102618000404AA08E5096480FB80047A007B0002B0
:10262800278E74F212173074FC1216D9EAFEEBFFEB
:1026380074121217241239B4EE4F70030226CD74A7
:1026480002121724EEF0A3EF1229C9ECF0A3ED1241
:1026580029C9AA82AB83120ADCE9F50A706AE5087F
:10266800450960648E828F8312399AEE4F60567ADC
:10267800067B001204888A0C8B0DA80CA90DE8496A
:102688007005750A13804188828983E41226DAEE80
:10269800F0A3EF1239C5E508F0A3E509F09006D7D5
:1026A8001227619006D77005123477801B123465A3
:1026B8008003EAFCEBFD8C828D8312276170F38C1A
:1026C800828D8380E3750A02A90A74041216EF0248
:1026D8003BB4F0A312396BA32274F2121730890AA3
:1026E800E975F017A4FEAFF09006D6E4F09006D492
:1026F800122761600A12048E9006D4E4F0A3F0EE6B
:10270800FAEFFB1204888A088B09EA4509602FEE64
:10271800FCEFFD79001203EC9006D4E508F0A3E580
:1027280009F07B00800812274BE4F0A3F00BEBC301
:10273800950A40F2E50A9006D6F0790080027913EE
:10274800023BB4EB75F017A4F8A9F09006D4E02882
:10275800FAA3E0398A82F58322123109EA4B2274FE
:10276800F41217307900EAA2E0501B750881750948
:102778008378081219437C047D007A8C7B0D120B38
:10278800B474021216EF7F04021802C082C083904C
:1027980006D71227C6601C88828983A3A3E06A70C3
:1027A80003A3E06B8882898370E8A3A3A3A31231F3
:1027B8000580047A007B00D083D082020135123C68
:1027C8009AE8492274EE12173074FC1216D9EAFE00
:1027D800EBFF851882851983E4F0A3F0EE2402123A
:1027E8003457EE2405123972EE2404F50EEF122D3B
:1027F8007EE024FE603924FC604624FE605224FEFC
:10280800605E24FE70030228DF24FE700302294361
:1028180024FE700302295224FE700302296124FC5D
:10282800700302297024FE700302297F0229BC90DC
:1028380006F07417F0A3E41229D112085A0229BC31
:10284800851882851983AC82AD83120BD202298C3C
:10285800851882851983AC82AD83120BD802298C26
:10286800850C08850D097402121724AC82AD838586
:102878000882850983123105120B008A0C8B0DAC76
:102888000CAD0DEC4D603BE4F50CF50D780C121910
:1028980043750CF0750D06780C121943750CF1751B
:1028A8000D06780C121943740812172412195A12BB
:1028B8003CBE1216EFE9F50C700B1230FB120872D1
:1028C800800F750C018508828509831229BF12348F
:1028D80077850C0802298F7402121724AC82AD8305
:1028E800850C82850D83122ED0603C850C82850D67
:1028F80083A3A312195A7510F075110678101219CE
:10290800437510F1751106781012194374081217DF
:102918002412195A123CBE1216EFE9F509700B126F
:1029280030FB120878800F750901850C82850D83AC
:102938001229BF123477850908804C8518828519B9
:1029480083AC82AD83120BDE803A851882851983A9
:10295800AC82AD83120BE4802B851882851983AC79
:1029680082AD83120BEA801C851882851983AC829C
:10297800AD83120BF0800D851882851983AC82AD6A
:1029880083120BF6E9F508E50860298E828F83A388
:10299800E06414601F850E82850F83E09006F012B4
:1029A80029C9123C969006F1123477E508A312293A
:1029B800D1120854023366123C9A8518828519830D
:1029C80022F085188285198322F07CF07D06850A1D
:1029D80082850B831231092274EE12173074FC12AF
:1029E80016D98A0A8B0B8C0E8D0FEA2405F508EB95
:1029F8003400F5097C157D0079007AF07B06120316
:102A0800ECE5082402F50CE509123975851882856C
:102A180019838582108583117810121943850882DD
:102A2800850983A3A3A3A3122EC7121943E508247B
:102A380005F510E5093400F5117810121943850CD5
:102A480082850D8312321C120AFA74061216EF8A56
:102A5800108B11AE10AF11E50A2402F50AE50B122E
:102A6800345AEE4F7003022B9E80177402121724FB
:102A780012310588828983EAF0A3EBF09006F0E032
:102A880004F09006F0E0C394054003022B9EE4F5A1
:102A980010F51178101219437510D97511067810B0
:102AA8001219437510DA7511067810121943740655
:102AB80012172412195A7910EEFCEFFD123CC012BD
:102AC80016EFE9705E850882850983A3A3A3A3A3F3
:102AD800A3A3E0F89006D9E0687048122EC712192F
:102AE800437CDA7D06E5082408FAE5093400FB1280
:102AF80003E674021216EFE960298E828F83A3A37E
:102B0800A3A31231059006F0E0F5107402781012B4
:102B180016C674F12510F58274063511F583EAF0AE
:102B2800A3EBF074021217248582108583117810A4
:102B3800121943740212172412195A850C82850D32
:102B48008312312B1216EF8A108B11AE10AF119031
:102B580006F0E0F510751100740278101216C674AC
:102B6800F02510F874063511F988828983A3122795
:102B7800617003022A6AE82403080808E93400F9A6
:102B8800EE4F6003022A738882898374FFF0A3F0F2
:102B98009006F0E004F09006F0E0600A1230FB12B4
:102BA80008667900800B85088285098312346E795E
:102BB8000A02336674EA12173074FE1216D98C12A0
:102BC8008D13EA2405F50CEB123CA812399E750802
:102BD80000750900EA2402F510EB3400F511851898
:102BE8008285198385820A85830B780A12194385A1
:102BF8000C82850D83A3A3A3A3122D94121943E578
:102C08000C2405F50AE50D12345A780A1219438581
:102C18000C82850D83122D98120AFA74061216EF8B
:102C28008A0A8B0BEA450B7003022D39EA2404F556
:102C38000EEB122D7E12399E8A828B83A3A3A3E00A
:102C4800F985108285118312310F6003022D39E452
:102C5800F514F51578141219437514D975150678F5
:102C6800141219437514DA75150678141219437479
:102C78000612172412195A7913AC0AAD0B85108263
:102C8800851183123CC61216EFE9F5096003022D7F
:102C9800399006D9E0F8E5087009E024029006F1B9
:102CA800F080149006F1E0FCE82402FAE43400FB1A
:102CB800EA6C7001EB707E850882AA82122EBE949F
:102CC80014122EB6506B850E82850F83E0C0E07417
:102CD800F22A122D75D0E0F00508850E82850F8343
:102CE800A3E0C0E085080A74F2250A122D75D0E029
:102CF800F005089006D9122D941219437CDA7D0646
:102D080085080A74F2250A122D881216EF9006D942
:102D1800E02508F50874FF6E700374FF6F6012EE0B
:102D280024010EEF3400FFE508C394145003022B6E
:102D3800E6E5086013123119851082851183123176
:102D48000512086C79008014E509700375090A8575
:102D58001282851383EEF0A3EFF0A909740212160C
:102D6800EF7F0E02180285080C74F2250CF58274A8
:102D7800063400F583223400F50F850E82F5832290
:102D8800FA74063400FB1203D47402221239D422D6
:102D9800A3A3122D9E22123465FDEEFAEFFB2274D6
:102DA800EE12173074FE1216D98C0E8D0FEA240518
:102DB800F50CEB123975750B009006F0E4F0F50A86
:102DC800EA2402F508EB3400F50980449006F0E0A7
:102DD800FA9006D9E0F8122EBE9417122EB6400DBE
:102DE8009006F0E0F87416C3989006D9F0122EC732
:102DF8001219437CDA7D0674F12AFA7406122D8BB7
:102E08001216EF9006D9E0F89006F0E028F0050ACF
:102E1800E50C2416F582E50D122D79E0F8E50AC3D4
:102E28009850749006F0E0C39416506BE50AC333CB
:102E3800F8E433F9E50C28FEE50D39FF851882859D
:102E48001983AC82AD838E828F83122ED070087561
:102E58000B0112346A8050E4F510F511781012193C
:102E6800437510D975110678101219437510DA7563
:102E780011067810121943740612172412195A7978
:102E880016850882850983123CC61216EFE9F50BF0
:102E98007003022DD480BB7CF07D068508828509ED
:102EA8008312310512087EA90B7402023368E99473
:102EB80000C365D03322EA28F8E43400F9E822E0B8
:102EC800F51075110078102212335D8A108B11AC41
:102ED80010AD11EC4D2274EA12173074FC1216D999
:102EE8008A0C8B0D8C128D13EA2405F50AEB12342B
:102EF8005A750800750900E50A2402F510E50B3437
:102F080000F511740212172485820E85830F780E3E
:102F1800121943850A82850B83A3A3A3A312397AC6
:102F2800121943E50A2405F50EE50B3400F50F7870
:102F38000E1219438510828511831234601230FFF6
:102F4800120AFA74061216EF8A0E8B0FAE0EAF0F26
:102F5800E50C2402F50EE50D3400F50F8038888263
:102F6800898374FFF00508122D6E74FFF005089030
:102F780006D9E0F50C750D00780C1219437CDA7D42
:102F88000685080C74F2250C122D881216EF90068F
:102F9800D9E02508F508EE4F60278E828F83A3A31A
:102FA800A3E0F9850E82850F8312310FEE240412F7
:102FB8003972E96027850C82850D831230F112344D
:102FC80077E50870030230D7123119850E82850F14
:102FD8008312310512088479000230ECE4F514F507
:102FE8001578141219437514D97515067814121921
:102FF800437514DA751506781412194374081217F4
:103008002412195A7911EEFCEFFD850E82850F8383
:10301800123CC61216EFE9F509709A850882AA8251
:10302800EA9006D97009E024049006F1F08025E0C2
:10303800F89006F1E0F514E82404FCE43400FDEC13
:1030480065147001ED7081122EBE9412122EB640D6
:1030580003022FD0850C82850D83E0C0E074F22A2C
:10306800122D75D0E0F00508850C82850D83A3E04C
:10307800C0E0122D6ED0E012313485820C85830DAC
:10308800780C121943740412172412195A851082E5
:1030980085118312312B1216EF8A0C8B0DAE0CAFF3
:1030A8000D85080C74F2250CF874063400F9EE4FFF
:1030B8007003022F66851882851983E088828983C8
:1030C800123134A3E0C0E0122D6ED0E0022F74E577
:1030D80009700375090A850A82850B831230F1127B
:1030E8003477A9097404022D66123C9A85128285E8
:1030F8001383227CF07D06850A82850B83123109B1
:1031080022E0FAA3E0FB22123109120AE8E9F509E4
:10311800229006F1E0F5F0E508849006F0F07CF0E6
:103128007D0622122D9E120B06740422F0050885D6
:1031380018828519832274EC12173074FE1216D97E
:103148008A088B098C0E8D0FEA2405FEEB3400FFEC
:10315800123347EE2418123972EA450B7003023114
:10316800EA123330502912320F8A108B11EA4511B6
:10317800606B7912AC0AAD0B850882850983123120
:103188000585108285118312172EE9F50A7058E417
:10319800F50AF50B780A1219438E828F83A3A3E0F0
:1031A800F50A780A121943EE2403123457780A12E2
:1031B80019438E828F8312321C120C1A740612164F
:1031C800EFE9F50A7021850C82850D83E0701F8573
:1031D800088285098312310512088A8011750A0E42
:1031E8008009750A018004E50A600312346A850CB7
:1031F80082850D83E0600479008002A90A740212B6
:1032080016EF7F0C0218028518828519831231097E
:10321800120C0822123465FD850882850983123153
:10322800092274EE12173074FE1216D98A088B0917
:103238008C0C8D0DEA2405FEEB3400FF750E001290
:103248003347EA450B700302330E123330502C1209
:10325800320F8A0E8B0FEA450F604A7912AC0AAD1D
:103268000B850882850983123105850E82850F83B7
:1032780012172EE9F50E60030233118508828509BD
:103288008312354CAA0AFB12332270147AFF7BFF93
:10329800123322606C88828983E50AF0A3E50BF07B
:1032A800750A008007750E0E805F050A9006D6E045
:1032B800FAE50AC39A504AE50A75F017A4FAABF082
:1032C80088828983A3A3E02AFAA3E03BFB8A828B46
:1032D80083123460EC4D70D2750A17750B00780AAA
:1032E800121943EEFCEFFD1203D474021216EFEE2E
:1032F800FCEFFD850882850983123105120890804C
:1033080014750E098003750E01123C92850C828596
:103318000D83123477A90E022EB1120BFC8A108B82
:1033280011A810A911E84922E5082402F508E509C1
:103338003400F5098A828B83A3A3A3E0A2E5228542
:103348001882851983AC82AD838E828F8312335D98
:103358008A0A8B0B22E0FAA3E0FB120B002274040A
:103368001216EF7F0A02180274EC1217308C108DB7
:1033780011EA2405F50CEB123975750F00EA2402E1
:10338800F50AEB12345A850A82F583123105123D8B
:103398004C700302344C750E008071850C82850DCB
:1033A80083E06401704F8E828F83A3A312195A8E13
:1033B800828F83A3A3A3A3E0F512751300781212DA
:1033C8001943EE2405F512EF3400F513781212199B
:1033D800431230FF120C1A74061216EFE9F50F604B
:1033E80014850C82850D83E4F0123C928510828549
:1033F80011831234777C177D007900EEFAEFFB1207
:1034080003EC8E828F83E4F0A3F0050E9006D6E0DD
:10341800F8E50EC398501EE50E75F017A4F8A9F04C
:10342800850882850983A3A3123CB2123460EC4D4F
:1034380060030233A385088285098374FFF0A3F033
:10344800E50F70061230FF120896A90F02320AF52E
:103458000AEF3400F50B22A3123465FD22E0FCA329
:10346800E0228E828F83123C9A850E82850F83E834
:10347800F0A3E9F022C082C0839006D2E06A70030C
:10348800A3E06B70067AD27B0680047A007B000288
:1034980027BF74F71217307F00EF75F003A4F8A95F
:1034A800F0EC28F8ED39F988828983E06A7003A383
:1034B800E06B7006E8FAE9FB800B0FEFC39402405B
:1034C800D87A007B007F0102180274F612173012B6
:1034D8003A8370067A007B008007A3A3A3A3123166
:1034E80005023B4474F2121730E9FE740E121724D9
:1034F80012354C74101217241239B48C828D83E063
:103508006402703BA3123C9688828983E0F50CA381
:10351800E0F9A80C74026870037429697021750CAD
:1035280002750D00780C1219437808121943780AAD
:10353800121943EEF9120C3E74061216EF80027946
:1035480001023BB4E0F50AA3E0F50B2274E8121778
:103558003074FB1216D9E9851882851983F08A160A
:103568008B178C0E8D0F741F1217241239B4742107
:1035780012172412354C742312172412399E751011
:10358800008C828D83A3A3A3E0A2E4502A741D12A9
:1035980017241232158A828B83E5824583700302D1
:1035A8003660790AAC0EAD0FAA16AB1712172EE9C2
:1035B800F5106003023663850E82850F83E064028E
:1035C8006003023919A3123C96850882850983A3F2
:1035D800858212858313E50E2406F50CE50F123952
:1035E8007588828983E0FAA3E0F9EA2400F514E4F7
:1035F80039F51578141219CD01000028012828364C
:1036080007000228FF3603286F36002929380129C8
:1036180051380229F837032929380429BA381939C1
:10362800EE4F703E850C82850D8312398FFAE9FBC7
:103638008A828B83E0850A82850B831239CB121923
:10364800438A828B83A3123465FDAA08AB0912034F
:10365800D474021216EF800375100EA910740502B7
:103668003CA075100B80F4EE4F70F7850A82850B2D
:10367800837401F01239A4850882850983F07C00DF
:103688007D00850E82850F83A3A3A3A3E02401FAFE
:10369800A3E03400FB120B00EA4B60418A828B8363
:1036A800E02402F8850A82850B83E028F0EA2404E6
:1036B800F8EB3400F988828983E0851282851383C8
:1036C8001239DD1239CB1219438A828B8312345F87
:1036D800E5082403FAE5093400FB023656850A8218
:1036E800850B83E02404F07C047D007900AA12ABEA
:1036F800131203EC023663EE4F600302366A123986
:10370800A4FEA3E0FF850A82850B837404F0EE858E
:103718000882850983F0EF851282851383F074038C
:10372800121724AC82AD83EEFAEFFB123A717003E4
:103738000237D58A828B83A3A312399A7401121790
:103748002485820E85830F780E121943740512178B
:103758002412195A7CFF7DFF120B0674041216EF0F
:103768008B0FEA450F7033850C82850D8312397AE9
:10377800121943850C82850D83A312195A7C027D88
:10378800007A667B8412093274041216EFE9700A13
:10379800740112172474FFF0A3F08E828F83E06403
:1037A800027034750C02750D00780C1219438E8264
:1037B8008F8312345FE5082404FAE509122D8B1271
:1037C80016EF850A82850B83E024028009740112B2
:1037D8001724EEF0A3EFF0740112172412398BF0BE
:1037E8007401121724A3123983A3A3A3F00236632A
:1037F800EE4F600302366A850C82850D83123460B1
:10380800AA16AB17120C32850A82850B837402F054
:10381800EA850882850983F0851282851383EB8007
:10382800CBEE4F600302366A1239A4F8A3E0F9859B
:103838000A82850B837402F0E8850882850983F083
:10384800E985128285138380A3850C82850D8312F6
:1038580031051203CEEAFC8C82A882C39EE49F4005
:103868004BE86E7001EF70047C00801F851882851C
:103878001983E0FAEE2AFAEF3400FBC3EA98EB94D6
:10388800005003E08004EECCC39CFCEC850A8285E2
:103898000B83F08C0A750B00780A121943850C8289
:1038A800850D83E02EFCA3E03F0236517510070218
:1038B8003663EE4F600302366A850C82850D8312EB
:1038C8003C96850A82850B837407F0888289831267
:1038D800398312396BE0851282851383F0E824025C
:1038E800FAE93400FB8A828B831239831239BC12BD
:1038F800398BA31239C5123994F0E82405F8E93454
:1039080000F988828983123994A31239DDA302371A
:10391800F1741D121724123A7C7003023660123CAF
:1039280096880C890DE8450D70030236608E108F5D
:10393800117810121943780A12194378081219439A
:103948007406121724E0F9AC0EAD0FAA16AB178552
:103958000C82850D8312172E74061216EFE9F510E6
:10396800023663F088828983A322F50CEF3400F5D0
:103978000D22E0F50E750F00780E22E0850882858D
:103988000983221239E422123C9AE8221239E4A36C
:10399800A322A3A3A3A3E0FEA3E0FF22850C8285B4
:1039A8000D83E0F8A3E0F5838882E022E0F508A320
:1039B800E0F50922A3A3F08A828B83A3221226DCD6
:1039C800A3A322F08A828B831239D422E0F50A75E8
:1039D8000B00780A2212396B1239E422E08508823A
:1039E800850983A3A32274EE12173074FE1216D928
:1039F8008A0A8B0BECFAEDFB7414121724E0F5100D
:103A0800A3E0F5117416121724E0FE741812172497
:103A1800E0F50EA3E0F50F851882851983AC82AD19
:103A280083123A71603E851882851983123A7C6048
:103A38002FA3A31239B4E50845096024780E12199A
:103A4800437810121943EEF9AC0CAD0DAA0AAB0B72
:103A580085088285098312172E74041216EF8006D2
:103A6800790E80027901022EB1120B008A0C8B0D9F
:103A7800EA450D22123109123A8322120BC68A82B4
:103A88008B83E58245832274F612173074FE121672
:103A9800D9740C12172412398F851882851983F06E
:103AA8007401121724E9F0E4F508F50978081219E9
:103AB8004375080278081219437404121724858282
:103AC800088583097808121943120C1A740612160D
:103AD800EF74021216EF806474F7121730EAFEEBE7
:103AE800FF89087C097D07120C32EA5402600BA991
:103AF80008EEFAEFFB120AF4800279010234CD7461
:103B0800F612173074FF6A700374FF6B701C7B0029
:103B1800EB75F003A4F8A9F0EC28F8ED39F9123B9D
:103B2800490BEBC39402501480E6120C028A088BEE
:103B380009A808A909E8496003123B497F0202184D
:103B4800028882898374FF1226DAE4F02274F6125E
:103B58001730120C028A828B83E58245836006A3A4
:103B6800A3E0FA80027A007B0080D174F212173049
:103B78008A088B09ECFEEDFF740E121724E0F50A93
:103B8800123BB9701CEEFCEFFD7AFF7BFF123BB9CC
:103B980070047911801688828983E508F0A3E50905
:103BA800F088828983A3A3E50AF079007F060218CA
:103BB80002120C028A0C8B0DA80CA90DE84922747C
:103BC800EE121730EAFEEBFF8C088D09890C74128F
:103BD800121724123C9674141217241234607416A7
:103BE800121724123105750D00EC4D6003023C8A52
:103BF8007402650C6003023C8588828983123465EF
:103C0800F9EC2400F50EE439F50FEAF4F8EBF4F9D1
:103C1800EC58F8E50F59F9E849705DE5082406F80D
:103C2800E5093400F9880A890B8882F583122D9AF0
:103C3800120C328A108B11E50E65107004E50F65C1
:103C4800116042780E121943850A82850B83122D62
:103C58009A120C3874021216EFE9F50D7027780ED7
:103C6800121943850882850983A3A3122D98120C83
:103C78004A74021216EF800D750D808008750D0DBF
:103C88008003750D0BA90D02336B8E828F83123C56
:103C98009A22E0F8A3E0F9221216EF7F1002180228
:103CA8003400F50D850C82F58322E028FEA3E03967
:103CB800FF8E828F83227916850A82850B831231C3
:103CC80009120C1474082274F2121730EAFEEBFF82
:103CD800890B7401650B600E7402650B70637901C2
:103CE800120E24E9705BEEFAEFFB123D4C6047754B
:103CF8000A00800B7C177D0079001203EC050A90FE
:103D080006D6E0F8E50AC3985021E50A75F017A42D
:103D1800F8A9F0850882850983A3A3E028FAA3E01F
:103D280039FB8A828B831227C670C9850882850968
:103D38008374FFF0A3F07C097D07EEFAEFFB120C09
:103D48002C023BB4120BFC8A088B09EA4509227441
:103D5800F21217308A088B09ECFEEDFF740E121769
:103D68002412354C900D8AE0F4603D7A097B0012EC
:103D780003FEEA4B60328A828B8374B1F0A3E412AB
:103D880039BEA31239BCA3E508F0A3E509123DB377
:103D9800EEF0A3EF123DB3A3A3E50AF0A3E50BF001
:103DA800900D8AE0F912040A023BB4F08A828B83F0
:103DB800A3A3A3A3A322C082C0839061907404F03C
:103DC800A37448F0A37402F09061807440F090618D
:103DD800BC7403F09061877419F0906265741BF0ED
:103DE80090619C740DF090619A7433F0A37455F04F
:103DF8009061A0743AF090094DE064017009C29195
:103E08009007B7746780059007B77461F090259E96
:103E1800E493906186F0902598E493F46027E49306
:103E2800540FF8906185E0686012E5C654804449F3
:103E3800F5C6E59E547F644970F8E8F053C680E5FE
:103E48009E547F70FA7905121178024000C082C032
:103E580083E9540FF9906185E0696012E5C65480E2
:103E68004449F5C6E59E547F644970F8E9F053C6A5
:103E780080E59E547F70FA024000C082C083E5A8A6
:103E8800F853A87E906181E4F0A3F0A3F0C2BA537E
:103E98009AFEC289759B00C2C275E90075910075CA
:103EA800BF0075A91175B905906181F0A374C0F0C0
:103EB800A3E4F0D2BA439A0174805842A8024000A1
:103EC800C082C08374F81216D99007B5E0F8A3E051
:103ED800F9E8497003023FF69007B5E054406023C3
:103EE8007908851882851983AA82AB83120FE08529
:103EF8001882851983AA82AB83120CB69007B5E0A5
:103F080054BFF0E054806010790C7A717B09120F6D
:103F1800E09007B5E0547FF0E0A2E0503190619A5C
:103F28007433F0A37455F09061A0743AF090094D81
:103F3800E064017009C2919007B774678005900723
:103F4800B77461F0120CBC9007B5E054FEF0E05471
:103F580002603190619A743FF0A3745AF09061A0A6
:103F6800747FF090094DE064017009D2919007B711
:103F7800747180059007B7746AF0120CBC9007B58D
:103F8800E054FDF0E05404601390259CE4939061A4
:103F980086F0120CC29007B5E054FBF0E0540860BC
:103FA8001390259DE493906186F0120CC29007B59A
:103FB800E054F7F0E05410601390259EE49390616C
:103FC80086F0120CC29007B5E054EFF0E054206080
:103FD8000A120CC29007B5E054DFF0A3E054016068
:103FE8000D120F08120CC89007B6E054FEF07408C2
:103FF8001216EF8003F0A3F0D083D082020135744B
:10400800EC12173074F41216D9851882851983AC0E
:1040180082AD8375838475821474041215EC90251F
:104028009C93F46003024194907808E0C394025092
:10403800030241747404121724AC82AD8375838320
:1040480075824E74081215EC85188285198385824D
:10405800128583137404121724AC82AD83750EFF86
:10406800750FFF7FFF7E00750C48750D78801574FD
:10407800086E700302410774096E700302410774E9
:104088000A6E607B850C82850D8378081215A98CD1
:10409800828D83A909E50AC9F8881074187808126E
:1040A80014EAE5104508F8C3E098A3E099850C8266
:1040B800850D8378081215A940188C828D83741891
:1040C80078081214EAE5104508F8E0C398F8A3E068
:1040D800801C741878081214EAE5104508FAE9FB00
:1040E8008C828D83E0F8A3E0F9EAC398F8EB99F99C
:1040F800C3E8950EE9950F5006880E890FEEFF0E5E
:10410800E50C2404F50CE50D3400F50DEEC394130D
:10411800500302407774FF650E700474FF650F60EA
:10412800238F08740278081216C674482508F58289
:1041380074783509F58378081215A98512828513D4
:1041480083E508F0EC24020C0CED3400FD851282A6
:10415800851383A3858212858313740C121724E5B3
:10416800826C7003E5836D60030240657508017514
:10417800090078081219437402121724AC82AD831F
:104188007A677B0912063274021216EF740C121643
:10419800EF7F0C021802C082C0839061AE7468F091
:1041A800A3746AF090624574FBF0A304F053F4FD25
:1041B80043FE0290094D7401F09061A0E0643A90CA
:1041C800619A70237433F0A37455F09061A0743A27
:1041D800F0740164017009C2919007B77467802870
:1041E8009007B774618021743FF0A3745AF090610E
:1041F800A0747FF0740164017009D2919007B774BC
:104208007180059007B7746A023FFF7F04021802A5
:10421800C082C0839008FFE06401700A900904E03E
:104228006004790C80027900024000C082C0837566
:10423800E1F1900902E060551460081460591460B7
:10424800518059120F1A9008F8E0F97AF97B081290
:1042580010FA9083FC1215C71211309083CC1215F6
:10426800C7121106900903E0F9121112790112110F
:104278006C9008F6E02416F8A3E03400F9888289E7
:10428800837432F0A3740FF07900024000120F20FB
:1042980080B4120F2680AF120F2C80AA791280EA00
:1042A80074F412173075D90D9008E7E0A2E0E433F2
:1042B8001313F89008F8E0C4333354C0484401F5A8
:1042C800D978F6790888828983A3A3A3E0F5D988E9
:1042D800828983A3A882A983E864FC7003E964083F
:1042E80070E378E7790888828983A3E0F5D9888222
:1042F8008983A3A882A983E864ED7003E964087040
:10430800E575E1959008E7E0F97AE87B0812110075
:10431800900DAC74C6F0A3740EF0A37428F0A374C7
:1043280010F0A37428F0A37410F0A37428F0A374F9
:1043380010F0A374CCF0A3740EF0A37428F0A37447
:1043480010F0A374E4F0A3740EF0900DBA7428F082
:10435800A37410F0A37428F0A37410F0A37428F0C9
:10436800A37410F0A37428F0A37410F0A37428F0B9
:10437800A37410F0A37428F0A37410F09008F6E06A
:10438800F8A3E0F5838882A3A378081215A990837F
:10439800F47808121535908420780812158390084F
:1043A800F6E0240EF8A3E03400F9888289837808BF
:1043B8001215B89008F6E02414F8A3E03400F98840
:1043C8008289837413F09007B37402F0024213C019
:1043D80082C083900908E02407F5D99008F8E0C462
:1043E800333354C0F5D978F6790888828983A3A332
:1043F800A3E0F5D988828983A3A882A983E864FC0D
:104408007003E9640870E3900908E0601F78F679A2
:1044180008FAE82413F582E93400F583E0F5D98831
:10442800828983A3A882A9831AEA70E6900928E002
:104438002407F5D99008F8E0C4333354C04404F590
:10444800D978F6790888828983A3A3A3E0F5D98867
:10445800828983A3A882A983E864FC7003E96408BD
:1044680070E3900928E0601F78F67908FAE82433A9
:10447800F582E93400F583E0F5D988828983A3A819
:1044880082A9831AEA70E675E195900DAC74D2F0B2
:10449800A3740EF0A37428F0A37410F0A37428F08A
:1044A800A37410F0A37428F0A37410F0A374CCF0D4
:1044B800A3740EF0A37428F0A37410F0A374E4F0AE
:1044C800A3740EF0900DBA7428F0A37410F0A374BE
:1044D80028F0A37410F0A37428F0A37410F0A37448
:1044E80028F0A37410F0A37428F0A37410F0A37438
:1044F80028F0A37410F09084001215C79008F6E015
:10450800240EF8A3E03400F9888289831215D39029
:1045180008F6E02414F8A3E03400F988828983744B
:1045280012F09007B37401023FFFC082C083900964
:1045380008E02407F5D99008F8E0C4333354C044A0
:1045480002F5D978F6790888828983A3A3A3E0F5D0
:10455800D988828983A3A882A983E864FC7003E9C7
:10456800640870E3900908E0601F78F67908FAE8B3
:104578002413F582E93400F583E0F5D9888289832C
:10458800A3A882A9831AEA70E675E195900DAC7428
:10459800DEF0A3740EF0A374DEF0A3740EF0A3741F
:1045A800DEF0A3740EF0A374DEF0A3740EF0A3740F
:1045B800DEF0A3740EF0A374DEF0A3740EF0A374FF
:1045C800E4F0A3740EF0900DBA7428F0A37410F000
:1045D800A37428F0A37410F0A37428F0A37410F047
:1045E800A37428F0A37410F0A37428F0A37410F037
:1045F800A37428F0A37410F09084001215C79008D3
:10460800F6E0240EF8A3E03400F9888289831215B5
:10461800D39008F6E02414F8A3E03400F9888289DE
:10462800837414F09007B37404023FFFC082C08300
:10463800900908E02407F5D99008F8E0C43333540A
:10464800C04406F5D978F6790888828983A3A3A39C
:10465800E0F5D988828983A3A882A983E864FC70DD
:1046680003E9640870E3900908E0601F78F67908A8
:10467800FAE82413F582E93400F583E0F5D9888255
:104688008983A3A882A9831AEA70E6900928E024FE
:1046980007F5D99008F8E0C4333354C04404F5D979
:1046A80078F6790888828983A3A3A3E0F5D988825C
:1046B8008983A3A882A983E864FC7003E96408706D
:1046C800E3900928E0601F78F67908FAE82433F5C2
:1046D80082E93400F583E0F5D988828983A3A8822A
:1046E800A9831AEA70E675E195900DAC74D8F0A329
:1046F800740EF0A37428F0A37410F0A37428F0A328
:104708007410F0A37428F0A37410F0A37428F0A315
:104718007410F0A37428F0A37410F0A374E4F0A349
:10472800740EF0900DBA7428F0A37410F0A37428D6
:10473800F0A37410F0A37428F0A37410F0A37428E5
:10474800F0A37410F0A37428F0A37410F0A37428D5
:10475800F0A37410F09084001215C79008F6E024B6
:104768000EF8A3E03400F9888289831215D39008E3
:10477800F6E02414F8A3E03400F9888289837415DC
:10478800F09007B37403023FFFC082C0839008F61D
:10479800E0F8A3E0F5838882A3A3A3A3A3A3E4027C
:1047A8003FFD74F71217309007E1E0F875F004A4A4
:1047B800C8AAF02AF974E328F8740739F9E8240537
:1047C800FAE93400FB8A828B83E0FCA3E0FD88824F
:1047D8008983A3A3A3A3A3A3A3A3A3ECF0A3EDF0AE
:1047E80088828983A3A3A3A3A3A3A3E024FFF8A398
:1047F800E034FFF98A828B83E8F0A3E9024A4F7418
:10480800F7121730EAFEEBFF9061D0E06003024830
:10481800E475D90E75D90375D904EE248CF582EFA9
:104828003400F583E5822408F8E5833400F9E0F5DF
:10483800D9A3E865827003E9658370F2EE2484F5F4
:1048480082EF3400F583E5822404F8E5833400F927
:10485800E0F5D9A3E865827003E9658370F275E134
:10486800957908EE248CFAEF3400FB120FD4790402
:10487800EE2484FAEF3400FB120FD47C00EEF8EF3C
:10488800F9ECFAC3E49AFA95E0FBEE2AFAEF3BFB5F
:10489800EA248BF582EB3400F583E0C0E0E824AB32
:1048A800F582E93400F583D0E0F00C88828983A38F
:1048B800A882A983ECC3940840C7EE2470F582EF60
:1048C8003400F583E0F8A3E0F9EE2472F582EF34C2
:1048D80000F583E8F0A3E9F0790180027900024A43
:1048E80050C082C08375D90275D90375D90575E1A1
:1048F80095EA2470F582EB3400F583E0F8A3E0F93B
:10490800EA2472F582EB3400F583E8F0A3E9F07944
:104918000102400074F6121730EAFEEBFF900951CD
:104928007406F075085175090978081219437C0155
:10493800790312101C74021216EF75D90675D90383
:10494800758251758309E0F5D9A3E5826456700430
:10495800E583640970F075E1959007B3E064087029
:104968001EEE2470F582EF3400F583E0F8A3E0F939
:10497800EE2472F582EF3400F583E8F0A3E9F079CC
:1049880001024B1C74F6121730EAFEEBFF9061D05F
:10499800E070667801900951740BF09007B3E064F9
:1049A80007701975085175090978081219437C01AF
:1049B800790312101C74021216EF7805740128F599
:1049C800D975D903758251758309E8FAE0F5D9A339
:1049D8001AEA70F875E195EE2470F582EF3400F567
:1049E80083E0F8A3E0F9EE2472F582EF3400F58352
:1049F800E8F0A3E9F0790180027900024B1C74F712
:104A0800121730EAFEEBFF75D90375D90375D90D76
:104A1800EE24DEF582EF3400F583E0F5D975E195F3
:104A28007904121136EE2470F582EF3400F583E034
:104A3800F8A3E0F9EE2472F582EF3400F583E8F08C
:104A4800A3E9F079018001F07F0102180274F612DF
:104A58001730EAFEEBFF9061D0E0F87480C398FA53
:104A6800EE2483F582EF3400F583E0600478048057
:104A7800027800E8240BF8EAC3985003024B1A7D29
:104A880009900951EDF0EE24E3F8EF3400F97A5279
:104A98007B097C0888828983E08A828B83F08882FC
:104AA8008983A3A882A9838A828B83A3AA82AB83E2
:104AB8001CEC70E0EE2483F582EF3400F583E060AF
:104AC8001D75085175090978081219437C0979037D
:104AD800EEFAEFFB12101C74021216EF7D0D740132
:104AE8002DF5D975D9037582517583098D08E0F5BF
:104AF800D9A31508E50870F675E195790412113601
:104B0800EE241DF582EF3400F583E4F0A3F079017B
:104B1800800279007F0202180274F6121730EAFE4A
:104B2800EBFF9061D0E0F87480C398FAEE2483F527
:104B380082EF3400F583E06004780480027800E8AE
:104B48002408F8EAC3985003024C217D06900951C5
:104B5800740CF09007D0E0900952F07AD17B077876
:104B68005379097C028A828B83E088828983F08A60
:104B7800828B83A3AA82AB8388828983A3A882A914
:104B8800831CEC70E07AD37B077C028A828B83E0FB
:104B980088828983F08A828B83A3AA82AB838882E6
:104BA8008983A3A882A9831CEC70E0EE2483F58294
:104BB800EF3400F583E0601D750851750909780820
:104BC8001219437C067903EEFAEFFB12101C7402EB
:104BD8001216EF7D0A74012DF5D975D90375825126
:104BE8007583098D08E0F5D9A31508E50870F675F1
:104BF800E1957904121136EE2470F582EF3400F550
:104C080083E0F8A3E0F9EE2472F582EF3400F5832F
:104C1800E8F0A3E9F0790180027900024B1C74F6F0
:104C2800121730EAFEEBFF9061D0E0F87480C39869
:104C3800FAEE2483F582EF3400F583E0600478040B
:104C480080027800E82404F8EAC3985003024D0073
:104C58007802900951E8F0EE24F5F582EF3400F57A
:104C680083E0900952F0EE2483F582EF3400F58357
:104C7800E0601B75085175090978081219437C0210
:104C88007903EEFA12101C74021216EF78067401FA
:104C980028F5D975D9037582517583098808E0F517
:104CA800D9A31508E50870F675E195EE2474F58228
:104CB800EF3400F583E4F0EE2480F582EF3400F55C
:104CC80083E4F0EE241DF582EF3400F583E4F0A3CD
:104CD800F07904121136EE240DF582EF3400F583D5
:104CE800E0F8A3E0F9EE2472F582EF3400F583E8EA
:104CF800F0A3E9F0790180027900024B1C74F612E6
:104D080017309061D0E0F87480C398FCEA2483F5EA
:104D180082EB3400F583E06004780480027800E8D0
:104D28002404F8ECC398405B79029009517407F0A9
:104D3800EA24F6F582EB3400F583E0900952F0EAB4
:104D48002483F582EB3400F583E06018750851750B
:104D5800090978081219437C020912101C740212FE
:104D680016EF7906740129F5D975D903758251753D
:104D78008309E9F8E0F5D9A318E870F875E19579A1
:104D88000180027900024B1C74F5121730E9FCA26D
:104D9800AFE433F50AC2AF7D0080010DEA246FF558
:104DA80082EB3400F583E0F8EDC398501A8D08EAD9
:104DB8002508F8EB3400F9E8246BF582E93400F5AE
:104DC80083E06C70D68024EA246FF8EB3400F9E0B5
:104DD800FEEA2EFAEB3400FBEA246BF582EB340092
:104DE800F583ECF088828983E004F0E50AA2E0927A
:104DF800AF7F0302180274F6121730A2AFE433FD36
:104E0800C2AFEA246FF582EB3400F583E014F07C3E
:104E18000060368C08EA2508F8EB3400F9E8246CC1
:104E2800F582E93400F583E0C0E0E8246BF582E917
:104E38003400F583D0E0F00CEA246FF582EB3400FF
:104E4800F583E0F8ECC39840CAEA246EF582EB34A7
:104E580000F58374FFF0EA246AF582EB3400F583E9
:104E6800E4F0EDA2E092AF024B1CC082C083E5A83B
:104E7800F8C2AFEA246BF582EB3400F583E9F0EA77
:104E8800246AF582EB3400F583E4F0E8A2E792AFF8
:104E980002400074F3121730EAFEEBFFECFAEDFB68
:104EA8008A828B83A3A3A3A3E0541FF0EE2436F5D4
:104EB80082EF3400F583E4F0F50AEEFCEFFD8A8218
:104EC8008B83E0C0E0EC245DF582ED3400F583D0FF
:104ED800E0F0750B00E50A33333354F8F50C8A8299
:104EE8008B83E0F508750900E50B78081216A7E52D
:104EF80008A2E0502FEE2436F8EF3400F9888289B2
:104F080083E0F508EE2508F508EF3400F509E50813
:104F18002438F582E5093400F583E50CF0888289A8
:104F280083E004F0050B050CE50BC3940840AF05BE
:104F38000A8A828B83A3AA82AB838C828D83A3ACDB
:104F480082AD83E50AC394055003024EC67F05026D
:104F5800180274F71217309007DFE0640170077ABF
:104F6800007B000250D17E009007E5E070F17401EB
:104F7800F0A3E4F0A3F090084504F0900848E4F0AA
:104F8800A3F090084B04F09007E8E4F0A3F0A3F036
:104F9800A3F09007F204F0900818E4F09083E01270
:104FA80015C79007FB1215D39007FFE4F0A3F0A3F1
:104FB800F0900863F0900857F090084C7480F0A3C4
:104FC800E4F0900852F090084AF09008CEF0A3F070
:104FD800A3F0A3F0A3F0A3F0A3F0A3F09008D7F0F8
:104FE800900866F09008B6F0A3F09083E01215C719
:104FF8009008B81215D39083E01215C79008BC1218
:1050080015D39008C2E4F09008C4F09008C0F0905E
:1050180008DAF0A3F0A3F0A3F0A3F0A3F0A3F0A3A1
:10502800F078DF7907E8246FF582E93400F58374B6
:10503800FFF00E88828983A3A882A983EEC3940413
:1050480040E37ADF7B0778EE790888828983E0C0BD
:10505800E0EA2461F582EB3400F583D0E0F0888241
:105068008983A3A882A9838A828B83A3AA82AB831C
:10507800E864F37003E9640870D07ADF7B0778C6C8
:10508800790788828983A3E0C0E0EA24E7F582EB08
:105098003400F583D0E0F088828983A3A882A983AD
:1050A8008A828B83A3AA82AB83E864CE7003E96407
:1050B8000770CF9007DFE004F0640170089007E7FD
:1050C800E09007E1F07AE37B07024A50C082C08390
:1050D8009007E6E4F09007E5F09007DFF0A3F0A36F
:1050E80074FFF075E1F1024000C082C08378007956
:1050F800009007E6E0600478E3790788828983A353
:10510800A3A3A3E0F902400074F6121730EAFEEBFD
:10511800FF8E828F83A3A3A3E0600F8E828F83A369
:10512800A3A3E4F09007E0E014F09007DFE014F0A8
:1051380070069007E174FFF08E828F83A3A3E4F0DA
:105148009008F3E0700D9007E0E0640170057900C5
:10515800121118EE2465F582EF3400F583E0F8A308
:10516800E0F9E8496029EE2465F8EF3400F9880889
:1051780089098882F583E0FCA3E0FD9007E1E0FA65
:105188007B00120CEC850882850983E4F0A3F0EE1D
:10519800FAEFFB12104C024B1C74F7121730EAFEA0
:1051A800EBFF8E828F83A3A3A3A3E0FA7B00120DEB
:1051B8002EEEFAEFFB120F9E121034024A50C082F4
:1051C800C08378C6790788828983A3E4F0888289B6
:1051D80083A3A882A983E864CE7003E9640770E614
:1051E8009007C702452D74F6121730EAFEEBFFEC64
:1051F8002403F8ED3400F988088909EC2407F8ED50
:105208003400F9E8FCE9FD8C828D83E0F8A3E0F92D
:10521800850882850983E0FAA3E0FB12164EEE2486
:105228000DF582EF3400F583E8F0A3E9F08C828D68
:1052380083E0F8A3E0F9850882850983E0FAA3E012
:10524800FB12164E8B09EA45096013EE240DF58210
:10525800EF3400F583E02401F0A3E03400F0024BC2
:105268001C74F6121730EAFEEBFFEE242EF582EFDF
:105278003400F583E0FCA3E0FD780079FAECFAED60
:10528800FB12164EEE2470F582EF3400F583E8F039
:10529800A3E9F0780079FAECFAEDFB12164E8B09C7
:1052A800EA45096013EE2470F582EF3400F583E0D7
:1052B8002401F0A3E03400F0024B1C74F012173004
:1052C800EAFEEBFF741012172478081215A91210C1
:1052D800D68A0C8B0D8C0E8D0F9083EC780C1215E2
:1052E80035908420780C121583780C12193F8E8221
:1052F8008F83E0F8A3E0F5838882A3A31215C71271
:10530800232E74041216EFE960030254108E828F64
:1053180083E02402F8A3E03400F9E8FAE9FB8A8282
:105328008B83780812154890842078081215A98A6A
:10533800828B837808121596EE240BF582EF3400E1
:10534800F583C082C0838E828F83A3A3A3A3A3E027
:105358002401F8A3E03400F9D083D082E068700318
:10536800A3E069700579010254128E828F83A3A38A
:10537800A3A3A3A3A3E02401F0A3E03400F0EE2448
:1053880074F582EF3400F583E064017036EE24751D
:10539800F582EF3400F583E0F8A3E0F98E828F837D
:1053A800A3A3A3A3A3A3A3E0687003A3E069701356
:1053B800EE2475F582EF3400F583E02401F0A3E0D4
:1053C8003400F0EE2480F582EF3400F583E06401C8
:1053D8007036EE2481F582EF3400F583E0F8A3E01F
:1053E800F98E828F83A3A3A3A3A3A3A3E06870036A
:1053F800A3E0697013EE2481F582EF3400F583E0B1
:105408002401F0A3E03400F079007F080218027448
:10541800F71217309007E1E0F875F004A4C8AAF075
:105428002AF974E328FE740739FF8028EE2465F80A
:10543800EF3400F988828983E0FCA3E0FD88828943
:1054480083E4F0A3F08E828F83A3A3A3A3E0FA7B67
:1054580000120CECEE2465F582EF3400F583E0F8D9
:10546800A3E0F9E849604FEE2464F582EF3400F5D3
:1054780083E0F5087808121947EE2463F582EF34C3
:1054880000F583E0F9EE2465F582EF3400F583E05A
:10549800FCA3E0FDEEFAEFFB120FC874011216EF41
:1054A800E96089EE2465F582EF3400F583E0F8A31E
:1054B800E0F9E84970137C007D008E828F83A3A3F6
:1054C800A3A3E0FA7B00120CEC024A5074F2121704
:1054D80030EAFEEBFF890A740E121724E0FAEE2474
:1054E80062F582EF3400F583E0640160030255A0A1
:1054F8009061D0E0F87480C398F50CEE2483F582AF
:10550800EF3400F583E060047804800278008908AD
:10551800E928F8E43400F9E824020808E93400F935
:10552800E50C98E499A2D265D0334068EA70057515
:105538000B028003750B01E06039750900780812C9
:1055480019437A517B09120FFE74021216EF75087F
:10555800517509097808121943AC0AA90BEEFAEF3C
:10556800FB12101C74021216EF7404250AF50A7C4B
:10557800517D097401250AF5D9850BD9E50A600D15
:105588008C828D83F8E0F5D9A318E870F875E19559
:10559800790080067907800279FF7F06021802C029
:1055A80082C083E960208C828D83E08A828B83F0BD
:1055B8008C828D83A3AC82AD838A828B83A3AA82DB
:1055C800AB8319E970E0ECFAEDFB02400074EA12D3
:1055D8001730907803E06442705E900950E014F050
:1055E8007056C2AF1255EF00782AD0E0F618D0E016
:1055F800F6E59F5407F970059083E480039083C80B
:1056080078081215A9E9C4C0E07829E65508F50814
:1056180008E65509F509740B78081216B7D0E02585
:1056280008F8906270E0A2E740F8E8C3339062722D
:10563800F0906270E0D2E0F09007E1E0F4700302CD
:1056480059F8E0F875F004A4C8AAF02AF974E32818
:10565800FE740739FFEE2402F582EF3401F583E08A
:10566800F8A3E0F9E849601EEE2402F582EF340160
:10567800F583E0FAA3E0FBEE2401F582EF3401F5AF
:1056880083E0F912042E8E828F83A3A3A3A3A3A37E
:10569800A3E0F8A3E0F98E828F83A3A3A3A3A3E8D2
:1056A800F0A3E9F0906054E09007BAF0906055E0FC
:1056B8009007BBF0906056E09007BCF0906057E010
:1056C8009007BDF0906058E09007BEF0906059E0F8
:1056D8009007BFF090605AE09007C0F090605BE0E0
:1056E8009007C1F090605CE0FC9007C2F090605DAC
:1056F800E0FB9007C3F090605EE0FD9007C4F09077
:10570800605FE0FA9007C5F09007C0E08C082508B4
:10571800F8E43400F98D08E82508F8E93400F98B35
:1057280008E82508F8E93400F98A08E82508FAE9BC
:105738003400FBEE24F7F582EF3400F583E02AF01D
:10574800A3E03BF08C08EE24F9F582EF3400F583F2
:10575800E02508F0A3E03400F0EE24FBF582EF34F6
:1057680000F583E02401F0A3E03400F0EE24FFF517
:1057780082EF3400F583E0F8A3E0F9E8496042904D
:105788006000E0C333FCE433FDE82CF582E93DF525
:1057980083E02AF0A3E03BF0906000E0FA9007C2B3
:1057A800E0FCEAC333FAE433FBE82AF8E93BF9E81A
:1057B800244AF582E93400F583E02CF0A3E03400B4
:1057C800F09007C0E070119007C3E0700BA3E07081
:1057D80007A3E070030258D88E828F83A3A3A3A3E4
:1057E800A3E0F8A3E0F9EE240DF582EF3400F58389
:1057F800E028F8A3E039F9EE240BF582EF3400F540
:1058080083E8F0A3E9F0EE240FF582EF3400F58386
:10581800E4F0EE241CF582EF3400F583E0640170B7
:105828001EEE2420F582EF3400F583E0F8A3E0F9BA
:10583800EE241DF582EF3400F583E8F0A3E9F0903B
:1058480007BBE06052EE241CF582EF3400F5837448
:1058580001F0EE246AF582EF3400F583E07038EE4B
:105868002474F582EF3400F583E0702BEE2480F584
:1058780082EF3400F583E0701EEE2420F582EF34C9
:1058880000F583E0F8A3E0F9EE241DF582EF34007B
:10589800F583E8F0A3E9F0906062E0700302598BA9
:1058A8008E828F83E0F8A3E0F9E82406FCE934004F
:1058B800FDE82402FAE93400FB1210D08E828F83AF
:1058C800E02412F8A3E03400F9888289830259950C
:1058D8009007C2E0603AEE240FF582EF3400F583BA
:1058E800E4F0EE241CF582EF3400F583E0640170E7
:1058F80040EE2420F582EF3400F583E0F8A3E0F9C8
:10590800EE241DF582EF3400F583E8F0A3E980204A
:10591800EE24FDF582EF3400F583E02401F0A3E0E6
:105928003400F0EE241DF582EF3400F583E4F0A393
:10593800F0EE240BF582EF3400F583E0F8A3E0F9EC
:105948008E828F83A3A3A3A3A3E0687003A3E06957
:105958006003025847EE240FF582EF3400F583E028
:1059680060128E828F83A3A3A3A3A3E064057002B1
:10597800A3E0600B7908EEFAEFFB120FA4807179AF
:105988003E80F3EE241DF582EF3400F583E4F0A3A6
:10599800F0906060E0C0E0EE2469F582EF3400F535
:1059A80083D0E0F09007C0E0F8EE2467F582EF348A
:1059B80000F583E028025AF890094EE0640170353A
:1059C800121184EE2467F582EF3400F583E0700647
:1059D8009060607480F0EEFAEFFB12108EE96401BB
:1059E800600E120FC2121088E964016003121034AD
:1059F8007F0E021802EE2483F582EF3400F583E06F
:105A08006004780480027800E50CC398F9120CE071
:105A18008A0A8B0BEA450B60A7EE2483F582EF34E4
:105A280000F583E070048A088B09E50C601285088C
:105A380082850983F512E5D9F0A31512E51270F6EF
:105A4800EE2483F582EF3400F583E0603774FC259B
:105A58000CF50C7808121943AC0CA90DEEFAEFFB03
:105A680012102274021216EFE970197403650D7092
:105A780003025B38E50A24FBFAE50B34FFFB12044A
:105A88008E025B387403650D7003025B3D850C0E56
:105A9800750F00780E121943AC08AD09AA0AAB0BB2
:105AA800120FFE74021216EFEE2469F582EF34002D
:105AB800F583E064807004747F8001E0F50878085D
:105AC800121947E50DF5087808121947A90CAC0A10
:105AD800AD0B9007E1E0FA7B00120CE67402121697
:105AE800EF121190EE2467F582EF3400F583E0148D
:105AF800F0E070030259D8750851750909750A0054
:105B0800750B00E5D914F50CE5D95403F50D6020A3
:105B18007403650D7003025A32E50C70030259C014
:105B2800EE2468F582EF3400F583E060030259C083
:105B3800793D02597E850882850983E0F8A385822C
