:020000040000FA
:0600000002011D021F3386
:03002B00021AC5F1
:03003B00021B1095
:03004300021A9C02
:03005300021FA6E3
:03006B00021AE195
:10008300021DE7E5C754F84401F5C77901220000D2
:100093000080FB120086B90003020107E47921788E
:1000A30008B800028004F709D8FCE479297802B87B
:1000B30000028004F709D8FCE49002817851790B9F
:1000C3008002F0A3D8FCD9FA781A90014D7A01BACC
:1000D30000028007E493A3F608DAF9900CD1AA8210
:1000E300AB8390014E788179038015E493A3AC82AE
:1000F300AD838A828B83F0A3AA82AB838C828D83A8
:10010300D8E9D9E775823B7583BA740312012F7559
:100113008291758300740012012F75D00075813FA1
:10012300751881751902759F00020096C09FF59F8F
:10013300E473D09F22D083D082C09FE493C0E07445
:100143000193C0E0740293F59F2201FFFF1101990F
:10015300010F12640401028A8401000054840260C6
:1001630084010000D80C027C84010000D90C0266D3
:1001730084030000A702027884010000DA0C01E87E
:1001830003053F101A446F2053796E63000000008B
:1001930000000000000008415050205365742043C4
:1001A3006C6F636B000000001201004461746120F6
:1001B30048656164657200000000000012446174C8
:1001C3006120426F64790000000000000000028A91
:1001D300840100005A840260840100000A0D027A3F
:1001E3008403000044050266840300004C05026298
:1001F300840100000B0D0260840100001C0D0288C5
:100203008402000052050262840100001D0D026099
:10021300840100002E0D0284840300002F0D02666A
:10022300840300005605026284010000310D026060
:1002330084010000420D0282840300005C05026613
:10024300840300006405026284010000430D000082
:10025300000000000000FF000130750302010600EA
:10026300000000000000000000000000000000008B
:100273000000000000000000000000FFFF060080F7
:100283000CE80305000A002C0101000100110941DB
:100293006464696E672041312D3030303030300571
:1002A300125000A000020A00020106050200230FFB
:1002B30018416464696E672041312D30303030302D
:1002C300300000000000360800004208FF0000B4C0
:1002D300000028002800283075A000A000A000A07E
:1002E3000000080008E001F00010001000100010EA
:1002F300001000100050005000500010001000D0FB
:10030300070000000000000F000100050030750722
:10031300001000010081FF0000FF6A0A880A700ACA
:10032300FF02020208025000A0000000E803028A54
:10033300840100005D84026084010000A70E02684E
:10034300840100002808026084010000A80E026AEC
:10035300840100003E08026084010000A90E026EC1
:10036300840100004008026084010000AA0E0270AC
:10037300840800004108026084010000AB0E02748F
:1003830084010000AC0EFF0100FF20028A840100FB
:10039300005784026084010000100F02768400007D
:1003A3000000000266840300008E084010401040E5
:1003B30010401040104010401040104010401040BA
:1003C3001040104010CE12E612C8121201381DC69A
:1003D3000212013827C60212013868C60212013818
:1003E300B1C602120138EBC60212013841C702122C
:1003F300013862C70212013811CA021201381ACA3F
:10040300021201386ECA0212013897CA0212013869
:10041300A1CA021201380FCB021201389FCB02127C
:100423000138FACB0212013828CC02120138B0CCC1
:1004330002120138EFCC0212013824CD0212013826
:1004430036CD0212013855CD021201385ECD0212AB
:10045300013825CE02120138008003120138F780DB
:10046300031201381181031201382281031201386A
:100473003483031201385383031201386FAA031222
:100483000138A5AA03120138D9AA0312013826ACF0
:10049300031201389FB803120138B5B803120138AB
:1004A300BFB80312013809B903120138817F001262
:1004B3000138D1F702120138E4F702120138A5F826
:1004C30002120138E4F80212013801F9021201386C
:1004D3003AF90212013887F902120138B9F9021206
:1004E3000138F0F902120138F9FB0212013865FCF8
:1004F3000212013864B10312013887B103120138C3
:10050300B6B1031201384EB20312013890B203128E
:1005130001385D7C001201388D7C00120138A07C0B
:1005230000120138CF7C00120138E67C001201383A
:10053300927D001201382B7E00120138B47E001226
:1005430001386FFF021201387DFF0212013880FF6C
:10055300021201385FBB0312013893BA0312013848
:100563008E84011201386C86011201380B88011246
:100573000138B68801120138368901120138BB8966
:1005830001120138E48901120138BF8D01120138CB
:10059300368E011201384D8F01120138878F0112F7
:1005A3000138C88F011201380F910112013865918A
:1005B30001120138AE91011201381D920112013866
:1005C300899201120138BA9201120138D2920112B2
:1005D3000138EB9301120138FB9301120138B195F5
:1005E30001120138C89501120138FA950112013838
:1005F3009C9701120138309801120138E3B70312B6
:100603000138F4B70312013894B803120138E9BA78
:100613000312013828BB03120138E07F00120138AE
:100623001AB7031201382AB70312013842B703126B
:100633000138D6B70312013841B503120138C6B5E4
:10064300031201382AB603120138D9B20312013852
:100653000DB30312013830B303120138A4B30312EC
:100663000138F37F00120138579103120138849146
:1006730003120138F691031201380B920312013869
:100683002C9303120138AF930312013828940312F9
:1006930001384794031201386A9403120138A7946E
:1006A30003120138BF940312013815950312013860
:1006B3003B8D03120138528D03120138CC8D031286
:1006C3000138B08E03120138879003120138EC9081
:1006D30003120138439103120138F87F00120138E5
:1006E3003BA803120138C5A90312013826AA031235
:1006F30001386CAA0312013872FC021201380DFD95
:100703000212013805FE02120138B7FE0212013847
:10071300DFFE02120138EDFE0212013862FF0212FF
:1007230001386CFF021201382AF30212013864F314
:100733000212013881F30212013824F40212013843
:1007430086F40212013882F502120138B4F602125D
:100753000138D9F60212013822F7021201388CF758
:1007630002120138CCAF031201381EB00312013854
:1007730091B003120138FEB003120138F4A503123D
:1007830001381EA603120138EDA603120138C9A7CA
:100793000312013853CE021201381FCF021201385F
:1007A30060CF021201389ACF02120138F8CF021239
:1007B30001384CD002120138AAD00212013840D1BC
:1007C3000212013848D202120138D2D30212013880
:1007D30070D402120138D7D402120138EAD40212BB
:1007E3000138DED50212013827D6021201388F8D67
:1007F30002120138C19002120138529202120138DA
:10080300A99202120138C6920212013846930212CB
:100813000138C29402120138919502120138FE98F0
:1008230002120138E89902120138B26C0012013841
:10083300F86F00120138B47000120138CF71001242
:1008430001381572001201383D7300120138BF736D
:1008530000120138F0740012013875770012013864
:10086300427800120138E67A0012013819AE0312F9
:10087300013830AE031201385FAE0312013898AE6F
:1008830003120138C0AE03120138EEAE0312013871
:1008930005AF031201381CAF0312013832AF031244
:1008A300013859AF031201386CAF0312013882AF1C
:1008B3000312013895AF03120138BAAF031201389E
:1008C30071B30212013870B402120138A5B40212D6
:1008D3000138C6B402120138D6B402120138F7B493
:1008E3000212013803B602120138D0B602120138DF
:1008F30043B702120138C9B7021201380CB8021209
:10090300013843B802120138C9B8021201389BB941
:1009130002120138F9B90212013811BA0212013870
:100923008BBA021201388EBA0212013891BA02123E
:10093300013838BB0212013850BB0212013880BBA8
:1009430002120138A0BB021201388EBC0212013818
:1009530044BD0212013882EE02120138AAEE0212DD
:100963000138D8EE021201380FEF0212013877EF87
:1009730002120138C0EF021201380BF002120138E3
:1009830049F00212013886F002120138B4F0021263
:1009930001385BF10212013865F10212013872F17C
:1009A30002120138A5F10212013867F2021201386E
:1009B30073F2021201388BF20212013895F202121D
:1009C300013843B60312013851B60312013869B630
:1009D3000312013881B6031201387CBB01120138BE
:1009E3001ABC0112013892BC01120138A7BD0112D1
:1009F3000138E1BD011201388ABE011201385FBF1F
:100A030001120138C3C0011201381AC101120138A1
:100A1300A1C10112013888C201120138D5C20112E5
:100A2300013863C30112013887C3011201385CC561
:100A3300011201389DC501120138BFC501120138E9
:100A430040C6011201382AC701120138F0C701124A
:100A53000138A6DD0212013878DE0212013821DFE7
:100A63000212013864DF02120138F1DF0212013889
:100A73007DE0021201385EE1021201388DE10212BB
:100A8300013889E202120138D1E202120138D3E3BC
:100A93000212013817E4021201383DE40212013850
:100AA30035B9031201383699031201384C990312F0
:100AB30001387299031201389A9A03120138A49AE1
:100AC30003120138FD9B03120138FD9C0312013808
:100AD300B2E402120138E7E5021201381AE6021203
:100AE300013864E60212013822E8021201381FAC11
:100AF3000112013882AC01120138C7AD011201386D
:100B0300D7AD01120138FAAD0112013845AE011219
:100B13000138EAAE01120138E0AF01120138AAB080
:100B23000112013822B20112013864B201120138F4
:100B330002B3011201384FB30112013875B3011228
:100B4300013863B50112013868B50112013849B79C
:100B5300011201389DB701120138FFB701120138A4
:100B630027B801120138CBB8011201388DB901122F
:100B73000138BEB901120138C1B90112013809BAED
:100B8300011201384BBA01120138B2BA011201380D
:100B93009EA303120138B1A303120138CAA303129F
:100BA300013815A403120138F0A4031201387FA5FC
:100BB30003120138CAA5031201383826001201387E
:100BC3004426001201387D2600120138C226001285
:100BD3000138792700120138FF27001201382B282A
:100BE30000120138642800120138782A00120138F3
:100BF300542C001201383F2E00120138762F0012B8
:100C03000138D63100120138C232001201380834DB
:100C1300001201381535001201383235001201383F
:100C23006A3500120138843500120138EC350012A0
:100C33000138863A00120138273B00120138783B0D
:100C4300001201389F3B00120138ED3B00120138BE
:100C53000B3C001201385F3C00120138673D001263
:100C63000138EF3D00120138D8E902120138E2E9F8
:100C730002120138ADEA02120138C8EA0212013841
:100C8300EEEA0212013832EB021201386AEB021269
:100C9300013893EB021201380CEC0212013821ECFB
:100CA3000212013836EC021201386DEC02120138DF
:100CB30081EC02120138B2EC02120138ECEC0212A0
:100CC300013818ED021201386EED02120138C2ED3F
:100CD300021201380BEE0212013835EE021201380E
:100CE3005AEE021201384A95031201381496031280
:100CF3000138F796031201386D9703120138AF9745
:100D030003120138DC98031201387E9A021201386B
:100D1300A79A02120138C09A02120138059C0212E6
:100D23000138E39C02120138029D021201388F9DA3
:100D330002120138D29D021201381F9F021201389C
:100D4300BE9F021201383DA202120138D4A2021240
:100D53000138A8A3021201388AA402120138F6A5A9
:100D63000212013889A6021201382CB40312013889
:100D730095B403120138E9B40312013810B5031214
:100D830001389A840312013807850312013852850A
:100D930003120138478603120138438703120138CF
:100DA3002D8803120138AFBD02120138F1BD0212C2
:100DB3000138CBBE02120138A4BF021201389FC012
:100DC300021201387EC102120138EAC1021201384F
:100DD300B1C2021201381CC30212013883C30212CA
:100DE3000138AEC3021201381FC402120138B2C463
:100DF300021201381BC50212013830C50212013834
:100E030078C50212013891C502120138F6C50212E3
:100E13000138F9C502120138A4A003120138CCA08D
:100E2300031201380AA103120138C8A103120138C1
:100E330033A2031201384FA20312013877A203121F
:100E43000138A7A203120138B6A20312013830A356
:100E53000312013856A303120138A3D80112013833
:100E630080DA011201387BDC011201384EDD0112F8
:100E7300013899DD01120138E4DD01120138F6DD94
:100E83000112013836DE011201386BDE011201381E
:100E9300B7DE01120138E6DE0112013809DF011263
:100EA300013856DF01120138DFDF01120138ECE1AE
:100EB30001120138D7E3011201381AE40112013893
:100EC3007FE501120138C0E50112013833E6011252
:100ED30001387FE601120138AAE60112013800A7A2
:100EE300021201382BA70212013812AE0212013886
:100EF30036B002120138F1B1021201384EB30212B8
:100F03000138563E00120138ED3E001201381A3FF7
:100F130000120138603F001201389F40001201386F
:100F2300364200120138B04200120138CB4200129F
:100F330001384043001201386F4400120138CA459A
:100F430000120138CC46001201382948001201383A
:100F53004248001201389F480012013881490012AB
:100F63000138B44900120138244A001201389E4A5C
:100F730000120138ED4A00120138B94B0012013852
:100F8300BE4C001201389D4D00120138284E00124C
:100F93000138964E001201380A4F00120138334FC0
:100FA30000120138F24F001201386C51001201385F
:100FB300895100120138A851001201383952001228
:100FC30001385E5200120138865200120138015373
:100FD300001201385B5300120138AF54001201387C
:100FE3006C55001201383F5600120138D4E6011245
:100FF300013824E70112013830E7011201380DE806
:10100300011201383DE80112013875E80112013877
:10101300F4E8011201382CE9011201387EE90112CA
:101023000138BBE901120138E0EB011201380CEE83
:101033000112013807F001120138E2F101120138FF
:10104300F7FF011201386E9801120138B8980112A6
:101053000138979E0112013818A00112013877A6B2
:101063000112013872A701120138AFA7011201382A
:10107300D2A70112013814A8011201381DA80112C8
:10108300013827A80112013813A90112013807AA50
:10109300011201386D5600120138E5600012013863
:1010A300EB6000120138F76700120138079D031245
:1010B30001389D9D03120138B39D031201382D9E03
:1010C30003120138839E03120138C19E03120138B3
:1010D3001E9F031201389B9F03120138A49F031222
:1010E3000138B09F03120138C39F03120138FF9FD9
:1010F3000312013815A00312013874A0031201383A
:10110300EF8803120138FC88031201381689031291
:101113000138558903120138938903120138F8897C
:10112300031201380D8A03120138188A0312013899
:10113300258A031201383C8A031201384A8A0312B2
:101143000138558A03120138618A03120138708A03
:10115300031201387B8A031201389E8A0312013875
:10116300478B03120138578B03120138718B03121B
:1011730001388E8B03120138AA8B03120138CF8BEF
:1011830003120138D98B03120138ED8B0312013896
:101193000C8C031201386D8C03120138738C03120B
:1011A3000138798C031201387F8C031201388B8C40
:1011B30003120138BE8C0312013805800212013874
:1011C30087800212013830810212013878820212BC
:1011D30001388684021201386C8502120138A18518
:1011E30002120138C385021201386C8602120138DB
:1011F3003C8802120138658802120138DD88021228
:1012030001380F89021201381C89021201386789DB
:10121300021201388B8902120138DC8B0212013869
:10122300E68C02120138428D0212013825CA0112DE
:10123300013836CB011201381ACC0112013824CC03
:101243000112013846CC0112013852CC0112013887
:10125300F6CD0112013823CE0112013839CF011224
:1012630001388ECF01120138DDD001120138B2D11D
:10127300011201380ED20112013879D2011201385C
:10128300AED201120138F1D201120138BBD50112DD
:101293000138D3D50112013864D60112013872D650
:1012A30001120138BFD601120138CDD6011201381F
:1012B30039D701120138B4D7011201380BD8011202
:1012C3000138A3F401120138C5F401120138D6F62E
:1012D3000112013895F901120138BFFA01120138E0
:1012E3007DFB0112013869FC0112013860AC031265
:1012F300013885AC03120138FBAC0312013889D6DF
:101303000212013892D6021201389BD6021201381A
:1013130073D70212013824D90212013854D90212A8
:1013230001387FD902120138AFD902120138DAD954
:10133300021201380EDA021201383ADA02120138C7
:101343007DDA02120138A8DA02120138EFDA02124A
:10135300013844DB0212013886DB02120138E0DB7C
:10136300021201380BDC021201385ADC0212013876
:101373008ADC02120138B5DC02120138E3DC021206
:10138300013806DD02120138BEB903120138EAB989
:101393000312013817BA0312013821BA03120138B4
:1013A30031BA0312013832BB03120138C1FF0112F3
:1013B300013889BB03120138B1BB03E06670100822
:1013C300A3E066700A08A3E066700408A3E066223F
:1013D300C3E7960809E7960809E7960809E79622FE
:1013E300C3E09608A3E09608A3E09608A3E096223C
:1013F300C008C3E096F50808A3E096420808A3E0F6
:1014030096420808A3E09645087001D3D008220845
:101413000808EAC0E0EBC0E086F0E7A4FA18098602
:10142300F0E7A42AFA180986F0E7A42AFA1809862D
:10143300F0E7A42AFA1986F0E7A4FBE5F02AFA19E3
:101443000886F0E7A42BFBE5F03AFA190886F0E7E3
:10145300A42BFBE5F03AFA18180986F0E7A4C5F0C7
:101463002BFBE43AFA1908E7C5F0C6A426F6E5F023
:101473003BFBE43AFA1886F0E7A4F6E5F00826F613
:10148300E43B08F6E43A08F6D0E0FBD0E0FA22E4C5
:10149300CFC0E0E4CEC0E0E4CDC0E0E4CCC0E07572
:1014A300F020C3E633F608E633F608E633F608E63B
:1014B30033F6181818EC33FCED33FDEE33FEEF333F
:1014C300FFC3EC9709ED9709EE9709EF97191919DF
:1014D300400FFFEC97FC09ED97FD09EE97FE1919F4
:1014E30006D5F0BEECF709EDF709EEF709EFF719AA
:1014F3001919D0E0FCD0E0FDD0E0FED0E0FF22607F
:1015030016080808C6C313C618C613C618C613C6DA
:1015130018C613C6D5E0EA22700908080822601627
:10152300181818C6C333C608C633C608C633C60858
:10153300C633C6D5E0EA22E627F60809E637F608F9
:1015430009E637F60809E637F622E026F608A3E0AF
:1015530036F608A3E036F608A3E036F622E026F0D6
:1015630008A3E036F008A3E036F008A3E036F02243
:10157300C3E697F60809E697F60809E697F6080919
:10158300E697F622C3E096F008A3E096F008A3E0FE
:1015930096F008A3E096F022E056F608A3E056F68C
:1015A30008A3E056F608A3E056F622E056F008A397
:1015B300E056F008A3E056F008A3E056F022E0F668
:1015C30008A3E0F608A3E0F608A3E0F622E6F00895
:1015D300A3E6F008A3E6F008A3E6F022E0FAA3E00E
:1015E300FBA3E0FCA3E0FD22EAF0A3EBF0A3ECF005
:1015F300A3EDF022CAC0E0E6F0A308DAFAD0E0FADD
:1016030022CAC0E0E0A3C582CCC582C583CDC58311
:10161300F0A3C582CCC582C583CDC583DAE6D0E00D
:10162300CA22C3E498F8E499F91216668026C3E443
:101633009AFAE49BFBE920E7E9121666E498F8E4DA
:1016430099F922C3E498F8E499F9121666E498F834
:10165300E499F9C3E49AFAE49BFB22EB20E7CFE990
:1016630020E7E0B90010BB0008E88AF084F8AAF08C
:1016730022E4FBC8FA22EB70227B10C833C8C933BB
:10168300C9335007C39AC3DBF280069A50012ADBA1
:10169300EAC833F4C8C933F4C9FA2275F008E4C8B8
:1016A30033C8C933C933C99AC99B5004C92AC93B32
:1016B300D5F0ECFBC833F4C8E4C9FA22600D08C6C0
:1016C300A2E713C618C613C6D5E0F322600C08C6FA
:1016D300C313C618C613C6D5E0F422700422600DE6
:1016E30018C6C333C608C633C6D5E0F41822251876
:1016F30010AF08F518400215198008F518400215B7
:1017030019D2AF22C0D0251810AF08F51850020522
:10171300198008F51850020519D2AFD0D022251828
:10172300F58210AF08F518400215198008F5184026
:10173300021519D2AF851983222518F582E43519CC
:10174300F58322E4732518C582C0E0E51934FFC58B
:1017530083C0E0E518C3958224F810AF0885831988
:101763008582188008858319858218D2AFCEF0A3AD
:10177300E520F0A37808E608F0A3DEFAEFF0A3E58E
:101783008124FAF8E608F0A3E608F0A3E608F0A33C
:101793000808E608F0A3E608F0A315811581D0E058
:1017A300FED0E0F8158115811581E8C0E0EEC0E0B8
:1017B300222518C582C0E0E51934FFC583C0E0E5E2
:1017C30018C3958224F910AF088583198582188080
:1017D30008858319858218D2AFCEF0A3E520F0A344
:1017E3007808E608F0A3DEFAEFF0A3E58124FBF81E
:1017F300E608F0A3E608F0A30808E608F0A3E60865
:10180300F0A315811581D0E0FED0E0F81581158194
:10181300E8C0E0EEC0E022851983851882E0A3FECC
:10182300E0A3F5207808E0A3F608DFFAE0A3FFE0E1
:10183300A3C0E0E0A3C0E0E0A3C0E0E0A3C0E0E019
:10184300A3C0E010AF0885821885831980088582BC
:1018530018858319D2AFD083D082020135851983CD
:10186300851882E0A3FEE0A3F5207808E0A3F6083C
:10187300DFFAE0A3FFE0A3C0E0E0A3C0E0E0A3C081
:10188300E0E0A3C0E010AF088582188583198008C3
:10189300858218858319D2AFD083D08222C0D02508
:1018A30018C582C0E0E51934FFC583C0E0E518C35D
:1018B300958224F310AF08858319858218800885E3
:1018C3008319858218D2AFC8F0A3E9F0A3EAF0A385
:1018D300EBF0A37908E709F0A3D8FAECF0A3EDF055
:1018E300A3EEF0A3EFF0A3D0E0F0A3D0E0F0A3D0F9
:1018F300E0F0A3E520F0A3E5F0F0A32285198385AA
:101903001882E0C0E0A3E0F9A3E0FAA3E0FBA37828
:1019130008E0F608A3DFFAE0FCA3E0FDA3E0FEA3E2
:10192300E0FFA3E0C0E0A3E0C0E0A3E0F5D0A3E0C4
:10193300F520A3E0A3F5F010AF088583198582187D
:101943008008858319858218D2AFD082D083D0E0F6
:10195300F8D0E03274048006740280027401C0E09F
:10196300F404121721D0E01215F7227404800474D2
:10197300028000CCC0E0EDC0E0E518C39CCCAD19FB
:1019830050011D10AF068C188D1980068C188D1907
:10199300D2AF121604D0E0FDD0E0FC22D083D08277
:1019A300E9C0E0E493A3C386F0C5F095F0F908E439
:1019B30093A386F0C5F095F0700BE493A3C399400D
:1019C30005E9048002A3E475F002A42582F582E50B
:1019D300F03583F583D0E0F9E493A3C0E0E493C04A
:1019E300E022D083D082ECC0E0EDC0E0E493A3FC1E
:1019F300E493A3FDED4C600D121A31EC24FFFCEDD2
:101A030034FFFD80EFE493A3FCE493A3FDED4C606E
:101A13000D121A70EC24FFFCED34FFFD80EFD0E0D3
:101A2300FDD0E0FCE493A3C0E0E493C0E022C0E077
:101A3300C3E49396087401939618400FE493667079
:101A43000808740193661870007019A3A3C3E49384
:101A530096087401939618A3A3400DD0E0D0E0D06C
:101A6300E0021A21A3A3A3A3A3A3D0E022C0E0C052
:101A7300F088F0E4936670080874019366187000A8
:101A8300A8F0A3A3700BD0F0D0E0D0E0D0E0021A0E
:081A930021A3A3D0F0D0E02252
:101A9C00C0E074F21218A0A2AFE433FED2AFC2C001
:101AAC00E5D1A2E4500653D1EF120722751A00EECD
:101ABC00A2E092AF7F010218FFC0E0C0D0E8C0E006
:101ACC00E5A8D2AFC2C7751A00A2E792AFD0E0F872
:101ADC00D0D0D0E032C0E0C0D0E8C0E0C082C0833B
:101AEC00E5A8F8D2AF758900C2C59003B87401F0AF
:101AFC00751A00E8A2E792AFD083D082D0E0F8D07C
:101B0C00D0D0E032C0E0C0D0E8C0E0E9C0E0C0080E
:101B1C00C009C082C083A2AFE433F9D2AF90053CB8
:101B2C00E0F8A3E0687008539AFBA374018026C206
:101B3C00E990053CE0F50874012508F074BC250813
:101B4C00F58274043400F583E0F5C190053CE0C3E4
:101B5C0094804002E4F0E9A2E092AFD083D082D02E
:101B6C0009D008D0E0F9809474F51217B4EAFEEBB2
:101B7C00FFEE2434F8EF3400F988088909EE243597
:101B8C00F582EF3400F583E0F8EE2437F582EF347C
:101B9C0000F583E0F50AEC850AF0A4FCAAF0850AAE
:101BAC00F0EDA42AFDE82CF8E43DF97A257B00122F
:101BBC001666EA850882850983F05407F87401B823
:101BCC0000028004C333D8FCC0E0E0131313541F8D
:101BDC00F8EE28F8EF3400F9E8245DF582E93400DA
:101BEC00F583D0E0F8E0586008EE2434F582EF80FD
:101BFC001EEE2436F582EF3400F583E0F5F0EA842E
:101C0C00A8F0EE28F8EF3400F9E82438F582E9342E
:101C1C0000F583E0F97F0402186074F51217B4EA3A
:101C2C00FEEBFFEE2434F582EF3400F583E0C0E0E8
:101C3C00EE2435F582EF3400F583D0E0F08E828F00
:101C4C0083A3A3A3A3A3A3A3C082C0838E828F83E9
:101C5C00A3A3A3A3A3E0F8A3E0F9D083D082E0C3AD
:101C6C0098F508A3E099F509EE2480F582EF34008D
:101C7C00F583E064017069EE2481F582EF3400F5A0
:101C8C0083E0F8A3E0F98E828F83A3A3A3A3A3A37D
:101C9C00A3E0FCA3E0FD8E828F83A3A3A3A3A3E008
:101CAC00FAA3E0FBC3EA9CEB9D5027C3EC98ED999B
:101CBC00402EC3EA98EB9950277C737D0AEEFAEF1D
:101CCC00FB120F9EEE2480F582EF3400F583E4F0D6
:101CDC00800EC3EA98EB9940E0C3EC98ED9950D98B
:101CEC00EE2434F8EF3400F9E8FCE9FDEE2435F588
:101CFC0082EF3400F583E0F8EE2437F582EF340000
:101D0C00F583E0F50AE508850AF0A4F508AAF08544
:101D1C000AF0E509A42AF509E82508F8E43509F9DB
:101D2C007A257B00121666EA8C828D83F05407F8B4
:101D3C007401B800028004C333D8FCC0E0E0131374
:101D4C0013541FF8EE28F8EF3400F9E8245DF582FF
:101D5C00E93400F583D0E0F8E0586008EE2434F55F
:101D6C0082EF801EEE2436F582EF3400F583E0F529
:101D7C00F0EA84A8F0EE28F8EF3400F9E82438F5FE
:101D8C0082E93400F583E0F9122621021C21C0827D
:101D9C00C083851882851983E0F8A3E0F9C3EA9C17
:101DAC00EB9D5012C3EC98ED994019C3EA98EB994E
:101DBC00501279018010C3EA98EB9940F5C3EC9866
:101DCC00ED9950EE7900D083D08222EAC39CFAEBD5
:101DDC009DFB22008521878522C622C0E0C0D0E869
:101DEC00C0E0E9C0E0EAC0E0EBC0E0ECC0E0EDC070
:101DFC00E0C008C009C00AC00BC082C083C0F07527
:101E0C009B00906182E0A2E64003021EC5E591A210
:101E1C00E64003021EC57591BF900938E064057059
:101E2C00081210D61210E280031210DC7521001279
:101E3C00113CE9900939F07900121130120F147A23
:101E4C00017B00900937E0F912042E907803E064CE
:101E5C00426003021F0E900AD5E014F06003021FCB
:101E6C000EC2AF121E7200782AD0E0F618D0E0F63F
:101E7C00E59F5407F9700590840080039083FC78EB
:101E8C00081215C1E9C4C0E07829E65508F5080820
:101E9C00E65509F509740B78081216CFD0E0250821
:101EAC00F8906270E0A2E740F8E8C333906272F0F9
:101EBC00906270E0D2E0F08049E0A2E55024E59118
:101ECC00A2E5501E7591DF900938E0640D701390F7
:101EDC00095AE004F064287002E4F07A00E0F91288
:101EEC0011AE906181E0A2E35009E5E9A2E3500351
:101EFC0075E9F7A3E0A2E75009E591A2E750037555
:101F0C00917FD0F0D083D082D00BD00AD009D008EA
:101F1C00D0E0FDD0E0FCD0E0FBD0E0FAD0E0F9D08E
:101F2C00E0F8D0D0D0E032C0E0C0D0C082C0839006
:101F3C006183E0A2E05009E5BFA2E0500375BFFE4B
:101F4C00E0A2E15009E5BFA2E1500375BFFDE0A29C
:101F5C00E25009E5BFA2E2500375BFFBE0A2E350DB
:101F6C0009E5BFA2E3500375BFF7E0A2E45009E511
:101F7C00BFA2E4500375BFEFE0A2E55009E5BFA294
:101F8C00E5500375BFDFE0A2E65009E5BFA2E650BD
:101F9C000375BFBFD083D0828088C0E0C0D0E8C0BA
:101FAC00E0E9C0E0EAC0E0EBC0E0ECC0E0EDC0E08E
:101FBC00C0F0E5A7A2E6500FE5A1A2E6500953A791
:101FCC00BF75A1BF12200BE5A7A2E5500CE5A1A29D
:101FDC00E5500653A7DF75A1DFE5A7A2E15009E59F
:101FEC00A1A2E1500375A1FDE5A7A2E2500CE5A169
:101FFC00A2E2500653A7FB75A1FBD0F0021F1C7484
:10200C00F81217B4752101900938E06406701512A6
:10201C00106A8A828B83A3A3A3A3A3A3E0FAA3E0F1
:10202C00FB1210C4A2AFE433FED2AF90093EE064C1
:10203C000170187A207B00900937E0F91204D67AE7
:10204C00207B00900937E0F9120434906182E0D2D1
:10205C00E6F0900AD4E0602185C622801690093DF6
:10206C00E064017008E5C654F84405F5C653BEFC9F
:10207C00121DE07401652160E4EEA2E092AF7F01D5
:10208C00021860008E238F2485822885832785186B
:10209C0082851983E0CEA3E0CF852882852783EB48
:1020AC00C9EAC8EDCBECCA75F010C3E833C8E93304
:1020BC00C9EA33CAEB33CBC3EA9EF526EB9FF52571
:1020CC00B35004AB25AA26EC33CCED33CDD5F0DAE6
:1020DC00AE23AF242274EB1217B474FA1216F18AE1
:1020EC00088B098C148D15900938E024F7C39405DE
:1020FC00500690843802224312106A8A0A8B0BAE67
:10210C000AAF0BEE4F7003022240AC08AD098518E4
:10211C0082851983AA82AB831210F48E828F83A3DB
:10212C00A378081215C1908440780812159B851865
:10213C0082851983780C1215C1908440780C121585
:10214C009B7808790C1213D3501F7808790C121550
:10215C00739083CC78081213F340478508108509D7
:10216C0011850A12850B138041850C10850D118584
:10217C000E12850F13781079081215739083CC7892
:10218C00101213F3501C75100075110075120075A8
:10219C0013017810790C1215737810790812153A0E
:1021AC00800890843878101215C1740978101215B3
:1021BC001B9083C878081215C178107908121492F4
:1021CC008E828F83A3A3A3A3A3A3E0F8A3E0F97A41
:1021DC00D07B0312166688088909E4F50AF50B789A
:1021EC0010790812153A740412173CE0F8A3E0F9C0
:1021FC007AD07B03121666E8FA8A08E4F50978109F
:10220C0079081213D35007781079081215739009B6
:10221C0038E06408600AE064066005E06405701C40
:10222C009083C478101213F350129083C07810125C
:10223C00154D80089083DC78101215C185148285A9
:10224C00158378101215D074061217077F0E02181A
:10225C006074F71217B4121106900AD2E064017080
:10226C0010906245E4F0A3F053F4F343FE0C53904A
:10227C00F31210B2E5C654804449F5C6E59E547F6E
:10228C00644970F8906185740FF0900AD0E0F47096
:10229C0002A3E0604E900AD1E0600814601B146049
:1022AC002E8040750801750900900AD0E07808125C
:1022BC0016DEE508F45280802A7508017509009035
:1022CC000AD0E078081216DEE508F45290801475F6
:1022DC000801750900900AD0E078081216DEE508AE
:1022EC00F452A079007F0202186074F71217B4E957
:1022FC00FEEAFF74016E700C7A807B00900937E067
:10230C00F912042E902630E493F46008E493F91249
:10231C000F08800953C680E59E547F70FA1210B8DE
:10232C00900AD2E064017003120F20900AD0E0F4FE
:10233C007002A3E0604B900AD1E0600814601A149C
:10234C00602C803D750801750900900AD0E0780872
:10235C001216DEE508428080287508017509009088
:10236C000AD0E078081216DEE50842908013750852
:10237C0001750900900AD0E078081216DEE50842D3
:10238C00A012110612106A8A088B09A808A909E87C
:10239C00496015E5E170FCE82414F582E93400F598
:1023AC0083E0F46003E0F5E174016F700A7A019048
:1023BC000937E0F91204A00222F174F11217B48A61
:1023CC00088B098C0A8D0B740F12173C780C1215A4
:1023DC00C1908440780812159B908440780C12159B
:1023EC009B7808790C1213D350157808790C1215B8
:1023FC00739083CC78081213F3401579018013780D
:10240C000C79081215739083CC780C1213F340EBF3
:10241C0079007F0802186074ED1217B48A088B09D2
:10242C008C0A8D0B741312173C780C1215C1908406
:10243C0040780812159B908440780C12159B780CF0
:10244C0079081213D340117808790C121573AA0865
:10245C00AB09AC0AAD0B802275100075110075121A
:10246C00007513017810790C121573781079081215
:10247C00153AAA10AB11AC12AD137F0C0218609078
:10248C00844078081215C18A828B8378081215AEA5
:10249C007F0402186074F51217B48C828D8378084F
:1024AC001215C18A828B837808121587EA2404F8E6
:1024BC00EB3400F98C828D83A3A3A3A3E0FCA3E0EF
:1024CC00FD88828983C3E09CF0A3E09DF08882891B
:1024DC0083C3E09420A3E0944E40229083BC780800
:1024EC001215C18A828B8378081215608A828B83BD
:1024FC00A3A3A3A3E02420F0A3E0344EF0808074C7
:10250C00F51217B4E9FE900A8AE0FAA3E0FBEEC3D9
:10251C0033F8E433F9748F28F582748239F583E04B
:10252C002AF508A3E03BF509780812195B9083B4EF
:10253C001215DF12209074021217078A088B098C6F
:10254C000A8D0B74107808121502AA08AB097F04C7
:10255C0002186074F11217B48A0C8B0D8C0E8D0F4F
:10256C00740F12173CE0FAA3E0FB741112173CE055
:10257C00F508A3E0F509741312173CE0FEA3E0FF85
:10258C00780812195BEA2401F508EB3400F509E42C
:10259C00F50AF50B780C79081214129083B87808A8
:1025AC001215C1780C7908121412AA0CAB0DAC0ED2
:1025BC00AD0F12209074021217078B09EA450960BF
:1025CC00047A0180027A00EC2AFCED3400FDECF870
:1025DC00EDF97A717B0212166688088909E4F50A0E
:1025EC00F50B8E828F8378081215D0ECF8EDF97A02
:1025FC00717B021216668A088B097405780812160C
:10260C00DE8E828F83A3A3A3A3E508F0A3E509F0D4
:10261C007F08021860C082C083E9906000F0D0830C
:03262C00D0822237
:10263000FFFFFFFFFFFFFFFFC082C083E9900F0F86
:10264000F002285774F7121748E9900856F07C8E6C
:102650007D087AFF7BFF120C4490085774FFF0A3AB
:10266000F0A3E4F0A3F07905120BD2900856E0F93C
:10267000120AFA7A5C7B0C120E1E02356574F41293
:1026800017488A088B09EB54806030900856E0F9AF
:102690001204168A0A8B0BAE0AAF0BEE4F60138E34
:1026A000828F83E064B07003120BE4EEFAEFFB124A
:1026B0000404AA08E5096480FB80047A007B000218
:1026C000282674F212174874FC1216F1EAFEEBFF8A
:1026D000741212173C123A4CEE4F700302276574C5
:1026E0000212173CEEF0A3EF122A61ECF0A3ED12F8
:1026F0002A61AA82AB83120AF4E9F50A706AE50836
:10270000450960648E828F83123A32EE4F60567AAA
:10271000067B001204888A0C8B0DA80CA90DE849D1
:102720007005750A13804188828983E4122772EE4E
:10273000F0A3EF123A5DE508F0A3E509F090085C1C
:102740001227F990085C700512350F801B1234FDBA
:102750008003EAFCEBFD8C828D831227F970F38CE9
:10276000828D8380E3750A02A90A74041217070296
:102770003C4CF0A3123A03A32274F2121748890AC0
:10278000E975F017A4FEAFF090085BE4F0900859EB
:102790001227F9600A12048E900859E4F0A3F0EEB3
:1027A000FAEFFB1204888A088B09EA4509602FEECC
:1027B000FCEFFD79001203EC900859E508F0A3E561
:1027C00009F07B0080081227E3E4F0A3F00BEBC3D1
:1027D000950A40F2E50A90085BF0790080027913CF
:1027E000023C4CEB75F017A4F8A9F0900859E028CA
:1027F000FAA3E0398A82F583221231A1EA4B2274CE
:10280000F41217487900EAA2E0501B7508697509AF
:1028100083780812195B7C047D007A117B0F120B00
:10282000CC74021217077F0402181AC082C083906A
:10283000085C12285E601C88828983A3A3E06A700A
:1028400003A3E06B8882898370E8A3A3A3A312315A
:102850009D80047A007B00D083D082020135123D36
:1028600032E8492274EE12174874FC1216F1EAFE9F
:10287000EBFF851882851983E4F0A3F0EE240212A1
:1028800034EFEE2405123A0AEE2404F50EEF122E70
:1028900016E024FE603924FC604624FE605224FECB
:1028A000605E24FE700302297724FE70030229DB98
:1028B00024FE70030229EA24FE70030229F924FC95
:1028C0007003022A0824FE7003022A17022A549079
:1028D00008757417F0A3E4122A69120872022A54C8
:1028E000851882851983AC82AD83120BEA022A24F3
:1028F000851882851983AC82AD83120BF0022A24DD
:10290000850C08850D09740212173CAC82AD8385D5
:10291000088285098312319D120B188A0C8B0DAC2D
:102920000CAD0DEC4D603BE4F50CF50D780C121977
:102930005B750C75750D08780C12195B750C767546
:102940000D08780C12195B740812173C12197212D8
:102950003D56121707E9F50C700B12319312088AD5
:10296000800F750C01850882850983122A5712355C
:102970000F850C08022A27740212173CAC82AD8323
:10298000850C82850D83122F68603C850C82850D35
:1029900083A3A31219727510757511087810121996
:1029A0005B751076751108781012195B7408121790
:1029B0003C121972123D56121707E9F509700B12F5
:1029C0003193120890800F750901850C82850D8363
:1029D000122A5712350F850908804C8518828519EF
:1029E00083AC82AD83120BF6803A851882851983F9
:1029F000AC82AD83120BFC802B851882851983ACC9
:102A000082AD83120C02801C851882851983AC82EA
:102A1000AD83120C08800D851882851983AC82ADB8
:102A200083120C0EE9F508E50860298E828F83A3D6
:102A3000E06414601F850E82850F83E09008751294
:102A40002A61123D2E90087612350FE508A3122A4E
:102A50006912086C0233FE123D3285188285198393
:102A600022F085188285198322F07C757D08850AFD
:102A700082850B831231A12274EE12174874FC1266
:102A800016F18A0A8B0B8C0E8D0FEA2405F508EBE4
:102A90003400F5097C157D0079007A757B081203F6
:102AA000ECE5082402F50CE509123A0D851882853B
:102AB0001983858210858311781012195B8508822D
:102AC000850983A3A3A3A3122F5F12195BE5082432
:102AD00005F510E5093400F511781012195B850C25
:102AE00082850D831232B4120B1274061217078AF4
:102AF000108B11AE10AF11E50A2402F50AE50B1296
:102B000034F2EE4F7003022C368017740212173C19
:102B100012319D88828983EAF0A3EBF0900875E07A
:102B200004F0900875E0C394054003022C36E4F5E8
:102B300010F511781012195B75105E751108781078
:102B400012195B75105F751108781012195B740605
:102B500012173C1219727910EEFCEFFD123D58125B
:102B60001707E9705E850882850983A3A3A3A3A341
:102B7000A3A3E0F890085EE0687048122F5F121976
:102B80005B7C5F7D08E5082408FAE5093400FB1248
:102B900003E67402121707E960298E828F83A3A3CC
:102BA000A3A312319D900875E0F5107402781012FD
:102BB00016DE74762510F58274083511F583EAF077
:102BC000A3EBF0740212173C8582108583117810F4
:102BD00012195B740212173C121972850C82850D52
:102BE000831231C31217078A108B11AE10AF1190E8
:102BF0000875E0F510751100740278101216DE7475
:102C0000752510F874083511F988828983A3122775
:102C1000F97003022B02E82403080808E93400F9DC
:102C2000EE4F6003022B0B8882898374FFF0A3F0C0
:102C3000900875E004F0900875E0600A1231931274
:102C4000087E7900800B8508828509831235067914
:102C50000A0233FE74EA12174874FE1216F18C123F
:102C60008D13EA2405F50CEB123D40123A36750837
:102C700000750900EA2402F510EB3400F5118518FF
:102C80008285198385820A85830B780A12195B85F0
:102C90000C82850D83A3A3A3A3122E2C12195BE52E
:102CA0000C2405F50AE50D1234F2780A12195B8539
:102CB0000C82850D83122E30120B12740612170728
:102CC0008A0A8B0BEA450B7003022DD1EA2404F526
:102CD0000EEB122E16123A368A828B83A3A3A3E040
:102CE000F98510828511831231A76003022DD1E48A
:102CF000F514F515781412195B75145E75150878BE
:102D00001412195B75145F751508781412195B7429
:102D10000612173C1219727913AC0AAD0B8510829A
:102D2000851183123D5E121707E9F5096003022D34
:102D3000D190085EE0F8E5087009E024029008767A
:102D4000F08014900876E0FCE82402FAE43400FBFA
:102D5000EA6C7001EB707E850882AA82122F56946D
:102D600014122F4E506B850E82850F83E0C0E074E5
:102D7000772A122E0DD0E0F00508850E82850F838C
:102D8000A3E0C0E085080A7477250A122E0DD0E072
:102D9000F0050890085E122E2C12195B7C5F7D08EE
:102DA00085080A7477250A122E2012170790085EEC
:102DB000E02508F50874FF6E700374FF6F6012EE73
:102DC00024010EEF3400FFE508C394145003022CD5
:102DD0007EE50860131231B18510828511831231AE
:102DE0009D12088479008014E509700375090A852D
:102DF0001282851383EEF0A3EFF0A9097402121773
:102E0000077F0E02181A85080C7477250CF582745A
:102E1000083400F583223400F50F850E82F58322F5
:102E2000FA74083400FB1203D4740222123A6C22A2
:102E3000A3A3122E36221234FDFDEEFAEFFB22740C
:102E4000EE12174874FE1216F18C0E8D0FEA24054F
:102E5000F50CEB123A0D750B00900875E4F0F50ACD
:102E6000EA2402F508EB3400F5098044900875E087
:102E7000FA90085EE0F8122F569417122F4E400D6C
:102E8000900875E0F87416C39890085EF0122F5FF2
:102E900012195B7C5F7D0874762AFA7408122E235F
:102EA00012170790085EE0F8900875E028F0050A10
:102EB000E50C2416F582E50D122E11E0F8E50AC3A3
:102EC000985074900875E0C39416506BE50AC333AC
:102ED000F8E433F9E50C28FEE50D39FF8518828505
:102EE0001983AC82AD838E828F83122F6870087530
:102EF0000B011235028050E4F510F511781012190B
:102F00005B75105E751108781012195B75105F758E
:102F10001108781012195B740612173C1219727995
:102F200016850882850983123D5E121707E9F50BA5
:102F30007003022E6C80BB7C757D08850882850934
:102F40008312319D120896A90B7402023400E99491
:102F500000C365D03322EA28F8E43400F9E822E01F
:102F6000F5107511007810221233F58A108B11AC10
:102F700010AD11EC4D2274EA12174874FC1216F1D0
:102F80008A0C8B0D8C128D13EA2405F50AEB123492
:102F9000F2750800750900E50A2402F510E50B3406
:102FA00000F511740212173C85820E85830F780E8E
:102FB00012195B850A82850B83A3A3A3A3123A127D
:102FC00012195BE50A2405F50EE50B3400F50F78C0
:102FD0000E12195B8510828511831234F812319715
:102FE000120B1274061217078A0E8B0FAE0EAF0F5C
:102FF000E50C2402F50EE50D3400F50F80388882CB
:10300000898374FFF00508122E0674FFF0050890FE
:10301000085EE0F50C750D00780C12195B7C5F7D85
:103020000885080C7477250C122E201217079008BB
:103030005EE02508F508EE4F60278E828F83A3A3FC
:10304000A3E0F9850E82850F831231A7EE240412C6
:103050003A0AE96027850C82850D83123189123581
:103060000FE508700302316F1231B1850E82850FB2
:103070008312319D12089C7900023184E4F514F525
:1030800015781412195B75145E75150878141219E9
:103090005B75145F751508781412195B74081217A4
:1030A0003C1219727911EEFCEFFD850E82850F83BB
:1030B000123D5E121707E9F509709A850882AA8207
:1030C000EA90085E7009E02404900876F08025E01C
:1030D000F8900876E0F514E82404FCE43400FDECF4
:1030E00065147001ED7081122F569412122F4E400C
:1030F00003023068850C82850D83E0C0E074772A76
:10310000122E0DD0E0F00508850C82850D83A3E01A
:10311000C0E0122E06D0E01231CC85820C85830DE2
:10312000780C12195B740412173C12197285108204
:103130008511831231C31217078A0C8B0DAE0CAFA9
:103140000D85080C7477250CF874083400F9EE4FDF
:103150007003022FFE851882851983E08882898397
:103160001231CCA3E0C0E0122E06D0E002300CE514
:1031700009700375090A850A82850B831231891249
:10318000350FA9097404022DFE123D328512828585
:103190001383227C757D08850A82850B831231A1F9
:1031A00022E0FAA3E0FB221231A1120B00E9F5099B
:1031B00022900876E0F5F0E50884900875F07C75BB
:1031C0007D0822122E36120B1E740422F00508858B
:1031D00018828519832274EC12174874FE1216F1B6
:1031E0008A088B098C0E8D0FEA2405FEEB3400FF54
:1031F0001233DFEE2418123A0AEA450B700302324A
:10320000821233C850291232A78A108B11EA451155
:10321000606B7912AC0AAD0B850882850983123187
:103220009D851082851183121746E9F50A7058E4CE
:10323000F50AF50B780A12195B8E828F83A3A3E03F
:10324000F50A780A12195BEE24031234EF780A1299
:10325000195B8E828F831232B4120C3274061217ED
:1032600007E9F50A7021850C82850D83E0701F85C2
:10327000088285098312319D1208A28011750A0EF9
:103280008009750A018004E50A6003123502850C85
:1032900082850D83E0600479008002A90A7402121D
:1032A00017077F0C02181A8518828519831231A11D
:1032B000120C20221234FDFD85088285098312310B
:1032C000A12274EE12174874FE1216F18A088B09B7
:1032D0008C0C8D0DEA2405FEEB3400FF750E0012F8
:1032E00033DFEA450B70030233A61233C8502C12A9
:1032F00032A78A0E8B0FEA450F604A7912AC0AADED
:103300000B85088285098312319D850E82850F8386
:10331000121746E9F50E60030233A9850882850974
:10332000831235E4AA0AFB1233BA70147AFF7BFFCA
:103330001233BA606C88828983E50AF0A3E50BF04A
:10334000750A008007750E0E805F050A90085BE025
:10335000FAE50AC39A504AE50A75F017A4FAABF0E9
:1033600088828983A3A3E02AFAA3E03BFB8A828BAD
:10337000831234F8EC4D70D2750A17750B00780A79
:1033800012195BEEFCEFFD1203D47402121707EE64
:10339000FCEFFD85088285098312319D1208A88003
:1033A00014750E098003750E01123D2A850C828565
:1033B0000D8312350FA90E022F49120C148A108B9F
:1033C00011A810A911E84922E5082402F508E50929
:1033D0003400F5098A828B83A3A3A3E0A2E52285AA
:1033E0001882851983AC82AD838E828F831233F568
:1033F0008A0A8B0B22E0FAA3E0FB120B182274045A
:103400001217077F0A02181A74EC1217488C108DD5
:1034100011EA2405F50CEB123A0D750F00EA2402AF
:10342000F50AEB1234F2850A82F58312319D123DC2
:10343000E470030234E4750E008071850C82850D02
:1034400083E06401704F8E828F83A3A31219728E62
:10345000828F83A3A3A3A3E0F51275130078121241
:10346000195BEE2405F512EF3400F51378121219EA
:103470005B123197120C327406121707E9F50F60D0
:1034800014850C82850D83E4F0123D2A8510828517
:10349000118312350F7C177D007900EEFAEFFB12D5
:1034A00003EC8E828F83E4F0A3F0050E90085BE0BE
:1034B000F8E50EC398501EE50E75F017A4F8A9F0B4
:1034C000850882850983A3A3123D4A1234F8EC4D86
:1034D000600302343B85088285098374FFF0A3F002
:1034E000E50F70061231971208AEA90F0232A2F54D
:1034F0000AEF3400F50B22A31234FDFD22E0FCA3F9
:10350000E0228E828F83123D32850E82850F83E802
:10351000F0A3E9F022C082C083900857E06A7003EC
:10352000A3E06B70067A577B0880047A007B000268
:10353000285774F71217487F00EF75F003A4F8A915
:10354000F0EC28F8ED39F988828983E06A7003A3EA
:10355000E06B7006E8FAE9FB800B0FEFC3940240C2
:10356000D87A007B007F0102181A74F612174812ED
:103570003B1B70067A007B008007A3A3A3A3123134
:103580009D023BDC74F2121748E9FE740E12173CE0
:103590001235E4741012173C123A4C8C828D83E081
:1035A0006402703BA3123D2E88828983E0F50CA350
:1035B000E0F9A80C74026870037429697021750C15
:1035C00002750D00780C12195B780812195B780AE5
:1035D00012195BEEF9120C56740612170780027965
:1035E00001023C4CE0F50AA3E0F50B2274E8121747
:1035F0004874FB1216F1E9851882851983F08A1642
:103600008B178C0E8D0F741F12173C123A4C7421BD
:1036100012173C1235E4742312173C123A36751017
:10362000008C828D83A3A3A3E0A2E4502A741D1210
:10363000173C1232AD8A828B83E582458370030288
:1036400036F8790AAC0EAD0FAA16AB17121746E979
:10365000F51060030236FB850E82850F83E064025D
:1036600060030239B1A3123D2E850882850983A328
:10367000858212858313E50E2406F50CE50F123AB8
:103680000D88828983E0FAA3E0F9EA2400F514E4C6
:1036900039F51578141219E5010000280128C03603
:1036A000070002289737032807370029C138012966
:1036B000E938022990380329C13804295239B1392F
:1036C000EE4F703E850C82850D83123A27FAE9FB96
:1036D0008A828B83E0850A82850B83123A631219F2
:1036E0005B8A828B83A31234FDFDAA08AB09120307
:1036F000D47402121707800375100EA91074050206
:103700003D3875100B80F4EE4F70F7850A82850BFB
:10371000837401F0123A3C850882850983F07C00AD
:103720007D00850E82850F83A3A3A3A3E02401FA65
:10373000A3E03400FB120B18EA4B60418A828B83B2
:10374000E02402F8850A82850B83E028F0EA24044D
:10375000F8EB3400F988828983E08512828513832F
:10376000123A75123A6312195B8A828B831234F70C
:10377000E5082403FAE5093400FB0236EE850A82E7
:10378000850B83E02404F07C047D007900AA12AB51
:10379000131203EC0236FBEE4F6003023702123ABB
:1037A0003CFEA3E0FF850A82850B837404F0EE855E
:1037B0000882850983F0EF851282851383F07403F4
:1037C00012173CAC82AD83EEFAEFFB123B0970039B
:1037D00002386D8A828B83A3A3123A3274011217C6
:1037E0003C85820E85830F780E12195B74051217C3
:1037F0003C1219727CFF7DFF120B1E740412170716
:103800008B0FEA450F7033850C82850D83123A12B7
:1038100012195B850C82850D83A31219727C027DBF
:10382000007A6C7B8412094A7404121707E9700A43
:10383000740112173C74FFF0A3F08E828F83E06452
:10384000027034750C02750D00780C12195B8E82B3
:103850008F831234F7E5082404FAE509122E2312A7
:103860001707850A82850B83E02402800974011200
:10387000173CEEF0A3EFF0740112173C123A23F05C
:10388000740112173CA3123A1BA3A3A3F00236FB48
:10389000EE4F6003023702850C82850D831234F8E7
:1038A000AA16AB17120C4A850A82850B837402F0A4
:1038B000EA850882850983F0851282851383EB806F
:1038C000CBEE4F6003023702123A3CF8A3E0F985D1
:1038D0000A82850B837402F0E8850882850983F0EB
:1038E000E985128285138380A3850C82850D83125E
:1038F000319D1203CEEAFC8C82A882C39EE49F40D5
:103900004BE86E7001EF70047C00801F8518828583
:103910001983E0FAEE2AFAEF3400FBC3EA98EB943D
:10392000005003E08004EECCC39CFCEC850A828549
:103930000B83F08C0A750B00780A12195B850C82D8
:10394000850D83E02EFCA3E03F0236E975100702E7
:1039500036FBEE4F6003023702850C82850D831221
:103960003D2E850A82850B837407F0888289831235
:103970003A1B123A03E0851282851383F0E8240291
:10398000FAE93400FB8A828B83123A1B123A5412F2
:103990003A23A3123A5D123A2CF0E82405F8E934F0
:1039A00000F988828983123A2CA3123A75A302384F
:1039B00089741D12173C123B1470030236F8123D35
:1039C0002E880C890DE8450D70030236F88E108F95
:1039D00011781012195B780A12195B780812195BBA
:1039E000740612173CE0F9AC0EAD0FAA16AB1785A2
:1039F0000C82850D831217467406121707E9F5101D
:103A00000236FBF088828983A322F50CEF3400F59F
:103A10000D22E0F50E750F00780E22E085088285F4
:103A2000098322123A7C22123D32E822123A7CA308
:103A3000A322A3A3A3A3E0FEA3E0FF22850C82851B
:103A40000D83E0F8A3E0F5838882E022E0F508A387
:103A5000E0F50922A3A3F08A828B83A322122774A4
:103A6000A3A322F08A828B83123A6C22E0F50A75B6
:103A70000B00780A22123A03123A7C22E08508826F
:103A8000850983A3A32274EE12174874FE1216F15F
:103A90008A0A8B0BECFAEDFB741412173CE0F5105C
:103AA000A3E0F511741612173CE0FE741812173CCF
:103AB000E0F50EA3E0F50F851882851983AC82AD81
:103AC00083123B09603E851882851983123B14607E
:103AD0002FA3A3123A4CE50845096024780E121969
:103AE0005B781012195BEEF9AC0CAD0DAA0AAB0BAA
:103AF0008508828509831217467404121707800609
:103B0000790E80027901022F49120B188A0C8B0D55
:103B1000EA450D221231A1123B1B22120BDE8A82D2
:103B20008B83E58245832274F612174874FE1216C1
:103B3000F1740C12173C123A27851882851983F00C
:103B4000740112173CE9F0E4F508F5097808121938
:103B50005B750802780812195B740412173C8582A1
:103B600008858309780812195B120C327406121743
:103B7000077402121707806474F7121748EAFEEB05
:103B8000FF89087C8E7D08120C4AEA5402600BA95A
:103B900008EEFAEFFB120B0C800279010235657416
:103BA000F612174874FF6A700374FF6B701C7B0079
:103BB000EB75F003A4F8A9F0EC28F8ED39F9123B05
:103BC000E10BEBC39402501480E6120C1A8A088BA6
:103BD00009A808A909E8496003123BE17F0202181D
:103BE0001A8882898374FF122772E4F02274F61215
:103BF0001748120C1A8A828B83E58245836006A3DC
:103C0000A3E0FA80027A007B0080D174F212174898
:103C10008A088B09ECFEEDFF740E12173CE0F50AE2
:103C2000123C51701CEEFCEFFD7AFF7BFF123C5101
:103C300070047911801688828983E508F0A3E5096C
:103C4000F088828983A3A3E50AF079007F06021831
:103C50001A120C1A8A0C8B0DA80CA90DE8492274B3
:103C6000EE121748EAFEEBFF8C088D09890C7412DE
:103C700012173C123D2E741412173C1234F87416AD
:103C800012173C12319D750D00EC4D6003023D2270
:103C90007402650C6003023D1D888289831234FD25
:103CA000F9EC2400F50EE439F50FEAF4F8EBF4F939
:103CB000EC58F8E50F59F9E849705DE5082406F875
:103CC000E5093400F9880A890B8882F583122E32BF
:103CD000120C4A8A108B11E50E65107004E50F6511
:103CE000116042780E12195B850A82850B83122EB1
:103CF00032120C507402121707E9F50D7027780E76
:103D000012195B850882850983A3A3122E30120C39
:103D1000627402121707800D750D808008750D0DF5
:103D20008003750D0BA90D0234038E828F83123D23
:103D30003222E0F8A3E0F9221217077F1002181AC6
:103D40003400F50D850C82F58322E028FEA3E039CE
:103D5000FF8E828F83227916850A82850B8312312A
:103D6000A1120C2C74082274F2121748EAFEEBFF21
:103D7000890B7401650B600E7402650B7063790129
:103D8000120E3CE9705BEEFAEFFB123DE460477502
:103D90000A00800B7C177D0079001203EC050A9065
:103DA000085BE0F8E50AC3985021E50A75F017A40E
:103DB000F8A9F0850882850983A3A3E028FAA3E087
:103DC00039FB8A828B8312285E70C9850882850937
:103DD0008374FFF0A3F07C8E7D08EEFAEFFB120CEB
:103DE00044023C4C120C148A088B09EA45092274DF
:103DF000F21217488A088B09ECFEEDFF740E1217B9
:103E00003C1235E4900F0FE0F4603D7A097B00121C
:103E100003FEEA4B60328A828B8374B1F0A3E41212
:103E20003A56A3123A54A3E508F0A3E509123E4B13
:103E3000EEF0A3EF123E4BA3A3E50AF0A3E50BF0CF
:103E4000900F0FE0F912040A023C4CF08A828B8337
:103E5000A3A3A3A3A322C082C0839061907404F0A3
:103E6000A37448F0A37402F09061807440F09061F4
:103E7000BC7403F09061877419F0906265741BF054
:103E800090619C740DF090619A7433F0A37455F0B6
:103E90009061A0743AF0900AD2E064017009C29176
:103EA00090093C7467800590093C7461F090263657
:103EB000E493906186F0902630E493F46027E493D5
:103EC000540FF8906185E0686012E5C6548044495B
:103ED000F5C6E59E547F644970F8E8F053C680E566
:103EE0009E547F70FA7905121190024098C082C0EA
:103EF00083E9540FF9906185E0696012E5C654804A
:103F00004449F5C6E59E547F644970F8E9F053C60C
:103F100080E59E547F70FA024098C082C083E5A875
:103F2000F853A87E906181E4F0A3F0A3F0C2BA53E5
:103F30009AFEC289759B00C2C275E9007591007531
:103F4000BF0075A91175B905906181F0A374C0F027
:103F5000A3E4F0D2BA439A0174805842A802409870
:103F6000C082C08374F81216F190093AE0F8A3E019
:103F7000F9E849700302408E90093AE0544060230A
:103F80007908851882851983AA82AB83120FF88578
:103F90001882851983AA82AB83120CCE90093AE06D
:103FA00054BFF0E054806010790C7AF67B0A120F4F
:103FB000F890093AE0547FF0E0A2E0503190619A25
:103FC0007433F0A37455F09061A0743AF0900AD263
:103FD000E064017009C29190093C74678005900902
:103FE0003C7461F0120CD490093AE054FEF0E054B5
:103FF00002603190619A743FF0A3745AF09061A00E
:10400000747FF0900AD2E064017009D29190093C6B
:104010007471800590093C746AF0120CD490093ACE
:10402000E054FDF0E054046013902634E493906172
:1040300086F0120CDA90093AE054FBF0E054086084
:1040400013902635E493906186F0120CDA90093AC9
:10405000E054F7F0E054106013902636E49390613A
:1040600086F0120CDA90093AE054EFF0E054206048
:104070000A120CDA90093AE054DFF0A3E054016030
:104080000D120F20120CE090093BE054FEF0740872
:104090001217078003F0A3F0D083D0820201357499
:1040A000EC12174874F41216F1851882851983AC46
:1040B00082AD837583847582187404121604902669
:1040C0003493F4600302422C907808E0C3940250C9
:1040D0000302420C740412173CAC82AD83758383D7
:1040E00075823E74081216048518828519838582AC
:1040F00012858313740412173CAC82AD83750EFFD6
:10410000750FFF7FFF7E00750C48750D7880157464
:10411000086E700302419F74096E700302419F7420
:104120000A6E607B850C82850D8378081215C18C20
:10413000828D83A909E50AC9F888107418780812D5
:104140001502E5104508F8C3E098A3E099850C82B4
:10415000850D8378081215C140188C828D837418E0
:104160007808121502E5104508F8E0C398F8A3E0B6
:10417000801C74187808121502E5104508FAE9FB4E
:104180008C828D83E0F8A3E0F9EAC398F8EB99F903
:10419000C3E8950EE9950F5006880E890FEEFF0EC5
:1041A000E50C2404F50CE50D3400F50DEEC3941375
:1041B000500302410F74FF650E700474FF650F60B9
:1041C000238F08740278081216DE74482508F582D9
:1041D00074783509F58378081215C1851282851324
:1041E00083E508F0EC24020C0CED3400FD8512820E
:1041F000851383A3858212858313740C12173CE503
:10420000826C7003E5836D60030240FD75080175E3
:104210000900780812195B740212173CAC82AD8356
:104220007A8D7B0912063E7402121707740C12175E
:10423000077F0C02181AC082C0839061AE7468F0C8
:10424000A3746AF090624574FBF0A304F053F4FD8C
:1042500043FE02900AD27401F09061A0E0643A90AB
:10426000619A70237433F0A37455F09061A0743A8E
:10427000F0740164017009C29190093C7467802850
:1042800090093C74618021743FF0A3745AF09061EE
:10429000A0747FF0740164017009D29190093C749C
:1042A00071800590093C746A0240977F0402181AD5
:1042B000C082C083900A84E06401700A900A89E099
:1042C0006004790C80027900024098C082C0837536
:1042D000E1F1900A87E06055146008146059146099
:1042E000518059120F32900A7DE0F97A7E7B0A12D2
:1042F00011129084101215DF12114890844C12157F
:10430000DF12111E900A88E0F912112A79011211A8
:1043100084900A7BE02416F8A3E03400F9888289AF
:1043200083744AF0A3740FF07900024098120F389A
:1043300080B4120F3E80AF120F4480AA791280EA37
:1043400074F412174875D90D900A6CE0A2E0E433BA
:104350001313F8900A7DE0C4333354C0484401F588
:10436000D9787B790A88828983A3A3A3E0F5D988C9
:10437000828983A3A882A983E864817003E9640A1F
:1043800070E3786C790A88828983A3E0F5D9888202
:104390008983A3A882A983E864727003E9640A7020
:1043A000E575E195900A6CE0F97A6D7B0A121118B7
:1043B000900F3174DEF0A3740EF0A37440F0A37478
:1043C00010F0A37440F0A37410F0A37440F0A37431
:1043D00010F0A374E4F0A3740EF0A37440F0A3747F
:1043E00010F0A374FCF0A3740EF0900F3F7440F033
:1043F000A37410F0A37440F0A37410F0A37440F001
:10440000A37410F0A37440F0A37410F0A37440F0F0
:10441000A37410F0A37440F0A37410F0900A7BE032
:10442000F8A3E0F5838882A3A378081215C19084CD
:104430000C780812154D908440780812159B900A4C
:104440007BE0240EF8A3E03400F9888289837808A1
:104450001215D0900A7BE02414F8A3E03400F98808
:104460008289837413F09009387402F00242ABC061
:1044700082C083900A8DE02407F5D9900A7DE0C4BC
:10448000333354C0F5D9787B790A88828983A3A312
:10449000A3E0F5D988828983A3A882A983E86481EF
:1044A0007003E9640A70E3900A8DE0601F787B79FD
:1044B0000AFAE82413F582E93400F583E0F5D98897
:1044C000828983A3A882A9831AEA70E6900AADE0E4
:1044D0002407F5D9900A7DE0C4333354C04404F571
:1044E000D9787B790A88828983A3A3A3E0F5D98848
:1044F000828983A3A882A983E864817003E9640A9E
:1045000070E3900AADE0601F787B790AFAE8243303
:10451000F582E93400F583E0F5D988828983A3A880
:1045200082A9831AEA70E675E195900F3174EAF07A
:10453000A3740EF0A37440F0A37410F0A37440F0C1
:10454000A37410F0A37440F0A37410F0A374E4F00B
:10455000A3740EF0A37440F0A37410F0A374FCF0E5
:10456000A3740EF0900F3F7440F0A37410F0A37486
:1045700040F0A37410F0A37440F0A37410F0A3747F
:1045800040F0A37410F0A37440F0A37410F0A3746F
:1045900040F0A37410F09083BC1215DF900A7BE00A
:1045A000240EF8A3E03400F9888289831215EB9079
:1045B0000A7BE02414F8A3E03400F988828983742C
:1045C00012F09009387401024097C082C083900AAB
:1045D0008DE02407F5D9900A7DE0C4333354C044FC
:1045E00002F5D9787B790A88828983A3A3A3E0F5B1
:1045F000D988828983A3A882A983E864817003E9AA
:10460000640A70E3900A8DE0601F787B790AFAE80B
:104610002413F582E93400F583E0F5D98882898393
:10462000A3A882A9831AEA70E675E195900F317408
:10463000F6F0A3740EF0A374F6F0A3740EF0A37456
:10464000F6F0A3740EF0A374F6F0A3740EF0A37446
:10465000F6F0A3740EF0A374F6F0A3740EF0A37436
:10466000FCF0A3740EF0900F3F7440F0A37410F0B0
:10467000A37440F0A37410F0A37440F0A37410F07E
:10468000A37440F0A37410F0A37440F0A37410F06E
:10469000A37440F0A37410F09083BC1215DF900A4D
:1046A0007BE0240EF8A3E03400F988828983121598
:1046B000EB900A7BE02414F8A3E03400F9888289A7
:1046C000837414F09009387404024097C082C08348
:1046D000900A8DE02407F5D9900A7DE0C433335465
:1046E000C04406F5D9787B790A88828983A3A3A37D
:1046F000E0F5D988828983A3A882A983E8648170C0
:1047000003E9640A70E3900A8DE0601F787B790A00
:10471000FAE82413F582E93400F583E0F5D98882BC
:104720008983A3A882A9831AEA70E6900AADE024DF
:1047300007F5D9900A7DE0C4333354C04404F5D959
:10474000787B790A88828983A3A3A3E0F5D988823C
:104750008983A3A882A983E864817003E9640A704D
:10476000E3900AADE0601F787B790AFAE82433F51C
:1047700082E93400F583E0F5D988828983A3A88291
:10478000A9831AEA70E675E195900F3174F0F0A3F1
:10479000740EF0A37440F0A37410F0A37440F0A35F
:1047A0007410F0A37440F0A37410F0A37440F0A34D
:1047B0007410F0A37440F0A37410F0A374FCF0A381
:1047C000740EF0900F3F7440F0A37410F0A3744087
:1047D000F0A37410F0A37440F0A37410F0A374401D
:1047E000F0A37410F0A37440F0A37410F0A374400D
:1047F000F0A37410F09083BC1215DF900A7BE024C4
:104800000EF8A3E03400F9888289831215EB900A30
:104810007BE02414F8A3E03400F9888289837415BE
:10482000F09009387403024097C082C083900A7BDD
:10483000E0F8A3E0F5838882A3A3A3A3A3A3E402E3
:10484000409574F7121748900966E0F875F004A4D3
:10485000C8AAF02AF9746828F8740939F9E8240517
:10486000FAE93400FB8A828B83E0FCA3E0FD8882B6
:104870008983A3A3A3A3A3A3A3A3A3ECF0A3EDF015
:1048800088828983A3A3A3A3A3A3A3E024FFF8A3FF
:10489000E034FFF98A828B83E8F0A3E9024AE774E7
:1048A000F7121748EAFEEBFF9061D0E0600302497F
:1048B0007C75D90E75D90375D904EE248CF582EF79
:1048C0003400F583E5822408F8E5833400F9E0F547
:1048D000D9A3E865827003E9658370F2EE2484F55C
:1048E00082EF3400F583E5822404F8E5833400F98F
:1048F000E0F5D9A3E865827003E9658370F275E19C
:10490000957908EE248CFAEF3400FB120FEC790451
:10491000EE2484FAEF3400FB120FEC7C00EEF8EF8B
:10492000F9ECFAC3E49AFA95E0FBEE2AFAEF3BFBC6
:10493000EA248BF582EB3400F583E0C0E0E824AB99
:10494000F582E93400F583D0E0F00C88828983A3F6
:10495000A882A983ECC3940840C7EE2470F582EFC7
:104960003400F583E0F8A3E0F9EE2472F582EF3429
:1049700000F583E8F0A3E9F0790180027900024AAA
:10498000E8C082C08375D90275D90375D90575E170
:1049900095EA2470F582EB3400F583E0F8A3E0F9A2
:1049A000EA2472F582EB3400F583E8F0A3E9F079AC
:1049B0000102409874F6121748EAFEEBFF900AD6FF
:1049C0007406F07508D675090A780812195B7C011F
:1049D0007903121034740212170775D90675D903BA
:1049E0007582D675830AE0F5D9A3E58264DB70048D
:1049F000E583640A70F075E195900938E064087009
:104A00001EEE2470F582EF3400F583E0F8A3E0F9A0
:104A1000EE2472F582EF3400F583E8F0A3E9F07933
:104A200001024BB474F6121748EAFEEBFF9061D016
:104A3000E070667801900AD6740BF0900938E06453
:104A40000770197508D675090A780812195B7C0178
:104A5000790312103474021217077805740128F5CF
:104A6000D975D9037582D675830AE8FAE0F5D9A31A
:104A70001AEA70F875E195EE2470F582EF3400F5CE
:104A800083E0F8A3E0F9EE2472F582EF3400F583B9
:104A9000E8F0A3E9F0790180027900024BB474F7E1
:104AA000121748EAFEEBFF75D90375D90375D90DC6
:104AB000EE24DEF582EF3400F583E0F5D975E1955B
:104AC000790412114EEE2470F582EF3400F583E084
:104AD000F8A3E0F9EE2472F582EF3400F583E8F0F4
:104AE000A3E9F079018001F07F0102181A74F6122F
:104AF0001748EAFEEBFF9061D0E0F87480C398FAA3
:104B0000EE2483F582EF3400F583E06004780480BE
:104B1000027800E8240BF8EAC3985003024BB27DF8
:104B200009900AD6EDF0EE24E3F8EF3400F97AD7D5
:104B30007B0A7C0888828983E08A828B83F0888262
:104B40008983A3A882A9838A828B83A3AA82AB8349
:104B50001CEC70E0EE2483F582EF3400F583E06016
:104B60001D7508D675090A780812195B7C09790346
:104B7000EEFAEFFB12103474021217077D0D740168
:104B80002DF5D975D9037582D675830A8D08E0F5A0
:104B9000D9A31508E50870F675E195790412114E50
:104BA000EE241DF582EF3400F583E4F0A3F07901E3
:104BB000800279007F0202181A74F6121748EAFE82
:104BC000EBFF9061D0E0F87480C398FAEE2483F58F
:104BD00082EF3400F583E06004780480027800E816
:104BE0002408F8EAC3985003024CB97D06900AD60F
:104BF000740CF0900955E0900AD7F07A567B09784A
:104C0000D8790A7C028A828B83E088828983F08A41
:104C1000828B83A3AA82AB8388828983A3A882A97B
:104C2000831CEC70E07A587B097C028A828B83E0DB
:104C300088828983F08A828B83A3AA82AB8388824D
:104C40008983A3A882A9831CEC70E0EE2483F582FB
:104C5000EF3400F583E0601D7508D675090A780801
:104C600012195B7C067903EEFAEFFB121034740222
:104C70001217077D0A74012DF5D975D9037582D6EF
:104C800075830A8D08E0F5D9A31508E50870F67557
:104C9000E195790412114EEE2470F582EF3400F59F
:104CA00083E0F8A3E0F9EE2472F582EF3400F58397
:104CB000E8F0A3E9F0790180027900024BB474F6C0
:104CC000121748EAFEEBFF9061D0E0F87480C398B9
:104CD000FAEE2483F582EF3400F583E06004780473
:104CE00080027800E82404F8EAC3985003024D9843
:104CF0007802900AD6E8F0EE24F5F582EF3400F55C
:104D000083E0900AD7F0EE2483F582EF3400F58338
:104D1000E0601B7508D675090A780812195B7C02D9
:104D20007903EEFA12103474021217077806740130
:104D300028F5D975D9037582D675830A8808E0F5F8
:104D4000D9A31508E50870F675E195EE2474F5828F
:104D5000EF3400F583E4F0EE2480F582EF3400F5C3
:104D600083E4F0EE241DF582EF3400F583E4F0A334
:104D7000F0790412114EEE240DF582EF3400F58324
:104D8000E0F8A3E0F9EE2472F582EF3400F583E851
:104D9000F0A3E9F0790180027900024BB474F612B5
:104DA00017489061D0E0F87480C398FCEA2483F53A
:104DB00082EB3400F583E06004780480027800E838
:104DC0002404F8ECC398405B7902900AD67407F08B
:104DD000EA24F6F582EB3400F583E0900AD7F0EA96
:104DE0002483F582EB3400F583E060187508D675EE
:104DF000090A780812195B7C020912103474021235
:104E000017077906740129F5D975D9037582D67506
:104E1000830AE9F8E0F5D9A318E870F875E1957907
:104E20000180027900024BB474F5121748E9FCA224
:104E3000AFE433F50AC2AF7D0080010DEA246FF5BF
:104E400082EB3400F583E0F8EDC398501A8D08EA40
:104E50002508F8EB3400F9E8246BF582E93400F515
:104E600083E06C70D68024EA246FF8EB3400F9E01C
:104E7000FEEA2EFAEB3400FBEA246BF582EB3400F9
:104E8000F583ECF088828983E004F0E50AA2E092E1
:104E9000AF7F0302181A74F6121748A2AFE433FD6D
:104EA000C2AFEA246FF582EB3400F583E014F07CA6
:104EB0000060368C08EA2508F8EB3400F9E8246C29
:104EC000F582E93400F583E0C0E0E8246BF582E97F
:104ED0003400F583D0E0F00CEA246FF582EB340067
:104EE000F583E0F8ECC39840CAEA246EF582EB340F
:104EF00000F58374FFF0EA246AF582EB3400F58351
:104F0000E4F0EDA2E092AF024BB4C082C083E5A80A
:104F1000F8C2AFEA246BF582EB3400F583E9F0EADE
:104F2000246AF582EB3400F583E4F0E8A2E792AF5F
:104F300002409874F3121748EAFEEBFFECFAEDFB1F
:104F40008A828B83A3A3A3A3E0541FF0EE2436F53B
:104F500082EF3400F583E4F0F50AEEFCEFFD8A827F
:104F60008B83E0C0E0EC245DF582ED3400F583D066
:104F7000E0F0750B00E50A33333354F8F50C8A8200
:104F80008B83E0F508750900E50B78081216BFE57C
:104F900008A2E0502FEE2436F8EF3400F988828919
:104FA00083E0F508EE2508F508EF3400F509E5087B
:104FB0002438F582E5093400F583E50CF088828910
:104FC00083E004F0050B050CE50BC3940840AF0526
:104FD0000A8A828B83A3AA82AB838C828D83A3AC43
:104FE00082AD83E50AC394055003024F5E7F05023C
:104FF000181A74F7121748900964E0640170077A70
:10500000007B000251697E0090096AE070F1740132
:10501000F0A3E4F0A3F09009CA04F09009CDE4F005
:10502000A3F09009D004F090096DE4F0A3F0A3F090
:10503000A3F090097704F090099DE4F09083DC12CE
:1050400015DF9009801215EB900984E4F0A3F0A31A
:10505000F09009E8F09009DCF09009D17480F0A399
:10506000E4F09009D7F09009CFF0900A53F0A3F044
:10507000A3F0A3F0A3F0A3F0A3F0A3F0900A5CF0D8
:105080009009EBF0900A3BF0A3F09083DC1215DF5F
:10509000900A3D1215EB9083DC1215DF900A411245
:1050A00015EB900A47E4F0900A49F0900A45F09019
:1050B0000A5FF0A3F0A3F0A3F0A3F0A3F0A3F0A382
:1050C000F078647909E8246FF582E93400F5837497
:1050D000FFF00E88828983A3A882A983EEC394047B
:1050E00040E37A647B097873790A88828983E0C017
:1050F000E0EA2461F582EB3400F583D0E0F08882A9
:105100008983A3A882A9838A828B83A3AA82AB8383
:10511000E864787003E9640A70D07A647B09784B9C
:10512000790988828983A3E0C0E0EA24E7F582EB6D
:105130003400F583D0E0F088828983A3A882A98314
:105140008A828B83A3AA82AB83E864537003E964E9
:105150000970CF900964E004F06401700890096C54
:10516000E0900966F07A687B09024AE8C082C08351
:1051700090096BE4F090096AF0900964F0A3F0A341
:1051800074FFF075E1F1024098C082C08378007925
:105190000090096BE060047868790988828983A3AC
:1051A000A3A3A3E0F902409874F6121748EAFEEBB5
:1051B000FF8E828F83A3A3A3E0600F8E828F83A3D1
:1051C000A3A3E4F0900965E014F0900964E014F002
:1051D000700690096674FFF08E828F83A3A3E4F0BB
:1051E000900A78E0700D900965E06401700579001F
:1051F000121130EE2465F582EF3400F583E0F8A358
:10520000E0F9E8496029EE2465F8EF3400F98808F0
:1052100089098882F583E0FCA3E0FD900966E0FA45
:105220007B00120D04850882850983E4F0A3F0EE6B
:10523000FAEFFB121064024BB474F7121748EAFE3F
:10524000EBFF8E828F83A3A3A3A3E0FA7B00120D52
:1052500046EEFAEFFB120FB612104C024AE8C0827B
:10526000C083784B790988828983A3E4F088828996
:1052700083A3A882A983E864537003E9640970E6F4
:1052800090094C0245C574F6121748EAFEEBFFEC94
:105290002403F8ED3400F988088909EC2407F8EDB7
:1052A0003400F9E8FCE9FD8C828D83E0F8A3E0F995
:1052B000850882850983E0FAA3E0FB121666EE24D6
:1052C0000DF582EF3400F583E8F0A3E9F08C828DD0
:1052D00083E0F8A3E0F9850882850983E0FAA3E07A
:1052E000FB1216668B09EA45096013EE240DF58260
:1052F000EF3400F583E02401F0A3E03400F0024B2A
:10530000B474F6121748EAFEEBFFEE242EF582EF96
:105310003400F583E0FCA3E0FD780079FAECFAEDC7
:10532000FB121666EE2470F582EF3400F583E8F088
:10533000A3E9F0780079FAECFAEDFB1216668B0916
:10534000EA45096013EE2470F582EF3400F583E03E
:105350002401F0A3E03400F0024BB474F0121748BB
:10536000EAFEEBFF741012173C78081215C11210F8
:10537000EE8A0C8B0D8C0E8D0F908404780C121518
:105380004D908440780C12159B780C1219578E8220
:105390008F83E0F8A3E0F5838882A3A31215DF12C0
:1053A00023C67404121707E960030254A88E828F83
:1053B00083E02402F8A3E03400F9E8FAE9FB8A82EA
:1053C0008B83780812156090844078081215C18A82
:1053D000828B8378081215AEEE240BF582EF340031
:1053E000F583C082C0838E828F83A3A3A3A3A3E08F
:1053F0002401F8A3E03400F9D083D082E068700380
:10540000A3E069700579010254AA8E828F83A3A359
:10541000A3A3A3A3A3E02401F0A3E03400F0EE24AF
:1054200074F582EF3400F583E064017036EE247584
:10543000F582EF3400F583E0F8A3E0F98E828F83E4
:10544000A3A3A3A3A3A3A3E0687003A3E0697013BD
:10545000EE2475F582EF3400F583E02401F0A3E03B
:105460003400F0EE2480F582EF3400F583E064012F
:105470007036EE2481F582EF3400F583E0F8A3E086
:10548000F98E828F83A3A3A3A3A3A3A3E0687003D1
:10549000A3E0697013EE2481F582EF3400F583E018
:1054A0002401F0A3E03400F079007F0802181A7498
:1054B000F7121748900966E0F875F004A4C8AAF03E
:1054C0002AF9746828FE740939FF8028EE2465F8EB
:1054D000EF3400F988828983E0FCA3E0FD888289AB
:1054E00083E4F0A3F08E828F83A3A3A3A3E0FA7BCF
:1054F00000120D04EE2465F582EF3400F583E0F828
:10550000A3E0F9E849604FEE2464F582EF3400F53A
:1055100083E0F508780812195FEE2463F582EF3412
:1055200000F583E0F9EE2465F582EF3400F583E0C1
:10553000FCA3E0FDEEFAEFFB120FE0740112170777
:10554000E96089EE2465F582EF3400F583E0F8A385
:10555000E0F9E84970137C007D008E828F83A3A35D
:10556000A3A3E0FA7B00120D04024AE874F21217BA
:1055700048EAFEEBFF890A740E12173CE0FAEE24AB
:1055800062F582EF3400F583E0640160030256386F
:105590009061D0E0F87480C398F50CEE2483F58216
:1055A000EF3400F583E06004780480027800890815
:1055B000E928F8E43400F9E824020808E93400F99D
:1055C000E50C98E499A2D265D0334068EA7005757D
:1055D0000B028003750B01E0603975090078081231
:1055E000195B7AD67B0A1210167402121707750817
:1055F000D675090A780812195BAC0AA90BEEFAEF06
:10560000FB12103474021217077404250AF50A7C81
:10561000D67D0A7401250AF5D9850BD9E50A600DF6
:105620008C828D83F8E0F5D9A318E870F875E195C0
:10563000790080067907800279FF7F0602181AC078
:1056400082C083E960208C828D83E08A828B83F024
:105650008C828D83A3AC82AD838A828B83A3AA8242
:10566000AB8319E970E0ECFAEDFB02409874EA12A2
:105670001748907803E06442705E900AD5E014F019
:105680007056C2AF12568700782AD0E0F618D0E0E4
:10569000F6E59F5407F9700590840080039083FC21
:1056A00078081215C1E9C4C0E07829E65508F50864
:1056B00008E65509F509740B78081216CFD0E025D5
:1056C00008F8906270E0A2E740F8E8C33390627295
:1056D000F0906270E0D2E0F0900966E0F4700302AE
:1056E0005A90E0F875F004A4C8AAF02AF974682862
:1056F000FE740939FFEE2402F582EF3401F583E0F0
:10570000F8A3E0F9E849601EEE2402F582EF3401C7
:10571000F583E0FAA3E0FBEE2401F582EF3401F516
:1057200083E0F912042E8E828F83A3A3A3A3A3A3E5
:10573000A3E0F8A3E0F98E828F83A3A3A3A3A3E839
:10574000F0A3E9F0906054E090093FF0906055E0DC
:10575000900940F0906056E0900941F0906057E069
:10576000900942F0906058E0900943F0906059E051
:10577000900944F090605AE0900945F090605BE039
:10578000900946F090605CE0FC900947F090605D05
:10579000E0FB900948F090605EE0FD900949F090D0
:1057A000605FE0FA90094AF0900945E08C0825080E
:1057B000F8E43400F98D08E82508F8E93400F98B9D
:1057C00008E82508F8E93400F98A08E82508FAE924
:1057D0003400FBEE24F7F582EF3400F583E02AF085
:1057E000A3E03BF08C08EE24F9F582EF3400F5835A
:1057F000E02508F0A3E03400F0EE24FBF582EF345E
:1058000000F583E02401F0A3E03400F0EE24FFF57E
:1058100082EF3400F583E0F8A3E0F9E849604290B4
:105820006000E0C333FCE433FDE82CF582E93DF58C
:1058300083E02AF0A3E03BF0906000E0FA90094793
:10584000E0FCEAC333FAE433FBE82AF8E93BF9E881
:10585000244AF582E93400F583E02CF0A3E034001B
:10586000F0900945E07011900948E0700BA3E070DA
:1058700007A3E070030259708E828F83A3A3A3A3B2
:10588000A3E0F8A3E0F9EE240DF582EF3400F583F0
:10589000E028F8A3E039F9EE240BF582EF3400F5A7
:1058A00083E8F0A3E9F0EE240FF582EF3400F583EE
:1058B000E4F0EE241CF582EF3400F583E06401701F
:1058C0001EEE2420F582EF3400F583E0F8A3E0F922
:1058D000EE241DF582EF3400F583E8F0A3E9F090A3
:1058E0000940E06052EE241CF582EF3400F5837429
:1058F00001F0EE246AF582EF3400F583E07038EEB3
:105900002474F582EF3400F583E0702BEE2480F5EB
:1059100082EF3400F583E0701EEE2420F582EF3430
:1059200000F583E0F8A3E0F9EE241DF582EF3400E2
:10593000F583E8F0A3E9F0906062E07003025A2377
:105940008E828F83E0F8A3E0F9E82406FCE93400B6
:10595000FDE82402FAE93400FB1210E88E828F83FE
:10596000E02412F8A3E03400F988828983025A2DDA
:10597000900947E0603AEE240FF582EF3400F5839A
:10598000E4F0EE241CF582EF3400F583E06401704E
:1059900040EE2420F582EF3400F583E0F8A3E0F92F
:1059A000EE241DF582EF3400F583E8F0A3E98020B2
:1059B000EE24FDF582EF3400F583E02401F0A3E04E
:1059C0003400F0EE241DF582EF3400F583E4F0A3FB
:1059D000F0EE240BF582EF3400F583E0F8A3E0F954
:1059E0008E828F83A3A3A3A3A3E0687003A3E069BF
:1059F00060030258DFEE240FF582EF3400F583E0F8
:105A000060128E828F83A3A3A3A3A3E06405700218
:105A1000A3E0600B7908EEFAEFFB120FBC807179FE
:105A20003E80F3EE241DF582EF3400F583E4F0A30D
:105A3000F0906060E0C0E0EE2469F582EF3400F59C
:105A400083D0E0F0900945E0F8EE2467F582EF346A
:105A500000F583E028025B90900AD3E06401703582
:105A600012119CEE2467F582EF3400F583E0700696
:105A70009060607480F0EEFAEFFB1210A6E964010A
:105A8000600E120FDA1210A0E96401600312104CCC
:105A90007F0E02181AEE2483F582EF3400F583E0BE
:105AA0006004780480027800E50CC398F9120CF8C1
:105AB0008A0A8B0BEA450B60A7EE2483F582EF344C
:105AC00000F583E070048A088B09E50C60128508F4
:105AD00082850983F512E5D9F0A31512E51270F657
:105AE000EE2483F582EF3400F583E0603774FC2503
:105AF0000CF50C780812195BAC0CA90DEEFAEFFB53
:105B000012103A7402121707E970197403650D70C8
:105B100003025BD0E50A24FBFAE50B34FFFB120419
:105B20008E025BD07403650D7003025BD5850C0E8D
