:020000040000FA
:0600000002011D021E3783
:03002B00021A5B5B
:03005300021EAAE0
:03007B00021A2046
:10008300021CEBE5C754F84401F5C77901220000CF
:100093000080FB120086B90003020107E47921788E
:1000A30008B800028004F709D8FCE479297802B87B
:1000B30000028004F709D8FCE4900281789879095A
:1000C3008002F0A3D8FCD9FA781A90014D7A01BACC
:1000D30000028007E493A3F608DAF9900B18AA82CA
:1000E300AB8390014E788279038015E493A3AC82AD
:1000F300AD838A828B83F0A3AA82AB838C828D83A8
:10010300D8E9D9E77582A27583FF740112012F75AF
:100113008291758300740012012F75D00075813FA1
:10012300751881751902759F00020096C09FF59F8F
:10013300E473D09F22D083D082C09FE493C0E07445
:100143000193C0E0740293F59F2201FFFF1101990F
:10015300010F1264040102E081010000BE8102DC90
:10016300810100001F0B02E881010000200B02D86F
:1001730081030000A70202CA81010000210B01E8EC
:1001830003053F101A446F2053796E63000000008B
:1001930000000000000008415050205365742043C4
:1001A3006C6F636B000000001201004461746120F6
:1001B30048656164657200000000000012446174C8
:1001C3006120426F6479000000000000000002E03B
:1001D30081010000BB8102DC81010000510B02C6DA
:1001E30081030000960302D8810300009E0302DA14
:1001F30081010000520B02DC81010000630B02C489
:1002030081020000A40302DA81010000640B02DC16
:1002130081010000750B02D481030000760B02D824
:1002230081030000A80302DA81010000780B02DCDD
:1002330081010000890B02E681030000AE0302D8AE
:1002430081030000B60302DA810100008A0B00007B
:10025300000000000000FF000130750302010600EA
:10026300000000000000000000000000000000008B
:100273000000000000000000000000FFFF060080F7
:100283000CE80305000A002C0101000100110941DB
:100293006464696E672041312D3030303030300571
:1002A300125000A000020A00020106050200230FFB
:1002B30018416464696E672041312D30303030302D
:1002C3003000000000000DB3070000BF07FF00006F
:1002D300B4000028002800283075A000A000A0006A
:1002E300A00000080008E001F0001000100010005A
:1002F30010001000100050005000500010001000BB
:10030300D0070000000000000F0001000500307559
:1003130007001000010081FF0000FFF909170AFF21
:1003230009FF02020208025000A0000000E80302D5
:10033300E081010000B88102DC81010000EF0C02C2
:10034300D6810100006F0602DC81010000F00C027F
:10035300EC81010000850602DC81010000F10C0242
:10036300D281010000870602DC81010000F20C0249
:10037300D081080000880602DC81010000F30C0232
:10038300CE81010000F40CFF0100FF2002E0810197
:100393000000C18102DC81010000580D02CC810004
:1003A3000000000002D881030000D506CF0FCF0F55
:1003B300CF0FCF0FCF0FCF0FCF0FCF0FCF0FCF0F4A
:1003C300CF0FCF0FCF0F5D12751257121201380BDB
:1003D300DA0212013815DA0212013856DA02120172
:1003E300389FDA02120138D9DA021201382FDB0200
:1003F30012013850DB0212013859DB02120138AD09
:10040300DB02120138D6DB02120138E0DB021201F3
:10041300384EDC02120138DEDC0212013839DD020B
:1004230012013867DD02120138EFDD021201382EA6
:10043300DE0212013863DE0212013875DE02120198
:100443003894DE021201389DDE0212013864DF02A5
:1004530012013860E90212013857EA0212013871B9
:10046300EA0212013882EA0212013894EC02120104
:1004730038B3EC02120138789803120138AE9803AE
:10048300120138E298031201382F9A031201389CA3
:10049300A703120138B2A703120138BCA703120144
:1004A3003806A803120138967F00120138FAED02CC
:1004B3001201380DEE02120138CEEE021201380D90
:1004C300EF021201382AEF0212013863EF02120120
:1004D30038B0EF02120138E2EF0212013819F002CC
:1004E30012013822F2021201383AA4031201385DD4
:1004F300A4031201388CA403120138A4A40312012B
:1005030038E6A4031201385A8B031201388A8B038D
:100513001201389D8B03120138CC8B03120138E88A
:100523008B03120138948C031201382D8D031201B1
:1005330038B68D03120138BBA90312013838A90359
:10054300120138B66B00120138946D001201383372
:100553006F00120138DE6F001201385E7000120165
:1005630038E370001201380C7100120138E774008F
:100573001201385E7500120138757600120138AF2A
:100583007600120138F07600120138377800120134
:10059300388D7800120138D6780012013845790079
:1005A300120138B17900120138E27900120138FAE8
:1005B3007900120138137B00120138237B001201EA
:1005C30038D97C00120138F07C00120138227D00FA
:1005D300120138C47E00120138587F00120138E03E
:1005E300A603120138F1A60312013891A7031201E1
:1005F30038B7FF02120138F6FF0212013819AA03B5
:100603001201382FA5031201383FA50312013851F7
:10061300A50312013803A60312013838A3031201FC
:1006230038BDA30312013821A403120138D0A0035B
:1006330012013804A10312013827A1031201389BC8
:10064300A1031201386D9F03120138959F03120114
:100653003809A00312013823A0031201387BA00339
:10066300120138C4A003120138C7A00312013803D2
:10067300AA0312013813AA0312013816AA0312019E
:1006830038F87F001201383E9603120138CE9703E3
:100693001201382F98031201387598031201388E0E
:1006A300F202120138C8F202120138E5F202120115
:1006B3003888F302120138EAF302120138C7F40250
:1006C300120138F9F5021201381EF60212013867D9
:1006D300F602120138D1F602120138D59D03120138
:1006E30038279E031201389A9E03120138079F038D
:1006F300120138F79303120138219403120138F0E1
:100703009403120138CC9503120138ACC3021201D1
:100713003878C402120138B9C402120138F3C40292
:1007230012013851C502120138A5C502120138035E
:10073300C60212013899C602120138A1C70212017A
:10074300382BC902120138C9C90212013830CA0252
:1007530012013843CA0212013837CB021201388022
:10076300CB021201380080021201383283021201D7
:1007730038C384021201381A850212013837850200
:10078300120138B785021201383387021201380289
:1007930088021201386F8B02120138598C02120140
:1007A30038FDA40112013842A80112013898A901A9
:1007B30012013851AA01120138F4AA011201382C8E
:1007C300AB011201389BAB01120138A7AB01120137
:1007D30038C4AB011201383FAC0112013866AC01D9
:1007E300120138E7AC0112013848AF011201382D6C
:1007F300B001120138C3B201120138229C03120165
:1008030038399C03120138689C03120138A19C03F8
:10081300120138C99C03120138F79C031201380EE8
:100823009D03120138259D031201383B9D031201DC
:1008330038629D03120138759D031201388B9D03A5
:100843001201389E9D03120138C39D031201380023
:10085300B102120138FFB10212013834B20212019F
:100863003855B20212013865B20212013886B2025B
:1008730012013892B3021201385FB402120138D266
:10088300B40212013858B5021201389BB5021201A5
:1008930038D2B50212013858B6021201382AB7020B
:1008A30012013888B702120138A0B7021201381AB0
:1008B300B8021201381DB80212013820B802120121
:1008C30038C7B802120138DFB8021201380FB90273
:1008D3001201382FB9021201381DBA02120138D39E
:1008E300BA02120138B8E402120138E0E40212013C
:1008F300380EE50212013845E502120138ADE50272
:10090300120138F6E50212013841E6021201387F7E
:10091300E602120138BCE602120138EAE6021201CD
:100923003891E7021201389BE702120138A8E70267
:10093300120138DBE7021201389DE802120138A9DF
:10094300E802120138C1E802120138CBE8021201B1
:100953003809A60312013817A6031201382FA6037C
:1009630012013847A60312013842B401120138E0DC
:10097300B40112013858B5011201386DB6011201E4
:1009830038A7B60112013850B70112013825B80152
:1009930012013889B901120138E0B901120138672F
:1009A300BA011201384EBB011201389BBB0112017F
:1009B3003829BC011201384DBC0112013822BE0195
:1009C30012013863BE0112013885BE0112013806D7
:1009D300BF01120138F0BF01120138B6C001120184
:1009E30038FFD202120138D1D3021201387AD4026D
:1009F300120138BDD4021201384AD502120138D689
:100A0300D502120138B7D602120138E6D602120116
:100A130038E2D7021201382AD8021201382CD9023F
:100A230012013870D90212013896D90212013832F4
:100A3300A803120138EC8303120138028403120164
:100A4300382884031201385085031201385A85036C
:100A5300120138B38603120138B3870312013892A7
:100A6300DF02120138C7E002120138FAE002120174
:100A73003844E10212013802E302120138A0950161
:100A830012013803960112013848970112013858B0
:100A930097011201387B9701120138C697011201A1
:100AA300386B98011201386199011201382B9A01B0
:100AB300120138A39B01120138E59B01120138830F
:100AC3009C01120138D09C01120138F69C011201DD
:100AD30038E49E01120138E99E01120138CAA001CF
:100AE3001201381EA10112013880A101120138A898
:100AF300A1011201384CA2011201380EA301120107
:100B0300383FA30112013842A3011201388AA3011D
:100B1300120138CCA30112013833A401120138A108
:100B23009103120138B49103120138CD91031201DC
:100B330038189203120138F3920312013882930397
:100B4300120138CD93031201383C250012013848B5
:100B53002500120138812500120138C62500120133
:100B6300387D26001201380327001201382F270091
:100B73001201386827001201387C29001201385805
:100B83002B00120138432D001201387A2E00120176
:100B930038DA3000120138C631001201380C330044
:100BA3001201381934001201383634001201386E3C
:100BB3003400120138883400120138F03400120175
:100BC300388A39001201382B3A001201387C3A0076
:100BD300120138A33A00120138F13A001201380F1A
:100BE3003B00120138633B001201386B3C001201D9
:100BF30038F33C00120138F8FA0112013802FB0104
:100C0300120138CDFB01120138E8FB011201380E45
:100C1300FC0112013852FC011201388AFC01120155
:100C230038B3FC011201382CFD0112013841FD01DA
:100C330012013856FD011201388DFD01120138A150
:100C4300FD01120138D2FD011201380CFE0112011F
:100C53003838FE011201388EFE01120138E2FE011E
:100C63001201382BFF0112013855FF011201387AA6
:100C7300FF01120138008003120138CA80031201F8
:100C830038AD8103120138238203120138658203D0
:100C9300120138928303120138EF8C0212013818C3
:100CA3008D02120138318D02120138768E02120143
:100CB30038548F02120138738F02120138009002E8
:100CC3001201384390021201389091021201382F19
:100CD3009202120138AE94021201384595021201B4
:100CE30038199602120138FB9602120138679802EE
:100CF300120138FA980212013823A2031201388C28
:100D0300A203120138E0A20312013807A303120160
:100D13003816F70212013883F702120138CEF702B0
:100D2300120138C3F802120138BFF902120138A9BF
:100D3300FA021201383EBB0212013880BB021201D3
:100D4300385ABC0212013833BD021201382EBE02DA
:100D53001201380DBF0212013879BF021201384067
:100D6300C002120138ABC00212013812C1021201D3
:100D7300383DC102120138AEC10212013841C2022C
:100D8300120138AAC202120138BFC2021201380787
:100D9300C30212013820C30212013885C3021201B3
:100DA3003888C302120138A78E03120138CF8E038D
:100DB3001201380D8F03120138CB8F03120138361D
:100DC30090031201385290031201387A90031201F2
:100DD30038AA9003120138B99003120138339103F2
:100DE30012013859910312013869D10112013846B1
:100DF300D30112013841D50112013814D601120171
:100E0300385FD601120138AAD601120138BCD601C7
:100E1300120138FCD60112013831D7011201387D95
:100E2300D701120138ACD701120138CFD701120113
:100E3300381CD801120138A5D801120138B2DA01E1
:100E43001201389DDC01120138E0DC011201384542
:100E5300DE0112013886DE01120138F9DE011201CA
:100E63003845DF0112013870DF0112013871990230
:100E73001201389C990212013883A002120138A78B
:100E8300A20212013862A402120138BFA5021201A4
:100E9300385A3D00120138F13D001201381E3E0060
:100EA300120138643E00120138A33F001201383AA0
:100EB3004100120138B44100120138CF4100120140
:100EC30038444200120138734300120138CE440003
:100ED300120138D045001201382D4700120138465F
:100EE3004700120138A34700120138854800120158
:100EF30038B84800120138284900120138A24900C5
:100F0300120138F14900120138BD4A00120138C2FA
:100F13004B00120138A14C001201382C4D00120174
:100F2300389A4D001201380E4E00120138374E0028
:100F3300120138F64E001201387050001201388D3C
:100F43005000120138AC50001201383D510012011B
:100F5300386251001201388A5100120138055200DB
:100F63001201385F5200120138B353001201387076
:100F730054001201384355001201389ADF0112015F
:100F830038EADF01120138F6DF01120138D3E0013C
:100F930012013803E1011201383BE101120138BAB1
:100FA300E101120138F2E10112013844E2011201B8
:100FB3003881E201120138A6E401120138D2E601B8
:100FC300120138CDE801120138A8EA01120138F5FF
:100FD3007F00120138EF81011201383982011201B9
:100FE30038188801120138998901120138F88F01E4
:100FF300120138F390011201383091011201385374
:1010030091011201389591011201389E910112014B
:1010130038A8910112013894920112013888930182
:10102300120138715500120138E95F00120138EFDF
:101033005F00120138FB6600120138BD87031201FD
:1010430038538803120138698803120138E388038F
:10105300120138398903120138778903120138D410
:101063008903120138518A031201385A8A03120183
:1010730038668A03120138798A03120138B58A0364
:10108300120138CB8A031201382A8B031201386B01
:10109300FB0212013878FB0212013892FB021201A3
:1010A30038D1FB021201380FFC0212013874FC0222
:1010B30012013889FC0212013894FC02120138A192
:1010C300FC02120138B8FC02120138C6FC021201FC
:1010D30038D1FC02120138DDFC02120138ECFC02AB
:1010E300120138F7FC021201381AFD02120138C34B
:1010F300FD02120138D3FD02120138EDFD02120187
:10110300380AFE0212013826FE021201384BFE0293
:1011130012013855FE0212013869FE0212013888A5
:10112300FE02120138E9FE02120138EFFE0212013B
:1011330038F5FE02120138FBFE0212013807FF02E6
:101143001201383AFF021201386EED01120138F034
:10115300ED0112013899EE01120138E1EF0112019C
:1011630038EFF101120138D5F2011201380AF30107
:101173001201382CF301120138D5F301120138A5FD
:10118300F501120138CEF50112013846F6011201BC
:101193003878F60112013885F601120138D0F601CC
:1011A300120138F4F60112013845F9011201384FE2
:1011B300FA01120138ABFA01120138EBC201120134
:1011C30038FCC301120138E0C401120138EAC4013A
:1011D3001201380CC50112013818C501120138BCBF
:1011E300C601120138E9C601120138FFC701120115
:1011F3003854C801120138A3C90112013878CA0151
:10120300120138D4CA011201383FCB0112013874DC
:10121300CB01120138B7CB0112013881CE01120183
:101223003899CE011201382ACF0112013838CF0183
:1012330012013885CF0112013893CF01120138FF13
:10124300CF011201387AD001120138D1D001120135
:1012530038E2A50212013804A60212013815A802C9
:10126300120138D4AA02120138FEAB02120138BCB3
:10127300AC02120138A8AD02120138699A031201B7
:10128300388E9A03120138049B03120138E2CB0211
:10129300120138EBCB02120138F4CB02120138CC25
:1012A300CC021201387DCE02120138ADCE021201FA
:1012B30038D8CE0212013808CF0212013833CF02D8
:1012C30012013867CF0212013893CF02120138D6C8
:1012D300CF0212013801D00212013848D0021201A4
:1012E300389DD002120138DFD00212013839D10201
:1012F30012013864D102120138B3D102120138E36A
:10130300D1021201380ED2021201383CD20212016C
:10131300385FD202120138BBA803120138E7A803D1
:1013230012013814A9031201381EA9031201382E21
:10133300A9031201388EA903120138E5A903E06657
:10134300701008A3E066700A08A3E066700408A39F
:10135300E06622C3E7960809E7960809E7960809B5
:10136300E79622C3E09608A3E09608A3E09608A3B5
:10137300E09622C008C3E096F50808A3E096420869
:1013830008A3E096420808A3E09645087001D3D06D
:101393000822080808EAC0E0EBC0E086F0E7A4FAF8
:1013A300180986F0E7A42AFA180986F0E7A42AFAAE
:1013B300180986F0E7A42AFA1986F0E7A4FBE5F0FA
:1013C3002AFA190886F0E7A42BFBE5F03AFA190884
:1013D30086F0E7A42BFBE5F03AFA18180986F0E744
:1013E300A4C5F02BFBE43AFA1908E7C5F0C6A42616
:1013F300F6E5F03BFBE43AFA1886F0E7A4F6E5F0ED
:101403000826F6E43B08F6E43A08F6D0E0FBD0E021
:10141300FA22E4CFC0E0E4CEC0E0E4CDC0E0E4CC07
:10142300C0E075F020C3E633F608E633F608E6338A
:10143300F608E633F6181818EC33FCED33FDEE33FB
:10144300FEEF33FFC3EC9709ED9709EE9709EF978A
:10145300191919400FFFEC97FC09ED97FD09EE9759
:10146300FE191906D5F0BEECF709EDF709EEF709F9
:10147300EFF7191919D0E0FCD0E0FDD0E0FED0E081
:10148300FF226016080808C6C313C618C613C61879
:10149300C613C618C613C6D5E0EA227009080808A1
:1014A300226016181818C6C333C608C633C608C642
:1014B30033C608C633C6D5E0EA22E627F60809E6AE
:1014C30037F60809E637F60809E637F622E026F686
:1014D30008A3E036F608A3E036F608A3E036F622C2
:1014E300E026F008A3E036F008A3E036F008A3E016
:1014F30036F022C3E697F60809E697F60809E69759
:10150300F60809E697F622C3E096F008A3E096F002
:1015130008A3E096F008A3E096F022E056F608A3AD
:10152300E056F608A3E056F608A3E056F622E05686
:10153300F008A3E056F008A3E056F008A3E056F045
:1015430022E0F608A3E0F608A3E0F608A3E0F622FB
:10155300E6F008A3E6F008A3E6F008A3E6F022E02D
:10156300FAA3E0FBA3E0FCA3E0FD22EAF0A3EBF087
:10157300A3ECF0A3EDF022CAC0E0E6F0A308DAFA88
:10158300D0E0FA22CAC0E0E0A3C582CCC582C583FD
:10159300CDC583F0A3C582CCC582C583CDC583DA0F
:1015A300E6D0E0CA22C3E498F8E499F91215E98079
:1015B30026C3E49AFAE49BFBE920E7E91215E9E480
:1015C30098F8E499F922C3E498F8E499F91215E933
:1015D300E498F8E499F9C3E49AFAE49BFB22EB203C
:1015E300E7CFE920E7E0B90010BB0008E88AF08400
:1015F300F8AAF022E4FBC8FA22EB70227B10C8336E
:10160300C8C933C9335007C39AC3DBF280069A5063
:10161300012ADBEAC833F4C8C933F4C9FA2275F0E6
:1016230008E4C833C8C933C933C99AC99B5004C92C
:101633002AC93BD5F0ECFBC833F4C8E4C9FA2260ED
:101643000D08C6A2E713C618C613C6D5E0F3226079
:101653000C08C6C313C618C613C6D5E0F42270041B
:1016630022600D18C6C333C608C633C6D5E0F418C6
:1016730022251810AF08F518400215198008F5182F
:1016830040021519D2AF22C0D0251810AF08F518A3
:10169300500205198008F51850020519D2AFD0D0B1
:1016A300222518F58210AF08F51840021519800895
:1016B300F51840021519D2AF851983222518F58232
:1016C300E43519F58322E4732518C582C0E0E519D2
:1016D30034FFC583C0E0E518C3958224F810AF0832
:1016E3008583198582188008858319858218D2AF6E
:1016F300CEF0A3E520F0A37808E608F0A3DEFAEF26
:10170300F0A3E58124FAF8E608F0A3E608F0A3E6DF
:1017130008F0A30808E608F0A3E608F0A31581156E
:1017230081D0E0FED0E0F8158115811581E8C0E095
:10173300EEC0E0222518C582C0E0E51934FFC58359
:10174300C0E0E518C3958224F910AF088583198595
:1017530082188008858319858218D2AFCEF0A3E55D
:1017630020F0A37808E608F0A3DEFAEFF0A3E58102
:1017730024FBF8E608F0A3E608F0A30808E608F05F
:10178300A3E608F0A315811581D0E0FED0E0F8159B
:10179300811581E8C0E0EEC0E022851983851882B7
:1017A300E0A3FEE0A3F5207808E0A3F608DFFAE063
:1017B300A3FFE0A3C0E0E0A3C0E0E0A3C0E0E0A398
:1017C300C0E0E0A3C0E010AF0885821885831980CC
:1017D30008858218858319D2AFD083D08202013560
:1017E300851983851882E0A3FEE0A3F5207808E03D
:1017F300A3F608DFFAE0A3FFE0A3C0E0E0A3C0E0A4
:10180300E0A3C0E0E0A3C0E010AF088582188583A1
:10181300198008858218858319D2AFD083D082229C
:10182300C0D02518C582C0E0E51934FFC583C0E0E8
:10183300E518C3958224F310AF08858319858218B0
:101843008008858319858218D2AFC8F0A3E9F0A375
:10185300EAF0A3EBF0A37908E709F0A3D8FAECF0D8
:10186300A3EDF0A3EEF0A3EFF0A3D0E0F0A3D0E05C
:10187300F0A3D0E0F0A3E520F0A3E5F0F0A32285E8
:101883001983851882E0C0E0A3E0F9A3E0FAA3E09E
:10189300FBA37808E0F608A3DFFAE0FCA3E0FDA3CE
:1018A300E0FEA3E0FFA3E0C0E0A3E0C0E0A3E0F517
:1018B300D0A3E0F520A3E0A3F5F010AF08858319CA
:1018C3008582188008858319858218D2AFD082D08B
:1018D30083D0E0F8D0E0327404800674028002748E
:1018E30001C0E0F4041216A4D0E012157A227404A5
:1018F300800474028000CCC0E0EDC0E0E518C39C16
:10190300CCAD1950011D10AF068C188D1980068CB3
:10191300188D19D2AF121587D0E0FDD0E0FC22D08C
:1019230083D082E9C0E0E493A3C386F0C5F095F0C9
:10193300F908E493A386F0C5F095F0700BE493A344
:10194300C3994005E9048002A3E475F002A425824B
:10195300F582E5F03583F583D0E0F9E493A3C0E0A5
:10196300E493C0E022D083D082ECC0E0EDC0E0E499
:1019730093A3FCE493A3FDED4C600D1219B4EC2486
:10198300FFFCED34FFFD80EFE493A3FCE493A3FDA0
:10199300ED4C600D1219F3EC24FFFCED34FFFD80D8
:1019A300EFD0E0FDD0E0FCE493A3C0E0E493C0E01B
:1019B30022C0E0C3E49396087401939618400FE4A1
:1019C3009366700808740193661870007019A3A3D6
:1019D300C3E49396087401939618A3A3400DD0E033
:1019E300D0E0D0E00219A4A3A3A3A3A3A3D0E02231
:1019F300C0E0C0F088F0E493667008087401936651
:101A0300187000A8F0A3A3700BD0F0D0E0D0E0D002
:0B1A1300E00219A4A3A3D0F0D0E02251
:101A2000C0E074F2121823A2AFE433FED2AFE58A0D
:101A3000A2E2400CE58AA2E44006E58AA2E3500354
:101A400012065D758A00758A00758A00C2EB751AE8
:101A500000EEA2E092AF7F01021882C0E0C0D0E8A1
:101A6000C0E0E5A8D2AFC2C7751A00A2E792AFD016
:101A7000E0F8D0D0D0E03274F5121737EAFEEBFF71
:101A8000EE2434F8EF3400F988088909EE2435F59E
:101A900082EF3400F583E0F8EE2437F582EF34006E
:101AA000F583E0F50AEC850AF0A4FCAAF0850AF0BB
:101AB000EDA42AFDE82CF8E43DF97A257B00121507
:101AC000E9EA850882850983F05407F87401B800B3
:101AD000028004C333D8FCC0E0E0131313541FF892
:101AE000EE28F8EF3400F9E8245DF582E93400F5DA
:101AF00083D0E0F8E0586008EE2434F582EF801ED1
:101B0000EE2436F582EF3400F583E0F5F0EA84A8A0
:101B1000F0EE28F8EF3400F9E82438F582E93400D3
:101B2000F583E0F97F040217E374F5121737EAFE34
:101B3000EBFFEE2434F582EF3400F583E0C0E0EEF5
:101B40002435F582EF3400F583D0E0F08E828F8368
:101B5000A3A3A3A3A3A3A3C082C0838E828F83A3C6
:101B6000A3A3A3A3E0F8A3E0F9D083D082E0C398B5
:101B7000F508A3E099F509EE2480F582EF3400F52D
:101B800083E064017069EE2481F582EF3400F5830F
:101B9000E0F8A3E0F98E828F83A3A3A3A3A3A3A35A
:101BA000E0FCA3E0FD8E828F83A3A3A3A3A3E0FAAE
:101BB000A3E0FBC3EA9CEB9D5027C3EC98ED994052
:101BC0002EC3EA98EB9950277CBA7D08EEFAEFFB1A
:101BD000120F2DEE2480F582EF3400F583E4F080BF
:101BE0000EC3EA98EB9940E0C3EC98ED9950D9EE1A
:101BF0002434F8EF3400F9E8FCE9FDEE2435F582F1
:101C0000EF3400F583E0F8EE2437F582EF3400F589
:101C100083E0F50AE508850AF0A4F508AAF0850A2C
:101C2000F0E509A42AF509E82508F8E43509F97A68
:101C3000257B001215E9EA8C828D83F05407F87435
:101C400001B800028004C333D8FCC0E0E0131313D2
:101C5000541FF8EE28F8EF3400F9E8245DF582E926
:101C60003400F583D0E0F8E0586008EE2434F582C3
:101C7000EF801EEE2436F582EF3400F583E0F5F0B8
:101C8000EA84A8F0EE28F8EF3400F9E82438F58269
:101C9000E93400F583E0F9122525021B24C082C037
:101CA00083851882851983E0F8A3E0F9C3EA9CEBE9
:101CB0009D5012C3EC98ED994019C3EA98EB9950E6
:101CC0001279018010C3EA98EB9940F5C3EC98EDC6
:101CD0009950EE7900D083D08222EAC39CFAEB9D22
:101CE000FB2200008521878522C622C0E0C0D0E803
:101CF000C0E0E9C0E0EAC0E0EBC0E0ECC0E0EDC06D
:101D0000E0C008C009C00AC00BC082C083C0F07523
:101D10009B00906182E0A2E64003021DC9E591A20A
:101D2000E64003021DC97591BF90077FE06405700E
:101D300008121065121071800312106B75210012C9
:101D400010CBE9900780F079001210BF120EA37A31
:101D5000017B0090077EE0F9120429907803E0648B
:101D6000426003021E1290091CE014F06003021E80
:101D700012C2AF121D7600782AD0E0F618D0E0F635
:101D8000E59F5407F9700590811C800390811878B5
:101D900008121544E9C4C0E07829E65508F508089A
:101DA000E65509F509740B7808121652D0E025089B
:101DB000F8906270E0A2E740F8E8C333906272F0F6
:101DC000906270E0D2E0F08049E0A2E55024E59115
:101DD000A2E5501E7591DF90077FE0640D701390AF
:101DE00007A1E004F064287002E4F07A00E0F91240
:101DF000113D906181E0A2E35009E5E9A2E35003BF
:101E000075E9F7A3E0A2E75009E591A2E750037551
:101E1000917FD0F0D083D082D00BD00AD009D008E7
:101E2000D0E0FDD0E0FCD0E0FBD0E0FAD0E0F9D08B
:101E3000E0F8D0D0D0E032C0E0C0D0C082C0839003
:101E40006183E0A2E05009E5BFA2E0500375BFFE48
:101E5000E0A2E15009E5BFA2E1500375BFFDE0A299
:101E6000E25009E5BFA2E2500375BFFBE0A2E350D8
:101E700009E5BFA2E3500375BFF7E0A2E45009E50E
:101E8000BFA2E4500375BFEFE0A2E55009E5BFA291
:101E9000E5500375BFDFE0A2E65009E5BFA2E650BA
:101EA0000375BFBFD083D0828088C0E0C0D0E8C0B7
:101EB000E0E9C0E0EAC0E0EBC0E0ECC0E0EDC0E08B
:101EC000C0F0E5A7A2E6500FE5A1A2E6500953A78E
:101ED000BF75A1BF121F0FE5A7A2E5500CE5A1A297
:101EE000E5500653A7DF75A1DFE5A7A2E15009E59C
:101EF000A1A2E1500375A1FDE5A7A2E2500CE5A166
:101F0000A2E2500653A7FB75A1FBD0F0021E20747D
:101F1000F812173775210190077FE06406701512DB
:101F20000FF98A828B83A3A3A3A3A3A3E0FAA3E060
:101F3000FB121053A2AFE433FED2AF900785E064EA
:101F40000170187A207B0090077EE0F91204D17AA4
:101F5000207B0090077EE0F912042F906182E0D28E
:101F6000E6F090091BE0602185C622801690078468
:101F7000E064017008E5C654F84405F5C653BEFC9C
:101F8000121CE47401652160E4EEA2E092AF7F01CF
:101F90000217E3008E238F248582288583278518E6
:101FA00082851983E0CEA3E0CF852882852783EB45
:101FB000C9EAC8EDCBECCA75F010C3E833C8E93301
:101FC000C9EA33CAEB33CBC3EA9EF526EB9FF5256E
:101FD000B35004AB25AA26EC33CCED33CDD5F0DAE3
:101FE000AE23AF242274EB12173774FA1216748AD8
:101FF000088B098C148D1590077FE024F7C3940596
:102000005006908194022147120FF98A0A8B0BAE79
:102010000AAF0BEE4F7003022144AC08AD098518DE
:1020200082851983AA82AB831210838E828F83A349
:10203000A37808121544908160780812151E85183F
:1020400082851983780C121544908160780C1215E2
:102050001E7808790C121356501F7808790C121448
:10206000F69081207808121376404785081085097C
:1020700011850A12850B138041850C10850D118581
:102080000E12850F13781079081214F690812078BB
:1020900010121376501C7510007511007512007522
:1020A00013017810790C1214F6781079081214BD07
:1020B00080089081947810121544740978101214D5
:1020C0009E90813078081215447810790812141502
:1020D0008E828F83A3A3A3A3A3A3E0F8A3E0F97A3E
:1020E000D07B031215E988088909E4F50AF50B7815
:1020F0001079081214BD74041216BFE0F8A3E0F9B9
:102100007AD07B031215E9E8FA8A08E4F509781019
:1021100079081213565007781079081214F69007B0
:102120007FE06408600AE064066005E06405701CF6
:1021300090813878101213765012908154781012D2
:1021400014D0800890818C781012154485148285F3
:1021500015837810121553740612168A7F0E021713
:10216000E374F7121737121095900919E0640170A3
:1021700010906245E4F0A3F053F4F343FE0C539047
:10218000F3121041E5C654804449F5C6E59E547FDC
:10219000644970F8906185740FF0900917E0F4704D
:1021A00002A3E0604E900918E0600814601B146000
:1021B0002E8040750801750900900917E078081213
:1021C0001661E508F45280802A75080175090090AF
:1021D0000917E07808121661E508F452908014752A
:1021E0000801750900900917E07808121661E508E2
:1021F000F452A079007F020217E374F7121737E94F
:10220000FEEAFF74016E700C7A807B0090077EE01E
:10221000F9120429902534E493F46008E493F91248
:102220000E97800953C680E59E547F70FA121047BE
:10223000900919E064017003120EAF900917E0F4E1
:102240007002A3E0604B900918E0600814601A1453
:10225000602C803D750801750900900917E0780829
:10226000121661E508428080287508017509009002
:102270000917E07808121661E50842908013750886
:1022800001750900900917E07808121661E5084207
:10229000A0121095120FF98A088B09A808A909E85D
:1022A000496015E5E170FCE82414F582E93400F595
:1022B00083E0F46003E0F5E174016F700A7A019045
:1022C000077EE0F912049B0221F574F11217378A98
:1022D000088B098C0A8D0B740F1216BF780C12151F
:1022E00044908160780812151E908160780C121558
:1022F0001E7808790C12135650157808790C1214B0
:10230000F6908120780812137640157901801378B1
:102310000C79081214F6908120780C12137640EB99
:1023200079007F080217E374ED1217378A088B09CA
:102330008C0A8D0B74131216BF780C121544908101
:1023400060780812151E908160780C12151E780CAA
:10235000790812135640117808790C1214F6AA085D
:10236000AB09AC0AAD0B8022751000751100751217
:10237000007513017810790C1214F6781079081290
:1023800014BDAA10AB11AC12AD137F0C0217E39071
:10239000816078081215448A828B8378081215317F
:1023A0007F040217E374F51217378C828D83780847
:1023B0001215448A828B83780812150AEA2404F8DD
:1023C000EB3400F98C828D83A3A3A3A3E0FCA3E0EC
:1023D000FD88828983C3E09CF0A3E09DF088828918
:1023E00083C3E09420A3E0944E4022908168780853
:1023F0001215448A828B8378081214E38A828B83B5
:10240000A3A3A3A3E02420F0A3E0344EF0808074C3
:10241000F5121737E9FE9008D1E0FAA3E0FBEEC30E
:1024200033F8E433F9749228F582748039F583E047
:102430002AF508A3E03BF50978081218DE908170B0
:10244000121562121F94740212168A8A088B098C64
:102450000A8D0B74107808121485AA08AB097F0442
:102460000217E374F11217378A0C8B0D8C0E8D0F47
:10247000740F1216BFE0FAA3E0FB74111216BFE04E
:10248000F508A3E0F50974131216BFE0FEA3E0FF00
:1024900078081218DEEA2401F508EB3400F509E4A7
:1024A000F50AF50B780C7908121395908174780869
:1024B000121544780C7908121395AA0CAB0DAC0ECA
:1024C000AD0F121F94740212168A8B09EA45096037
:1024D000047A0180027A00EC2AFCED3400FDECF86D
:1024E000EDF97A717B021215E988088909E4F50A89
:1024F000F50B8E828F837808121553ECF8EDF97A7C
:10250000717B021215E98A088B0974057808121686
:10251000618E828F83A3A3A3A3E508F0A3E509F04E
:102520007F080217E3C082C083E9906000F0D08387
:03253000D0822234
:10253400FFFFFFFFFFFFFFFFC082C083E9900D573D
:10254400F002275B74F71216CBE990069DF07CD558
:102554007D067AFF7BFF120BD390069E74FFF0A3D7
:10256400F0A3E4F0A3F07905120B6190069DE0F965
:10257400120A897AEB7B0B120DAD02346974F412E2
:1025840016CB8A088B09EB5480603090069DE0F9E5
:102594001204118A0A8B0BAE0AAF0BEE4F60138E36
:1025A400828F83E064B07003120B73EEFAEFFB12B8
:1025B40003FFAA08E5096480FB80047A007B00021B
:1025C400272A74F21216CB74FC121674EAFEEBFF7F
:1025D40074121216BF123950EE4F7003022669743A
:1025E400021216BFEEF0A3EF122965ECF0A3ED1270
:1025F4002965AA82AB83120A83E9F50A706AE508A1
:10260400450960648E828F83123936EE4F60567AA4
:10261400067B001204838A0C8B0DA80CA90DE849D3
:102624007005750A13804188828983E4122676EE48
:10263400F0A3EF123961E508F0A3E509F09006A3D1
:102644001226FD9006A37005123413801B12340168
:102654008003EAFCEBFD8C828D831226FD70F38CE3
:10266400828D8380E3750A02A90A740412168A0211
:102674003B50F0A3123907A32274F21216CB890A35
:10268400E975F017A4FEAFF09006A2E4F09006A05E
:102694001226FD600A1204899006A0E4F0A3F0EE6D
:1026A400FAEFFB1204838A088B09EA4509602FEECE
:1026B400FCEFFD79001203ED9006A0E508F0A3E518
:1026C40009F07B0080081226E7E4F0A3F00BEBC3CB
:1026D400950A40F2E50A9006A2F079008002791387
:1026E400023B50EB75F017A4F8A9F09006A0E0287F
:1026F400FAA3E0398A82F583221230A5EA4B2274C8
:10270400F41216CB7900EAA2E0501B7508EE7509A5
:102714008078081218DE7C047D007A597B0D120B38
:102724005B740212168A7F0402179DC082C08390D4
:1027340006A3122762601C88828983A3A3E06A70BF
:1027440003A3E06B8882898370E8A3A3A3A3123058
:10275400A180047A007B00D083D082020135123C30
:1027640036E8492274EE1216CB74FC121674EAFE93
:10277400EBFF851882851983E4F0A3F0EE2402129E
:1027840033F3EE240512390EEE2404F50EEF122D68
:102794001AE024FE603924FC604624FE605224FEC4
:1027A400605E24FE700302287B24FE70030228DF8F
:1027B40024FE70030228EE24FE70030228FD24FC8C
:1027C400700302290C24FE700302291B022958906D
:1027D40006BC7417F0A3E412296D120801022958EB
:1027E400851882851983AC82AD83120B790229285E
:1027F400851882851983AC82AD83120B7F02292848
:10280400850C08850D0974021216BFAC82AD838550
:1028140008828509831230A1120AA78A0C8B0DAC99
:102824000CAD0DEC4D603BE4F50CF50D780C121875
:10283400DE750CBC750D06780C1218DE750CBD75B2
:102844000D06780C1218DE74081216BF1218F51251
:102854003C5A12168AE9F50C700B123097120819BB
:10286400800F750C0185088285098312295B123457
:1028740013850C0802292B74021216BFAC82AD8397
:10288400850C82850D83122E6C603C850C82850D2F
:1028940083A3A31218F57510BC75110678101218CD
:1028A400DE7510BD75110678101218DE7408121644
:1028B400BF1218F5123C5A12168AE9F509700B1268
:1028C400309712081F800F750901850C82850D83CE
:1028D40012295B123413850908804C8518828519E6
:1028E40083AC82AD83120B85803A85188285198367
:1028F400AC82AD83120B8B802B851882851983AC37
:1029040082AD83120B91801C851882851983AC8259
:10291400AD83120B97800D851882851983AC82AD27
:1029240083120B9DE9F508E50860298E828F83A345
:10293400E06414601F850E82850F83E09006BC124C
:102944002965123C329006BD123413E508A31229FE
:102954006D1207FB023302123C36851882851983F7
:1029640022F085188285198322F07CBC7D06850AB5
:1029740082850B831230A52274EE1216CB74FC12DE
:1029840016748A0A8B0B8C0E8D0FEA2405F508EB5E
:102994003400F5097C157D0079007ABC7B061203AE
:1029A400EDE5082402F50CE5091239118518828534
:1029B400198385821085831178101218DE850882A8
:1029C400850983A3A3A3A3122E631218DEE50824AA
:1029D40005F510E5093400F51178101218DE850CA0
:1029E40082850D831231B8120AA1740612168A8ADE
:1029F400108B11AE10AF11E50A2402F50AE50B1293
:102A040033F6EE4F7003022B3A801774021216BF8E
:102A14001230A188828983EAF0A3EBF09006BCE02F
:102A240004F09006BCE0C394054003022B3AE4F59D
:102A340010F51178101218DE7510A57511067810AE
:102A44001218DE7510A675110678101218DE7406B9
:102A54001216BF1218F57910EEFCEFFD123C5C1251
:102A6400168AE9705E850882850983A3A3A3A3A3BC
:102A7400A3A3E0F89006A5E0687048122E6312182C
:102A8400DE7CA67D06E5082408FAE5093400FB127D
:102A940003E7740212168AE960298E828F83A3A346
:102AA400A3A31230A19006BCE0F5107402781012B2
:102AB400166174BD2510F58274063511F583EAF0AC
:102AC400A3EBF074021216BF85821085831178106F
:102AD4001218DE74021216BF1218F5850C82850DC9
:102AE400831230C712168A8A108B11AE10AF119060
:102AF40006BCE0F5107511007402781012166174AA
:102B0400BC2510F874063511F988828983A312262E
:102B1400FD7003022A06E82403080808E93400F9D2
:102B2400EE4F6003022A0F8882898374FFF0A3F0BA
:102B34009006BCE004F09006BCE0600A12309712E4
:102B4400080D7900800B85088285098312340A797F
:102B54000A02330274EA1216CB74FE1216748C1233
:102B64008D13EA2405F50CEB123C4412393A75082E
:102B740000750900EA2402F510EB3400F5118518FC
:102B84008285198385820A85830B780A1218DE856B
:102B94000C82850D83A3A3A3A3122D301218DEE5A6
:102BA4000C2405F50AE50D1233F6780A1218DE85B1
:102BB4000C82850D83122D34120AA1740612168A12
:102BC4008A0A8B0BEA450B7003022CD5EA2404F520
:102BD4000EEB122D1A12393A8A828B83A3A3A3E037
:102BE400F98510828511831230AB6003022CD5E481
:102BF400F514F51578141218DE7514A575150678F4
:102C0400141218DE7514A675150678141218DE74DD
:102C1400061216BF1218F57913AC0AAD0B85108293
:102C2400851183123C6212168AE9F5096003022CAD
:102C3400D59006A5E0F8E5087009E024029006BDE9
:102C4400F080149006BDE0FCE82402FAE43400FBB2
:102C5400EA6C7001EB707E850882AA82122E5A9467
:102C640014122E52506B850E82850F83E0C0E074DF
:102C7400BE2A122D11D0E0F00508850E82850F833F
:102C8400A3E0C0E085080A74BE250A122D11D0E025
:102C9400F005089006A5122D301218DE7CA67D06DC
:102CA40085080A74BE250A122D2412168A9006A5D8
:102CB400E02508F50874FF6E700374FF6F6012EE70
:102CC40024010EEF3400FFE508C394145003022BD3
:102CD40082E50860131230B58510828511831230A5
:102CE400A112081379008014E509700375090A8597
:102CF4001282851383EEF0A3EFF0A9097402121671
:102D04008A7F0E02179D85080C74BE250CF582740B
:102D1400063400F583223400F50F850E82F58322F4
:102D2400FA74063400FB1203D5740222123970229D
:102D3400A3A3122D3A22123401FDEEFAEFFB227402
:102D4400EE1216CB74FE1216748C0E8D0FEA240547
:102D5400F50CEB123911750B009006BCE4F0F50A82
:102D6400EA2402F508EB3400F50980449006BCE03F
:102D7400FA9006A5E0F8122E5A9417122E52400D1E
:102D84009006BCE0F87416C3989006A5F0122E6362
:102D94001218DE7CA67D0674BD2AFA7406122D274D
:102DA40012168A9006A5E0F89006BCE028F0050A01
:102DB400E50C2416F582E50D122D15E0F8E50AC39D
:102DC4009850749006BCE0C39416506BE50AC33364
:102DD400F8E433F9E50C28FEE50D39FF8518828502
:102DE4001983AC82AD838E828F83122E6C7008752A
:102DF4000B011234068050E4F510F5117810121806
:102E0400DE7510A575110678101218DE7510A675FA
:102E1400110678101218DE74061216BF1218F5790E
:102E240016850882850983123C6212168AE9F50B1D
:102E34007003022D7080BB7CBC7D068508828509E9
:102E4400831230A1120825A90B7402023304E994F9
:102E540000C365D03322EA28F8E43400F9E822E01C
:102E6400F5107511007810221232F98A108B11AC0A
:102E740010AD11EC4D2274EA1216CB74FC121674C8
:102E84008A0C8B0D8C128D13EA2405F50AEB123390
:102E9400F6750800750900E50A2402F510E50B34FF
:102EA40000F51174021216BF85820E85830F780E09
:102EB4001218DE850A82850B83A3A3A3A3123916F5
:102EC4001218DEE50A2405F50EE50B3400F50F783B
:102ED4000E1218DE8510828511831233FC12309B8A
:102EE400120AA1740612168A8A0E8B0FAE0EAF0F49
:102EF400E50C2402F50EE50D3400F50F80388882C8
:102F0400898374FFF00508122D0A74FFF0050890F8
:102F140006A5E0F50C750D00780C1218DE7CA67D74
:102F24000685080C74BE250C122D2412168A9006F0
:102F3400A5E02508F508EE4F60278E828F83A3A3B2
:102F4400A3E0F9850E82850F831230ABEE240412C0
:102F5400390EE96027850C82850D8312308D123479
:102F640013E50870030230731230B5850E82850FA5
:102F7400831230A112082B7900023088E4F514F58D
:102F84001578141218DE7514A57515067814121820
:102F9400DE7514A675150678141218DE7408121658
:102FA400BF1218F57911EEFCEFFD850E82850F83B3
:102FB400123C6212168AE9F509709A850882AA827F
:102FC400EA9006A57009E024049006BDF08025E08F
:102FD400F89006BDE0F514E82404FCE43400FDECAC
:102FE40065147001ED7081122E5A9412122E524003
:102FF40003022F6C850C82850D83E0C0E074BE2A29
:10300400122D11D0E0F00508850C82850D83A3E014
:10301400C0E0122D0AD0E01230D085820C85830DD9
:10302400780C1218DE74041216BF1218F58510827B
:103034008511831230C712168A8A0C8B0DAE0CAF21
:103044000D85080C74BE250CF874063400F9EE4F97
:103054007003022F02851882851983E08882898390
:103064001230D0A3E0C0E0122D0AD0E0022F10E508
:1030740009700375090A850A82850B8312308D1243
:103084003413A9097404022D02123C368512828578
:103094001383227CBC7D06850A82850B831230A5AE
:1030A40022E0FAA3E0FB221230A5120A8FE9F50907
:1030B400229006BDE0F5F0E508849006BCF07CBCE7
:1030C4007D0622122D3A120AAD740422F0050885F9
:1030D40018828519832274EC1216CB74FE121674AE
:1030E4008A088B098C0E8D0FEA2405FEEB3400FF51
:1030F4001232E3EE241812390EEA450B7003023142
:10310400861232CC50291231AB8A108B11EA451148
:10311400606B7912AC0AAD0B850882850983123085
:10312400A18510828511831216C9E9F50A7058E445
:10313400F50AF50B780A1218DE8E828F83A3A3E0BA
:10314400F50A780A1218DEEE24031233F3780A1211
:1031540018DE8E828F831231B8120BC174061216D8
:103164008AE9F50A7021850C82850D83E0701F853C
:1031740008828509831230A11208318011750A0E64
:103184008009750A018004E50A6003123406850C7F
:1031940082850D83E0600479008002A90A7402121A
:1031A400168A7F0C02179D8518828519831230A513
:1031B400120BAF22123401FD850882850983123077
:1031C400A52274EE1216CB74FE1216748A088B09AB
:1031D4008C0C8D0DEA2405FEEB3400FF750E0012F5
:1031E40032E3EA450B70030232AA1232CC502C129D
:1031F40031AB8A0E8B0FEA450F604A7912AC0AADE7
:103204000B8508828509831230A1850E82850F8380
:103214001216C9E9F50E60030232AD8508828509EC
:10322400831234E8AA0AFB1232BE70147AFF7BFFC1
:103234001232BE606C88828983E50AF0A3E50BF044
:10324400750A008007750E0E805F050A9006A2E0DD
:10325400FAE50AC39A504AE50A75F017A4FAABF0E6
:1032640088828983A3A3E02AFAA3E03BFB8A828BAA
:10327400831233FCEC4D70D2750A17750B00780A73
:103284001218DEEEFCEFFD1203D5740212168AEE5C
:10329400FCEFFD8508828509831230A1120837806E
:1032A40014750E098003750E01123C2E850C82855F
:1032B4000D83123413A90E022E4D120BA38A108B08
:1032C40011A810A911E84922E5082402F508E50926
:1032D4003400F5098A828B83A3A3A3E0A2E52285A7
:1032E4001882851983AC82AD838E828F831232F962
:1032F4008A0A8B0B22E0FAA3E0FB120AA7227404C9
:1033040012168A7F0A02179D74EC1216CB8C108D4C
:1033140011EA2405F50CEB123911750F00EA2402A9
:10332400F50AEB1233F6850A82F5831230A1123CBA
:10333400E870030233E8750E008071850C82850DF8
:1033440083E06401704F8E828F83A3A31218F58EDD
:10335400828F83A3A3A3A3E0F5127513007812123E
:1033640018DEEE2405F512EF3400F5137812121866
:10337400DE12309B120BC1740612168AE9F50F6037
:1033840014850C82850D83E4F0123C2E8510828511
:1033940011831234137C177D007900EEFAEFFB12CF
:1033A40003ED8E828F83E4F0A3F0050E9006A2E075
:1033B400F8E50EC398501EE50E75F017A4F8A9F0B1
:1033C400850882850983A3A3123C4E1233FCEC4D7D
:1033D400600302333F85088285098374FFF0A3F0FC
:1033E400E50F700612309B12083DA90F0231A6F5B5
:1033F4000AEF3400F50B22A3123401FD22E0FCA3F2
:10340400E0228E828F83123C36850E82850F83E8FC
:10341400F0A3E9F022C082C08390069EE06A7003A4
:10342400A3E06B70067A9E7B0680047A007B000220
:10343400275B74F71216CB7F00EF75F003A4F8A98D
:10344400F0EC28F8ED39F988828983E06A7003A3E7
:10345400E06B7006E8FAE9FB800B0FEFC3940240BF
:10346400D87A007B007F0102179D74F61216CB12E6
:103474003A1F70067A007B008007A3A3A3A312302F
:10348400A1023AE074F21216CBE9FE740E1216BFD2
:103494001234E874101216BF1239508C828D83E0F6
:1034A4006402703BA3123C3288828983E0F50CA34A
:1034B400E0F9A80C74026870037429697021750C12
:1034C40002750D00780C1218DE78081218DE780ADE
:1034D4001218DEEEF9120BE5740612168A800279D0
:1034E40001023B50E0F50AA3E0F50B2274E8121642
:1034F400CB74FB121674E9851882851983F08A1639
:103504008B178C0E8D0F741F1216BF123950742135
:103514001216BF1234E874231216BF12393A75100A
:10352400008C828D83A3A3A3E0A2E4502A741D120D
:1035340016BF1231B18A828B83E582458370030200
:1035440035FC790AAC0EAD0FAA16AB171216C9E9F1
:10355400F51060030235FF850E82850F83E0640257
:1035640060030238B5A3123C32850882850983A31F
:10357400858212858313E50E2406F50CE50F1239B6
:103584001188828983E0FAA3E0F9EA2400F514E4BF
:1035940039F5157814121968010000280128C4357A
:1035A400070002289B3603280B360029C53701295A
:1035B400ED37022994370329C53704295638B5381D
:1035C400EE4F703E850C82850D8312392BFAE9FB90
:1035D4008A828B83E0850A82850B831239671218ED
:1035E400DE8A828B83A3123401FDAA08AB0912037D
:1035F400D5740212168A800375100EA91074050280
:103604003C3C75100B80F4EE4F70F7850A82850BF5
:10361400837401F0123940850882850983F07C00A7
:103624007D00850E82850F83A3A3A3A3E02401FA62
:10363400A3E03400FB120AA7EA4B60418A828B8321
:10364400E02402F8850A82850B83E028F0EA24044A
:10365400F8EB3400F988828983E08512828513832C
:103664001239791239671218DE8A828B831233FB7E
:10367400E5082403FAE5093400FB0235F2850A82E1
:10368400850B83E02404F07C047D007900AA12AB4E
:10369400131203ED0235FFEE4F60030236061239B2
:1036A40040FEA3E0FF850A82850B837404F0EE8557
:1036B4000882850983F0EF851282851383F07403F1
:1036C4001216BFAC82AD83EEFAEFFB123A0D700313
:1036D4000237718A828B83A3A312393674011216BE
:1036E400BF85820E85830F780E1218DE74051216BC
:1036F400BF1218F57CFF7DFF120AAD740412168AFE
:103704008B0FEA450F7033850C82850D83123916B1
:103714001218DE850C82850D83A31218F57C027DB8
:10372400007ADE7B811208D9740412168AE9700AC1
:1037340074011216BF74FFF0A3F08E828F83E064CD
:10374400027034750C02750D00780C1218DE8E822E
:103754008F831233FBE5082404FAE509122D27129E
:10376400168A850A82850B83E0240280097401127B
:1037740016BFEEF0A3EFF074011216BF123927F052
:1037840074011216BFA312391FA3A3A3F00235FFBD
:10379400EE4F6003023606850C82850D831233FCDE
:1037A400AA16AB17120BD9850A82850B837402F013
:1037B400EA850882850983F0851282851383EB806C
:1037C400CBEE4F6003023606123940F8A3E0F985C8
:1037D4000A82850B837402F0E8850882850983F0E8
:1037E400E985128285138380A3850C82850D83125B
:1037F40030A11203CFEAFC8C82A882C39EE49F40CE
:103804004BE86E7001EF70047C00801F8518828580
:103814001983E0FAEE2AFAEF3400FBC3EA98EB943A
:10382400005003E08004EECCC39CFCEC850A828546
:103834000B83F08C0A750B00780A1218DE850C8253
:10384400850D83E02EFCA3E03F0235ED75100702E1
:1038540035FFEE4F6003023606850C82850D831218
:103864003C32850A82850B837407F088828983122F
:10387400391F123907E0851282851383F0E8240288
:10388400FAE93400FB8A828B8312391F12395812E9
:103894003927A3123961123930F0E82405F8E934E4
:1038A40000F988828983123930A3123979A3023747
:1038B4008D741D1216BF123A1870030235FC123CA7
:1038C40032880C890DE8450D70030235FC8E108F8B
:1038D4001178101218DE780A1218DE78081218DE31
:1038E40074061216BFE0F9AC0EAD0FAA16AB17851D
:1038F4000C82850D831216C9740612168AE9F51016
:103904000235FFF088828983A322F50CEF3400F599
:103914000D22E0F50E750F00780E22E085088285F1
:1039240009832212398022123C36E822123980A3FC
:10393400A322A3A3A3A3E0FEA3E0FF22850C828518
:103944000D83E0F8A3E0F5838882E022E0F508A384
:10395400E0F50922A3A3F08A828B83A3221226789E
:10396400A3A322F08A828B8312397022E0F50A75B0
:103974000B00780A2212390712398022E085088266
:10398400850983A3A32274EE1216CB74FE12167457
:103994008A0A8B0BECFAEDFB74141216BFE0F510D7
:1039A400A3E0F51174161216BFE0FE74181216BFC8
:1039B400E0F50EA3E0F50F851882851983AC82AD7E
:1039C40083123A0D603E851882851983123A186075
:1039D4002FA3A3123950E50845096024780E121864
:1039E400DE78101218DEEEF9AC0CAD0DAA0AAB0BA2
:1039F4008508828509831216C9740412168A800602
:103A0400790E80027901022E4D120AA78A0C8B0DC1
:103A1400EA450D221230A5123A1F22120B6D8A823A
:103A24008B83E58245832274F61216CB74FE12163C
:103A340074740C1216BF12392B851882851983F001
:103A440074011216BFE9F0E4F508F50978081218B4
:103A5400DE75080278081218DE74041216BF858217
:103A64000885830978081218DE120BC17406121631
:103A74008A740212168A806474F71216CBEAFEEB7B
:103A8400FF89087CD57D06120BD9EA5402600BA984
:103A940008EEFAEFFB120A9B800279010234697482
:103AA400F61216CB74FF6A700374FF6B701C7B00F4
:103AB400EB75F003A4F8A9F0EC28F8ED39F9123A03
:103AC400E50BEBC39402501480E6120BA98A088B11
:103AD40009A808A909E8496003123AE57F02021718
:103AE4009D8882898374FF122676E4F02274F6128C
:103AF40016CB120BA98A828B83E58245836006A3C9
:103B0400A3E0FA80027A007B0080D174F21216CB13
:103B14008A088B09ECFEEDFF740E1216BFE0F50A5D
:103B2400123B55701CEEFCEFFD7AFF7BFF123B55F8
:103B340070047911801688828983E508F0A3E50969
:103B4400F088828983A3A3E50AF079007F0602172F
:103B54009D120BA98A0C8B0DA80CA90DE84922749F
:103B6400EE1216CBEAFEEBFF8C088D09890C741259
:103B74001216BF123C3274141216BF1233FC7416A0
:103B84001216BF1230A1750D00EC4D6003023C26E5
:103B94007402650C6003023C21888289831234011B
:103BA400F9EC2400F50EE439F50FEAF4F8EBF4F936
:103BB400EC58F8E50F59F9E849705DE5082406F872
:103BC400E5093400F9880A890B8882F583122D36B9
:103BD400120BD98A108B11E50E65107004E50F6580
:103BE400116042780E1218DE850A82850B83122D2D
:103BF40036120BDF740212168AE9F50D7027780E5F
:103C04001218DE850882850983A3A3122D34120BB2
:103C1400F1740212168A800D750D808008750D0DE1
:103C24008003750D0BA90D0233078E828F83123C1E
:103C34003622E0F8A3E0F92212168A7F1002179DBB
:103C44003400F50D850C82F58322E028FEA3E039CB
:103C5400FF8E828F83227916850A82850B83123028
:103C6400A5120BBB74082274F21216CBEAFEEBFF0A
:103C7400890B7401650B600E7402650B7063790126
:103C8400120DCBE9705BEEFAEFFB123CE86047756E
:103C94000A00800B7C177D0079001203ED050A9061
:103CA40006A2E0F8E50AC3985021E50A75F017A4C6
:103CB400F8A9F0850882850983A3A3E028FAA3E084
:103CC40039FB8A828B8312276270C9850882850931
:103CD4008374FFF0A3F07CD57D06EEFAEFFB120BA4
:103CE400D3023B50120BA38A088B09EA45092274BC
:103CF400F21216CB8A088B09ECFEEDFF740E121635
:103D0400BF1234E8900D57E0F4603D7A097B00124D
:103D140003F9EA4B60328A828B8374B1F0A3E41214
:103D2400395AA3123958A3E508F0A3E509123D4F07
:103D3400EEF0A3EF123D4FA3A3E50AF0A3E50BF0C9
:103D4400900D57E0F9120405023B50F08A828B83F0
:103D5400A3A3A3A3A322C082C0839061907404F0A0
:103D6400A37448F0A37402F09061807440F09061F1
:103D7400BC7403F09061877419F0906265741BF051
:103D840090619C740DF090619A7433F0A37455F0B3
:103D94009061A0743AF0900919E064017009C2912D
:103DA400900783746780059007837461F090253AC7
:103DB400E493906186F0902534E493F46027E493CF
:103DC400540FF8906185E0686012E5C65480444958
:103DD400F5C6E59E547F644970F8E8F053C680E563
:103DE4009E547F70FA790512111F023F9CC082C055
:103DF40083E9540FF9906185E0696012E5C6548047
:103E04004449F5C6E59E547F644970F8E9F053C609
:103E140080E59E547F70FA023F9CC082C083E5A86F
:103E2400F853A87E906181E4F0A3F0A3F0C2BA53E2
:103E34009AFEC289759B00C2C275E900759100752E
:103E4400BF0075A91175B905906181F0A374C0F024
:103E5400A3E4F0D2BA439A0174805842A8023F9C6A
:103E6400C082C08374F8121674900781E0F8A3E04E
:103E7400F9E8497003023F92900781E054406023BF
:103E84007908851882851983AA82AB83120F8785E6
:103E94001882851983AA82AB83120C5D900781E096
:103EA40054BFF0E054806010790C7A3D7B09120F06
:103EB40087900781E0547FF0E0A2E0503190619A4E
:103EC4007433F0A37455F09061A0743AF09009191A
:103ED400E064017009C291900783746780059007BC
:103EE400837461F0120C63900781E054FEF0E05497
:103EF40002603190619A743FF0A3745AF09061A00B
:103F0400747FF0900919E064017009D291900783DD
:103F140074718005900783746AF0120C63900781B2
:103F2400E054FDF0E054046013902538E49390616C
:103F340086F0120C69900781E054FBF0E0540860AD
:103F440013902539E493906186F0120C69900781EF
:103F5400E054F7F0E05410601390253AE493906134
:103F640086F0120C69900781E054EFF0E054206071
:103F74000A120C69900781E054DFF0A3E054016059
:103F84000D120EAF120C6F900782E054FEF074080D
:103F940012168A8003F0A3F0D083D0820201357414
:103FA400EC1216CB74F4121674851882851983AC3E
:103FB40082AD8375838175825874041215879025A8
:103FC4003893F46003024130907808E0C3940250BF
:103FD4000302411074041216BFAC82AD8375838052
:103FE4007582C274081215878518828519838582A3
:103FF4001285831374041216BFAC82AD83750EFF51
:10400400750FFF7FFF7E00750C48750D7880157461
:10401400086E70030240A374096E70030240A37417
:104024000A6E607B850C82850D8378081215448C9A
:10403400828D83A909E50AC9F888107418780812D2
:104044001485E5104508F8C3E098A3E099850C822F
:10405400850D83780812154440188C828D8374185A
:104064007808121485E5104508F8E0C398F8A3E031
:10407400801C74187808121485E5104508FAE9FBC9
:104084008C828D83E0F8A3E0F9EAC398F8EB99F900
:10409400C3E8950EE9950F5006880E890FEEFF0EC2
:1040A400E50C2404F50CE50D3400F50DEEC3941372
:1040B400500302401374FF650E700474FF650F60B3
:1040C400238F087402780812166174482508F58253
:1040D40074783509F583780812154485128285139E
:1040E40083E508F0EC24020C0CED3400FD8512820B
:1040F400851383A3858212858313740C1216BFE57E
:10410400826C7003E5836D600302400175080175DC
:10411400090078081218DE74021216BFAC82AD834F
:104124007A4E7B09120621740212168A740C121636
:104134008A7F0C02179DC082C0839061AE7468F0C0
:10414400A3746AF090624574FBF0A304F053F4FD89
:1041540043FE029009197401F09061A0E0643A9062
:10416400619A70237433F0A37455F09061A0743A8B
:10417400F0740164017009C2919007837467802808
:1041840090078374618021743FF0A3745AF09061A6
:10419400A0747FF0740164017009D2919007837454
:1041A400718005900783746A023F9B7F0402179D08
:1041B400C082C0839008CBE06401700A9008D0E00C
:1041C4006004790C80027900023F9CC082C0837530
:1041D400E1F19008CEE06055146008146059146051
:1041E400518059120EC19008C4E0F97AC57B0812B7
:1041F40010A19081501215621210D79081A012154F
:10420400621210AD9008CFE0F91210B979011211C1
:10421400139008C2E02416F8A3E03400F9888289D8
:104224008374D9F0A3740EF07900023F9C120EC778
:1042340080B4120ECD80AF120ED380AA791280EA18
:1042440074F41216CB75D90D9008B3E0A2E0E433F0
:104254001313F89008C4E0C4333354C0484401F540
:10426400D978C2790888828983A3A3A3E0F5D98881
:10427400828983A3A882A983E864C87003E96408D7
:1042840070E378B3790888828983A3E0F5D98882BA
:104294008983A3A882A983E864B97003E9640870D8
:1042A400E575E1959008B3E0F97AB47B081210A79C
:1042B400900D79746DF0A3740EF0A374CFF0A37411
:1042C4000FF0A374CFF0A3740FF0A374CFF0A37412
:1042D4000FF0A37473F0A3740EF0A374CFF0A3745F
:1042E4000FF0A3748BF0A3740EF0900D8774CFF0CD
:1042F400A3740FF0A374CFF0A3740FF0A374CFF0E2
:10430400A3740FF0A374CFF0A3740FF0A374CFF0D1
:10431400A3740FF0A374CFF0A3740FF09008C2E05D
:10432400F8A3E0F5838882A3A3780812154490814A
:104334002878081214D0908160780812151E90080D
:10434400C2E0240EF8A3E03400F988828983780857
:104354001215539008C2E02414F8A3E03400F9883D
:104364008289837413F090077F7402F00241AFC016
:1043740082C0839008D4E02407F5D99008C4E0C42F
:10438400333354C0F5D978C2790888828983A3A3CA
:10439400A3E0F5D988828983A3A882A983E864C8A5
:1043A4007003E9640870E39008D4E0601F78C27970
:1043B40008FAE82413F582E93400F583E0F5D98896
:1043C400828983A3A882A9831AEA70E69008F4E09C
:1043D4002407F5D99008C4E0C4333354C04404F529
:1043E400D978C2790888828983A3A3A3E0F5D98800
:1043F400828983A3A882A983E864C87003E9640856
:1044040070E39008F4E0601F78C27908FAE8243376
:10441400F582E93400F583E0F5D988828983A3A87D
:1044240082A9831AEA70E675E195900D797479F0A2
:10443400A3740EF0A374CFF0A3740FF0A374CFF0A1
:10444400A3740FF0A374CFF0A3740FF0A37473F0EC
:10445400A3740EF0A374CFF0A3740FF0A3748BF0C5
:10446400A3740EF0900D8774CFF0A3740FF0A374AF
:10447400CFF0A3740FF0A374CFF0A3740FF0A37460
:10448400CFF0A3740FF0A374CFF0A3740FF0A37450
:10449400CFF0A3740FF09081681215629008C2E007
:1044A400240EF8A3E03400F98882898312156E90F3
:1044B40008C2E02414F8A3E03400F98882898374E4
:1044C40012F090077F7401023F9BC082C083900862
:1044D400D4E02407F5D99008C4E0C4333354C0446D
:1044E40002F5D978C2790888828983A3A3A3E0F569
:1044F400D988828983A3A882A983E864C87003E960
:10450400640870E39008D4E0601F78C27908FAE880
:104514002413F582E93400F583E0F5D98882898390
:10452400A3A882A9831AEA70E675E195900D7974BF
:1045340085F0A3740EF0A37485F0A3740EF0A37435
:1045440085F0A3740EF0A37485F0A3740EF0A37425
:1045540085F0A3740EF0A37485F0A3740EF0A37415
:104564008BF0A3740EF0900D8774CFF0A3740FF04A
:10457400A374CFF0A3740FF0A374CFF0A3740FF05F
:10458400A374CFF0A3740FF0A374CFF0A3740FF04F
:10459400A374CFF0A3740FF0908168121562900891
:1045A400C2E0240EF8A3E03400F98882898312154E
:1045B4006E9008C2E02414F8A3E03400F9888289DC
:1045C400837414F090077F7404023F9BC082C083FD
:1045D4009008D4E02407F5D99008C4E0C4333354D8
:1045E400C04406F5D978C2790888828983A3A3A335
:1045F400E0F5D988828983A3A882A983E864C87076
:1046040003E9640870E39008D4E0601F78C2790875
:10461400FAE82413F582E93400F583E0F5D98882B9
:104624008983A3A882A9831AEA70E69008F4E02497
:1046340007F5D99008C4E0C4333354C04404F5D911
:1046440078C2790888828983A3A3A3E0F5D98882F4
:104654008983A3A882A983E864C87003E964087005
:10466400E39008F4E0601F78C27908FAE82433F58F
:1046740082E93400F583E0F5D988828983A3A8828E
:10468400A9831AEA70E675E195900D79747FF0A319
:10469400740EF0A374CFF0A3740FF0A374CFF0A33F
:1046A400740FF0A374CFF0A3740FF0A374CFF0A32E
:1046B400740FF0A374CFF0A3740FF0A3748BF0A362
:1046C400740EF0900D8774CFF0A3740FF0A374CF21
:1046D400F0A3740FF0A374CFF0A3740FF0A374CFFE
:1046E400F0A3740FF0A374CFF0A3740FF0A374CFEE
:1046F400F0A3740FF09081681215629008C2E02450
:104704000EF8A3E03400F98882898312156E9008AC
:10471400C2E02414F8A3E03400F988828983741574
:10472400F090077F7403023F9BC082C0839008C24D
:10473400E0F8A3E0F5838882A3A3A3A3A3A3E402E0
:104744003F9974F71216CB9007ADE0F875F004A406
:10475400C8AAF02AF974AF28F8740739F9E82405CF
:10476400FAE93400FB8A828B83E0FCA3E0FD8882B3
:104774008983A3A3A3A3A3A3A3A3A3ECF0A3EDF012
:1047840088828983A3A3A3A3A3A3A3E024FFF8A3FC
:10479400E034FFF98A828B83E8F0A3E90249EB74E1
:1047A400F71216CBEAFEEBFF9061D0E060030248FB
:1047B4008075D90E75D90375D904EE248CF582EF72
:1047C4003400F583E5822408F8E5833400F9E0F544
:1047D400D9A3E865827003E9658370F2EE2484F559
:1047E40082EF3400F583E5822404F8E5833400F98C
:1047F400E0F5D9A3E865827003E9658370F275E199
:10480400957908EE248CFAEF3400FB120F7B7904BF
:10481400EE2484FAEF3400FB120F7B7C00EEF8EFF9
:10482400F9ECFAC3E49AFA95E0FBEE2AFAEF3BFBC3
:10483400EA248BF582EB3400F583E0C0E0E824AB96
:10484400F582E93400F583D0E0F00C88828983A3F3
:10485400A882A983ECC3940840C7EE2470F582EFC4
:104864003400F583E0F8A3E0F9EE2472F582EF3426
:1048740000F583E8F0A3E9F07901800279000249A8
:10488400ECC082C08375D90275D90375D90575E169
:1048940095EA2470F582EB3400F583E0F8A3E0F99F
:1048A400EA2472F582EB3400F583E8F0A3E9F079A9
:1048B40001023F9C74F61216CBEAFEEBFF90091D31
:1048C4007406F075081D75090978081218DE7C0154
:1048D4007903120FC3740212168A75D90675D903A7
:1048E40075821D758309E0F5D9A3E58264227004FD
:1048F400E583640970F075E19590077FE0640870C2
:104904001EEE2470F582EF3400F583E0F8A3E0F99D
:10491400EE2472F582EF3400F583E8F0A3E9F07930
:1049240001024AB874F61216CBEAFEEBFF9061D08E
:10493400E07066780190091D740BF090077FE064C5
:1049440007701975081D75090978081218DE7C01AD
:104954007903120FC3740212168A7805740128F5BC
:10496400D975D90375821D758309E8FAE0F5D9A3D1
:104974001AEA70F875E195EE2470F582EF3400F5CB
:1049840083E0F8A3E0F9EE2472F582EF3400F583B6
:10499400E8F0A3E9F0790180027900024AB874F7DB
:1049A4001216CBEAFEEBFF75D90375D90375D90D41
:1049B400EE24DEF582EF3400F583E0F5D975E19558
:1049C40079041210DDEE2470F582EF3400F583E0F3
:1049D400F8A3E0F9EE2472F582EF3400F583E8F0F1
:1049E400A3E9F079018001F07F0102179D74F612AA
:1049F40016CBEAFEEBFF9061D0E0F87480C398FA1E
:104A0400EE2483F582EF3400F583E06004780480BB
:104A1400027800E8240BF8EAC3985003024AB67DF2
:104A24000990091DEDF0EE24E3F8EF3400F97A1E45
:104A34007B097C0888828983E08A828B83F0888260
:104A44008983A3A882A9838A828B83A3AA82AB8346
:104A54001CEC70E0EE2483F582EF3400F583E06013
:104A64001D75081D75090978081218DE7C0979037B
:104A7400EEFAEFFB120FC3740212168A7D0D740155
:104A84002DF5D975D90375821D7583098D08E0F557
:104A9400D9A31508E50870F675E19579041210DDBF
:104AA400EE241DF582EF3400F583E4F0A3F07901E0
:104AB400800279007F0202179D74F61216CBEAFE7B
:104AC400EBFF9061D0E0F87480C398FAEE2483F58C
:104AD40082EF3400F583E06004780480027800E813
:104AE4002408F8EAC3985003024BBD7D0690091DC3
:104AF400740CF090079CE090091EF07A9D7B077877
:104B04001F79097C028A828B83E088828983F08AF8
:104B1400828B83A3AA82AB8388828983A3A882A978
:104B2400831CEC70E07A9F7B077C028A828B83E093
:104B340088828983F08A828B83A3AA82AB8388824A
:104B44008983A3A882A9831CEC70E0EE2483F582F8
:104B5400EF3400F583E0601D75081D7509097808B8
:104B64001218DE7C067903EEFAEFFB120FC374020F
:104B740012168A7D0A74012DF5D975D90375821D23
:104B84007583098D08E0F5D9A31508E50870F67555
:104B9400E19579041210DDEE2470F582EF3400F50E
:104BA40083E0F8A3E0F9EE2472F582EF3400F58394
:104BB400E8F0A3E9F0790180027900024AB874F6BA
:104BC4001216CBEAFEEBFF9061D0E0F87480C39834
:104BD400FAEE2483F582EF3400F583E06004780470
:104BE40080027800E82404F8EAC3985003024C9C3D
:104BF400780290091DE8F0EE24F5F582EF3400F513
:104C040083E090091EF0EE2483F582EF3400F583EF
:104C1400E0601B75081D75090978081218DE7C020E
:104C24007903EEFA120FC3740212168A780674011D
:104C340028F5D975D90375821D7583098808E0F5AF
:104C4400D9A31508E50870F675E195EE2474F5828C
:104C5400EF3400F583E4F0EE2480F582EF3400F5C0
:104C640083E4F0EE241DF582EF3400F583E4F0A331
:104C7400F079041210DDEE240DF582EF3400F58393
:104C8400E0F8A3E0F9EE2472F582EF3400F583E84E
:104C9400F0A3E9F0790180027900024AB874F612AF
:104CA40016CB9061D0E0F87480C398FCEA2483F5B5
:104CB40082EB3400F583E06004780480027800E835
:104CC4002404F8ECC398405B790290091D7407F042
:104CD400EA24F6F582EB3400F583E090091EF0EA4D
:104CE4002483F582EB3400F583E0601875081D75A4
:104CF400090978081218DE7C0209120FC374021223
:104D0400168A7906740129F5D975D90375821D753A
:104D14008309E9F8E0F5D9A318E870F875E1957905
:104D24000180027900024AB874F51216CBE9FCA29C
:104D3400AFE433F50AC2AF7D0080010DEA246FF5BC
:104D440082EB3400F583E0F8EDC398501A8D08EA3D
:104D54002508F8EB3400F9E8246BF582E93400F512
:104D640083E06C70D68024EA246FF8EB3400F9E019
:104D7400FEEA2EFAEB3400FBEA246BF582EB3400F6
:104D8400F583ECF088828983E004F0E50AA2E092DE
:104D9400AF7F0302179D74F61216CBA2AFE433FD66
:104DA400C2AFEA246FF582EB3400F583E014F07CA3
:104DB4000060368C08EA2508F8EB3400F9E8246C26
:104DC400F582E93400F583E0C0E0E8246BF582E97C
:104DD4003400F583D0E0F00CEA246FF582EB340064
:104DE400F583E0F8ECC39840CAEA246EF582EB340C
:104DF40000F58374FFF0EA246AF582EB3400F5834E
:104E0400E4F0EDA2E092AF024AB8C082C083E5A804
:104E1400F8C2AFEA246BF582EB3400F583E9F0EADB
:104E2400246AF582EB3400F583E4F0E8A2E792AF5C
:104E3400023F9C74F31216CBEAFEEBFFECFAEDFB97
:104E44008A828B83A3A3A3A3E0541FF0EE2436F538
:104E540082EF3400F583E4F0F50AEEFCEFFD8A827C
:104E64008B83E0C0E0EC245DF582ED3400F583D063
:104E7400E0F0750B00E50A33333354F8F50C8A82FD
:104E84008B83E0F508750900E50B7808121642E5F6
:104E940008A2E0502FEE2436F8EF3400F988828916
:104EA40083E0F508EE2508F508EF3400F509E50878
:104EB4002438F582E5093400F583E50CF08882890D
:104EC40083E004F0050B050CE50BC3940840AF0523
:104ED4000A8A828B83A3AA82AB838C828D83A3AC40
:104EE40082AD83E50AC394055003024E627F050236
:104EF400179D74F71216CB9007ABE0640170077A24
:104F0400007B0002506D7E009007B1E070F17401E7
:104F1400F0A3E4F0A3F090081104F0900814E4F076
:104F2400A3F090081704F09007B4E4F0A3F0A3F002
:104F3400A3F09007BE04F09007E4E4F090818C1293
:104F440015629007C712156E9007CBE4F0A3F0A387
:104F5400F090082FF0900823F09008187480F0A3C4
:104F6400E4F090081EF0900816F090089AF0A3F070
:104F7400A3F0A3F0A3F0A3F0A3F0A3F09008A3F090
:104F8400900832F0900882F0A3F090818C121562A0
:104F940090088412156E90818C1215629008881204
:104FA400156E90088EE4F0900890F090088CF090C4
:104FB40008A6F0A3F0A3F0A3F0A3F0A3F0A3F0A33A
:104FC400F078AB7907E8246FF582E93400F583744F
:104FD400FFF00E88828983A3A882A983EEC3940478
:104FE40040E37AAB7B0778BA790888828983E0C08A
:104FF400E0EA2461F582EB3400F583D0E0F08882A6
:105004008983A3A882A9838A828B83A3AA82AB8380
:10501400E864BF7003E9640870D07AAB7B077892C8
:10502400790788828983A3E0C0E0EA24E7F582EB6C
:105034003400F583D0E0F088828983A3A882A98311
:105044008A828B83A3AA82AB83E8649A7003E9649F
:105054000770CF9007ABE004F0640170089007B3C9
:10506400E09007ADF07AAF7B070249ECC082C083C1
:105074009007B2E4F09007B1F09007ABF0A3F0A36F
:1050840074FFF075E1F1023F9CC082C0837800791F
:10509400009007B2E0600478AF790788828983A31F
:1050A400A3A3A3E0F9023F9C74F61216CBEAFEEB2D
:1050B400FF8E828F83A3A3A3E0600F8E828F83A3CE
:1050C400A3A3E4F09007ACE014F09007ABE014F075
:1050D40070069007AD74FFF08E828F83A3A3E4F073
:1050E4009008BFE0700D9007ACE064017005790092
:1050F4001210BFEE2465F582EF3400F583E0F8A3C7
:10510400E0F9E8496029EE2465F8EF3400F98808ED
:1051140089098882F583E0FCA3E0FD9007ADE0FAFD
:105124007B00120C93850882850983E4F0A3F0EEDA
:10513400FAEFFB120FF3024AB874F71216CBEAFE29
:10514400EBFF8E828F83A3A3A3A3E0FA7B00120C50
:10515400D5EEFAEFFB120F45120FDB0249ECC082C9
:10516400C0837892790788828983A3E4F08882894E
:1051740083A3A882A983E8649A7003E9640770E6AC
:105184009007930244C974F61216CBEAFEEBFFECC7
:105194002403F8ED3400F988088909EC2407F8EDB4
:1051A4003400F9E8FCE9FD8C828D83E0F8A3E0F992
:1051B400850882850983E0FAA3E0FB1215E9EE2451
:1051C4000DF582EF3400F583E8F0A3E9F08C828DCD
:1051D40083E0F8A3E0F9850882850983E0FAA3E077
:1051E400FB1215E98B09EA45096013EE240DF582DB
:1051F400EF3400F583E02401F0A3E03400F0024A28
:10520400B874F61216CBEAFEEBFFEE242EF582EF0D
:105214003400F583E0FCA3E0FD780079FAECFAEDC4
:10522400FB1215E9EE2470F582EF3400F583E8F003
:10523400A3E9F0780079FAECFAEDFB1215E98B0991
:10524400EA45096013EE2470F582EF3400F583E03B
:105254002401F0A3E03400F0024AB874F01216CB33
:10526400EAFEEBFF74101216BF78081215441210F0
:105274007D8A0C8B0D8C0E8D0F908124780C12146A
:10528400D0908160780C12151E780C1218DA8E8278
:105294008F83E0F8A3E0F5838882A3A3121562123A
:1052A40022CA740412168AE960030253AC8E828FF8
:1052B40083E02402F8A3E03400F9E8FAE9FB8A82E7
:1052C4008B8378081214E390816078081215448A5D
:1052D400828B837808121531EE240BF582EF3400AB
:1052E400F583C082C0838E828F83A3A3A3A3A3E08C
:1052F4002401F8A3E03400F9D083D082E06870037D
:10530400A3E069700579010253AE8E828F83A3A353
:10531400A3A3A3A3A3E02401F0A3E03400F0EE24AC
:1053240074F582EF3400F583E064017036EE247581
:10533400F582EF3400F583E0F8A3E0F98E828F83E1
:10534400A3A3A3A3A3A3A3E0687003A3E0697013BA
:10535400EE2475F582EF3400F583E02401F0A3E038
:105364003400F0EE2480F582EF3400F583E064012C
:105374007036EE2481F582EF3400F583E0F8A3E083
:10538400F98E828F83A3A3A3A3A3A3A3E0687003CE
:10539400A3E0697013EE2481F582EF3400F583E015
:1053A4002401F0A3E03400F079007F0802179D7413
:1053B400F71216CB9007ADE0F875F004A4C8AAF074
:1053C4002AF974AF28FE740739FF8028EE2465F8A3
:1053D400EF3400F988828983E0FCA3E0FD888289A8
:1053E40083E4F0A3F08E828F83A3A3A3A3E0FA7BCC
:1053F40000120C93EE2465F582EF3400F583E0F897
:10540400A3E0F9E849604FEE2464F582EF3400F537
:1054140083E0F50878081218E2EE2463F582EF348D
:1054240000F583E0F9EE2465F582EF3400F583E0BE
:10543400FCA3E0FDEEFAEFFB120F6F740112168A63
:10544400E96089EE2465F582EF3400F583E0F8A382
:10545400E0F9E84970137C007D008E828F83A3A35A
:10546400A3A3E0FA7B00120C930249EC74F2121627
:10547400CBEAFEEBFF890A740E1216BFE0FAEE24A3
:1054840062F582EF3400F583E06401600302553C69
:105494009061D0E0F87480C398F50CEE2483F58213
:1054A400EF3400F583E06004780480027800890812
:1054B400E928F8E43400F9E824020808E93400F99A
:1054C400E50C98E499A2D265D0334068EA7005757A
:1054D4000B028003750B01E060397509007808122E
:1054E40018DE7A1D7B09120FA5740212168A75083C
:1054F4001D75090978081218DEAC0AA90BEEFAEF3B
:10550400FB120FC3740212168A7404250AF50A7C6E
:105514001D7D097401250AF5D9850BD9E50A600DAD
:105524008C828D83F8E0F5D9A318E870F875E195BD
:10553400790080067907800279FF7F0602179DC0F3
:1055440082C083E960208C828D83E08A828B83F021
:105554008C828D83A3AC82AD838A828B83A3AA823F
:10556400AB8319E970E0ECFAEDFB023F9C74EA129C
:1055740016CB907803E06442705E90091CE014F04E
:105584007056C2AF12558B00782AD0E0F618D0E0DE
:10559400F6E59F5407F9700590811C8003908118EB
:1055A4007808121544E9C4C0E07829E65508F508DE
:1055B40008E65509F509740B7808121652D0E0254F
:1055C40008F8906270E0A2E740F8E8C33390627292
:1055D400F0906270E0D2E0F09007ADE0F470030266
:1055E4005994E0F875F004A4C8AAF02AF974AF2815
:1055F400FE740739FFEE2402F582EF3401F583E0EF
:10560400F8A3E0F9E849601EEE2402F582EF3401C4
:10561400F583E0FAA3E0FBEE2401F582EF3401F513
:1056240083E0F91204298E828F83A3A3A3A3A3A3E7
:10563400A3E0F8A3E0F98E828F83A3A3A3A3A3E836
:10564400F0A3E9F0906054E0900786F0906055E094
:10565400900787F0906056E0900788F0906057E0DC
:10566400900789F0906058E090078AF0906059E0C4
:1056740090078BF090605AE090078CF090605BE0AC
:1056840090078DF090605CE0FC90078EF090605D78
:10569400E0FB90078FF090605EE0FD900790F09043
:1056A400605FE0FA900791F090078CE08C08250881
:1056B400F8E43400F98D08E82508F8E93400F98B9A
:1056C40008E82508F8E93400F98A08E82508FAE921
:1056D4003400FBEE24F7F582EF3400F583E02AF082
:1056E400A3E03BF08C08EE24F9F582EF3400F58357
:1056F400E02508F0A3E03400F0EE24FBF582EF345B
:1057040000F583E02401F0A3E03400F0EE24FFF57B
:1057140082EF3400F583E0F8A3E0F9E849604290B1
:105724006000E0C333FCE433FDE82CF582E93DF589
:1057340083E02AF0A3E03BF0906000E0FA90078E4B
:10574400E0FCEAC333FAE433FBE82AF8E93BF9E87E
:10575400244AF582E93400F583E02CF0A3E0340018
:10576400F090078CE0701190078FE0700BA3E0704D
:1057740007A3E070030258748E828F83A3A3A3A3AC
:10578400A3E0F8A3E0F9EE240DF582EF3400F583ED
:10579400E028F8A3E039F9EE240BF582EF3400F5A4
:1057A40083E8F0A3E9F0EE240FF582EF3400F583EB
:1057B400E4F0EE241CF582EF3400F583E06401701C
:1057C4001EEE2420F582EF3400F583E0F8A3E0F91F
:1057D400EE241DF582EF3400F583E8F0A3E9F090A0
:1057E4000787E06052EE241CF582EF3400F58374E1
:1057F40001F0EE246AF582EF3400F583E07038EEB0
:105804002474F582EF3400F583E0702BEE2480F5E8
:1058140082EF3400F583E0701EEE2420F582EF342D
:1058240000F583E0F8A3E0F9EE241DF582EF3400DF
:10583400F583E8F0A3E9F0906062E0700302592771
:105844008E828F83E0F8A3E0F9E82406FCE93400B3
:10585400FDE82402FAE93400FB1210778E828F836C
:10586400E02412F8A3E03400F988828983025931D4
:1058740090078EE0603AEE240FF582EF3400F58352
:10588400E4F0EE241CF582EF3400F583E06401704B
:1058940040EE2420F582EF3400F583E0F8A3E0F92C
:1058A400EE241DF582EF3400F583E8F0A3E98020AF
:1058B400EE24FDF582EF3400F583E02401F0A3E04B
:1058C4003400F0EE241DF582EF3400F583E4F0A3F8
:1058D400F0EE240BF582EF3400F583E0F8A3E0F951
:1058E4008E828F83A3A3A3A3A3E0687003A3E069BC
:1058F40060030257E3EE240FF582EF3400F583E0F2
:1059040060128E828F83A3A3A3A3A3E06405700215
:10591400A3E0600B7908EEFAEFFB120F4B8071796C
:105924003E80F3EE241DF582EF3400F583E4F0A30A
:10593400F0906060E0C0E0EE2469F582EF3400F599
:1059440083D0E0F090078CE0F8EE2467F582EF3422
:1059540000F583E028025A9490091AE06401703536
:1059640012112BEE2467F582EF3400F583E0700604
:105974009060607480F0EEFAEFFB121035E9640178
:10598400600E120F6912102FE964016003120FDB1D
:105994007F0E02179DEE2483F582EF3400F583E039
:1059A4006004780480027800E50CC398F9120C872F
:1059B4008A0A8B0BEA450B60A7EE2483F582EF3449
:1059C40000F583E070048A088B09E50C60128508F1
:1059D40082850983F512E5D9F0A31512E51270F654
:1059E400EE2483F582EF3400F583E0603774FC2500
:1059F4000CF50C78081218DEAC0CA90DEEFAEFFBCE
:105A0400120FC9740212168AE970197403650D70B5
:105A140003025AD4E50A24FBFAE50B34FFFB120413
:105A240089025AD47403650D7003025AD9850C0E89
:105A3400750F00780E1218DEAC08AD09AA0AAB0B7C
:105A4400120FA5740212168AEE2469F582EF34004F
:105A5400F583E064807004747F8001E0F5087808C1
:105A64001218E2E50DF50878081218E2A90CAC0A40
:105A7400AD0B9007ADE0FA7B00120C8D7402121688
:105A84008A121137EE2467F582EF3400F583E014AF
:105A9400F0E0700302597475081D750909750A0050
:105AA400750B00E5D914F50CE5D95403F50D602008
:105AB4007403650D70030259CEE50C700302595C42
:105AC400EE2468F582EF3400F583E0600302595C4C
:105AD400793D02591A850882850983E0F8A38582F5
:105AE40008858309603B147003025CD114700302BF
:105AF4005FC5147003025D2F24FD7003025E4F1412
:105B04007003025A85147003025EA524FE7003021A
:105B14005E5E147003025EA0147003025F3A025FBB
:105B240049EE2477F510EF3400F511E085108285F5
:105B34001183F0850882850983A3858208858309FA
