:020000040000FA
:0600000002011D02233F76
:03002B00021BFCB9
:030053000223B2D3
:03006B00021BA6CF
:03007B00021BD194
:100083000221ABE5C754F84401F5C779012200000A
:100093000080FB120086B90003020107E47921788E
:1000A30008B800028004F709D8FCE479297802B87B
:1000B30000028004F709D8FCE49002817888790C67
:1000C3008002F0A3D8FCD9FA781A90014D7A01BACC
:1000D30000028007E493A3F608DAF9900E08AA82D7
:1000E300AB8390014E78ED79038015E493A3AC8242
:1000F300AD838A828B83F0A3AA82AB838C828D83A8
:10010300D8E9D9E77582FB758381740412012F75D1
:100113008291758300740012012F75D00075813FA1
:10012300751881751902759F00020096C09FF59F8F
:10013300E473D09F22D083D082C09FE493C0E07445
:100143000193C0E0740293F59F2201FFFF2C0199F4
:10015300011299040102AA81010000838102A48192
:100163000100000E0E02B2810100000F0E029E81FB
:10017300030000AA02029081010000100E01E803AF
:10018300053F100A024669726D77617265000000CF
:100193000000000000001A446F2053796E630000D2
:1001A3000000000000000000084150502053657417
:1001B30020436C6F636B00000000084150502053D4
:1001C30065742054696D657A6F6E650008415050FF
:1001D3002053657420537973416374000000120146
:1001E3000044617461204865616465720000000029
:1001F3000000124461746120426F647900000000C2
:100203000000000002AA810100007A8102A481019A
:100213000000410E028C81010000A70302A08101AE
:100223000000420E02A481010000530E02868103E6
:100233000000A903029E81030000B10302A0810113
:100243000000540E02A481010000650E02B6810273
:100253000000B70302A081010000660E02A4810121
:100263000000770E02CA80020000BB0302A08101D6
:100273000000780E02A4810100009B0E02A28103FC
:1002830000009C0E029E81030000BD0302A08101B9
:1002930000009E0E02A481010000AF0E02A881039C
:1002A3000000C303029E81030000CB0302A081016F
:1002B3000000B00E02A481010000890E02968102A3
:1002C3000000BC0302A0810100008A0EFF00013080
:1002D300750302010600000000000000000000009A
:1002E300000000000000000000000000000000000B
:1002F30000FFFF0600800CE8032C010E1F4A7FAAB3
:10030300BA99CACA780A094C312D303030303030AE
:1003130005122003B004020A0002010605020023AD
:100323000F184C312D3030303030300DC4090000FF
:10033300AE080000C008FF0000B400002800280039
:10034300283075A000A000A000A00000080008E06D
:1003530001F00010001000100010001000100050F9
:10036300005000500010001000D0070000000000F3
:10037300000F000100050030750700100001008127
:10038300FF00000000FF3C0B5A0B420BFF0202026E
:1003930008025000A0000000E80302AA8101000047
:1003A300808102A4810100004A10029C81010000A7
:1003B3007B0902A4810100004B10029A8101000015
:1003C300910902A4810100004C10029881010000F0
:1003D300930902A4810100004D1002B081080000BE
:1003E300940902A4810100004E10029481010000CF
:1003F3004F10FF0100FF2002AA810100007D81024E
:10040300A481010000B310029281000000000002E9
:100413009E81030000E1090611061106110611066B
:100423001106110611061106110611061106110611
:10043300119A13B2139413120138C59A0312013897
:10044300DA9A03120138329B03120138999B031283
:100453000138E19B03120138579C03120138869C33
:1004630003120138949C03120138F89C03120138DB
:10047300369D03120138519D03120138E99D031281
:100483000138929E03120138159F031201384E9FC3
:1004930003120138D99F0312013830A00312013827
:1004A3008FA003120138A1A003120138C7A00312C1
:1004B3000138D0A0031201382FA20312013803B16F
:1004C30003120138E2B1031201383EB203120138BC
:1004D30058B20312013869B20312013864B503122A
:1004E300013884B5031201387AF103120138BFF1E0
:1004F3000312013805F20312013898F3031201388D
:100503000080041201381B80041201382B8004126E
:100513000138828004120138CE800412013835B7C5
:100523000312013855B70312013859B803120138C1
:10053300A5B803120138C5B80312013818B903125C
:10054300013885B903120138CBB9031201382FBA28
:1005530003120138E1BC0312013898FD031201387C
:10056300C8FD03120138F8FD0312013818FE031207
:10057300013872FE03120138A9D403120138DED404
:1005830003120138F1D4031201382CD503120138B8
:1005930044D50312013825D60312013809D70312B3
:1005A300013895D703120138B7D803120138B27F47
:1005B30000120138718104120138B9810112013826
:1005C300C78401120138878601120138328701126C
:1005D3000138D687011201386F88011201389E88CD
:1005E30001120138788D01120138238E011201386E
:1005F300938F01120138FB8F01120138AF90011262
:100603000138719301120138B09301120138249417
:1006130001120138839401120138E2940112013866
:100623005195011201384496011201388A9601123C
:100633000138CF9601120138F296011201386D98F4
:100643000112013880980112013889990112013889
:10065300C89901120138F49901120138479A01121D
:100663000138689A01120138AC9A01120138FE9CD4
:10067300011201383F9D01120138EA9D0112013830
:10068300559E01120138929F01120138F9F90312A4
:1006930001380AFA03120138D8FA031201380CFBA5
:1006A300031201383DFB03120138D1EE0312013866
:1006B3006CF1031201388182041201384DFB0312DD
:1006C30001385DFB0312013874FB0312013879FC16
:1006D3000312013874E6031201381AE703120138D2
:1006E30036E90312013856E303120138A3E3031278
:1006F3000138D5E30312013866E403120138E2E45A
:10070300031201382FE50312013875E5031201388E
:10071300DBE5031201383BF70312013870F70312CC
:100723000138DDF703120138F4F70312013850F8EA
:10073300031201388DF80312013890F803120138BF
:100743009C8204120138AE8204120138B182041271
:100753000138F87F0012013824EC031201381BEE34
:100763000312013887EE03120138CEEE031201386B
:10077300A39203120138EB92031201380893031278
:100783000138A59403120138F695031201383B97FB
:1007930003120138F4980312013824990312013823
:1007A300369903120138AF9903120138C199031224
:1007B30001383A9A031201384C9A03120138B37D77
:1007C300001201381C7E00120138DA7E0012013853
:1007D300597F0012013830E00312013862E003123E
:1007E30001386AE1031201388FE20312013899F2EA
:1007F300021201387FF302120138CCF302120138DE
:100803000FF40212013884F402120138E5F40212E3
:1008130001385AF50212013836F60212013841F74F
:1008230002120138C2F70212013869F902120138C3
:10083300FFF90212013872FA02120138EEFA0212BB
:10084300013805FB021201383CFC0212013896FC08
:1008530002120138F0E00112013888E50112013873
:100863005CE80112013885E801120138AEE8011293
:10087300013860E90112013846EB0112013881ECBD
:1008830001120138B7F101120138F0F101120138F8
:1008930034F20112013846F301120138782A0012AA
:1008A3000138F22E00120138513700120138513944
:1008B30000120138C13A00120138063B0012013818
:1008C300353B00120138273C00120138743C0012FA
:1008D30001387C3D00120138BC3D00120138623EF4
:1008E30000120138873E00120138B83E0012013869
:1008F300433F00120138FC40001201380758001230
:100903000138685D00120138206000120138BA60B6
:10091300001201386A610012013882610012013845
:10092300AE6100120138E161001201384762001222
:100933000138B76200120138756400120138DCF324
:1009430003120138F3F30312013824F403120138BC
:100953005FF40312013889F403120138B3F403126C
:100963000138CAF403120138E1F403120138F8F430
:100973000312013821F50312013834F5031201384B
:100983004AF5031201385DF50312013884F50312A9
:1009930001380080031201380481031201383C81BD
:1009A300031201385F81031201386A81031201388F
:1009B3008D81031201389C82031201387183031263
:1009C3000138EC8303120138748403120138AF84B5
:1009D30003120138E68403120138748503120138C7
:1009E3004D8603120138AD8603120138B88603120F
:1009F30001383787031201383A87031201383D87DC
:100A030003120138CC8703120138CF870312013850
:100A1300FF8703120138298803120138178903124B
:100A23000138C9890312013889C203120138B1C2DE
:100A330003120138DFC20312013816C3031201384F
:100A430074C303120138BFC3031201380AC403126B
:100A530001384AC40312013890C403120138BEC4DA
:100A6300031201387BC50312013885C5031201380F
:100A730092C503120138C5C50312013891C603128A
:100A830001389DC603120138B5C603120138BFC62B
:100A930003120138A3FE03120138B1FE0312013819
:100AA300C9FE03120138E1FE03120138519F0212FD
:100AB3000138FD9F0212013878A00212013899A172
:100AC30002120138D5A1021201387EA202120138A6
:100AD30065A302120138C9A40212013820A502122B
:100AE3000138A1A50212013891A602120138DEA62F
:100AF3000212013864A70212013896A702120138C4
:100B0300AAA902120138ECA9021201380AAA021298
:100B130001388DAA0212013861AB0212013829ACE7
:100B230002120138E0A903120138B3AA03120138F3
:100B33005CAB03120138AFAB031201385FAC031295
:100B43000138EBAC03120138D7AD0312013806AEFE
:100B53000312013819AF0312013861AF03120138D0
:100B630036B00312013872B0031201388EB003128B
:100B730001387AFF0312013897DC03120138ADDC28
:100B830003120138D3DC03120138EFDD03120138FD
:100B9300F9DD031201382EDF0312013826E00312B8
:100BA300013862BD0312013892BE03120138C5BE7B
:100BB300031201380FBF03120138D6C003120138E4
:100BC3000080021201386A8002120138C9810212C0
:100BD3000138D981021201380682021201385D827E
:100BE300021201380683021201380D840212013801
:100BF300D784021201383786021201387A8602122C
:100C030001381F87021201386C870212013892875C
:100C130002120138A08902120138A5890212013893
:100C2300AA8B02120138F78B021201386A8C021266
:100C330001389D8C021201383F8D02120138E88D74
:100C430002120138208E02120138238E021201385B
:100C53006B8E02120138AB8E02120138028F021220
:100C6300013851E90312013869E903120138B1E986
:100C730003120138C7E9031201380EEA03120138DF
:100C830022EB03120138AFEB03120138FAEB031224
:100C930001381765001201382365001201385E65BB
:100CA30000120138A365001201386366001201388F
:100CB300E966001201381567001201384E67001209
:100CC30001388C6900120138706B00120138566DBF
:100CD30000120138996E00120138E77000120138D2
:100CE300F971001201384473001201385474001270
:100CF3000138717400120138AC7400120138CE74DB
:100D030000120138317500120138F27900120138EE
:100D1300877A00120138D87A00120138FF7A00125C
:100D23000138517B001201386F7B00120138C97BF7
:100D330000120138C87C001201384C7D00120138C2
:100D430046C70312013850C70312013893C7031271
:100D53000138AEC7031201383EC80312013866C812
:100D630003120138A3C803120138DAC80312013889
:100D730003C90312013878C9031201388DC903125C
:100D83000138A2C903120138D3C903120138E7C9D4
:100D9300031201380CCA0312013846CA0312013880
:100DA30072CA03120138AACA0312013829CB0312EB
:100DB300013872CB031201389CCB03120138C7CB25
:100DC300031201387FFC03120138C6E50212013811
:100DD300F4E50212013842E70212013822E8021256
:100DE300013841E802120138BEE80212013801E974
:100DF3000212013857EA0212013818EB02120138C5
:100E03009FED0212013840EE0212013836EF021252
:100E1300013833F0021201388DF10212013818F251
:100E2300021201389EF80312013807F90312013840
:100E33005BF90312013882F903120138B3F9031283
:100E43000138EFCB031201385CCC03120138A3CC79
:100E530003120138BBCD03120138B7CE0312013898
:100E63009ACF031201383A8A031201387C8A03129B
:100E730001384E8B03120138278C03120138218D60
:100E830003120138038E031201386C8E03120138EA
:100E9300228F03120138968F031201380290031236
:100EA30001382B9003120138A590031201383E91AB
:100EB30003120138A39103120138B89103120138C8
:100EC300FE91031201381792031201387C92031228
:100ED30001387F920312013802FD021201382AFD04
:100EE3000212013868FD0212013826FE021201388F
:100EF3008DFE02120138A9FE02120138D1FE021240
:100F0300013801FF0212013810FF021201388DFF70
:100F130002120138B3FF02120138EF8F02120138B7
:100F2300CD9102120138FF93021201383B94021251
:100F330001386894021201385295021201389D95C6
:100F430002120138E89502120138FA9502120138AB
:100F53003A96021201386F9602120138BD960212B8
:100F63000138EC96021201380F97021201385C9790
:100F730002120138E19702120138FB99021201387B
:100F83003A9C021201387B9C021201381D9E021208
:100F930001385E9E02120138D19E02120138279F4A
:100FA30002120138B1D802120138AFD90212013846
:100FB30048E00212013869E20212013834E40212F5
:100FC30001389CE502120138C69F0112013875A051
:100FD30001120138A2A001120138E8A00112013860
:100FE30028A201120138BEA30112013838A401124C
:100FF300013853A401120138CEA40112013828A6E6
:101003000112013888A7011201388EA80112013894
:10101300EFA90112013808AA0112013866AA0112C8
:10102300013854AB0112013887AB01120138F7AB19
:101033000112013871AC01120138BBAC0112013845
:1010430085AD011201385AAE0112013839AF0112D0
:101053000138C4AF0112013832B001120138A6B011
:1010630001120138D1B00112013890B101120138D7
:10107300F5B20112013812B30112013831B3011272
:10108300013822B40112013847B40112013871B496
:1010930001120138ECB40112013846B501120138CE
:1010A300AFB6011201385DB7011201389EB70112C4
:1010B3000138DDCA021201382BCB0212013837CBBB
:1010C3000212013815CC0212013846CC0212013843
:1010D30077CC02120138F7CC021201382FCD02125D
:1010E300013881CD02120138BECD02120138DBCFA7
:1010F3000212013801D202120138ECD30212013874
:10110300D6D5021201386D2A00120138DDCC011246
:1011130001380DCD01120138E6D3011201386BD528
:101123000112013868DB0112013850DC0112013869
:101133008DDC01120138B0DC01120138E1DC01124F
:101143000138EADC01120138F4DC01120138E2DD76
:1011530001120138D8DE01120138CEB7011201386D
:10116300CDBB01120138D3BB011201380EC30112EA
:10117300013827C801120138C9D8031201385FD9D1
:101183000312013875D903120138EBD90312013860
:101193005FDA031201389DDA0312013811DB0312FF
:1011A30001388ADB0312013893DB031201389FDB1A
:1011B30003120138B4DB03120138F2DB03120138E6
:1011C30008DC0312013867DC031201385CD0031218
:1011D300013869D00312013883D003120138C2D019
:1011E3000312013800D10312013865D1031201380B
:1011F3007AD10312013885D10312013892D1031237
:101203000138A9D103120138B7D103120138C2D171
:1012130003120138CED103120138DDD10312013894
:10122300E8D1031201380BD203120138B2D20312F0
:101233000138C2D203120138DCD203120138F9D2C9
:101243000312013815D3031201383AD303120138BC
:1012530045D3031201385AD3031201386ED3031254
:101263000138CFD303120138D5D303120138DBD3AE
:1012730003120138E1D303120138F9D30312013801
:101283002CD403120138B3BC0212013837BD021249
:101293000138E6BD0212013845BF0212013866C1AA
:1012A3000212013852C20212013887C202120138F7
:1012B300A9C20212013858C30212013850C50212E2
:1012C300013879C5021201380BC6021201383DC636
:1012D300021201384AC602120138A1C602120138AD
:1012E300C7C60212013834C90212013837CA0212C2
:1012F30001388FCA0212013842AE021201384CAFD4
:101303000212013833B0021201383DB00212013823
:101313005FB0021201386BB00212013804B202123C
:10132300013833B2021201384FB302120138A8B3A5
:10133300021201380EB502120138EDB5021201385E
:1013430049B602120138B6B602120138F1B60212DA
:10135300013830B702120138E9B90212013803BA71
:10136300021201388FBA021201389DBA02120138F3
:10137300F6BA0212013804BB0212013877BB02121B
:101383000138DBBB0212013825BC0212013806F416
:101393000112013828F4011201384EF60112013806
:1013A30063F9011201387BFA011201382EFB011295
:1013B300013810FC0112013896F503120138BBF510
:1013C300031201382DF60312013866A20312013805
:1013D3006FA20312013878A2031201384FA303123C
:1013E300013800A50312013836A50312013870A590
:1013F30003120138A6A503120138E0A50312013830
:1014030014A60312013840A60312013889A6031259
:101413000138C3A6031201380CA70312013864A7CD
:101423000312013899A703120138F4A703120138F4
:101433002EA8031201387FA803120138B5A803129E
:101443000138EFA8031201381DA90312013840A97E
:101453000312013834FF0112013860FF0112013811
:10146300BBFF01120138C5FF01120138D5FF01127C
:101473000138558204120138DFFF01E0667010085D
:10148300A3E066700A08A3E066700408A3E066227E
:10149300C3E7960809E7960809E7960809E796223D
:1014A300C3E09608A3E09608A3E09608A3E096227B
:1014B300C008C3E096F50808A3E096420808A3E035
:1014C30096420808A3E09645087001D3D008220885
:1014D3000808EAC0E0EBC0E086F0E7A4FA18098642
:1014E300F0E7A42AFA180986F0E7A42AFA1809866D
:1014F300F0E7A42AFA1986F0E7A4FBE5F02AFA1923
:101503000886F0E7A42BFBE5F03AFA190886F0E722
:10151300A42BFBE5F03AFA18180986F0E7A4C5F006
:101523002BFBE43AFA1908E7C5F0C6A426F6E5F062
:101533003BFBE43AFA1886F0E7A4F6E5F00826F652
:10154300E43B08F6E43A08F6D0E0FBD0E0FA22E404
:10155300CFC0E0E4CEC0E0E4CDC0E0E4CCC0E075B1
:10156300F020C3E633F608E633F608E633F608E67A
:1015730033F6181818EC33FCED33FDEE33FEEF337E
:10158300FFC3EC9709ED9709EE9709EF971919191E
:10159300400FFFEC97FC09ED97FD09EE97FE191933
:1015A30006D5F0BEECF709EDF709EEF709EFF719E9
:1015B3001919D0E0FCD0E0FDD0E0FED0E0FF2260BE
:1015C30017080808C6A2E713C618C613C618C61319
:1015D300C618C613C6D5E0E9226016080808C6C3B4
:1015E30013C618C613C618C613C618C613C6D5E045
:1015F300EA227009080808226016181818C6C333AF
:10160300C608C633C608C633C608C633C6D5E0EA1D
:1016130022E627F60809E637F60809E637F6080949
:10162300E637F622E026F608A3E036F608A3E0360E
:10163300F608A3E036F622E026F008A3E036F00829
:10164300A3E036F008A3E036F022C3E697F60809D4
:10165300E697F60809E697F60809E697F622C3E047
:10166300C696F608A3E0C696F608A3E0C696F60863
:10167300A3E0C696F622C3E096F008A3E096F0082E
:10168300A3E096F008A3E096F022E657F60809E6F1
:1016930057F60809E657F60809E657F622E056F624
:1016A30008A3E056F608A3E056F608A3E056F62290
:1016B300E056F008A3E056F008A3E056F008A3E0D4
:1016C30056F022E0F608A3E0F608A3E0F608A3E04C
:1016D300F622E6F008A3E6F008A3E6F008A3E6F096
:1016E30022E0FAA3E0FBA3E0FCA3E0FD22EAF0A3DF
:1016F300EBF0A3ECF0A3EDF022CAC0E0E6F0A30800
:10170300DAFAD0E0FA22CAC0E0E0A3C582CCC582EF
:10171300C583CDC583F0A3C582CCC582C583CDC5A2
:1017230083DAE6D0E0CA22C3E498F8E499F9121701
:101733006B8026C3E49AFAE49BFBE920E7E91217DE
:101743006BE498F8E499F922C3E498F8E499F91260
:10175300176BE498F8E499F9C3E49AFAE49BFB2243
:10176300EB20E7CFE920E7E0B90010BB0008E88AE7
:10177300F084F8AAF022E4FBC8FA22EB70227B1073
:10178300C833C8C933C9335007C39AC3DBF28006D1
:101793009A50012ADBEAC833F4C8C933F4C9FA22E0
:1017A30075F008E4C833C8C933C933C99AC99B5013
:1017B30004C92AC93BD5F0ECFBC833F4C8E4C9FA21
:1017C30022600D08C6A2E713C618C613C6D5E0F3F8
:1017D30022600C08C6C313C618C613C6D5E0F4228C
:1017E300700422600D18C6C333C608C633C6D5E0DD
:1017F300F41822251810AF08F518400215198008AF
:10180300F51840021519D2AF22C0D0251810AF0821
:10181300F518500205198008F51850020519D2AFC2
:10182300D0D0222518F58210AF08F51840021519FB
:101833008008F51840021519D2AF8519832225189F
:10184300F582E43519F58322E4732518C582C0E0D7
:10185300E51934FFC583C0E0E518C3958224F81069
:10186300AF088583198582188008858319858218B6
:10187300D2AFCEF0A3E520F0A37808E608F0A3DE0C
:10188300FAEFF0A3E58124FAF8E608F0A3E608F0FE
:10189300A3E608F0A30808E608F0A3E608F0A315FA
:1018A300811581D0E0FED0E0F8158115811581E81E
:1018B300C0E0EEC0E0222518C582C0E0E51934FF80
:1018C300C583C0E0E518C3958224F910AF0885836A
:1018D300198582188008858319858218D2AFCEF0C6
:1018E300A3E520F0A37808E608F0A3DEFAEFF0A35F
:1018F300E58124FBF8E608F0A3E608F0A30808E670
:1019030008F0A3E608F0A315811581D0E0FED0E02E
:10191300F815811581E8C0E0EEC0E02285198385C2
:101923001882E0A3FEE0A3F5207808E0A3F608DF21
:10193300FAE0A3FFE0A3C0E0E0A3C0E0E0A3C0E0BF
:10194300E0A3C0E0E0A3C0E010AF08858218858360
:10195300198008858218858319D2AFD083D082027B
:101963000135851983851882E0A3FEE0A3F520786D
:1019730008E0A3F608DFFAE0A3FFE0A3C0E0E0A3DA
:10198300C0E0E0A3C0E0E0A3C0E010AF0885821888
:101993008583198008858218858319D2AFD083D0B7
:1019A3008222C0D02518C582C0E0E51934FFC58363
:1019B300C0E0E518C3958224F310AF088583198529
:1019C30082188008858319858218D2AFC8F0A3E9ED
:1019D300F0A3EAF0A3EBF0A37908E709F0A3D8FAA0
:1019E300ECF0A3EDF0A3EEF0A3EFF0A3D0E0F0A3AF
:1019F300D0E0F0A3D0E0F0A3E520F0A3E5F0F0A35E
:101A030022851983851882E0C0E0A3E0F9A3E0FAF8
:101A1300A3E0FBA37808E0F608A3DFFAE0FCA3E069
:101A2300FDA3E0FEA3E0FFA3E0C0E0A3E0C0E0A3CA
:101A3300E0F5D0A3E0F520A3E0A3F5F010AF08850F
:101A430083198582188008858319858218D2AFD0BF
:101A530082D083D0E0F8D0E0327404800674028030
:101A6300027401C0E0F404121826D0E01216FC221E
:101A73007404800474028000CCC0E0EDC0E0E5187B
:101A8300C39CCCAD1950011D10AF068C188D198065
:101A9300068C188D19D2AF121709D0E0FDD0E0FCE7
:101AA30022D083D082E9C0E0E493A3C386F0C5F0DB
:101AB30095F0F908E493A386F0C5F095F0700BE474
:101AC30093A3C3994005E9048002A3E475F002A43B
:101AD3002582F582E5F03583F583D0E0F9E493A31D
:101AE300C0E0E493C0E022D083D082ECC0E0EDC03C
:101AF300E0E493A3FCE493A3FDED4C600D121B36CD
:101B0300EC24FFFCED34FFFD80EFE493A3FCE493AE
:101B1300A3FDED4C600D121B75EC24FFFCED34FFAF
:101B2300FD80EFD0E0FDD0E0FCE493A3C0E0E493BC
:101B3300C0E022C0E0C3E493960874019396184072
:101B43000FE49366700808740193661870007019A7
:101B5300A3A3C3E49396087401939618A3A3400D1B
:101B6300D0E0D0E0D0E0021B26A3A3A3A3A3A3D07D
:101B7300E022C0E0C0F088F0E493667008087401C6
:101B83009366187000A8F0A3A3700BD0F0D0E0D038
:101B9300E0D0E0021B26A3A3D0F0D0E022C2AF0224
:101BA300000022C0E074F21219A5A2AFE433FED202
:101BB300AFE589A2E3500312072E758900C2C575EC
:101BC3001A00EEF8EEA2E092AF7F01021A04C0E021
:101BD30074F21219A5A2AFE433FED2AFE58AA2E2F2
:101BE300500312072E758A00C2EB751A00EEF8EE49
:101BF300A2E092AF7F01021A04C0E0C0D0E8C0E0C7
:101C0300E9C0E0A2AFE433F8D2AFC2C7751A00E867
:101C1300F9E8A2E092AFD0E0F9D0E0F8D0D0D0E07C
:101C23003274F51218B9EAFEEBFFEE2434F8EF3400
:101C330000F988088909EE2435F582EF3400F5832D
:101C4300E0F8EE2437F582EF3400F583E0F50AEC93
:101C5300850AF0A4FCAAF0850AF0EDA42AFDE82C7D
:101C6300F8E43DF97A257B0012176BEA8508828533
:101C73000983F0F8740758F97401B900028004C3AA
:101C830033D9FCFAE8131313541FF8EE28F8EF3492
:101C930000F9E8245DF582E93400F583E05A600831
:101CA300EE2434F582EF802CEE2434F582EF3400F9
:101CB300F583E0C0E0EE2436F582EF3400F583E0EF
:101CC300F5F0D0E084A8F0EE28F8EF3400F9E8242A
:101CD30038F582E93400F583E0F97F04021965746D
:101CE300F51218B9EAFEEBFFEE2434F582EF340067
:101CF300F583E0C0E0EE2435F582EF3400F583D0C0
:101D0300E0F08E828F83A3A3A3A3A3A3A3C082C067
:101D1300838E828F83A3A3A3A3A3E0F8A3E0F9D0C8
:101D230083D082E0C398F508A3E099F509EE247FF8
:101D3300F582EF3400F583E064017069EE2480F5E9
:101D430082EF3400F583E0F8A3E0F98E828F83A35A
:101D5300A3A3A3A3A3A3E0FCA3E0FD8E828F83A38D
:101D6300A3A3A3A3E0FAA3E0FBC3EA9CEB9D50105B
:101D7300C3EC98ED99402EC3EA98EB995027800E57
:101D8300C3EA98EB994007C3EC98ED9940177CA4FC
:101D93007D0BEEFAEFFB121064EE247FF582EF3435
:101DA30000F583E4F0EE2434F8EF3400F9E8FCE9BD
:101DB300FDEE2435F582EF3400F583E0F8EE2437A9
:101DC300F582EF3400F583E0F50AE508850AF0A40F
:101DD300F508AAF0850AF0E509A42AF509E825081B
:101DE300F8E43509F97A257B0012176BEA8C828DAA
:101DF30083F0F8740758F97401B900028004C333FF
:101E0300D9FCFAE8131313541FF8EE28F8EF340043
:101E1300F9E8245DF582E93400F583E05A6008EEC1
:101E23002434F582EF802CEE2434F582EF3400F570
:101E330083E0C0E0EE2436F582EF3400F583E0F56D
:101E4300F0D0E084A8F0EE28F8EF3400F9E8243865
:101E5300F582E93400F583E0F9122A5F021CDDC044
:101E630082C083851882851983E0F8A3E0F9C3EA69
:101E73009CEB9D5010C3EC98ED99401BC3EA98EB83
:101E8300995014800EC3EA98EB994007C3EC98ED80
:101E9300994004790180027900D083D08222EAC379
:101EA3009CFAEB9DFB2274EF1218B9900A6AE06466
:101EB300086005E06407702A9061C8E06024900A16
:101EC30098E0F4601DE0F875F003A4C8AAF02AF9BD
:101ED300749A28FE740A39FF8E828F83A3A3A3E02A
:101EE3007003021FD9906060E0C0E0EE2468F582C1
:101EF300EF3400F583D0E0F0750C0D750D0C75080B
:101F030000750900E5D914F50AE5D95403F50E6007
:101F1300177403650E605CE50A6010EE2467F582B2
:101F2300EF3400F583E07003021FBE900C08E064F9
:101F330001602AEE2482F582EF3400F583E0600429
:101F4300780480027800850A08E508C398FA95E0CA
:101F5300FB120F2C8A088B09EA45097005121268D7
:101F63008074EE2482F582EF3400F583E070048AF6
:101F73000C8B0DE50A6012850C82850D83F50BE54C
:101F8300D9F0A3150BE50B70F6EE2482F582EF343E
:101F930000F583E0604474FC250AF50A780C121AF4
:101FA30060AC0AA90EEEFAEFFB12110074021218CC
:101FB3000CE97026AA08AB091207C4793D8E828FFB
:101FC30083A3A3A3A3E0FA7B00120E00EEFAEFFBB8
:101FD30012107C121112790080747403650E60561E
:101FE300850A107511007810121A60AC0CAD0DAA99
:101FF30008AB091210DC740212180CEE2468F58287
:10200300EF3400F583E064807004747F8001E0F5B1
:102013000C780C121A64E50EF50C780C121A64A9EC
:102023000AAC08AD09900A98E0FA7B00120DC4745B
:102033000212180C8013900A6AE06408600BAC0C5F
:10204300AD0DEEFAEFFB12116C12127479017F0AD7
:1020530002196574F51218B974FC1217F6EAFEEB4F
:10206300FF8908A2AFE433F509C2AF806AEE2463A7
:10207300F8EF3400F97A007B00A2AFE433F50AC22B
:10208300AF88828983E0FCA3E0FDEC4D603A88824F
:102093008983E0FAA3E0FB8A828B83E0FCA3E0FD63
:1020A30088828983ECF0A3EDF08A828B83E4F0A32A
:1020B300F088828983E0FCA3E0FDEC4D700A8882FE
:1020C3008983A3A3E4F0A3F0E50AA2E092AF120789
:1020D300C4900BABE004F0EE2463F582EF3400F51B
:1020E30083E0F8A3E0F9E849603DEE2463F582EF6D
:1020F3003400F583E02402FAA3E03400FBEA24026F
:10210300F50AEB3400F50B780A121A608A828B8386
:10211300E0FCA3E0F9EEFAEFFB1210A07402121830
:102123000CE97003022070900BABE06063900BAC82
:10213300E0F8900BABE0C398500C74026508705044
:10214300900BADE0604A8E828F83A3A3A3A3E085A7
:102153001882851983F0A3E4F0900BABE0F87402C6
:10216300121841E8F0A3E4F0900BABE0F8900BAA4F
:10217300E028F07402121841AC82AD838518828581
:102183001983AA82AB837901120DD0900BABE4F0D3
:10219300E509A2E092AF740412180C021CDD0000E2
:1021A300008521878522C622C0E0C0D0E8C0E0E9CF
:1021B300C0E0EAC0E0EBC0E0ECC0E0EDC0E0EEC0A0
:1021C300E0C008C009C00AC00BC082C083C0F0A22F
:1021D300AFE433FEC2AF759B00906182E0A2E05092
:1021E30012E591A2E0500C7591FE74016521700314
:1021F300121EA9E0A2E55051E591A2E5504B75915D
:10220300DF900A6AE064076005E0640870237401E4
:10221300652170357901900A98E0FA75F003A4CA34
:10222300A8F028FB749A2AFA740A3BFB1220568002
:1022330018E0640D7013900A8CE004F064287002B7
:10224300E4F07A00E0F912127A906182E0A2E640AB
:10225300030222F2E591A2E640030222F27591BF46
:10226300900A6AE0640570081211A21211AE80038D
:102273001211A8752100121208E9900A6BF0790077
:102283001211FC120FDA7A017B00900A69E0F9124D
:102293000494907803E064427055900C0CE014F0C1
:1022A300704DC2AF1222AA00782AD0E0F618D0E00F
:1022B300F6E59F540770057509FF800375097FC410
:1022C300C0E07829E6F50808E65509F509740B78A6
:1022D300081217D4D0E02508F8906270E0A2E74016
:1022E300F8E8C333906272F0906270E0D2E0F0904D
:1022F3006181E0A2E35009E5E9A2E3500375E9F740
:10230300A3E0A2E75009E591A2E7500375917FEEA0
:10231300A2E092AFD0F0D083D082D00BD00AD00904
:10232300D008D0E0FED0E0FDD0E0FCD0E0FBD0E070
:10233300FAD0E0F9D0E0F8D0D0D0E032C0E0C0D09D
:10234300C082C083906183E0A2E05009E5BFA2E0B0
:10235300500375BFFEE0A2E15009E5BFA2E15003BF
:1023630075BFFDE0A2E25009E5BFA2E2500375BFCD
:10237300FBE0A2E35009E5BFA2E3500375BFF7E01A
:10238300A2E45009E5BFA2E4500375BFEFE0A2E564
:102393005009E5BFA2E5500375BFDFE0A2E650098F
:1023A300E5BFA2E6500375BFBFD083D0828088C04B
:1023B300E0C0D0E8C0E0E9C0E0EAC0E0EBC0E0EC98
:1023C300C0E0EDC0E0C0F0E5A7A2E6500FE5A1A292
:1023D300E6500953A7BF75A1BF122417E5A7A2E5CD
:1023E300500CE5A1A2E5500653A7DF75A1DFE5A7D1
:1023F300A2E15009E5A1A2E1500375A1FDE5A7A261
:10240300E2500CE5A1A2E2500653A7FB75A1FBD055
:10241300F002232874F81218B9752101900A6AE0B2
:10242300640670151211308A828B83A3A3A3A3A31E
:10243300A3E0FAA3E0FB121190A2AFE433FED2AF04
:10244300900A70E0640170187A207B00900A69E0BA
:10245300F91205427A207B00900A69E0F912049A86
:10246300906182E0D2E6F0900C09E0602185C622FB
:102473008016900A6FE064017008E5C654F84405BD
:10248300F5C653BEFC1221A47401652160E4EEA2DB
:10249300E092AF7F01021965008E238F2485822885
:1024A300858327851882851983E0CEA3E0CF85280D
:1024B30082852783EBC9EAC8EDCBECCA75F010C35C
:1024C300E833C8E933C9EA33CAEB33CBC3EA9EF531
:1024D30026EB9FF525B35004AB25AA26EC33CCEDB0
:1024E30033CDD5F0DAAE23AF242274E91218B974D0
:1024F300F81217F6851882851983ECF0A3EDF08A9C
:10250300088B09900A6AE024F7C3940550067508FE
:10251300010226841211308A0A8B0BAE0AAF0BEE2E
:102523004F7003022681AC08AD097402121841AA48
:1025330082AB831211C08E828F83A3A3750CFF75A8
:102543000DFF750EFF750F00780C1216A0740212A2
:1025530018417510FF7511FF7512FF751300781080
:102563001216A0780C7910121493502A780C791053
:1025730012164D7508017509C8750A00750B0078A8
:1025830008790C1214935052850C08850D09850E99
:102593000A850F0B80507514017515C875160075E3
:1025A300170085100885110985120A85130B780811
:1025B300790C12164D78147908121493401C75087F
:1025C30000750900750A00750B0178087910121659
:1025D3004D7808790C121614800C750801750900E2
:1025E300750A00750B00740978081215F5750C1936
:1025F300F50DF50EF50F7808790C1215528E828FB2
:1026030083A3A3A3A3A3A3E0F8A3E0F97AD07B0356
:1026130012176B880C890DE4F50EF50F7808790C09
:102623001216147406121841E0F8A3E0F97AD07B6D
:102633000312176BE8FA8A0CE4F50D7808790C128B
:10264300149350077808790C12164D900A6AE064C7
:1026530008600AE064066005E06405702D750C0DE2
:10266300780C79081214934021750CF4750DFF75DD
:102673000EFF750FFF7808790C121614800C75087D
:1026830000750900750A00750B008518828519838A
:10269300E0F8A3E0F583888278081216D57408124F
:1026A300180C7F1002196574F71218B91211D29021
:1026B3000C07E064017010906245E4F0A3F053F45A
:1026C300F343FE0C5390F312117EE5C65480444944
:1026D300F5C6E59E547F644970F8906185740FF0E8
:1026E300900C05E0F47002A3E0604E900C06E060ED
:1026F3000814601B14602E80407508017509009052
:102703000C05E078081217E3E508F45280802A7577
:102713000801750900900C05E078081217E3E50835
:10272300F452908014750801750900900C05E07847
:10273300081217E3E508F452A079007F0202196535
:1027430074F71218B9E9FEEAFF74016E700C7A800F
:102753007B00900A69E0F9120494902A70E493F4E0
:102763006008E493F9120FCE800953C680E59E54A6
:102773007F70FA121184900C07E064017003120F4A
:10278300E6900C05E0F47002A3E0604B900C06E0C9
:10279300600814601A14602C803D750801750900E7
:1027A300900C05E078081217E3E50842808028754D
:1027B3000801750900900C05E078081217E3E50895
:1027C30042908013750801750900900C05E07808A4
:1027D3001217E3E50842A01211D21211308A088BB6
:1027E30009A808A909E8496015E5E170FCE8241483
:1027F300F582E93400F583E0F46003E0F5E1740168
:102803006F700A7A01900A69E0F912050C02273EFB
:1028130074ED1218B98A088B098C0A8D0B74131284
:102823001841780C1216C67808790C121493751097
:10283300017511C875120075130050127808790CD0
:1028430012164D7810790812149350168010780CD4
:10285300790812164D7810790C12149340047901FB
:10286300800279007F0C02196574ED1218B98A0889
:102873008B098C0A8D0B7413121841780C1216C62F
:10288300780C790812149340117808790C12164DBC
:10289300AA08AB09AC0AAD0B8022751000751100B4
:1028A3007512007513017810790C12164D78107992
:1028B30008121614AA10AB11AC12AD1380A68A82AB
:1028C3008B837508FF7509FF750AFF750B00780880
:1028D3001216B37F0402196574F51218B98C828D30
:1028E3008378081216C68A828B837808121679EACF
:1028F3002404F8EB3400F98C828D83A3A3A3A3E013
:10290300FCA3E0FD88828983C3E09CF0A3E09DF0F3
:1029130088828983C3E09420A3E0944E40268A8270
:102923008B837508FF7509FF750AFF750BFF780820
:1029330012163A8A828B83A3A3A3A3E02420F0A3D5
:10294300E0344EF00228C174F51218B9E9FE900B79
:10295300BFE0FAA3E0FBEEC333F8E433F974B22823
:10296300F582748039F583E02AF508A3E03BF50985
:102973007808121A607A407B427C0F7D0012249CF7
:10298300740212180C8A088B098C0A8D0B74107848
:10299300081215DCAA08AB097F0402196574F11249
:1029A30018B98A0C8B0D8C0E8D0F740F121841E021
:1029B300FAA3E0FB7411121841E0F508A3E0F5094E
:1029C3007808121A60EA2401F508EB3400F509E4EB
:1029D300F50AF50B780C79081214D275087175098C
:1029E30002780C79081214D2AA0CAB0DAC0EAD0F01
:1029F30012249C740212180C8B09EA450960047AAC
:102A03000180027A00EC2AFCED3400FD74131218E5
:102A130041E0F8A3E0F9E8FEE9FFECF8EDF97A719B
:102A23007B0212176B880889098E828F83780812BC
:102A330016D5ECF8EDF97A717B0212176B8A088BC5
:102A430009740578081217E38E828F83A3A3A3A3C7
:102A5300E508F0A3E509F07F08021965C082C08389
:102A6300E9906000F0D083D08222020135FFFFFF9E
:102A7300FFFFFFFFFF74F412184D74C81217F68995
:102A830008E508900907F01208F075C90053C9FC5E
:102A9300E5C954F34408F5C9908081C082C08374AA
:102AA30027121841AC82AD83D083D08274111217E0
:102AB30009741D121841AA82AB83120F38E9741FDF
:102AC300121841E0C4540FF879007427121841E535
:102AD3008228F582E58339F583E0C0E07417121884
:102AE30041D0E0F0741F121841E0F87900540FF858
:102AF300E95400F97427121841E58228F582E58329
:102B030039F583E0C0E07418121841D0E0F0741E68
:102B1300121841E0C4540FF879007427121841E5E4
:102B23008228F582E58339F583E0C0E07419121831
:102B330041D0E0F0741E121841E0F87900540FF808
:102B4300E95400F97427121841E58228F582E583D8
:102B530039F583E0C0E0741A121841D0E0F0741D17
:102B6300121841E0C4540FF879007427121841E594
:102B73008228F582E58339F583E0C0E0741B1218DF
:102B830041D0E0F0741D121841E0F87900540FF8B9
:102B9300E95400F97427121841E58228F582E58388
:102BA30039F583E0C0E0741C121841D0E0F0750AD7
:102BB30006750B00780A121A607419121841AC8258
:102BC300AD837AC77B0F120440740212180C750A86
:102BD30006750B00780A121A607419121841AC8238
:102BE300AD837AE27B0F120440740212180C7C0648
:102BF3007D007A1F7B00120A28E9F5097406121872
:102C0300417401F074151218417400F0A37400F0BC
:102C130074051218417401F074131218417420F0F2
:102C2300A37403F0741112184174B0F0A37404F088
:102C3300740F1218417404F0A37400F0740D121889
:102C4300417488F0A37413F07406121841AC82AD7A
:102C53008379017A057B03120854E974151218412C
:102C6300AC82AD8379027A067B03120854E97CC2F5
:102C73007D0F79147A087B03120854E97CD67D0F03
:102C830079097A077B03120854E97405121841ACD9
:102C930082AD8379017A107B03120854E97413120D
:102CA3001841AC82AD8379027A117B03120854E98F
:102CB3007411121841AC82AD8379027A127B03122C
:102CC3000854E9740F121841AC82AD8379027A1368
:102CD3007B03120854E9740D121841AC82AD837959
:102CE300027A147B03120854E97CDF7D0F7A097999
:102CF30000120BA2E97E407F1FEEFCEFFD7A067BFC
:102D030000120A28E9EEFCEFFD7A077B00120A287D
:102D1300E9EEFCEFFD7A087B00120A28E9EEFCEFEE
:102D2300FD7A097B00120A28E97A007B007C007D8A
:102D3300007423121841EAF0A3EBF0A3ECF0A3ED27
:102D4300F074041218417401F074031218417401F1
:102D5300F074021218417400F074011218417401E6
:102D6300F07423121841AC82AD8379047A087B0492
:102D73001205BAE97404121841AC82AD8379017A61
:102D8300007B041205BAE97403121841AC82AD83C7
:102D930079017A027B041205BAE97402121841AC74
:102DA30082AD8379017A037B041205BAE9740112B7
:102DB3001841AC82AD8379017A067B041205BAE926
:102DC30090816E1216E4120BA8E990816E1216E43C
:102DD300120CB0E990816E1216E4120770E9120525
:102DE30078E9740B1218417403F0A37400F07409AA
:102DF300121841747AF0A37400F0740B121841ACEA
:102E030082AD837A02790412077CE97409121841AE
:102E1300AC82AD837A02790012077CE9851882853A
:102E23001983740AF0851882851983AC82AD837A7D
:102E3300017901120584E9900907E0F9120566E9B1
:102E430075FDF675F30175FEFB75F40075FFFF75EF
:102E5300F5001208C612093212092C7AF17B0F12FF
:102E63000776E9F50A7AB47B0812057E120938E978
:102E73007901120DA6E97A107B00900907E0F91297
:102E83000494E912090E1208EA7407121841EAF0D1
:102E9300A3EBF07407121841AC82AD837A02790474
:102EA30012077CE97A017B00900907E0F912049488
:102EB300E97A027B00900907E0F9120494E97A00A9
:102EC3007B40900907E0F9120494E97A407B009073
:102ED3000907E0F9120494E97A007B10900907E0EE
:102EE300F9120494E9743812180C7F0402191F7440
:102EF300F212184D74FA1217F6890AEAFEEBFFEE86
:102F03005400F8EF5480F9E8496032900907E0F97A
:102F130012047C8A0C8B0DA80CA90D88088909E87A
:102F230049600FAA08AB091208A8AA08AB09120442
:102F33006AE9EE6400FAEF6480FB023747EEA2E031
:102F4300400302321B900944E06003022FD17AED63
:102F53007B0F120860E9F5087A457B091205D879D9
:102F6300011208E4908152121A737A027B009009CD
:102F730007E0F9120536740412180CE990814E1219
:102F83001A737A007B40900907E0F912053674043E
:102F930012180CE9908126121A737A007B1090099B
:102FA30007E0F9120536740412180CE99081221215
:102FB3001A737A017B00900907E0F912053674044D
:102FC30012180CE9900944E02401F0023210900930
:102FD30044E064017046C290D291D296D297D2A0B7
:102FE300D2A1C281D282D284D285D286D2879004E2
:102FF300807421F0A37400F0D293908152121A735B
:103003007A017B00900907E0F9120536740412185F
:103013000CE9900944E02401F0023210900944E0E5
:1030230064027046D290C291D296D297D2A0D2A116
:10303300D281C282D284D285D286D2879004807410
:1030430042F0A37400F0D293908152121A737A0162
:103053007B00900907E0F9120536740412180CE995
:10306300900944E02401F0023210900944E0640323
:103073007046D290D291C296D297D2A0D2A1D281D9
:10308300D282C284D285D286D2879004807484F09F
:10309300A37400F0D293908152121A737A017B00C9
:1030A300900907E0F9120536740412180CE9900927
:1030B30044E02401F0023210900944E064047046B5
:1030C300D290D291D296C297D2A0D2A1D281D282EB
:1030D300D284C285D286D2879004807408F0A37408
:1030E30001F0D293908152121A737A017B009009F6
:1030F30007E0F9120536740412180CE9900944E04C
:103103002401F0023210900944E064057046D29025
:10311300D291D296D297C2A0D2A1D281D282D284A6
:10312300D285C286D2879004807410F0A37402F013
:10313300D293908152121A737A017B00900907E0AF
:10314300F9120536740412180CE9900944E02401BD
:10315300F0023210900944E064067045D290D29197
:10316300D296D297D2A0C2A1D281D282D284D28562
:10317300D286C2879004807420F0A37404F0D293A3
:10318300908152121A737A017B00900907E0F912B9
:103193000536740412180CE9900944E02401F08008
:1031A3006C900944E064077045C290D291D296D2E4
:1031B30097D2A0D2A1C281D282D284D285D286D222
:1031C300879004807440F0A37408F0D293908152E6
:1031D300121A737A017B00900907E0F9120536741D
:1031E3000412180CE9900944E02401F0801F9009AF
:1031F30044E0640870171208C67A017B009009073F
:10320300E0F9120542E9900944E02401F0EE64017B
:10321300FAEF6400FB023747EE541070030232D416
:103223007A81791D1206EC74031218417400F0744C
:1032330003121841AA82AB83790112070AE97402C7
:10324300121841AA82AB837901120710E9740212A2
:103253001841E0543FF07402121841E0600B74020D
:10326300121841E0F91208F6E9900943E07018904A
:103273000FE9121A737A107B00900907E0F912051F
:1032830036740412180CE9900908E06402701A906D
:103293000FC1E0C394784008900FC17478F0802682
:1032A300900FC1E02401F0801D900FC1E0C3940191
:1032B3004009900FC1E024FFF0800B900FC1747898
:1032C300F079011208E4EE6410FAEF6400FB0237B0
:1032D30047EE5408600E1208BAEE6408FAEF640071
:1032E300FB023747EE5402607B900905E0702E7AAB
:1032F30001790012069E7A01790012069890090559
:103303007401F0908152121A737A027B00900907BC
:10331300E0F9120536740412180CE9803C90090890
:10332300E0640270081205A2E9900FBEF07A0079FA
:103333000012069E7A00790012069890090574001F
:10334300F090811E121A737A027B00900907E0F94C
:10335300120536740412180CE9EE6402FAEF6400E5
:10336300FB023747EE5480604E900939E0640370E6
:1033730035D290D291D296D297D2A0D2A1D281D275
:1033830082D284D285D286D2877A407B0090090785
:10339300E0F9120542E91208D87A007B0490090784
:1033A300E0F9120542E99009397400F0EE6480FAFD
:1033B300EF6400FB023747EE5400F8EF5401F9E8DD
:1033C30049600E1208D2EE6400FAEF6401FB023783
:1033D30047EE5400F8EF5402F9E849602D7A007B78
:1033E30001900907E0F9120542E91208C690093B6A
:1033F3007400F0900FE8740DF090093A7400F0EE49
:103403006400FAEF6402FB023747EE5420607E90BB
:10341300093DE0C3940750197A0090093DE0F91281
:1034230008CC7A0090093DE0F8740CC398F91208AF
:10343300CC7A0190093DE024FFF91208CC7A01907F
:10344300093DE0F8740DC398F91208CC90093DE0EA
:103453002401F090093DE0C39408501A9081721240
:103463001A737A207B00900907E0F9120536740479
:1034730012180CE9800C90093D7400F090093A741D
:1034830000F0EE6420FAEF6400FB023747EE5400CD
:10349300F8EF5408F9E849700302352090093DE03C
:1034A300C3940C50187A0090093DE0F91208CC7AC5
:1034B3000190093DE024FFF91208CC801F90093DDB
:1034C300E0640C70107A0079001208CC7A01790B51
:1034D3001208CC80077A0179001208CC90093DE0EC
:1034E3002401F090093DE0C3940E501A90816612B6
:1034F3001A737A007B08900907E0F9120536740401
:1035030012180CE9800C90093D7400F090093A748C
:1035130000F0EE6400FAEF6408FB023747EE544014
:103523006023C290C291C296C297C2A0C2A1C281B7
:10353300C282C284C285C286C287EE6440FAEF6447
:1035430000FB023747EE5400F8EF5404F9E84960F2
:103553006DD290D291D296D297D2A0D2A1D281D25B
:1035630082D284D285D286D2877A407B00900907A3
:10357300E0F9120542E990093CE0600D900483E014
:10358300640170051208DE802A90093CE0602490F3
:103593000483E0701E9009447401F0908116121A9E
:1035A300737A017B00900907E0F91205367404125F
:1035B300180CE9EE6400FAEF6404FB023747EE549B
:1035C30000F8EF5420F9E8496030120902E9900944
:1035D3003EE0C39403501890812A121A737A007B39
:1035E30020900907E0F9120536740412180CE9EE6D
:1035F3006400FAEF6420FB023747EE5400F8EF54FF
:1036030040F9E84970030237057A81794A1206ECDA
:1036130074011218417403F07401121841AA82ABA9
:1036230083790112070AE9851882851983AA82AB77
:10363300837901120710E9851882851983E0C43361
:103643003354C0F50874011218417402F074011266
:103653001841AA82AB83790112070AE9851882858A
:103663001983AA82AB837901120710E98518828531
:103673001983E01313543F54F8F509E508450990FD
:103683000FC0F0900FBFE0F8900FC0E06870439058
:103693000906E02401F0900906E0C3940A4039903A
:1036A30009067400F01209267404121841741AF002
:1036B300900FC0E0C0E07405121841D0E0F074042C
:1036C300121841AA82AB8379021206F8E912092C77
:1036D30080069009067400F0900FC0E0900FBFF0D1
:1036E30090814E121A737A007B40900907E0F91219
:1036F3000536740412180CE9EE6400FAEF6440FB1B
:103703008042EE5400F8EF5410F9E8496032E5C9FD
:10371300540F44A0F5C9E5C9540F4450F5C990812D
:1037230026121A737A007B10900907E0F912053606
:10373300740412180CE9EE6400FAEF6410FB8004C1
:103743007A007B00740612180C7F0602191F74F7A7
:1037530012184D74FC1217F6EAFEEBFF8E828F836C
:10376300E064C060030239478E828F83A3A3A3E082
:10377300F5087A81794A1206EC7403121841740031
:10378300F07403121841AA82AB83790112070AE984
:103793007402121841AA82AB837901120710E974EB
:1037A30002121841E0A2E0400890093C7400F08046
:1037B3000690093C7401F0E508A2E0400302387862
:1037C30090093AE0600302394790093CE0601A909F
:1037D3008152121A737A007B04900907E0F91205EB
:1037E30036740412180CE9800D7A007B04900907E3
:1037F300E0F9120542E990093CE0605B900483E044
:1038030064017053900939E070089009397402F02B
:103813008045900939E0640270159009397403F00A
:103823007A807B00900907E0F9120542E98028902D
:103833000939E0640370207A807B00900907E0F97E
:10384300120542E97A007B04900907E0F912054268
:10385300E99009397400F0900939E06018908116F5
:10386300121A737A807B00900907E0F91205367407
:103873000412180CE9E508A2E140030239477A81F2
:10388300791D1206EC851882851983742AF0740158
:103893001218417400F0851882851983AA82AB83BC
:1038A30079021206F8E98518828519837416F08562
:1038B3001882851983AA82AB83790112070AE974F6
:1038C30001121841AA82AB837901120710E9851806
:1038D30082851983742DF074011218417400F085E8
:1038E3001882851983AA82AB8379021206F8E985C7
:1038F3001882851983742AF074011218417469F0CF
:10390300851882851983AA82AB8379021206F8E9A6
:103913007A007B007C007D0090093FEAF0A3EBF086
:10392300A3ECF0A3EDF09009437400F0900FE912BB
:103933001A737A107B00900907E0F91205367404B4
:1039430012180CE9740412180C7F0102191F74F782
:1039530012184D74F01217F6E9FE7F01EE1460227F
:10396300147003023A1A147003023AB21470030279
:103973003AB2147003023A6924FE7003023AB202A7
:103983003AB2740A121841AC82AD837A047B0312F3
:10399300085AE9740A121841E0C0E074021218418F
:1039A300D0E0F0740B121841E0C0E0740312184128
:1039B300D0E0F0740C121841E0C0E0740412184116
:1039C300D0E0F074061218417400F0740512184127
:1039D3007400F0740F121841E0C0E074091218412A
:1039E300D0E0F0740E121841E0C0E07408121841E0
:1039F300D0E0F0740D121841E0C0E07407121841D2
:103A0300D0E0F07402121841AC82AD837A087900D9
:103A13001205AEE9023AB27A81794A1206EC9009AC
:103A23000AE06401703E900483E064017036120979
:103A3300268518828519837443F0EFC43354E04418
:103A430006C0E07401121841D0E0F0851882851990
:103A530083AA82AB8379021206F8E9900483740087
:103A6300F012092C80497A81794A1206EC9004837A
:103A7300E0703C1209268518828519837443F0EFA0
:103A8300C43354E04403C0E07401121841D0E0F0A1
:103A9300851882851983AA82AB8379021206F8E915
:103AA3009004837401F012092C90090A7400F0EE5B
:103AB300900908F0741012180C7F0102191F74F793
:103AC30012184DE9FE74016E7022900908E0640536
:103AD300702C90814E121A737A087B00900907E0CC
:103AE300F9120536740412180CE9801274026E7010
:103AF3000D7A087B00900907E0F9120542E97F017E
:103B030002191FC082C083900908E06405701C126B
:103B1300058AE990814E121A737A087B009009078F
:103B2300E0F9120536740412180CE9D083D082022E
:103B3300013574F012184D74F11217F6E9FE146092
:103B430019147003023BCA14607124FE7003023C13
:103B53001D147003023C13023C1D7402121841AA87
:103B630082AB837901120782E97402121841E0F8EB
:103B7300A3E0F9900FB6E8F0A3E9F01208EA85187C
:103B830082851983EAF0A3EBF0851882851983AC4B
:103B930082AD837A02790412077CE990093E7400AE
:103BA300F090812A121A737A007B20900907E0F9BA
:103BB300120536740412180CE9805F7A097B0979BF
:103BC30003120782E980537404121841AA82AB835B
:103BD3007902120782E974041218411216E41204DE
:103BE300CA1204D08A0C8B0D8C0E8D0F850C0885A0
:103BF3000D09850E0A850F0B7808121A5C740C12D6
:103C03001841AA82AB831204D6740412180C800ADA
:103C13007A0A7B097906120782E9740F12180C7F5E
:103C23000802191FC082C083D290D291D296D29734
:103C3300D2A0D2A1D281D282D284D285D286D28797
:103C43009004807400F0A37400F0C293C280C29405
:103C5300C295908152121A737A407B00900907E053
:103C6300F9120536740412180CE9D083D0820201CC
:103C73003574F212184DE9FEEAFF74016F70207576
:103C83000801750900EE78081217E3E508F4F8E572
:103C930009F4F9900480E058F0A3E059F080187516
:103CA3000801750900EE78081217E3900480E045D7
:103CB30008F0A3E04509F0900480E0F8A3E0F9E8F8
:103CC30049701CC293908152121A737A407B009000
:103CD3000907E0F9120536740412180CE98002D2C0
:103CE30093EE7003023D7014602014602614602C60
:103CF30014603214603814603E14604414604A1433
:103D0300605014605614605C806AEFF8EFA2E09292
:103D1300918061EFF9EFA2E092968058EFFAEFA25B
:103D2300E09297804FEFFBEFA2E092A08046EFFC7A
:103D3300EFA2E092A1803DEFFDEFA2E092818034FB
:103D43008F08EFA2E09282802B8F09EFA2E092848A
:103D530080228F0AEFA2E0928580198F0BEFA2E0F9
:103D6300928680108F0CEFA2E0928780078F0DEF71
:103D7300A2E092907F0602191FC082C08390093B84
:103D8300E0700474018002740090093BF090093BD9
:103D9300E0FA900FE8E0F91208CC908116121A733A
:103DA3007A007B01900907E0F912053674041218B2
:103DB3000CE9D083D08202013574F012184D74F9E6
:103DC3001217F690093A7401F01204D08A0C8B0D85
:103DD3008C0E8D0F850C08850D09850E0A850F0B3A
:103DE3007808121A5C7404121841AA82AB83120475
:103DF300D6740412180C7402121841E0FEEEC39438
:103E03000C400474F42EFE75F0057401121841E0A1
:103E130084900FE8F0900FE8E06E7017900FE8E0E1
:103E2300640B7008900FE8740AF08007900FE8E0C5
:103E33002401F07A00EEF91208CC1208D290812204
:103E4300121A737A007B02900907E0F9120536749F
:103E53000412180CE9740712180C7F0802191FC00A
:103E630082C08390093A7401F07A0179011208FC47
:103E73007A207B00900907E0F9120494E9D083D0FB
:103E83008202013574F712184D74FF1217F6E9FE1A
:103E9300851882851983F0851882851983AC82ADD4
:103EA3008379017A057B03120854E9740112180C13
:103EB3007F0102191F74F612184D90090DC082C0BC
:103EC3008390090BE0F8A3E0F9D083D082C3E09894
:103ED300A3E099403090090DC082C08390090BE0A4
:103EE300F8A3E0F9D083D082E0C398F508A3E09962
:103EF300F509740378081217D4E5082403FAE509D1
:103F03003400FB803690090DC082C08390090BE01A
:103F1300F8A3E0F9D083D082E0C398F8A3E099F93D
:103F2300E824A0F508E9340FF5097403780812179B
:103F3300D4E5082403FAE5093400FB7F0202191FC4
:103F430074F712184D74FE1217F67A81791D120652
:103F5300EC851882851983742BF07401121841744F
:103F630040F0851882851983AA82AB8379021206F1
:103F7300F8E9851882851983742BF08518828519D1
:103F830083AA82AB83790112070AE97401121841EB
:103F9300AA82AB837901120710E97401121841E078
:103FA300FEA2E640CD851882851983740EF0740154
:103FB3001218417402F0851882851983AA82AB8393
:103FC30079021206F8E98518828519837409F07459
:103FD300011218417440F0851882851983AA82ABB7
:103FE3008379021206F8E98518828519837415F01E
:103FF300740112184174FFF0851882851983AA820F
:10400300AB8379021206F8E9851882851983741740
:10401300F074011218417411F0851882851983AA6E
:1040230082AB8379021206F8E985188285198374B5
:1040330018F074011218417403F0851882851983EE
:10404300AA82AB8379021206F8E98518828519835F
:10405300742CF074011218417408F08518828519C4
:1040630083AA82AB8379021206F8E985188285193F
:1040730083742DF074011218417404F0851882853D
:104083001983AA82AB8379021206F8E9851882851F
:104093001983742EF074011218417404F085188288
:1040A300851983AA82AB8379021206F8E9851882FF
:1040B300851983742BF07401121841741FF085184D
:1040C30082851983AA82AB8379021206F8E98518DF
:1040D30082851983742AF074011218417469F0857A
:1040E3001882851983AA82AB8379021206F8E974D0
:1040F3000212180C7F0102191F74E812184D74ED97
:104103001217F6E9FF9080C2C082C083740B1218A5
:1041130041AC82AD83D083D082740812170990809A
:10412300D2C082C0837403121841AC82AD83D083A2
:10413300D082740812170974021218417401F07ABC
:1041430081791D1206EC90815E78081216C69009DB
:104153003F780812163A7AC07B001204F48A088B5F
:10416300098508168509177CC07D007900AA16AB5E
:1041730017120458E5164517603A7CC07D00790094
:10418300AA16AB171204587402121841AA82AB8301
:10419300790112070AE9AA16AB1775F006EFA4F91D
:1041A300120710E9EF900482F0900482E0C39405B3
:1041B3005012800B9004827400F079000257FD794D
:1041C300000257FD7E00900482E0F8EEC39840039E
:1041D300024366EEF87900E875F006A4C8AAF07504
:1041E300F000A42AFA75F006E9A42AF9E51628F5E1
:1041F30082E51739F583E0F87900E4C8F9EEFA7B34
:1042030000EA75F006A4CAACF075F000A42CFC75A6
:10421300F006EBA42CFBE5162AF582E5173BF583A4
:10422300A3E0FA7B00E84AFAE94BFBEEF87900E8F1
:1042330075F006A4C8ACF075F000A42CFC75F0066C
:10424300E9A42CF9748428F582740439F583EAF01F
:10425300A3EBF0EEF87900E875F006A4C8AAF075B0
:10426300F000A42AFA75F006E9A42AF9E51628F560
:1042730082E51739F583A3A3E0F87900E4C8F9EEE2
:10428300FA7B00EA75F006A4CAACF075F000A42C22
:10429300FC75F006EBA42CFBE5162AF582E5173B2B
:1042A300F583A3A3A3E0FA7B00E84AFAE94BFBEE0C
:1042B300F87900E875F006A4C8ACF075F000A42CFA
:1042C300FC75F006E9A42CF9748628F58274043988
:1042D300F583EAF0A3EBF0EEF87900E875F006A4B5
:1042E300C8AAF075F000A42AFA75F006E9A42AF921
:1042F300E51628F582E51739F583A3A3A3A3E0F810
:104303007900E4C8F9EEFA7B00EA75F006A4CAACBA
:10431300F075F000A42CFC75F006EBA42CFBE5165D
:104323002AF582E5173BF583A3A3A3A3A3E0FA7BB6
:1043330000E84AFAE94BFBEEF87900E875F006A4C9
:10434300C8ACF075F000A42CFC75F006E9A42CF9B8
:10435300748828F582740439F583EAF0A3EBF00E30
:104363000241C97E00900482E0F8EEC39840030244
:104373004469EEF87900E875F006A4C8AAF075F070
:1043830000A42AFA75F006E9A42AF9748428F582B0
:10439300740439F583E0FAA3E0FBEEF87900E875DD
:1043A300F006A4C8ACF075F000A42CFC75F006E987
:1043B300A42CF9748428F582740439F583EAF0A3F4
:1043C300EBF0EEF87900E875F006A4C8AAF075F0F2
:1043D30000A42AFA75F006E9A42AF9748628F5825E
:1043E300740439F583E0FAA3E0FBEEF87900E8758D
:1043F300F006A4C8ACF075F000A42CFC75F006E937
:10440300A42CF9748628F582740439F583EAF0A3A1
:10441300EBF0EEF87900E875F006A4C8AAF075F0A1
:1044230000A42AFA75F006E9A42AF9748828F5820B
:10443300740439F583E0FAA3E0FBEEF87900E8753C
:10444300F006A4C8ACF075F000A42CFC75F006E9E6
:10445300A42CF9748828F582740439F583EAF0A34F
:10446300EBF00E0243687E00EEC3940A400302455C
:1044730018EEF87900E875F008A4C8AAF075F00002
:10448300A42AFA75F008E9A42AF9749428F5827429
:104493000739F5831216E4EEF87900E875F008A4FD
:1044A300C885F00875F000A42508F50875F008E93B
:1044B300A42508F9744428F582740639F583121685
:1044C300F0EEF87900E875F008A4C8AAF075F000DA
:1044D300A42AFA75F008E9A42AF9749828F58274D5
:1044E3000739F5831216E4EEF87900E875F008A4AD
:1044F300C885F00875F000A42508F50875F008E9EB
:10450300A42508F9744828F582740639F583121630
:10451300F00E02446B7E0A8E08750900900482E057
:10452300F87900240BF8E93400F9C3E50898E509A4
:1045330099A2D265D0334003024602EEF87900E82F
:1045430075F006A4C8AAF075F000A42AFA75F0065F
:10455300E9A42AF9744A28F582740439F583E0FA48
:10456300A3E0FBEB3395E0FCFDEEF87900E875F092
:1045730008A4C885F00875F000A42508F50875F0AF
:1045830008E9A42508F9744428F582740639F583EB
:10459300EAF0A3EBF0A3ECF0A3EDF0EEF87900E87A
:1045A30075F006A4C8AAF075F000A42AFA75F006FF
:1045B300E9A42AF9744C28F582740439F583E0FAE6
:1045C300A3E0FBEB3395E0FCFDEEF87900E875F032
:1045D30008A4C885F00875F000A42508F50875F04F
:1045E30008E9A42508F9744828F582740639F58387
:1045F300EAF0A3EBF0A3ECF0A3EDF00E02451A7A78
:10460300207B001204F48A088B0985081485091598
:104613007C207D007900AA14AB151204587E00900B
:104623000482E0F8EEC3984003024C53EEF879009D
:10463300E875F008A4C8AAF075F000A42AFA75F08A
:1046430008E9A42AF9744428F582740639F58378B5
:10465300081216C6EEF87900E875F008A4C8AAF0A7
:1046630075F000A42AFA75F008E9A42AF9749428CD
:10467300F582740639F5837808121627900FB8E08F
:10468300F50CE4F50DF50EF50F7808790C1214D23C
:10469300EEF87900E875F008A4C8AAF075F000A454
:1046A3002AFA75F008E9A42AF9744C28F5827406ED
:1046B30039F58378101216C6EEF87900E875F0081C
:1046C300A4C8AAF075F000A42AFA75F008E9A42A90
:1046D300F9748C28F582740639F58378101216273D
:1046E300900FB9E0F50CE4F50DF50EF50F781079A0
:1046F3000C1214D278087910121614EEF87900E827
:1047030075F008A4C8AAF075F000A42AFA75F00899
:10471300E9A42AF9745428F582740639F5837810CC
:104723001216C6EEF87900E875F008A4C8AAF07569
:10473300F000A42AFA75F008E9A42AF9748428F58C
:1047430082740639F5837810121627900FBAE0F5B4
:104753000CE4F50DF50EF50F7810790C1214D278E0
:10476300087910121614EEF87900E875F008A4C859
:10477300AAF075F000A42AFA75F008E9A42AF974DE
:104783005C28F582740639F58378101216C6EEF8A4
:104793007900E875F008A4C8AAF075F000A42AFA15
:1047A30075F008E9A42AF9747C28F582740639F5B2
:1047B300837810121627900FBBE0F50CE4F50DF586
:1047C3000EF50F7810790C1214D27808791012169E
:1047D30014EEF87900E875F008A4C8AAF075F000A3
:1047E300A42AFA75F008E9A42AF9746428F58274F6
:1047F3000639F58378101216C6EEF87900E875F0DD
:1048030008A4C8AAF075F000A42AFA75F008E9A470
:104813002AF9747428F582740639F5837810121610
:1048230027900FBCE0F50CE4F50DF50EF50F7810AD
:10483300790C1214D278087910121614EEF8790054
:10484300E875F008A4C8AAF075F000A42AFA75F078
:1048530008E9A42AF9746C28F582740639F583787B
:10486300101216C6900FBDE0F50CE4F50DF50EF52C
:104873000F7810790C1214D2780879101216147468
:104883000A78081215C2AA08AB09AC0AAD0BEEF8F8
:104893007900E875F008A4C885F00875F000A42530
:1048A30008F50875F008E9A42508F9744428F58289
:1048B300740539F583EAF0A3E509F0A3E50AF0A34B
:1048C300E50BF0EEF87900E875F008A4C8AAF075D6
:1048D300F000A42AFA75F008E9A42AF9744828F527
:1048E30082740639F58378081216C6EEF87900E863
:1048F30075F008A4C8AAF075F000A42AFA75F008A8
:10490300E9A42AF9749828F582740639F58378089E
:10491300121627900FB8E0F50CE4F50DF50EF50F20
:104923007808790C1214D2EEF87900E875F008A42F
:10493300C8AAF075F000A42AFA75F008E9A42AF9C8
:10494300745028F582740639F58378101216C6EE72
:10495300F87900E875F008A4C8AAF075F000A42A55
:10496300FA75F008E9A42AF9749028F582740639D7
:10497300F5837810121627900FB9E0F50CE4F50DC6
:10498300F50EF50F7810790C1214D27808791012FD
:104993001614EEF87900E875F008A4C8AAF075F0CB
:1049A30000A42AFA75F008E9A42AF9745828F582B4
:1049B300740639F58378101216C6EEF87900E87597
:1049C300F008A4C8AAF075F000A42AFA75F008E963
:1049D300A42AF9748828F582740639F583781012AD
:1049E3001627900FBAE0F50CE4F50DF50EF50F78E8
:1049F30010790C1214D278087910121614EEF87983
:104A030000E875F008A4C8AAF075F000A42AFA75A6
:104A1300F008E9A42AF9746028F582740639F5834D
:104A230078101216C6EEF87900E875F008A4C8AA43
:104A3300F075F000A42AFA75F008E9A42AF9748045
:104A430028F582740639F5837810121627900FBB68
:104A5300E0F50CE4F50DF50EF50F7810790C121452
:104A6300D278087910121614EEF87900E875F00878
:104A7300A4C8AAF075F000A42AFA75F008E9A42ADC
:104A8300F9746828F582740639F58378101216C60E
:104A9300EEF87900E875F008A4C8AAF075F000A450
:104AA3002AFA75F008E9A42AF9747828F5827406BD
:104AB30039F5837810121627900FBCE0F50CE4F556
:104AC3000DF50EF50F7810790C1214D278087910C1
:104AD300121614EEF87900E875F008A4C8AAF07568
:104AE300F000A42AFA75F008E9A42AF9747028F5ED
:104AF30082740639F58378101216C6900FBDE0F55F
:104B03000CE4F50DF50EF50F7810790C1214D2782C
:104B1300087910121614740A78081215C2AA08AB81
:104B230009AC0AAD0BEEF87900E875F008A4C88566
:104B3300F00875F000A42508F50875F008E9A42528
:104B430008F9744828F582740539F583EAF0A3E57A
:104B530009F0A3E50AF0A3E50BF0EEF87900E87598
:104B6300F008A4C8AAF075F000A42AFA75F008E9C1
:104B7300A42AF9744428F582740539F58378081258
:104B830016C6EEF87900E875F008A4C8AAF075F027
:104B930000A42AFA75F008E9A42AF9744428F582D6
:104BA300740539F583780C1216C67808790C12143B
:104BB300D2EEF87900E875F008A4C8AAF075F00001
:104BC300A42AFA75F008E9A42AF9744828F582742E
:104BD3000539F58378101216C6EEF87900E875F0FA
:104BE30008A4C8AAF075F000A42AFA75F008E9A48D
:104BF3002AF9744828F582740539F583780C12165E
:104C0300C67810790C1214D278087910121614AAE7
:104C130008AB09AC0AAD0BEEF87900E875F004A413
:104C2300C885F00875F000A42508F50875F004E9B7
:104C3300A42508F9E51428F582E51539F583EAF08A
:104C4300A3E509F0A3E50AF0A3E50BF00E02462263
:104C53007E00900482E0F8EEC3984003024E499030
:104C63000482E0C313F8EEC3984003024D5DEEF8EF
:104C73007900E875F004A4C8AAF075F000A42AFA34
:104C830075F004E9A42AF9E51428F582E51539F548
:104C93008378081216C6740B12184178081214A3ED
:104CA3005030EEF87900E875F004A4C8AAF075F066
:104CB30000A42AFA75F004E9A42AF9E51428F58278
:104CC300E51539F5831216E4740B1218411216F028
:104CD3008010740B1218411216E4740B121841124F
:104CE30016F0740312184178081216C6EEF879000C
:104CF300E875F004A4C8AAF075F000A42AFA75F0C8
:104D030004E9A42AF9E51428F582E51539F5837831
:104D1300081214A35031EEF87900E875F004A4C822
:104D2300AAF075F000A42AFA75F004E9A42AF9E5BB
:104D33001428F582E51539F5831216E47403121865
:104D4300411216F0024E4574031218411216E47410
:104D5300031218411216F0024E45EEF87900E87579
:104D6300F004A4C8AAF075F000A42AFA75F004E9C7
:104D7300A42AF9E51428F582E51539F58378081294
:104D830016C6740F12184178081214A35030EEF8A7
:104D93007900E875F004A4C8AAF075F000A42AFA13
:104DA30075F004E9A42AF9E51428F582E51539F527
:104DB300831216E4740F1218411216F08010740F48
:104DC3001218411216E4740F1218411216F07407E8
:104DD30012184178081216C6EEF87900E875F00447
:104DE300A4C8AAF075F000A42AFA75F004E9A42A6D
:104DF300F9E51428F582E51539F58378081214A32B
:104E03005030EEF87900E875F004A4C8AAF075F004
:104E130000A42AFA75F004E9A42AF9E51428F58216
:104E2300E51539F5831216E474071218411216F0CA
:104E3300801074071218411216E4740712184112F5
:104E430016F00E024C55740B12184178081216C650
:104E53007403121841780812162774017808121582
:104E6300DCAA08AB09AC0AAD0B9008E4E508F0A393
:104E7300E509F0A3E50AF0A3E50BF0740B12184162
:104E830078081216C674031218417808121661AA1C
:104E930008AB09AC0AAD0B9008F0E508F0A3E509EF
:104EA300F0A3E50AF0A3E50BF0740F12184178089C
:104EB3001216C6740712184178081216277401785F
:104EC300081215DCAA08AB09AC0AAD0B9008E8E59B
:104ED30008F0A3E509F0A3E50AF0A3E50BF0740FCE
:104EE30012184178081216C674071218417808126E
:104EF3001661AA08AB09AC0AAD0B9008F4E508F0FB
:104F0300A3E509F0A3E50AF0A3E50BF07E008E0804
:104F1300750900900482E0F8790024FFF8E934FF72
:104F2300F9C3E50898E50999A2D265D03340030295
:104F33005557EEF87900E875F004A4C8AAF075F0A7
:104F430000A42AFA75F004E9A42AF9E51428F582E5
:104F5300E51539F583A3A3A3A378081216C6EEF8C3
:104F63007900E875F004A4C8AAF075F000A42AFA41
:104F730075F004E9A42AF9E51428F582E51539F555
:104F83008378081214A3400302509E908112C082BA
:104F9300C083EEF87900E875F004A4C8AAF075F0B0
:104FA30000A42AFA75F004E9A42AF9E51428F58285
:104FB300E51539F583A3A3A3A378081216C6EEF863
:104FC3007900E875F004A4C8AAF075F000A42AFAE1
:104FD30075F004E9A42AF9E51428F582E51539F5F5
:104FE300837808121661D083D08278081214B350E4
:104FF30057EEF87900E875F004A4C8AAF075F0003C
:10500300A42AFA75F004E9A42AF9E51428F582E53F
:105013001539F583A3A3A3A31216E4EEF87900E8E8
:1050230075F004A4C885F00875F000A42508F508F8
:1050330075F004E9A42508F974E828F582740739A2
:10504300F5831216F00251AAEEF87900E875F00420
:10505300A4C8AAF075F000A42AFA75F004E9A42AFA
:10506300F974E428F582740739F5831216E4EEF82F
:105073007900E875F004A4C885F00875F000A4254C
:1050830008F50875F004E9A42508F974E828F58201
:10509300740739F5831216F00251AA908112C08267
:1050A300C083EEF87900E875F004A4C8AAF075F09F
:1050B30000A42AFA75F004E9A42AF9E51428F58274
:1050C300E51539F58378081216C6EEF87900E87508
:1050D300F004A4C8AAF075F000A42AFA75F004E954
:1050E300A42AF9E51428F582E51539F583A3A3A3CA
:1050F300A37808121661D083D08278081214B350B3
:1051030056EEF87900E875F004A4C8AAF075F0002B
:10511300A42AFA75F004E9A42AF9E51428F582E52E
:105123001539F583A3A3A3A31216E4EEF87900E8D7
:1051330075F004A4C885F00875F000A42508F508E7
:1051430075F004E9A42508F974E828F58274073991
:10515300F5831216F08050EEF87900E875F004A498
:10516300C8AAF075F000A42AFA75F004E9A42AF994
:1051730074E428F582740739F5831216E4EEF8799E
:1051830000E875F004A4C885F00875F000A42508AC
:10519300F50875F004E9A42508F974E828F5827484
:1051A3000739F5831216F0EEF87900E875F004A4D8
:1051B300C8AAF075F000A42AFA75F004E9A42AF944
:1051C30074E428F582740739F5831216E4EEF8794E
:1051D30000E875F004A4C885F00875F000A425085C
:1051E300F50875F004E9A42508F9746828F58274B4
:1051F3000839F5831216F0900482E0C313F8EEC366
:105203009840030253B0EEF87900E875F004A4C89F
:10521300AAF075F000A42AFA75F004E9A42AF97437
:105223006828F582740839F58378081216C6900841
:10523300E478081214A350329008E478081216C6D2
:10524300EEF87900E875F004A4C8AAF075F000A49C
:105253002AFA75F004E9A42AF974E828F582740798
:1052630039F58378081214A3406A9008E478081289
:1052730016C6EEF87900E875F004A4C8AAF075F034
:1052830000A42AFA75F004E9A42AF9746828F582BF
:10529300740839F58378081214A340030253A6EE69
:1052A300F87900E875F004A4C8AAF075F000A42A00
:1052B300FA75F004E9A42AF974E828F58274073929
:1052C300F58378081216C69008E478081214A340F0
:1052D300030253A69008FEE0C39419400302539DB2
:1052E3009008FEE0C39403500302539D90810E780F
:1052F300081216C69008F078081214A3400302534C
:10530300889008EC78081216C69008E478081214FE
:10531300A3503990810AC082C0839008EC780812A8
:1053230016C69008E47808121661D083D0827808F4
:105333001214B340659008F8E0F8790074F928F581
:1053430082740839F583E02401F0804E90810AC00D
:1053530082C0839008E478081216C69008EC780897
:10536300121661D083D08278081214B3402C9008AF
:10537300F8E0F8790074F928F582740839F583E0C8
:105383002401F080159008F8E0F8790074F928F505
:1053930082740839F583E02401F09008FE7400F06C
:1053A3000255539008FEE02401F0025553EEF879BC
:1053B30000E875F004A4C8AAF075F000A42AFA75F1
:1053C300F004E9A42AF9746828F582740839F5838E
:1053D30078081216C69008E878081214A350329081
:1053E30008E878081216C6EEF87900E875F004A408
:1053F300C8AAF075F000A42AFA75F004E9A42AF902
:1054030074E828F582740739F58378081214A340E9
:105413006A9008E878081216C6EEF87900E875F085
:1054230004A4C8AAF075F000A42AFA75F004E9A44C
:105433002AF9746828F582740839F58378081214F8
:10544300A3400302554CEEF87900E875F004A4C8B4
:10545300AAF075F000A42AFA75F004E9A42AF974F5
:10546300E828F582740739F58378081216C6900880
:10547300E878081214A3400302554C9008FEE0C3D9
:10548300941940030255449008FEE0C3940350036B
:1054930002554490810E78081216C69008F47808D5
:1054A3001214A3400302552F9008E878081216C679
:1054B3009008E478081214A3503990810AC082C07E
:1054C300839008E878081216C69008E47808121644
:1054D30061D083D08278081214B340659008F8E055
:1054E300F8790074F928F582740839F583E024010A
:1054F300F0804E90810AC082C0839008E47808123D
:1055030016C69008E87808121661D083D08278080E
:105513001214B3402C9008F8E0F8790074F928F5D8
:1055230082740839F583E02401F080159008F8E0CF
:10553300F8790074F928F582740839F583E02401B9
:10554300F09008FE7400F080079008FEE02401F05C
:105553000E024F119008E81216E49008EC1216F0B0
:10556300AA14AB151204FA9008F8E02402F090088C
:10557300F8E0C3940350030256659008F8E0F87905
:105583000074F828F582740839F583E09008FFF079
:105593009008F8E0F8790074F728F582740839F573
:1055A30083E0900900F09008F8E0F8790074F62899
:1055B300F582740839F583E0900901F09008F8E06A
:1055C300F8790074F528F582740839F583E09009B9
:1055D30002F09008FFE0F87900900900E0FA7B0000
:1055E300E82AF8E93BF9900901E0FA7B00E82AF898
:1055F300E93BF9900902E0FA7B00E82AF8E93BF974
:10560300C3E89404E99400A2D265D03340269009FC
:1056130002E0FA900901E0F9900900E0F89008FF30
:10562300E028292A9008FDF09008FDE0FA7902129B
:1056330008FC80109008FD7400F09008FDE0FA79F2
:10564300021208FC9008F87400F09008F97400F056
:105653009008FA7400F09008FB7400F09008FC7452
:1056630000F0AA16AB171204FA7E00EEC3940A40A8
:1056730003025759900482E0F879008E08750900F7
:105683002508F8E93509F9E875F006A4C8AAF07504
:10569300F000A42AFA75F006E9A42AF9744A28F559
:1056A30082740439F583E0FAA3E0FBEB3395E0FC65
:1056B300FDEEF87900E875F008A4C885F00875F0E8
:1056C30000A42508F50875F008E9A42508F97494E1
:1056D30028F582740739F583EAF0A3EBF0A3ECF025
:1056E300A3EDF0900482E0F879008E087509002597
:1056F30008F8E93509F9E875F006A4C8AAF075F0C9
:1057030000A42AFA75F006E9A42AF9744C28F58254
:10571300740439F583E0FAA3E0FBEB3395E0FCFD79
:10572300EEF87900E875F008A4C885F00875F00074
:10573300A42508F50875F008E9A42508F974982844
:10574300F582740739F583EAF0A3EBF0A3ECF0A339
:10575300EDF00E02566E900903E02401F090090368
:10576300E0C39419500E9008FDE0F8900904E02876
:10577300F00257FB9009037400F0900904E0707283
:105783009009437401F07A81791D1206EC85188221
:10579300851983742AF074011218417400F0851876
:1057A30082851983AA82AB8379021206F8E98518E8
:1057B30082851983742DF074011218417404F085E5
:1057C3001882851983AA82AB8379021206F8E985C8
:1057D3001882851983742AF074011218417469F0D0
:1057E300851882851983AA82AB8379021206F8E9A8
:1057F30080069009047400F07901741312180C7F69
:105803001002191F74EF12184D74ED1217F6E9FF09
:105813008A1074FF2FFE1204D08A088B098C0A8D1C
:105823000B85080C85090D850A0E850B0F780C1264
:105833001A5C7406121841AA82AB831204D674044C
:1058430012180C74026F700874031218417400F07C
:1058530074021218417400F0EEF87900E875F00E46
:10586300A4C8AAF075F000A42AFA75F00EE9A42AD8
:10587300F9741628F582740939F58378081216C667
:10588300E5084509450A450B600302596474021291
:105893001841EEF87900E875F00EA4C8AAF075F087
:1058A30000A42AFA75F00EE9A42AF9740F28FC74EF
:1058B3000939FD7407121709EEF87900E875F00E3F
:1058C300A4C8AAF075F000A42AFA75F00EE9A42A78
:1058D300F9740F28FA740939FB1204E2EEF879001F
:1058E300E875F00EA4C885F00875F000A42508F546
:1058F3000875F00EE9A42508F9741628F5827409D1
:1059030039F5831216F0E510AC107D00EEF879003E
:10591300E875F00EA4C8AAF075F000A42AFA75F091
:105923000EE9A42AF9741A28F582740939F583E576
:1059330010F0A3EDF0EFC0E0EEF87900E875F00E9B
:10594300A4C8AAF075F000A42AFA75F00EE9A42AF7
:10595300F9741C28F582740939F583D0E0F0025DEF
:105963005EEEF87900E875F00EA4C8AAF075F000B1
:10597300A42AFA75F00EE9A42AF9741428F582749E
:105983000939F583E0F8A3E0F97407121841E068D8
:105993007003A3E0696003025A5BEEF87900E875CF
:1059A300F00EA4C8AAF075F000A42AFA75F00EE967
:1059B300A42AF9741328F582740939F583E0F8747D
:1059C30006121841E0686003025A5BEEF87900E8BA
:1059D30075F00EA4C8AAF075F000A42AFA75F00EAB
:1059E300E9A42AF9741228F582740939F583E0F8D9
:1059F3007405121841E068705FEEF87900E875F0FD
:105A03000EA4C8AAF075F000A42AFA75F00EE9A452
:105A13002AF9741028F582740939F583E0F87403C0
:105A2300121841E0687031EEF87900E875F00EA4C1
:105A3300C8AAF075F000A42AFA75F00EE9A42AF9B1
:105A4300741128F582740939F583E0F87404121887
:105A530041E0687003025D2C7A8179501206EC9064
:105A6300090DE0F8A3E0F9E4E9F8C0E074091218BD
:105A730041D0E0F090090DE0F8A3E0F9E8C0E0744C
:105A83000A121841D0E0F0EEF87900E875F00EA4A0
:105A9300C8AAF075F000A42AFA75F00EE9A42AF951
:105AA300741628F582740939F58378081216C6E549
:105AB30008740B121841E508F0EEF87900E875F068
:105AC3000EA4C8AAF075F000A42AFA75F00EE9A492
:105AD3002AF9741628F582740939F58378081216A1
:105AE300C6E4E509F508E508740C121841E508F069
:105AF300EEF87900E875F00EA4C8AAF075F000A4DA
:105B03002AFA75F00EE9A42AF9741628F5827409A5
:105B130039F58378081216C6741078081215DCE577
:105B230008740D121841E508F0EEF87900E875F0F5
:105B33000EA4C8AAF075F000A42AFA75F00EE9A421
