:020000040000FA
:0600000002011D02228F27
:03002B00021B5164
:0300530002230283
:03006B00021B0A6B
:03007B00021B3332
:100083000220FBE5C754F84401F5C77901220000BB
:100093000080FB120086B90003020107E47921788E
:1000A30008B800028004F709D8FCE479297802B87B
:1000B30000028004F709D8FCE490028178127908E1
:1000C3008002F0A3D8FCD9FA781A90014D7A01BACC
:1000D30000028007E493A3F608DAF9900992AA8252
:1000E300AB8390014E78EC79038015E493A3AC8243
:1000F300AD838A828B83F0A3AA82AB838C828D83A8
:10010300D8E9D9E77582E27583BC740312012F75B0
:100113008291758300740012012F75D00075813FA1
:10012300751881751902759F00020096C09FF59F8F
:10013300E473D09F22D083D082C09FE493C0E07445
:100143000193C0E0740293F59F2201FFFF1101990F
:100153000112640401028C8101000067810286811F
:10016300010000980902948101000099090280812D
:10017300030000AA020272810100009A0901E80348
:10018300053F100A024669726D77617265000000CF
:100193000000000000001A446F2053796E630000D2
:1001A3000000000000000000084150502053657417
:1001B30020436C6F636B00000000084150502053D4
:1001C30065742054696D657A6F6E65001201004491
:1001D300617461204865616465720000000000007D
:1001E300124461746120426F6479000000000000D2
:1001F3000000028C810100005E8102868101000003
:10020300CB09026E81010000A70302828101000075
:10021300CC09028681010000DD09029881030000F8
:10022300A903028081030000B1030282810100005F
:10023300DE09028681010000EF0902CA8002000084
:10024300B703028281010000F009028681010000E8
:10025300010A027A81020000BB03028281010000CD
:10026300020A028681010000130A0284810300004E
:10027300140A028081030000BC0302828101000092
:10028300160A028681010000270A028A8103000000
:10029300C203028081030000CA03028281010000BD
:1002A300280A000000000000000000000000000019
:1002B30000000000000000000000FF000130750393
:1002C3000201060000000000000000000000000022
:1002D300000000000000000000000000000000FF1C
:1002E300FF0600800CE80306000C00A00F010001CC
:1002F300001109416464696E675F41312D3030300C
:1003030030303005122003B004020A000201060552
:100313000200230F18416464696E675F41312D3019
:10032300303030303000000000000DC409000053AD
:100333000800005F08FF0000B40000280028002820
:100343003075A000A000A000A00000080008E00194
:10035300F0001000100010001000100010005000FA
:100363005000500010001000D007000000000000F3
:100373000F0001000500307507001000010081FF28
:1003830000000000FFCF0AED0AD50AFF02020208AF
:10039300025000A0000000E803028C810100006409
:1003A30081028681010000D30B027E8101000005DA
:1003B30005028681010000D40B027C810100001B31
:1003C30005028681010000D50B0292810100001D08
:1003D30005028681010000D60B0278810800001E09
:1003E30005028681010000D70B027681010000D847
:1003F3000BFF0100FF20028C810100006181028656
:10040300810100003C0C02748100000000000280A6
:10041300810300006B059910991099109910991098
:100423009910991099109910991099109910991081
:100433002D134513271312013885EB021201388F50
:10044300EB02120138CDEB0212013816EC02120155
:100453003850EC02120138AAEC02120138CBEC023C
:10046300120138D4EC0212013821ED021201384A8C
:10047300ED0212013854ED02120138C0ED021201EF
:100483003852EE021201389CEE02120138D2EE020B
:100493001201385EEF021201389FEF02120138D6C3
:1004A300EF02120138E8EF0212013807F0021201DD
:1004B3003810F002120138DDF002120138BD840356
:1004C300120138B48503120138CE8503120138DFD7
:1004D3008503120138FE87031201381D88031201B8
:1004E3003899AB03120138CFAB0312013805AC03C3
:1004F30012013850AD0312013867BB031201387D76
:10050300BB0312013887BB03120138D1BB031201AD
:100513003883BC03120138648903120138798903D3
:10052300120138298A03120138698A0312013882B9
:100533008A03120138BD8A031201380A8B031201A0
:10054300383C8B031201387E8B031201387F8D03F5
:1005530012013830B80312013859B8031201388830
:10056300B803120138A0B803120138E2B80312012C
:1005730038AB9603120138DB9603120138EE96036B
:100583001201381D97031201383C9703120138E713
:100593009703120138809803120138099903120155
:1005A30038159A03120138BCBD031201383ABD0352
:1005B3001201389B8101120138008401120138A114
:1005C3008501120138558601120138E886011201AE
:1005D300386D8701120138928701120138E88A01C8
:1005E3001201386E8B01120138A18C01120138DB24
:1005F3008C01120138108D01120138D08E011201C5
:10060300382D8F01120138768F01120138E18F01E5
:100613001201385290011201388490011201389C62
:100623009001120138E59101120138F5910112018F
:100633003810930112013832930112013868930183
:100643001201381C9501120138A99501120138E8ED
:1006530095011201380C97011201383CB7031201BE
:10066300384CB703120138DEB70312013805B8035B
:1006730012013825B803120138A47F00120138E3B0
:100683007F001201381ABE031201380BB90312019D
:10069300381BB9031201382DB903120138DFB9032E
:1006A30012013838B603120138BDB60312013823DC
:1006B300B70312013856A9031201387EA9031201A8
:1006C30038AEA9031201380DAA031201385BAA033D
:1006D30012013895AA03120138C9AA031201382559
:1006E300AB03120138E6B30312013810B40312014D
:1006F3003873B40312013885B403120138D5B40337
:1007030012013813B50312013816B5031201380468
:10071300BE0312013814BE0312013817BE031201BF
:1007230038F87F00120138CCA40312013867A603FE
:10073300120138C8A6031201380EA703120138327A
:10074300F6021201386CF60212013889F602120120
:100753003866F702120138F0F702120138DDF802A9
:1007630012013811FA0212013836FA021201389FC7
:10077300FA02120138FAFA02120138E9B00312013F
:10078300383BB103120138C5B1031201382CB2034F
:1007930012013811A7031201383BA70312013809CC
:1007A300A803120138E4A803120138A6D4021201E7
:1007B300386DD502120138A4D502120138CED50204
:1007C3001201382ED60212013884D602120138E9FA
:1007D300D60212013881D70212013890D8021201D1
:1007E3003827DA02120138B4DA021201381BDB02AD
:1007F30012013832DB021201384CDC021201388A52
:10080300DC021201382F8E02120138B0910212015C
:10081300383893021201388F9302120138AE9302D3
:100823001201382C9402120138C29502120138A722
:100833009602120138B59A021201388B9B021201FB
:10084300386442001201386F4600120138C949006A
:100853001201386F4B00120138434C0012013883E8
:100863004C00120138384D00120138664D00120158
:1008730038294E00120138584E00120138A14E009B
:10088300120138D74F00120138F8510012013844D1
:100893005300120138B655001201382857001201CF
:1008A30038A45700120138BC5700120138E657002C
:1008B30012013817580012013847580012013888BE
:1008C3005800120138A05900120138425A0012018F
:1008D300388AAD03120138A1AD03120138D2AD033A
:1008E3001201380DAE0312013837AE03120138611D
:1008F300AE0312013878AE031201388FAE03120132
:1009030038A6AE03120138CFAE03120138E2AE03AC
:10091300120138F8AE031201380BAF03120138325B
:10092300AF0312013803C20212013807C3021201D6
:10093300383FC30212013862C3021201386DC30289
:1009430012013890C3021201389FC4021201387495
:10095300C502120138EFC50212013877C60212012F
:1009630038B2C602120138E9C60212013877C7024B
:1009730012013850C802120138B0C802120138BB44
:10098300C8021201383AC9021201383DC9021201E4
:100993003840C902120138CFC902120138D2C90244
:1009A30012013802CA021201382CCA021201381A83
:1009B300CB02120138CCCB021201380080031201A2
:1009C300382880031201385680031201388D8003C2
:1009D300120138EB8003120138368103120138818A
:1009E3008103120138C18103120138078203120106
:1009F30038358203120138F28203120138FC820374
:100A03001201380983031201383C830312013808A9
:100A130084031201381484031201382C8403120155
:100A230038368403120138E5B903120138F3B903E8
:100A33001201380BBA0312013823BA03120138A486
:100A4300DF0112013850E001120138CBE00112013D
:100A530038ECE10112013828E201120138D1E20138
:100A6300120138B8E3011201381CE5011201387391
:100A7300E501120138F4E501120138E4E60112013F
:100A83003831E701120138B7E701120138E9E7010C
:100A9300120138FDE9011201383FEA011201385D04
:100AA300EA01120138E0EA01120138B4EB01120144
:100AB300387CEC0112013862E40212013835E50298
:100AC300120138DEE50212013831E602120138E183
:100AD300E6021201386DE70212013859E8021201E9
:100AE3003888E8021201389BE902120138E3E9026F
:100AF300120138B8EA02120138F4EA02120138107E
:100B0300EB02120138FFBB03120138609E0312018E
:100B130038769E031201389C9E03120138B89F0356
:100B2300120138C29F03120138F7A003120138EFF4
:100B3300A1031201380BF1021201383BF202120138
:100B4300386EF202120138B8F2021201387FF40251
:100B530012013853C001120138BDC0011201381C03
:100B6300C2011201382CC20112013859C20112010B
:100B730038B0C20112013859C30112013860C401EF
:100B83001201382AC5011201388AC601120138CD73
:100B9300C60112013872C701120138BFC701120121
:100BA30038E5C701120138F3C901120138F8C90148
:100BB300120138FDCB011201384ACC01120138BDB4
:100BC300CC01120138F0CC0112013892CD0112018F
:100BD300383BCE0112013873CE0112013876CE01B3
:100BE300120138BECE01120138FECE011201385572
:100BF300CF01120138F9A10312013811A203120126
:100C03003859A2031201386FA203120138B6A203A6
:100C1300120138CAA30312013857A403120138A2E0
:100C2300A403120138C82900120138D42900120183
:100C3300380F2A00120138542A00120138142B00ED
:100C43001201389A2B00120138C62B00120138FF0B
:100C53002B001201383D2E00120138213000120101
:100C6300380732001201384A330012013898350030
:100C7300120138AA3600120138F53700120138057F
:100C830039001201382239001201385D390012018E
:100C9300387F3900120138E23900120138A33E00CF
:100CA300120138383F00120138893F00120138B071
:100CB3003F001201380240001201382040001201A7
:100CC300387A4000120138794100120138FD4100A1
:100CD30012013848FB0212013852FB021201389507
:100CE300FB02120138B0FB0212013840FC02120170
:100CF3003868FC02120138A5FC02120138DCFC0240
:100D030012013805FD021201387AFD021201388FF3
:100D1300FD02120138A4FD02120138D5FD021201B1
:100D230038E9FD021201380EFE0212013848FE02B4
:100D330012013874FE02120138ACFE021201382B84
:100D4300FF0212013874FF021201389EFF021201E2
:100D530038C9FF021201381FB50312013802AA0273
:100D630012013830AA021201387EAB021201385E3A
:100D7300AC021201387DAC02120138FAAC02120146
:100D8300383DAD0212013893AE0212013854AF025E
:100D9300120138DBB1021201387CB202120138723F
:100DA300B3021201386FB402120138C9B50212013D
:100DB3003854B6021201388BB203120138F4B2036D
:100DC30012013848B3031201386FB303120138A07C
:100DD300B303120138F18D031201385E8E03120141
:100DE30038A58E03120138BD8F03120138B9900361
:100DF3001201389C91031201383DCC021201387F55
:100E0300CC0212013851CD021201382ACE0212014E
:100E13003824CF0212013806D0021201386FD002F3
:100E230012013825D10212013899D1021201380575
:100E3300D2021201382ED202120138A8D2021201B4
:100E43003841D302120138A6D302120138BBD302B0
:100E530012013801D4021201381AD4021201387F68
:100E6300D40212013882D40212013801FD011201A9
:100E73003829FD0112013867FD0112013825FE01F1
:100E83001201388CFE01120138A8FE01120138D07C
:100E9300FE0112013800FF011201380FFF01120198
:100EA300388CFF01120138B2FF0112013842D00120
:100EB30012013820D20112013852D4011201388EA6
:100EC300D401120138BBD401120138A5D501120196
:100ED30038F0D5011201383BD6011201384DD60145
:100EE3001201388DD601120138C2D6011201381011
:100EF300D7011201383FD70112013862D70112011D
:100F030038AFD70112013834D8011201384EDA0153
:100F13001201388DDC01120138CEDC011201387068
:100F2300DE01120138B1DE0112013824DF011201A2
:100F3300387ADF011201388F72001201388D730085
:100F4300120138267A00120138477C001201381248
:100F53007E001201387A7F00120138875A0012018D
:100F630038365B00120138635B00120138A95B005D
:100F7300120138E95C001201387F5E00120138F972
:100F83005E00120138145F001201388F5F001201F6
:100F930038E960001201384962001201384F6300DA
:100FA300120138B06400120138C9640012013827F5
:100FB30065001201381566001201384866001201F7
:100FC30038B866001201383267001201387C6700B6
:100FD3001201384668001201381B6900120138FA01
:100FE3006900120138856A00120138F36A001201A0
:100FF30038676B00120138926B00120138516C0094
:10100300120138B66D00120138D36D00120138F2A7
:101013006D00120138E36E00120138086F001201EF
:1010230038326F00120138AD6F00120138077000BB
:101033001201387071001201381E72001201385FFC
:1010430072001201382E9C021201387C9C0212019C
:1010530038889C02120138669D02120138979D025E
:10106300120138C89D02120138489E0212013880CD
:101073009E02120138D29E021201380F9F02120102
:10108300382CA10212013852A3021201383DA502E5
:1010930012013827A702120138BD29001201384076
:1010A300AC0112013870AC0112013849B3011201CD
:1010B30038CEB401120138CBBA01120138B3BB01E7
:1010C300120138F0BB0112013813BC01120138447C
:1010D300BC011201384DBC0112013857BC01120189
:1010E3003845BD011201383BBE0112013831970169
:1010F300120138309B01120138369B0112013871FD
:10110300A2011201388AA701120138929A0312012F
:1011130038289B031201383E9B03120138B49B030A
:10112300120138289C03120138669C03120138DA35
:101133009C03120138539D031201385C9D03120175
:1011430038689D031201387D9D03120138BB9D034E
:10115300120138D19D03120138309E031201385E0B
:1011630092031201386B9203120138859203120124
:1011730038C49203120138029303120138679303B0
:101183001201387C930312013887930312013894B8
:101193009303120138AB9303120138B9930312017D
:1011A30038C49303120138D09303120138DF930339
:1011B300120138EA93031201380D9403120138B473
:1011C3009403120138C49403120138DE940312010C
:1011D30038FB94031201381795031201383C950329
:1011E3001201384795031201385C950312013870D8
:1011F3009503120138D19503120138D795031201D3
:1012030038DD9503120138E39503120138FB95038A
:101213001201382E96031201380580021201388913
:1012230080021201383881021201389782021201BA
:1012330038B88402120138A48502120138D9850214
:10124300120138FB8502120138AA8602120138A264
:101253008802120138CB88021201385D890212011B
:10126300388F89021201389C8902120138F38902EE
:10127300120138198A02120138868C021201388948
:101283008D02120138E18D0212013895EE0112012F
:10129300389FEF0112013886F00112013890F001F6
:1012A300120138B2F001120138BEF00112013857B1
:1012B300F20112013886F201120138A2F301120180
:1012C30038FBF30112013861F50112013840F601D0
:1012D3001201389CF60112013809F7011201384452
:1012E300F70112013883F7011201383CFA011201A8
:1012F3003856FA01120138E2FA01120138F0FA0104
:1013030012013849FB0112013857FB01120138CA97
:10131300FB011201382EFC0112013878FC01120185
:1013230038D5B602120138F7B6021201381DB902D8
:1013330012013832BC021201384ABD02120138FDD3
:10134300BD02120138DFBE0212013844AF0312019D
:101353003869AF03120138DBAF03120138E8DC024E
:10136300120138F1DC02120138FADC02120138D121
:10137300DD0212013882DF02120138B8DF021201E6
:1013830038F2DF0212013828E00212013862E0026B
:1013930012013896E002120138C2E0021201380B42
:1013A300E10212013845E1021201388EE102120115
:1013B30038E6E1021201381BE20212013876E2023A
:1013C300120138B0E20212013801E3021201383788
:1013D300E30212013871E3021201389FE3021201A2
:1013E30038C2E302120138BCBA03120138E8BA0367
:1013F30012013843BB031201384DBB031201385DA0
:10140300BB0312013890BD03120138E6BD03E06649
:10141300701008A3E066700A08A3E066700408A3CE
:10142300E06622C3E7960809E7960809E7960809E4
:10143300E79622C3E09608A3E09608A3E09608A3E4
:10144300E09622C008C3E096F50808A3E096420898
:1014530008A3E096420808A3E09645087001D3D09C
:101463000822080808EAC0E0EBC0E086F0E7A4FA27
:10147300180986F0E7A42AFA180986F0E7A42AFADD
:10148300180986F0E7A42AFA1986F0E7A4FBE5F029
:101493002AFA190886F0E7A42BFBE5F03AFA1908B3
:1014A30086F0E7A42BFBE5F03AFA18180986F0E773
:1014B300A4C5F02BFBE43AFA1908E7C5F0C6A42645
:1014C300F6E5F03BFBE43AFA1886F0E7A4F6E5F01C
:1014D3000826F6E43B08F6E43A08F6D0E0FBD0E051
:1014E300FA22E4CFC0E0E4CEC0E0E4CDC0E0E4CC37
:1014F300C0E075F020C3E633F608E633F608E633BA
:10150300F608E633F6181818EC33FCED33FDEE332A
:10151300FEEF33FFC3EC9709ED9709EE9709EF97B9
:10152300191919400FFFEC97FC09ED97FD09EE9788
:10153300FE191906D5F0BEECF709EDF709EEF70928
:10154300EFF7191919D0E0FCD0E0FDD0E0FED0E0B0
:10155300FF226016080808C6C313C618C613C618A8
:10156300C613C618C613C6D5E0EA227009080808D0
:10157300226016181818C6C333C608C633C608C671
:1015830033C608C633C6D5E0EA22E627F60809E6DD
:1015930037F60809E637F60809E637F622E026F6B5
:1015A30008A3E036F608A3E036F608A3E036F622F1
:1015B300E026F008A3E036F008A3E036F008A3E045
:1015C30036F022C3E697F60809E697F60809E69788
:1015D300F60809E697F622C3E096F008A3E096F032
:1015E30008A3E096F008A3E096F022E657F6080970
:1015F300E657F60809E657F60809E657F622E056D5
:10160300F608A3E056F608A3E056F608A3E056F65C
:1016130022E056F008A3E056F008A3E056F008A332
:10162300E056F022E0F608A3E0F608A3E0F608A3EC
:10163300E0F622E6F008A3E6F008A3E6F008A3E646
:10164300F022E0FAA3E0FBA3E0FCA3E0FD22EAF032
:10165300A3EBF0A3ECF0A3EDF022CAC0E0E6F0A305
:1016630008DAFAD0E0FA22CAC0E0E0A3C582CCC50A
:1016730082C583CDC583F0A3C582CCC582C583CD86
:10168300C583DAE6D0E0CA22C3E498F8E499F912F4
:1016930016CC8026C3E49AFAE49BFBE920E7E9121F
:1016A30016CCE498F8E499F922C3E498F8E499F99C
:1016B3001216CCE498F8E499F9C3E49AFAE49BFB94
:1016C30022EB20E7CFE920E7E0B90010BB0008E8F0
:1016D3008AF084F8AAF022E4FBC8FA22EB70227B9A
:1016E30010C833C8C933C9335007C39AC3DBF28068
:1016F300069A50012ADBEAC833F4C8C933F4C9FA9D
:101703002275F008E4C833C8C933C933C99AC99BE1
:101713005004C92AC93BD5F0ECFBC833F4C8E4C96B
:10172300FA22600D08C6A2E713C618C613C6D5E091
:10173300F322600C08C6C313C618C613C6D5E0F45B
:1017430022700422600D18C6C333C608C633C6D53B
:10175300E0F41822251810AF08F518400215198077
:1017630008F51840021519D2AF22C0D0251810AFC2
:1017730008F518500205198008F51850020519D20A
:10178300AFD0D0222518F58210AF08F51840021506
:10179300198008F51840021519D2AF85198322253F
:1017A30018F582E43519F58322E4732518C582C040
:1017B300E0E51934FFC583C0E0E518C3958224F83A
:1017C30010AF08858319858218800885831985825F
:1017D30018D2AFCEF0A3E520F0A37808E608F0A373
:1017E300DEFAEFF0A3E58124FAF8E608F0A3E608B1
:1017F300F0A3E608F0A30808E608F0A3E608F0A3C0
:1018030015811581D0E0FED0E0F815811581158191
:10181300E8C0E0EEC0E0222518C582C0E0E5193437
:10182300FFC583C0E0E518C3958224F910AF08858E
:1018330083198582188008858319858218D2AFCED3
:10184300F0A3E520F0A37808E608F0A3DEFAEFF0B2
:10185300A3E58124FBF8E608F0A3E608F0A3080853
:10186300E608F0A3E608F0A315811581D0E0FED0C9
:10187300E0F815811581E8C0E0EEC0E02285198308
:10188300851882E0A3FEE0A3F5207808E0A3F6081C
:10189300DFFAE0A3FFE0A3C0E0E0A3C0E0E0A3C061
:1018A300E0E0A3C0E0E0A3C0E010AF0885821885A4
:1018B30083198008858218858319D2AFD083D0829B
:1018C300020135851983851882E0A3FEE0A3F52084
:1018D3007808E0A3F608DFFAE0A3FFE0A3C0E0E0A6
:1018E300A3C0E0E0A3C0E0E0A3C0E010AF0885829E
:1018F300188583198008858218858319D2AFD08310
:10190300D08222C0D02518C582C0E0E51934FFC5B6
:1019130083C0E0E518C3958224F310AF08858319CB
:101923008582188008858319858218D2AFC8F0A3F1
:10193300E9F0A3EAF0A3EBF0A37908E709F0A3D851
:10194300FAECF0A3EDF0A3EEF0A3EFF0A3D0E0F0F8
:10195300A3D0E0F0A3D0E0F0A3E520F0A3E5F0F0FE
:10196300A322851983851882E0C0E0A3E0F9A3E0F0
:10197300FAA3E0FBA37808E0F608A3DFFAE0FCA3F0
:10198300E0FDA3E0FEA3E0FFA3E0C0E0A3E0C0E02E
:10199300A3E0F5D0A3E0F520A3E0A3F5F010AF0892
:1019A3008583198582188008858319858218D2AFAB
:1019B300D082D083D0E0F8D0E03274048006740281
:1019C30080027401C0E0F404121787D0E012165DA0
:1019D300227404800474028000CCC0E0EDC0E0E512
:1019E30018C39CCCAD1950011D10AF068C188D196E
:1019F30080068C188D19D2AF12166AD0E0FDD0E0A4
:101A0300FC22D083D082E9C0E0E493A3C386F0C56F
:101A1300F095F0F908E493A386F0C5F095F0700B08
:101A2300E493A3C3994005E9048002A3E475F0029B
:101A3300A42582F582E5F03583F583D0E0F9E493BC
:101A4300A3C0E0E493C0E022D083D082ECC0E0EDF9
:101A5300C0E0E493A3FCE493A3FDED4C600D121AE4
:101A630097EC24FFFCED34FFFD80EFE493A3FCE44B
:101A730093A3FDED4C600D121AD6EC24FFFCED345C
:101A8300FFFD80EFD0E0FDD0E0FCE493A3C0E0E4F1
:101A930093C0E022C0E0C3E49396087401939618C0
:101AA300400FE49366700808740193661870007021
:101AB30019A3A3C3E49396087401939618A3A340B0
:101AC3000DD0E0D0E0D0E0021A87A3A3A3A3A3A381
:101AD300D0E022C0E0C0F088F0E493667008087498
:101AE300019366187000A8F0A3A3700BD0F0D0E0A8
:0E1AF300D0E0D0E0021A87A3A3D0F0D0E0220A
:101B0400C2AF02000022C0E074F2121906A2AFE4D0
:101B140033FED2AFE589A2E350031206FD758900B6
:101B2400C2C5751A00EEA2E092AF7F01021965C02A
:101B3400E074F2121906A2AFE433FED2AFE58AA232
:101B4400E250031206FD758A00C2EB80D5C0E0C0E6
:101B5400D0E8C0E0E9C0E0E5A8D2AFC2C7751A007A
:101B6400A2E7A2E792AFD0E0F9D0E0F8D0D0D0E07D
:101B74003274F512181AEAFEEBFFEE2434F8EF344F
:101B840000F988088909EE2435F582EF3400F583DD
:101B9400E0F8EE2437F582EF3400F583E0F50AEC43
:101BA400850AF0A4FCAAF0850AF0EDA42AFDE82C2D
:101BB400F8E43DF97A257B001216CCEA8508828583
:101BC4000983F0F8740758F97401B900028004C35A
:101BD40033D9FCFAE8131313541FF8EE28F8EF3442
:101BE40000F9E8245DF582E93400F583E05A6008E1
:101BF400EE2434F582EF802CEE2434F582EF3400A9
:101C0400F583E0C0E0EE2436F582EF3400F583E09E
:101C1400F5F0D0E084A8F0EE28F8EF3400F9E824D9
:101C240038F582E93400F583E0F97F040218C674BC
:101C3400F512181AEAFEEBFFEE2434F582EF3400B5
:101C4400F583E0C0E0EE2435F582EF3400F583D06F
:101C5400E0F08E828F83A3A3A3A3A3A3A3C082C017
:101C6400838E828F83A3A3A3A3A3E0F8A3E0F9D078
:101C740083D082E0C398F508A3E099F509EE247FA8
:101C8400F582EF3400F583E064017069EE2480F599
:101C940082EF3400F583E0F8A3E0F98E828F83A30A
:101CA400A3A3A3A3A3A3E0FCA3E0FD8E828F83A33D
:101CB400A3A3A3A3E0FAA3E0FBC3EA9CEB9D50100B
:101CC400C3EC98ED99402EC3EA98EB995027800E07
:101CD400C3EA98EB994007C3EC98ED9940177C2E22
:101CE4007D07EEFAEFFB120FF7EE247FF582EF3457
:101CF40000F583E4F0EE2434F8EF3400F9E8FCE96D
:101D0400FDEE2435F582EF3400F583E0F8EE243758
:101D1400F582EF3400F583E0F50AE508850AF0A4BE
:101D2400F508AAF0850AF0E509A42AF509E82508CA
:101D3400F8E43509F97A257B001216CCEA8C828DF9
:101D440083F0F8740758F97401B900028004C333AE
:101D5400D9FCFAE8131313541FF8EE28F8EF3400F3
:101D6400F9E8245DF582E93400F583E05A6008EE71
:101D74002434F582EF802CEE2434F582EF3400F520
:101D840083E0C0E0EE2436F582EF3400F583E0F51D
:101D9400F0D0E084A8F0EE28F8EF3400F9E8243815
:101DA400F582E93400F583E0F91229AF021C2EC054
:101DB40082C083851882851983E0F8A3E0F9C3EA19
:101DC4009CEB9D5010C3EC98ED99401BC3EA98EB33
:101DD400995014800EC3EA98EB994007C3EC98ED30
:101DE400994004790180027900D083D08222EAC329
:101DF4009CFAEB9DFB2274EF12181A9005F4E06430
:101E0400086005E06407702A9061C8E060249006C9
:101E140022E0F4601DE0F875F003A4C8AAF02AF9E2
:101E2400742428FE740639FF8E828F83A3A3A3E053
:101E34007003021F2A906060E0C0E0EE2468F5821F
:101E4400EF3400F583D0E0F0750C97750D07750835
:101E540000750900E5D914F50AE5D95403F50E60B7
:101E6400177403650E605CE50A6010EE2467F58262
:101E7400EF3400F583E07003021F0F900792E064D3
:101E840001602AEE2482F582EF3400F583E06004D9
:101E9400780480027800850A08E508C398FA95E07A
:101EA400FB120EBF8A088B09EA450970051211FB63
:101EB4008074EE2482F582EF3400F583E070048AA6
:101EC4000C8B0DE50A6012850C82850D83F50BE5FC
:101ED400D9F0A3150BE50B70F6EE2482F582EF34EE
:101EE40000F583E0604474FC250AF50A780C1219A5
:101EF400C1AC0AA90EEEFAEFFB121093740212178A
:101F04006DE97026AA08AB09120781793D8E828F8C
:101F140083A3A3A3A3E0FA7B00120D93EEFAEFFBD5
:101F240012100F1210A5790080747403650E6056A8
:101F3400850A1075110078101219C1AC0CAD0DAAE8
:101F440008AB0912106F740212176DEE2468F58243
:101F5400EF3400F583E064807004747F8001E0F561
:101F64000C780C1219C5E50EF50C780C1219C5A9DC
:101F74000AAC08AD09900622E0FA7B00120D5774F2
:101F84000212176D80139005F4E06408600BAC0C2A
:101F9400AD0DEEFAEFFB1210FF12120779017F0A62
:101FA4000218C674F512181A74FC121757EAFEEBDD
:101FB400FF8908A2AFE433F509C2AF806AEE246357
:101FC400F8EF3400F97A007B00A2AFE433F50AC2DB
:101FD400AF88828983E0FCA3E0FDEC4D603A8882FF
:101FE4008983E0FAA3E0FB8A828B83E0FCA3E0FD13
:101FF40088828983ECF0A3EDF08A828B83E4F0A3DA
:10200400F088828983E0FCA3E0FDEC4D700A8882AD
:102014008983A3A3E4F0A3F0E50AA2E092AF120738
:1020240081900735E004F0EE2463F582EF3400F587
:1020340083E0F8A3E0F9E849603DEE2463F582EF1C
:102044003400F583E02402FAA3E03400FBEA24021E
:10205400F50AEB3400F50B780A1219C18A828B83D6
:10206400E0FCA3E0F9EEFAEFFB121033740212174E
:102074006DE97003021FC1900735E0606390073675
:10208400E0F8900735E0C398500C7402650870506E
:10209400900737E0604A8E828F83A3A3A3A3E085D1
:1020A4001882851983F0A3E4F0900735E0F87402F0
:1020B4001217A2E8F0A3E4F0900735E0F890073493
:1020C400E028F074021217A2AC82AD8385188285D1
:1020D4001983AA82AB837901120D63900735E4F06A
:1020E400E509A2E092AF740412176D021C2E0000E1
:1020F4008521878522C622C0E0C0D0E8C0E0E9C0BF
:10210400E0EAC0E0EBC0E0ECC0E0EDC0E0EEC0E02F
:10211400C008C009C00AC00BC082C083C0F0A2AF0F
:10212400E433FEC2AF759B00906182E0A2E05012DE
:10213400E591A2E0500C7591FE74016521700312C3
:102144001DFAE0A2E55051E591A2E5504B7591DFEF
:102154009005F4E064076005E06408702374016589
:102164002170357901900622E0FA75F003A4CAA81B
:10217400F028FB74242AFA74063BFB121FA780186C
:10218400E0640D7013900616E004F064287002E415
:10219400F07A00E0F912120D906182E0A2E64003A9
:1021A400022242E591A2E640030222427591BF90C9
:1021B40005F4E06405700812113512114180031210
:1021C400113B75210012119BE99005F5F07900127D
:1021D400118F120F6D7A017B009005F3E0F9120460
:1021E40093907803E064427055900796E014F07081
:1021F4004DC2AF1221FA00782AD0E0F618D0E0F6EA
:10220400E59F540770057509FF800375097FC4C0F5
:10221400E07829E6F50808E65509F509740B78080D
:10222400121735D0E02508F8906270E0A2E740F874
:10223400E8C333906272F0906270E0D2E0F0906193
:1022440081E0A2E35009E5E9A2E3500375E9F7A3AD
:10225400E0A2E75009E591A2E7500375917FEEA251
:10226400E092AFD0F0D083D082D00BD00AD009D086
:1022740008D0E0FED0E0FDD0E0FCD0E0FBD0E0FAF6
:10228400D0E0F9D0E0F8D0D0D0E032C0E0C0D0C087
:1022940082C083906183E0A2E05009E5BFA2E050D0
:1022A4000375BFFEE0A2E15009E5BFA2E15003754A
:1022B400BFFDE0A2E25009E5BFA2E2500375BFFBF7
:1022C400E0A2E35009E5BFA2E3500375BFF7E0A223
:1022D400E45009E5BFA2E4500375BFEFE0A2E55066
:1022E40009E5BFA2E5500375BFDFE0A2E65009E5AA
:1022F400BFA2E6500375BFBFD083D0828088C0E000
:10230400C0D0E8C0E0E9C0E0EAC0E0EBC0E0ECC067
:10231400E0EDC0E0C0F0E5A7A2E6500FE5A1A2E61B
:10232400500953A7BF75A1BF122367E5A7A2E550C3
:102334000CE5A1A2E5500653A7DF75A1DFE5A7A22E
:10234400E15009E5A1A2E1500375A1FDE5A7A2E2D0
:10235400500CE5A1A2E2500653A7FB75A1FBD0F0F7
:1023640002227874F812181A7521019005F4E064B9
:102374000670151210C38A828B83A3A3A3A3A3A3FD
:10238400E0FAA3E0FB121123A2AFE433FED2AF9034
:1023940005FAE0640170187A207B009005F3E0F9F7
:1023A40012053B7A207B009005F3E0F91204999022
:1023B4006182E0D2E6F0900793E0602185C6228036
:1023C400169005F9E064017008E5C654F84405F573
:1023D400C653BEFC1220F47401652160E4EEA2E051
:1023E40092AF7F010218C6008E238F248582288530
:1023F4008327851882851983E0CEA3E0CF852882C0
:10240400852783EBC9EAC8EDCBECCA75F010C3E8A5
:1024140033C8E933C9EA33CAEB33CBC3EA9EF526A2
:10242400EB9FF525B35004AB25AA26EC33CCED3352
:10243400CDD5F0DAAE23AF242274E912181A74F859
:10244400121757851882851983ECF0A3EDF08A08DA
:102454008B099005F4E024F7C39405500675080130
:102464000225D41210C38A0A8B0BAE0AAF0BEE4FAF
:1024740070030225D1AC08AD0974021217A2AA8216
:10248400AB831211538E828F83A3A3750CFF750D3A
:10249400FF750EFF750F00780C12160174021217E7
:1024A400A27510FF7511FF7512FF751300781012D5
:1024B4001601780C7910121426502A780C7910120F
:1024C40015C67508017509C8750A00750B007808EA
:1024D400790C1214265052850C08850D09850E0AB4
:1024E400850F0B80507514017515C8751600751786
:1024F4000085100885110985120A85130B7808795F
:102504000C1215C678147908121426401C7508009C
:10251400750900750A00750B01780879101215C643
:102524007808790C12158D800C75080175090075F1
:102534000A00750B007409780812156E750C19F5EC
:102544000DF50EF50F7808790C1214E58E828F8341
:10255400A3A3A3A3A3A3E0F8A3E0F97AD07B031277
:1025640016CC880C890DE4F50EF50F7808790C1259
:10257400158D74061217A2E0F8A3E0F97AD07B0354
:102584001216CCE8FA8A0CE4F50D7808790C1214CA
:102594002650077808790C1215C69005F4E06408F3
:1025A400600AE064066005E06405702D750C0D7822
:1025B4000C79081214264021750CF4750DFF750E64
:1025C400FF750FFF7808790C12158D800C750800C3
:1025D400750900750A00750B00851882851983E05A
:1025E400F8A3E0F583888278081216367408121767
:1025F4006D7F100218C674F712181A12116590072D
:1026040091E064017010906245E4F0A3F053F4F398
:1026140043FE0C5390F3121111E5C654804449F55E
:10262400C6E59E547F644970F8906185740FF090FC
:10263400078FE0F47002A3E0604E900790E060081A
:1026440014601B14602E8040750801750900900702
:102654008FE07808121744E508F45280802A750840
:102664000175090090078FE07808121744E508F413
:102674005290801475080175090090078FE078085E
:10268400121744E508F452A079007F020218C674B8
:10269400F712181AE9FEEAFF74016E700C7A807B57
:1026A400009005F3E0F91204939029C0E493F460D8
:1026B40008E493F9120F61800953C680E59E547FA4
:1026C40070FA121117900791E064017003120F79E8
:1026D40090078FE0F47002A3E0604B900790E060F5
:1026E4000814601A14602C803D7508017509009067
:1026F400078FE07808121744E5084280802875089F
:102704000175090090078FE07808121744E5084224
:1027140090801375080175090090078FE0780812FE
:102724001744E50842A01211651210C38A088B09E8
:10273400A808A909E8496015E5E170FCE82414F546
:1027440082E93400F583E0F46003E0F5E174016F9D
:10275400700A7A019005F3E0F912050502268E74D9
:10276400ED12181A8A088B098C0A8D0B7413121730
:10277400A2780C1216277808790C12142675100109
:102784007511C875120075130050127808790C126F
:1027940015C67810790812142650168010780C7912
:1027A400081215C67810790C121426400479018099
:1027B4000279007F0C0218C674ED12181A8A088B6D
:1027C400098C0A8D0B74131217A2780C1216277831
:1027D4000C790812142640117808790C1215C6AA2F
:1027E40008AB09AC0AAD0B80227510007511007599
:1027F40012007513017810790C1215C67810790837
:1028040012158DAA10AB11AC12AD1380A68A828B5F
:10281400837508FF7509FF750AFF750B00780812A8
:1028240016147F040218C674F512181A8C828D834C
:1028340078081216278A828B8378081215DAEA241C
:1028440004F8EB3400F98C828D83A3A3A3A3E0FCEA
:10285400A3E0FD88828983C3E09CF0A3E09DF08817
:10286400828983C3E09420A3E0944E40268A828B1D
:10287400837508FF7509FF750AFF750BFF78081249
:1028840015B38A828B83A3A3A3A3E02420F0A3E03F
:10289400344EF002281174F512181AE9FE90074913
:1028A400E0FAA3E0FBEEC333F8E433F9749228F5BD
:1028B40082748039F583E02AF508A3E03BF50978B2
:1028C400081219C17A407B427C0F7D001223EC74FC
:1028D4000212176D8A088B098C0A8D0B7410780804
:1028E400121555AA08AB097F040218C674F1121810
:1028F4001A8A0C8B0D8C0E8D0F740F1217A2E0FA2E
:10290400A3E0FB74111217A2E0F508A3E0F509781F
:10291400081219C1EA2401F508EB3400F509E4F5BD
:102924000AF50B780C79081214657508717509029B
:10293400780C7908121465AA0CAB0DAC0EAD0F120D
:1029440023EC740212176D8B09EA450960047A01BD
:1029540080027A00EC2AFCED3400FD74131217A2F5
:10296400E0F8A3E0F9E8FEE9FFECF8EDF97A717B11
:10297400021216CC880889098E828F837808121671
:1029840036ECF8EDF97A717B021216CC8A088B09C1
:10299400740578081217448E828F83A3A3A3A3E53A
:1029A40008F0A3E509F07F080218C6C082C083E9D5
:1029B400906000F0D083D08222020135FFFFFFFF38
:1029C400FFFFFFFFC082C083E9900C3BF0022BF2B3
:1029D40074F71217AEE9900533F07C6B7D057AFF2E
:1029E4007BFF120CAF90053474FFF0A3F0A3E4F066
:1029F400A3F07905120C3D900533E0F9120B5F7AD0
:102A0400C77B0C120E717F0102188074F41217AE8A
:102A14008A088B09EB54806030900533E0F9120486
:102A24007B8A0A8B0BAE0AAF0BEE4F60138E828F3C
:102A340083E064B07003120C4FEEFAEFFB120469EA
:102A4400AA08E5096480FB80047A007B00022BC19C
:102A540074F21217AE74FC121757EAFEEBFFEE4F36
:102A6400603874021217A2EEF0A3EF122E26ECF0D7
:102A7400A3ED122E26AA82AB83120B59E9F5087036
:102A84007374121217A21239DAE50A450B60658EC7
:102A9400828F83122B02EE4F700575080280557ADF
:102AA400067B001204ED8A0C8B0DA80CA90DE849D5
:102AB4007005750813803D88828983E4122B0CA36A
:102AC400A3EEF0A3EF123E73E50AF0A3E50BF0903A
:102AD4000539122B949005396017E0FCA3E08003BC
:102AE400EAFCEBFD8C828D83122B9470F38C828D27
:102AF400831238FFA908740412176D024075A3A34A
:102B0400A3A3E0FEA3E0FF22F0A3F088828983223E
:102B140074F21217AE890AE975F017A4FEAFF090AB
:102B24000538E4F0900536122B94600A1204F390F1
:102B34000536E4F0A3F0EEFAEFFB1204ED8A088BFD
:102B440009EA4509602FEEFCEFFD79001204579065
:102B54000536E508F0A3E509F07B008008122B7E1A
:102B6400E4F0A3F00BEBC3950A40F2E50A900538B4
:102B7400F0790080027913024075EB75F017A4F820
:102B8400A9F0900536E028FAA3E0398A82F5832279
:102B9400123695EA4B2274F41217AE7900EAA2E0D9
:102BA400501B7508EA75098078081219C17C047DE8
:102BB400007A3D7B0C120C37740212176D7F0402ED
:102BC4001880C082C083900539122BF9601C88825A
:102BD4008983A3A3E06A7003A3E06B88828983706E
:102BE400E8A3A3A3A312369180047A007B00D083C8
:102BF400D082020135124148E8492274EE1217AE20
:102C040074FC121757EAFEEBFF851882851983E4DA
:102C1400F0A3F0EE24021238E3EE2405122E14EE93
:102C24002404F50EEF1231F9E024FE603924FC602F
:102C34004624FE605224FE605E24FE7003022D19B9
:102C440024FE7003022D9124FE7003022DA024FEA5
:102C54007003022DAF24FC7003022DBE24FE70030A
:102C6400022DCD022E0A9005527417F0A3E4122E01
:102C74002E1208D7022E0A851882851983AC82ADDC
:102C840083120C55022DDA851882851983AC82AD26
:102C940083120C5B022DDA850C08850D097402126F
:102CA40017A2AC82AD8385088285098312369112FE
:102CB4000B7D8A0C8B0DAC0CAD0DEC4D6042E4F534
:102CC4000CF50D780C1219C1750C52750D05780CA4
:102CD4001219C1750C53750D05780C1219C17408BD
:102CE4001217A21219D8791612368B120C9774087F
:102CF40012176DE9F50C700B1236871208EF800F6E
:102D0400750C01850882850983122E1C1238FF85F3
:102D14000C08022DDD74021217A2AC82AD83850C5F
:102D240082850D83123691120B7D8A108B11AC10A3
:102D3400AD11EC4D6043850C82850D83A3A312195C
:102D4400D875105275110578101219C17510537584
:102D5400110578101219C174081217A21219D87922
:102D64001612368B120C97740812176DE9F5097058
:102D74000B1236871208F5800F750901850C8285C0
:102D84000D83122E1C1238FF850908804C85188289
:102D9400851983AC82AD83120C61803A85188285D3
:102DA4001983AC82AD83120C67802B851882851938
:102DB40083AC82AD83120C6D801C851882851983C7
:102DC400AC82AD83120C73800D851882851983AC97
:102DD40082AD83120C79E9F508E50860298E828FAB
:102DE40083A3E06414601F850E82850F83E0900541
:102DF40052122E261241449005531238FFE508A3BF
:102E0400122E2E1208D1EEFAEFFB120BFB0237EB57
:102E1400F50CEF3400F50D2212414885188285190E
:102E24008322F085188285198322F07C527D0585E2
:102E34000A82850B831236952274EE1217AE74FC47
:102E44001217578A0A8B0B8C0E8D0FEA2405F5088E
:102E5400EB3400F5097C157D0079007A527B05126C
:102E64000457E5082402F50CE509122E178518828B
:102E740085198385821085831178101219C18508FC
:102E840082850983A3A3A3A31233411219C1E508C0
:102E94002405F510E5093400F51178101219C185DF
:102EA4000C82850D8312369B120B77740612176DF4
:102EB4008A108B11AE10AF11E50A2402F50AE50B56
:102EC4001238E6EE4F7003023003801774021217B3
:102ED400A212369188828983EAF0A3EBF09005521E
:102EE400E004F0900552E0C394054003023003E48B
:102EF400F510F51178101219C175103B751105788C
:102F0400101219C175103C75110578101219C1748D
:102F1400061217A21219D87910EEFCEFFD12368BA7
:102F2400120C97740812176DE9705E850882850982
:102F340083A3A3A3A3A3A3A3E0F890053BE0687035
:102F4400481233411219C17C3C7D05E5082408FA76
:102F5400E5093400FB120451740212176DE960296B
:102F64008E828F83A3A3A3A3123691900552E0F51A
:102F7400107402781012174474532510F5827405E6
:102F84003511F583EAF0A3EBF074021217A28582DF
:102F94001085831178101219C174021217A2121924
:102FA400D8850C82850D83124159120B8374041247
:102FB400176D8A108B11AE10AF11900552E0F51009
:102FC4007511007402781012174474522510F874A5
:102FD400053511F988828983A3122B947003022E7C
:102FE400C7E82403F8E93400F9EE4F6003022ED059
:102FF4008882898374FFF0A3F0900552E004F09076
:103004000552E0600A1236871208E37900800B85C6
:1030140008828509831238F6790A0237EB74EA12BA
:1030240017AE74FE1217578C128D13EA2405F50C93
:10303400EB124163122B06750800750900EA24029D
:10304400F510EB3400F51185188285198385820A01
:1030540085830B780A1219C1850C82850D83A3A37D
:10306400A3A31232031219C1E50C2405F50AE50DD8
:103074001238E6780A1219C1850C82850D83124133
:1030840057120B77740612176D8A0A8B0BEA450BDD
:1030940070030231B4EA2404F50EEB1231F9122B59
:1030A400068A828B83A3A3A3E0F98510828511830A
:1030B400123691120B65E9F50960030231B4E4F5A7
:1030C40014F51578141219C175143B751505781487
:1030D4001219C175143C75150578141219C17406BA
:1030E4001217A21219D87913AC0AAD0B8510828578
:1030F4001183123691120C97740812176DE9F509B1
:1031040060030231B490053BE0F8E5087009E0245F
:1031140002900553F08017900553E0FCE82402FA6E
:10312400E43400FBEA6C7001EB60030231B88508FB
:1031340082AA8212333894141233305073850E826B
:10314400850F83E0C0E074542A1231F0D0E0F0051A
:1031540008850E82850F83A3E0C0E085080A7454B5
:10316400250A1231F0D0E0F0050890053B12320335
:103174001219C17C3C7D0585080A7454250AFA7429
:10318400053400FB12043F740212176D90053BE0F6
:103194002508F50874FF6E700374FF6F6012EE2447
:1031A400010EEF3400FFE508C39414500302304BC2
:1031B400E508601312357C851082851183123691DF
:1031C4001208E979008014E509700375090A85126B
:1031D40082851383EEF0A3EFF0A909740212176D30
:1031E4007F0E02188085080C7454250CF582740532
:1031F4003400F583223400F50F850E82F583221204
:103204003E862274EE1217AE74FE1217578C0E8D82
:103214000FEA2405F50CEB122E17750B00900552DE
:10322400E4F0F50AEA2402F508EB3400F5098049D4
:10323400900552E0FA90053BE0F8123338941712E7
:103244003330400D900552E0F87416C39890053B56
:10325400F01233411219C17C3C7D0574532AFA746F
:10326400053400FB12043F740212176D90053BE015
:10327400F8900552E028F0050AE50C2416F582E5DD
:103284000D1231F4E0F8E50AC398400302331990B3
:103294000552E0C39416507DE50AC333F8E433F9CC
:1032A400E50C28FEE50D39FF851882851983AC826B
:1032B400AD838E828F83123691120B7D8A108B110F
:1032C400AC10AD11EC4D7005750B018043E4F510A5
:1032D400F51178101219C175103B7511057810128B
:1032E40019C175103C75110578101219C1740612B4
:1032F40017A21219D8791685088285098312369186
:10330400120C97740812176DE9F50B70030232342E
:103314001238F280107C527D05850882850983125B
:1033240036911208FBA90B74020237EDE99400C32D
:1033340065D03322EA28F8E43400F9E822E0F510F5
:1033440075110078102274EA1217AE74FC12175724
:103354008A0C8B0D8C128D13EA2405F50AEB1238B6
:10336400E6750800750900E50A2402F510E50B343A
:1033740000F51174021217A285820E85830F780E50
:103384001219C1850A82850B83A3A3A3A3123E321B
:103394001219C1E50A2405F50EE50B3400F50F7882
:1033A4000E1219C18510828511831238EC12368BE6
:1033B400120B77740612176D8A0E8B0FAE0EAF0FB9
:1033C400E50C2402F50EE50D3400F50F80408882EB
:1033D400898374FFF005081231E974FFF005089041
:1033E400053BE0F50C750D00780C1219C17C3C7D91
:1033F4000585080C7454250CFA74053400FB12047A
:103404003F740212176D90053BE02508F508EE4F56
:1034140060718E828F83A3A3A3E0F9850E82850F4A
:1034240083123691120B65E9F509EE2404122E1469
:10343400E97044E4F514F51578141219C175143BB8
:1034440075150578141219C175143C751505781491
:103454001219C174081217A21219D87911EEFCEFCF
:10346400FD850E82850F83123691120C9774081213
:10347400176DE9F5096027850C82850D8312357275
:103484001238FFE508700302355812357C850E8228
:10349400850F83123691120901790002356D850872
:1034A40082AA82EA90053B7009E02404900553F057
:1034B4008022E0F8900553E0F514E82404FCE43499
:1034C40000FDEC65147001ED70C0123338941212D3
:1034D400333050B6850C82850D83E0C0E074542AE5
:1034E4001231F0D0E0F00508850C82850D83A3E04D
:1034F400C0E01231E9D0E012358E85820C85830D4F
:10350400780C1219C174041217A21219D8851082EA
:10351400851183124159120B83740412176D8A0C9E
:103524008B0DAE0CAF0D85080C7454250CF8740586
:103534003400F9EE4F70030233D285188285198363
:10354400E08882898312358EA3E0C0E01231E9D08D
:10355400E00233E0E509700375090A850A82850BE8
:10356400831235721238FFA90974040231E1124141
:103574004885128285138322900553E0F5F0E5080F
:1035840084900552F07C527D0522F005088518824E
:103594008519832274EC1217AE74FE1217578A0829
:1035A4008B098C0E8D0FEA2405FEEB3400FF851881
:1035B40082851983AC82AD838E828F8312369112F9
:1035C4000B7D8A0A8B0BEE2418122E14EA450B701D
:1035D400030236621237D450328518828519831259
:1035E4003691120C8B8A108B11EA4511606B79129B
:1035F400AC0AAD0B85088285098312369185108249
:103604008511831217ACE9F50A7058E4F50AF50B35
:10361400780A1219C18E828F83A3A3E0F50A780A6F
:103624001219C1EE24031238E3780A1219C18E82EA
:103634008F8312369B120C9D740612176DE9F50ADE
:103644007021850C82850D83E0701F8508828509B1
:10365400831236911209078011750A0E8009750AC2
:10366400018004E50A60031238F2850C82850D831B
:10367400E0600479008002A90A740212176D7F0CBD
:103684000218807C527D05850A82850B831236954B
:1036940022E0FAA3E0FB22E0FCA3E0FD850882859A
:1036A40009831236952274EE1217AE74FE12175760
:1036B4008A088B098C0C8D0DEA2405FEEB3400FF7F
:1036C400750E00851882851983AC82AD838E828F36
:1036D40083123691120B7D8A0A8B0BEA450B700319
:1036E4000237C01237D450358518828519831236B3
:1036F40091120C8B8A0E8B0FEA450F605E7912AC27
:103704000AAD0B850882850983123691850E828560
:103714000F831217ACE9F50E60030237C3850882E4
:103724008509831239DAAA0AFB120C7F8A108B11DD
:10373400A810A911E849701E7AFF7BFF120C7F8A3A
:10374400108B11A810A911E849606C88828983E55F
:103754000AF0A3E50BF0750A008007750E0E805F72
:10376400050A900538E0FAE50AC39A504AE50A7555
:10377400F017A4FAABF088828983A3A3E02AFAA302
:10378400E03BFB8A828B831238ECEC4D70D2750AD5
:1037940017750B00780A1219C1EEFCEFFD12043FF5
:1037A400740212176DEEFCEFFD8508828509831201
:1037B400369112090D8014750E098003750E0112DD
:1037C4004140850C82850D831238FFA90E02332BEC
:1037D400E5082402F508E5093400F5098A828B839B
:1037E400A3A3A3E0A2E522740412176D7F0A0218B2
:1037F4008074EC1217AE8C108D11EA2405F50CEBD5
:10380400122E17750F00EA2402F50AEB1238E6852A
:103814000A82F583123691120C7F8A088B09EA45D5
:103824000970030238D8750E008071850C82850DED
:1038340083E06401704F8E828F83A3A31219D88E04
:10384400828F83A3A3A3A3E0F51275130078121249
:1038540019C1EE2405F512EF3400F513781212198C
:10386400C112368B120C9D740612176DE9F50F60A8
:1038740014850C82850D83E4F01241408510828505
:1038840011831238FF7C177D007900EEFAEFFB12EA
:1038940004578E828F83E4F0A3F0050E900538E080
:1038A400F8E50EC398501EE50E75F017A4F8A9F0BC
:1038B400850882850983A3A312416D1238ECEC4D6F
:1038C400600302382F85088285098374FFF0A3F012
:1038D400E50F700612368B120913A90F023682F512
:1038E4000AEF3400F50B22A3E0FCA3E0FD228E8254
:1038F4008F83124148850E82850F83E8F0A3E9F097
:1039040022C082C083900534E06A7003A3E06B7028
:10391400067A347B0580047A007B00022BF2C08295
:10392400C08378008C828D83E06A7003A3E06B709F
:1039340010E875F003A4F8A9F0EC28FAED39FB803F
:1039440015088C828D83A3A3A3E06A7003A3E06BA4
:1039540060DF7A007B00022BF274F61217AE120CB1
:10396400498A828B83E582458370067A007B0080D6
:1039740007A3A3A3A3123691023FF174F21217AE68
:10398400E9FE740E1217A21239DA74101217A21279
:103994003E528C828D83E064027036A312414EF550
:1039A4000CA3E0F9A80C74026870037429697021EF
:1039B400750C02750D00780C1219C178081219C122
:1039C400780A1219C1EEF9120CC1740612176D802F
:1039D400027901024075E0F50AA3E0F50B2274E8D0
:1039E4001217AE74FB121757E9851882851983F0F4
:1039F4008A168B17ECFEEDFF751000741D1217A2CA
:103A0400124144741D1217A21238FF8E828F83A3B1
:103A1400A3A3E0A2E4502D741D1217A21236911232
:103A24000C8B8A828B83E58245837003023E237963
:103A34000AEEFCEFFDAA16AB171217ACE9F51060FD
:103A440003023E26741F1217A2123E52742112174B
:103A5400A21239DA74231217A2E0F50EA3E0F50FCF
:103A64008E828F83E064026003023DD1A31241443D
:103A7400850882850983A3858212858313EE240633
:103A8400122E1488828983E0FAA3E0F9EA2400F56F
:103A940014E439F5157814121A4B01000028012892
:103AA400C63A070002288B3B0328F83A0029C23C97
:103AB4000129ED3C02298E3C0329C23C04296C3DBA
:103AC400D13DE50E450F6003023DCC850C82850D8A
:103AD40083123E47FAE9FB8A828B83E0850A82855A
:103AE4000B83123E7D1219C18A828B83A3E0FCA34F
:103AF400E0023D56E50E450F6003023DCC850A8287
:103B0400850B837401F0123E5A850882850983F07F
:103B14007C007D008E828F83A3A3A3A3E02401FAFB
:103B2400A3E03400FB120B7DEA4B60418A828B8355
:103B3400E02402F8850A82850B83E028F0EA240455
:103B4400F8EB3400F988828983E085128285138337
:103B5400123E8F123E7D1219C18A828B831238EB7A
:103B6400E5082403FAE5093400FB023D5B850A827B
:103B7400850B83E02404F07C047D007900AA12AB59
:103B840013120457023E26E50E450F6003023DCC96
:103B9400123E5AFEA3E0FF850A82850B837404F06B
:103BA400EE850882850983F0EF851282851383F000
:103BB40074031217A2AC82AD83EEFAEFFB120B7DF5
:103BC4008A0C8B0DEA450D7003023C6F8A828B834D
:103BD400A3A3122B0274011217A285820E85830FF0
:103BE400780E1219C174051217A21219D87CFF7D20
:103BF400FF120B83740412176D8B0FEA450F703399
:103C0400850C82850D83123E321219C1850C828582
:103C14000D83A31219D87C027D007A887B81120956
:103C2400AF740412176DE9700A74011217A274FFBD
:103C3400F0A3F08E828F83E064027039750C0275F4
:103C44000D00780C1219C18E828F831238EBE508AF
:103C54002404FAE5093400FB12043F740212176DC0
:103C6400850A82850B83E02402800974011217A25D
:103C7400EEF0A3EFF074011217A2123E43F07401A8
:103C84001217A2A3123E3B023DC6E50E450F600388
:103C9400023DCC850C82850D831238ECAA16AB1735
:103CA400120CB5850A82850B837402F0EA850882BA
:103CB400850983F0851282851383EB023DC9E50EE5
:103CC400450F6003023DCC123E5AF8A3E0F9850A81
:103CD40082850B837402F0E8850882850983F0E904
:103CE400851282851383023DC9850C82850D83125A
:103CF4003691120439EAFC8C82A882C3950EE495AD
:103D04000F405FE8650E7002E50F70047C008022AE
:103D1400851882851983E0FAE50E2AFAE50F340046
:103D2400FBC3EA98EB94005003E08005E50ECCC396
:103D34009CFCEC850A82850B83F08C0A750B007859
:103D44000A1219C1850C82850D83E0250EFCA3E0BF
:103D5400350FFDAA08AB0912043F740212176D0255
:103D64003E26751007023E26E50E450F705A850C57
:103D740082850D83124144850A82850B8374071260
:103D84002B0E123E3B122B0EA3E085128285138369
:103D9400F0E82402FAE93400FB8A828B83123E3B6A
:103DA400123E6A123E43A3123E73123E4CF0E824C4
:103DB40005F8E93400F988828983123E4CA3123E47
:103DC4008FA3A3A3A3F0805A75100B8055741D1202
:103DD40017A2123691120C498A828B83E58245839D
:103DE400603D124144880C890DE8450D6031780E20
:103DF4001219C1780A1219C178081219C17406126D
:103E040017A2E0F9EEFCEFFDAA16AB17850C82852C
:103E14000D831217AC740612176DE9F51080037543
:103E2400100EA910740512176D7F10021880E0F5AA
:103E34000E750F00780E22E0850882850983221210
:103E44003E9922124148E822123E99A3A322E0F5AA
:103E540008A3E0F50922850C82850D83E0F8A3E030
:103E6400F5838882E022A3A3F08A828B83A322F0C5
:103E740088828983A3A3A3A322F08A828B83123E20
:103E84008622E0F50A750B00780A22F0888289837D
:103E9400A3123E9922E0850882850983A3A3227494
:103EA400EE1217AE74FE1217578A0A8B0BECFAED5A
:103EB400FB74141217A2E0F510A3E0F511741612A6
:103EC40017A2E0FE74181217A2E0F50EA3E0F50F96
:103ED400851882851983AC82AD83120B7D8A0C8B85
:103EE4000DEA450D604985188285198312369112B1
:103EF4000C498A828B83E5824583602FA3A3123EFB
:103F040052E50845096024780E1219C17810121977
:103F1400C1EEF9AC0CAD0DAA0AAB0B85088285097C
:103F2400831217AC740412176D8006790E8002791F
:103F34000102332B74F61217AE74FE121757740C69
:103F44001217A2123E47851882851983F074011254
:103F540017A2E9F0E4F508F50978081219C1750803
:103F64000278081219C174041217A2858208858385
:103F74000978081219C1120C9D740612176D740287
:103F840012176D806874F71217AEEAFEEBFF89080A
:103F94007C6B7D05120CB5EA5402600BA908EEFA9D
:103FA400EFFB120B7180027901022A0A74F61217D0
:103FB400AE74FF6A700374FF6B70168C828D83126B
:103FC4003FF6E4F08C828D83A3A3A3123FF6A38073
:103FD40018120C858A088B09A808A909E849600DFC
:103FE4008882898374FF122B0CA3A3E4F07F02025E
:103FF400188074FFF0A3F08C828D83A3A32274F63F
:104004001217AE120C858A828B83E5824583600683
:10401400A3A3E0FA80027A007B0080D174F2121725
:10402400AE8A088B09ECFEEDFF740E1217A2E0F5C0
:104034000A120C858A0C8B0DA80CA90DE849702670
:10404400EEFCEFFD7AFF7BFF120C858A0C8B0DA82A
:104054000CA90DE84970047911801688828983E5DA
:1040640008F0A3E509F088828983A3A3E50AF0791F
:10407400007F0602188074EE1217AEEAFEEBFF8C86
:10408400088D09890C74141217A212414474161273
:1040940017A2123691750D00E84960030241387485
:1040A40002650C600302413374121217A212414ECE
:1040B400FCA3E0F9EC2400F50EE439F50FEAF4F87A
:1040C400EBF4F9EC58F8E50F59F9E849705CE508A8
:1040D4002406F8ED3400F9880A890B8882F58312E6
:1040E4004159120CB58A108B11E50E65107004E568
:1040F4000F65116042780E1219C1850A82850B83FF
:10410400124159120CBB740212176DE9F50D702798
:10411400780E1219C1850882850983A3A312415719
:10412400120CCD740212176D800D750D8080087508
:104134000D0D8003750D0BA90D0237F08E828F8350
:1041440012414822E0F8A3E0F9221241488882890A
:1041540083E022A3A3E0FCA3E0FDEEFAEFFB22340C
:1041640000F50D850C82F58322E028FEA3E039FFDB
:104174008E828F832274F21217AEEAFEEBFF890B54
:104184007401650B600E7402650B706A7901120E7E
:104194008FE97062EEFAEFFB120C7F8A088B09EA52
:1041A40045096047750A00800B7C177D0079001271
:1041B4000457050A900538E0F8E50AC3985021E54C
:1041C4000A75F017A4F8A9F0850882850983A3A3CA
:1041D400E028FAA3E039FB8A828B83122BF970C999
:1041E40085088285098374FFF0A3F07C6B7D05EE5E
:1041F400FAEFFB120CAF02407574F21217AE8A0884
:104204008B09ECFEEDFF740E1217A21239DA900C32
:104214003BE0F4603D7A097B00120463EA4B6032B0
:104224008A828B8374B1F0A3E4123E6CA3123E6ABB
:10423400A3E508F0A3E509124259EEF0A3EF1242F8
:1042440059A3A3E50AF0A3E50BF0900C3BE0F912A7
:10425400046F024075F08A828B83A3A3A3A3A322D5
:1042640074F61217AE74C4121757E9900493F0123F
:10427400087D908081C082742B1217A2AC82AD831A
:10428400758380D082741112166A74211217A2AA3F
:1042940082AB83120ECB74231217A212465A121742
:1042A400A212464DC0E0740D1217A2D0E012466867
:1042B4001217A212464DC0E0740E1217A2D0E0F0FD
:1042C40074221217A212465A1217A212464DC0E0C7
:1042D400740F1217A2D0E01246681217A212464DAC
:1042E400C0E074101217A2D0E0F074211217A2E0FB
:1042F4001246611217A212464DC0E074111217A2A1
:10430400D0E0F074211217A2E01246621217A21232
:10431400464DC0E074121217A2D0E0F0750806757D
:10432400090078081219C1740F1217A2AC82AD8368
:104334007A447B0B12043F740212176D7808121929
:10434400C1740F1217A2AC82AD837A667B0B120480
:104354003F740212176D7C067D007A1F7B001209E0
:10436400BB740C1217A27401F0741F1217A2E4F0AC
:10437400A3F0740B1217A27401F0741D1217A27427
:1043840020F0A37403F0741B1217A274B0F0A3748A
:1043940004F074191217A274041253377417121705
:1043A400A27488F0A37413F0740C1217A2AC82AD3B
:1043B4008379017A057B03120805741F1217A2ACD6
:1043C40082AD8379027A067B031208057C387D0B63
:1043D400791B7A087B031208057C537D0B79097AD3
:1043E400077B03120805740B1217A2AC82AD837904
:1043F400017A107B03120805741D1217A2AC82AD5A
:104404008379027A117B03120805741B1217A2AC7C
:1044140082AD8379027A127B03120805741912178C
:10442400A2AC82AD8379027A137B03120805741758
:104434001217A2AC82AD8379027A147B03120805A9
:104444007C5C7D0B7A157900120B357C407D1F7ADC
:10445400067B001209BB7C407D1F7A077B00120992
:10446400BB7C407D1F7A087B001209BB7C407D1F0A
:104474007A097B001209BB74271217A2124B6674C7
:104484000A1217A27401F074091217A27401F074CD
:10449400081217A2E4F074071217A27401F074272B
:1044A4001217A2AC82AD8379047A087B041205B397
:1044B400740A1217A2AC82AD8379017A007B0412CC
:1044C40005B374091217A2AC82AD8379017A027B19
:1044D400041205B374081217A2AC82AD8379017A71
:1044E400037B041205B374071217A2AC82AD83795F
:1044F400017A067B041205B3908152121645120B01
:104504003B908152121645120C439081521216456B
:1045140012073F12057174151217A2740312533750
:1045240074131217A2746712533774151217A2ACBE
:1045340082AD837A02790412074B74131217A2AC6A
:1045440082AD837A02790012074B74061217A274A3
:104554000AF0AC82AD837A01790112057D9004934F
:10456400E0F912055F75FDF675F30175FEFB75F450
:104574000075FFFF75F5001208651208BF1208B92F
:104584007A7A7B0B1207457A597B08120577120554
:10459400A17AA67B041208CB1208C57901120D3941
:1045A4007A107B00900493E0F91204937A81795095
:1045B4001206BB90816AC082851882851983AC82F9
:1045C400AD83758381D082740212166A8518828540
:1045D4001983AA82AB8379021206C774021217A246
:1045E400AA82AB8379041206C174021217A2E0F402
:1045F400700974031217A2E0F4602674031217A260
:10460400E0F974021217A2E09004961251C77405DF
:104614001217A2E0F974041217A2E0900498125140
:10462400C7120877851882851983EAF0A3EB124C28
:10463400317A02790412074B7A017B00900493E0EB
:10464400F9120493743C0251F0E58228F582E58363
:104654003400F583E022E0F50812466122C4540FC9
:10466400F8742B22F0E5081246622274F41217AE95
:1046740074F7121757EAFEEBFF54806023900493FB
:10468400E0F912047B8A088B09EA4509600A1208DA
:104694004DAA08AB09120469EEFAEF64800249B826
:1046A400EEA2E050407A767B0B1208117ACF7B049D
:1046B4001205D18518828519837401F0AC82AD830B
:1046C400F97A057B0312080590813E1219D47A0207
:1046D4007B00900493E0F912052F740412176DEE19
:1046E4006401024947541060557A81791D1206BB52
:1046F40074011217A2E4124FCF1206D985188285CD
:104704001983AA82AB8379011206DF851882851981
:1047140083E0543FF06004F91208899004CEE070FD
:1047240017900B721219D47A107B00900493E0F95D
:1047340012052F740412176DEE6410024947EE54EB
:10474400086028900494E06405701A12058390812F
:104754001A1219D47A087B00900493E0F912052FF9
:10476400740412176DEE6408024947EE5402601D8A
:1047740090813E1219D47A027B00900493E0F912DE
:10478400052F740412176DEE6402024947EE54803B
:1047940070030248319004C4E064036003024826B5
:1047A4009004C57401F01204C98A088B098C0A8D1F
:1047B4000B78081219BD74061217A2AA82AB8312D1
:1047C40004CF740412176D74041217A2E0F508C321
:1047D400940C400674F42508F5087A00A908120818
:1047E4006B75F00574031217A2E084900B71F065E9
:1047F400087009E070047401800114F012087190CB
:1048040081161219D47A007B02900493E0F9120500
:104814002F740412176D7A007B04900493E0F9124C
:10482400053B9004C4E4F0EE6480024947EF540170
:10483400600B120871EEFAEF64010249B8EF5402FA
:1048440060277A007B01900493E0F912053B12087B
:10485400659004C6E4F0900B71740DF09004C5E407
:10486400F0EEFAEF64020249B89004C8E014F508C7
:10487400EE54206061E0C3940750167A00E0F91208
:10488400086B7A009004C8E0F8740CC398F9120815
:104894006B7A01A90812086B7A019004C8E0F874D5
:1048A4000DC398F912086B9004C8E004F0C394088F
:1048B40050199081121219D47A207B00900493E04D
:1048C400F912052F740412176D8006E4F09004C5E4
:1048D400F0EE6420806DEF5408605DE0C3940C50EA
:1048E4000D7A00E0F912086B7A01A9088016E064D9
:1048F4000C700D7A00790012086B7A01790B800430
:104904007A01790012086B9004C8E004F0C3940E95
:10491400501990814E1219D47A007B08900493E0C8
:10492400F912052F740412176D8006E4F09004C583
:10493400F0EEFAEF6408807CEE5440600A120865D9
:10494400EE6440FAEF806DEF540460239004C7E0F6
:1049540060169004C57401F0F912088F7A207B0068
:10496400900493E0F9120493EEFAEF64048045EFA7
:10497400541060137A007B08900493E0F9120493B6
:10498400EEFAEF6410802DEF5420602B12089590FE
:1049940004C9E0C39403501790811E1219D47A00FD
:1049A4007B20900493E0F912052F740412176DEE26
:1049B400FAEF6420FB80047A007B00740912176DFF
:1049C4007F0402188074F71217AE74FC1217578A0A
:1049D400828B83E064C06003024B16A3A3A3E0FEB2
:1049E4007A81794A1206BB74031217A2E4124FCFDC
:1049F4001206D974021217A2AA82AB837901120695
:104A0400DF74021217A2E0A2E0E4339004C7F0EED0
:104A1400A2E0507A9004C5E06003024B169004C7EC
:104A2400E0A2E0501990810E1219D47A007B049010
:104A34000493E0F912052F740412176D800C7A00A8
:104A44007B04900493E0F912053B9004C7E06021D5
:104A54009004C4E070057402F0801C6402600302D8
:104A64004B197403F07A807B00900493E0F91205EB
:104A74003B9004C4E0601790815A1219D47A807B69
:104A840000900493E0F912052F740412176DEEA23E
:104A9400E1507F7A81791D1206BB851882851983BE
:104AA400742AF074011217A2E412533E1206C78549
:104AB40018828519837416124FCF1206D974011205
:104AC40017A2AA82AB8379011206DF8518828519A1
:104AD40083742DF074011217A2E412533E1206C718
:104AE400851882851983742AF074011217A212534F
:104AF4003C1206C7124B639004CEF0900B7212194D
:104B0400D47A107B00900493E0F912052F740412F8
:104B1400176D024C39E064036003024A7B9004C5BC
:104B24007401F0790312088F9081061219D47A0067
:104B34007B10900493E0F912052F740412176D7A18
:104B4400807B00900493E0F912053B7A007B04908B
:104B54000493E0F912053B9004C4E4F0024A9290F5
:104B640004CAE4F0A3F0A3F0A3F02274F71217AE82
:104B740074F2121757E9FE146010147003024C0FFC
:104B840024FD7003024C1A024C2874081217A2ACBC
:104B940082AD837A047B0312080B74081217A212E5
:104BA400570A74091217A2E0C0E074011217A2D0C8
:104BB400E0F0740A1217A2E0C0E074021217A2D047
:104BC400E0F074041217A2E4F074031217A2E4F0E4
:104BD400740D1217A2E0C0E074071217A2D0E0F01F
:104BE400740C1217A2E0C0E074061217A2D0E0F011
:104BF400740B1217A2E0C0E074051217A2D0E012E1
:104C04004C317A0879001205A780197A00790012CC
:104C1400066D7A0080097A01790012066D7A0179AD
:104C240000120667EE900494F0740E800A1252FA91
:104C3400AC82AD8322740412176D7F010218807454
:104C4400F71217AEE9FE74016E7021900494E064CB
:104C540005702A90811A1219D47A087B0090049363
:104C6400E0F912052F740412176D801174026E702E
:104C74000C7A087B00900493E0F912053B80BB7426
:104C8400F41217AE74F1121757E914600914606531
:104C9400146057024D33851882851983AA82AB8329
:104CA4007901120751851882851983E06416700210
:104CB400A3E0707B12087774021217A2EAF0A3EB48
:104CC400F074021217A2AC82AD837A02790412073F
:104CD4004B9004C9E4F090811E1219D47A007B2011
:104CE400900493E0F912052F80407A957B047903B0
:104CF400120751803A74041217A2AA82AB83790274
:104D040012075174041217A21216451204C3120496
:104D1400C98A088B098C0A8D0B78081219BD740C8A
:104D24001217A2AA82AB831204CF740412176D74F3
:104D34000F0249C1C082C083D290D291D296D29739
:104D4400D2A0D2A1D281D282D284D285D286D28775
:104D5400900491E4F0A3F0C293C280C294C295027D
:104D64005A3B74F21217AE750801750900E9780808
:104D7400121744AE08AF09046A7011EEF4FCEFF4A4
:104D8400FD900491E05CF0A3E05D8009900491E063
:104D94004EF0A3E04FF0900491E0FCA3E0FDEC4D55
:104DA4007004C2938002D293E9607014602014608E
:104DB4002414602814602C14603014603414603897
:104DC40014603C1460401460441460488052EAA2A9
:104DD400E09291804BEAA2E092968044EAA2E092AB
:104DE40097803DEAA2E092A08036EAA2E092A180F8
:104DF4002FEAA2E092818028EAA2E092828021EA4E
:104E0400A2E09284801AEAA2E092858013EAA2E0EA
:104E14009286800CEAA2E092878005EAA2E0929052
:104E24007F06021880C082C0839004C6E0700474B8
:104E3400018001E4F0E0FA900B71E0F912086B9044
:104E4400815A1219D47A007B01900493E0F9120577
:104E54002F025A3674F61217AE9004961255B07596
:104E64008304758298E0C398F508A3E099F5097561
:104E74008304758298C3E098A3E099500CE5082454
:104E8400A0F508E509340FF50974037808121735FD
:104E9400E5082403FAE5093400FB0251F3C082C09B
:104EA4008374FE1217577A81791D1206BB85188206
:104EB400851983742BF074011217A2744012533EA7
:104EC4001206C7851882851983742B124FCF1206D8
:104ED400D974011217A2AA82AB8379011206DF7476
:104EE400011217A2E0A2E640DA85188285198374BC
:104EF4000EF074011217A27402125794F91206C725
:104F04008518828519837409F074011217A27440FC
:104F140012533E1206C78518828519837415F074DE
:104F2400011217A274FF12533E1206C78518828518
:104F340019837417F074011217A2741112533E12DC
:104F440006C78518828519837418F074011217A294
:104F5400740312533E1206C7851882851983742C74
:104F6400F074011217A2740812533E1206C7851872
:104F740082851983742DF074011217A274041253DC
:104F84003E1206C7851882851983742EF0740112A7
:104F940017A2740412533E1206C78518828519831A
:104FA400742BF074011217A2741F12533E1206C719
:104FB400851882851983742AF074011217A212537A
:104FC4003C1206C77402025A387444F0AA82AB83B6
:104FD40079012274F61217AE90047F1251921217BF
:104FE4002590047FE508F0A3E509F09004811251AF
:104FF40092121725900481E508F0A3E509F09004C6
:1050040083125192121725900483E508F0A3E50951
:10501400F090047FE0FAA3E0FB90047FE0F508F54C
:10502400F0A4CAA8F08BF0A428F88508F0EBA42813
:10503400FB9004811255B090048112519EFAEB3911
:10504400FB9004831255B090048312519EF8EB39FF
:10505400F9E82400E934F0F990048F1251C6900B5A
:1050640034E064017002A3E0600302512F90048FC6
:10507400C3E09401A31251895003025164900B368A
:105084001255B0E849600302511A90048D1251CCB4
:10509400E064017002A3E0700790048BE4025124E1
:1050A40090048DE064027002A3E07078900B2E12DD
:1050B40055B075830475828B1251B6404890048BA9
:1050C4001255B075830B7582301251B640371255A4
:1050D400AD758304758287E0C398FAA3E099FB90C9
:1050E4000B321255B0C3EA98EB1251BF401790042B
:1050F400851251CCE4F0A3F0790212088F124B63AD
:10510400125317801E90048BE41251D6F090048D34
:1051140004F0A3E4800D900B36E4F0A3F090048B2C
:105124001251D6F0900B3474028030900B34E0644A
:10513400027002A3E07045C390049012518940109C
:105144007583047582871251B65031900487802785
:105154009004891251C6900B347401F0A3E4801BAF
:105164001255AD75830475828F1251B6500E90049A
:105174008F1255B0900489E8F0A3E9F090048B12E3
:1051840055A4F0806AE09400A2D265D03322E0F501
:1051940008A3E0F5097406780822E0F508F5F0A400
:1051A400C8ACF089F0A42CFC8508F0E9A42CF9EA39
:1051B4002822C3E098A3E01251BF2299A2D265D05D
:1051C4003322E8F0A3E9F022E0240112559D900473
:1051D4008D22F0A3F090048FE0F8A3E0F990048707
:1051E400E8F0A3E9F0900489E4F0A32212176D7F9C
:1051F4000202188074F01217AE743D121757890812
:105204007A81791D1206BB908102780C12162790C0
:1052140004CA780C1215B39080FE780C12162790ED
:1052240004CA780C1214364045125317F09004CE79
:1052340074011252FA742AF074011217A2E4125380
:105244003E1206C7851882851983742DF0740112E5
:1052540017A2740412533E1206C785188285198357
:10526400742AF074011217A212533C1206C7740276
:105274001217A27401F0AA82AB83F91206D974033F
:105284001217A2AA82AB8375F006E508A4F91206E8
:10529400DF7E007F00804174031217A2E5822EF89E
:1052A400E5833FF988828983E0FBA3E090047F12C1
:1052B400530C125302E090048112530CA3A3125313
:1052C40002A3A3E0F8EBF99004831251C6120883F9
:1052D400EE2406FEEF3400FFE50875F006A4F8AAF4
:1052E400F0E42AF9EE98EF1251BF40AB74C31217E1
:1052F4006D7F08021880F085188285198322E0FBEF
:1053040088828983A3A3A322F0A3EBF088828983F4
:10531400A3A322900B7274C4F0A37409125337A38D
:10532400F0900B3274A0F0A3740F228514828515BB
:10533400837401F0A3E4F02274691257987902226D
:1053440074E91217AE74ED121757891674FF2516F7
:10535400FE1204C98A088B098C0A8D0B780812196D
:10536400BD74041217A2AA82AB831204CF74041270
:10537400176D74026516700774011217A2E4F085A4
:105384001882851983E4F0EE75F00EA4F8A9F07480
:105394009A28FE740439FFEE240DF50AEF3400F563
:1053A4000BEE240BF514EF3400F515EE2407F50885
:1053B400EF3400F509850882F583780C121627E589
:1053C4000C450D450E450F702D851882851983EE09
:1053D400FCEFFD740712166AEEFAEFFB1204DB858C
:1053E400088285098312165112532F850A82850B70
:1053F40083E51602558F8E828F83A3A3A3A3A312E2
:1054040055B074051217A2E0687003A3E0697049EF
:105414008E828F83A3A3A3A3E0F874041217A2E0DF
:105424006870368E828F83A3A3A3E0F874031217E7
:10543400A2E06870248E828F83A3E0F874011217AF
:10544400A2E06870148E828F83A3A3E0F874021222
:1054540017A2E06870030255867A8179501206BB60
:10546400900499E0C0E074071217A2D0E0F0900411
:1054740098E0C0E074081217A2D0E0F08508828595
:105484000983780C12162774091217A2E50CF0741C
:105494000A1217A2E50DF0850C10F511850E128580
:1054A4000F1374107810121555740B1217A2E5100F
:1054B400F07418780C121555740C1217A2E50CF040
:1054C4008514828515831255B0740D1217A2E8F065
:1054D400740E1217A2E9F0850A82850B83E0C0E0FE
:1054E400740F1217A2D0E0F0900495E0C0E074109D
:1054F4001217A2D0E0F074071217A2AA82AB837924
:105504000A1206C71206D390049812572140079036
:105514000498E4F0A3F09004981255B0900496E037
:10552400687003A3E069700690049612559A1208F5
:105534007774111217A2EAF0A3EBF074111217A2F8
:10554400AC82AD837A02790412074B74071217A256
:10555400AC82AD837A08790112074B8518828519CC
:1055640083EEFCEFFD740712166AEEFAEFFB1204E9
:10557400DB85088285098312165112532F12089B6A
:10558400800A8514828515831255A4F074131217AA
:105594006D7F0F021880E02408F0A3E03400F022AD
:1055A400E02401F0A3E0340022900489E0F8A3E0B1
:1055B400F92274F01217AE74F6121757900494E09F
:1055C4006405600579000256F97A8179501206BBA8
:1055D4001257137003A3E069604E90049712570AA0
:1055E400900496E0C0E074011217A2D0E012533E7A
:1055F4001206C774021217A2AA82AB837908120694
:10560400C19004961257214007900496E4F0A3F049
:1056140074021217A2AC82AD837A08790512074B83
:1056240012089B9004C9E4F01257137003A3E069B5
:1056340060030256F71256FE749A28FA740439FB72
:105644008A828B83A3A3A3A3A3A3A3780C121627F4
:1056540074021217A2E50CF0850D09E509F508742A
:10566400031217A2E508F0850C08850E0A850F0BB6
:105674007410780812155574041217A2E508F07412
:1056840018780C12155574051217A2E50CF0EA24CB
:105694000BF582EB3400F5831255B074061217A291
:1056A400E8F074071217A2E9F0EA240DF582EB344E
:1056B40000F583E0C0E074081217A2D0E0F0900473
:1056C40095E0C0E074091217A2D0E0F0740212173A
:1056D400A2AC82AD837A08790512074B1256FE7488
:1056E400A528F582740439F583E4F0A3F09004C985
:1056F400E004F07901740A0252F29004C9E075F0F2
:105704000EA4F8A9F022E0851882851983F022906E
:105714000496E0F8A3E0F9900498E0682212559A00
:10572400C3947D22C082C08374FA1217577A817998
:10573400501206BB851882851983AC82AD837583AC
:10574400807582DE740612166A900496E0C0E074D6
:10575400021217A2D0E0F0900497E0C0E0740312A4
:1057640017A2D0E0F0900498E0C0E074041217A2ED
:10577400D0E0F0900499E0C0E074051217A2D0E0E4
:1057840012579479061206C71206D37406025A38C1
:1057940012579822F0851882851983AA82AB832236
:1057A400780079008008E8240108E93400F9C3E8A6
:1057B4009AE99B40F102013574F61217AE8A088B00
:1057C400097E007F00800F7AE87B031208A1EE2493
:1057D400010EEF3400FFC3EE9508EF950940E8028F
:1057E40051F374F61217AE8A088B097E007F00808D
:1057F400167A687B011208A17A017B001208A7EED1
:1058040024010EEF3400FFC3EE9508EF950940E143
:105814000251F3C082C08374FC121757740112172B
:10582400A2124FCD1206D9851882851983AA82AB9C
:105834008379011206DF74021217A21258815440B0
:10584400025A1EC082C08374FC12175774011217C7
:10585400A2124FCD1206D9851882851983AA82AB6C
:105864008379011206DF851882851983E054F0F0EC
:1058740074021217A21258814441025A1E7444122F
:1058840052FAE02274F61217AE74FE1217577A8198
:10589400794A1206BB7A027B001204ED8A828B835A
:1058A4007430F0A37401F01208B38518828519834B
:1058B4007441F074011217A2743012533E1206C7D9
:1058C4008518828519837443F074011217A2742316
:1058D40012533E1206C71208B97A0A7B001208ADA9
:1058E4001208B3851882851983741AF0740112178B
:1058F400A274CA12533E1206C7851882851983748E
:1059040026F074011217A2740112533E1206C785C1
:1059140018828519837427F074011217A274011276
:10592400533E1206C78518828519837428F07401C2
:105934001217A2740F12533E1206C78518828519D6
:10594400837429F074011217A2740612533E1206CE
:10595400C7851882851983742AF074011217A274FA
:105964000312533E1206C78518828519837441F0C9
:1059740074011217A2743012533E1206C78518829E
:105984008519837443F074011217A2742312533ED1
:105994001206C77A007B0074020251F0C082C083F1
:1059A40074FC1217577A8179501206BB74021217CD
:1059B400A2AC82AD8375838175826C740212166AFF
:1059C40074021217A2AA82AB8379021206C7851841
:1059D40082851983AA82AB8379021206C185188253
:1059E400851983E0FA74011217A2E0F9EA90029E85
:1059F4001251C790029EE024EFF8A3E034FBF9C3F0
:105A0400E8948FE9940150047901800C90029E740B
:105A1400D8F0A37404F079008018C0E0740312175E
:105A2400A2D0E0F074021217A2AA82AB8379021208
:105A340006C7740412176DD083D08202013574F73F
:105A44001217AE74FC121757EAFEEBFF7A817950F5
:105A54001206BB851882851983AC82AD8375838158
:105A6400758242740412166A74021217A2EEF0745C
:105A7400031217A2EF12579479041206C71206D321
:105A8400024C39C082C0839061907404F0A37448BE
:105A9400F0A37402F09061807440F09061BC7403D0
:105AA400F09061877419F0906265741BF0906249FC
:105AB400E0C3941390619C400A7409F0906066748A
:105AC400018007740DF0906066E4F090619A74337D
:105AD400F0A37455F09061A0743AF0900791E064DB
:105AE400017009C2919005F8746780059005F874F7
:105AF40061F09029C6E493906186F09029C0E49304
:105B0400F46027E493540FF8906185E0686012E52F
:105B1400C654804449F5C6E59E547F644970F8E84C
:105B2400F053C680E59E547F70FA79051211EF0296
:105B34005CE2C082C083E9540FF9906185E069603A
