:020000040000FA
:0600000002011D02238B2A
:03002B00021C486C
:030053000223FE87
:03006B00021BF283
:03007B00021C1D47
:100083000221F7E5C754F84401F5C77901220000BE
:100093000080FB120086B90003020107E47921788E
:1000A30008B800028004F709D8FCE479297802B87B
:1000B30000028004F709D8FCE49002817857790D97
:1000C3008002F0A3D8FCD9FA781A90014D7A01BACC
:1000D30000028007E493A3F608DAF9900ED7AA8208
:1000E300AB8390014E78CC79038015E493A3AC8263
:1000F300AD838A828B83F0A3AA82AB838C828D83A8
:10010300D8E9D9E77582857583FE740312012F75CB
:100113008291758300740012012F75D00075813FA1
:10012300751881751902759F00020096C09FF59F8F
:10013300E473D09F22D083D082C09FE493C0E07445
:100143000193C0E0740293F59F2201FFFF1101990F
:10015300011264040102A4810100007F81029E81D7
:10016300010000DD0E02AC81010000DE0E02988169
:10017300030000AA02028A81010000DF0E01E803E6
:10018300053F100A024669726D77617265000000CF
:100193000000000000001A446F2053796E630000D2
:1001A3000000000000000000084150502053657417
:1001B30020436C6F636B00000000084150502053D4
:1001C30065742054696D657A6F6E65001201004491
:1001D300617461204865616465720000000000007D
:1001E300124461746120426F6479000000000000D2
:1001F300000002A4810100007681029E81010000BB
:10020300100F028681010000A703029A81010000FA
:10021300110F029E81010000220F02B08103000032
:10022300A903029881030000B103029A810100002F
:10023300230F029E81010000340F02C280020000DE
:10024300B703029A81010000350F029E810100006D
:10025300460F029281020000BB03029A8101000053
:10026300470F029E81010000580F029C810300008A
:10027300590F029881030000BC03029A8101000018
:100283005B0F029E810100006C0F02A2810300003C
:10029300C203029881030000CA03029A810100008D
:1002A3006D0FFF000130750302010600000000001E
:1002B300000000000000000000000000000000003B
:1002C30000000000000000FFFF0600800CE8032C84
:1002D300011109416464696E675F41312D3030302B
:1002E30030303005122003B004020A000201060573
:1002F3000200230F18416464696E675F41312D303A
:10030300303030303000000000000DC4090000938D
:10031300080000AB08FF0000B400002800280028F4
:100323003075A000A000A000A00000080008E001B4
:10033300F00010001000100010001000100050001A
:100343005000500010001000D00700000000000013
:100353000F0001000500307507001000010081FF48
:1003630000000000FF3F0B5D0B450BFF020202087C
:10037300025000A0000000E80302A4810100007CF9
:1003830081029E81010000F8100296810100004A5B
:100393000A029E81010000F91002948101000060AD
:1003A3000A029E81010000FA1002AA810100006284
:1003B3000A029E81010000FB100290810800006385
:1003C3000A029E81010000FC10028E81010000FDE3
:1003D30010FF0100FF2002A4810100007981029E29
:1003E300810100006111028C81000000000002986D
:1003F30081030000B00A091109110911091109113A
:100403000911091109110911091109110911091119
:100413009D13B5139713120138A39203120138B831
:1004230092031201381093031201387793031201D8
:1004330038BF9303120138359403120138649403CF
:10044300120138729403120138D69403120138143E
:1004530095031201382F9503120138C79503120132
:1004630038709603120138F396031201382C970360
:10047300120138B797031201380E98031201386D31
:1004830098031201387F9803120138A598031201CB
:1004930038AE98031201380D9A03120138E1A8030C
:1004A300120138C0A9031201381CAA0312013836FD
:1004B300AA0312013847AA0312013842AD031201FD
:1004C3003862AD0312013862ED03120138A7ED0360
:1004D300120138EDED0312013880EF03120138FEEB
:1004E300FB0312013819FC0312013829FC03120122
:1004F3003880FC03120138557F0012013813AF0313
:1005030012013833AF0312013837B00312013883B5
:10051300B003120138A3B003120138F6B00312017D
:100523003863B103120138A9B1031201380DB203C4
:10053300120138BFB4031201381CFA031201384CFC
:10054300FA031201387CFA031201389CFA031201F0
:1005530038F6FA0312013840B50312013875B503B2
:1005630012013888B503120138C3B503120138E606
:10057300B503120138D5B603120138B9B703120116
:100583003845B803120138C0B9031201385FBA0302
:10059300120138DFFE0312013877FD0312013848D8
:1005A3006100120138566400120138166600120108
:1005B30038C16600120138656700120138FE670012
:1005C3001201382D6800120138076D00120138B28C
:1005D3006D00120138226F001201388A6F00120178
:1005E300383E70001201380073001201383F730067
:1005F300120138B3730012013812740012013871FA
:100603007400120138E07400120138D3750012012E
:10061300381976001201385E7600120138817600AF
:10062300120138FC77001201380F780012013818D4
:1006330079001201385779001201388379001201C9
:1006430038D67900120138F779001201383B7A0065
:100653001201388D7C00120138CE7C0012013879EA
:100663007D00120138E47D00120138217F00120160
:10067300387DF6031201388EF6031201385CF70356
:1006830012013890F703120138C1F703120138B988
:10069300EA0312013854ED0312013846FF03120135
:1006A30038D1F703120138E1F703120138F8F703E1
:1006B300120138FDF8031201385CE203120138021B
:1006C300E3031201381EE50312013845DC0312016E
:1006D3003892DC03120138C4DC0312013855DD0300
:1006E300120138D1DD031201381EDE031201386412
:1006F300DE03120138CADE031201387EFE01120145
:1007030038B3FE0112013820FF0112013837FF010F
:1007130012013893FF01120138D0FF01120138D3BF
:10072300FF0112013861FF0312013873FF03120145
:100733003876FF03120138F87F001201380CE80302
:1007430012013803EA031201386FEA03120138B6C3
:10075300EA0312013841F80212013889F802120142
:1007630038A6F80212013809FA021201382CFB02EA
:1007730012013871FC0212013818FE0212013848C6
:10078300FE021201385AFE02120138D3FE02120190
:1007930038E5FE021201385EFF0212013870FF02D3
:1007A300120138C4EF031201382DF003120138EBA4
:1007B300F0031201386AF1031201381FD903120141
:1007C3003851D90312013859DA031201387EDB0399
:1007D300120138D8ED02120138BEEE021201380BB5
:1007E300EF021201384EEF02120138C3EF02120179
:1007F3003824F00212013899F00212013875F1021F
:1008030012013880F20212013801F302120138A8F2
:10081300F4021201383EF502120138B1F502120159
:10082300382DF60212013844F6021201387BF70222
:10083300120138D5F70212013879DB0112013811A0
:10084300E001120138E5E2011201380EE301120161
:100853003837E301120138E9E301120138CFE5012A
:100863001201380AE70112013840EC01120138790C
:10087300EC01120138BDEC01120138CFED01120178
:1008830038C42A00120138062F00120138EF320053
:10089300120138F13400120138E235001201382711
:1008A3003600120138563600120138B039001201F1
:1008B300388D3A00120138C23A00120138F13A0079
:1008C300120138DF3B001201381F3C00120138C50A
:1008D3003C00120138EA3C00120138023D001201CB
:1008E30038323D00120138633D00120138EE3D00FD
:1008F300120138A73F00120138D5530012013836D0
:100903005900120138E85B00120138825C001201C1
:1009130038325D001201384A5D00120138765D00FD
:10092300120138A95D001201380F5E001201387FF1
:100933005E001201383D6000120138DF60001201D1
:1009430038C3F103120138DAF1031201380BF20351
:1009530012013846F20312013870F2031201389A79
:10096300F203120138B1F203120138C8F203120183
:1009730038DFF20312013808F3031201381BF303C3
:1009830012013831F30312013844F3031201386BB7
:10099300F3031201380080031201380481031201AA
:1009A300383C81031201385F81031201386A8103E5
:1009B3001201388D81031201389C820312013871B0
:1009C3008303120138EC8303120138748403120188
:1009D30038AF8403120138E68403120138748503A7
:1009E3001201384D8603120138AD8603120138B85F
:1009F30086031201383787031201383A870312013D
:100A0300383D8703120138CC8703120138CF87039F
:100A1300120138FF8703120138298803120138179E
:100A23008903120138C9890312013898BF031201DF
:100A330038C0BF03120138EEBF0312013825C003CB
:100A430012013883C003120138CEC00312013819D2
:100A5300C10312013859C1031201389FC1031201A6
:100A630038CDC1031201388AC20312013894C2037C
:100A7300120138A1C203120138D4C203120138A0F3
:100A8300C303120138ACC303120138C4C3031201F8
:100A930038CEC30312013827FB0312013835FB0399
:100AA3001201384DFB0312013865FB031201386252
:100AB3008F021201380E900212013889900212013E
:100AC30038AA9102120138E691021201388F92027C
:100AD300120138769302120138DA94021201383186
:100AE3009502120138B29502120138A29602120140
:100AF30038EF9602120138759702120138A7970250
:100B0300120138BB9902120138FD99021201381BF8
:100B13009A021201389E9A02120138729B02120144
:100B2300383A9C02120138BEA10312013891A20384
:100B33001201383AA3031201388DA3031201383D81
:100B4300A403120138C9A403120138B5A503120185
:100B530038E4A503120138F7A6031201383FA703AF
:100B630012013814A80312013850A8031201386C7B
:100B7300A80312013801FE0312013886D5031201BE
:100B8300389CD503120138C2D503120138DED603CF
:100B9300120138E8D6031201381DD80312013815A3
:100BA300D90312013871BA03120138A1BB03120130
:100BB30038D4BB031201381EBC03120138E5BD0350
:100BC3001201388FEE01120138F9EE011201385883
:100BD300F00112013868F00112013895F001120199
:100BE30038ECF00112013895F1011201389CF20141
:100BF30012013866F301120138C6F40112013809F3
:100C0300F501120138AEF501120138FBF5011201AD
:100C13003821F6011201382FF80112013834F80196
:100C230012013839FA0112013886FA01120138F932
:100C3300FA011201382CFB01120138CEFB0112011B
:100C43003877FC01120138AFFC01120138B2FC0104
:100C5300120138FAFC011201383AFD0112013891F0
:100C6300FD0112013839E50312013851E503120180
:100C73003899E503120138AFE503120138F6E503AD
:100C83001201380AE70312013897E703120138E229
:100C9300E703120138B38101120138BF8101120148
:100CA30038FA81011201383F8201120138FF8201B3
:100CB300120138858301120138B18301120138EA28
:100CC30083011201382886011201380C88011201B0
:100CD30038F28901120138358B01120138838D01F5
:100CE300120138958E01120138E08F01120138F09C
:100CF30090011201380D910112013848910112013E
:100D0300386A9101120138CD91011201388E960192
:100D13001201382397011201387497011201389B8D
:100D23009701120138ED97011201380B9801120156
:100D330038659801120138649901120138E8990164
:100D430012013855C4031201385FC403120138A2DB
:100D5300C403120138BDC4031201384DC503120187
:100D63003875C503120138B2C503120138E9C5034A
:100D730012013812C60312013887C6031201389CC8
:100D8300C603120138B1C603120138E2C6031201C9
:100D930038F6C6031201381BC70312013855C703BF
:100DA30012013881C703120138B9C7031201383859
:100DB300C80312013881C803120138ABC8031201FA
:100DC30038D6C80312013803F903120138D7D50204
:100DD30012013805D60212013853D70212013833F3
:100DE300D80212013852D802120138CFD8021201A8
:100DF3003812D90212013868DA0212013829DB02EB
:100E0300120138B0DD0212013851DE0212013847F7
:100E1300DF0212013844E0021201389EE10212019E
:100E23003829E20212013822F5031201388BF50347
:100E3300120138DFF50312013806F60312013837C1
:100E4300F603120138FEC8031201386BC9031201FD
:100E530038B2C903120138CACA03120138C6CB0318
:100E6300120138A9CC031201383A8A031201387CE3
:100E73008A031201384E8B03120138278C031201A7
:100E830038218D03120138038E031201386C8E034F
:100E9300120138228F03120138968F031201380290
:100EA30090031201382B9003120138A5900312010D
:100EB300383E9103120138A39103120138B891030C
:100EC300120138FE91031201381792031201387C84
:100ED30092031201387F920312013863DF03120178
:100EE300388BDF03120138C9DF0312013887E003AF
:100EF300120138EEE0031201380AE103120138321D
:100F0300E10312013862E10312013871E1031201B6
:100F130038EEE10312013814E203120138008002B3
:100F2300120138DE81021201381084021201384C9A
:100F33008402120138798402120138638502120196
:100F430038AE8502120138F985021201380B860288
:100F53001201384B8602120138808602120138CE04
:100F63008602120138FD860212013820870212011F
:100F7300386D8702120138F287021201380C8A0297
:100F83001201384B8C021201388C8C021201382E5C
:100F93008E021201386F8E02120138E28E021201A4
:100FA30038388F02120138C2C802120138C0C90290
:100FB30012013859D0021201387AD202120138458F
:100FC300D402120138ADD5021201384F9A01120131
:100FD30038FE9A011201382B9B01120138719B01D3
:100FE300120138B19C01120138479E01120138C128
:100FF3009E01120138DC9E01120138579F01120134
:1010030038B1A00112013811A20112013817A3014E
:1010130012013878A40112013891A401120138EFAA
:10102300A401120138DDA50112013810A601120135
:101033003880A601120138FAA60112013844A7012B
:101043001201380EA801120138E3A801120138C2B7
:10105300A9011201384DAA01120138BBAA011201DC
:10106300382FAB011201385AAB0112013819AC0108
:101073001201387EAD011201389BAD01120138BA5D
:10108300AD01120138ABAE01120138D0AE0112012D
:1010930038FAAE0112013875AF01120138CFAF0132
:1010A30012013838B101120138E6B10112013827B3
:1010B300B201120138EEBA021201383CBB0212012E
:1010C3003848BB0212013826BC0212013857BC0251
:1010D30012013888BC0212013808BD0212013840DF
:1010E300BD0212013892BD02120138CFBD021201B6
:1010F30038ECBF0212013812C202120138FDC302DA
:10110300120138E7C502120138B92A001201386604
:10111300C70112013896C7011201386FCE011201BF
:1011230038F4CF01120138F1D501120138D9D601B3
:1011330012013816D70112013839D7011201386A62
:10114300D70112013873D7011201387DD70112017B
:10115300386BD80112013861D90112013857B20135
:1011630012013856B6011201385CB60112013897E4
:10117300BD01120138B0C201120138B8D103120106
:10118300384ED20312013864D203120138DAD20383
:101193001201384ED3031201388CD30312013800E5
:1011A300D40312013879D40312013882D403120113
:1011B300388ED403120138A3D403120138E1D403C7
:1011C300120138F7D40312013856D5031201386BD4
:1011D300CD0312013878CD0312013892CD031201E9
:1011E30038D1CD031201380FCE0312013874CE0368
:1011F30012013889CE0312013894CE03120138A1AB
:10120300CE03120138B8CE03120138C6CE03120141
:1012130038D1CE03120138DDCE03120138ECCE03F0
:10122300120138F7CE031201381ACF03120138C165
:10123300CF03120138D1CF03120138EBCF031201D0
:101243003808D00312013824D00312013849D003DF
:1012530012013854D00312013869D0031201387DCA
:10126300D003120138DED003120138E4D003120197
:1012730038EAD003120138F0D00312013808D10341
:101283001201383BD103120138C4AC0212013848B1
:10129300AD02120138F7AD0212013856AF02120146
:1012A3003877B10212013863B20212013898B202E0
:1012B300120138BAB20212013869B302120138615D
:1012C300B5021201388AB5021201381CB6021201A6
:1012D300384EB6021201385BB602120138B2B602BA
:1012E300120138D8B60212013845B9021201384842
:1012F300BA02120138A0BA02120138539E02120137
:10130300385D9F0212013844A0021201384EA00238
:1013130012013870A0021201387CA00212013815A4
:10132300A20212013844A20212013860A302120180
:1013330038B9A3021201381FA502120138FEA50213
:101343001201385AA602120138C7A6021201380246
:10135300A70212013841A702120138FAA9021201A9
:101363003814AA02120138A0AA02120138AEAA0246
:1013730012013807AB0212013815AB02120138888B
:10138300AB02120138ECAB0212013836AC02120187
:1013930038AAE202120138CCE202120138F2E40266
:1013A30012013807E8021201381FE902120138D28C
:1013B300E902120138B4EA021201387DF303120183
:1013C30038A2F30312013814F403120138449A03C8
:1013D3001201384D9A03120138569A031201382D1F
:1013E3009B03120138DE9C03120138149D03120182
:1013F300384E9D03120138849D03120138BE9D03AC
:10140300120138F29D031201381E9E031201386740
:101413009E03120138A19E03120138EA9E031201B2
:1014230038429F03120138779F03120138D29F037A
:101433001201380CA0031201385DA0031201389386
:10144300A003120138CDA003120138FBA00312013F
:10145300381EA103120138CCFC03120138F8FC0337
:1014630012013853FD031201385DFD031201386D7B
:10147300FD031201381AFF03120138E1FF01E06690
:10148300701008A3E066700A08A3E066700408A35E
:10149300E06622C3E7960809E7960809E796080974
:1014A300E79622C3E09608A3E09608A3E09608A374
:1014B300E09622C008C3E096F50808A3E096420828
:1014C30008A3E096420808A3E09645087001D3D02C
:1014D3000822080808EAC0E0EBC0E086F0E7A4FAB7
:1014E300180986F0E7A42AFA180986F0E7A42AFA6D
:1014F300180986F0E7A42AFA1986F0E7A4FBE5F0B9
:101503002AFA190886F0E7A42BFBE5F03AFA190842
:1015130086F0E7A42BFBE5F03AFA18180986F0E702
:10152300A4C5F02BFBE43AFA1908E7C5F0C6A426D4
:10153300F6E5F03BFBE43AFA1886F0E7A4F6E5F0AB
:101543000826F6E43B08F6E43A08F6D0E0FBD0E0E0
:10155300FA22E4CFC0E0E4CEC0E0E4CDC0E0E4CCC6
:10156300C0E075F020C3E633F608E633F608E63349
:10157300F608E633F6181818EC33FCED33FDEE33BA
:10158300FEEF33FFC3EC9709ED9709EE9709EF9749
:10159300191919400FFFEC97FC09ED97FD09EE9718
:1015A300FE191906D5F0BEECF709EDF709EEF709B8
:1015B300EFF7191919D0E0FCD0E0FDD0E0FED0E040
:1015C300FF2212162D18181812155512161C191968
:1015D300192212161C191919080808E618181820D8
:1015E300E7E012155512162D18181822090909E7F4
:1015F30019191920E7DC080808E618181820E7036A
:1016030002155512162D18181812155512162D18E5
:10161300181812161C19191922E4C397F709E4972D
:10162300F709E497F709E497F722E4C396F608E489
:1016330096F608E496F608E496F62260160808087B
:10164300C6C313C618C613C618C613C618C613C610
:10165300D5E0EA227009080808226016181818C68F
:10166300C333C608C633C608C633C608C633C6D591
:10167300E0EA22E627F60809E637F60809E637F630
:101683000809E637F622E026F608A3E036F608A3B3
:10169300E036F608A3E036F622E026F008A3E036AB
:1016A300F008A3E036F008A3E036F022C3E697F68D
:1016B3000809E697F60809E697F60809E697F62279
:1016C300C3E096F008A3E096F008A3E096F008A321
:1016D300E096F022E657F60809E657F60809E657BA
:1016E300F60809E657F622E056F608A3E056F60890
:1016F300A3E056F608A3E056F622E056F008A3E06E
:1017030056F008A3E056F008A3E056F022E0F608EE
:10171300A3E0F608A3E0F608A3E0F622E6F008A3A8
:10172300E6F008A3E6F008A3E6F022E0FAA3E0FB64
:10173300A3E0FCA3E0FD22EAF0A3EBF0A3ECF0A30B
:10174300EDF022CAC0E0E6F0A308DAFAD0E0FA220C
:10175300CAC0E0E0A3C582CCC582C583CDC583F0F2
:10176300A3C582CCC582C583CDC583DAE6D0E0CAE2
:1017730022C3E498F8E499F91217B58026C3E49AD2
:10178300FAE49BFBE920E7E91217B5E498F8E4993A
:10179300F922C3E498F8E499F91217B5E498F8E448
:1017A30099F9C3E49AFAE49BFB22EB20E7CFE92003
:1017B300E7E0B90010BB0008E88AF084F8AAF02239
:1017C300E4FBC8FA22EB70227B10C833C8C933C9C3
:1017D300335007C39AC3DBF280069A50012ADBEA2F
:1017E300C833F4C8C933F4C9FA2275F008E4C8331E
:1017F300C8C933C933C99AC99B5004C92AC93BD53F
:10180300F0ECFBC833F4C8E4C9FA22600D08C6A2A1
:10181300E713C618C613C6D5E0F322600C08C6C387
:1018230013C618C613C6D5E0F422700422600D183F
:10183300C6C333C608C633C6D5E0F418222518102C
:10184300AF08F518400215198008F518400215195C
:10185300D2AF22C0D0251810AF08F51850020519D1
:101863008008F51850020519D2AFD0D0222518F5FB
:101873008210AF08F518400215198008F5184002C8
:101883001519D2AF851983222518F582E43519F588
:101893008322E4732518C582C0E0E51934FFC583AC
:1018A300C0E0E518C3958224F810AF088583198535
:1018B30082188008858319858218D2AFCEF0A3E5FC
:1018C30020F0A37808E608F0A3DEFAEFF0A3E581A1
:1018D30024FAF8E608F0A3E608F0A3E608F0A30864
:1018E30008E608F0A3E608F0A315811581D0E0FE11
:1018F300D0E0F8158115811581E8C0E0EEC0E02243
:101903002518C582C0E0E51934FFC583C0E0E5189A
:10191300C3958224F910AF0885831985821880083E
:10192300858319858218D2AFCEF0A3E520F0A37882
:1019330008E608F0A3DEFAEFF0A3E58124FBF8E65E
:1019430008F0A3E608F0A30808E608F0A3E608F009
:10195300A315811581D0E0FED0E0F815811581E84B
:10196300C0E0EEC0E022851983851882E0A3FEE083
:10197300A3F5207808E0A3F608DFFAE0A3FFE0A3CD
:10198300C0E0E0A3C0E0E0A3C0E0E0A3C0E0E0A3C8
:10199300C0E010AF088582188583198008858218F6
:1019A300858319D2AFD083D082020135851983850F
:1019B3001882E0A3FEE0A3F5207808E0A3F608DF91
:1019C300FAE0A3FFE0A3C0E0E0A3C0E0E0A3C0E02F
:1019D300E0A3C0E010AF08858218858319800885CD
:1019E3008218858319D2AFD083D08222C0D0251824
:1019F300C582C0E0E51934FFC583C0E0E518C3958F
:101A03008224F310AF0885831985821880088583A3
:101A130019858218D2AFC8F0A3E9F0A3EAF0A3EBCB
:101A2300F0A37908E709F0A3D8FAECF0A3EDF0A34B
:101A3300EEF0A3EFF0A3D0E0F0A3D0E0F0A3D0E06A
:101A4300F0A3E520F0A3E5F0F0A322851983851820
:101A530082E0C0E0A3E0F9A3E0FAA3E0FBA37808E7
:101A6300E0F608A3DFFAE0FCA3E0FDA3E0FEA3E0B9
:101A7300FFA3E0C0E0A3E0C0E0A3E0F5D0A3E0F55E
:101A830020A3E0A3F5F010AF0885831985821880A1
:101A930008858319858218D2AFD082D083D0E0F82D
:101AA300D0E03274048006740280027401C0E0F452
:101AB30004121870D0E012174622740480047402D2
:101AC3008000CCC0E0EDC0E0E518C39CCCAD19505C
:101AD300011D10AF068C188D1980068C188D19D234
:101AE300AF121753D0E0FDD0E0FC22D083D082E9BF
:101AF300C0E0E493A3C386F0C5F095F0F908E4933E
:101B0300A386F0C5F095F0700BE493A3C399400549
:101B1300E9048002A3E475F002A42582F582E5F0CE
:101B23003583F583D0E0F9E493A3C0E0E493C0E008
:101B330022D083D082ECC0E0EDC0E0E493A3FCE4C8
:101B430093A3FDED4C600D121B80EC24FFFCED34E0
:101B5300FFFD80EFE493A3FCE493A3FDED4C600D44
:101B6300121BBFEC24FFFCED34FFFD80EFD0E0FD42
:101B7300D0E0FCE493A3C0E0E493C0E022C0E0C360
:101B8300E49396087401939618400FE493667008E3
:101B930008740193661870007019A3A3C3E49396A5
:101BA300087401939618A3A3400DD0E0D0E0D0E0D1
:101BB300021B70A3A3A3A3A3A3D0E022C0E0C0F0A1
:101BC30088F0E4936670080874019366187000A89F
:101BD300F0A3A3700BD0F0D0E0D0E0D0E0021B70F4
:071BE300A3A3D0F0D0E02223
:101BEC00C2AF02000022C0E074F21219EFA2AFE4FF
:101BFC0033FED2AFE589A2E35003120713758900B7
:101C0C00C2C5751A00EEF8EEA2E092AF7F01021A7F
:101C1C004EC0E074F21219EFA2AFE433FED2AFE57E
:101C2C008AA2E25003120713758A00C2EB751A00E0
:101C3C00EEF8EEA2E092AF7F01021A4EC0E0C0D0E7
:101C4C00E8C0E0E9C0E0A2AFE433F8D2AFC2C77598
:101C5C001A00E8F9E8A2E092AFD0E0F9D0E0F8D0B1
:101C6C00D0D0E03274F5121903EAFEEBFFEE243407
:101C7C00F8EF3400F988088909EE2435F582EF3441
:101C8C0000F583E0F8EE2437F582EF3400F583E0BD
:101C9C00F50AEC850AF0A4FCAAF0850AF0EDA42A5A
:101CAC00FDE82CF8E43DF97A257B001217B5EA859E
:101CBC000882850983F0F8740758F97401B9000299
:101CCC008004C333D9FCFAE8131313541FF8EE281D
:101CDC00F8EF3400F9E8245DF582E93400F583E08F
:101CEC005A6008EE2434F582EF802CEE2434F58211
:101CFC00EF3400F583E0C0E0EE2436F582EF3400DB
:101D0C00F583E0F5F0D0E084A8F0EE28F8EF34008D
:101D1C00F9E82438F582E93400F583E0F97F040210
:101D2C0019AF74F5121903EAFEEBFFEE2434F582B9
:101D3C00EF3400F583E0C0E0EE2435F582EF34009B
:101D4C00F583D0E0F08E828F83A3A3A3A3A3A3A3D8
:101D5C00C082C0838E828F83A3A3A3A3A3E0F8A326
:101D6C00E0F9D083D082E0C398F508A3E099F50997
:101D7C00EE247FF582EF3400F583E064017069EEA8
:101D8C002480F582EF3400F583E0F8A3E0F98E822D
:101D9C008F83A3A3A3A3A3A3A3E0FCA3E0FD8E8244
:101DAC008F83A3A3A3A3A3E0FAA3E0FBC3EA9CEB5A
:101DBC009D5010C3EC98ED99402EC3EA98EB9950C6
:101DCC0027800EC3EA98EB994007C3EC98ED994035
:101DDC00177C737D0CEEFAEFFB121067EE247FF587
:101DEC0082EF3400F583E4F0EE2434F8EF3400F99C
:101DFC00E8FCE9FDEE2435F582EF3400F583E0F8DC
:101E0C00EE2437F582EF3400F583E0F50AE508851A
:101E1C000AF0A4F508AAF0850AF0E509A42AF50948
:101E2C00E82508F8E43509F97A257B001217B5EA9C
:101E3C008C828D83F0F8740758F97401B900028014
:101E4C0004C333D9FCFAE8131313541FF8EE28F823
:101E5C00EF3400F9E8245DF582E93400F583E05AAB
:101E6C006008EE2434F582EF802CEE2434F582EFFA
:101E7C003400F583E0C0E0EE2436F582EF3400F553
:101E8C0083E0F5F0D0E084A8F0EE28F8EF3400F908
:101E9C00E82438F582E93400F583E0F9122AAB0224
:101EAC001D29C082C083851882851983E0F8A3E0C0
:101EBC00F9C3EA9CEB9D5010C3EC98ED99401BC301
:101ECC00EA98EB995014800EC3EA98EB994007C33B
:101EDC00EC98ED994004790180027900D083D0828E
:101EEC0022EAC39CFAEB9DFB2274EF121903900BB0
:101EFC0039E064086005E06407702A9061C8E0600E
:101F0C0024900B67E0F4601DE0F875F003A4C8AAF8
:101F1C00F02AF9746928FE740B39FF8E828F83A323
:101F2C00A3A3E07003022025906060E0C0E0EE24E3
:101F3C0068F582EF3400F583D0E0F0750CDC750D9C
:101F4C000C750800750900E5D914F50AE5D9540398
:101F5C00F50E60177403650E605CE50A6010EE24E4
:101F6C0067F582EF3400F583E0700302200A900CD1
:101F7C00D7E06401602AEE2482F582EF3400F58309
:101F8C00E06004780480027800850A08E508C398AC
:101F9C00FA95E0FB120F2F8A088B09EA45097005A8
:101FAC0012126B8074EE2482F582EF3400F583E01C
:101FBC0070048A0C8B0DE50A6012850C82850D83EA
:101FCC00F50BE5D9F0A3150BE50B70F6EE2482F5B5
:101FDC0082EF3400F583E0604474FC250AF50A783E
:101FEC000C121AAAAC0AA90EEEFAEFFB121103742A
:101FFC0002121856E97026AA08AB091207A9793DF6
:10200C008E828F83A3A3A3A3E0FA7B00120E03EEB0
:10201C00FAEFFB12107F12111579008074740365AE
:10202C000E6056850A107511007810121AAAAC0CA5
:10203C00AD0DAA08AB091210DF7402121856EE246B
:10204C0068F582EF3400F583E064807004747F805F
:10205C0001E0F50C780C121AAEE50EF50C780C12AA
:10206C001AAEA90AAC08AD09900B67E0FA7B001216
:10207C000DC774021218568013900B39E064086077
:10208C000BAC0CAD0DEEFAEFFB12116F121277794F
:10209C00017F0A0219AF74F512190374FC1218406F
:1020AC00EAFEEBFF8908A2AFE433F509C2AF806A00
:1020BC00EE2463F8EF3400F97A007B00A2AFE4332E
:1020CC00F50AC2AF88828983E0FCA3E0FDEC4D6089
:1020DC003A88828983E0FAA3E0FB8A828B83E0FC56
:1020EC00A3E0FD88828983ECF0A3EDF08A828B83D8
:1020FC00E4F0A3F088828983E0FCA3E0FDEC4D7052
:10210C000A88828983A3A3E4F0A3F0E50AA2E092F3
:10211C00AF1207A9900C7AE004F0EE2463F582EF7D
:10212C003400F583E0F8A3E0F9E849603DEE246360
:10213C00F582EF3400F583E02402FAA3E03400FBCF
:10214C00EA2402F50AEB3400F50B780A121AAA8A73
:10215C00828B83E0FCA3E0F9EEFAEFFB1210A37480
:10216C0002121856E970030220BC900C7AE06063EE
:10217C00900C7BE0F8900C7AE0C398500C740265DC
:10218C00087050900C7CE0604A8E828F83A3A3A3CE
:10219C00A3E0851882851983F0A3E4F0900C7AE013
:1021AC00F8740212188BE8F0A3E4F0900C7AE0F8C3
:1021BC00900C79E028F0740212188BAC82AD8385F8
:1021CC001882851983AA82AB837901120DD3900CE6
:1021DC007AE4F0E509A2E092AF7404121856021DDD
:1021EC00290000008521878522C622C0E0C0D0E8E6
:1021FC00C0E0E9C0E0EAC0E0EBC0E0ECC0E0EDC05C
:10220C00E0EEC0E0C008C009C00AC00BC082C083A9
:10221C00C0F0A2AFE433FEC2AF759B00906182E0C8
:10222C00A2E05012E591A2E0500C7591FE7401658C
:10223C00217003121EF5E0A2E55051E591A2E55084
:10224C004B7591DF900B39E064076005E064087012
:10225C00237401652170357901900B67E0FA75F0F4
:10226C0003A4CAA8F028FB74692AFA740B3BFB126E
:10227C0020A28018E0640D7013900B5BE004F064F6
:10228C00287002E4F07A00E0F912127D906182E08D
:10229C00A2E6400302233EE591A2E6400302233E60
:1022AC007591BF900B39E0640570081211A51211DD
:1022BC00B180031211AB75210012120BE9900B3A8D
:1022CC00F079001211FF120FDD7A017B00900B38B0
:1022DC00E0F9120473907803E064427055900CDBC3
:1022EC00E014F0704DC2AF1222F600782AD0E0F65E
:1022FC0018D0E0F6E59F540770057509FF8003754B
:10230C00097FC4C0E07829E6F50808E65509F50907
:10231C00740B780812181ED0E02508F8906270E053
:10232C00A2E740F8E8C333906272F0906270E0D29A
:10233C00E0F0906181E0A2E35009E5E9A2E35003EB
:10234C0075E9F7A3E0A2E75009E591A2E750037500
:10235C00917FEEA2E092AFD0F0D083D082D00BD0A0
:10236C000AD009D008D0E0FED0E0FDD0E0FCD0E0EF
:10237C00FBD0E0FAD0E0F9D0E0F8D0D0D0E032C019
:10238C00E0C0D0C082C083906183E0A2E05009E538
:10239C00BFA2E0500375BFFEE0A2E15009E5BFA269
:1023AC00E1500375BFFDE0A2E25009E5BFA2E25087
:1023BC000375BFFBE0A2E35009E5BFA2E350037530
:1023CC00BFF7E0A2E45009E5BFA2E4500375BFEFEC
:1023DC00E0A2E55009E5BFA2E5500375BFDFE0A21E
:1023EC00E65009E5BFA2E6500375BFBFD083D0828B
:1023FC008088C0E0C0D0E8C0E0E9C0E0EAC0E0EB13
:10240C00C0E0ECC0E0EDC0E0C0F0E5A7A2E6500FE4
:10241C00E5A1A2E6500953A7BF75A1BF122463E53D
:10242C00A7A2E5500CE5A1A2E5500653A7DF75A1C4
:10243C00DFE5A7A2E15009E5A1A2E1500375A1FDDA
:10244C00E5A7A2E2500CE5A1A2E2500653A7FB754A
:10245C00A1FBD0F002237474F812190375210190BA
:10246C000B39E0640670151211338A828B83A3A397
:10247C00A3A3A3A3E0FAA3E0FB121193A2AFE4334E
:10248C00FED2AF900B3FE0640170187A207B009075
:10249C000B38E0F91205217A207B00900B38E0F91B
:1024AC00120479906182E0D2E6F0900CD8E06021C1
:1024BC0085C6228016900B3EE064017008E5C65478
:1024CC00F84405F5C653BEFC1221F0740165216079
:1024DC00E4EEA2E092AF7F010219AF008E238F24AD
:1024EC00858228858327851882851983E0CEA3E011
:1024FC00CF852882852783EBC9EAC8EDCBECCA755A
:10250C00F010C3E833C8E933C9EA33CAEB33CBC3A1
:10251C00EA9EF526EB9FF525B35004AB25AA26ECD5
:10252C0033CCED33CDD5F0DAAE23AF242274E912DF
:10253C00190374F8121840851882851983ECF0A3DE
:10254C00EDF08A088B09900B39E024F7C394055001
:10255C00067508010226D01211338A0A8B0BAE0ABB
:10256C00AF0BEE4F70030226CDAC08AD097402120E
:10257C00188BAA82AB831211C38E828F83A3A3758F
:10258C000CFF750DFF750EFF750F00780C1216EA17
:10259C00740212188B7510FF7511FF7512FF7513ED
:1025AC000078101216EA780C7910121496502A78CA
:1025BC000C79101216AF7508017509C8750A0075EB
:1025CC000B007808790C1214965052850C08850D66
:1025DC0009850E0A850F0B80507514017515C87589
:1025EC00160075170085100885110985120A8513C8
:1025FC000B7808790C1216AF7814790812149640DF
:10260C001C750800750900750A00750B01780879AE
:10261C00101216AF7808790C121676800C7508011A
:10262C00750900750A00750B0074097808121657A5
:10263C00750C19F50DF50EF50F7808790C1215556A
:10264C008E828F83A3A3A3A3A3A3E0F8A3E0F97ABC
:10265C00D07B031217B5880C890DE4F50EF50F78B5
:10266C0008790C121676740612188BE0F8A3E0F9B0
:10267C007AD07B031217B5E8FA8A0CE4F50D7808CA
:10268C00790C12149650077808790C1216AF900B2F
:10269C0039E06408600AE064066005E06405702DAA
:1026AC00750C0D780C79081214964021750CF47584
:1026BC000DFF750EFF750FFF7808790C12167680DA
:1026CC000C750800750900750A00750B00851882D9
:1026DC00851983E0F8A3E0F5838882780812171F28
:1026EC0074081218567F100219AF74F712190312DE
:1026FC0011D5900CD6E064017010906245E4F0A303
:10270C00F053F4F343FE0C5390F3121181E5C654CD
:10271C00804449F5C6E59E547F644970F890618504
:10272C00740FF0900CD4E0F47002A3E0604E900CA7
:10273C00D5E0600814601B14602E8040750801758C
:10274C000900900CD4E0780812182DE508F452809A
:10275C00802A750801750900900CD4E078081218CD
:10276C002DE508F452908014750801750900900C41
:10277C00D4E0780812182DE508F452A079007F02F5
:10278C000219AF74F7121903E9FEEAFF74016E70B7
:10279C000C7A807B00900B38E0F9120473902ABC01
:1027AC00E493F46008E493F9120FD1800953C680C6
:1027BC00E59E547F70FA121187900CD6E06401707C
:1027CC0003120FE9900CD4E0F47002A3E0604B907C
:1027DC000CD5E0600814601A14602C803D7508015B
:1027EC00750900900CD4E0780812182DE508428089
:1027FC008028750801750900900CD4E0780812182F
:10280C002DE50842908013750801750900900CD4D1
:10281C00E0780812182DE50842A01211D5121133D8
:10282C008A088B09A808A909E8496015E5E170FC3C
:10283C00E82414F582E93400F583E0F46003E0F554
:10284C00E174016F700A7A01900B38E0F91204EB15
:10285C0002278A74ED1219038A088B098C0A8D0BD6
:10286C00741312188B780C1217107808790C121438
:10287C00967510017511C8751200751300501278F9
:10288C0008790C1216AF781079081214965016802D
:10289C0010780C79081216AF7810790C1214964037
:1028AC00047901800279007F0C0219AF74ED1219C2
:1028BC00038A088B098C0A8D0B741312188B780CF5
:1028CC00121710780C790812149640117808790CAC
:1028DC001216AFAA08AB09AC0AAD0B80227510001A
:1028EC007511007512007513017810790C1216AF62
:1028FC0078107908121676AA10AB11AC12AD1380B1
:10290C00A68A828B837508FF7509FF750AFF750B04
:10291C000078081216FD7F040219AF74F512190322
:10292C008C828D8378081217108A828B8378081218
:10293C0016C3EA2404F8EB3400F98C828D83A3A32C
:10294C00A3A3E0FCA3E0FD88828983C3E09CF0A3F1
:10295C00E09DF088828983C3E09420A3E0944E40EC
:10296C00268A828B837508FF7509FF750AFF750B24
:10297C00FF780812169C8A828B83A3A3A3A3E0245E
:10298C0020F0A3E0344EF002290D74F5121903E97E
:10299C00FE900C8EE0FAA3E0FBEEC333F8E433F9BF
:1029AC0074A228F582748039F583E02AF508A3E037
:1029BC003BF5097808121AAA7A407B427C0F7D00FD
:1029CC001224E874021218568A088B098C0A8D0B93
:1029DC007410780812163EAA08AB097F040219AFCE
:1029EC0074F11219038A0C8B0D8C0E8D0F740F124F
:1029FC00188BE0FAA3E0FB741112188BE0F508A316
:102A0C00E0F5097808121AAAEA2401F508EB34005B
:102A1C00F509E4F50AF50B780C79081214D575084C
:102A2C0071750902780C79081214D5AA0CAB0DAC8F
:102A3C000EAD0F1224E874021218568B09EA4509E0
:102A4C0060047A0180027A00EC2AFCED3400FD74FB
:102A5C001312188BE0F8A3E0F9E8FEE9FFECF8EDAF
:102A6C00F97A717B021217B5880889098E828F83D7
:102A7C00780812171FECF8EDF97A717B021217B572
:102A8C008A088B097405780812182D8E828F83A3FF
:102A9C00A3A3A3E508F0A3E509F07F080219AFC0D2
:102AAC0082C083E9906000F0D083D082220201358D
:102ABC00FFFFFFFFFFFFFFFF74F412189774C8129B
:102ACC0018408908E5089009D7F01208ED9080812C
:102ADC00C082C083742712188BAC82AD83D083D094
:102AEC00827411121753741D12188BAA82AB8312A5
:102AFC000F3BE9741F12188BE0C4540FF879007463
:102B0C002712188BE58228F582E58339F583E0C01E
:102B1C00E0741712188BD0E0F0741F12188BE0F8C9
:102B2C007900540FF8E95400F9742712188BE582D8
:102B3C0028F582E58339F583E0C0E0741812188B10
:102B4C00D0E0F0741E12188BE0C4540FF8790074A6
:102B5C002712188BE58228F582E58339F583E0C0CE
:102B6C00E0741912188BD0E0F0741E12188BE0F878
:102B7C007900540FF8E95400F9742712188BE58288
:102B8C0028F582E58339F583E0C0E0741A12188BBE
:102B9C00D0E0F0741D12188BE0C4540FF879007457
:102BAC002712188BE58228F582E58339F583E0C07E
:102BBC00E0741B12188BD0E0F0741D12188BE0F827
:102BCC007900540FF8E95400F9742712188BE58238
:102BDC0028F582E58339F583E0C0E0741C12188B6C
:102BEC00D0E0F0750A06750B00780A121AAA74194F
:102BFC0012188BAC82AD837A697B1012041F74029D
:102C0C00121856750A06750B00780A121AAA74194E
:102C1C0012188BAC82AD837A8B7B1012041F74025A
:102C2C001218567C067D007A1F7B00120A2BE9F5E0
:102C3C0009740612188B7401F0741512188B740039
:102C4C00F0A37400F0740512188B7401F074131255
:102C5C00188B7420F0A37403F0741112188B74B0D9
:102C6C00F0A37404F0740F12188B7404F0A37400A6
:102C7C00F0740D12188B7488F0A37413F074061290
:102C8C00188BAC82AD8379017A057B03120839E984
:102C9C00741512188BAC82AD8379027A067B031201
:102CAC000839E97C5D7D10791B7A087B03120839A1
:102CBC00E97C787D1079097A077B03120839E9746D
:102CCC000512188BAC82AD8379017A107B03120844
:102CDC0039E9741312188BAC82AD8379027A117BAB
:102CEC0003120839E9741112188BAC82AD83790286
:102CFC007A127B03120839E9740F12188BAC82AD6F
:102D0C008379027A137B03120839E9740D12188B3C
:102D1C00AC82AD8379027A147B03120839E97C8189
:102D2C007D107A157900120BA5E97E407F1FEEFC11
:102D3C00EFFD7A067B00120A2BE9EEFCEFFD7A0719
:102D4C007B00120A2BE9EEFCEFFD7A087B00120ADD
:102D5C002BE9EEFCEFFD7A097B00120A2BE97A00D5
:102D6C007B007C007D00742312188BEAF0A3EBF03F
:102D7C00A3ECF0A3EDF0740412188B7401F074033F
:102D8C0012188B7401F0740212188B7400F0740119
:102D9C0012188B7401F0742312188BAC82AD8379EA
:102DAC00047A087B0412059FE9740412188BAC8218
:102DBC00AD8379017A007B0412059FE97403121824
:102DCC008BAC82AD8379017A027B0412059FE97486
:102DDC000212188BAC82AD8379017A037B04120545
:102DEC009FE9740112188BAC82AD8379017A067B52
:102DFC000412059FE990817212172E120BABE99009
:102E0C00817212172E120CB3E990817212172E12C6
:102E1C000755E9120557E9740B12188B7403F0A3CC
:102E2C007400F0740912188B7469F0A37400F074B8
:102E3C000B12188BAC82AD837A027904120761E90C
:102E4C00740912188BAC82AD837A02790012076177
:102E5C00E9851882851983740AF08518828519838F
:102E6C00AC82AD837A017901120563E99009D7E050
:102E7C00F9120545E975FDF675F30175FEFB75F460
:102E8C000075FFFF75F5001208B112092F12092900
:102E9C007A9F7B1012075BE9F50A7A997B08120579
:102EAC005D1205877AA67B0412093B120935E97974
:102EBC0001120DA9E97A107B009009D7E0F91204F0
:102ECC0073E912090B1208E7740712188BEAF0A3C6
:102EDC00EBF0740712188BAC82AD837A0279041272
:102EEC000761E97A017B009009D7E0F9120473E9D4
:102EFC0074381218567F0402196974F212189774F8
:102F0C00FE121840890AEAFEEBFFEE5400F8EF546B
:102F1C0080F9E84960329009D7E0F912045B8A0C19
:102F2C008B0DA80CA90D88088909E849600FAA081F
:102F3C00AB0912088DAA08AB09120449E9EE64002A
:102F4C00FAEF6480FB0232E5EEA2E04003023007A8
:102F5C00900A13E0704F7A9B7B10120845E9F50834
:102F6C007A147B0A1205BD79011208E190814A128C
:102F7C001ABD7A027B009009D7E0F912051574048A
:102F8C00121856E9908122121ABD7A017B00900921
:102F9C00D7E0F91205157404121856E9900A13E0DB
:102FAC002401F0804B900A13E0640170241208B7DE
:102FBC0090811E121ABD7A017B009009D7E0F9129C
:102FCC0005157404121856E9900A13E02401F080D8
:102FDC001F900A13E0640270171208B17A017B008B
:102FEC009009D7E0F9120521E9900A13E02401F0C9
:102FFC00EE6401FAEF6400FB0232E5EE54106076E9
:10300C007A81791D1206D1740112188B7400F07438
:10301C000112188BAA82AB8379011206EFE985188D
:10302C0082851983AA82AB8379011206F5E985188A
:10303C0082851983E0543FF0851882851983E060FE
:10304C000C851882851983E0F91208F3E9900A12AD
:10305C00E07018901097121ABD7A107B009009D767
:10306C00E0F91205157404121856E9EE6410FAEF23
:10307C006400FB0232E5EE5408600E12089FEE6409
:10308C0008FAEF6400FB0232E5EE5402602E1208DF
:10309C00A590048EE06401701890814A121ABD7AD2
:1030AC00027B009009D7E0F912051574041218562A
:1030BC00E9EE6402FAEF6400FB0232E5EE54806044
:1030CC0029900A08E0640370101208C97A007B0486
:1030DC009009D7E0F9120521E9900A087400F0EE86
:1030EC006480FAEF6400FB0232E5EE5400F8EF5412
:1030FC0001F9E849600E1208C3EE6400FAEF6401AE
:10310C00FB0232E5EE5400F8EF5402F9E849602D69
:10311C007A007B019009D7E0F9120521E91208B178
:10312C00900A0A7400F0901096740DF0900A0974CD
:10313C0000F0EE6400FAEF6402FB0232E5EE54207C
:10314C00607E900A0CE0C3940750197A00900A0C28
:10315C00E0F91208BD7A00900A0CE0F8740CC398E0
:10316C00F91208BD7A01900A0CE024FFF91208BD8F
:10317C007A01900A0CE0F8740DC398F91208BD900E
:10318C000A0CE02401F0900A0CE0C39408501A9049
:10319C00811A121ABD7A207B009009D7E0F912052A
:1031AC00157404121856E9800C900A0C7400F090F7
:1031BC000A097400F0EE6420FAEF6400FB0232E5B9
:1031CC00EE5400F8EF5408F9E849700302325C90B1
:1031DC000A0CE0C3940C50187A00900A0CE0F91217
:1031EC0008BD7A01900A0CE024FFF91208BD801F7B
:1031FC00900A0CE0640C70107A0079001208BD7A09
:10320C0001790B1208BD80077A0179001208BD9074
:10321C000A0CE02401F0900A0CE0C3940E501A90B2
:10322C008162121ABD7A007B089009D7E0F9120569
:10323C00157404121856E9800C900A0C7400F09066
:10324C000A097400F0EE6400FAEF6408FB0232E540
:10325C00EE5440600D1208B1EE6440FAEF6400FBCE
:10326C008077EE5400F8EF5404F9E8496013900AA3
:10327C000BE060031208CFEE6400FAEF6404FB80ED
:10328C0058EE5400F8EF5410F9E849600D1208D5C7
:10329C00EE6400FAEF6410FB803FEE5400F8EF543C
:1032AC0020F9E849602F1208FFE9900A0DE0C39459
:1032BC00035018908126121ABD7A007B209009D7F2
:1032CC00E0F91205157404121856E9EE6400FAEFD1
:1032DC006420FB80047A007B0074021218567F066F
:1032EC0002196974F712189774FC121840EAFEEB75
:1032FC00FF8E828F83E064C060030234E78E828F7E
:10330C0083A3A3A3E0F5087A81794A1206D174034A
:10331C0012188B7400F0740312188BAA82AB837989
:10332C00011206EFE9740212188BAA82AB837901A1
:10333C001206F5E9740212188BE0A2E04008900A1C
:10334C000B7400F08006900A0B7401F0E508A2E003
:10335C004003023411900A09E060030234E7900A3A
:10336C000BE0601A908116121ABD7A007B0490094A
:10337C00D7E0F91205157404121856E9800D7A007D
:10338C007B049009D7E0F9120521E9900A0BE06063
:10339C0056900A08E07008900A087402F080489071
:1033AC000A08E064027015900A087403F07A807BB6
:1033BC00009009D7E0F9120521E9802B900A08E06A
:1033CC00640370231208DB7A807B009009D7E0F944
:1033DC00120521E97A007B049009D7E0F912052146
:1033EC00E9900A087400F0900A08E0601890816A6D
:1033FC00121ABD7A807B009009D7E0F9120515747A
:10340C0004121856E9E508A2E140030234E77A8178
:10341C00791D1206D1851882851983742AF07401DE
:10342C0012188B7400F0851882851983AA82AB83DD
:10343C0079021206DDE98518828519837416F085E8
:10344C001882851983AA82AB8379011206EFE9747D
:10345C000112188BAA82AB8379011206F5E9851843
:10346C0082851983742DF0740112188B7400F08509
:10347C001882851983AA82AB8379021206DDE9854D
:10348C001882851983742AF0740112188B7469F0F0
:10349C00851882851983AA82AB8379021206DDE92D
:1034AC007A007B007C007D00900A0EEAF0A3EBF022
:1034BC00A3ECF0A3EDF0900A127400F07A017900FD
:1034CC001208BD901097121ABD7A107B009009D784
:1034DC00E0F91205157404121856E9740412185602
:1034EC007F0102196974F712189774F2121840E9E7
:1034FC00FEEE1460221470030235B514700302350D
:10350C00D31470030235D31470030235C524FE7036
:10351C00030235D30235D3740812188BAC82AD83F9
:10352C007A047B0312083FE9740812188BE08518A3
:10353C0082851983F0740912188BE0C0E0740112B3
:10354C00188BD0E0F0740A12188BE0C0E0740212F1
:10355C00188BD0E0F0740412188B7400F074031202
:10356C00188B7400F0740D12188BE0C0E074071205
:10357C00188BD0E0F0740C12188BE0C0E0740612BB
:10358C00188BD0E0F0740B12188BE0C0E0740512AD
:10359C00188BD0E0F0851882851983AC82AD837AC4
:1035AC00087900120593E9801E7A007900120683CF
:1035BC007A00790012067D800E7A0179001206835A
:1035CC007A01790012067DEE9009D8F0740E12186B
:1035DC00567F0102196974F7121897E9FE74016E8F
:1035EC0070229009D8E06405702C90810E121ABDDF
:1035FC007A087B009009D7E0F912051574041218AB
:10360C0056E9801274026E700D7A087B009009D70F
:10361C00E0F9120521E97F01021969C082C083908B
:10362C0009D8E06405701C120569E990810E121A24
:10363C00BD7A087B009009D7E0F9120515740412C5
:10364C001856E9D083D08202013574F6121897749B
:10365C00F812184090048EE0640160030239A090C7
:10366C00048CE0F890048DE0C39840030239A090DC
:10367C00048CE0F8790090048DE0FA7B00E8C39AA2
:10368C00F8E99BF9C3E89406E99400A2D265D0331B
:10369C00500302382C90048DE0FE8E0875090090C2
:1036AC00048DE0F879002405F8E93400F9C3E50845
:1036BC0098E50999A2D265D0334003023822EEF87E
:1036CC007900E875F006A4C8AAF075F000A42AFAEF
:1036DC0075F006E9A42AF9745028F582740539F5B9
:1036EC0083E0F8A3E0F990047FE8F0A3E9F0EEF8AA
:1036FC007900E875F006A4C8AAF075F000A42AFABF
:10370C0075F006E9A42AF9745228F582740539F586
:10371C0083E0F8A3E0F9900481E8F0A3E9F0EEF877
:10372C007900E875F006A4C8AAF075F000A42AFA8E
:10373C0075F006E9A42AF9745428F582740539F554
:10374C0083E0F8A3E0F9900483E8F0A3E9F0EE70CD
:10375C00109009D2E0F87900900485F0A3E9F0808C
:10376C001F74016E701090048CE0F8790090048541
:10377C00F0A3E9F0800A90048574FFF0A374FFF0C5
:10378C007508027509007808121AAA7C7F7D0474EA
:10379C000212188BAA82AB8312041F7402121856E1
:1037AC007508027509007808121AAA7C817D0474C8
:1037BC000412188BAA82AB8312041F7402121856BF
:1037CC007508027509007808121AAA7C837D0474A6
:1037DC000612188BAA82AB8312041F74021218569D
:1037EC007508027509007808121AAA7C857D047484
:1037FC000812188BAA82AB8312041F74021218567B
:10380C00851882851983AC82AD837A0879011207F9
:10381C0061E90E0236A690048DE02405F00239A66B
:10382C0090048DE0FE90048CE0F8EEC39840030207
:10383C003996EEF87900E875F006A4C8AAF075F090
:10384C0000A42AFA75F006E9A42AF9745028F58226
:10385C00740539F583E0F8A3E0F990047FE8F0A350
:10386C00E9F0EEF87900E875F006A4C8AAF075F056
:10387C0000A42AFA75F006E9A42AF9745228F582F4
:10388C00740539F583E0F8A3E0F9900481E8F0A31E
:10389C00E9F0EEF87900E875F006A4C8AAF075F026
:1038AC0000A42AFA75F006E9A42AF9745428F582C2
:1038BC00740539F583E0F8A3E0F9900483E8F0A3EC
:1038CC00E9F0EE70109009D2E0F87900900485F0E0
:1038DC00A3E9F0801F74016E701090048CE0F879ED
:1038EC0000900485F0A3E9F0800A90048574FFF041
:1038FC00A374FFF07508027509007808121AAA7CE7
:10390C007F7D04740212188BAA82AB8312041F747D
:10391C00021218567508027509007808121AAA7C4A
:10392C00817D04740412188BAA82AB8312041F7459
:10393C00021218567508027509007808121AAA7C2A
:10394C00837D04740612188BAA82AB8312041F7435
:10395C00021218567508027509007808121AAA7C0A
:10396C00857D04740812188BAA82AB8312041F7411
:10397C0002121856851882851983AC82AD837A0899
:10398C007901120761E90E02383190048CE0900441
:10399C008DF0800690048E7400F074081218567F17
:1039AC000202196974F012189774F1121840E9FEAA
:1039BC0014601014607A14606B24FE7003023A8356
:1039CC00023A83740212188BAA82AB837901120714
:1039DC0067E9740212188BE0F8A3E0F990105BE829
:1039EC00F0A3E9F01208E7851882851983EAF0A3A1
:1039FC00EBF0851882851983AC82AD837A02790449
:103A0C00120761E9900A0D7400F0908126121ABD1C
:103A1C007A007B209009D7E0F9120515740412186E
:103A2C0056E980537AD97B097903120767E98047F5
:103A3C00740412188BAA82AB837902120767E9749B
:103A4C000412188B12172E1204A91204AF8A0C8BB5
:103A5C000D8C0E8D0F850C08850D09850E0A850FB2
:103A6C000B7808121AA6740C12188BAA82AB83124C
:103A7C0004B57404121856740F1218567F080219E4
:103A8C0069C082C083D290D291D296D297D2A0D262
:103A9C00A1D281D282D284D285D286D28790048759
:103AAC007400F0A37400F0C293C280C294C295D08B
:103ABC0083D082020135C082C083C290C291C2966B
:103ACC00C297C2A0C2A1C281C282C284C285C28670
:103ADC00C28790048774FFF0A3740FF0D293D08345
:103AEC00D08202013574F2121897E9FB74016A70E6
:103AFC0020750801750900EB780812182DE508F4FB
:103B0C00F8E509F4F9900487E058F0A3E059F08047
:103B1C0018750801750900EB780812182D900487A8
:103B2C00E04508F0A3E04509F0900487E0F8A3E035
:103B3C00F9E8497004C2938002D293EB7003023B04
:103B4C00D314602014602614602C14603214603876
:103B5C0014603E14604414604A146050146056148F
:103B6C00605C806AEAF8EAA2E092918061EAF9EA84
:103B7C00A2E092968058EAFCEAA2E09297804FEA83
:103B8C00FDEAA2E092A08046EAFEEAA2E092A180C1
:103B9C003DEAFFEAA2E0928180348A08EAA2E09230
:103BAC0082802B8A09EAA2E0928480228A0AEAA205
:103BBC00E0928580198A0BEAA2E0928680108A0C2A
:103BCC00EAA2E0928780078A0DEAA2E092907F0633
:103BDC00021969C082C083900A0AE07004740180E3
:103BEC00027400900A0AF0900A0AE0FA901096E02B
:103BFC00F91208BD90816A121ABD7A007B019009F6
:103C0C00D7E0F91205157404121856E9D083D08246
:103C1C0002013574F012189774F9121840900A09C1
:103C2C007401F01204AF8A0C8B0D8C0E8D0F850C69
:103C3C0008850D09850E0A850F0B7808121AA674D3
:103C4C000412188BAA82AB831204B5740412185692
:103C5C00740212188BE0FEEEC3940C400474F42E24
:103C6C00FE75F005740112188BE084901096F0909C
:103C7C001096E06E7017901096E0640B7008901020
:103C8C0096740AF08007901096E02401F07A00EE0A
:103C9C00F91208BD1208C3908122121ABD7A007B5A
:103CAC00029009D7E0F91205157404121856E9743C
:103CBC00071218567F08021969C082C083900A093E
:103CCC007401F07A0179011208F97A207B009009CD
:103CDC00D7E0F9120473E9D083D082020135C08297
:103CEC00C0837A007B089009D7E0F9120473E9D0FD
:103CFC0083D082020135C082C083900A097401F01E
:103D0C007A0179031208F990810A121ABD7A007BA4
:103D1C00109009D7E0F91205157404121856E9D061
:103D2C0083D08202013574F712189774FF12184071
:103D3C00E9FE851882851983F0851882851983AC74
:103D4C0082AD8379017A057B03120839E97401127B
:103D5C0018567F0102196974F61218979009DCC085
:103D6C0082C0839009DAE0F8A3E0F9D083D082C353
:103D7C00E098A3E09940309009DCC082C0839009A0
:103D8C00DAE0F8A3E0F9D083D082E0C398F508A379
:103D9C00E099F5097403780812181EE5082403FA53
:103DAC00E5093400FB80369009DCC082C0839009A1
:103DBC00DAE0F8A3E0F9D083D082E0C398F8A3E06E
:103DCC0099F9E824A0F508E9340FF509740378088B
:103DDC0012181EE5082403FAE5093400FB7F0202E1
:103DEC00196974F712189774FE1218407A81791DAC
:103DFC001206D1851882851983742BF07401121860
:103E0C008B7440F0851882851983AA82AB83790262
:103E1C001206DDE9851882851983742BF0851882CA
:103E2C00851983AA82AB8379011206EFE97401121A
:103E3C00188BAA82AB8379011206F5E9740112186A
:103E4C008BE0FEA2E640CD851882851983740EF0B6
:103E5C00740112188B7402F0851882851983AA825A
:103E6C00AB8379021206DDE9851882851983740902
:103E7C00F0740112188B7440F0851882851983AA8E
:103E8C0082AB8379021206DDE98518828519837469
:103E9C0015F0740112188B74FFF085188285198344
:103EAC00AA82AB8379021206DDE985188285198313
:103EBC007417F0740112188B7411F085188285191F
:103ECC0083AA82AB8379021206DDE98518828519F3
:103EDC00837418F0740112188B7403F085188285A2
:103EEC001983AA82AB8379021206DDE985188285D3
:103EFC001983742CF0740112188B7408F0851882D5
:103F0C00851983AA82AB8379021206DDE9851882B2
:103F1C00851983742DF0740112188B7404F08518B4
:103F2C0082851983AA82AB8379021206DDE9851892
:103F3C0082851983742EF0740112188B7404F08529
:103F4C001882851983AA82AB8379021206DDE98572
:103F5C001882851983742BF0740112188B741FF05E
:103F6C00851882851983AA82AB8379021206DDE952
:103F7C00851882851983742AF0740112188B746960
:103F8C00F0851882851983AA82AB8379021206DD2B
:103F9C00E974021218567F0102196974E812189715
:103FAC0074DF121840E9C0E0741012188BD0E0F0E6
:103FBC00740E12188B7400F0A37400F07508007561
:103FCC000900750A00750B009080F6C082C08374DE
:103FDC001B12188BAC82AD83D083D082740612175F
:103FEC0053740812188B7400F0A37400F07411123F
:103FFC00188B7400F0A37400F0740A12188B740000
:10400C00F0A37400F0780079007A007B00881489A2
:10401C00158A168B17741312188B7488F0A37413EB
:10402C00F08518828519837400F0740712188B744C
:10403C0000F0740D12188B7401F0740C12188B7440
:10404C0000F0740412188B7400F07A81791D12063A
:10405C00D17AC07B001204D3740212188BEAF0A33D
:10406C00EBF07A407B001204D3740512188BEAF043
:10407C00A3EBF07CC07D007900740212188BE0FA7F
:10408C00A3E0FB120437740212188BE0F8A3E0F9DA
:10409C00E84960507CC07D007900740212188BE0F6
:1040AC00FAA3E0FB120437740D12188BAA82AB83AF
:1040BC0079011206EFE9740212188BE0FAA3E0FB07
:1040CC0075F006741012188BE0A4F91206F5E97459
:1040DC001012188BE0900489F0900489E0C39405C9
:1040EC00501A8013740C12188B7401F0900489749C
:1040FC0000F079000253CB79000253CB7CC07D00D9
:10410C0079007A907B041204377E00900489E0F8E1
:10411C00EEC39840030242D2EEF87900E875F0063F
:10412C00A4C8AAF075F000A42AFA75F006E9A42A2E
:10413C00F9740212188BE028FAA3E0398A82F5830D
:10414C00E0FA7B00E4CAFBEEF87900E875F006A40F
:10415C00C8ACF075F000A42CFC75F006E9A42CF9A1
:10416C00740212188BE028FCA3E0398C82F583A32F
:10417C00E0F87900EA48FAEB49FBEEF87900E875CB
:10418C00F006A4C8ACF075F000A42CFC75F006E9A0
:10419C00A42CF9749028F582740439F583EAF0A301
:1041AC00EBF0EEF87900E875F006A4C8AAF075F00B
:1041BC0000A42AFA75F006E9A42AF9740212188BE5
:1041CC00E028FAA3E0398A82F583A3A3E0FA7B0006
:1041DC00E4CAFBEEF87900E875F006A4C8ACF075FB
:1041EC00F000A42CFC75F006E9A42CF9740212184A
:1041FC008BE028FCA3E0398C82F583A3A3A3E0F821
:10420C007900EA48FAEB49FBEEF87900E875F0061C
:10421C00A4C8ACF075F000A42CFC75F006E9A42C35
:10422C00F9749228F582740439F583EAF0A3EBF063
:10423C00EEF87900E875F006A4C8AAF075F000A4B1
:10424C002AFA75F006E9A42AF9740212188BE028F0
:10425C00FAA3E0398A82F583A3A3A3A3E0FA7B0037
:10426C00E4CAFBEEF87900E875F006A4C8ACF0756A
:10427C00F000A42CFC75F006E9A42CF974021218B9
:10428C008BE028FCA3E0398C82F583A3A3A3A3A322
:10429C00E0F87900EA48FAEB49FBEEF87900E875AA
:1042AC00F006A4C8ACF075F000A42CFC75F006E97F
:1042BC00A42CF9749428F582740439F583EAF0A3DC
:1042CC00EBF00E0241177CC07D0079007A507B0523
:1042DC00120437750CC0750D00780C121AAA7C905C
:1042EC007D047A507B0512041F7402121856900438
:1042FC0089E090048CF090048D7400F090048FE0B1
:10430C00640170089009D27401F080089009D5E01E
:10431C009009D2F090048F7400F090048E7401F028
:10432C007A027B009009D7E0F9120473E97E0090C1
:10433C000489E0F8EEC398400302445DEEF879007E
:10434C00E875F006A4C8AAF075F000A42AFA75F076
:10435C0006E9A42AF9749028F582740439F583E0EF
:10436C00F50CA3E0F50D7406780C12180EEEF87926
:10437C0000E875F006A4C8AAF075F000A42AFA7536
:10438C00F006E9A42AF9749028F582740439F583AF
:10439C00E50CF0A3E50DF0EEF87900E875F006A455
:1043AC00C8AAF075F000A42AFA75F006E9A42AF957
:1043BC00749228F582740439F583E0F50CA3E0F5CA
:1043CC000D7406780C12180EEEF87900E875F006EC
:1043DC00A4C8AAF075F000A42AFA75F006E9A42A7C
:1043EC00F9749228F582740439F583E50CF0A3E591
:1043FC000DF0EEF87900E875F006A4C8AAF075F097
:10440C0000A42AFA75F006E9A42AF9749428F58216
:10441C00740439F583E0F50CA3E0F50D7406780C03
:10442C0012180EEEF87900E875F006A4C8AAF0751B
:10443C00F000A42AFA75F006E9A42AF9749428F578
:10444C0082740439F583E50CF0A3E50DF00E0243FC
:10445C003B9080EAC082C083741512188BAC82AD7D
:10446C0083D083D08274061217537E00900489E0A7
:10447C00F8EEC39840030245907F00EFC3940340CD
:10448C000302458CEFFA7B00EA75F002A4CAA8F08F
:10449C0075F000A428F875F002EBA428FBEEF8796F
:1044AC0000E875F006A4C8ACF075F000A42CFC75FF
:1044BC00F006E9A42CF9749028F8740439F9E82A68
:1044CC00F582E93BF583C082C083EFF87900E8758B
:1044DC00F002A4C8AAF075F000A42AFA75F002E95B
:1044EC00A42AF9741512188BE58228F582E5833914
:1044FC00F583E0F8A3E0F9D083D082C3E098A3E081
:10450C0099A2D265D0335074EFFA7B00EA75F002B1
:10451C00A4CAA8F075F000A428F875F002EBA42842
:10452C00FBEEF87900E875F006A4C8ACF075F00065
:10453C00A42CFC75F006E9A42CF9749028F87404EA
:10454C0039F9E82AF582E93BF583E0FAA3E0FBEFC1
:10455C00F87900E875F002A4C8ACF075F000A42C52
:10456C00FC75F002E9A42CF9741512188BE582285D
:10457C00F582E58339F583EAF0A3EBF00F0244876B
:10458C000E0244787C407D007900740512188BE093
:10459C00FAA3E0FB120437740112188B7400F07E3E
:1045AC0000900489E0F8EEC39840030247157F00A1
:1045BC00EFC394034003024711EFFA7B00EA75F056
:1045CC0002A4CAA8F075F000A428F875F002EBA4B8
:1045DC0028FBEEF87900E875F006A4C8ACF075F08D
:1045EC0000A42CFC75F006E9A42CF9749028F8743E
:1045FC000439F9E82AF582E93BF583C082C083EFE0
:10460C00F87900E875F002A4C8AAF075F000A42AA5
:10461C00FA75F002E9A42AF9741512188BE58228B0
:10462C00F582E58339F583E0F8A3E0F9D083D082F5
:10463C00E0C398F8A3E099F9E82401FCE93400FD03
:10464C00EFFA7B00EA75F002A4CAA8F075F000A49A
:10465C0028F875F002EBA428FBEEF87900E875F069
:10466C0006A4C885F00C75F000A4250CF50C75F0AB
:10467C0006E9A4250CF9749028F8740439F9E82A91
:10468C00F582E93BF583ECF0A3EDF0EFFA7B00EA61
:10469C0075F002A4CAA8F075F000A428F875F00211
:1046AC00EBA428FBEEF87900E875F006A4C8ACF092
:1046BC0075F000A42CFC75F006E9A42CF974902874
:1046CC00F8740439F9E82AF582E93BF583E0FAA39A
:1046DC00E0FBEEF87900E875F002A4C8ACF075F0D8
:1046EC0000A42CFC75F002E9A42CF9740512188BAB
:1046FC00E028FCA3E0398C82F583E02AF0A3E03BB0
:10470C00F00F0245BC0E0245AD900489E0C0E07488
:10471C000112188BD0E0F0740112188BE0F87900BC
:10472C0024FCF8E934FFF9740E12188BE8F0A3E9B5
:10473C00F07E008E0C750D00740E12188BE0F8A331
:10474C00E0F9C3E50C98E50D99400302481EEEFF15
:10475C008F0C750D008E0E750F00E50E2404F8E518
:10476C000F3400F9C3E50C98E50D99A2D265D0334E
:10477C005042EFF87900E875F002A4C8AAF075F081
:10478C0000A42AFA75F002E9A42AF9740512188B10
:10479C00E028FAA3E0398A82F583E0F50CA3E0F572
:1047AC000DE50D3395E0F50EF50F7808790C121622
:1047BC00760F809C850810850911850A12850B13CC
:1047CC00908106780C1217107810790C1215EFEEF8
:1047DC00F87900E875F002A4C8AAF075F000A42AD4
:1047EC00FA75F002E9A42AF9740512188BE028FA7C
:1047FC00A3E0398A82F583E510F0A3E511F0780087
:10480C0079007A007B00880889098A0A8B0B0E02D2
:10481C00473F7E00EEC394044003024904740E1219
:10482C00188BE0F8A3E0F9E82EFF740112188BE066
:10483C00F8EFC3985042EFF87900E875F002A4C87D
:10484C00AAF075F000A42AFA75F002E9A42AF9740A
:10485C000512188BE028FAA3E0398A82F583E0F57B
:10486C000CA3E0F50DE50D3395E0F50EF50F78088A
:10487C00790C1216760F80B28E0C750D007404C371
:10488C00950CF50C7400950DF50DE50D3395E0F5D3
:10489C000EF50F850810850911850A12850B137802
:1048AC0010790C1215EF740E12188B8E0C750D00FE
:1048BC00E0250CF8A3E0350DF9E875F002A4C8AAC0
:1048CC00F075F000A42AFA75F002E9A42AF974052F
:1048DC0012188BE028FAA3E0398A82F583E510F0F0
:1048EC00A3E511F0780079007A007B00880889092B
:1048FC008A0A8B0B0E0248207E00740112188BE082
:10490C00F8EEC39840030249A3EEF87900E875F07D
:10491C0002A4C8AAF075F000A42AFA75F002E9A462
:10492C002AF9740512188BE028FAA3E0398A82F56B
:10493C0083E0FCA3E0FD9009D0E0FA7B00EA75F07F
:10494C0002A4CAA8F075F000A428F875F002EBA434
:10495C0028FB90048AE0F879008E0C750D00250C6C
:10496C00F8E9350DF9E875F006A4C885F00C75F07A
:10497C0000A4250CF50C75F006E9A4250CF97410AF
:10498C0028F8740639F9E82AF582E93BF583ECF04E
:10499C00A3EDF00E024906740112188BE0F8900496
:1049AC008AE028F07C807D0179007A907B071204E4
:1049BC00377E008E0C750D0090048AE0F879002487
:1049CC00FFF8E934FFF9C3E50C98E50D99A2D2651F
:1049DC00D0334003024AD4EEF87900E875F006A40F
:1049EC00C8AAF075F000A42AFA75F006E9A42AF911
:1049FC009009D0E0FA7B00EA75F002A4CAACF0751D
:104A0C00F000A42CFC75F002EBA42CFB74162AFA13
:104A1C0074063BFBEA28F582EB39F583C082C08330
:104A2C009009D0E0FA7B00EA75F002A4CAA8F075F0
:104A3C00F000A428F875F002EBA428FBEEF879003E
:104A4C00E875F006A4C8ACF075F000A42CFC75F069
:104A5C0006E9A42CF9741028F8740639F9E82AF53B
:104A6C0082E93BF583E0F8A3E0F9D083D082E0C380
:104A7C0098FCA3E099FD9009D0E0FA7B00EA75F070
:104A8C0002A4CAA8F075F000A428F875F002EBA4F3
:104A9C0028FBEEF87900E875F006A4C885F00C75D3
:104AAC00F000A4250CF50C75F006E9A4250CF9749E
:104ABC009028F8740739F9E82AF582E93BF583EC7C
:104ACC00F0A3EDF00E0249BF90048AE024FEFEEE46
:104ADC00C394015003024BA0EEF87900E875F00680
:104AEC00A4C8AAF075F000A42AFA75F006E9A42A65
:104AFC00F99009D0E0FA7B00EA75F002A4CAACF098
:104B0C0075F000A42CFC75F002EBA42CFB748A2A23
:104B1C00FA74073BFBEA28F582EB39F583C3E09482
:104B2C0001A3E09400A2D265D03340649009D0E098
:104B3C00FA7B00EA75F002A4CAA8F075F000A4286C
:104B4C00F875F002EBA428FBEEF87900E875F00696
:104B5C00A4C8ACF075F000A42CFC75F006E9A42CEC
:104B6C00F9749028F8740739F9E82AF582E93BF5CD
:104B7C0083C3E09401A3E09400A2D265D03350101B
:104B8C00EEF87900740812188BE8F0A3E9F08004B1
:104B9C001E024ADB740812188BE0F8A3E0F9E8490E
:104BAC006016740812188BE0F8A3E0F9741112184F
:104BBC008BE8F0A3E9F0801190048AE0F879007496
:104BCC001112188BE8F0A3E9F07E0090048AE0F84B
:104BDC00EEC398505F9009D0E0FA7B00EA75F002C2
:104BEC00A4CAA8F075F000A428F875F002EBA4286C
:104BFC00FBEEF87900E875F006A4C8ACF075F0008F
:104C0C00A42CFC75F006E9A42CF9741028F8740691
:104C1C0039F9E82AF582E93BF583E0F50CA3E0F5D8
:104C2C000DE50D3395E0F50EF50F7814790C121691
:104C3C00760E80978514108515118516128517131D
:104C4C0090048AE0F50CE4F50DF50EF50F7810796B
:104C5C000C1215EF740A12188BE510F0A3E511F085
:104C6C00740A12188BE0F8A3E0F97A0A7B00121789
:104C7C00AD880C890D740A12188BC3E0950CF0A347
:104C8C00E0950DF0750C007E008E0E750F00741102
:104C9C0012188BE024FFF8A3E034FFF9C3E50E985B
:104CAC00E50F9940030250549009D0E0FA7B00EADA
:104CBC0075F002A4CAA8F075F000A428F875F002EB
:104CCC00EBA428FBEEF87900E875F006A4C8ACF06C
:104CDC0075F000A42CFC75F006E9A42CF97490284E
:104CEC00F8740739F9E82AF582E93BF583C3E094B7
:104CFC0001A3E09400A2D265D0335003024DB3EE71
:104D0C00F87900E875F006A4C8AAF075F000A42A9A
:104D1C00FA75F006E9A42AF99009D0E0FA7B00EACA
:104D2C0075F002A4CAACF075F000A42CFC75F0026E
:104D3C00EBA42CFB74962AFA74073BFBEA28F58249
:104D4C00EB39F583C3E09401A3E09400A2D265D0C3
:104D5C00335054EEF87900E875F006A4C8AAF07543
:104D6C00F000A42AFA75F006E9A42AF99009D0E01B
:104D7C00FA7B00EA75F002A4CAACF075F000A42C22
:104D8C00FC75F002EBA42CFB74162AFA74063BFBA0
:104D9C00EA28F582EB39F583E0F8A3E0F9741312F5
:104DAC00188BE8F0A3E9F0851882851983E070056B
:104DBC00750C008003750C049009D0E0FA7B00EAB6
:104DCC0075F002A4CAA8F075F000A428F875F002DA
:104DDC00EBA428FBEEF87900E875F006A4C8ACF05B
:104DEC0075F000A42CFC75F006E9A42CF9741028BD
:104DFC00F8740639F9E82AF582E93BF583C082C0DC
:104E0C0083740A12188BE0F8A3E0F9D083D082C324
:104E1C00E098A3E099A2D265D0334008740412182C
:104E2C008B7400F09009D0E0FA7B00EA75F002A4D4
:104E3C00CAA8F075F000A428F875F002EBA428FBC2
:104E4C00EEF87900E875F006A4C8ACF075F000A493
:104E5C002CFC75F006E9A42CF9749028F874073929
:104E6C00F9E82AF582E93BF583C3E09400A3E094CA
:104E7C0000A2D265D0334003025050EEF87900E81E
:104E8C0075F006A4C8AAF075F000A42AFA75F0060D
:104E9C00E9A42AF99009D0E0FA7B00EA75F002A4A3
:104EAC00CAACF075F000A42CFC75F002EBA42CFB42
:104EBC0074962AFA74073BFBEA28F582EB39F583E2
:104ECC00C3E09400A3E09400A2D265D03350030257
:104EDC005050EEF87900E875F006A4C8AAF075F009
:104EEC0000A42AFA75F006E9A42AF99009D0E0FA90
:104EFC007B00EA75F002A4CAACF075F000A42CFC9F
:104F0C0075F002EBA42CFB74162AFA74063BFBEA30
:104F1C0028F582EB39F583C082C083740A12188B92
:104F2C00E0F8A3E0F9D083D082C3E098A3E099A283
:104F3C00D265D0334003025050741312188BC082C8
:104F4C00C083EEF87900E875F006A4C8AAF075F0F5
:104F5C0000A42AFA75F006E9A42AF99009D0E0FA1F
:104F6C007B00EA75F002A4CAACF075F000A42CFC2E
:104F7C0075F002EBA42CFB74162AFA74063BFBEAC0
:104F8C0028F582EB39F583E0F8A3E0F9D083D082E1
:104F9C00E0C398F8A3E099F9C3E89410E99400A24F
:104FAC00D265D03350030250508E0E750F00851809
:104FBC0082851983E0F87900E50EC398F8E50F991E
:104FCC00F9850C0E750F00C3E8950EE9950FA2D26A
:104FDC0065D033406F851882851983E0701D740786
:104FEC0012188BE02401F074012E85188285198328
:104FFC00F0740412188B7401F080498E0E750F003A
:10500C00851882851983E0F87900E50EC398F8E5D8
:10501C000F99F9C3E89410E99400A2D265D03350EB
:10502C0023740412188BE0701B740712188BE02485
:10503C0001F074012E851882851983F074041218FE
:10504C008B7401F00E024C95740712188BE09009CA
:10505C00D6F09009D6E06401702C9009D5E0C39489
:10506C000240239009D4E0C39402401A75F00290D8
:10507C0009D6E0A4FA79021208F99009D67400F066
:10508C0090048F7401F09009D6E0C39402401F90F5
:10509C0009D5E0C3940240169009D4E06401700E67
:1050AC0075F0029009D4E0A4FA79021208F990097B
:1050BC00D5E0C3940240509009D4E0F879009009EF
:1050CC00D6E0FA7B00E82AF8E93BF9C3E89403E957
:1050DC009400A2D265D033401075F0029009D5E04F
:1050EC00A4FA79021208F9801E9009D4E0640260D7
:1050FC00089009D6E06402700E75F0029009D5E0B4
:10510C00A4FA79021208F99009D4E09009D3F0902E
:10511C0009D5E09009D4F09009D6E09009D5F0902B
:10512C0009D67400F07CC07D0079007A107B0912DE
:10513C00043790048B7400F0740812188BE024016F
:10514C00F8A3E03400F990048AE0FA7B00C3E89AF3
:10515C00E99B400302534290048AE0FA7B007408F6
:10516C0012188BE0F8A3E0F9EAC398F8EB99F9E888
:10517C0024FFF8E934FFF9C3E89420E994005003C4
:10518C0002524E7E00EEC39420400302524590041E
:10519C008AE0F879008E0E750F00250EF8E9350FB0
:1051AC00F9E875F006A4C8AAF075F000A42AFA75FF
:1051BC00F006E9A42AF99009D0E0FA7B00EA75F030
:1051CC0002A4CAACF075F000A42CFC75F002EBA4A0
:1051DC002CFB74502AFA74053BFBEA28F582EB3958
:1051EC00F583E0FCA3E0FD9009D0E0FA7B00EA75C2
:1051FC00F002A4CAA8F075F000A428F875F002EB30
:10520C00A428FBEEF87900E875F006A4C885F00D2B
:10521C0075F000A4250DF50D75F006E9A4250DF922
:10522C00741028F8740939F9E82AF582E93BF583FA
:10523C00ECF0A3EDF00E02519190048B7420F0026F
:10524C0053427E008E0E750F0090048AE0FA7B00AC
:10525C00740812188BE0F8A3E0F9EAC398F8EB99FC
:10526C00F9E824FFF8E934FFF9C3E50E98E50F9946
:10527C00400302532C740812188B8E0E750F00E02D
:10528C00250EF8A3E0350FF9E875F006A4C8AAF0CE
:10529C0075F000A42AFA75F006E9A42AF99009D051
:1052AC00E0FA7B00EA75F002A4CAACF075F000A439
:1052BC002CFC75F002EBA42CFB74162AFA74063B3A
:1052CC00FBEA28F582EB39F583E0FCA3E0FD9009BD
:1052DC00D0E0FA7B00EA75F002A4CAA8F075F000E1
:1052EC00A428F875F002EBA428FBEEF87900E87519
:1052FC00F006A4C885F00D75F000A4250DF50D750C
:10530C00F006E9A4250DF9741028F8740939F9E8A8
:10531C002AF582E93BF583ECF0A3EDF00E02525036
:10532C00740812188BE0F8A3E0F990048AE0C39893
:10533C0024FF90048BF07C807D0179007A107B0631
:10534C0012043790048A7400F07CC07D0079007AD6
:10535C00907B041204379004897400F090048BE065
:10536C00F50E750F00E50E75F006A4C50EA8F075C8
:10537C00F000A428F875F006E50FA428F50F780EB8
:10538C00121AAA7C107D097A107B0612041F740273
:10539C0012185690048BE090048AF09009D0E0909B
:1053AC0009D1F0740212188BE0FAA3E0FB1204D9B5
:1053BC00740512188BE0FAA3E0FB1204D97901747E
:1053CC00211218567F1002196974EF12189774ED98
:1053DC00121840E9FF8A1074FF2FFE1204AF8A08DE
:1053EC008B098C0A8D0B85080C85090D850A0E8599
:1053FC000B0F780C121AA6740612188BAA82AB83A8
:10540C001204B5740412185674026F7008740312E7
:10541C00188B7400F0740212188B7400F0EEF8798B
:10542C0000E875F00EA4C8AAF075F000A42AFA756D
:10543C00F00EE9A42AF974E528F582740939F5838C
:10544C007808121710E5084509450A450B60030258
:10545C005532740212188BEEF87900E875F00EA430
:10546C00C8AAF075F000A42AFA75F00EE9A42AF97E
:10547C0074DE28FC740939FD7407121753EEF879A1
:10548C0000E875F00EA4C8AAF075F000A42AFA750D
:10549C00F00EE9A42AF974DE28FA740939FB120417
:1054AC00C1EEF87900E875F00EA4C885F00875F027
:1054BC0000A42508F50875F00EE9A42508F974E593
:1054CC0028F582740939F58312173AE510AC107D72
:1054DC0000EEF87900E875F00EA4C8AAF075F0009B
:1054EC00A42AFA75F00EE9A42AF974E928F5827455
:1054FC000939F583E510F0A3EDF0EFC0E0EEF87993
:10550C0000E875F00EA4C8AAF075F000A42AFA758C
:10551C00F00EE9A42AF974EB28F582740939F583A5
:10552C00D0E0F002592CEEF87900E875F00EA4C822
:10553C00AAF075F000A42AFA75F00EE9A42AF97401
:10554C00E328F582740939F583E0F8A3E0F97407D0
:10555C0012188BE0687003A3E0696003025629EE11
:10556C00F87900E875F00EA4C8AAF075F000A42A2A
:10557C00FA75F00EE9A42AF974E228F58274093957
:10558C00F583E0F8740612188BE068600302562964
:10559C00EEF87900E875F00EA4C8AAF075F000A436
:1055AC002AFA75F00EE9A42AF974E128F582740937
:1055BC0039F583E0F8740512188BE068705FEEF82B
:1055CC007900E875F00EA4C8AAF075F000A42AFAC8
:1055DC0075F00EE9A42AF974DF28F582740939F5FF
:1055EC0083E0F8740312188BE0687031EEF87900E0
:1055FC00E875F00EA4C8AAF075F000A42AFA75F0AC
:10560C000EE9A42AF974E028F582740939F583E0CF
:10561C00F8740412188BE06870030258FA7A8179D6
:10562C00501206D19009DCE0F8A3E0F9E4E9F8C0E7
:10563C00E0740912188BD0E0F09009DCE0F8A3E0DC
:10564C00F9E8C0E0740A12188BD0E0F0EEF879009B
:10565C00E875F00EA4C8AAF075F000A42AFA75F04B
:10566C000EE9A42AF974E528F582740939F58378D2
:10567C0008121710E508740B12188BE508F0EEF8F9
:10568C007900E875F00EA4C8AAF075F000A42AFA07
:10569C0075F00EE9A42AF974E528F582740939F538
:1056AC00837808121710E4E509F508E508740C1264
:1056BC00188BE508F0EEF87900E875F00EA4C8AA8E
:1056CC00F075F000A42AFA75F00EE9A42AF974E535
:1056DC0028F582740939F58378081217107410783C
:1056EC000812163EE508740D12188BE508F0EEF85A
:1056FC007900E875F00EA4C8AAF075F000A42AFA97
:10570C0075F00EE9A42AF974E528F582740939F5C7
:10571C008378081217107418780812163EE508746E
:10572C000E12188BE508F0EEF87900E875F00EA46F
:10573C00C8AAF075F000A42AFA75F00EE9A42AF9AB
:10574C0074E928F582740939F583E0F8A3E0F9E8E7
:10575C00C0E0740F12188BD0E0F0EEF87900E87509
:10576C00F00EA4C8AAF075F000A42AFA75F00EE9A0
:10577C00A42AF974E928F582740939F583E0F8A3B1
:10578C00E0F9E4E9F8C0E0741012188BD0E0F0EE08
:10579C00F87900E875F00EA4C8AAF075F000A42AF8
:1057AC00FA75F00EE9A42AF974EB28F5827409391C
:1057BC00F583E0C0E0741112188BD0E0F09009D999
:1057CC00E0C0E0741212188BD0E0F0740912188B40
:1057DC00AA82AB83790A1206DDE91206E9E990097F
:1057EC00DCE02408F0A3E03400F09009DCC3E09482
:1057FC0000A3E0947D400A9009DC7400F0A37400CF
:10580C00F09009DCE0F8A3E0F99009DAE0687003A5
:10581C00A3E069700C9009DAE02408F0A3E03400EE
:10582C00F01208E7851882851983EAF0A3EBF0855E
:10583C001882851983AC82AD837A027904120761D0
:10584C00E9740212188BEEF87900E875F00EA4C812
:10585C00AAF075F000A42AFA75F00EE9A42AF974DE
:10586C00DE28FC740939FD7407121753EEF8790021
:10587C00E875F00EA4C8AAF075F000A42AFA75F029
:10588C000EE9A42AF974DE28FA740939FB1204C152
:10589C00EEF87900E875F00EA4C885F00875F000F4
:1058AC00A42508F50875F00EE9A42508F974E52877
:1058BC00F582740939F58312173AE510AC107D00A6
:1058CC00EEF87900E875F00EA4C8AAF075F000A403
:1058DC002AFA75F00EE9A42AF974E928F5827409FC
:1058EC0039F583E510F0A3EDF0120905803285102F
:1058FC0008750900EEF87900E875F00EA4C8AAF056
:10590C0075F000A42AFA75F00EE9A42AF974E928B6
:10591C00F582740939F583E02508F0A3E03509F028
:10592C0074131218567F0902196974F412189774BB
:10593C00EE1218409009D8E0640560057900025B0E
:10594C00DE7A8179501206D19009DAE0F8A3E0F9F9
:10595C009009DCE0687003A3E06970030259EC90D5
:10596C0009DAE0F8A3E0F9E4E9F8851882851983EF
:10597C00F09009DAE0F8A3E0F9E8C0E0740112183D
:10598C008BD0E0F0851882851983AA82AB837902CB
:10599C001206DDE9740A12188BAA82AB83790812FD
:1059AC0006D7E99009DAE02408F0A3E03400F0907F
:1059BC0009DAC3E09400A3E0947D400A9009DA74FC
:1059CC0000F0A37400F0740A12188BAC82AD837AC9
:1059DC00087905120761E9120905900A0D7400F0A7
:1059EC009009DAE0F8A3E0F99009DCE0687003A311
:1059FC00E0696003025BDC900A0DE0F87900E87561
:105A0C00F00EA4C8AAF075F000A42AFA75F00EE9FD
:105A1C00A42AF974E528F582740939F583780812FB
:105A2C001710E508740212188BE508F0900A0DE0C7
:105A3C00F87900E875F00EA4C8AAF075F000A42A55
:105A4C00FA75F00EE9A42AF974E528F5827409397F
:105A5C00F5837808121710E4E509F508E5087403D6
:105A6C0012188BE508F0900A0DE0F87900E875F053
:105A7C000EA4C8AAF075F000A42AFA75F00EE9A4D9
:105A8C002AF974E528F582740939F5837808121718
:105A9C00107410780812163EE508740412188BE581
:105AAC0008F0900A0DE0F87900E875F00EA4C8AA89
:105ABC00F075F000A42AFA75F00EE9A42AF974E541
:105ACC0028F582740939F583780812171074187840
:105ADC000812163EE508740512188BE508F0900ABA
:105AEC000DE0F87900E875F00EA4C8AAF075F00086
:105AFC00A42AFA75F00EE9A42AF974E928F582743F
:105B0C000939F583E0F8A3E0F9E8C0E0740612184F
:105B1C008BD0E0F0900A0DE0F87900E875F00EA457
:105B2C00C8AAF075F000A42AFA75F00EE9A42AF9B7
